{
  "_format": "hh-sol-artifact-1",
  "contractName": "mintCardNFT",
  "sourceName": "contracts/mintCardNFT.sol",
  "abi": [
    {
      "inputs": [],
      "stateMutability": "nonpayable",
      "type": "constructor"
    },
    {
      "inputs": [
        {
          "internalType": "address",
          "name": "sender",
          "type": "address"
        },
        {
          "internalType": "uint256",
          "name": "tokenId",
          "type": "uint256"
        },
        {
          "internalType": "address",
          "name": "owner",
          "type": "address"
        }
      ],
      "name": "ERC721IncorrectOwner",
      "type": "error"
    },
    {
      "inputs": [
        {
          "internalType": "address",
          "name": "operator",
          "type": "address"
        },
        {
          "internalType": "uint256",
          "name": "tokenId",
          "type": "uint256"
        }
      ],
      "name": "ERC721InsufficientApproval",
      "type": "error"
    },
    {
      "inputs": [
        {
          "internalType": "address",
          "name": "approver",
          "type": "address"
        }
      ],
      "name": "ERC721InvalidApprover",
      "type": "error"
    },
    {
      "inputs": [
        {
          "internalType": "address",
          "name": "operator",
          "type": "address"
        }
      ],
      "name": "ERC721InvalidOperator",
      "type": "error"
    },
    {
      "inputs": [
        {
          "internalType": "address",
          "name": "owner",
          "type": "address"
        }
      ],
      "name": "ERC721InvalidOwner",
      "type": "error"
    },
    {
      "inputs": [
        {
          "internalType": "address",
          "name": "receiver",
          "type": "address"
        }
      ],
      "name": "ERC721InvalidReceiver",
      "type": "error"
    },
    {
      "inputs": [
        {
          "internalType": "address",
          "name": "sender",
          "type": "address"
        }
      ],
      "name": "ERC721InvalidSender",
      "type": "error"
    },
    {
      "inputs": [
        {
          "internalType": "uint256",
          "name": "tokenId",
          "type": "uint256"
        }
      ],
      "name": "ERC721NonexistentToken",
      "type": "error"
    },
    {
      "inputs": [
        {
          "internalType": "address",
          "name": "have",
          "type": "address"
        },
        {
          "internalType": "address",
          "name": "want",
          "type": "address"
        }
      ],
      "name": "OnlyCoordinatorCanFulfill",
      "type": "error"
    },
    {
      "inputs": [
        {
          "internalType": "address",
          "name": "have",
          "type": "address"
        },
        {
          "internalType": "address",
          "name": "owner",
          "type": "address"
        },
        {
          "internalType": "address",
          "name": "coordinator",
          "type": "address"
        }
      ],
      "name": "OnlyOwnerOrCoordinator",
      "type": "error"
    },
    {
      "inputs": [],
      "name": "ZeroAddress",
      "type": "error"
    },
    {
      "anonymous": false,
      "inputs": [
        {
          "indexed": true,
          "internalType": "address",
          "name": "owner",
          "type": "address"
        },
        {
          "indexed": true,
          "internalType": "address",
          "name": "approved",
          "type": "address"
        },
        {
          "indexed": true,
          "internalType": "uint256",
          "name": "tokenId",
          "type": "uint256"
        }
      ],
      "name": "Approval",
      "type": "event"
    },
    {
      "anonymous": false,
      "inputs": [
        {
          "indexed": true,
          "internalType": "address",
          "name": "owner",
          "type": "address"
        },
        {
          "indexed": true,
          "internalType": "address",
          "name": "operator",
          "type": "address"
        },
        {
          "indexed": false,
          "internalType": "bool",
          "name": "approved",
          "type": "bool"
        }
      ],
      "name": "ApprovalForAll",
      "type": "event"
    },
    {
      "anonymous": false,
      "inputs": [
        {
          "indexed": false,
          "internalType": "uint256",
          "name": "_fromTokenId",
          "type": "uint256"
        },
        {
          "indexed": false,
          "internalType": "uint256",
          "name": "_toTokenId",
          "type": "uint256"
        }
      ],
      "name": "BatchMetadataUpdate",
      "type": "event"
    },
    {
      "anonymous": false,
      "inputs": [
        {
          "indexed": false,
          "internalType": "address",
          "name": "vrfCoordinator",
          "type": "address"
        }
      ],
      "name": "CoordinatorSet",
      "type": "event"
    },
    {
      "anonymous": false,
      "inputs": [
        {
          "indexed": true,
          "internalType": "uint256",
          "name": "tokenId",
          "type": "uint256"
        },
        {
          "indexed": false,
          "internalType": "address",
          "name": "seller",
          "type": "address"
        },
        {
          "indexed": false,
          "internalType": "address",
          "name": "contract_owner",
          "type": "address"
        },
        {
          "indexed": false,
          "internalType": "uint256",
          "name": "price",
          "type": "uint256"
        },
        {
          "indexed": false,
          "internalType": "bool",
          "name": "sold",
          "type": "bool"
        }
      ],
      "name": "ListingCreated",
      "type": "event"
    },
    {
      "anonymous": false,
      "inputs": [
        {
          "indexed": true,
          "internalType": "uint256",
          "name": "tokenId",
          "type": "uint256"
        },
        {
          "indexed": false,
          "internalType": "address",
          "name": "seller",
          "type": "address"
        }
      ],
      "name": "ListingRemoved",
      "type": "event"
    },
    {
      "anonymous": false,
      "inputs": [
        {
          "indexed": false,
          "internalType": "uint256",
          "name": "_tokenId",
          "type": "uint256"
        }
      ],
      "name": "MetadataUpdate",
      "type": "event"
    },
    {
      "anonymous": false,
      "inputs": [
        {
          "indexed": true,
          "internalType": "address",
          "name": "from",
          "type": "address"
        },
        {
          "indexed": true,
          "internalType": "address",
          "name": "to",
          "type": "address"
        }
      ],
      "name": "OwnershipTransferRequested",
      "type": "event"
    },
    {
      "anonymous": false,
      "inputs": [
        {
          "indexed": true,
          "internalType": "address",
          "name": "from",
          "type": "address"
        },
        {
          "indexed": true,
          "internalType": "address",
          "name": "to",
          "type": "address"
        }
      ],
      "name": "OwnershipTransferred",
      "type": "event"
    },
    {
      "anonymous": false,
      "inputs": [
        {
          "indexed": true,
          "internalType": "address",
          "name": "from",
          "type": "address"
        },
        {
          "indexed": true,
          "internalType": "address",
          "name": "to",
          "type": "address"
        },
        {
          "indexed": true,
          "internalType": "uint256",
          "name": "tokenId",
          "type": "uint256"
        }
      ],
      "name": "Transfer",
      "type": "event"
    },
    {
      "inputs": [],
      "name": "acceptOwnership",
      "outputs": [],
      "stateMutability": "nonpayable",
      "type": "function"
    },
    {
      "inputs": [
        {
          "internalType": "address",
          "name": "to",
          "type": "address"
        },
        {
          "internalType": "uint256",
          "name": "tokenId",
          "type": "uint256"
        }
      ],
      "name": "approve",
      "outputs": [],
      "stateMutability": "nonpayable",
      "type": "function"
    },
    {
      "inputs": [
        {
          "internalType": "address",
          "name": "owner",
          "type": "address"
        }
      ],
      "name": "balanceOf",
      "outputs": [
        {
          "internalType": "uint256",
          "name": "",
          "type": "uint256"
        }
      ],
      "stateMutability": "view",
      "type": "function"
    },
    {
      "inputs": [],
      "name": "baseURI",
      "outputs": [
        {
          "internalType": "string",
          "name": "",
          "type": "string"
        }
      ],
      "stateMutability": "view",
      "type": "function"
    },
    {
      "inputs": [
        {
          "internalType": "string",
          "name": "tokenURI",
          "type": "string"
        },
        {
          "internalType": "uint256",
          "name": "price",
          "type": "uint256"
        }
      ],
      "name": "createToken",
      "outputs": [
        {
          "internalType": "uint256",
          "name": "",
          "type": "uint256"
        }
      ],
      "stateMutability": "payable",
      "type": "function"
    },
    {
      "inputs": [],
      "name": "fetchItemsListed",
      "outputs": [
        {
          "components": [
            {
              "internalType": "uint256",
              "name": "tokenId",
              "type": "uint256"
            },
            {
              "internalType": "address payable",
              "name": "seller",
              "type": "address"
            },
            {
              "internalType": "address payable",
              "name": "contract_owner",
              "type": "address"
            },
            {
              "internalType": "uint256",
              "name": "price",
              "type": "uint256"
            },
            {
              "internalType": "bool",
              "name": "sold",
              "type": "bool"
            }
          ],
          "internalType": "struct NFTplace.Listing[]",
          "name": "",
          "type": "tuple[]"
        }
      ],
      "stateMutability": "view",
      "type": "function"
    },
    {
      "inputs": [],
      "name": "fetchListingMarketplace",
      "outputs": [
        {
          "components": [
            {
              "internalType": "uint256",
              "name": "tokenId",
              "type": "uint256"
            },
            {
              "internalType": "address payable",
              "name": "seller",
              "type": "address"
            },
            {
              "internalType": "address payable",
              "name": "contract_owner",
              "type": "address"
            },
            {
              "internalType": "uint256",
              "name": "price",
              "type": "uint256"
            },
            {
              "internalType": "bool",
              "name": "sold",
              "type": "bool"
            }
          ],
          "internalType": "struct NFTplace.Listing[]",
          "name": "",
          "type": "tuple[]"
        }
      ],
      "stateMutability": "view",
      "type": "function"
    },
    {
      "inputs": [],
      "name": "fetchMyNFTs",
      "outputs": [
        {
          "components": [
            {
              "internalType": "uint256",
              "name": "tokenId",
              "type": "uint256"
            },
            {
              "internalType": "address payable",
              "name": "seller",
              "type": "address"
            },
            {
              "internalType": "address payable",
              "name": "contract_owner",
              "type": "address"
            },
            {
              "internalType": "uint256",
              "name": "price",
              "type": "uint256"
            },
            {
              "internalType": "bool",
              "name": "sold",
              "type": "bool"
            }
          ],
          "internalType": "struct NFTplace.Listing[]",
          "name": "",
          "type": "tuple[]"
        }
      ],
      "stateMutability": "view",
      "type": "function"
    },
    {
      "inputs": [
        {
          "internalType": "uint256",
          "name": "tokenId",
          "type": "uint256"
        }
      ],
      "name": "getApproved",
      "outputs": [
        {
          "internalType": "address",
          "name": "",
          "type": "address"
        }
      ],
      "stateMutability": "view",
      "type": "function"
    },
    {
      "inputs": [],
      "name": "getListingPrice",
      "outputs": [
        {
          "internalType": "uint256",
          "name": "",
          "type": "uint256"
        }
      ],
      "stateMutability": "view",
      "type": "function"
    },
    {
      "inputs": [],
      "name": "getRandomnessProvider",
      "outputs": [
        {
          "internalType": "address",
          "name": "",
          "type": "address"
        }
      ],
      "stateMutability": "view",
      "type": "function"
    },
    {
      "inputs": [],
      "name": "getcontract_owner",
      "outputs": [
        {
          "internalType": "address",
          "name": "",
          "type": "address"
        }
      ],
      "stateMutability": "view",
      "type": "function"
    },
    {
      "inputs": [
        {
          "internalType": "address",
          "name": "owner",
          "type": "address"
        },
        {
          "internalType": "address",
          "name": "operator",
          "type": "address"
        }
      ],
      "name": "isApprovedForAll",
      "outputs": [
        {
          "internalType": "bool",
          "name": "",
          "type": "bool"
        }
      ],
      "stateMutability": "view",
      "type": "function"
    },
    {
      "inputs": [],
      "name": "lastRequestId",
      "outputs": [
        {
          "internalType": "uint256",
          "name": "",
          "type": "uint256"
        }
      ],
      "stateMutability": "view",
      "type": "function"
    },
    {
      "inputs": [],
      "name": "name",
      "outputs": [
        {
          "internalType": "string",
          "name": "",
          "type": "string"
        }
      ],
      "stateMutability": "view",
      "type": "function"
    },
    {
      "inputs": [],
      "name": "owner",
      "outputs": [
        {
          "internalType": "address",
          "name": "",
          "type": "address"
        }
      ],
      "stateMutability": "view",
      "type": "function"
    },
    {
      "inputs": [
        {
          "internalType": "uint256",
          "name": "tokenId",
          "type": "uint256"
        }
      ],
      "name": "ownerOf",
      "outputs": [
        {
          "internalType": "address",
          "name": "",
          "type": "address"
        }
      ],
      "stateMutability": "view",
      "type": "function"
    },
    {
      "inputs": [
        {
          "internalType": "uint256",
          "name": "tokenId",
          "type": "uint256"
        }
      ],
      "name": "purchaseCard",
      "outputs": [],
      "stateMutability": "payable",
      "type": "function"
    },
    {
      "inputs": [],
      "name": "randomnessProvider",
      "outputs": [
        {
          "internalType": "address",
          "name": "",
          "type": "address"
        }
      ],
      "stateMutability": "view",
      "type": "function"
    },
    {
      "inputs": [
        {
          "internalType": "uint256",
          "name": "requestId",
          "type": "uint256"
        },
        {
          "internalType": "uint256[]",
          "name": "randomWords",
          "type": "uint256[]"
        }
      ],
      "name": "rawFulfillRandomWords",
      "outputs": [],
      "stateMutability": "nonpayable",
      "type": "function"
    },
    {
      "inputs": [
        {
          "internalType": "uint256",
          "name": "",
          "type": "uint256"
        }
      ],
      "name": "requestIds",
      "outputs": [
        {
          "internalType": "uint256",
          "name": "",
          "type": "uint256"
        }
      ],
      "stateMutability": "view",
      "type": "function"
    },
    {
      "inputs": [
        {
          "internalType": "bool",
          "name": "enableNativePayment",
          "type": "bool"
        }
      ],
      "name": "requestRandomWords",
      "outputs": [
        {
          "internalType": "uint256",
          "name": "requestId",
          "type": "uint256"
        }
      ],
      "stateMutability": "nonpayable",
      "type": "function"
    },
    {
      "inputs": [
        {
          "internalType": "uint256",
          "name": "",
          "type": "uint256"
        }
      ],
      "name": "s_requestToSender",
      "outputs": [
        {
          "internalType": "address",
          "name": "",
          "type": "address"
        }
      ],
      "stateMutability": "view",
      "type": "function"
    },
    {
      "inputs": [
        {
          "internalType": "uint256",
          "name": "",
          "type": "uint256"
        }
      ],
      "name": "s_requests",
      "outputs": [
        {
          "internalType": "bool",
          "name": "fulfilled",
          "type": "bool"
        },
        {
          "internalType": "bool",
          "name": "exists",
          "type": "bool"
        }
      ],
      "stateMutability": "view",
      "type": "function"
    },
    {
      "inputs": [],
      "name": "s_subscriptionId",
      "outputs": [
        {
          "internalType": "uint256",
          "name": "",
          "type": "uint256"
        }
      ],
      "stateMutability": "view",
      "type": "function"
    },
    {
      "inputs": [],
      "name": "s_vrfCoordinator",
      "outputs": [
        {
          "internalType": "contract IVRFCoordinatorV2Plus",
          "name": "",
          "type": "address"
        }
      ],
      "stateMutability": "view",
      "type": "function"
    },
    {
      "inputs": [
        {
          "internalType": "address",
          "name": "from",
          "type": "address"
        },
        {
          "internalType": "address",
          "name": "to",
          "type": "address"
        },
        {
          "internalType": "uint256",
          "name": "tokenId",
          "type": "uint256"
        }
      ],
      "name": "safeTransferFrom",
      "outputs": [],
      "stateMutability": "nonpayable",
      "type": "function"
    },
    {
      "inputs": [
        {
          "internalType": "address",
          "name": "from",
          "type": "address"
        },
        {
          "internalType": "address",
          "name": "to",
          "type": "address"
        },
        {
          "internalType": "uint256",
          "name": "tokenId",
          "type": "uint256"
        },
        {
          "internalType": "bytes",
          "name": "data",
          "type": "bytes"
        }
      ],
      "name": "safeTransferFrom",
      "outputs": [],
      "stateMutability": "nonpayable",
      "type": "function"
    },
    {
      "inputs": [
        {
          "internalType": "address",
          "name": "operator",
          "type": "address"
        },
        {
          "internalType": "bool",
          "name": "approved",
          "type": "bool"
        }
      ],
      "name": "setApprovalForAll",
      "outputs": [],
      "stateMutability": "nonpayable",
      "type": "function"
    },
    {
      "inputs": [
        {
          "internalType": "address",
          "name": "_vrfCoordinator",
          "type": "address"
        }
      ],
      "name": "setCoordinator",
      "outputs": [],
      "stateMutability": "nonpayable",
      "type": "function"
    },
    {
      "inputs": [
        {
          "internalType": "address",
          "name": "_provider",
          "type": "address"
        }
      ],
      "name": "setRandomnessProvider",
      "outputs": [],
      "stateMutability": "nonpayable",
      "type": "function"
    },
    {
      "inputs": [
        {
          "internalType": "bytes4",
          "name": "interfaceId",
          "type": "bytes4"
        }
      ],
      "name": "supportsInterface",
      "outputs": [
        {
          "internalType": "bool",
          "name": "",
          "type": "bool"
        }
      ],
      "stateMutability": "view",
      "type": "function"
    },
    {
      "inputs": [],
      "name": "symbol",
      "outputs": [
        {
          "internalType": "string",
          "name": "",
          "type": "string"
        }
      ],
      "stateMutability": "view",
      "type": "function"
    },
    {
      "inputs": [
        {
          "internalType": "uint256",
          "name": "tokenId",
          "type": "uint256"
        }
      ],
      "name": "tokenURI",
      "outputs": [
        {
          "internalType": "string",
          "name": "",
          "type": "string"
        }
      ],
      "stateMutability": "view",
      "type": "function"
    },
    {
      "inputs": [
        {
          "internalType": "address",
          "name": "from",
          "type": "address"
        },
        {
          "internalType": "address",
          "name": "to",
          "type": "address"
        },
        {
          "internalType": "uint256",
          "name": "tokenId",
          "type": "uint256"
        }
      ],
      "name": "transferFrom",
      "outputs": [],
      "stateMutability": "nonpayable",
      "type": "function"
    },
    {
      "inputs": [
        {
          "internalType": "address",
          "name": "to",
          "type": "address"
        }
      ],
      "name": "transferOwnership",
      "outputs": [],
      "stateMutability": "nonpayable",
      "type": "function"
    }
  ],
  "bytecode": "0x610120604052655af3107a400060095560405180606001604052806025815260200162005cf6602591396010908162000039919062000749565b507fd665af28612e91a79ec2e85497a687569ef634e497c28fcac0b779f3b4feffa4601255739ddfaca8183c41ad55329bdeed9f6a8d53168b1b73ffffffffffffffffffffffffffffffffffffffff1660809073ffffffffffffffffffffffffffffffffffffffff168152507f787d74caea10b2b357790d5b5247c2f63d1d91572a9846f780606e4d953677ae60001b60a09081525062030d4063ffffffff1660c09063ffffffff16815250600361ffff1660e09061ffff16815250600a63ffffffff166101009063ffffffff168152503480156200011757600080fd5b50608051338060006040518060400160405280600c81526020017f5a6f6465636b20436172647300000000000000000000000000000000000000008152506040518060400160405280600381526020017f5a444b000000000000000000000000000000000000000000000000000000000081525081600090816200019c919062000749565b508060019081620001ae919062000749565b50505033600a60006101000a81548173ffffffffffffffffffffffffffffffffffffffff021916908373ffffffffffffffffffffffffffffffffffffffff160217905550600073ffffffffffffffffffffffffffffffffffffffff168273ffffffffffffffffffffffffffffffffffffffff160362000264576040517f08c379a00000000000000000000000000000000000000000000000000000000081526004016200025b9062000891565b60405180910390fd5b81600c60006101000a81548173ffffffffffffffffffffffffffffffffffffffff021916908373ffffffffffffffffffffffffffffffffffffffff160217905550600073ffffffffffffffffffffffffffffffffffffffff168173ffffffffffffffffffffffffffffffffffffffff1614620002ec57620002eb816200039e60201b60201c565b5b505050600073ffffffffffffffffffffffffffffffffffffffff168173ffffffffffffffffffffffffffffffffffffffff160362000356576040517fd92e233d00000000000000000000000000000000000000000000000000000000815260040160405180910390fd5b80600e60006101000a81548173ffffffffffffffffffffffffffffffffffffffff021916908373ffffffffffffffffffffffffffffffffffffffff1602179055505062000925565b3373ffffffffffffffffffffffffffffffffffffffff168173ffffffffffffffffffffffffffffffffffffffff16036200040f576040517f08c379a0000000000000000000000000000000000000000000000000000000008152600401620004069062000903565b60405180910390fd5b80600d60006101000a81548173ffffffffffffffffffffffffffffffffffffffff021916908373ffffffffffffffffffffffffffffffffffffffff1602179055508073ffffffffffffffffffffffffffffffffffffffff16600c60009054906101000a900473ffffffffffffffffffffffffffffffffffffffff1673ffffffffffffffffffffffffffffffffffffffff167fed8889f560326eb138920d842192f0eb3dd22b4f139c87a2c57538e05bae127860405160405180910390a350565b600081519050919050565b7f4e487b7100000000000000000000000000000000000000000000000000000000600052604160045260246000fd5b7f4e487b7100000000000000000000000000000000000000000000000000000000600052602260045260246000fd5b600060028204905060018216806200055157607f821691505b60208210810362000567576200056662000509565b5b50919050565b60008190508160005260206000209050919050565b60006020601f8301049050919050565b600082821b905092915050565b600060088302620005d17fffffffffffffffffffffffffffffffffffffffffffffffffffffffffffffffff8262000592565b620005dd868362000592565b95508019841693508086168417925050509392505050565b6000819050919050565b6000819050919050565b60006200062a620006246200061e84620005f5565b620005ff565b620005f5565b9050919050565b6000819050919050565b620006468362000609565b6200065e620006558262000631565b8484546200059f565b825550505050565b600090565b6200067562000666565b620006828184846200063b565b505050565b5b81811015620006aa576200069e6000826200066b565b60018101905062000688565b5050565b601f821115620006f957620006c3816200056d565b620006ce8462000582565b81016020851015620006de578190505b620006f6620006ed8562000582565b83018262000687565b50505b505050565b600082821c905092915050565b60006200071e60001984600802620006fe565b1980831691505092915050565b60006200073983836200070b565b9150826002028217905092915050565b6200075482620004cf565b67ffffffffffffffff81111562000770576200076f620004da565b5b6200077c825462000538565b62000789828285620006ae565b600060209050601f831160018114620007c15760008415620007ac578287015190505b620007b885826200072b565b86555062000828565b601f198416620007d1866200056d565b60005b82811015620007fb57848901518255600182019150602085019450602081019050620007d4565b868310156200081b578489015162000817601f8916826200070b565b8355505b6001600288020188555050505b505050505050565b600082825260208201905092915050565b7f43616e6e6f7420736574206f776e657220746f207a65726f0000000000000000600082015250565b60006200087960188362000830565b9150620008868262000841565b602082019050919050565b60006020820190508181036000830152620008ac816200086a565b9050919050565b7f43616e6e6f74207472616e7366657220746f2073656c66000000000000000000600082015250565b6000620008eb60178362000830565b9150620008f882620008b3565b602082019050919050565b600060208201905081810360008301526200091e81620008dc565b9050919050565b60805160a05160c05160e0516101005161538f6200096760003960006116e601526000611690015260006116ba0152600061166201526000505061538f6000f3fe60806040526004361061020f5760003560e01c80637392a77111610118578063a22cb465116100a0578063c87b56dd1161006f578063c87b56dd146107ac578063ce9bf5ac146107e9578063e985e9c514610814578063f2fde38b14610851578063fc2a88c31461087a5761020f565b8063a22cb46514610715578063a54447aa1461073e578063b15fbc141461075a578063b88d4fde146107835761020f565b80638da5cb5b116100e75780638da5cb5b1461062d5780638ea981171461065857806395d89b41146106815780639eccacf6146106ac578063a168fa89146106d75761020f565b80637392a7711461057157806379ba5097146105ae5780638796ba8c146105c55780638ac00021146106025761020f565b80632e602d291161019b5780636352211e1161016a5780636352211e14610471578063645dbd32146104ae5780636c0360eb146104d957806370a082311461050457806372b3b620146105415761020f565b80632e602d29146103b557806342842e0e146103f257806345f8fa801461041b5780636109f9b6146104465761020f565b8063095ea7b3116101e2578063095ea7b3146102e457806312e855851461030d5780631fe543e314610338578063202e37401461036157806323b872dd1461038c5761020f565b806301ffc9a71461021457806306fdde031461025157806307c11e0d1461027c578063081812fc146102a7575b600080fd5b34801561022057600080fd5b5061023b60048036038101906102369190613bf7565b6108a5565b6040516102489190613c3f565b60405180910390f35b34801561025d57600080fd5b50610266610906565b6040516102739190613cea565b60405180910390f35b34801561028857600080fd5b50610291610998565b60405161029e9190613e8c565b60405180910390f35b3480156102b357600080fd5b506102ce60048036038101906102c99190613eda565b610bf1565b6040516102db9190613f28565b60405180910390f35b3480156102f057600080fd5b5061030b60048036038101906103069190613f6f565b610c0d565b005b34801561031957600080fd5b50610322610c23565b60405161032f9190613fbe565b60405180910390f35b34801561034457600080fd5b5061035f600480360381019061035a919061403e565b610c2d565b005b34801561036d57600080fd5b50610376610cf3565b6040516103839190613e8c565b60405180910390f35b34801561039857600080fd5b506103b360048036038101906103ae919061409e565b610fd8565b005b3480156103c157600080fd5b506103dc60048036038101906103d79190613eda565b6110da565b6040516103e99190613f28565b60405180910390f35b3480156103fe57600080fd5b506104196004803603810190610414919061409e565b61110d565b005b34801561042757600080fd5b5061043061112d565b60405161043d9190613e8c565b60405180910390f35b34801561045257600080fd5b5061045b611412565b6040516104689190613f28565b60405180910390f35b34801561047d57600080fd5b5061049860048036038101906104939190613eda565b61143c565b6040516104a59190613f28565b60405180910390f35b3480156104ba57600080fd5b506104c361144e565b6040516104d09190613f28565b60405180910390f35b3480156104e557600080fd5b506104ee611478565b6040516104fb9190613cea565b60405180910390f35b34801561051057600080fd5b5061052b600480360381019061052691906140f1565b611506565b6040516105389190613fbe565b60405180910390f35b61055b6004803603810190610556919061424e565b6115c0565b6040516105689190613fbe565b60405180910390f35b34801561057d57600080fd5b50610598600480360381019061059391906142d6565b61160d565b6040516105a59190613fbe565b60405180910390f35b3480156105ba57600080fd5b506105c36118f1565b005b3480156105d157600080fd5b506105ec60048036038101906105e79190613eda565b611a88565b6040516105f99190613fbe565b60405180910390f35b34801561060e57600080fd5b50610617611aac565b6040516106249190613fbe565b60405180910390f35b34801561063957600080fd5b50610642611ab2565b60405161064f9190613f28565b60405180910390f35b34801561066457600080fd5b5061067f600480360381019061067a91906140f1565b611adc565b005b34801561068d57600080fd5b50610696611cbd565b6040516106a39190613cea565b60405180910390f35b3480156106b857600080fd5b506106c1611d4f565b6040516106ce9190614362565b60405180910390f35b3480156106e357600080fd5b506106fe60048036038101906106f99190613eda565b611d75565b60405161070c92919061437d565b60405180910390f35b34801561072157600080fd5b5061073c600480360381019061073791906143a6565b611db3565b005b61075860048036038101906107539190613eda565b611dc9565b005b34801561076657600080fd5b50610781600480360381019061077c91906140f1565b612019565b005b34801561078f57600080fd5b506107aa60048036038101906107a59190614487565b612065565b005b3480156107b857600080fd5b506107d360048036038101906107ce9190613eda565b61208a565b6040516107e09190613cea565b60405180910390f35b3480156107f557600080fd5b506107fe61219d565b60405161080b9190613f28565b60405180910390f35b34801561082057600080fd5b5061083b6004803603810190610836919061450a565b6121c3565b6040516108489190613c3f565b60405180910390f35b34801561085d57600080fd5b50610878600480360381019061087391906140f1565b612257565b005b34801561088657600080fd5b5061088f61226b565b60405161089c9190613fbe565b60405180910390f35b6000634906490660e01b7bffffffffffffffffffffffffffffffffffffffffffffffffffffffff1916827bffffffffffffffffffffffffffffffffffffffffffffffffffffffff191614806108ff57506108fe82612271565b5b9050919050565b60606000805461091590614579565b80601f016020809104026020016040519081016040528092919081815260200182805461094190614579565b801561098e5780601f106109635761010080835404028352916020019161098e565b820191906000526020600020905b81548152906001019060200180831161097157829003601f168201915b5050505050905090565b60606000600754905060006008546007546109b391906145d9565b90506000808267ffffffffffffffff8111156109d2576109d1614123565b5b604051908082528060200260200182016040528015610a0b57816020015b6109f8613a77565b8152602001906001900390816109f05790505b50905060005b84811015610be6573073ffffffffffffffffffffffffffffffffffffffff16600b6000600184610a41919061460d565b815260200190815260200160002060020160009054906101000a900473ffffffffffffffffffffffffffffffffffffffff1673ffffffffffffffffffffffffffffffffffffffff1603610bd3576000600182610a9d919061460d565b90506000600b60008381526020019081526020016000209050806040518060a0016040529081600082015481526020016001820160009054906101000a900473ffffffffffffffffffffffffffffffffffffffff1673ffffffffffffffffffffffffffffffffffffffff1673ffffffffffffffffffffffffffffffffffffffff1681526020016002820160009054906101000a900473ffffffffffffffffffffffffffffffffffffffff1673ffffffffffffffffffffffffffffffffffffffff1673ffffffffffffffffffffffffffffffffffffffff168152602001600382015481526020016004820160009054906101000a900460ff161515151581525050848681518110610bb057610baf614641565b5b6020026020010181905250610bcf60018661235390919063ffffffff16565b5050505b8080610bde90614670565b915050610a11565b508094505050505090565b6000610bfc8261237f565b50610c0682612407565b9050919050565b610c1f8282610c1a612444565b61244c565b5050565b6000600954905090565b600e60009054906101000a900473ffffffffffffffffffffffffffffffffffffffff1673ffffffffffffffffffffffffffffffffffffffff163373ffffffffffffffffffffffffffffffffffffffff1614610ce35733600e60009054906101000a900473ffffffffffffffffffffffffffffffffffffffff166040517f1cf993f4000000000000000000000000000000000000000000000000000000008152600401610cda9291906146b8565b60405180910390fd5b610cee83838361245e565b505050565b60606000600754905060008060005b83811015610da2573373ffffffffffffffffffffffffffffffffffffffff16600b6000600184610d32919061460d565b815260200190815260200160002060020160009054906101000a900473ffffffffffffffffffffffffffffffffffffffff1673ffffffffffffffffffffffffffffffffffffffff1603610d8f57600183610d8c919061460d565b92505b8080610d9a90614670565b915050610d02565b5060008267ffffffffffffffff811115610dbf57610dbe614123565b5b604051908082528060200260200182016040528015610df857816020015b610de5613a77565b815260200190600190039081610ddd5790505b50905060005b84811015610fcd573373ffffffffffffffffffffffffffffffffffffffff16600b6000600184610e2e919061460d565b815260200190815260200160002060020160009054906101000a900473ffffffffffffffffffffffffffffffffffffffff1673ffffffffffffffffffffffffffffffffffffffff1603610fba576000600182610e8a919061460d565b90506000600b60008381526020019081526020016000209050806040518060a0016040529081600082015481526020016001820160009054906101000a900473ffffffffffffffffffffffffffffffffffffffff1673ffffffffffffffffffffffffffffffffffffffff1673ffffffffffffffffffffffffffffffffffffffff1681526020016002820160009054906101000a900473ffffffffffffffffffffffffffffffffffffffff1673ffffffffffffffffffffffffffffffffffffffff1673ffffffffffffffffffffffffffffffffffffffff168152602001600382015481526020016004820160009054906101000a900460ff161515151581525050848681518110610f9d57610f9c614641565b5b6020026020010181905250600185610fb5919061460d565b945050505b8080610fc590614670565b915050610dfe565b508094505050505090565b600073ffffffffffffffffffffffffffffffffffffffff168273ffffffffffffffffffffffffffffffffffffffff160361104a5760006040517f64a0ae920000000000000000000000000000000000000000000000000000000081526004016110419190613f28565b60405180910390fd5b600061105e8383611059612444565b6126bb565b90508373ffffffffffffffffffffffffffffffffffffffff168173ffffffffffffffffffffffffffffffffffffffff16146110d4578382826040517f64283d7b0000000000000000000000000000000000000000000000000000000081526004016110cb939291906146e1565b60405180910390fd5b50505050565b60146020528060005260406000206000915054906101000a900473ffffffffffffffffffffffffffffffffffffffff1681565b61112883838360405180602001604052806000815250612065565b505050565b60606000600754905060008060005b838110156111dc573373ffffffffffffffffffffffffffffffffffffffff16600b600060018461116c919061460d565b815260200190815260200160002060010160009054906101000a900473ffffffffffffffffffffffffffffffffffffffff1673ffffffffffffffffffffffffffffffffffffffff16036111c9576001836111c6919061460d565b92505b80806111d490614670565b91505061113c565b5060008267ffffffffffffffff8111156111f9576111f8614123565b5b60405190808252806020026020018201604052801561123257816020015b61121f613a77565b8152602001906001900390816112175790505b50905060005b84811015611407573373ffffffffffffffffffffffffffffffffffffffff16600b6000600184611268919061460d565b815260200190815260200160002060010160009054906101000a900473ffffffffffffffffffffffffffffffffffffffff1673ffffffffffffffffffffffffffffffffffffffff16036113f45760006001826112c4919061460d565b90506000600b60008381526020019081526020016000209050806040518060a0016040529081600082015481526020016001820160009054906101000a900473ffffffffffffffffffffffffffffffffffffffff1673ffffffffffffffffffffffffffffffffffffffff1673ffffffffffffffffffffffffffffffffffffffff1681526020016002820160009054906101000a900473ffffffffffffffffffffffffffffffffffffffff1673ffffffffffffffffffffffffffffffffffffffff1673ffffffffffffffffffffffffffffffffffffffff168152602001600382015481526020016004820160009054906101000a900460ff1615151515815250508486815181106113d7576113d6614641565b5b60200260200101819052506001856113ef919061460d565b945050505b80806113ff90614670565b915050611238565b508094505050505090565b6000601160009054906101000a900473ffffffffffffffffffffffffffffffffffffffff16905090565b60006114478261237f565b9050919050565b6000600a60009054906101000a900473ffffffffffffffffffffffffffffffffffffffff16905090565b6010805461148590614579565b80601f01602080910402602001604051908101604052809291908181526020018280546114b190614579565b80156114fe5780601f106114d3576101008083540402835291602001916114fe565b820191906000526020600020905b8154815290600101906020018083116114e157829003601f168201915b505050505081565b60008073ffffffffffffffffffffffffffffffffffffffff168273ffffffffffffffffffffffffffffffffffffffff16036115795760006040517f89c62b640000000000000000000000000000000000000000000000000000000081526004016115709190613f28565b60405180910390fd5b600360008373ffffffffffffffffffffffffffffffffffffffff1673ffffffffffffffffffffffffffffffffffffffff168152602001908152602001600020549050919050565b60006115d8600160075461235390919063ffffffff16565b600781905550600060075490506115ef33826128d5565b6115f981856129ce565b6116038184612a2a565b8091505092915050565b6000611617612c2d565b600e60009054906101000a900473ffffffffffffffffffffffffffffffffffffffff1673ffffffffffffffffffffffffffffffffffffffff16639b1c385e6040518060c001604052807f0000000000000000000000000000000000000000000000000000000000000000815260200160125481526020017f000000000000000000000000000000000000000000000000000000000000000061ffff1681526020017f000000000000000000000000000000000000000000000000000000000000000063ffffffff1681526020017f000000000000000000000000000000000000000000000000000000000000000063ffffffff1681526020016117296040518060200160405280881515815250612cbf565b8152506040518263ffffffff1660e01b8152600401611748919061484b565b6020604051808303816000875af1158015611767573d6000803e3d6000fd5b505050506040513d601f19601f8201168201806040525081019061178b9190614882565b90506040518060600160405280600015158152602001600115158152602001600067ffffffffffffffff8111156117c5576117c4614123565b5b6040519080825280602002602001820160405280156117f35781602001602082028036833780820191505090505b508152506013600083815260200190815260200160002060008201518160000160006101000a81548160ff02191690831515021790555060208201518160000160016101000a81548160ff0219169083151502179055506040820151816001019080519060200190611866929190613ad4565b50905050336014600083815260200190815260200160002060006101000a81548173ffffffffffffffffffffffffffffffffffffffff021916908373ffffffffffffffffffffffffffffffffffffffff160217905550601581908060018154018082558091505060019003906000526020600020016000909190919091505580601681905550919050565b600d60009054906101000a900473ffffffffffffffffffffffffffffffffffffffff1673ffffffffffffffffffffffffffffffffffffffff163373ffffffffffffffffffffffffffffffffffffffff1614611981576040517f08c379a0000000000000000000000000000000000000000000000000000000008152600401611978906148fb565b60405180910390fd5b6000600c60009054906101000a900473ffffffffffffffffffffffffffffffffffffffff16905033600c60006101000a81548173ffffffffffffffffffffffffffffffffffffffff021916908373ffffffffffffffffffffffffffffffffffffffff1602179055506000600d60006101000a81548173ffffffffffffffffffffffffffffffffffffffff021916908373ffffffffffffffffffffffffffffffffffffffff1602179055503373ffffffffffffffffffffffffffffffffffffffff168173ffffffffffffffffffffffffffffffffffffffff167f8be0079c531659141344cd1fd0a4f28419497f9722a3daafe3b4186f6b6457e060405160405180910390a350565b60158181548110611a9857600080fd5b906000526020600020016000915090505481565b60125481565b6000600c60009054906101000a900473ffffffffffffffffffffffffffffffffffffffff16905090565b611ae4611ab2565b73ffffffffffffffffffffffffffffffffffffffff163373ffffffffffffffffffffffffffffffffffffffff1614158015611b6d5750600e60009054906101000a900473ffffffffffffffffffffffffffffffffffffffff1673ffffffffffffffffffffffffffffffffffffffff163373ffffffffffffffffffffffffffffffffffffffff1614155b15611bdc5733611b7b611ab2565b600e60009054906101000a900473ffffffffffffffffffffffffffffffffffffffff166040517f061db9c1000000000000000000000000000000000000000000000000000000008152600401611bd39392919061491b565b60405180910390fd5b600073ffffffffffffffffffffffffffffffffffffffff168173ffffffffffffffffffffffffffffffffffffffff1603611c42576040517fd92e233d00000000000000000000000000000000000000000000000000000000815260040160405180910390fd5b80600e60006101000a81548173ffffffffffffffffffffffffffffffffffffffff021916908373ffffffffffffffffffffffffffffffffffffffff1602179055507fd1a6a14209a385a964d036e404cb5cfb71f4000cdb03c9366292430787261be681604051611cb29190613f28565b60405180910390a150565b606060018054611ccc90614579565b80601f0160208091040260200160405190810160405280929190818152602001828054611cf890614579565b8015611d455780601f10611d1a57610100808354040283529160200191611d45565b820191906000526020600020905b815481529060010190602001808311611d2857829003601f168201915b5050505050905090565b600e60009054906101000a900473ffffffffffffffffffffffffffffffffffffffff1681565b60136020528060005260406000206000915090508060000160009054906101000a900460ff16908060000160019054906101000a900460ff16905082565b611dc5611dbe612444565b8383612d57565b5050565b6000600b60008381526020019081526020016000206003015490506000600b600084815260200190815260200160002060010160009054906101000a900473ffffffffffffffffffffffffffffffffffffffff169050813414611e61576040517f08c379a0000000000000000000000000000000000000000000000000000000008152600401611e58906149c4565b60405180910390fd5b33600b600085815260200190815260200160002060020160006101000a81548173ffffffffffffffffffffffffffffffffffffffff021916908373ffffffffffffffffffffffffffffffffffffffff1602179055506001600b600085815260200190815260200160002060040160006101000a81548160ff0219169083151502179055506000600b600085815260200190815260200160002060010160006101000a81548173ffffffffffffffffffffffffffffffffffffffff021916908373ffffffffffffffffffffffffffffffffffffffff160217905550611f51600160085461235390919063ffffffff16565b600881905550611f62303385612ec6565b600a60009054906101000a900473ffffffffffffffffffffffffffffffffffffffff1673ffffffffffffffffffffffffffffffffffffffff166108fc6009549081150290604051600060405180830381858888f19350505050158015611fcc573d6000803e3d6000fd5b508073ffffffffffffffffffffffffffffffffffffffff166108fc349081150290604051600060405180830381858888f19350505050158015612013573d6000803e3d6000fd5b50505050565b612021612c2d565b80601160006101000a81548173ffffffffffffffffffffffffffffffffffffffff021916908373ffffffffffffffffffffffffffffffffffffffff16021790555050565b612070848484610fd8565b61208461207b612444565b85858585613033565b50505050565b60606120958261237f565b5060006006600084815260200190815260200160002080546120b690614579565b80601f01602080910402602001604051908101604052809291908181526020018280546120e290614579565b801561212f5780601f106121045761010080835404028352916020019161212f565b820191906000526020600020905b81548152906001019060200180831161211257829003601f168201915b5050505050905060006121406131e4565b90506000815103612155578192505050612198565b60008251111561218a578082604051602001612172929190614a20565b60405160208183030381529060405292505050612198565b612193846131fb565b925050505b919050565b601160009054906101000a900473ffffffffffffffffffffffffffffffffffffffff1681565b6000600560008473ffffffffffffffffffffffffffffffffffffffff1673ffffffffffffffffffffffffffffffffffffffff16815260200190815260200160002060008373ffffffffffffffffffffffffffffffffffffffff1673ffffffffffffffffffffffffffffffffffffffff16815260200190815260200160002060009054906101000a900460ff16905092915050565b61225f612c2d565b61226881613264565b50565b60165481565b60007f80ac58cd000000000000000000000000000000000000000000000000000000007bffffffffffffffffffffffffffffffffffffffffffffffffffffffff1916827bffffffffffffffffffffffffffffffffffffffffffffffffffffffff1916148061233c57507f5b5e139f000000000000000000000000000000000000000000000000000000007bffffffffffffffffffffffffffffffffffffffffffffffffffffffff1916827bffffffffffffffffffffffffffffffffffffffffffffffffffffffff1916145b8061234c575061234b82613392565b5b9050919050565b6000808284612362919061460d565b90508381101561237557612374614a44565b5b8091505092915050565b60008061238b836133fc565b9050600073ffffffffffffffffffffffffffffffffffffffff168173ffffffffffffffffffffffffffffffffffffffff16036123fe57826040517f7e2732890000000000000000000000000000000000000000000000000000000081526004016123f59190613fbe565b60405180910390fd5b80915050919050565b60006004600083815260200190815260200160002060009054906101000a900473ffffffffffffffffffffffffffffffffffffffff169050919050565b600033905090565b6124598383836001613439565b505050565b600073ffffffffffffffffffffffffffffffffffffffff16601160009054906101000a900473ffffffffffffffffffffffffffffffffffffffff1673ffffffffffffffffffffffffffffffffffffffff16036124ef576040517f08c379a00000000000000000000000000000000000000000000000000000000081526004016124e690614abf565b60405180910390fd5b601160009054906101000a900473ffffffffffffffffffffffffffffffffffffffff1673ffffffffffffffffffffffffffffffffffffffff163373ffffffffffffffffffffffffffffffffffffffff161461257f576040517f08c379a000000000000000000000000000000000000000000000000000000000815260040161257690614b51565b60405180910390fd5b6013600084815260200190815260200160002060000160019054906101000a900460ff166125e2576040517f08c379a00000000000000000000000000000000000000000000000000000000081526004016125d990614bbd565b60405180910390fd5b60016013600085815260200190815260200160002060000160006101000a81548160ff0219169083151502179055508181601360008681526020019081526020016000206001019190612636929190613b21565b5060006014600085815260200190815260200160002060009054906101000a900473ffffffffffffffffffffffffffffffffffffffff16905060005b838390508110156126b4576126a08285858481811061269457612693614641565b5b905060200201356135fe565b5080806126ac90614670565b915050612672565b5050505050565b6000806126c7846133fc565b9050600073ffffffffffffffffffffffffffffffffffffffff168373ffffffffffffffffffffffffffffffffffffffff16146127095761270881848661365b565b5b600073ffffffffffffffffffffffffffffffffffffffff168173ffffffffffffffffffffffffffffffffffffffff161461279a5761274b600085600080613439565b6001600360008373ffffffffffffffffffffffffffffffffffffffff1673ffffffffffffffffffffffffffffffffffffffff168152602001908152602001600020600082825403925050819055505b600073ffffffffffffffffffffffffffffffffffffffff168573ffffffffffffffffffffffffffffffffffffffff161461281d576001600360008773ffffffffffffffffffffffffffffffffffffffff1673ffffffffffffffffffffffffffffffffffffffff168152602001908152602001600020600082825401925050819055505b846002600086815260200190815260200160002060006101000a81548173ffffffffffffffffffffffffffffffffffffffff021916908373ffffffffffffffffffffffffffffffffffffffff160217905550838573ffffffffffffffffffffffffffffffffffffffff168273ffffffffffffffffffffffffffffffffffffffff167fddf252ad1be2c89b69c2b068fc378daa952ba7f163c4a11628f55a4df523b3ef60405160405180910390a4809150509392505050565b600073ffffffffffffffffffffffffffffffffffffffff168273ffffffffffffffffffffffffffffffffffffffff16036129475760006040517f64a0ae9200000000000000000000000000000000000000000000000000000000815260040161293e9190613f28565b60405180910390fd5b6000612955838360006126bb565b9050600073ffffffffffffffffffffffffffffffffffffffff168173ffffffffffffffffffffffffffffffffffffffff16146129c95760006040517f73c6ac6e0000000000000000000000000000000000000000000000000000000081526004016129c09190613f28565b60405180910390fd5b505050565b806006600084815260200190815260200160002090816129ee9190614d7f565b507ff8e1a15aba9398e019f0b49df1a4fde98ee17ae345cb5f6b5e2c27f5033e8ce782604051612a1e9190613fbe565b60405180910390a15050565b60008111612a6d576040517f08c379a0000000000000000000000000000000000000000000000000000000008152600401612a6490614e9d565b60405180910390fd5b6009543414612ab1576040517f08c379a0000000000000000000000000000000000000000000000000000000008152600401612aa890614f2f565b60405180910390fd5b6040518060a001604052808381526020013373ffffffffffffffffffffffffffffffffffffffff1681526020013073ffffffffffffffffffffffffffffffffffffffff16815260200182815260200160001515815250600b60008481526020019081526020016000206000820151816000015560208201518160010160006101000a81548173ffffffffffffffffffffffffffffffffffffffff021916908373ffffffffffffffffffffffffffffffffffffffff16021790555060408201518160020160006101000a81548173ffffffffffffffffffffffffffffffffffffffff021916908373ffffffffffffffffffffffffffffffffffffffff1602179055506060820151816003015560808201518160040160006101000a81548160ff021916908315150217905550905050612bea333084612ec6565b817f3cf8eaa46d9accaa9c8e76a1b58ee317d0eac0885fb7635711309f21e5a25fb93330846000604051612c219493929190614f4f565b60405180910390a25050565b600c60009054906101000a900473ffffffffffffffffffffffffffffffffffffffff1673ffffffffffffffffffffffffffffffffffffffff163373ffffffffffffffffffffffffffffffffffffffff1614612cbd576040517f08c379a0000000000000000000000000000000000000000000000000000000008152600401612cb490614fe0565b60405180910390fd5b565b60607f92fd13387c7fe7befbc38d303d6468778fb9731bc4583f17d92989c6fcfdeaaa82604051602401612cf3919061501c565b604051602081830303815290604052907bffffffffffffffffffffffffffffffffffffffffffffffffffffffff19166020820180517bffffffffffffffffffffffffffffffffffffffffffffffffffffffff83818316178352505050509050919050565b600073ffffffffffffffffffffffffffffffffffffffff168273ffffffffffffffffffffffffffffffffffffffff1603612dc857816040517f5b08ba18000000000000000000000000000000000000000000000000000000008152600401612dbf9190613f28565b60405180910390fd5b80600560008573ffffffffffffffffffffffffffffffffffffffff1673ffffffffffffffffffffffffffffffffffffffff16815260200190815260200160002060008473ffffffffffffffffffffffffffffffffffffffff1673ffffffffffffffffffffffffffffffffffffffff16815260200190815260200160002060006101000a81548160ff0219169083151502179055508173ffffffffffffffffffffffffffffffffffffffff168373ffffffffffffffffffffffffffffffffffffffff167f17307eab39ab6107e8899845ad3d59bd9653f200f220920489ca2b5937696c3183604051612eb99190613c3f565b60405180910390a3505050565b600073ffffffffffffffffffffffffffffffffffffffff168273ffffffffffffffffffffffffffffffffffffffff1603612f385760006040517f64a0ae92000000000000000000000000000000000000000000000000000000008152600401612f2f9190613f28565b60405180910390fd5b6000612f46838360006126bb565b9050600073ffffffffffffffffffffffffffffffffffffffff168173ffffffffffffffffffffffffffffffffffffffff1603612fb957816040517f7e273289000000000000000000000000000000000000000000000000000000008152600401612fb09190613fbe565b60405180910390fd5b8373ffffffffffffffffffffffffffffffffffffffff168173ffffffffffffffffffffffffffffffffffffffff161461302d578382826040517f64283d7b000000000000000000000000000000000000000000000000000000008152600401613024939291906146e1565b60405180910390fd5b50505050565b60008373ffffffffffffffffffffffffffffffffffffffff163b11156131dd578273ffffffffffffffffffffffffffffffffffffffff1663150b7a02868685856040518563ffffffff1660e01b81526004016130929493929190615081565b6020604051808303816000875af19250505080156130ce57506040513d601f19601f820116820180604052508101906130cb91906150e2565b60015b613152573d80600081146130fe576040519150601f19603f3d011682016040523d82523d6000602084013e613103565b606091505b50600081510361314a57836040517f64a0ae920000000000000000000000000000000000000000000000000000000081526004016131419190613f28565b60405180910390fd5b805181602001fd5b63150b7a0260e01b7bffffffffffffffffffffffffffffffffffffffffffffffffffffffff1916817bffffffffffffffffffffffffffffffffffffffffffffffffffffffff1916146131db57836040517f64a0ae920000000000000000000000000000000000000000000000000000000081526004016131d29190613f28565b60405180910390fd5b505b5050505050565b606060405180602001604052806000815250905090565b60606132068261237f565b5060006132116131e4565b90506000815111613231576040518060200160405280600081525061325c565b8061323b8461371f565b60405160200161324c929190614a20565b6040516020818303038152906040525b915050919050565b3373ffffffffffffffffffffffffffffffffffffffff168173ffffffffffffffffffffffffffffffffffffffff16036132d2576040517f08c379a00000000000000000000000000000000000000000000000000000000081526004016132c99061515b565b60405180910390fd5b80600d60006101000a81548173ffffffffffffffffffffffffffffffffffffffff021916908373ffffffffffffffffffffffffffffffffffffffff1602179055508073ffffffffffffffffffffffffffffffffffffffff16600c60009054906101000a900473ffffffffffffffffffffffffffffffffffffffff1673ffffffffffffffffffffffffffffffffffffffff167fed8889f560326eb138920d842192f0eb3dd22b4f139c87a2c57538e05bae127860405160405180910390a350565b60007f01ffc9a7000000000000000000000000000000000000000000000000000000007bffffffffffffffffffffffffffffffffffffffffffffffffffffffff1916827bffffffffffffffffffffffffffffffffffffffffffffffffffffffff1916149050919050565b60006002600083815260200190815260200160002060009054906101000a900473ffffffffffffffffffffffffffffffffffffffff169050919050565b80806134725750600073ffffffffffffffffffffffffffffffffffffffff168273ffffffffffffffffffffffffffffffffffffffff1614155b156135a65760006134828461237f565b9050600073ffffffffffffffffffffffffffffffffffffffff168373ffffffffffffffffffffffffffffffffffffffff16141580156134ed57508273ffffffffffffffffffffffffffffffffffffffff168173ffffffffffffffffffffffffffffffffffffffff1614155b801561350057506134fe81846121c3565b155b1561354257826040517fa9fbf51f0000000000000000000000000000000000000000000000000000000081526004016135399190613f28565b60405180910390fd5b81156135a457838573ffffffffffffffffffffffffffffffffffffffff168273ffffffffffffffffffffffffffffffffffffffff167f8c5be1e5ebec7d5bd14f71427d1e84f3dd0314c0f7b2291e5b200ac8c7c3b92560405160405180910390a45b505b836004600085815260200190815260200160002060006101000a81548173ffffffffffffffffffffffffffffffffffffffff021916908373ffffffffffffffffffffffffffffffffffffffff16021790555050505050565b60006136166001600f5461235390919063ffffffff16565b600f819055506000600f549050600060148461363291906151aa565b905061363e85836137ed565b6136508261364b8361380b565b6129ce565b819250505092915050565b61366683838361383f565b61371a57600073ffffffffffffffffffffffffffffffffffffffff168373ffffffffffffffffffffffffffffffffffffffff16036136db57806040517f7e2732890000000000000000000000000000000000000000000000000000000081526004016136d29190613fbe565b60405180910390fd5b81816040517f177e802f0000000000000000000000000000000000000000000000000000000081526004016137119291906151db565b60405180910390fd5b505050565b60606000600161372e84613900565b01905060008167ffffffffffffffff81111561374d5761374c614123565b5b6040519080825280601f01601f19166020018201604052801561377f5781602001600182028036833780820191505090505b509050600082602001820190505b6001156137e2578080600190039150507f3031323334353637383961626364656600000000000000000000000000000000600a86061a8153600a85816137d6576137d561517b565b5b0494506000850361378d575b819350505050919050565b613807828260405180602001604052806000815250613a53565b5050565b606060106138188361371f565b60405160200161382992919061531f565b6040516020818303038152906040529050919050565b60008073ffffffffffffffffffffffffffffffffffffffff168373ffffffffffffffffffffffffffffffffffffffff16141580156138f757508273ffffffffffffffffffffffffffffffffffffffff168473ffffffffffffffffffffffffffffffffffffffff1614806138b857506138b784846121c3565b5b806138f657508273ffffffffffffffffffffffffffffffffffffffff166138de83612407565b73ffffffffffffffffffffffffffffffffffffffff16145b5b90509392505050565b600080600090507a184f03e93ff9f4daa797ed6e38ed64bf6a1f010000000000000000831061395e577a184f03e93ff9f4daa797ed6e38ed64bf6a1f01000000000000000083816139545761395361517b565b5b0492506040810190505b6d04ee2d6d415b85acef8100000000831061399b576d04ee2d6d415b85acef810000000083816139915761399061517b565b5b0492506020810190505b662386f26fc1000083106139ca57662386f26fc1000083816139c0576139bf61517b565b5b0492506010810190505b6305f5e10083106139f3576305f5e10083816139e9576139e861517b565b5b0492506008810190505b6127108310613a18576127108381613a0e57613a0d61517b565b5b0492506004810190505b60648310613a3b5760648381613a3157613a3061517b565b5b0492506002810190505b600a8310613a4a576001810190505b80915050919050565b613a5d83836128d5565b613a72613a68612444565b6000858585613033565b505050565b6040518060a0016040528060008152602001600073ffffffffffffffffffffffffffffffffffffffff168152602001600073ffffffffffffffffffffffffffffffffffffffff168152602001600081526020016000151581525090565b828054828255906000526020600020908101928215613b10579160200282015b82811115613b0f578251825591602001919060010190613af4565b5b509050613b1d9190613b6e565b5090565b828054828255906000526020600020908101928215613b5d579160200282015b82811115613b5c578235825591602001919060010190613b41565b5b509050613b6a9190613b6e565b5090565b5b80821115613b87576000816000905550600101613b6f565b5090565b6000604051905090565b600080fd5b600080fd5b60007fffffffff0000000000000000000000000000000000000000000000000000000082169050919050565b613bd481613b9f565b8114613bdf57600080fd5b50565b600081359050613bf181613bcb565b92915050565b600060208284031215613c0d57613c0c613b95565b5b6000613c1b84828501613be2565b91505092915050565b60008115159050919050565b613c3981613c24565b82525050565b6000602082019050613c546000830184613c30565b92915050565b600081519050919050565b600082825260208201905092915050565b60005b83811015613c94578082015181840152602081019050613c79565b60008484015250505050565b6000601f19601f8301169050919050565b6000613cbc82613c5a565b613cc68185613c65565b9350613cd6818560208601613c76565b613cdf81613ca0565b840191505092915050565b60006020820190508181036000830152613d048184613cb1565b905092915050565b600081519050919050565b600082825260208201905092915050565b6000819050602082019050919050565b6000819050919050565b613d4b81613d38565b82525050565b600073ffffffffffffffffffffffffffffffffffffffff82169050919050565b6000613d7c82613d51565b9050919050565b613d8c81613d71565b82525050565b613d9b81613c24565b82525050565b60a082016000820151613db76000850182613d42565b506020820151613dca6020850182613d83565b506040820151613ddd6040850182613d83565b506060820151613df06060850182613d42565b506080820151613e036080850182613d92565b50505050565b6000613e158383613da1565b60a08301905092915050565b6000602082019050919050565b6000613e3982613d0c565b613e438185613d17565b9350613e4e83613d28565b8060005b83811015613e7f578151613e668882613e09565b9750613e7183613e21565b925050600181019050613e52565b5085935050505092915050565b60006020820190508181036000830152613ea68184613e2e565b905092915050565b613eb781613d38565b8114613ec257600080fd5b50565b600081359050613ed481613eae565b92915050565b600060208284031215613ef057613eef613b95565b5b6000613efe84828501613ec5565b91505092915050565b6000613f1282613d51565b9050919050565b613f2281613f07565b82525050565b6000602082019050613f3d6000830184613f19565b92915050565b613f4c81613f07565b8114613f5757600080fd5b50565b600081359050613f6981613f43565b92915050565b60008060408385031215613f8657613f85613b95565b5b6000613f9485828601613f5a565b9250506020613fa585828601613ec5565b9150509250929050565b613fb881613d38565b82525050565b6000602082019050613fd36000830184613faf565b92915050565b600080fd5b600080fd5b600080fd5b60008083601f840112613ffe57613ffd613fd9565b5b8235905067ffffffffffffffff81111561401b5761401a613fde565b5b60208301915083602082028301111561403757614036613fe3565b5b9250929050565b60008060006040848603121561405757614056613b95565b5b600061406586828701613ec5565b935050602084013567ffffffffffffffff81111561408657614085613b9a565b5b61409286828701613fe8565b92509250509250925092565b6000806000606084860312156140b7576140b6613b95565b5b60006140c586828701613f5a565b93505060206140d686828701613f5a565b92505060406140e786828701613ec5565b9150509250925092565b60006020828403121561410757614106613b95565b5b600061411584828501613f5a565b91505092915050565b600080fd5b7f4e487b7100000000000000000000000000000000000000000000000000000000600052604160045260246000fd5b61415b82613ca0565b810181811067ffffffffffffffff8211171561417a57614179614123565b5b80604052505050565b600061418d613b8b565b90506141998282614152565b919050565b600067ffffffffffffffff8211156141b9576141b8614123565b5b6141c282613ca0565b9050602081019050919050565b82818337600083830152505050565b60006141f16141ec8461419e565b614183565b90508281526020810184848401111561420d5761420c61411e565b5b6142188482856141cf565b509392505050565b600082601f83011261423557614234613fd9565b5b81356142458482602086016141de565b91505092915050565b6000806040838503121561426557614264613b95565b5b600083013567ffffffffffffffff81111561428357614282613b9a565b5b61428f85828601614220565b92505060206142a085828601613ec5565b9150509250929050565b6142b381613c24565b81146142be57600080fd5b50565b6000813590506142d0816142aa565b92915050565b6000602082840312156142ec576142eb613b95565b5b60006142fa848285016142c1565b91505092915050565b6000819050919050565b600061432861432361431e84613d51565b614303565b613d51565b9050919050565b600061433a8261430d565b9050919050565b600061434c8261432f565b9050919050565b61435c81614341565b82525050565b60006020820190506143776000830184614353565b92915050565b60006040820190506143926000830185613c30565b61439f6020830184613c30565b9392505050565b600080604083850312156143bd576143bc613b95565b5b60006143cb85828601613f5a565b92505060206143dc858286016142c1565b9150509250929050565b600067ffffffffffffffff82111561440157614400614123565b5b61440a82613ca0565b9050602081019050919050565b600061442a614425846143e6565b614183565b9050828152602081018484840111156144465761444561411e565b5b6144518482856141cf565b509392505050565b600082601f83011261446e5761446d613fd9565b5b813561447e848260208601614417565b91505092915050565b600080600080608085870312156144a1576144a0613b95565b5b60006144af87828801613f5a565b94505060206144c087828801613f5a565b93505060406144d187828801613ec5565b925050606085013567ffffffffffffffff8111156144f2576144f1613b9a565b5b6144fe87828801614459565b91505092959194509250565b6000806040838503121561452157614520613b95565b5b600061452f85828601613f5a565b925050602061454085828601613f5a565b9150509250929050565b7f4e487b7100000000000000000000000000000000000000000000000000000000600052602260045260246000fd5b6000600282049050600182168061459157607f821691505b6020821081036145a4576145a361454a565b5b50919050565b7f4e487b7100000000000000000000000000000000000000000000000000000000600052601160045260246000fd5b60006145e482613d38565b91506145ef83613d38565b9250828203905081811115614607576146066145aa565b5b92915050565b600061461882613d38565b915061462383613d38565b925082820190508082111561463b5761463a6145aa565b5b92915050565b7f4e487b7100000000000000000000000000000000000000000000000000000000600052603260045260246000fd5b600061467b82613d38565b91507fffffffffffffffffffffffffffffffffffffffffffffffffffffffffffffffff82036146ad576146ac6145aa565b5b600182019050919050565b60006040820190506146cd6000830185613f19565b6146da6020830184613f19565b9392505050565b60006060820190506146f66000830186613f19565b6147036020830185613faf565b6147106040830184613f19565b949350505050565b6000819050919050565b61472b81614718565b82525050565b600061ffff82169050919050565b61474881614731565b82525050565b600063ffffffff82169050919050565b6147678161474e565b82525050565b600081519050919050565b600082825260208201905092915050565b60006147948261476d565b61479e8185614778565b93506147ae818560208601613c76565b6147b781613ca0565b840191505092915050565b600060c0830160008301516147da6000860182614722565b5060208301516147ed6020860182613d42565b506040830151614800604086018261473f565b506060830151614813606086018261475e565b506080830151614826608086018261475e565b5060a083015184820360a086015261483e8282614789565b9150508091505092915050565b6000602082019050818103600083015261486581846147c2565b905092915050565b60008151905061487c81613eae565b92915050565b60006020828403121561489857614897613b95565b5b60006148a68482850161486d565b91505092915050565b7f4d7573742062652070726f706f736564206f776e657200000000000000000000600082015250565b60006148e5601683613c65565b91506148f0826148af565b602082019050919050565b60006020820190508181036000830152614914816148d8565b9050919050565b60006060820190506149306000830186613f19565b61493d6020830185613f19565b61494a6040830184613f19565b949350505050565b7f506c65617365207375626d6974207468652061736b696e67207072696365206960008201527f6e206f7264657220746f20636f6d706c65746520746865207075726368617365602082015250565b60006149ae604083613c65565b91506149b982614952565b604082019050919050565b600060208201905081810360008301526149dd816149a1565b9050919050565b600081905092915050565b60006149fa82613c5a565b614a0481856149e4565b9350614a14818560208601613c76565b80840191505092915050565b6000614a2c82856149ef565b9150614a3882846149ef565b91508190509392505050565b7f4e487b7100000000000000000000000000000000000000000000000000000000600052600160045260246000fd5b7f52616e646f6d6e6573732070726f7669646572206e6f74207365740000000000600082015250565b6000614aa9601b83613c65565b9150614ab482614a73565b602082019050919050565b60006020820190508181036000830152614ad881614a9c565b9050919050565b7f43616c6c6572206973206e6f74207468652072616e646f6d6e6573732070726f60008201527f7669646572000000000000000000000000000000000000000000000000000000602082015250565b6000614b3b602583613c65565b9150614b4682614adf565b604082019050919050565b60006020820190508181036000830152614b6a81614b2e565b9050919050565b7f72657175657374206e6f7420666f756e64000000000000000000000000000000600082015250565b6000614ba7601183613c65565b9150614bb282614b71565b602082019050919050565b60006020820190508181036000830152614bd681614b9a565b9050919050565b60008190508160005260206000209050919050565b60006020601f8301049050919050565b600082821b905092915050565b600060088302614c3f7fffffffffffffffffffffffffffffffffffffffffffffffffffffffffffffffff82614c02565b614c498683614c02565b95508019841693508086168417925050509392505050565b6000614c7c614c77614c7284613d38565b614303565b613d38565b9050919050565b6000819050919050565b614c9683614c61565b614caa614ca282614c83565b848454614c0f565b825550505050565b600090565b614cbf614cb2565b614cca818484614c8d565b505050565b5b81811015614cee57614ce3600082614cb7565b600181019050614cd0565b5050565b601f821115614d3357614d0481614bdd565b614d0d84614bf2565b81016020851015614d1c578190505b614d30614d2885614bf2565b830182614ccf565b50505b505050565b600082821c905092915050565b6000614d5660001984600802614d38565b1980831691505092915050565b6000614d6f8383614d45565b9150826002028217905092915050565b614d8882613c5a565b67ffffffffffffffff811115614da157614da0614123565b5b614dab8254614579565b614db6828285614cf2565b600060209050601f831160018114614de95760008415614dd7578287015190505b614de18582614d63565b865550614e49565b601f198416614df786614bdd565b60005b82811015614e1f57848901518255600182019150602085019450602081019050614dfa565b86831015614e3c5784890151614e38601f891682614d45565b8355505b6001600288020188555050505b505050505050565b7f5072696365206d757374206265206174206c6561737420312077656900000000600082015250565b6000614e87601c83613c65565b9150614e9282614e51565b602082019050919050565b60006020820190508181036000830152614eb681614e7a565b9050919050565b7f45746865722073656e74206d75737420626520657175616c20746f206c69737460008201527f696e672070726963650000000000000000000000000000000000000000000000602082015250565b6000614f19602983613c65565b9150614f2482614ebd565b604082019050919050565b60006020820190508181036000830152614f4881614f0c565b9050919050565b6000608082019050614f646000830187613f19565b614f716020830186613f19565b614f7e6040830185613faf565b614f8b6060830184613c30565b95945050505050565b7f4f6e6c792063616c6c61626c65206279206f776e657200000000000000000000600082015250565b6000614fca601683613c65565b9150614fd582614f94565b602082019050919050565b60006020820190508181036000830152614ff981614fbd565b9050919050565b6020820160008201516150166000850182613d92565b50505050565b60006020820190506150316000830184615000565b92915050565b600082825260208201905092915050565b60006150538261476d565b61505d8185615037565b935061506d818560208601613c76565b61507681613ca0565b840191505092915050565b60006080820190506150966000830187613f19565b6150a36020830186613f19565b6150b06040830185613faf565b81810360608301526150c28184615048565b905095945050505050565b6000815190506150dc81613bcb565b92915050565b6000602082840312156150f8576150f7613b95565b5b6000615106848285016150cd565b91505092915050565b7f43616e6e6f74207472616e7366657220746f2073656c66000000000000000000600082015250565b6000615145601783613c65565b91506151508261510f565b602082019050919050565b6000602082019050818103600083015261517481615138565b9050919050565b7f4e487b7100000000000000000000000000000000000000000000000000000000600052601260045260246000fd5b60006151b582613d38565b91506151c083613d38565b9250826151d0576151cf61517b565b5b828206905092915050565b60006040820190506151f06000830185613f19565b6151fd6020830184613faf565b9392505050565b6000815461521181614579565b61521b81866149e4565b94506001821660008114615236576001811461524b5761527e565b60ff198316865281151582028601935061527e565b61525485614bdd565b60005b8381101561527657815481890152600182019150602081019050615257565b838801955050505b50505092915050565b7f4361726420000000000000000000000000000000000000000000000000000000600082015250565b60006152bd6005836149e4565b91506152c882615287565b600582019050919050565b7f2e706e6700000000000000000000000000000000000000000000000000000000600082015250565b60006153096004836149e4565b9150615314826152d3565b600482019050919050565b600061532b8285615204565b9150615336826152b0565b915061534282846149ef565b915061534d826152fc565b9150819050939250505056fea26469706673582212207b12901a7980dc20facfd212361bf209952c7645b159f8ce2224e5185c8bfef964736f6c6343000814003368747470733a2f2f6c6f63616c686f73743a333030302f496d616765732f496d616765732f",
  "linkReferences": {},
  "deployedLinkReferences": {}
}