{
  "_format": "hh-sol-artifact-1",
  "contractName": "RandomnessProvider",
  "sourceName": "contracts/RandomnessProvider.sol",
  "abi": [
    {
      "inputs": [],
      "stateMutability": "nonpayable",
      "type": "constructor"
    },
    {
      "inputs": [
        {
          "internalType": "address",
          "name": "have",
          "type": "address"
        },
        {
          "internalType": "address",
          "name": "want",
          "type": "address"
        }
      ],
      "name": "OnlyCoordinatorCanFulfill",
      "type": "error"
    },
    {
      "inputs": [
        {
          "internalType": "address",
          "name": "have",
          "type": "address"
        },
        {
          "internalType": "address",
          "name": "owner",
          "type": "address"
        },
        {
          "internalType": "address",
          "name": "coordinator",
          "type": "address"
        }
      ],
      "name": "OnlyOwnerOrCoordinator",
      "type": "error"
    },
    {
      "inputs": [],
      "name": "ZeroAddress",
      "type": "error"
    },
    {
      "anonymous": false,
      "inputs": [
        {
          "indexed": false,
          "internalType": "address",
          "name": "vrfCoordinator",
          "type": "address"
        }
      ],
      "name": "CoordinatorSet",
      "type": "event"
    },
    {
      "anonymous": false,
      "inputs": [
        {
          "indexed": true,
          "internalType": "address",
          "name": "from",
          "type": "address"
        },
        {
          "indexed": true,
          "internalType": "address",
          "name": "to",
          "type": "address"
        }
      ],
      "name": "OwnershipTransferRequested",
      "type": "event"
    },
    {
      "anonymous": false,
      "inputs": [
        {
          "indexed": true,
          "internalType": "address",
          "name": "from",
          "type": "address"
        },
        {
          "indexed": true,
          "internalType": "address",
          "name": "to",
          "type": "address"
        }
      ],
      "name": "OwnershipTransferred",
      "type": "event"
    },
    {
      "anonymous": false,
      "inputs": [
        {
          "indexed": false,
          "internalType": "uint256",
          "name": "requestId",
          "type": "uint256"
        },
        {
          "indexed": false,
          "internalType": "uint256[]",
          "name": "randomWords",
          "type": "uint256[]"
        }
      ],
      "name": "RequestFulfilled",
      "type": "event"
    },
    {
      "anonymous": false,
      "inputs": [
        {
          "indexed": false,
          "internalType": "uint256",
          "name": "requestId",
          "type": "uint256"
        },
        {
          "indexed": false,
          "internalType": "uint32",
          "name": "numWords",
          "type": "uint32"
        }
      ],
      "name": "RequestSent",
      "type": "event"
    },
    {
      "inputs": [],
      "name": "acceptOwnership",
      "outputs": [],
      "stateMutability": "nonpayable",
      "type": "function"
    },
    {
      "inputs": [],
      "name": "callbackGasLimit",
      "outputs": [
        {
          "internalType": "uint32",
          "name": "",
          "type": "uint32"
        }
      ],
      "stateMutability": "view",
      "type": "function"
    },
    {
      "inputs": [
        {
          "internalType": "uint256",
          "name": "_requestId",
          "type": "uint256"
        }
      ],
      "name": "getRequestStatus",
      "outputs": [
        {
          "internalType": "bool",
          "name": "fulfilled",
          "type": "bool"
        },
        {
          "internalType": "uint256[]",
          "name": "randomWords",
          "type": "uint256[]"
        }
      ],
      "stateMutability": "view",
      "type": "function"
    },
    {
      "inputs": [],
      "name": "keyHash",
      "outputs": [
        {
          "internalType": "bytes32",
          "name": "",
          "type": "bytes32"
        }
      ],
      "stateMutability": "view",
      "type": "function"
    },
    {
      "inputs": [],
      "name": "lastRequestId",
      "outputs": [
        {
          "internalType": "uint256",
          "name": "",
          "type": "uint256"
        }
      ],
      "stateMutability": "view",
      "type": "function"
    },
    {
      "inputs": [],
      "name": "nftContract",
      "outputs": [
        {
          "internalType": "address",
          "name": "",
          "type": "address"
        }
      ],
      "stateMutability": "view",
      "type": "function"
    },
    {
      "inputs": [],
      "name": "numWords",
      "outputs": [
        {
          "internalType": "uint32",
          "name": "",
          "type": "uint32"
        }
      ],
      "stateMutability": "view",
      "type": "function"
    },
    {
      "inputs": [],
      "name": "owner",
      "outputs": [
        {
          "internalType": "address",
          "name": "",
          "type": "address"
        }
      ],
      "stateMutability": "view",
      "type": "function"
    },
    {
      "inputs": [
        {
          "internalType": "uint256",
          "name": "requestId",
          "type": "uint256"
        },
        {
          "internalType": "uint256[]",
          "name": "randomWords",
          "type": "uint256[]"
        }
      ],
      "name": "rawFulfillRandomWords",
      "outputs": [],
      "stateMutability": "nonpayable",
      "type": "function"
    },
    {
      "inputs": [],
      "name": "requestConfirmations",
      "outputs": [
        {
          "internalType": "uint16",
          "name": "",
          "type": "uint16"
        }
      ],
      "stateMutability": "view",
      "type": "function"
    },
    {
      "inputs": [
        {
          "internalType": "uint256",
          "name": "",
          "type": "uint256"
        }
      ],
      "name": "requestIds",
      "outputs": [
        {
          "internalType": "uint256",
          "name": "",
          "type": "uint256"
        }
      ],
      "stateMutability": "view",
      "type": "function"
    },
    {
      "inputs": [
        {
          "internalType": "bool",
          "name": "enableNativePayment",
          "type": "bool"
        }
      ],
      "name": "requestRandomWords",
      "outputs": [
        {
          "internalType": "uint256",
          "name": "requestId",
          "type": "uint256"
        }
      ],
      "stateMutability": "nonpayable",
      "type": "function"
    },
    {
      "inputs": [
        {
          "internalType": "uint256",
          "name": "",
          "type": "uint256"
        }
      ],
      "name": "s_requestToSender",
      "outputs": [
        {
          "internalType": "address",
          "name": "",
          "type": "address"
        }
      ],
      "stateMutability": "view",
      "type": "function"
    },
    {
      "inputs": [
        {
          "internalType": "uint256",
          "name": "",
          "type": "uint256"
        }
      ],
      "name": "s_requests",
      "outputs": [
        {
          "internalType": "bool",
          "name": "fulfilled",
          "type": "bool"
        },
        {
          "internalType": "bool",
          "name": "exists",
          "type": "bool"
        }
      ],
      "stateMutability": "view",
      "type": "function"
    },
    {
      "inputs": [],
      "name": "s_subscriptionId",
      "outputs": [
        {
          "internalType": "uint256",
          "name": "",
          "type": "uint256"
        }
      ],
      "stateMutability": "view",
      "type": "function"
    },
    {
      "inputs": [],
      "name": "s_vrfCoordinator",
      "outputs": [
        {
          "internalType": "contract IVRFCoordinatorV2Plus",
          "name": "",
          "type": "address"
        }
      ],
      "stateMutability": "view",
      "type": "function"
    },
    {
      "inputs": [
        {
          "internalType": "address",
          "name": "_vrfCoordinator",
          "type": "address"
        }
      ],
      "name": "setCoordinator",
      "outputs": [],
      "stateMutability": "nonpayable",
      "type": "function"
    },
    {
      "inputs": [
        {
          "internalType": "address",
          "name": "_nftContract",
          "type": "address"
        }
      ],
      "name": "setNFTContract",
      "outputs": [],
      "stateMutability": "nonpayable",
      "type": "function"
    },
    {
      "inputs": [
        {
          "internalType": "address",
          "name": "to",
          "type": "address"
        }
      ],
      "name": "transferOwnership",
      "outputs": [],
      "stateMutability": "nonpayable",
      "type": "function"
    }
  ],
  "bytecode": "0x60806040527f787d74caea10b2b357790d5b5247c2f63d1d91572a9846f780606e4d953677ae60001b600855620186a0600960006101000a81548163ffffffff021916908363ffffffff1602179055506003600960046101000a81548161ffff021916908361ffff160217905550600a600960066101000a81548163ffffffff021916908363ffffffff1602179055503480156200009c57600080fd5b50739ddfaca8183c41ad55329bdeed9f6a8d53168b1b338060008073ffffffffffffffffffffffffffffffffffffffff168273ffffffffffffffffffffffffffffffffffffffff160362000127576040517f08c379a00000000000000000000000000000000000000000000000000000000081526004016200011e9062000417565b60405180910390fd5b816000806101000a81548173ffffffffffffffffffffffffffffffffffffffff021916908373ffffffffffffffffffffffffffffffffffffffff160217905550600073ffffffffffffffffffffffffffffffffffffffff168173ffffffffffffffffffffffffffffffffffffffff1614620001ae57620001ad816200028760201b60201c565b5b505050600073ffffffffffffffffffffffffffffffffffffffff168173ffffffffffffffffffffffffffffffffffffffff160362000218576040517fd92e233d00000000000000000000000000000000000000000000000000000000815260040160405180910390fd5b80600260006101000a81548173ffffffffffffffffffffffffffffffffffffffff021916908373ffffffffffffffffffffffffffffffffffffffff160217905550507fd665af28612e91a79ec2e85497a687569ef634e497c28fcac0b779f3b4feffa4600581905550620004ab565b3373ffffffffffffffffffffffffffffffffffffffff168173ffffffffffffffffffffffffffffffffffffffff1603620002f8576040517f08c379a0000000000000000000000000000000000000000000000000000000008152600401620002ef9062000489565b60405180910390fd5b80600160006101000a81548173ffffffffffffffffffffffffffffffffffffffff021916908373ffffffffffffffffffffffffffffffffffffffff1602179055508073ffffffffffffffffffffffffffffffffffffffff1660008054906101000a900473ffffffffffffffffffffffffffffffffffffffff1673ffffffffffffffffffffffffffffffffffffffff167fed8889f560326eb138920d842192f0eb3dd22b4f139c87a2c57538e05bae127860405160405180910390a350565b600082825260208201905092915050565b7f43616e6e6f7420736574206f776e657220746f207a65726f0000000000000000600082015250565b6000620003ff601883620003b6565b91506200040c82620003c7565b602082019050919050565b600060208201905081810360008301526200043281620003f0565b9050919050565b7f43616e6e6f74207472616e7366657220746f2073656c66000000000000000000600082015250565b600062000471601783620003b6565b91506200047e8262000439565b602082019050919050565b60006020820190508181036000830152620004a48162000462565b9050919050565b611e9480620004bb6000396000f3fe608060405234801561001057600080fd5b50600436106101215760003560e01c80638da5cb5b116100ad578063b0fb162f11610071578063b0fb162f146102f9578063d56d229d14610317578063d8a4676f14610335578063f2fde38b14610366578063fc2a88c31461038257610121565b80638da5cb5b146102545780638ea98117146102725780639eccacf61461028e578063a168fa89146102ac578063a7ccabdf146102dd57610121565b80637392a771116100f45780637392a771146101ae57806379ba5097146101de5780637ccfd7fc146101e85780638796ba8c146102065780638ac000211461023657610121565b80631fe543e31461012657806324f74697146101425780632e602d291461016057806361728f3914610190575b600080fd5b610140600480360381019061013b9190611443565b6103a0565b005b61014a610466565b60405161015791906114c2565b60405180910390f35b61017a600480360381019061017591906114dd565b61047c565b604051610187919061154b565b60405180910390f35b6101986104af565b6040516101a5919061157f565b60405180910390f35b6101c860048036038101906101c391906115d2565b6104b5565b6040516101d5919061160e565b60405180910390f35b6101e661079a565b005b6101f061092f565b6040516101fd91906114c2565b60405180910390f35b610220600480360381019061021b91906114dd565b610945565b60405161022d919061160e565b60405180910390f35b61023e610969565b60405161024b919061160e565b60405180910390f35b61025c61096f565b604051610269919061154b565b60405180910390f35b61028c60048036038101906102879190611655565b610998565b005b610296610b79565b6040516102a391906116e1565b60405180910390f35b6102c660048036038101906102c191906114dd565b610b9f565b6040516102d492919061170b565b60405180910390f35b6102f760048036038101906102f29190611655565b610bdd565b005b610301610c29565b60405161030e9190611751565b60405180910390f35b61031f610c3d565b60405161032c919061154b565b60405180910390f35b61034f600480360381019061034a91906114dd565b610c63565b60405161035d92919061182a565b60405180910390f35b610380600480360381019061037b9190611655565b610d8e565b005b61038a610da2565b604051610397919061160e565b60405180910390f35b600260009054906101000a900473ffffffffffffffffffffffffffffffffffffffff1673ffffffffffffffffffffffffffffffffffffffff163373ffffffffffffffffffffffffffffffffffffffff16146104565733600260009054906101000a900473ffffffffffffffffffffffffffffffffffffffff166040517f1cf993f400000000000000000000000000000000000000000000000000000000815260040161044d92919061185a565b60405180910390fd5b610461838383610da8565b505050565b600960009054906101000a900463ffffffff1681565b60046020528060005260406000206000915054906101000a900473ffffffffffffffffffffffffffffffffffffffff1681565b60085481565b60006104bf611093565b600260009054906101000a900473ffffffffffffffffffffffffffffffffffffffff1673ffffffffffffffffffffffffffffffffffffffff16639b1c385e6040518060c0016040528060085481526020016005548152602001600960049054906101000a900461ffff1661ffff168152602001600960009054906101000a900463ffffffff1663ffffffff168152602001600960069054906101000a900463ffffffff1663ffffffff1681526020016105876040518060200160405280881515815250611123565b8152506040518263ffffffff1660e01b81526004016105a691906119c9565b6020604051808303816000875af11580156105c5573d6000803e3d6000fd5b505050506040513d601f19601f820116820180604052508101906105e99190611a00565b90506040518060600160405280600015158152602001600115158152602001600067ffffffffffffffff81111561062357610622611a2d565b5b6040519080825280602002602001820160405280156106515781602001602082028036833780820191505090505b508152506003600083815260200190815260200160002060008201518160000160006101000a81548160ff02191690831515021790555060208201518160000160016101000a81548160ff02191690831515021790555060408201518160010190805190602001906106c49291906112e7565b50905050336004600083815260200190815260200160002060006101000a81548173ffffffffffffffffffffffffffffffffffffffff021916908373ffffffffffffffffffffffffffffffffffffffff1602179055506006819080600181540180825580915050600190039060005260206000200160009091909190915055806007819055507fcc58b13ad3eab50626c6a6300b1d139cd6ebb1688a7cced9461c2f7e762665ee81600960069054906101000a900463ffffffff1660405161078d929190611a5c565b60405180910390a1919050565b600160009054906101000a900473ffffffffffffffffffffffffffffffffffffffff1673ffffffffffffffffffffffffffffffffffffffff163373ffffffffffffffffffffffffffffffffffffffff161461082a576040517f08c379a000000000000000000000000000000000000000000000000000000000815260040161082190611ae2565b60405180910390fd5b60008060009054906101000a900473ffffffffffffffffffffffffffffffffffffffff169050336000806101000a81548173ffffffffffffffffffffffffffffffffffffffff021916908373ffffffffffffffffffffffffffffffffffffffff1602179055506000600160006101000a81548173ffffffffffffffffffffffffffffffffffffffff021916908373ffffffffffffffffffffffffffffffffffffffff1602179055503373ffffffffffffffffffffffffffffffffffffffff168173ffffffffffffffffffffffffffffffffffffffff167f8be0079c531659141344cd1fd0a4f28419497f9722a3daafe3b4186f6b6457e060405160405180910390a350565b600960069054906101000a900463ffffffff1681565b6006818154811061095557600080fd5b906000526020600020016000915090505481565b60055481565b60008060009054906101000a900473ffffffffffffffffffffffffffffffffffffffff16905090565b6109a061096f565b73ffffffffffffffffffffffffffffffffffffffff163373ffffffffffffffffffffffffffffffffffffffff1614158015610a295750600260009054906101000a900473ffffffffffffffffffffffffffffffffffffffff1673ffffffffffffffffffffffffffffffffffffffff163373ffffffffffffffffffffffffffffffffffffffff1614155b15610a985733610a3761096f565b600260009054906101000a900473ffffffffffffffffffffffffffffffffffffffff166040517f061db9c1000000000000000000000000000000000000000000000000000000008152600401610a8f93929190611b02565b60405180910390fd5b600073ffffffffffffffffffffffffffffffffffffffff168173ffffffffffffffffffffffffffffffffffffffff1603610afe576040517fd92e233d00000000000000000000000000000000000000000000000000000000815260040160405180910390fd5b80600260006101000a81548173ffffffffffffffffffffffffffffffffffffffff021916908373ffffffffffffffffffffffffffffffffffffffff1602179055507fd1a6a14209a385a964d036e404cb5cfb71f4000cdb03c9366292430787261be681604051610b6e919061154b565b60405180910390a150565b600260009054906101000a900473ffffffffffffffffffffffffffffffffffffffff1681565b60036020528060005260406000206000915090508060000160009054906101000a900460ff16908060000160019054906101000a900460ff16905082565b610be5611093565b806009600a6101000a81548173ffffffffffffffffffffffffffffffffffffffff021916908373ffffffffffffffffffffffffffffffffffffffff16021790555050565b600960049054906101000a900461ffff1681565b6009600a9054906101000a900473ffffffffffffffffffffffffffffffffffffffff1681565b600060606003600084815260200190815260200160002060000160019054906101000a900460ff16610cca576040517f08c379a0000000000000000000000000000000000000000000000000000000008152600401610cc190611b85565b60405180910390fd5b6000600360008581526020019081526020016000206040518060600160405290816000820160009054906101000a900460ff161515151581526020016000820160019054906101000a900460ff1615151515815260200160018201805480602002602001604051908101604052809291908181526020018280548015610d6f57602002820191906000526020600020905b815481526020019060010190808311610d5b575b5050505050815250509050806000015181604001519250925050915091565b610d96611093565b610d9f816111bb565b50565b60075481565b6003600084815260200190815260200160002060000160019054906101000a900460ff16610e0b576040517f08c379a0000000000000000000000000000000000000000000000000000000008152600401610e0290611b85565b60405180910390fd5b60016003600085815260200190815260200160002060000160006101000a81548160ff0219169083151502179055508181600360008681526020019081526020016000206001019190610e5f929190611334565b5060006004600085815260200190815260200160002060009054906101000a900473ffffffffffffffffffffffffffffffffffffffff169050600073ffffffffffffffffffffffffffffffffffffffff166009600a9054906101000a900473ffffffffffffffffffffffffffffffffffffffff1673ffffffffffffffffffffffffffffffffffffffff16146110525760006009600a9054906101000a900473ffffffffffffffffffffffffffffffffffffffff1673ffffffffffffffffffffffffffffffffffffffff1682868686604051602401610f409493929190611c0f565b6040516020818303038152906040527f955fc25a000000000000000000000000000000000000000000000000000000007bffffffffffffffffffffffffffffffffffffffffffffffffffffffff19166020820180517bffffffffffffffffffffffffffffffffffffffffffffffffffffffff8381831617835250505050604051610fca9190611c8b565b6000604051808303816000865af19150503d8060008114611007576040519150601f19603f3d011682016040523d82523d6000602084013e61100c565b606091505b5050905080611050576040517f08c379a000000000000000000000000000000000000000000000000000000000815260040161104790611cee565b60405180910390fd5b505b7ffe2e2d779dba245964d4e3ef9b994be63856fd568bf7d3ca9e224755cb1bd54d84848460405161108593929190611d0e565b60405180910390a150505050565b60008054906101000a900473ffffffffffffffffffffffffffffffffffffffff1673ffffffffffffffffffffffffffffffffffffffff163373ffffffffffffffffffffffffffffffffffffffff1614611121576040517f08c379a000000000000000000000000000000000000000000000000000000000815260040161111890611d8c565b60405180910390fd5b565b60607f92fd13387c7fe7befbc38d303d6468778fb9731bc4583f17d92989c6fcfdeaaa826040516024016111579190611dd7565b604051602081830303815290604052907bffffffffffffffffffffffffffffffffffffffffffffffffffffffff19166020820180517bffffffffffffffffffffffffffffffffffffffffffffffffffffffff83818316178352505050509050919050565b3373ffffffffffffffffffffffffffffffffffffffff168173ffffffffffffffffffffffffffffffffffffffff1603611229576040517f08c379a000000000000000000000000000000000000000000000000000000000815260040161122090611e3e565b60405180910390fd5b80600160006101000a81548173ffffffffffffffffffffffffffffffffffffffff021916908373ffffffffffffffffffffffffffffffffffffffff1602179055508073ffffffffffffffffffffffffffffffffffffffff1660008054906101000a900473ffffffffffffffffffffffffffffffffffffffff1673ffffffffffffffffffffffffffffffffffffffff167fed8889f560326eb138920d842192f0eb3dd22b4f139c87a2c57538e05bae127860405160405180910390a350565b828054828255906000526020600020908101928215611323579160200282015b82811115611322578251825591602001919060010190611307565b5b5090506113309190611381565b5090565b828054828255906000526020600020908101928215611370579160200282015b8281111561136f578235825591602001919060010190611354565b5b50905061137d9190611381565b5090565b5b8082111561139a576000816000905550600101611382565b5090565b600080fd5b600080fd5b6000819050919050565b6113bb816113a8565b81146113c657600080fd5b50565b6000813590506113d8816113b2565b92915050565b600080fd5b600080fd5b600080fd5b60008083601f840112611403576114026113de565b5b8235905067ffffffffffffffff8111156114205761141f6113e3565b5b60208301915083602082028301111561143c5761143b6113e8565b5b9250929050565b60008060006040848603121561145c5761145b61139e565b5b600061146a868287016113c9565b935050602084013567ffffffffffffffff81111561148b5761148a6113a3565b5b611497868287016113ed565b92509250509250925092565b600063ffffffff82169050919050565b6114bc816114a3565b82525050565b60006020820190506114d760008301846114b3565b92915050565b6000602082840312156114f3576114f261139e565b5b6000611501848285016113c9565b91505092915050565b600073ffffffffffffffffffffffffffffffffffffffff82169050919050565b60006115358261150a565b9050919050565b6115458161152a565b82525050565b6000602082019050611560600083018461153c565b92915050565b6000819050919050565b61157981611566565b82525050565b60006020820190506115946000830184611570565b92915050565b60008115159050919050565b6115af8161159a565b81146115ba57600080fd5b50565b6000813590506115cc816115a6565b92915050565b6000602082840312156115e8576115e761139e565b5b60006115f6848285016115bd565b91505092915050565b611608816113a8565b82525050565b600060208201905061162360008301846115ff565b92915050565b6116328161152a565b811461163d57600080fd5b50565b60008135905061164f81611629565b92915050565b60006020828403121561166b5761166a61139e565b5b600061167984828501611640565b91505092915050565b6000819050919050565b60006116a76116a261169d8461150a565b611682565b61150a565b9050919050565b60006116b98261168c565b9050919050565b60006116cb826116ae565b9050919050565b6116db816116c0565b82525050565b60006020820190506116f660008301846116d2565b92915050565b6117058161159a565b82525050565b600060408201905061172060008301856116fc565b61172d60208301846116fc565b9392505050565b600061ffff82169050919050565b61174b81611734565b82525050565b60006020820190506117666000830184611742565b92915050565b600081519050919050565b600082825260208201905092915050565b6000819050602082019050919050565b6117a1816113a8565b82525050565b60006117b38383611798565b60208301905092915050565b6000602082019050919050565b60006117d78261176c565b6117e18185611777565b93506117ec83611788565b8060005b8381101561181d57815161180488826117a7565b975061180f836117bf565b9250506001810190506117f0565b5085935050505092915050565b600060408201905061183f60008301856116fc565b818103602083015261185181846117cc565b90509392505050565b600060408201905061186f600083018561153c565b61187c602083018461153c565b9392505050565b61188c81611566565b82525050565b61189b81611734565b82525050565b6118aa816114a3565b82525050565b600081519050919050565b600082825260208201905092915050565b60005b838110156118ea5780820151818401526020810190506118cf565b60008484015250505050565b6000601f19601f8301169050919050565b6000611912826118b0565b61191c81856118bb565b935061192c8185602086016118cc565b611935816118f6565b840191505092915050565b600060c0830160008301516119586000860182611883565b50602083015161196b6020860182611798565b50604083015161197e6040860182611892565b50606083015161199160608601826118a1565b5060808301516119a460808601826118a1565b5060a083015184820360a08601526119bc8282611907565b9150508091505092915050565b600060208201905081810360008301526119e38184611940565b905092915050565b6000815190506119fa816113b2565b92915050565b600060208284031215611a1657611a1561139e565b5b6000611a24848285016119eb565b91505092915050565b7f4e487b7100000000000000000000000000000000000000000000000000000000600052604160045260246000fd5b6000604082019050611a7160008301856115ff565b611a7e60208301846114b3565b9392505050565b600082825260208201905092915050565b7f4d7573742062652070726f706f736564206f776e657200000000000000000000600082015250565b6000611acc601683611a85565b9150611ad782611a96565b602082019050919050565b60006020820190508181036000830152611afb81611abf565b9050919050565b6000606082019050611b17600083018661153c565b611b24602083018561153c565b611b31604083018461153c565b949350505050565b7f72657175657374206e6f7420666f756e64000000000000000000000000000000600082015250565b6000611b6f601183611a85565b9150611b7a82611b39565b602082019050919050565b60006020820190508181036000830152611b9e81611b62565b9050919050565b600080fd5b82818337505050565b6000611bbf8385611777565b93507f07ffffffffffffffffffffffffffffffffffffffffffffffffffffffffffffff831115611bf257611bf1611ba5565b5b602083029250611c03838584611baa565b82840190509392505050565b6000606082019050611c24600083018761153c565b611c3160208301866115ff565b8181036040830152611c44818486611bb3565b905095945050505050565b600081905092915050565b6000611c65826118b0565b611c6f8185611c4f565b9350611c7f8185602086016118cc565b80840191505092915050565b6000611c978284611c5a565b915081905092915050565b7f4661696c656420746f206e6f74696679204e465420636f6e7472616374000000600082015250565b6000611cd8601d83611a85565b9150611ce382611ca2565b602082019050919050565b60006020820190508181036000830152611d0781611ccb565b9050919050565b6000604082019050611d2360008301866115ff565b8181036020830152611d36818486611bb3565b9050949350505050565b7f4f6e6c792063616c6c61626c65206279206f776e657200000000000000000000600082015250565b6000611d76601683611a85565b9150611d8182611d40565b602082019050919050565b60006020820190508181036000830152611da581611d69565b9050919050565b611db58161159a565b82525050565b602082016000820151611dd16000850182611dac565b50505050565b6000602082019050611dec6000830184611dbb565b92915050565b7f43616e6e6f74207472616e7366657220746f2073656c66000000000000000000600082015250565b6000611e28601783611a85565b9150611e3382611df2565b602082019050919050565b60006020820190508181036000830152611e5781611e1b565b905091905056fea26469706673582212209cca7d81066582b0d0081c0d2e5015efbf549a62a584f06d5d97604dcdf8636764736f6c63430008140033",
  "linkReferences": {},
  "deployedLinkReferences": {}
}