{
  "_format": "hh-sol-artifact-1",
  "contractName": "CardCollectingNFT",
  "sourceName": "contracts/CardCollectingNFT.sol",
  "abi": [
    {
      "inputs": [
        {
          "internalType": "uint256",
          "name": "subscriptionId",
          "type": "uint256"
        }
      ],
      "stateMutability": "nonpayable",
      "type": "constructor"
    },
    {
      "inputs": [
        {
          "internalType": "address",
          "name": "sender",
          "type": "address"
        },
        {
          "internalType": "uint256",
          "name": "tokenId",
          "type": "uint256"
        },
        {
          "internalType": "address",
          "name": "owner",
          "type": "address"
        }
      ],
      "name": "ERC721IncorrectOwner",
      "type": "error"
    },
    {
      "inputs": [
        {
          "internalType": "address",
          "name": "operator",
          "type": "address"
        },
        {
          "internalType": "uint256",
          "name": "tokenId",
          "type": "uint256"
        }
      ],
      "name": "ERC721InsufficientApproval",
      "type": "error"
    },
    {
      "inputs": [
        {
          "internalType": "address",
          "name": "approver",
          "type": "address"
        }
      ],
      "name": "ERC721InvalidApprover",
      "type": "error"
    },
    {
      "inputs": [
        {
          "internalType": "address",
          "name": "operator",
          "type": "address"
        }
      ],
      "name": "ERC721InvalidOperator",
      "type": "error"
    },
    {
      "inputs": [
        {
          "internalType": "address",
          "name": "owner",
          "type": "address"
        }
      ],
      "name": "ERC721InvalidOwner",
      "type": "error"
    },
    {
      "inputs": [
        {
          "internalType": "address",
          "name": "receiver",
          "type": "address"
        }
      ],
      "name": "ERC721InvalidReceiver",
      "type": "error"
    },
    {
      "inputs": [
        {
          "internalType": "address",
          "name": "sender",
          "type": "address"
        }
      ],
      "name": "ERC721InvalidSender",
      "type": "error"
    },
    {
      "inputs": [
        {
          "internalType": "uint256",
          "name": "tokenId",
          "type": "uint256"
        }
      ],
      "name": "ERC721NonexistentToken",
      "type": "error"
    },
    {
      "inputs": [
        {
          "internalType": "address",
          "name": "have",
          "type": "address"
        },
        {
          "internalType": "address",
          "name": "want",
          "type": "address"
        }
      ],
      "name": "OnlyCoordinatorCanFulfill",
      "type": "error"
    },
    {
      "inputs": [
        {
          "internalType": "address",
          "name": "have",
          "type": "address"
        },
        {
          "internalType": "address",
          "name": "owner",
          "type": "address"
        },
        {
          "internalType": "address",
          "name": "coordinator",
          "type": "address"
        }
      ],
      "name": "OnlyOwnerOrCoordinator",
      "type": "error"
    },
    {
      "inputs": [],
      "name": "ZeroAddress",
      "type": "error"
    },
    {
      "anonymous": false,
      "inputs": [
        {
          "indexed": true,
          "internalType": "address",
          "name": "owner",
          "type": "address"
        },
        {
          "indexed": true,
          "internalType": "address",
          "name": "approved",
          "type": "address"
        },
        {
          "indexed": true,
          "internalType": "uint256",
          "name": "tokenId",
          "type": "uint256"
        }
      ],
      "name": "Approval",
      "type": "event"
    },
    {
      "anonymous": false,
      "inputs": [
        {
          "indexed": true,
          "internalType": "address",
          "name": "owner",
          "type": "address"
        },
        {
          "indexed": true,
          "internalType": "address",
          "name": "operator",
          "type": "address"
        },
        {
          "indexed": false,
          "internalType": "bool",
          "name": "approved",
          "type": "bool"
        }
      ],
      "name": "ApprovalForAll",
      "type": "event"
    },
    {
      "anonymous": false,
      "inputs": [
        {
          "indexed": false,
          "internalType": "uint256",
          "name": "_fromTokenId",
          "type": "uint256"
        },
        {
          "indexed": false,
          "internalType": "uint256",
          "name": "_toTokenId",
          "type": "uint256"
        }
      ],
      "name": "BatchMetadataUpdate",
      "type": "event"
    },
    {
      "anonymous": false,
      "inputs": [
        {
          "indexed": false,
          "internalType": "uint256",
          "name": "tokenId",
          "type": "uint256"
        },
        {
          "indexed": false,
          "internalType": "address",
          "name": "owner",
          "type": "address"
        },
        {
          "indexed": false,
          "internalType": "string",
          "name": "metadataURI",
          "type": "string"
        }
      ],
      "name": "CardMinted",
      "type": "event"
    },
    {
      "anonymous": false,
      "inputs": [
        {
          "indexed": false,
          "internalType": "address",
          "name": "vrfCoordinator",
          "type": "address"
        }
      ],
      "name": "CoordinatorSet",
      "type": "event"
    },
    {
      "anonymous": false,
      "inputs": [
        {
          "indexed": true,
          "internalType": "uint256",
          "name": "tokenId",
          "type": "uint256"
        },
        {
          "indexed": false,
          "internalType": "address",
          "name": "seller",
          "type": "address"
        },
        {
          "indexed": false,
          "internalType": "address",
          "name": "owner",
          "type": "address"
        },
        {
          "indexed": false,
          "internalType": "uint256",
          "name": "price",
          "type": "uint256"
        },
        {
          "indexed": false,
          "internalType": "bool",
          "name": "sold",
          "type": "bool"
        }
      ],
      "name": "ListingCreated",
      "type": "event"
    },
    {
      "anonymous": false,
      "inputs": [
        {
          "indexed": true,
          "internalType": "uint256",
          "name": "tokenId",
          "type": "uint256"
        },
        {
          "indexed": false,
          "internalType": "address",
          "name": "seller",
          "type": "address"
        }
      ],
      "name": "ListingRemoved",
      "type": "event"
    },
    {
      "anonymous": false,
      "inputs": [
        {
          "indexed": false,
          "internalType": "uint256",
          "name": "_tokenId",
          "type": "uint256"
        }
      ],
      "name": "MetadataUpdate",
      "type": "event"
    },
    {
      "anonymous": false,
      "inputs": [
        {
          "indexed": true,
          "internalType": "address",
          "name": "from",
          "type": "address"
        },
        {
          "indexed": true,
          "internalType": "address",
          "name": "to",
          "type": "address"
        }
      ],
      "name": "OwnershipTransferRequested",
      "type": "event"
    },
    {
      "anonymous": false,
      "inputs": [
        {
          "indexed": true,
          "internalType": "address",
          "name": "from",
          "type": "address"
        },
        {
          "indexed": true,
          "internalType": "address",
          "name": "to",
          "type": "address"
        }
      ],
      "name": "OwnershipTransferred",
      "type": "event"
    },
    {
      "anonymous": false,
      "inputs": [
        {
          "indexed": false,
          "internalType": "uint256",
          "name": "requestId",
          "type": "uint256"
        },
        {
          "indexed": false,
          "internalType": "uint256[]",
          "name": "randomWords",
          "type": "uint256[]"
        }
      ],
      "name": "RandomnessFulfilled",
      "type": "event"
    },
    {
      "anonymous": false,
      "inputs": [
        {
          "indexed": false,
          "internalType": "uint256",
          "name": "requestId",
          "type": "uint256"
        },
        {
          "indexed": false,
          "internalType": "address",
          "name": "requester",
          "type": "address"
        }
      ],
      "name": "RandomnessRequested",
      "type": "event"
    },
    {
      "anonymous": false,
      "inputs": [
        {
          "indexed": true,
          "internalType": "address",
          "name": "from",
          "type": "address"
        },
        {
          "indexed": true,
          "internalType": "address",
          "name": "to",
          "type": "address"
        },
        {
          "indexed": true,
          "internalType": "uint256",
          "name": "tokenId",
          "type": "uint256"
        }
      ],
      "name": "Transfer",
      "type": "event"
    },
    {
      "inputs": [],
      "name": "acceptOwnership",
      "outputs": [],
      "stateMutability": "nonpayable",
      "type": "function"
    },
    {
      "inputs": [
        {
          "internalType": "address",
          "name": "to",
          "type": "address"
        },
        {
          "internalType": "uint256",
          "name": "tokenId",
          "type": "uint256"
        }
      ],
      "name": "approve",
      "outputs": [],
      "stateMutability": "nonpayable",
      "type": "function"
    },
    {
      "inputs": [
        {
          "internalType": "address",
          "name": "owner",
          "type": "address"
        }
      ],
      "name": "balanceOf",
      "outputs": [
        {
          "internalType": "uint256",
          "name": "",
          "type": "uint256"
        }
      ],
      "stateMutability": "view",
      "type": "function"
    },
    {
      "inputs": [],
      "name": "baseURI",
      "outputs": [
        {
          "internalType": "string",
          "name": "",
          "type": "string"
        }
      ],
      "stateMutability": "view",
      "type": "function"
    },
    {
      "inputs": [
        {
          "internalType": "uint256",
          "name": "_requestId",
          "type": "uint256"
        }
      ],
      "name": "batchMint",
      "outputs": [],
      "stateMutability": "nonpayable",
      "type": "function"
    },
    {
      "inputs": [],
      "name": "callbackGasLimit",
      "outputs": [
        {
          "internalType": "uint32",
          "name": "",
          "type": "uint32"
        }
      ],
      "stateMutability": "view",
      "type": "function"
    },
    {
      "inputs": [
        {
          "internalType": "string",
          "name": "tokenURI",
          "type": "string"
        },
        {
          "internalType": "address",
          "name": "recipient",
          "type": "address"
        }
      ],
      "name": "createToken",
      "outputs": [
        {
          "internalType": "uint256",
          "name": "",
          "type": "uint256"
        }
      ],
      "stateMutability": "payable",
      "type": "function"
    },
    {
      "inputs": [],
      "name": "fetchItemsListed",
      "outputs": [
        {
          "components": [
            {
              "internalType": "uint256",
              "name": "tokenId",
              "type": "uint256"
            },
            {
              "internalType": "address payable",
              "name": "seller",
              "type": "address"
            },
            {
              "internalType": "address payable",
              "name": "owner",
              "type": "address"
            },
            {
              "internalType": "uint256",
              "name": "price",
              "type": "uint256"
            },
            {
              "internalType": "bool",
              "name": "sold",
              "type": "bool"
            }
          ],
          "internalType": "struct NFTplace.Listing[]",
          "name": "",
          "type": "tuple[]"
        }
      ],
      "stateMutability": "view",
      "type": "function"
    },
    {
      "inputs": [],
      "name": "fetchListingMarketplace",
      "outputs": [
        {
          "components": [
            {
              "internalType": "uint256",
              "name": "tokenId",
              "type": "uint256"
            },
            {
              "internalType": "address payable",
              "name": "seller",
              "type": "address"
            },
            {
              "internalType": "address payable",
              "name": "owner",
              "type": "address"
            },
            {
              "internalType": "uint256",
              "name": "price",
              "type": "uint256"
            },
            {
              "internalType": "bool",
              "name": "sold",
              "type": "bool"
            }
          ],
          "internalType": "struct NFTplace.Listing[]",
          "name": "",
          "type": "tuple[]"
        }
      ],
      "stateMutability": "view",
      "type": "function"
    },
    {
      "inputs": [],
      "name": "fetchMyNFTs",
      "outputs": [
        {
          "components": [
            {
              "internalType": "uint256",
              "name": "tokenId",
              "type": "uint256"
            },
            {
              "internalType": "address payable",
              "name": "seller",
              "type": "address"
            },
            {
              "internalType": "address payable",
              "name": "owner",
              "type": "address"
            },
            {
              "internalType": "uint256",
              "name": "price",
              "type": "uint256"
            },
            {
              "internalType": "bool",
              "name": "sold",
              "type": "bool"
            }
          ],
          "internalType": "struct NFTplace.Listing[]",
          "name": "",
          "type": "tuple[]"
        }
      ],
      "stateMutability": "view",
      "type": "function"
    },
    {
      "inputs": [
        {
          "internalType": "uint256",
          "name": "tokenId",
          "type": "uint256"
        }
      ],
      "name": "getApproved",
      "outputs": [
        {
          "internalType": "address",
          "name": "",
          "type": "address"
        }
      ],
      "stateMutability": "view",
      "type": "function"
    },
    {
      "inputs": [],
      "name": "getContractOwner",
      "outputs": [
        {
          "internalType": "address",
          "name": "",
          "type": "address"
        }
      ],
      "stateMutability": "view",
      "type": "function"
    },
    {
      "inputs": [],
      "name": "getListingPrice",
      "outputs": [
        {
          "internalType": "uint256",
          "name": "",
          "type": "uint256"
        }
      ],
      "stateMutability": "view",
      "type": "function"
    },
    {
      "inputs": [
        {
          "internalType": "address",
          "name": "user",
          "type": "address"
        }
      ],
      "name": "getMintedTokens",
      "outputs": [
        {
          "internalType": "uint256[]",
          "name": "",
          "type": "uint256[]"
        }
      ],
      "stateMutability": "view",
      "type": "function"
    },
    {
      "inputs": [
        {
          "internalType": "uint256",
          "name": "_requestId",
          "type": "uint256"
        }
      ],
      "name": "getRequestStatus",
      "outputs": [
        {
          "internalType": "bool",
          "name": "fulfilled",
          "type": "bool"
        },
        {
          "internalType": "uint256[]",
          "name": "randomWords",
          "type": "uint256[]"
        }
      ],
      "stateMutability": "view",
      "type": "function"
    },
    {
      "inputs": [
        {
          "internalType": "address",
          "name": "owner",
          "type": "address"
        },
        {
          "internalType": "address",
          "name": "operator",
          "type": "address"
        }
      ],
      "name": "isApprovedForAll",
      "outputs": [
        {
          "internalType": "bool",
          "name": "",
          "type": "bool"
        }
      ],
      "stateMutability": "view",
      "type": "function"
    },
    {
      "inputs": [],
      "name": "lastRequestId",
      "outputs": [
        {
          "internalType": "uint256",
          "name": "",
          "type": "uint256"
        }
      ],
      "stateMutability": "view",
      "type": "function"
    },
    {
      "inputs": [
        {
          "internalType": "uint256",
          "name": "tokenId",
          "type": "uint256"
        },
        {
          "internalType": "uint256",
          "name": "price",
          "type": "uint256"
        }
      ],
      "name": "listCard",
      "outputs": [],
      "stateMutability": "payable",
      "type": "function"
    },
    {
      "inputs": [],
      "name": "name",
      "outputs": [
        {
          "internalType": "string",
          "name": "",
          "type": "string"
        }
      ],
      "stateMutability": "view",
      "type": "function"
    },
    {
      "inputs": [],
      "name": "nextTokenId",
      "outputs": [
        {
          "internalType": "uint256",
          "name": "",
          "type": "uint256"
        }
      ],
      "stateMutability": "view",
      "type": "function"
    },
    {
      "inputs": [],
      "name": "numWords",
      "outputs": [
        {
          "internalType": "uint32",
          "name": "",
          "type": "uint32"
        }
      ],
      "stateMutability": "view",
      "type": "function"
    },
    {
      "inputs": [],
      "name": "owner",
      "outputs": [
        {
          "internalType": "address",
          "name": "",
          "type": "address"
        }
      ],
      "stateMutability": "view",
      "type": "function"
    },
    {
      "inputs": [
        {
          "internalType": "uint256",
          "name": "tokenId",
          "type": "uint256"
        }
      ],
      "name": "ownerOf",
      "outputs": [
        {
          "internalType": "address",
          "name": "",
          "type": "address"
        }
      ],
      "stateMutability": "view",
      "type": "function"
    },
    {
      "inputs": [
        {
          "internalType": "uint256",
          "name": "tokenId",
          "type": "uint256"
        }
      ],
      "name": "purchaseCard",
      "outputs": [],
      "stateMutability": "payable",
      "type": "function"
    },
    {
      "inputs": [
        {
          "internalType": "uint256",
          "name": "requestId",
          "type": "uint256"
        },
        {
          "internalType": "uint256[]",
          "name": "randomWords",
          "type": "uint256[]"
        }
      ],
      "name": "rawFulfillRandomWords",
      "outputs": [],
      "stateMutability": "nonpayable",
      "type": "function"
    },
    {
      "inputs": [],
      "name": "requestConfirmations",
      "outputs": [
        {
          "internalType": "uint16",
          "name": "",
          "type": "uint16"
        }
      ],
      "stateMutability": "view",
      "type": "function"
    },
    {
      "inputs": [
        {
          "internalType": "uint256",
          "name": "",
          "type": "uint256"
        }
      ],
      "name": "requestIds",
      "outputs": [
        {
          "internalType": "uint256",
          "name": "",
          "type": "uint256"
        }
      ],
      "stateMutability": "view",
      "type": "function"
    },
    {
      "inputs": [],
      "name": "requestRandomWords",
      "outputs": [
        {
          "internalType": "uint256",
          "name": "requestId",
          "type": "uint256"
        }
      ],
      "stateMutability": "nonpayable",
      "type": "function"
    },
    {
      "inputs": [],
      "name": "s_keyHash",
      "outputs": [
        {
          "internalType": "bytes32",
          "name": "",
          "type": "bytes32"
        }
      ],
      "stateMutability": "view",
      "type": "function"
    },
    {
      "inputs": [
        {
          "internalType": "uint256",
          "name": "",
          "type": "uint256"
        }
      ],
      "name": "s_randomWords",
      "outputs": [
        {
          "internalType": "uint256",
          "name": "",
          "type": "uint256"
        }
      ],
      "stateMutability": "view",
      "type": "function"
    },
    {
      "inputs": [
        {
          "internalType": "uint256",
          "name": "",
          "type": "uint256"
        },
        {
          "internalType": "uint256",
          "name": "",
          "type": "uint256"
        }
      ],
      "name": "s_requestToRandomNumbers",
      "outputs": [
        {
          "internalType": "uint256",
          "name": "",
          "type": "uint256"
        }
      ],
      "stateMutability": "view",
      "type": "function"
    },
    {
      "inputs": [
        {
          "internalType": "uint256",
          "name": "",
          "type": "uint256"
        }
      ],
      "name": "s_requestToSender",
      "outputs": [
        {
          "internalType": "address",
          "name": "",
          "type": "address"
        }
      ],
      "stateMutability": "view",
      "type": "function"
    },
    {
      "inputs": [
        {
          "internalType": "uint256",
          "name": "",
          "type": "uint256"
        }
      ],
      "name": "s_requests",
      "outputs": [
        {
          "internalType": "bool",
          "name": "fulfilled",
          "type": "bool"
        },
        {
          "internalType": "bool",
          "name": "exists",
          "type": "bool"
        }
      ],
      "stateMutability": "view",
      "type": "function"
    },
    {
      "inputs": [],
      "name": "s_subscriptionId",
      "outputs": [
        {
          "internalType": "uint256",
          "name": "",
          "type": "uint256"
        }
      ],
      "stateMutability": "view",
      "type": "function"
    },
    {
      "inputs": [],
      "name": "s_vrfCoordinator",
      "outputs": [
        {
          "internalType": "contract IVRFCoordinatorV2Plus",
          "name": "",
          "type": "address"
        }
      ],
      "stateMutability": "view",
      "type": "function"
    },
    {
      "inputs": [
        {
          "internalType": "address",
          "name": "from",
          "type": "address"
        },
        {
          "internalType": "address",
          "name": "to",
          "type": "address"
        },
        {
          "internalType": "uint256",
          "name": "tokenId",
          "type": "uint256"
        }
      ],
      "name": "safeTransferFrom",
      "outputs": [],
      "stateMutability": "nonpayable",
      "type": "function"
    },
    {
      "inputs": [
        {
          "internalType": "address",
          "name": "from",
          "type": "address"
        },
        {
          "internalType": "address",
          "name": "to",
          "type": "address"
        },
        {
          "internalType": "uint256",
          "name": "tokenId",
          "type": "uint256"
        },
        {
          "internalType": "bytes",
          "name": "data",
          "type": "bytes"
        }
      ],
      "name": "safeTransferFrom",
      "outputs": [],
      "stateMutability": "nonpayable",
      "type": "function"
    },
    {
      "inputs": [
        {
          "internalType": "address",
          "name": "operator",
          "type": "address"
        },
        {
          "internalType": "bool",
          "name": "approved",
          "type": "bool"
        }
      ],
      "name": "setApprovalForAll",
      "outputs": [],
      "stateMutability": "nonpayable",
      "type": "function"
    },
    {
      "inputs": [
        {
          "internalType": "string",
          "name": "_baseURI",
          "type": "string"
        }
      ],
      "name": "setBaseURI",
      "outputs": [],
      "stateMutability": "nonpayable",
      "type": "function"
    },
    {
      "inputs": [
        {
          "internalType": "address",
          "name": "_vrfCoordinator",
          "type": "address"
        }
      ],
      "name": "setCoordinator",
      "outputs": [],
      "stateMutability": "nonpayable",
      "type": "function"
    },
    {
      "inputs": [
        {
          "internalType": "bytes4",
          "name": "interfaceId",
          "type": "bytes4"
        }
      ],
      "name": "supportsInterface",
      "outputs": [
        {
          "internalType": "bool",
          "name": "",
          "type": "bool"
        }
      ],
      "stateMutability": "view",
      "type": "function"
    },
    {
      "inputs": [],
      "name": "symbol",
      "outputs": [
        {
          "internalType": "string",
          "name": "",
          "type": "string"
        }
      ],
      "stateMutability": "view",
      "type": "function"
    },
    {
      "inputs": [
        {
          "internalType": "uint256",
          "name": "tokenId",
          "type": "uint256"
        }
      ],
      "name": "tokenURI",
      "outputs": [
        {
          "internalType": "string",
          "name": "",
          "type": "string"
        }
      ],
      "stateMutability": "view",
      "type": "function"
    },
    {
      "inputs": [
        {
          "internalType": "address",
          "name": "from",
          "type": "address"
        },
        {
          "internalType": "address",
          "name": "to",
          "type": "address"
        },
        {
          "internalType": "uint256",
          "name": "tokenId",
          "type": "uint256"
        }
      ],
      "name": "transferFrom",
      "outputs": [],
      "stateMutability": "nonpayable",
      "type": "function"
    },
    {
      "inputs": [
        {
          "internalType": "address",
          "name": "to",
          "type": "address"
        }
      ],
      "name": "transferOwnership",
      "outputs": [],
      "stateMutability": "nonpayable",
      "type": "function"
    }
  ],
  "bytecode": "0x6080604052655af3107a4000600c557f787d74caea10b2b357790d5b5247c2f63d1d91572a9846f780606e4d953677ae60001b601655620f4240601760006101000a81548163ffffffff021916908363ffffffff1602179055506003601760046101000a81548161ffff021916908361ffff160217905550600a601760066101000a81548163ffffffff021916908363ffffffff1602179055506040518060a00160405280607481526020016200663f6074913960189081620000c391906200073e565b50348015620000d157600080fd5b50604051620066b3380380620066b38339818101604052810190620000f791906200085b565b739ddfaca8183c41ad55329bdeed9f6a8d53168b1b6040518060400160405280600c81526020017f5a6f6465636b20436172647300000000000000000000000000000000000000008152506040518060400160405280600381526020017f5a444b0000000000000000000000000000000000000000000000000000000000815250338060008073ffffffffffffffffffffffffffffffffffffffff168273ffffffffffffffffffffffffffffffffffffffff1603620001ed576040517f08c379a0000000000000000000000000000000000000000000000000000000008152600401620001e490620008ee565b60405180910390fd5b816000806101000a81548173ffffffffffffffffffffffffffffffffffffffff021916908373ffffffffffffffffffffffffffffffffffffffff160217905550600073ffffffffffffffffffffffffffffffffffffffff168173ffffffffffffffffffffffffffffffffffffffff1614620002745762000273816200039560201b60201c565b5b50505081600290816200028891906200073e565b5080600390816200029a91906200073e565b505050600073ffffffffffffffffffffffffffffffffffffffff168173ffffffffffffffffffffffffffffffffffffffff160362000304576040517fd92e233d00000000000000000000000000000000000000000000000000000000815260040160405180910390fd5b80600960006101000a81548173ffffffffffffffffffffffffffffffffffffffff021916908373ffffffffffffffffffffffffffffffffffffffff1602179055505033600d60006101000a81548173ffffffffffffffffffffffffffffffffffffffff021916908373ffffffffffffffffffffffffffffffffffffffff160217905550806015819055505062000982565b3373ffffffffffffffffffffffffffffffffffffffff168173ffffffffffffffffffffffffffffffffffffffff160362000406576040517f08c379a0000000000000000000000000000000000000000000000000000000008152600401620003fd9062000960565b60405180910390fd5b80600160006101000a81548173ffffffffffffffffffffffffffffffffffffffff021916908373ffffffffffffffffffffffffffffffffffffffff1602179055508073ffffffffffffffffffffffffffffffffffffffff1660008054906101000a900473ffffffffffffffffffffffffffffffffffffffff1673ffffffffffffffffffffffffffffffffffffffff167fed8889f560326eb138920d842192f0eb3dd22b4f139c87a2c57538e05bae127860405160405180910390a350565b600081519050919050565b7f4e487b7100000000000000000000000000000000000000000000000000000000600052604160045260246000fd5b7f4e487b7100000000000000000000000000000000000000000000000000000000600052602260045260246000fd5b600060028204905060018216806200054657607f821691505b6020821081036200055c576200055b620004fe565b5b50919050565b60008190508160005260206000209050919050565b60006020601f8301049050919050565b600082821b905092915050565b600060088302620005c67fffffffffffffffffffffffffffffffffffffffffffffffffffffffffffffffff8262000587565b620005d2868362000587565b95508019841693508086168417925050509392505050565b6000819050919050565b6000819050919050565b60006200061f620006196200061384620005ea565b620005f4565b620005ea565b9050919050565b6000819050919050565b6200063b83620005fe565b620006536200064a8262000626565b84845462000594565b825550505050565b600090565b6200066a6200065b565b6200067781848462000630565b505050565b5b818110156200069f576200069360008262000660565b6001810190506200067d565b5050565b601f821115620006ee57620006b88162000562565b620006c38462000577565b81016020851015620006d3578190505b620006eb620006e28562000577565b8301826200067c565b50505b505050565b600082821c905092915050565b60006200071360001984600802620006f3565b1980831691505092915050565b60006200072e838362000700565b9150826002028217905092915050565b6200074982620004c4565b67ffffffffffffffff811115620007655762000764620004cf565b5b6200077182546200052d565b6200077e828285620006a3565b600060209050601f831160018114620007b65760008415620007a1578287015190505b620007ad858262000720565b8655506200081d565b601f198416620007c68662000562565b60005b82811015620007f057848901518255600182019150602085019450602081019050620007c9565b868310156200081057848901516200080c601f89168262000700565b8355505b6001600288020188555050505b505050505050565b600080fd5b6200083581620005ea565b81146200084157600080fd5b50565b60008151905062000855816200082a565b92915050565b60006020828403121562000874576200087362000825565b5b6000620008848482850162000844565b91505092915050565b600082825260208201905092915050565b7f43616e6e6f7420736574206f776e657220746f207a65726f0000000000000000600082015250565b6000620008d66018836200088d565b9150620008e3826200089e565b602082019050919050565b600060208201905081810360008301526200090981620008c7565b9050919050565b7f43616e6e6f74207472616e7366657220746f2073656c66000000000000000000600082015250565b6000620009486017836200088d565b9150620009558262000910565b602082019050919050565b600060208201905081810360008301526200097b8162000939565b9050919050565b615cad80620009926000396000f3fe6080604052600436106102725760003560e01c80637ccfd7fc1161014f578063a54447aa116100c1578063e0c862891161007a578063e0c862891461099c578063e985e9c5146109c7578063ed36c52f14610a04578063f2fde38b14610a20578063f6eaffc814610a49578063fc2a88c314610a8657610272565b8063a54447aa14610874578063b0fb162f14610890578063b88d4fde146108bb578063c1077632146108e4578063c87b56dd14610921578063d8a4676f1461095e57610272565b80638ea98117116101135780638ea981171461075e57806395d89b41146107875780639eccacf6146107b2578063a168fa89146107dd578063a21193771461081b578063a22cb4651461084b57610272565b80637ccfd7fc146106775780638467be0d146106a25780638796ba8c146106cb5780638ac00021146107085780638da5cb5b1461073357610272565b806342842e0e116101e857806355f804b3116101ac57806355f804b3146105675780636352211e146105905780636c0360eb146105cd57806370a08231146105f857806375794a3c1461063557806379ba50971461066057610272565b806342842e0e14610480578063434a49a1146104a9578063442890d5146104e657806345bb327b1461051157806345f8fa801461053c57610272565b806312e855851161023a57806312e85585146103705780631fe543e31461039b578063202e3740146103c457806323b872dd146103ef57806324f74697146104185780632e602d291461044357610272565b806301ffc9a71461027757806306fdde03146102b457806307c11e0d146102df578063081812fc1461030a578063095ea7b314610347575b600080fd5b34801561028357600080fd5b5061029e600480360381019061029991906142e4565b610ab1565b6040516102ab919061432c565b60405180910390f35b3480156102c057600080fd5b506102c9610b12565b6040516102d691906143d7565b60405180910390f35b3480156102eb57600080fd5b506102f4610ba4565b6040516103019190614579565b60405180910390f35b34801561031657600080fd5b50610331600480360381019061032c91906145c7565b610deb565b60405161033e9190614615565b60405180910390f35b34801561035357600080fd5b5061036e6004803603810190610369919061465c565b610e07565b005b34801561037c57600080fd5b50610385610e1d565b60405161039291906146ab565b60405180910390f35b3480156103a757600080fd5b506103c260048036038101906103bd919061472b565b610e27565b005b3480156103d057600080fd5b506103d9610eed565b6040516103e69190614579565b60405180910390f35b3480156103fb57600080fd5b506104166004803603810190610411919061478b565b6111e0565b005b34801561042457600080fd5b5061042d6112e2565b60405161043a91906147fd565b60405180910390f35b34801561044f57600080fd5b5061046a600480360381019061046591906145c7565b6112f8565b6040516104779190614615565b60405180910390f35b34801561048c57600080fd5b506104a760048036038101906104a2919061478b565b61132b565b005b3480156104b557600080fd5b506104d060048036038101906104cb9190614818565b61134b565b6040516104dd91906148f4565b60405180910390f35b3480156104f257600080fd5b506104fb6113e2565b6040516105089190614615565b60405180910390f35b34801561051d57600080fd5b5061052661140c565b604051610533919061492f565b60405180910390f35b34801561054857600080fd5b50610551611412565b60405161055e9190614579565b60405180910390f35b34801561057357600080fd5b5061058e60048036038101906105899190614a7a565b611705565b005b34801561059c57600080fd5b506105b760048036038101906105b291906145c7565b611720565b6040516105c49190614615565b60405180910390f35b3480156105d957600080fd5b506105e2611732565b6040516105ef91906143d7565b60405180910390f35b34801561060457600080fd5b5061061f600480360381019061061a9190614818565b6117c0565b60405161062c91906146ab565b60405180910390f35b34801561064157600080fd5b5061064a61187a565b60405161065791906146ab565b60405180910390f35b34801561066c57600080fd5b50610675611880565b005b34801561068357600080fd5b5061068c611a15565b60405161069991906147fd565b60405180910390f35b3480156106ae57600080fd5b506106c960048036038101906106c491906145c7565b611a2b565b005b3480156106d757600080fd5b506106f260048036038101906106ed91906145c7565b611d41565b6040516106ff91906146ab565b60405180910390f35b34801561071457600080fd5b5061071d611d65565b60405161072a91906146ab565b60405180910390f35b34801561073f57600080fd5b50610748611d6b565b6040516107559190614615565b60405180910390f35b34801561076a57600080fd5b5061078560048036038101906107809190614818565b611d94565b005b34801561079357600080fd5b5061079c611f75565b6040516107a991906143d7565b60405180910390f35b3480156107be57600080fd5b506107c7612007565b6040516107d49190614b22565b60405180910390f35b3480156107e957600080fd5b5061080460048036038101906107ff91906145c7565b61202d565b604051610812929190614b3d565b60405180910390f35b61083560048036038101906108309190614b66565b61206b565b60405161084291906146ab565b60405180910390f35b34801561085757600080fd5b50610872600480360381019061086d9190614bee565b6121de565b005b61088e600480360381019061088991906145c7565b6121f4565b005b34801561089c57600080fd5b506108a56123e6565b6040516108b29190614c4b565b60405180910390f35b3480156108c757600080fd5b506108e260048036038101906108dd9190614d07565b6123fa565b005b3480156108f057600080fd5b5061090b60048036038101906109069190614d8a565b61241f565b60405161091891906146ab565b60405180910390f35b34801561092d57600080fd5b50610948600480360381019061094391906145c7565b612450565b60405161095591906143d7565b60405180910390f35b34801561096a57600080fd5b50610985600480360381019061098091906145c7565b612563565b604051610993929190614dca565b60405180910390f35b3480156109a857600080fd5b506109b161268e565b6040516109be91906146ab565b60405180910390f35b3480156109d357600080fd5b506109ee60048036038101906109e99190614dfa565b612960565b6040516109fb919061432c565b60405180910390f35b610a1e6004803603810190610a199190614d8a565b6129f4565b005b348015610a2c57600080fd5b50610a476004803603810190610a429190614818565b612a02565b005b348015610a5557600080fd5b50610a706004803603810190610a6b91906145c7565b612a16565b604051610a7d91906146ab565b60405180910390f35b348015610a9257600080fd5b50610a9b612a3a565b604051610aa891906146ab565b60405180910390f35b6000634906490660e01b7bffffffffffffffffffffffffffffffffffffffffffffffffffffffff1916827bffffffffffffffffffffffffffffffffffffffffffffffffffffffff19161480610b0b5750610b0a82612a40565b5b9050919050565b606060028054610b2190614e69565b80601f0160208091040260200160405190810160405280929190818152602001828054610b4d90614e69565b8015610b9a5780601f10610b6f57610100808354040283529160200191610b9a565b820191906000526020600020905b815481529060010190602001808311610b7d57829003601f168201915b5050505050905090565b60606000600a549050600080600b5467ffffffffffffffff811115610bcc57610bcb61494f565b5b604051908082528060200260200182016040528015610c0557816020015b610bf2614164565b815260200190600190039081610bea5790505b50905060005b83811015610de1573073ffffffffffffffffffffffffffffffffffffffff16600e6000600184610c3b9190614ec9565b815260200190815260200160002060020160009054906101000a900473ffffffffffffffffffffffffffffffffffffffff1673ffffffffffffffffffffffffffffffffffffffff1603610dce576000600182610c979190614ec9565b90506000600e60008381526020019081526020016000209050806040518060a0016040529081600082015481526020016001820160009054906101000a900473ffffffffffffffffffffffffffffffffffffffff1673ffffffffffffffffffffffffffffffffffffffff1673ffffffffffffffffffffffffffffffffffffffff1681526020016002820160009054906101000a900473ffffffffffffffffffffffffffffffffffffffff1673ffffffffffffffffffffffffffffffffffffffff1673ffffffffffffffffffffffffffffffffffffffff168152602001600382015481526020016004820160009054906101000a900460ff161515151581525050848681518110610daa57610da9614efd565b5b6020026020010181905250610dc9600186612b2290919063ffffffff16565b945050505b8080610dd990614f2c565b915050610c0b565b5080935050505090565b6000610df682612b4e565b50610e0082612bd6565b9050919050565b610e198282610e14612c13565b612c1b565b5050565b6000600c54905090565b600960009054906101000a900473ffffffffffffffffffffffffffffffffffffffff1673ffffffffffffffffffffffffffffffffffffffff163373ffffffffffffffffffffffffffffffffffffffff1614610edd5733600960009054906101000a900473ffffffffffffffffffffffffffffffffffffffff166040517f1cf993f4000000000000000000000000000000000000000000000000000000008152600401610ed4929190614f74565b60405180910390fd5b610ee8838383612c2d565b505050565b60606000600a54905060008060005b83811015610fa3573373ffffffffffffffffffffffffffffffffffffffff16600e6000600184610f2c9190614ec9565b815260200190815260200160002060020160009054906101000a900473ffffffffffffffffffffffffffffffffffffffff1673ffffffffffffffffffffffffffffffffffffffff1603610f9057610f8d600184612b2290919063ffffffff16565b92505b8080610f9b90614f2c565b915050610efc565b5060008267ffffffffffffffff811115610fc057610fbf61494f565b5b604051908082528060200260200182016040528015610ff957816020015b610fe6614164565b815260200190600190039081610fde5790505b50905060005b848110156111d5573373ffffffffffffffffffffffffffffffffffffffff16600e600060018461102f9190614ec9565b815260200190815260200160002060020160009054906101000a900473ffffffffffffffffffffffffffffffffffffffff1673ffffffffffffffffffffffffffffffffffffffff16036111c257600060018261108b9190614ec9565b90506000600e60008381526020019081526020016000209050806040518060a0016040529081600082015481526020016001820160009054906101000a900473ffffffffffffffffffffffffffffffffffffffff1673ffffffffffffffffffffffffffffffffffffffff1673ffffffffffffffffffffffffffffffffffffffff1681526020016002820160009054906101000a900473ffffffffffffffffffffffffffffffffffffffff1673ffffffffffffffffffffffffffffffffffffffff1673ffffffffffffffffffffffffffffffffffffffff168152602001600382015481526020016004820160009054906101000a900460ff16151515158152505084868151811061119e5761119d614efd565b5b60200260200101819052506111bd600186612b2290919063ffffffff16565b945050505b80806111cd90614f2c565b915050610fff565b508094505050505090565b600073ffffffffffffffffffffffffffffffffffffffff168273ffffffffffffffffffffffffffffffffffffffff16036112525760006040517f64a0ae920000000000000000000000000000000000000000000000000000000081526004016112499190614615565b60405180910390fd5b60006112668383611261612c13565b612d20565b90508373ffffffffffffffffffffffffffffffffffffffff168173ffffffffffffffffffffffffffffffffffffffff16146112dc578382826040517f64283d7b0000000000000000000000000000000000000000000000000000000081526004016112d393929190614f9d565b60405180910390fd5b50505050565b601760009054906101000a900463ffffffff1681565b60196020528060005260406000206000915054906101000a900473ffffffffffffffffffffffffffffffffffffffff1681565b611346838383604051806020016040528060008152506123fa565b505050565b6060601c60008373ffffffffffffffffffffffffffffffffffffffff1673ffffffffffffffffffffffffffffffffffffffff1681526020019081526020016000208054806020026020016040519081016040528092919081815260200182805480156113d657602002820191906000526020600020905b8154815260200190600101908083116113c2575b50505050509050919050565b6000600d60009054906101000a900473ffffffffffffffffffffffffffffffffffffffff16905090565b60165481565b60606000600a54905060008060005b838110156114c8573373ffffffffffffffffffffffffffffffffffffffff16600e60006001846114519190614ec9565b815260200190815260200160002060010160009054906101000a900473ffffffffffffffffffffffffffffffffffffffff1673ffffffffffffffffffffffffffffffffffffffff16036114b5576114b2600184612b2290919063ffffffff16565b92505b80806114c090614f2c565b915050611421565b5060008267ffffffffffffffff8111156114e5576114e461494f565b5b60405190808252806020026020018201604052801561151e57816020015b61150b614164565b8152602001906001900390816115035790505b50905060005b848110156116fa573373ffffffffffffffffffffffffffffffffffffffff16600e60006001846115549190614ec9565b815260200190815260200160002060010160009054906101000a900473ffffffffffffffffffffffffffffffffffffffff1673ffffffffffffffffffffffffffffffffffffffff16036116e75760006001826115b09190614ec9565b90506000600e60008381526020019081526020016000209050806040518060a0016040529081600082015481526020016001820160009054906101000a900473ffffffffffffffffffffffffffffffffffffffff1673ffffffffffffffffffffffffffffffffffffffff1673ffffffffffffffffffffffffffffffffffffffff1681526020016002820160009054906101000a900473ffffffffffffffffffffffffffffffffffffffff1673ffffffffffffffffffffffffffffffffffffffff1673ffffffffffffffffffffffffffffffffffffffff168152602001600382015481526020016004820160009054906101000a900460ff1615151515815250508486815181106116c3576116c2614efd565b5b60200260200101819052506116e2600186612b2290919063ffffffff16565b945050505b80806116f290614f2c565b915050611524565b508094505050505090565b61170d612f3a565b806018908161171c9190615176565b5050565b600061172b82612b4e565b9050919050565b6018805461173f90614e69565b80601f016020809104026020016040519081016040528092919081815260200182805461176b90614e69565b80156117b85780601f1061178d576101008083540402835291602001916117b8565b820191906000526020600020905b81548152906001019060200180831161179b57829003601f168201915b505050505081565b60008073ffffffffffffffffffffffffffffffffffffffff168273ffffffffffffffffffffffffffffffffffffffff16036118335760006040517f89c62b6400000000000000000000000000000000000000000000000000000000815260040161182a9190614615565b60405180910390fd5b600560008373ffffffffffffffffffffffffffffffffffffffff1673ffffffffffffffffffffffffffffffffffffffff168152602001908152602001600020549050919050565b60135481565b600160009054906101000a900473ffffffffffffffffffffffffffffffffffffffff1673ffffffffffffffffffffffffffffffffffffffff163373ffffffffffffffffffffffffffffffffffffffff1614611910576040517f08c379a000000000000000000000000000000000000000000000000000000000815260040161190790615294565b60405180910390fd5b60008060009054906101000a900473ffffffffffffffffffffffffffffffffffffffff169050336000806101000a81548173ffffffffffffffffffffffffffffffffffffffff021916908373ffffffffffffffffffffffffffffffffffffffff1602179055506000600160006101000a81548173ffffffffffffffffffffffffffffffffffffffff021916908373ffffffffffffffffffffffffffffffffffffffff1602179055503373ffffffffffffffffffffffffffffffffffffffff168173ffffffffffffffffffffffffffffffffffffffff167f8be0079c531659141344cd1fd0a4f28419497f9722a3daafe3b4186f6b6457e060405160405180910390a350565b601760069054906101000a900463ffffffff1681565b600080611a3783612563565b9150915081611a7b576040517f08c379a0000000000000000000000000000000000000000000000000000000008152600401611a7290615300565b60405180910390fd5b600a815114611abf576040517f08c379a0000000000000000000000000000000000000000000000000000000008152600401611ab69061536c565b60405180910390fd5b60006019600085815260200190815260200160002060009054906101000a900473ffffffffffffffffffffffffffffffffffffffff169050600073ffffffffffffffffffffffffffffffffffffffff168173ffffffffffffffffffffffffffffffffffffffff1603611b66576040517f08c379a0000000000000000000000000000000000000000000000000000000008152600401611b5d906153d8565b60405180910390fd5b6000825167ffffffffffffffff811115611b8357611b8261494f565b5b604051908082528060200260200182016040528015611bb15781602001602082028036833780820191505090505b50905060005b8351811015611c995760006014858381518110611bd757611bd6614efd565b5b6020026020010151611be99190615427565b905060006018611bf883612fca565b604051602001611c099291906155af565b60405160208183030381529060405290506000611c26828761206b565b905080858581518110611c3c57611c3b614efd565b5b6020026020010181815250507fd8734743ed0c1c7547379b55d892e5cea71bc5371832ffa4149a506fbc1aa6d0818784604051611c7b939291906155e9565b60405180910390a15050508080611c9190614f2c565b915050611bb7565b5060005b8151811015611d3957601c60008473ffffffffffffffffffffffffffffffffffffffff1673ffffffffffffffffffffffffffffffffffffffff168152602001908152602001600020828281518110611cf857611cf7614efd565b5b602002602001015190806001815401808255809150506001900390600052602060002001600090919091909150558080611d3190614f2c565b915050611c9d565b505050505050565b60108181548110611d5157600080fd5b906000526020600020016000915090505481565b60155481565b60008060009054906101000a900473ffffffffffffffffffffffffffffffffffffffff16905090565b611d9c611d6b565b73ffffffffffffffffffffffffffffffffffffffff163373ffffffffffffffffffffffffffffffffffffffff1614158015611e255750600960009054906101000a900473ffffffffffffffffffffffffffffffffffffffff1673ffffffffffffffffffffffffffffffffffffffff163373ffffffffffffffffffffffffffffffffffffffff1614155b15611e945733611e33611d6b565b600960009054906101000a900473ffffffffffffffffffffffffffffffffffffffff166040517f061db9c1000000000000000000000000000000000000000000000000000000008152600401611e8b93929190615627565b60405180910390fd5b600073ffffffffffffffffffffffffffffffffffffffff168173ffffffffffffffffffffffffffffffffffffffff1603611efa576040517fd92e233d00000000000000000000000000000000000000000000000000000000815260040160405180910390fd5b80600960006101000a81548173ffffffffffffffffffffffffffffffffffffffff021916908373ffffffffffffffffffffffffffffffffffffffff1602179055507fd1a6a14209a385a964d036e404cb5cfb71f4000cdb03c9366292430787261be681604051611f6a9190614615565b60405180910390a150565b606060038054611f8490614e69565b80601f0160208091040260200160405190810160405280929190818152602001828054611fb090614e69565b8015611ffd5780601f10611fd257610100808354040283529160200191611ffd565b820191906000526020600020905b815481529060010190602001808311611fe057829003601f168201915b5050505050905090565b600960009054906101000a900473ffffffffffffffffffffffffffffffffffffffff1681565b60146020528060005260406000206000915090508060000160009054906101000a900460ff16908060000160019054906101000a900460ff16905082565b60006120836001600a54612b2290919063ffffffff16565b600a819055506000600a54905061209a838261312a565b6120a48185613223565b6040518060a00160405280828152602001600073ffffffffffffffffffffffffffffffffffffffff1681526020018473ffffffffffffffffffffffffffffffffffffffff1681526020016000815260200160011515815250600e60008381526020019081526020016000206000820151816000015560208201518160010160006101000a81548173ffffffffffffffffffffffffffffffffffffffff021916908373ffffffffffffffffffffffffffffffffffffffff16021790555060408201518160020160006101000a81548173ffffffffffffffffffffffffffffffffffffffff021916908373ffffffffffffffffffffffffffffffffffffffff1602179055506060820151816003015560808201518160040160006101000a81548160ff0219169083151502179055509050508091505092915050565b6121f06121e9612c13565b838361327f565b5050565b6000600e600083815260200190815260200160002060010160009054906101000a900473ffffffffffffffffffffffffffffffffffffffff16905033600e600084815260200190815260200160002060020160006101000a81548173ffffffffffffffffffffffffffffffffffffffff021916908373ffffffffffffffffffffffffffffffffffffffff1602179055506001600e600084815260200190815260200160002060040160006101000a81548160ff0219169083151502179055506000600e600084815260200190815260200160002060010160006101000a81548173ffffffffffffffffffffffffffffffffffffffff021916908373ffffffffffffffffffffffffffffffffffffffff16021790555061231f6001600b546133ee90919063ffffffff16565b600b81905550612330303384613415565b600d60009054906101000a900473ffffffffffffffffffffffffffffffffffffffff1673ffffffffffffffffffffffffffffffffffffffff166108fc600c549081150290604051600060405180830381858888f1935050505015801561239a573d6000803e3d6000fd5b508073ffffffffffffffffffffffffffffffffffffffff166108fc349081150290604051600060405180830381858888f193505050501580156123e1573d6000803e3d6000fd5b505050565b601760049054906101000a900461ffff1681565b6124058484846111e0565b612419612410612c13565b85858585613582565b50505050565b601a602052816000526040600020818154811061243b57600080fd5b90600052602060002001600091509150505481565b606061245b82612b4e565b50600060086000848152602001908152602001600020805461247c90614e69565b80601f01602080910402602001604051908101604052809291908181526020018280546124a890614e69565b80156124f55780601f106124ca576101008083540402835291602001916124f5565b820191906000526020600020905b8154815290600101906020018083116124d857829003601f168201915b505050505090506000612506613733565b9050600081510361251b57819250505061255e565b60008251111561255057808260405160200161253892919061565e565b6040516020818303038152906040529250505061255e565b6125598461374a565b925050505b919050565b600060606014600084815260200190815260200160002060000160019054906101000a900460ff166125ca576040517f08c379a00000000000000000000000000000000000000000000000000000000081526004016125c1906156ce565b60405180910390fd5b6000601460008581526020019081526020016000206040518060600160405290816000820160009054906101000a900460ff161515151581526020016000820160019054906101000a900460ff161515151581526020016001820180548060200260200160405190810160405280929190818152602001828054801561266f57602002820191906000526020600020905b81548152602001906001019080831161265b575b5050505050815250509050806000015181604001519250925050915091565b6000612698612f3a565b600960009054906101000a900473ffffffffffffffffffffffffffffffffffffffff1673ffffffffffffffffffffffffffffffffffffffff16639b1c385e6040518060c0016040528060165481526020016015548152602001601760049054906101000a900461ffff1661ffff168152602001601760009054906101000a900463ffffffff1663ffffffff168152602001601760069054906101000a900463ffffffff1663ffffffff1681526020016127616040518060200160405280600015158152506137b3565b8152506040518263ffffffff1660e01b815260040161278091906157f9565b6020604051808303816000875af115801561279f573d6000803e3d6000fd5b505050506040513d601f19601f820116820180604052508101906127c39190615830565b90506040518060600160405280600015158152602001600115158152602001600067ffffffffffffffff8111156127fd576127fc61494f565b5b60405190808252806020026020018201604052801561282b5781602001602082028036833780820191505090505b508152506014600083815260200190815260200160002060008201518160000160006101000a81548160ff02191690831515021790555060208201518160000160016101000a81548160ff021916908315150217905550604082015181600101908051906020019061289e9291906141c1565b50905050601081908060018154018082558091505060019003906000526020600020016000909190919091505580601281905550336019600083815260200190815260200160002060006101000a81548173ffffffffffffffffffffffffffffffffffffffff021916908373ffffffffffffffffffffffffffffffffffffffff1602179055507f28f521cf7abd0044cba5bb040c5217ff69a4e5865f5262905018698e68fe7d00813360405161295592919061585d565b60405180910390a190565b6000600760008473ffffffffffffffffffffffffffffffffffffffff1673ffffffffffffffffffffffffffffffffffffffff16815260200190815260200160002060008373ffffffffffffffffffffffffffffffffffffffff1673ffffffffffffffffffffffffffffffffffffffff16815260200190815260200160002060009054906101000a900460ff16905092915050565b6129fe828261384b565b5050565b612a0a612f3a565b612a1381613a26565b50565b60118181548110612a2657600080fd5b906000526020600020016000915090505481565b60125481565b60007f80ac58cd000000000000000000000000000000000000000000000000000000007bffffffffffffffffffffffffffffffffffffffffffffffffffffffff1916827bffffffffffffffffffffffffffffffffffffffffffffffffffffffff19161480612b0b57507f5b5e139f000000000000000000000000000000000000000000000000000000007bffffffffffffffffffffffffffffffffffffffffffffffffffffffff1916827bffffffffffffffffffffffffffffffffffffffffffffffffffffffff1916145b80612b1b5750612b1a82613b52565b5b9050919050565b6000808284612b319190614ec9565b905083811015612b4457612b43615886565b5b8091505092915050565b600080612b5a83613bbc565b9050600073ffffffffffffffffffffffffffffffffffffffff168173ffffffffffffffffffffffffffffffffffffffff1603612bcd57826040517f7e273289000000000000000000000000000000000000000000000000000000008152600401612bc491906146ab565b60405180910390fd5b80915050919050565b60006006600083815260200190815260200160002060009054906101000a900473ffffffffffffffffffffffffffffffffffffffff169050919050565b600033905090565b612c288383836001613bf9565b505050565b818160119190612c3e92919061420e565b5060108390806001815401808255809150506001900390600052602060002001600090919091909150558181601a60008681526020019081526020016000209190612c8a92919061420e565b5060016014600085815260200190815260200160002060000160006101000a81548160ff0219169083151502179055508181601460008681526020019081526020016000206001019190612cdf92919061420e565b507f67578974dcd1e9cdb0ebe63163f817c9866d397c48bc125393551f78f33b515f838383604051612d139392919061591f565b60405180910390a1505050565b600080612d2c84613bbc565b9050600073ffffffffffffffffffffffffffffffffffffffff168373ffffffffffffffffffffffffffffffffffffffff1614612d6e57612d6d818486613dbe565b5b600073ffffffffffffffffffffffffffffffffffffffff168173ffffffffffffffffffffffffffffffffffffffff1614612dff57612db0600085600080613bf9565b6001600560008373ffffffffffffffffffffffffffffffffffffffff1673ffffffffffffffffffffffffffffffffffffffff168152602001908152602001600020600082825403925050819055505b600073ffffffffffffffffffffffffffffffffffffffff168573ffffffffffffffffffffffffffffffffffffffff1614612e82576001600560008773ffffffffffffffffffffffffffffffffffffffff1673ffffffffffffffffffffffffffffffffffffffff168152602001908152602001600020600082825401925050819055505b846004600086815260200190815260200160002060006101000a81548173ffffffffffffffffffffffffffffffffffffffff021916908373ffffffffffffffffffffffffffffffffffffffff160217905550838573ffffffffffffffffffffffffffffffffffffffff168273ffffffffffffffffffffffffffffffffffffffff167fddf252ad1be2c89b69c2b068fc378daa952ba7f163c4a11628f55a4df523b3ef60405160405180910390a4809150509392505050565b60008054906101000a900473ffffffffffffffffffffffffffffffffffffffff1673ffffffffffffffffffffffffffffffffffffffff163373ffffffffffffffffffffffffffffffffffffffff1614612fc8576040517f08c379a0000000000000000000000000000000000000000000000000000000008152600401612fbf9061599d565b60405180910390fd5b565b606060008203613011576040518060400160405280600181526020017f30000000000000000000000000000000000000000000000000000000000000008152509050613125565b600082905060005b6000821461304357808061302c90614f2c565b915050600a8261303c91906159bd565b9150613019565b60008167ffffffffffffffff81111561305f5761305e61494f565b5b6040519080825280601f01601f1916602001820160405280156130915781602001600182028036833780820191505090505b5090505b6000851461311e576001826130aa91906159ee565b9150600a856130b99190615427565b60306130c59190614ec9565b60f81b8183815181106130db576130da614efd565b5b60200101907effffffffffffffffffffffffffffffffffffffffffffffffffffffffffffff1916908160001a905350600a8561311791906159bd565b9450613095565b8093505050505b919050565b600073ffffffffffffffffffffffffffffffffffffffff168273ffffffffffffffffffffffffffffffffffffffff160361319c5760006040517f64a0ae920000000000000000000000000000000000000000000000000000000081526004016131939190614615565b60405180910390fd5b60006131aa83836000612d20565b9050600073ffffffffffffffffffffffffffffffffffffffff168173ffffffffffffffffffffffffffffffffffffffff161461321e5760006040517f73c6ac6e0000000000000000000000000000000000000000000000000000000081526004016132159190614615565b60405180910390fd5b505050565b806008600084815260200190815260200160002090816132439190615176565b507ff8e1a15aba9398e019f0b49df1a4fde98ee17ae345cb5f6b5e2c27f5033e8ce78260405161327391906146ab565b60405180910390a15050565b600073ffffffffffffffffffffffffffffffffffffffff168273ffffffffffffffffffffffffffffffffffffffff16036132f057816040517f5b08ba180000000000000000000000000000000000000000000000000000000081526004016132e79190614615565b60405180910390fd5b80600760008573ffffffffffffffffffffffffffffffffffffffff1673ffffffffffffffffffffffffffffffffffffffff16815260200190815260200160002060008473ffffffffffffffffffffffffffffffffffffffff1673ffffffffffffffffffffffffffffffffffffffff16815260200190815260200160002060006101000a81548160ff0219169083151502179055508173ffffffffffffffffffffffffffffffffffffffff168373ffffffffffffffffffffffffffffffffffffffff167f17307eab39ab6107e8899845ad3d59bd9653f200f220920489ca2b5937696c31836040516133e1919061432c565b60405180910390a3505050565b60008282111561340157613400615886565b5b818361340d91906159ee565b905092915050565b600073ffffffffffffffffffffffffffffffffffffffff168273ffffffffffffffffffffffffffffffffffffffff16036134875760006040517f64a0ae9200000000000000000000000000000000000000000000000000000000815260040161347e9190614615565b60405180910390fd5b600061349583836000612d20565b9050600073ffffffffffffffffffffffffffffffffffffffff168173ffffffffffffffffffffffffffffffffffffffff160361350857816040517f7e2732890000000000000000000000000000000000000000000000000000000081526004016134ff91906146ab565b60405180910390fd5b8373ffffffffffffffffffffffffffffffffffffffff168173ffffffffffffffffffffffffffffffffffffffff161461357c578382826040517f64283d7b00000000000000000000000000000000000000000000000000000000815260040161357393929190614f9d565b60405180910390fd5b50505050565b60008373ffffffffffffffffffffffffffffffffffffffff163b111561372c578273ffffffffffffffffffffffffffffffffffffffff1663150b7a02868685856040518563ffffffff1660e01b81526004016135e19493929190615a6c565b6020604051808303816000875af192505050801561361d57506040513d601f19601f8201168201806040525081019061361a9190615acd565b60015b6136a1573d806000811461364d576040519150601f19603f3d011682016040523d82523d6000602084013e613652565b606091505b50600081510361369957836040517f64a0ae920000000000000000000000000000000000000000000000000000000081526004016136909190614615565b60405180910390fd5b805181602001fd5b63150b7a0260e01b7bffffffffffffffffffffffffffffffffffffffffffffffffffffffff1916817bffffffffffffffffffffffffffffffffffffffffffffffffffffffff19161461372a57836040517f64a0ae920000000000000000000000000000000000000000000000000000000081526004016137219190614615565b60405180910390fd5b505b5050505050565b606060405180602001604052806000815250905090565b606061375582612b4e565b506000613760613733565b9050600081511161378057604051806020016040528060008152506137ab565b8061378a84613e82565b60405160200161379b92919061565e565b6040516020818303038152906040525b915050919050565b60607f92fd13387c7fe7befbc38d303d6468778fb9731bc4583f17d92989c6fcfdeaaa826040516024016137e79190615b16565b604051602081830303815290604052907bffffffffffffffffffffffffffffffffffffffffffffffffffffffff19166020820180517bffffffffffffffffffffffffffffffffffffffffffffffffffffffff83818316178352505050509050919050565b6000811161388e576040517f08c379a000000000000000000000000000000000000000000000000000000000815260040161388590615b7d565b60405180910390fd5b6138a46001600b54612b2290919063ffffffff16565b600b819055506040518060a001604052808381526020013373ffffffffffffffffffffffffffffffffffffffff1681526020013073ffffffffffffffffffffffffffffffffffffffff16815260200182815260200160001515815250600e60008481526020019081526020016000206000820151816000015560208201518160010160006101000a81548173ffffffffffffffffffffffffffffffffffffffff021916908373ffffffffffffffffffffffffffffffffffffffff16021790555060408201518160020160006101000a81548173ffffffffffffffffffffffffffffffffffffffff021916908373ffffffffffffffffffffffffffffffffffffffff1602179055506060820151816003015560808201518160040160006101000a81548160ff0219169083151502179055509050506139e3333084613415565b817f3cf8eaa46d9accaa9c8e76a1b58ee317d0eac0885fb7635711309f21e5a25fb93330846000604051613a1a9493929190615b9d565b60405180910390a25050565b3373ffffffffffffffffffffffffffffffffffffffff168173ffffffffffffffffffffffffffffffffffffffff1603613a94576040517f08c379a0000000000000000000000000000000000000000000000000000000008152600401613a8b90615c2e565b60405180910390fd5b80600160006101000a81548173ffffffffffffffffffffffffffffffffffffffff021916908373ffffffffffffffffffffffffffffffffffffffff1602179055508073ffffffffffffffffffffffffffffffffffffffff1660008054906101000a900473ffffffffffffffffffffffffffffffffffffffff1673ffffffffffffffffffffffffffffffffffffffff167fed8889f560326eb138920d842192f0eb3dd22b4f139c87a2c57538e05bae127860405160405180910390a350565b60007f01ffc9a7000000000000000000000000000000000000000000000000000000007bffffffffffffffffffffffffffffffffffffffffffffffffffffffff1916827bffffffffffffffffffffffffffffffffffffffffffffffffffffffff1916149050919050565b60006004600083815260200190815260200160002060009054906101000a900473ffffffffffffffffffffffffffffffffffffffff169050919050565b8080613c325750600073ffffffffffffffffffffffffffffffffffffffff168273ffffffffffffffffffffffffffffffffffffffff1614155b15613d66576000613c4284612b4e565b9050600073ffffffffffffffffffffffffffffffffffffffff168373ffffffffffffffffffffffffffffffffffffffff1614158015613cad57508273ffffffffffffffffffffffffffffffffffffffff168173ffffffffffffffffffffffffffffffffffffffff1614155b8015613cc05750613cbe8184612960565b155b15613d0257826040517fa9fbf51f000000000000000000000000000000000000000000000000000000008152600401613cf99190614615565b60405180910390fd5b8115613d6457838573ffffffffffffffffffffffffffffffffffffffff168273ffffffffffffffffffffffffffffffffffffffff167f8c5be1e5ebec7d5bd14f71427d1e84f3dd0314c0f7b2291e5b200ac8c7c3b92560405160405180910390a45b505b836006600085815260200190815260200160002060006101000a81548173ffffffffffffffffffffffffffffffffffffffff021916908373ffffffffffffffffffffffffffffffffffffffff16021790555050505050565b613dc9838383613f50565b613e7d57600073ffffffffffffffffffffffffffffffffffffffff168373ffffffffffffffffffffffffffffffffffffffff1603613e3e57806040517f7e273289000000000000000000000000000000000000000000000000000000008152600401613e3591906146ab565b60405180910390fd5b81816040517f177e802f000000000000000000000000000000000000000000000000000000008152600401613e74929190615c4e565b60405180910390fd5b505050565b606060006001613e9184614011565b01905060008167ffffffffffffffff811115613eb057613eaf61494f565b5b6040519080825280601f01601f191660200182016040528015613ee25781602001600182028036833780820191505090505b509050600082602001820190505b600115613f45578080600190039150507f3031323334353637383961626364656600000000000000000000000000000000600a86061a8153600a8581613f3957613f386153f8565b5b04945060008503613ef0575b819350505050919050565b60008073ffffffffffffffffffffffffffffffffffffffff168373ffffffffffffffffffffffffffffffffffffffff161415801561400857508273ffffffffffffffffffffffffffffffffffffffff168473ffffffffffffffffffffffffffffffffffffffff161480613fc95750613fc88484612960565b5b8061400757508273ffffffffffffffffffffffffffffffffffffffff16613fef83612bd6565b73ffffffffffffffffffffffffffffffffffffffff16145b5b90509392505050565b600080600090507a184f03e93ff9f4daa797ed6e38ed64bf6a1f010000000000000000831061406f577a184f03e93ff9f4daa797ed6e38ed64bf6a1f0100000000000000008381614065576140646153f8565b5b0492506040810190505b6d04ee2d6d415b85acef810000000083106140ac576d04ee2d6d415b85acef810000000083816140a2576140a16153f8565b5b0492506020810190505b662386f26fc1000083106140db57662386f26fc1000083816140d1576140d06153f8565b5b0492506010810190505b6305f5e1008310614104576305f5e10083816140fa576140f96153f8565b5b0492506008810190505b612710831061412957612710838161411f5761411e6153f8565b5b0492506004810190505b6064831061414c5760648381614142576141416153f8565b5b0492506002810190505b600a831061415b576001810190505b80915050919050565b6040518060a0016040528060008152602001600073ffffffffffffffffffffffffffffffffffffffff168152602001600073ffffffffffffffffffffffffffffffffffffffff168152602001600081526020016000151581525090565b8280548282559060005260206000209081019282156141fd579160200282015b828111156141fc5782518255916020019190600101906141e1565b5b50905061420a919061425b565b5090565b82805482825590600052602060002090810192821561424a579160200282015b8281111561424957823582559160200191906001019061422e565b5b509050614257919061425b565b5090565b5b8082111561427457600081600090555060010161425c565b5090565b6000604051905090565b600080fd5b600080fd5b60007fffffffff0000000000000000000000000000000000000000000000000000000082169050919050565b6142c18161428c565b81146142cc57600080fd5b50565b6000813590506142de816142b8565b92915050565b6000602082840312156142fa576142f9614282565b5b6000614308848285016142cf565b91505092915050565b60008115159050919050565b61432681614311565b82525050565b6000602082019050614341600083018461431d565b92915050565b600081519050919050565b600082825260208201905092915050565b60005b83811015614381578082015181840152602081019050614366565b60008484015250505050565b6000601f19601f8301169050919050565b60006143a982614347565b6143b38185614352565b93506143c3818560208601614363565b6143cc8161438d565b840191505092915050565b600060208201905081810360008301526143f1818461439e565b905092915050565b600081519050919050565b600082825260208201905092915050565b6000819050602082019050919050565b6000819050919050565b61443881614425565b82525050565b600073ffffffffffffffffffffffffffffffffffffffff82169050919050565b60006144698261443e565b9050919050565b6144798161445e565b82525050565b61448881614311565b82525050565b60a0820160008201516144a4600085018261442f565b5060208201516144b76020850182614470565b5060408201516144ca6040850182614470565b5060608201516144dd606085018261442f565b5060808201516144f0608085018261447f565b50505050565b6000614502838361448e565b60a08301905092915050565b6000602082019050919050565b6000614526826143f9565b6145308185614404565b935061453b83614415565b8060005b8381101561456c57815161455388826144f6565b975061455e8361450e565b92505060018101905061453f565b5085935050505092915050565b60006020820190508181036000830152614593818461451b565b905092915050565b6145a481614425565b81146145af57600080fd5b50565b6000813590506145c18161459b565b92915050565b6000602082840312156145dd576145dc614282565b5b60006145eb848285016145b2565b91505092915050565b60006145ff8261443e565b9050919050565b61460f816145f4565b82525050565b600060208201905061462a6000830184614606565b92915050565b614639816145f4565b811461464457600080fd5b50565b60008135905061465681614630565b92915050565b6000806040838503121561467357614672614282565b5b600061468185828601614647565b9250506020614692858286016145b2565b9150509250929050565b6146a581614425565b82525050565b60006020820190506146c0600083018461469c565b92915050565b600080fd5b600080fd5b600080fd5b60008083601f8401126146eb576146ea6146c6565b5b8235905067ffffffffffffffff811115614708576147076146cb565b5b602083019150836020820283011115614724576147236146d0565b5b9250929050565b60008060006040848603121561474457614743614282565b5b6000614752868287016145b2565b935050602084013567ffffffffffffffff81111561477357614772614287565b5b61477f868287016146d5565b92509250509250925092565b6000806000606084860312156147a4576147a3614282565b5b60006147b286828701614647565b93505060206147c386828701614647565b92505060406147d4868287016145b2565b9150509250925092565b600063ffffffff82169050919050565b6147f7816147de565b82525050565b600060208201905061481260008301846147ee565b92915050565b60006020828403121561482e5761482d614282565b5b600061483c84828501614647565b91505092915050565b600081519050919050565b600082825260208201905092915050565b6000819050602082019050919050565b600061487d838361442f565b60208301905092915050565b6000602082019050919050565b60006148a182614845565b6148ab8185614850565b93506148b683614861565b8060005b838110156148e75781516148ce8882614871565b97506148d983614889565b9250506001810190506148ba565b5085935050505092915050565b6000602082019050818103600083015261490e8184614896565b905092915050565b6000819050919050565b61492981614916565b82525050565b60006020820190506149446000830184614920565b92915050565b600080fd5b7f4e487b7100000000000000000000000000000000000000000000000000000000600052604160045260246000fd5b6149878261438d565b810181811067ffffffffffffffff821117156149a6576149a561494f565b5b80604052505050565b60006149b9614278565b90506149c5828261497e565b919050565b600067ffffffffffffffff8211156149e5576149e461494f565b5b6149ee8261438d565b9050602081019050919050565b82818337600083830152505050565b6000614a1d614a18846149ca565b6149af565b905082815260208101848484011115614a3957614a3861494a565b5b614a448482856149fb565b509392505050565b600082601f830112614a6157614a606146c6565b5b8135614a71848260208601614a0a565b91505092915050565b600060208284031215614a9057614a8f614282565b5b600082013567ffffffffffffffff811115614aae57614aad614287565b5b614aba84828501614a4c565b91505092915050565b6000819050919050565b6000614ae8614ae3614ade8461443e565b614ac3565b61443e565b9050919050565b6000614afa82614acd565b9050919050565b6000614b0c82614aef565b9050919050565b614b1c81614b01565b82525050565b6000602082019050614b376000830184614b13565b92915050565b6000604082019050614b52600083018561431d565b614b5f602083018461431d565b9392505050565b60008060408385031215614b7d57614b7c614282565b5b600083013567ffffffffffffffff811115614b9b57614b9a614287565b5b614ba785828601614a4c565b9250506020614bb885828601614647565b9150509250929050565b614bcb81614311565b8114614bd657600080fd5b50565b600081359050614be881614bc2565b92915050565b60008060408385031215614c0557614c04614282565b5b6000614c1385828601614647565b9250506020614c2485828601614bd9565b9150509250929050565b600061ffff82169050919050565b614c4581614c2e565b82525050565b6000602082019050614c606000830184614c3c565b92915050565b600067ffffffffffffffff821115614c8157614c8061494f565b5b614c8a8261438d565b9050602081019050919050565b6000614caa614ca584614c66565b6149af565b905082815260208101848484011115614cc657614cc561494a565b5b614cd18482856149fb565b509392505050565b600082601f830112614cee57614ced6146c6565b5b8135614cfe848260208601614c97565b91505092915050565b60008060008060808587031215614d2157614d20614282565b5b6000614d2f87828801614647565b9450506020614d4087828801614647565b9350506040614d51878288016145b2565b925050606085013567ffffffffffffffff811115614d7257614d71614287565b5b614d7e87828801614cd9565b91505092959194509250565b60008060408385031215614da157614da0614282565b5b6000614daf858286016145b2565b9250506020614dc0858286016145b2565b9150509250929050565b6000604082019050614ddf600083018561431d565b8181036020830152614df18184614896565b90509392505050565b60008060408385031215614e1157614e10614282565b5b6000614e1f85828601614647565b9250506020614e3085828601614647565b9150509250929050565b7f4e487b7100000000000000000000000000000000000000000000000000000000600052602260045260246000fd5b60006002820490506001821680614e8157607f821691505b602082108103614e9457614e93614e3a565b5b50919050565b7f4e487b7100000000000000000000000000000000000000000000000000000000600052601160045260246000fd5b6000614ed482614425565b9150614edf83614425565b9250828201905080821115614ef757614ef6614e9a565b5b92915050565b7f4e487b7100000000000000000000000000000000000000000000000000000000600052603260045260246000fd5b6000614f3782614425565b91507fffffffffffffffffffffffffffffffffffffffffffffffffffffffffffffffff8203614f6957614f68614e9a565b5b600182019050919050565b6000604082019050614f896000830185614606565b614f966020830184614606565b9392505050565b6000606082019050614fb26000830186614606565b614fbf602083018561469c565b614fcc6040830184614606565b949350505050565b60008190508160005260206000209050919050565b60006020601f8301049050919050565b600082821b905092915050565b6000600883026150367fffffffffffffffffffffffffffffffffffffffffffffffffffffffffffffffff82614ff9565b6150408683614ff9565b95508019841693508086168417925050509392505050565b600061507361506e61506984614425565b614ac3565b614425565b9050919050565b6000819050919050565b61508d83615058565b6150a16150998261507a565b848454615006565b825550505050565b600090565b6150b66150a9565b6150c1818484615084565b505050565b5b818110156150e5576150da6000826150ae565b6001810190506150c7565b5050565b601f82111561512a576150fb81614fd4565b61510484614fe9565b81016020851015615113578190505b61512761511f85614fe9565b8301826150c6565b50505b505050565b600082821c905092915050565b600061514d6000198460080261512f565b1980831691505092915050565b6000615166838361513c565b9150826002028217905092915050565b61517f82614347565b67ffffffffffffffff8111156151985761519761494f565b5b6151a28254614e69565b6151ad8282856150e9565b600060209050601f8311600181146151e057600084156151ce578287015190505b6151d8858261515a565b865550615240565b601f1984166151ee86614fd4565b60005b82811015615216578489015182556001820191506020850194506020810190506151f1565b86831015615233578489015161522f601f89168261513c565b8355505b6001600288020188555050505b505050505050565b7f4d7573742062652070726f706f736564206f776e657200000000000000000000600082015250565b600061527e601683614352565b915061528982615248565b602082019050919050565b600060208201905081810360008301526152ad81615271565b9050919050565b7f52657175657374206e6f7420667566696c6c6564000000000000000000000000600082015250565b60006152ea601483614352565b91506152f5826152b4565b602082019050919050565b60006020820190508181036000830152615319816152dd565b9050919050565b7f45787065637465642031302072616e646f6d206e756d62657273000000000000600082015250565b6000615356601a83614352565b915061536182615320565b602082019050919050565b6000602082019050818103600083015261538581615349565b9050919050565b7f526563697069656e74206164647265737320697320696e76616c696400000000600082015250565b60006153c2601c83614352565b91506153cd8261538c565b602082019050919050565b600060208201905081810360008301526153f1816153b5565b9050919050565b7f4e487b7100000000000000000000000000000000000000000000000000000000600052601260045260246000fd5b600061543282614425565b915061543d83614425565b92508261544d5761544c6153f8565b5b828206905092915050565b600081905092915050565b6000815461547081614e69565b61547a8186615458565b9450600182166000811461549557600181146154aa576154dd565b60ff19831686528115158202860193506154dd565b6154b385614fd4565b60005b838110156154d5578154818901526001820191506020810190506154b6565b838801955050505b50505092915050565b7f4361726420000000000000000000000000000000000000000000000000000000600082015250565b600061551c600583615458565b9150615527826154e6565b600582019050919050565b600061553d82614347565b6155478185615458565b9350615557818560208601614363565b80840191505092915050565b7f2e706e6700000000000000000000000000000000000000000000000000000000600082015250565b6000615599600483615458565b91506155a482615563565b600482019050919050565b60006155bb8285615463565b91506155c68261550f565b91506155d28284615532565b91506155dd8261558c565b91508190509392505050565b60006060820190506155fe600083018661469c565b61560b6020830185614606565b818103604083015261561d818461439e565b9050949350505050565b600060608201905061563c6000830186614606565b6156496020830185614606565b6156566040830184614606565b949350505050565b600061566a8285615532565b91506156768284615532565b91508190509392505050565b7f72657175657374206e6f7420666f756e64000000000000000000000000000000600082015250565b60006156b8601183614352565b91506156c382615682565b602082019050919050565b600060208201905081810360008301526156e7816156ab565b9050919050565b6156f781614916565b82525050565b61570681614c2e565b82525050565b615715816147de565b82525050565b600081519050919050565b600082825260208201905092915050565b60006157428261571b565b61574c8185615726565b935061575c818560208601614363565b6157658161438d565b840191505092915050565b600060c08301600083015161578860008601826156ee565b50602083015161579b602086018261442f565b5060408301516157ae60408601826156fd565b5060608301516157c1606086018261570c565b5060808301516157d4608086018261570c565b5060a083015184820360a08601526157ec8282615737565b9150508091505092915050565b600060208201905081810360008301526158138184615770565b905092915050565b60008151905061582a8161459b565b92915050565b60006020828403121561584657615845614282565b5b60006158548482850161581b565b91505092915050565b6000604082019050615872600083018561469c565b61587f6020830184614606565b9392505050565b7f4e487b7100000000000000000000000000000000000000000000000000000000600052600160045260246000fd5b600080fd5b82818337505050565b60006158cf8385614850565b93507f07ffffffffffffffffffffffffffffffffffffffffffffffffffffffffffffff831115615902576159016158b5565b5b6020830292506159138385846158ba565b82840190509392505050565b6000604082019050615934600083018661469c565b81810360208301526159478184866158c3565b9050949350505050565b7f4f6e6c792063616c6c61626c65206279206f776e657200000000000000000000600082015250565b6000615987601683614352565b915061599282615951565b602082019050919050565b600060208201905081810360008301526159b68161597a565b9050919050565b60006159c882614425565b91506159d383614425565b9250826159e3576159e26153f8565b5b828204905092915050565b60006159f982614425565b9150615a0483614425565b9250828203905081811115615a1c57615a1b614e9a565b5b92915050565b600082825260208201905092915050565b6000615a3e8261571b565b615a488185615a22565b9350615a58818560208601614363565b615a618161438d565b840191505092915050565b6000608082019050615a816000830187614606565b615a8e6020830186614606565b615a9b604083018561469c565b8181036060830152615aad8184615a33565b905095945050505050565b600081519050615ac7816142b8565b92915050565b600060208284031215615ae357615ae2614282565b5b6000615af184828501615ab8565b91505092915050565b602082016000820151615b10600085018261447f565b50505050565b6000602082019050615b2b6000830184615afa565b92915050565b7f5072696365206d757374206265206174206c6561737420312077656900000000600082015250565b6000615b67601c83614352565b9150615b7282615b31565b602082019050919050565b60006020820190508181036000830152615b9681615b5a565b9050919050565b6000608082019050615bb26000830187614606565b615bbf6020830186614606565b615bcc604083018561469c565b615bd9606083018461431d565b95945050505050565b7f43616e6e6f74207472616e7366657220746f2073656c66000000000000000000600082015250565b6000615c18601783614352565b9150615c2382615be2565b602082019050919050565b60006020820190508181036000830152615c4781615c0b565b9050919050565b6000604082019050615c636000830185614606565b615c70602083018461469c565b939250505056fea2646970667358221220fce66e3bbc98dde431072bfc90addd65e7e96977d25eaa514387ff48cf47d5ca64736f6c6343000814003368747470733a2f2f61707269636f742d636865657266756c2d616c706163612d3633362e6d7970696e6174612e636c6f75642f697066732f62616679626569663477646536693435337568616432627336336179346e6970336d6c32713778336a6866666d6f346c6b64327a35327569706d692f",
  "linkReferences": {},
  "deployedLinkReferences": {}
}