{
  "_format": "hh-sol-artifact-1",
  "contractName": "CardMintPack",
  "sourceName": "contracts/CardMintPack.sol",
  "abi": [
    {
      "inputs": [
        {
          "internalType": "uint256",
          "name": "subscriptionId",
          "type": "uint256"
        }
      ],
      "stateMutability": "nonpayable",
      "type": "constructor"
    },
    {
      "inputs": [
        {
          "internalType": "address",
          "name": "sender",
          "type": "address"
        },
        {
          "internalType": "uint256",
          "name": "tokenId",
          "type": "uint256"
        },
        {
          "internalType": "address",
          "name": "owner",
          "type": "address"
        }
      ],
      "name": "ERC721IncorrectOwner",
      "type": "error"
    },
    {
      "inputs": [
        {
          "internalType": "address",
          "name": "operator",
          "type": "address"
        },
        {
          "internalType": "uint256",
          "name": "tokenId",
          "type": "uint256"
        }
      ],
      "name": "ERC721InsufficientApproval",
      "type": "error"
    },
    {
      "inputs": [
        {
          "internalType": "address",
          "name": "approver",
          "type": "address"
        }
      ],
      "name": "ERC721InvalidApprover",
      "type": "error"
    },
    {
      "inputs": [
        {
          "internalType": "address",
          "name": "operator",
          "type": "address"
        }
      ],
      "name": "ERC721InvalidOperator",
      "type": "error"
    },
    {
      "inputs": [
        {
          "internalType": "address",
          "name": "owner",
          "type": "address"
        }
      ],
      "name": "ERC721InvalidOwner",
      "type": "error"
    },
    {
      "inputs": [
        {
          "internalType": "address",
          "name": "receiver",
          "type": "address"
        }
      ],
      "name": "ERC721InvalidReceiver",
      "type": "error"
    },
    {
      "inputs": [
        {
          "internalType": "address",
          "name": "sender",
          "type": "address"
        }
      ],
      "name": "ERC721InvalidSender",
      "type": "error"
    },
    {
      "inputs": [
        {
          "internalType": "uint256",
          "name": "tokenId",
          "type": "uint256"
        }
      ],
      "name": "ERC721NonexistentToken",
      "type": "error"
    },
    {
      "inputs": [
        {
          "internalType": "address",
          "name": "have",
          "type": "address"
        },
        {
          "internalType": "address",
          "name": "want",
          "type": "address"
        }
      ],
      "name": "OnlyCoordinatorCanFulfill",
      "type": "error"
    },
    {
      "inputs": [
        {
          "internalType": "address",
          "name": "have",
          "type": "address"
        },
        {
          "internalType": "address",
          "name": "owner",
          "type": "address"
        },
        {
          "internalType": "address",
          "name": "coordinator",
          "type": "address"
        }
      ],
      "name": "OnlyOwnerOrCoordinator",
      "type": "error"
    },
    {
      "inputs": [],
      "name": "ZeroAddress",
      "type": "error"
    },
    {
      "anonymous": false,
      "inputs": [
        {
          "indexed": true,
          "internalType": "address",
          "name": "owner",
          "type": "address"
        },
        {
          "indexed": true,
          "internalType": "address",
          "name": "approved",
          "type": "address"
        },
        {
          "indexed": true,
          "internalType": "uint256",
          "name": "tokenId",
          "type": "uint256"
        }
      ],
      "name": "Approval",
      "type": "event"
    },
    {
      "anonymous": false,
      "inputs": [
        {
          "indexed": true,
          "internalType": "address",
          "name": "owner",
          "type": "address"
        },
        {
          "indexed": true,
          "internalType": "address",
          "name": "operator",
          "type": "address"
        },
        {
          "indexed": false,
          "internalType": "bool",
          "name": "approved",
          "type": "bool"
        }
      ],
      "name": "ApprovalForAll",
      "type": "event"
    },
    {
      "anonymous": false,
      "inputs": [
        {
          "indexed": false,
          "internalType": "uint256",
          "name": "_fromTokenId",
          "type": "uint256"
        },
        {
          "indexed": false,
          "internalType": "uint256",
          "name": "_toTokenId",
          "type": "uint256"
        }
      ],
      "name": "BatchMetadataUpdate",
      "type": "event"
    },
    {
      "anonymous": false,
      "inputs": [
        {
          "indexed": false,
          "internalType": "uint256",
          "name": "tokenId",
          "type": "uint256"
        },
        {
          "indexed": false,
          "internalType": "address",
          "name": "owner",
          "type": "address"
        },
        {
          "indexed": false,
          "internalType": "string",
          "name": "metadataURI",
          "type": "string"
        }
      ],
      "name": "CardMinted",
      "type": "event"
    },
    {
      "anonymous": false,
      "inputs": [
        {
          "indexed": false,
          "internalType": "address",
          "name": "vrfCoordinator",
          "type": "address"
        }
      ],
      "name": "CoordinatorSet",
      "type": "event"
    },
    {
      "anonymous": false,
      "inputs": [
        {
          "indexed": true,
          "internalType": "uint256",
          "name": "tokenId",
          "type": "uint256"
        },
        {
          "indexed": false,
          "internalType": "address",
          "name": "seller",
          "type": "address"
        },
        {
          "indexed": false,
          "internalType": "address",
          "name": "owner",
          "type": "address"
        },
        {
          "indexed": false,
          "internalType": "uint256",
          "name": "price",
          "type": "uint256"
        },
        {
          "indexed": false,
          "internalType": "bool",
          "name": "sold",
          "type": "bool"
        }
      ],
      "name": "ListingCreated",
      "type": "event"
    },
    {
      "anonymous": false,
      "inputs": [
        {
          "indexed": false,
          "internalType": "uint256",
          "name": "_tokenId",
          "type": "uint256"
        }
      ],
      "name": "MetadataUpdate",
      "type": "event"
    },
    {
      "anonymous": false,
      "inputs": [
        {
          "indexed": true,
          "internalType": "address",
          "name": "from",
          "type": "address"
        },
        {
          "indexed": true,
          "internalType": "address",
          "name": "to",
          "type": "address"
        }
      ],
      "name": "OwnershipTransferRequested",
      "type": "event"
    },
    {
      "anonymous": false,
      "inputs": [
        {
          "indexed": true,
          "internalType": "address",
          "name": "from",
          "type": "address"
        },
        {
          "indexed": true,
          "internalType": "address",
          "name": "to",
          "type": "address"
        }
      ],
      "name": "OwnershipTransferred",
      "type": "event"
    },
    {
      "anonymous": false,
      "inputs": [
        {
          "indexed": true,
          "internalType": "address",
          "name": "buyer",
          "type": "address"
        },
        {
          "indexed": false,
          "internalType": "uint256",
          "name": "packId",
          "type": "uint256"
        },
        {
          "indexed": false,
          "internalType": "uint256",
          "name": "requestId",
          "type": "uint256"
        }
      ],
      "name": "PackPurchased",
      "type": "event"
    },
    {
      "anonymous": false,
      "inputs": [
        {
          "indexed": false,
          "internalType": "uint256",
          "name": "requestId",
          "type": "uint256"
        },
        {
          "indexed": false,
          "internalType": "uint256[]",
          "name": "randomWords",
          "type": "uint256[]"
        }
      ],
      "name": "RandomnessFulfilled",
      "type": "event"
    },
    {
      "anonymous": false,
      "inputs": [
        {
          "indexed": false,
          "internalType": "uint256",
          "name": "requestId",
          "type": "uint256"
        },
        {
          "indexed": false,
          "internalType": "address",
          "name": "requester",
          "type": "address"
        }
      ],
      "name": "RandomnessRequested",
      "type": "event"
    },
    {
      "anonymous": false,
      "inputs": [
        {
          "indexed": true,
          "internalType": "address",
          "name": "from",
          "type": "address"
        },
        {
          "indexed": true,
          "internalType": "address",
          "name": "to",
          "type": "address"
        },
        {
          "indexed": true,
          "internalType": "uint256",
          "name": "tokenId",
          "type": "uint256"
        }
      ],
      "name": "Transfer",
      "type": "event"
    },
    {
      "inputs": [],
      "name": "acceptOwnership",
      "outputs": [],
      "stateMutability": "nonpayable",
      "type": "function"
    },
    {
      "inputs": [
        {
          "internalType": "address",
          "name": "to",
          "type": "address"
        },
        {
          "internalType": "uint256",
          "name": "tokenId",
          "type": "uint256"
        }
      ],
      "name": "approve",
      "outputs": [],
      "stateMutability": "nonpayable",
      "type": "function"
    },
    {
      "inputs": [
        {
          "internalType": "address",
          "name": "owner",
          "type": "address"
        }
      ],
      "name": "balanceOf",
      "outputs": [
        {
          "internalType": "uint256",
          "name": "",
          "type": "uint256"
        }
      ],
      "stateMutability": "view",
      "type": "function"
    },
    {
      "inputs": [],
      "name": "baseURI",
      "outputs": [
        {
          "internalType": "string",
          "name": "",
          "type": "string"
        }
      ],
      "stateMutability": "view",
      "type": "function"
    },
    {
      "inputs": [
        {
          "internalType": "uint256[]",
          "name": "_randomWords",
          "type": "uint256[]"
        },
        {
          "internalType": "address",
          "name": "recipient",
          "type": "address"
        },
        {
          "internalType": "uint256",
          "name": "requestId",
          "type": "uint256"
        }
      ],
      "name": "batchMint",
      "outputs": [],
      "stateMutability": "nonpayable",
      "type": "function"
    },
    {
      "inputs": [],
      "name": "callbackGasLimit",
      "outputs": [
        {
          "internalType": "uint32",
          "name": "",
          "type": "uint32"
        }
      ],
      "stateMutability": "view",
      "type": "function"
    },
    {
      "inputs": [
        {
          "internalType": "uint256",
          "name": "",
          "type": "uint256"
        }
      ],
      "name": "cardIndexes",
      "outputs": [
        {
          "internalType": "uint256",
          "name": "",
          "type": "uint256"
        }
      ],
      "stateMutability": "view",
      "type": "function"
    },
    {
      "inputs": [
        {
          "internalType": "string",
          "name": "tokenURI",
          "type": "string"
        },
        {
          "internalType": "address",
          "name": "recipient",
          "type": "address"
        },
        {
          "internalType": "uint256",
          "name": "cardIndex",
          "type": "uint256"
        }
      ],
      "name": "createToken",
      "outputs": [
        {
          "internalType": "uint256",
          "name": "",
          "type": "uint256"
        }
      ],
      "stateMutability": "payable",
      "type": "function"
    },
    {
      "inputs": [],
      "name": "fetchItemsListed",
      "outputs": [
        {
          "components": [
            {
              "internalType": "uint256",
              "name": "tokenId",
              "type": "uint256"
            },
            {
              "internalType": "address payable",
              "name": "seller",
              "type": "address"
            },
            {
              "internalType": "address payable",
              "name": "owner",
              "type": "address"
            },
            {
              "internalType": "uint256",
              "name": "price",
              "type": "uint256"
            },
            {
              "internalType": "bool",
              "name": "sold",
              "type": "bool"
            },
            {
              "internalType": "uint256",
              "name": "cardIndex",
              "type": "uint256"
            }
          ],
          "internalType": "struct NFTMarketplace.Listing[]",
          "name": "",
          "type": "tuple[]"
        }
      ],
      "stateMutability": "view",
      "type": "function"
    },
    {
      "inputs": [],
      "name": "fetchListingMarketplace",
      "outputs": [
        {
          "components": [
            {
              "internalType": "uint256",
              "name": "tokenId",
              "type": "uint256"
            },
            {
              "internalType": "address payable",
              "name": "seller",
              "type": "address"
            },
            {
              "internalType": "address payable",
              "name": "owner",
              "type": "address"
            },
            {
              "internalType": "uint256",
              "name": "price",
              "type": "uint256"
            },
            {
              "internalType": "bool",
              "name": "sold",
              "type": "bool"
            },
            {
              "internalType": "uint256",
              "name": "cardIndex",
              "type": "uint256"
            }
          ],
          "internalType": "struct NFTMarketplace.Listing[]",
          "name": "",
          "type": "tuple[]"
        }
      ],
      "stateMutability": "view",
      "type": "function"
    },
    {
      "inputs": [],
      "name": "fetchMyNFTs",
      "outputs": [
        {
          "components": [
            {
              "internalType": "uint256",
              "name": "tokenId",
              "type": "uint256"
            },
            {
              "internalType": "address payable",
              "name": "seller",
              "type": "address"
            },
            {
              "internalType": "address payable",
              "name": "owner",
              "type": "address"
            },
            {
              "internalType": "uint256",
              "name": "price",
              "type": "uint256"
            },
            {
              "internalType": "bool",
              "name": "sold",
              "type": "bool"
            },
            {
              "internalType": "uint256",
              "name": "cardIndex",
              "type": "uint256"
            }
          ],
          "internalType": "struct NFTMarketplace.Listing[]",
          "name": "",
          "type": "tuple[]"
        }
      ],
      "stateMutability": "view",
      "type": "function"
    },
    {
      "inputs": [
        {
          "internalType": "uint256",
          "name": "tokenId",
          "type": "uint256"
        }
      ],
      "name": "getApproved",
      "outputs": [
        {
          "internalType": "address",
          "name": "",
          "type": "address"
        }
      ],
      "stateMutability": "view",
      "type": "function"
    },
    {
      "inputs": [
        {
          "internalType": "uint256",
          "name": "tokenId",
          "type": "uint256"
        }
      ],
      "name": "getCardIndexFromId",
      "outputs": [
        {
          "internalType": "uint256",
          "name": "",
          "type": "uint256"
        }
      ],
      "stateMutability": "view",
      "type": "function"
    },
    {
      "inputs": [],
      "name": "getContractOwner",
      "outputs": [
        {
          "internalType": "address",
          "name": "",
          "type": "address"
        }
      ],
      "stateMutability": "view",
      "type": "function"
    },
    {
      "inputs": [],
      "name": "getListingPrice",
      "outputs": [
        {
          "internalType": "uint256",
          "name": "",
          "type": "uint256"
        }
      ],
      "stateMutability": "view",
      "type": "function"
    },
    {
      "inputs": [
        {
          "internalType": "address",
          "name": "user",
          "type": "address"
        }
      ],
      "name": "getMintedTokens",
      "outputs": [
        {
          "internalType": "uint256[]",
          "name": "",
          "type": "uint256[]"
        }
      ],
      "stateMutability": "view",
      "type": "function"
    },
    {
      "inputs": [
        {
          "internalType": "uint256",
          "name": "requestId",
          "type": "uint256"
        }
      ],
      "name": "getMintedTokensFromRequest",
      "outputs": [
        {
          "internalType": "uint256[]",
          "name": "",
          "type": "uint256[]"
        }
      ],
      "stateMutability": "view",
      "type": "function"
    },
    {
      "inputs": [],
      "name": "getNativePayment",
      "outputs": [
        {
          "internalType": "string",
          "name": "",
          "type": "string"
        }
      ],
      "stateMutability": "view",
      "type": "function"
    },
    {
      "inputs": [],
      "name": "getPacksAvailable",
      "outputs": [
        {
          "internalType": "uint256",
          "name": "",
          "type": "uint256"
        }
      ],
      "stateMutability": "view",
      "type": "function"
    },
    {
      "inputs": [
        {
          "internalType": "uint256",
          "name": "tokenId",
          "type": "uint256"
        }
      ],
      "name": "getSoldStatus",
      "outputs": [
        {
          "internalType": "bool",
          "name": "",
          "type": "bool"
        }
      ],
      "stateMutability": "view",
      "type": "function"
    },
    {
      "inputs": [],
      "name": "getTotalPacksSold",
      "outputs": [
        {
          "internalType": "uint256",
          "name": "",
          "type": "uint256"
        }
      ],
      "stateMutability": "view",
      "type": "function"
    },
    {
      "inputs": [
        {
          "internalType": "address",
          "name": "owner",
          "type": "address"
        },
        {
          "internalType": "address",
          "name": "operator",
          "type": "address"
        }
      ],
      "name": "isApprovedForAll",
      "outputs": [
        {
          "internalType": "bool",
          "name": "",
          "type": "bool"
        }
      ],
      "stateMutability": "view",
      "type": "function"
    },
    {
      "inputs": [
        {
          "internalType": "uint256",
          "name": "tokenId",
          "type": "uint256"
        },
        {
          "internalType": "uint256",
          "name": "price",
          "type": "uint256"
        }
      ],
      "name": "listCard",
      "outputs": [],
      "stateMutability": "payable",
      "type": "function"
    },
    {
      "inputs": [],
      "name": "name",
      "outputs": [
        {
          "internalType": "string",
          "name": "",
          "type": "string"
        }
      ],
      "stateMutability": "view",
      "type": "function"
    },
    {
      "inputs": [],
      "name": "nextTokenId",
      "outputs": [
        {
          "internalType": "uint256",
          "name": "",
          "type": "uint256"
        }
      ],
      "stateMutability": "view",
      "type": "function"
    },
    {
      "inputs": [],
      "name": "numWords",
      "outputs": [
        {
          "internalType": "uint32",
          "name": "",
          "type": "uint32"
        }
      ],
      "stateMutability": "view",
      "type": "function"
    },
    {
      "inputs": [],
      "name": "owner",
      "outputs": [
        {
          "internalType": "address",
          "name": "",
          "type": "address"
        }
      ],
      "stateMutability": "view",
      "type": "function"
    },
    {
      "inputs": [
        {
          "internalType": "uint256",
          "name": "tokenId",
          "type": "uint256"
        }
      ],
      "name": "ownerOf",
      "outputs": [
        {
          "internalType": "address",
          "name": "",
          "type": "address"
        }
      ],
      "stateMutability": "view",
      "type": "function"
    },
    {
      "inputs": [],
      "name": "packPrice",
      "outputs": [
        {
          "internalType": "uint256",
          "name": "",
          "type": "uint256"
        }
      ],
      "stateMutability": "view",
      "type": "function"
    },
    {
      "inputs": [],
      "name": "packsAvailable",
      "outputs": [
        {
          "internalType": "uint256",
          "name": "",
          "type": "uint256"
        }
      ],
      "stateMutability": "view",
      "type": "function"
    },
    {
      "inputs": [
        {
          "internalType": "uint256",
          "name": "tokenId",
          "type": "uint256"
        }
      ],
      "name": "purchaseCard",
      "outputs": [],
      "stateMutability": "payable",
      "type": "function"
    },
    {
      "inputs": [
        {
          "internalType": "uint256",
          "name": "requestId",
          "type": "uint256"
        },
        {
          "internalType": "uint256[]",
          "name": "randomWords",
          "type": "uint256[]"
        }
      ],
      "name": "rawFulfillRandomWords",
      "outputs": [],
      "stateMutability": "nonpayable",
      "type": "function"
    },
    {
      "inputs": [],
      "name": "requestConfirmations",
      "outputs": [
        {
          "internalType": "uint16",
          "name": "",
          "type": "uint16"
        }
      ],
      "stateMutability": "view",
      "type": "function"
    },
    {
      "inputs": [],
      "name": "requestRandomWords",
      "outputs": [
        {
          "internalType": "uint256",
          "name": "requestId",
          "type": "uint256"
        }
      ],
      "stateMutability": "nonpayable",
      "type": "function"
    },
    {
      "inputs": [],
      "name": "s_keyHash",
      "outputs": [
        {
          "internalType": "bytes32",
          "name": "",
          "type": "bytes32"
        }
      ],
      "stateMutability": "view",
      "type": "function"
    },
    {
      "inputs": [
        {
          "internalType": "uint256",
          "name": "",
          "type": "uint256"
        }
      ],
      "name": "s_randomWords",
      "outputs": [
        {
          "internalType": "uint256",
          "name": "",
          "type": "uint256"
        }
      ],
      "stateMutability": "view",
      "type": "function"
    },
    {
      "inputs": [
        {
          "internalType": "uint256",
          "name": "",
          "type": "uint256"
        }
      ],
      "name": "s_requestToSender",
      "outputs": [
        {
          "internalType": "address",
          "name": "",
          "type": "address"
        }
      ],
      "stateMutability": "view",
      "type": "function"
    },
    {
      "inputs": [],
      "name": "s_subscriptionId",
      "outputs": [
        {
          "internalType": "uint256",
          "name": "",
          "type": "uint256"
        }
      ],
      "stateMutability": "view",
      "type": "function"
    },
    {
      "inputs": [],
      "name": "s_vrfCoordinator",
      "outputs": [
        {
          "internalType": "contract IVRFCoordinatorV2Plus",
          "name": "",
          "type": "address"
        }
      ],
      "stateMutability": "view",
      "type": "function"
    },
    {
      "inputs": [
        {
          "internalType": "address",
          "name": "from",
          "type": "address"
        },
        {
          "internalType": "address",
          "name": "to",
          "type": "address"
        },
        {
          "internalType": "uint256",
          "name": "tokenId",
          "type": "uint256"
        }
      ],
      "name": "safeTransferFrom",
      "outputs": [],
      "stateMutability": "nonpayable",
      "type": "function"
    },
    {
      "inputs": [
        {
          "internalType": "address",
          "name": "from",
          "type": "address"
        },
        {
          "internalType": "address",
          "name": "to",
          "type": "address"
        },
        {
          "internalType": "uint256",
          "name": "tokenId",
          "type": "uint256"
        },
        {
          "internalType": "bytes",
          "name": "data",
          "type": "bytes"
        }
      ],
      "name": "safeTransferFrom",
      "outputs": [],
      "stateMutability": "nonpayable",
      "type": "function"
    },
    {
      "inputs": [
        {
          "internalType": "address",
          "name": "operator",
          "type": "address"
        },
        {
          "internalType": "bool",
          "name": "approved",
          "type": "bool"
        }
      ],
      "name": "setApprovalForAll",
      "outputs": [],
      "stateMutability": "nonpayable",
      "type": "function"
    },
    {
      "inputs": [
        {
          "internalType": "string",
          "name": "_baseURI",
          "type": "string"
        }
      ],
      "name": "setBaseURI",
      "outputs": [],
      "stateMutability": "nonpayable",
      "type": "function"
    },
    {
      "inputs": [
        {
          "internalType": "address",
          "name": "_vrfCoordinator",
          "type": "address"
        }
      ],
      "name": "setCoordinator",
      "outputs": [],
      "stateMutability": "nonpayable",
      "type": "function"
    },
    {
      "inputs": [
        {
          "internalType": "bool",
          "name": "_enableNativePayment",
          "type": "bool"
        }
      ],
      "name": "setNativePayment",
      "outputs": [],
      "stateMutability": "nonpayable",
      "type": "function"
    },
    {
      "inputs": [
        {
          "internalType": "bytes4",
          "name": "interfaceId",
          "type": "bytes4"
        }
      ],
      "name": "supportsInterface",
      "outputs": [
        {
          "internalType": "bool",
          "name": "",
          "type": "bool"
        }
      ],
      "stateMutability": "view",
      "type": "function"
    },
    {
      "inputs": [],
      "name": "symbol",
      "outputs": [
        {
          "internalType": "string",
          "name": "",
          "type": "string"
        }
      ],
      "stateMutability": "view",
      "type": "function"
    },
    {
      "inputs": [
        {
          "internalType": "uint256",
          "name": "tokenId",
          "type": "uint256"
        }
      ],
      "name": "tokenURI",
      "outputs": [
        {
          "internalType": "string",
          "name": "",
          "type": "string"
        }
      ],
      "stateMutability": "view",
      "type": "function"
    },
    {
      "inputs": [],
      "name": "totalPacksSold",
      "outputs": [
        {
          "internalType": "uint256",
          "name": "",
          "type": "uint256"
        }
      ],
      "stateMutability": "view",
      "type": "function"
    },
    {
      "inputs": [
        {
          "internalType": "address",
          "name": "from",
          "type": "address"
        },
        {
          "internalType": "address",
          "name": "to",
          "type": "address"
        },
        {
          "internalType": "uint256",
          "name": "tokenId",
          "type": "uint256"
        }
      ],
      "name": "transferFrom",
      "outputs": [],
      "stateMutability": "nonpayable",
      "type": "function"
    },
    {
      "inputs": [
        {
          "internalType": "address",
          "name": "to",
          "type": "address"
        }
      ],
      "name": "transferOwnership",
      "outputs": [],
      "stateMutability": "nonpayable",
      "type": "function"
    },
    {
      "inputs": [
        {
          "internalType": "uint256",
          "name": "newPrice",
          "type": "uint256"
        }
      ],
      "name": "updatePackPrice",
      "outputs": [],
      "stateMutability": "nonpayable",
      "type": "function"
    },
    {
      "inputs": [
        {
          "internalType": "uint256",
          "name": "newQty",
          "type": "uint256"
        }
      ],
      "name": "updatePacksAvailable",
      "outputs": [],
      "stateMutability": "nonpayable",
      "type": "function"
    },
    {
      "inputs": [],
      "name": "withdraw",
      "outputs": [],
      "stateMutability": "nonpayable",
      "type": "function"
    },
    {
      "stateMutability": "payable",
      "type": "receive"
    }
  ],
  "bytecode": "0x6080604052655af3107a4000600c557f787d74caea10b2b357790d5b5247c2f63d1d91572a9846f780606e4d953677ae60001b601355621e8480601460006101000a81548163ffffffff021916908363ffffffff1602179055506003601460046101000a81548161ffff021916908361ffff1602179055506005601460066101000a81548163ffffffff021916908363ffffffff1602179055506040518060a00160405280606f815260200162006831606f913960159081620000c3919062000756565b5066038d7ea4c680006017556064601855348015620000e157600080fd5b50604051620068a0380380620068a0833981810160405281019062000107919062000873565b739ddfaca8183c41ad55329bdeed9f6a8d53168b1b6040518060400160405280600c81526020017f5a6f6465636b20436172647300000000000000000000000000000000000000008152506040518060400160405280600381526020017f5a444b0000000000000000000000000000000000000000000000000000000000815250338060008073ffffffffffffffffffffffffffffffffffffffff168273ffffffffffffffffffffffffffffffffffffffff1603620001fd576040517f08c379a0000000000000000000000000000000000000000000000000000000008152600401620001f49062000906565b60405180910390fd5b816000806101000a81548173ffffffffffffffffffffffffffffffffffffffff021916908373ffffffffffffffffffffffffffffffffffffffff160217905550600073ffffffffffffffffffffffffffffffffffffffff168173ffffffffffffffffffffffffffffffffffffffff161462000284576200028381620003ad60201b60201c565b5b505050816002908162000298919062000756565b508060039081620002aa919062000756565b505050600073ffffffffffffffffffffffffffffffffffffffff168173ffffffffffffffffffffffffffffffffffffffff160362000314576040517fd92e233d00000000000000000000000000000000000000000000000000000000815260040160405180910390fd5b80600960006101000a81548173ffffffffffffffffffffffffffffffffffffffff021916908373ffffffffffffffffffffffffffffffffffffffff1602179055505033600d60006101000a81548173ffffffffffffffffffffffffffffffffffffffff021916908373ffffffffffffffffffffffffffffffffffffffff160217905550806012819055506000601981905550506200099a565b3373ffffffffffffffffffffffffffffffffffffffff168173ffffffffffffffffffffffffffffffffffffffff16036200041e576040517f08c379a0000000000000000000000000000000000000000000000000000000008152600401620004159062000978565b60405180910390fd5b80600160006101000a81548173ffffffffffffffffffffffffffffffffffffffff021916908373ffffffffffffffffffffffffffffffffffffffff1602179055508073ffffffffffffffffffffffffffffffffffffffff1660008054906101000a900473ffffffffffffffffffffffffffffffffffffffff1673ffffffffffffffffffffffffffffffffffffffff167fed8889f560326eb138920d842192f0eb3dd22b4f139c87a2c57538e05bae127860405160405180910390a350565b600081519050919050565b7f4e487b7100000000000000000000000000000000000000000000000000000000600052604160045260246000fd5b7f4e487b7100000000000000000000000000000000000000000000000000000000600052602260045260246000fd5b600060028204905060018216806200055e57607f821691505b60208210810362000574576200057362000516565b5b50919050565b60008190508160005260206000209050919050565b60006020601f8301049050919050565b600082821b905092915050565b600060088302620005de7fffffffffffffffffffffffffffffffffffffffffffffffffffffffffffffffff826200059f565b620005ea86836200059f565b95508019841693508086168417925050509392505050565b6000819050919050565b6000819050919050565b600062000637620006316200062b8462000602565b6200060c565b62000602565b9050919050565b6000819050919050565b620006538362000616565b6200066b62000662826200063e565b848454620005ac565b825550505050565b600090565b6200068262000673565b6200068f81848462000648565b505050565b5b81811015620006b757620006ab60008262000678565b60018101905062000695565b5050565b601f8211156200070657620006d0816200057a565b620006db846200058f565b81016020851015620006eb578190505b62000703620006fa856200058f565b83018262000694565b50505b505050565b600082821c905092915050565b60006200072b600019846008026200070b565b1980831691505092915050565b600062000746838362000718565b9150826002028217905092915050565b6200076182620004dc565b67ffffffffffffffff8111156200077d576200077c620004e7565b5b62000789825462000545565b62000796828285620006bb565b600060209050601f831160018114620007ce5760008415620007b9578287015190505b620007c5858262000738565b86555062000835565b601f198416620007de866200057a565b60005b828110156200080857848901518255600182019150602085019450602081019050620007e1565b8683101562000828578489015162000824601f89168262000718565b8355505b6001600288020188555050505b505050505050565b600080fd5b6200084d8162000602565b81146200085957600080fd5b50565b6000815190506200086d8162000842565b92915050565b6000602082840312156200088c576200088b6200083d565b5b60006200089c848285016200085c565b91505092915050565b600082825260208201905092915050565b7f43616e6e6f7420736574206f776e657220746f207a65726f0000000000000000600082015250565b6000620008ee601883620008a5565b9150620008fb82620008b6565b602082019050919050565b600060208201905081810360008301526200092181620008df565b9050919050565b7f43616e6e6f74207472616e7366657220746f2073656c66000000000000000000600082015250565b600062000960601783620008a5565b91506200096d8262000928565b602082019050919050565b60006020820190508181036000830152620009938162000951565b9050919050565b615e8780620009aa6000396000f3fe6080604052600436106103395760003560e01c80636c0360eb116101ab578063a22cb465116100f7578063d759000b11610095578063e985e9c51161006f578063e985e9c514610cf0578063ed36c52f14610d2d578063f2fde38b14610d49578063f6eaffc814610d7257610409565b8063d759000b14610c6f578063d917bf3e14610c9a578063e0c8628914610cc557610409565b8063b0fb162f116100d1578063b0fb162f14610bb3578063b88d4fde14610bde578063c0abba9e14610c07578063c87b56dd14610c3257610409565b8063a22cb46514610b31578063a54447aa14610b5a578063ad49ba1b14610b7657610409565b80637ccfd7fc116101645780638da5cb5b1161013e5780638da5cb5b14610a875780638ea9811714610ab257806395d89b4114610adb5780639eccacf614610b0657610409565b80637ccfd7fc14610a065780637f95e4b314610a315780638ac0002114610a5c57610409565b80636c0360eb1461090357806370a082311461092e57806373b4df051461096b57806375794a3c1461099b57806379ba5097146109c65780637cc539b4146109dd57610409565b80632e602d291161028557806345bb327b1161022357806355f804b3116101fd57806355f804b3146108375780635aa88fd5146108605780636273ce9b1461089d5780636352211e146108c657610409565b806345bb327b146107b657806345f8fa80146107e157806355901bb01461080c57610409565b80634129c1c11161025f5780634129c1c1146106e857806342842e0e14610725578063434a49a11461074e578063442890d51461078b57610409565b80632e602d2914610669578063335c8b63146106a65780633ccfd60b146106d157610409565b806312e85585116102f2578063202e3740116102cc578063202e3740146105ad57806323b872dd146105d857806324f74697146106015780632916b1301461062c57610409565b806312e85585146105305780631a01d53a1461055b5780631fe543e31461058457610409565b806301ffc9a71461040e57806306fdde031461044b57806307c11e0d14610476578063081812fc146104a1578063095ea7b3146104de5780630c6dcd311461050757610409565b3661040957600060185411610383576040517f08c379a000000000000000000000000000000000000000000000000000000000815260040161037a90614415565b60405180910390fd5b60175434146103c7576040517f08c379a00000000000000000000000000000000000000000000000000000000081526004016103be90614481565b60405180910390fd5b6103dd6001601954610daf90919063ffffffff16565b6019819055506103f96001601854610ddb90919063ffffffff16565b601881905550610407610e02565b005b600080fd5b34801561041a57600080fd5b506104356004803603810190610430919061450d565b610fcd565b6040516104429190614555565b60405180910390f35b34801561045757600080fd5b5061046061102e565b60405161046d91906145ef565b60405180910390f35b34801561048257600080fd5b5061048b6110c0565b60405161049891906147a4565b60405180910390f35b3480156104ad57600080fd5b506104c860048036038101906104c391906147f2565b611311565b6040516104d59190614840565b60405180910390f35b3480156104ea57600080fd5b5061050560048036038101906105009190614887565b61132d565b005b34801561051357600080fd5b5061052e600480360381019061052991906148f3565b611343565b005b34801561053c57600080fd5b50610545611368565b604051610552919061492f565b60405180910390f35b34801561056757600080fd5b50610582600480360381019061057d91906147f2565b611372565b005b34801561059057600080fd5b506105ab60048036038101906105a691906149af565b611384565b005b3480156105b957600080fd5b506105c261144a565b6040516105cf91906147a4565b60405180910390f35b3480156105e457600080fd5b506105ff60048036038101906105fa9190614a0f565b611747565b005b34801561060d57600080fd5b50610616611849565b6040516106239190614a81565b60405180910390f35b34801561063857600080fd5b50610653600480360381019061064e91906147f2565b61185f565b604051610660919061492f565b60405180910390f35b34801561067557600080fd5b50610690600480360381019061068b91906147f2565b61187c565b60405161069d9190614840565b60405180910390f35b3480156106b257600080fd5b506106bb6118af565b6040516106c8919061492f565b60405180910390f35b3480156106dd57600080fd5b506106e66118b5565b005b3480156106f457600080fd5b5061070f600480360381019061070a91906147f2565b611913565b60405161071c919061492f565b60405180910390f35b34801561073157600080fd5b5061074c60048036038101906107479190614a0f565b61192b565b005b34801561075a57600080fd5b5061077560048036038101906107709190614a9c565b61194b565b6040516107829190614b78565b60405180910390f35b34801561079757600080fd5b506107a06119e2565b6040516107ad9190614840565b60405180910390f35b3480156107c257600080fd5b506107cb611a0c565b6040516107d89190614bb3565b60405180910390f35b3480156107ed57600080fd5b506107f6611a12565b60405161080391906147a4565b60405180910390f35b34801561081857600080fd5b50610821611d0f565b60405161082e919061492f565b60405180910390f35b34801561084357600080fd5b5061085e60048036038101906108599190614cfe565b611d19565b005b34801561086c57600080fd5b50610887600480360381019061088291906147f2565b611d34565b6040516108949190614555565b60405180910390f35b3480156108a957600080fd5b506108c460048036038101906108bf9190614e0a565b611d61565b005b3480156108d257600080fd5b506108ed60048036038101906108e891906147f2565b61207e565b6040516108fa9190614840565b60405180910390f35b34801561090f57600080fd5b50610918612090565b60405161092591906145ef565b60405180910390f35b34801561093a57600080fd5b5061095560048036038101906109509190614a9c565b61211e565b604051610962919061492f565b60405180910390f35b61098560048036038101906109809190614e79565b6121d8565b604051610992919061492f565b60405180910390f35b3480156109a757600080fd5b506109b061235c565b6040516109bd919061492f565b60405180910390f35b3480156109d257600080fd5b506109db612362565b005b3480156109e957600080fd5b50610a0460048036038101906109ff91906147f2565b6124f7565b005b348015610a1257600080fd5b50610a1b612509565b604051610a289190614a81565b60405180910390f35b348015610a3d57600080fd5b50610a4661251f565b604051610a5391906145ef565b60405180910390f35b348015610a6857600080fd5b50610a716125af565b604051610a7e919061492f565b60405180910390f35b348015610a9357600080fd5b50610a9c6125b5565b604051610aa99190614840565b60405180910390f35b348015610abe57600080fd5b50610ad96004803603810190610ad49190614a9c565b6125de565b005b348015610ae757600080fd5b50610af06127bf565b604051610afd91906145ef565b60405180910390f35b348015610b1257600080fd5b50610b1b612851565b604051610b289190614f47565b60405180910390f35b348015610b3d57600080fd5b50610b586004803603810190610b539190614f62565b612877565b005b610b746004803603810190610b6f91906147f2565b61288d565b005b348015610b8257600080fd5b50610b9d6004803603810190610b9891906147f2565b612add565b604051610baa9190614b78565b60405180910390f35b348015610bbf57600080fd5b50610bc8612b48565b604051610bd59190614fbf565b60405180910390f35b348015610bea57600080fd5b50610c056004803603810190610c00919061507b565b612b5c565b005b348015610c1357600080fd5b50610c1c612b81565b604051610c29919061492f565b60405180910390f35b348015610c3e57600080fd5b50610c596004803603810190610c5491906147f2565b612b87565b604051610c6691906145ef565b60405180910390f35b348015610c7b57600080fd5b50610c84612c9a565b604051610c91919061492f565b60405180910390f35b348015610ca657600080fd5b50610caf612ca0565b604051610cbc919061492f565b60405180910390f35b348015610cd157600080fd5b50610cda610e02565b604051610ce7919061492f565b60405180910390f35b348015610cfc57600080fd5b50610d176004803603810190610d1291906150fe565b612caa565b604051610d249190614555565b60405180910390f35b610d476004803603810190610d42919061513e565b612d3e565b005b348015610d5557600080fd5b50610d706004803603810190610d6b9190614a9c565b612d4c565b005b348015610d7e57600080fd5b50610d996004803603810190610d9491906147f2565b612d60565b604051610da6919061492f565b60405180910390f35b6000808284610dbe91906151ad565b905083811015610dd157610dd06151e1565b5b8091505092915050565b600082821115610dee57610ded6151e1565b5b8183610dfa9190615210565b905092915050565b6000600960009054906101000a900473ffffffffffffffffffffffffffffffffffffffff1673ffffffffffffffffffffffffffffffffffffffff16639b1c385e6040518060c0016040528060135481526020016012548152602001601460049054906101000a900461ffff1661ffff168152602001601460009054906101000a900463ffffffff1663ffffffff168152602001601460069054906101000a900463ffffffff1663ffffffff168152602001610edb6040518060200160405280601660009054906101000a900460ff161515815250612d84565b8152506040518263ffffffff1660e01b8152600401610efa919061534f565b6020604051808303816000875af1158015610f19573d6000803e3d6000fd5b505050506040513d601f19601f82011682018060405250810190610f3d9190615386565b905033601a600083815260200190815260200160002060006101000a81548173ffffffffffffffffffffffffffffffffffffffff021916908373ffffffffffffffffffffffffffffffffffffffff1602179055507f28f521cf7abd0044cba5bb040c5217ff69a4e5865f5262905018698e68fe7d008133604051610fc29291906153b3565b60405180910390a190565b6000634906490660e01b7bffffffffffffffffffffffffffffffffffffffffffffffffffffffff1916827bffffffffffffffffffffffffffffffffffffffffffffffffffffffff19161480611027575061102682612e1c565b5b9050919050565b60606002805461103d9061540b565b80601f01602080910402602001604051908101604052809291908181526020018280546110699061540b565b80156110b65780601f1061108b576101008083540402835291602001916110b6565b820191906000526020600020905b81548152906001019060200180831161109957829003601f168201915b5050505050905090565b60606000600a549050600080600b5467ffffffffffffffff8111156110e8576110e7614bd3565b5b60405190808252806020026020018201604052801561112157816020015b61110e6142c4565b8152602001906001900390816111065790505b50905060005b83811015611307573073ffffffffffffffffffffffffffffffffffffffff16600e600060018461115791906151ad565b815260200190815260200160002060020160009054906101000a900473ffffffffffffffffffffffffffffffffffffffff1673ffffffffffffffffffffffffffffffffffffffff16036112f45760006001826111b391906151ad565b90506000600e60008381526020019081526020016000209050806040518060c0016040529081600082015481526020016001820160009054906101000a900473ffffffffffffffffffffffffffffffffffffffff1673ffffffffffffffffffffffffffffffffffffffff1673ffffffffffffffffffffffffffffffffffffffff1681526020016002820160009054906101000a900473ffffffffffffffffffffffffffffffffffffffff1673ffffffffffffffffffffffffffffffffffffffff1673ffffffffffffffffffffffffffffffffffffffff168152602001600382015481526020016004820160009054906101000a900460ff161515151581526020016005820154815250508486815181106112d0576112cf61543c565b5b60200260200101819052506112ef600186610daf90919063ffffffff16565b945050505b80806112ff9061546b565b915050611127565b5080935050505090565b600061131c82612efe565b5061132682612f86565b9050919050565b61133f828261133a612fc3565b612fcb565b5050565b61134b612fdd565b80601660006101000a81548160ff02191690831515021790555050565b6000600c54905090565b61137a612fdd565b8060188190555050565b600960009054906101000a900473ffffffffffffffffffffffffffffffffffffffff1673ffffffffffffffffffffffffffffffffffffffff163373ffffffffffffffffffffffffffffffffffffffff161461143a5733600960009054906101000a900473ffffffffffffffffffffffffffffffffffffffff166040517f1cf993f40000000000000000000000000000000000000000000000000000000081526004016114319291906154b3565b60405180910390fd5b61144583838361306d565b505050565b60606000600a54905060008060005b83811015611500573373ffffffffffffffffffffffffffffffffffffffff16600e600060018461148991906151ad565b815260200190815260200160002060020160009054906101000a900473ffffffffffffffffffffffffffffffffffffffff1673ffffffffffffffffffffffffffffffffffffffff16036114ed576114ea600184610daf90919063ffffffff16565b92505b80806114f89061546b565b915050611459565b5060008267ffffffffffffffff81111561151d5761151c614bd3565b5b60405190808252806020026020018201604052801561155657816020015b6115436142c4565b81526020019060019003908161153b5790505b50905060005b8481101561173c573373ffffffffffffffffffffffffffffffffffffffff16600e600060018461158c91906151ad565b815260200190815260200160002060020160009054906101000a900473ffffffffffffffffffffffffffffffffffffffff1673ffffffffffffffffffffffffffffffffffffffff16036117295760006001826115e891906151ad565b90506000600e60008381526020019081526020016000209050806040518060c0016040529081600082015481526020016001820160009054906101000a900473ffffffffffffffffffffffffffffffffffffffff1673ffffffffffffffffffffffffffffffffffffffff1673ffffffffffffffffffffffffffffffffffffffff1681526020016002820160009054906101000a900473ffffffffffffffffffffffffffffffffffffffff1673ffffffffffffffffffffffffffffffffffffffff1673ffffffffffffffffffffffffffffffffffffffff168152602001600382015481526020016004820160009054906101000a900460ff161515151581526020016005820154815250508486815181106117055761170461543c565b5b6020026020010181905250611724600186610daf90919063ffffffff16565b945050505b80806117349061546b565b91505061155c565b508094505050505090565b600073ffffffffffffffffffffffffffffffffffffffff168273ffffffffffffffffffffffffffffffffffffffff16036117b95760006040517f64a0ae920000000000000000000000000000000000000000000000000000000081526004016117b09190614840565b60405180910390fd5b60006117cd83836117c8612fc3565b613103565b90508373ffffffffffffffffffffffffffffffffffffffff168173ffffffffffffffffffffffffffffffffffffffff1614611843578382826040517f64283d7b00000000000000000000000000000000000000000000000000000000815260040161183a939291906154dc565b60405180910390fd5b50505050565b601460009054906101000a900463ffffffff1681565b6000601e6000838152602001908152602001600020549050919050565b601a6020528060005260406000206000915054906101000a900473ffffffffffffffffffffffffffffffffffffffff1681565b60175481565b6118bd612fdd565b60006118c76125b5565b90508073ffffffffffffffffffffffffffffffffffffffff166108fc479081150290604051600060405180830381858888f1935050505015801561190f573d6000803e3d6000fd5b5050565b601e6020528060005260406000206000915090505481565b61194683838360405180602001604052806000815250612b5c565b505050565b6060601c60008373ffffffffffffffffffffffffffffffffffffffff1673ffffffffffffffffffffffffffffffffffffffff1681526020019081526020016000208054806020026020016040519081016040528092919081815260200182805480156119d657602002820191906000526020600020905b8154815260200190600101908083116119c2575b50505050509050919050565b6000600d60009054906101000a900473ffffffffffffffffffffffffffffffffffffffff16905090565b60135481565b60606000600a54905060008060005b83811015611ac8573373ffffffffffffffffffffffffffffffffffffffff16600e6000600184611a5191906151ad565b815260200190815260200160002060010160009054906101000a900473ffffffffffffffffffffffffffffffffffffffff1673ffffffffffffffffffffffffffffffffffffffff1603611ab557611ab2600184610daf90919063ffffffff16565b92505b8080611ac09061546b565b915050611a21565b5060008267ffffffffffffffff811115611ae557611ae4614bd3565b5b604051908082528060200260200182016040528015611b1e57816020015b611b0b6142c4565b815260200190600190039081611b035790505b50905060005b84811015611d04573373ffffffffffffffffffffffffffffffffffffffff16600e6000600184611b5491906151ad565b815260200190815260200160002060010160009054906101000a900473ffffffffffffffffffffffffffffffffffffffff1673ffffffffffffffffffffffffffffffffffffffff1603611cf1576000600182611bb091906151ad565b90506000600e60008381526020019081526020016000209050806040518060c0016040529081600082015481526020016001820160009054906101000a900473ffffffffffffffffffffffffffffffffffffffff1673ffffffffffffffffffffffffffffffffffffffff1673ffffffffffffffffffffffffffffffffffffffff1681526020016002820160009054906101000a900473ffffffffffffffffffffffffffffffffffffffff1673ffffffffffffffffffffffffffffffffffffffff1673ffffffffffffffffffffffffffffffffffffffff168152602001600382015481526020016004820160009054906101000a900460ff16151515158152602001600582015481525050848681518110611ccd57611ccc61543c565b5b6020026020010181905250611cec600186610daf90919063ffffffff16565b945050505b8080611cfc9061546b565b915050611b24565b508094505050505090565b6000601954905090565b611d21612fdd565b8060159081611d3091906156b5565b5050565b6000600e600083815260200190815260200160002060040160009054906101000a900460ff169050919050565b601460069054906101000a900463ffffffff1663ffffffff16835114611dbc576040517f08c379a0000000000000000000000000000000000000000000000000000000008152600401611db3906157d3565b60405180910390fd5b600073ffffffffffffffffffffffffffffffffffffffff168273ffffffffffffffffffffffffffffffffffffffff1603611e2b576040517f08c379a0000000000000000000000000000000000000000000000000000000008152600401611e229061583f565b60405180910390fd5b6000835167ffffffffffffffff811115611e4857611e47614bd3565b5b604051908082528060200260200182016040528015611e765781602001602082028036833780820191505090505b50905060005b8451811015611f8357600060016030878481518110611e9e57611e9d61543c565b5b6020026020010151611eb0919061588e565b611eba91906151ad565b905060006015611ec98361331d565b604051602001611eda9291906159ca565b60405160208183030381529060405290506000611ef88288856121d8565b905080858581518110611f0e57611f0d61543c565b5b60200260200101818152505082601e6000838152602001908152602001600020819055507fd8734743ed0c1c7547379b55d892e5cea71bc5371832ffa4149a506fbc1aa6d0818884604051611f65939291906159f9565b60405180910390a15050508080611f7b9061546b565b915050611e7c565b5060005b815181101561207757601c60008573ffffffffffffffffffffffffffffffffffffffff1673ffffffffffffffffffffffffffffffffffffffff168152602001908152602001600020828281518110611fe257611fe161543c565b5b60200260200101519080600181540180825580915050600190039060005260206000200160009091909190915055601d60008481526020019081526020016000208282815181106120365761203561543c565b5b60200260200101519080600181540180825580915050600190039060005260206000200160009091909190915055808061206f9061546b565b915050611f87565b5050505050565b600061208982612efe565b9050919050565b6015805461209d9061540b565b80601f01602080910402602001604051908101604052809291908181526020018280546120c99061540b565b80156121165780601f106120eb57610100808354040283529160200191612116565b820191906000526020600020905b8154815290600101906020018083116120f957829003601f168201915b505050505081565b60008073ffffffffffffffffffffffffffffffffffffffff168273ffffffffffffffffffffffffffffffffffffffff16036121915760006040517f89c62b640000000000000000000000000000000000000000000000000000000081526004016121889190614840565b60405180910390fd5b600560008373ffffffffffffffffffffffffffffffffffffffff1673ffffffffffffffffffffffffffffffffffffffff168152602001908152602001600020549050919050565b60006121f06001600a54610daf90919063ffffffff16565b600a819055506000600a54905061220784826133eb565b61221181866134e4565b6040518060c00160405280828152602001600073ffffffffffffffffffffffffffffffffffffffff1681526020018573ffffffffffffffffffffffffffffffffffffffff1681526020016000815260200160011515815260200184815250600e60008381526020019081526020016000206000820151816000015560208201518160010160006101000a81548173ffffffffffffffffffffffffffffffffffffffff021916908373ffffffffffffffffffffffffffffffffffffffff16021790555060408201518160020160006101000a81548173ffffffffffffffffffffffffffffffffffffffff021916908373ffffffffffffffffffffffffffffffffffffffff1602179055506060820151816003015560808201518160040160006101000a81548160ff02191690831515021790555060a08201518160050155905050809150509392505050565b60115481565b600160009054906101000a900473ffffffffffffffffffffffffffffffffffffffff1673ffffffffffffffffffffffffffffffffffffffff163373ffffffffffffffffffffffffffffffffffffffff16146123f2576040517f08c379a00000000000000000000000000000000000000000000000000000000081526004016123e990615a83565b60405180910390fd5b60008060009054906101000a900473ffffffffffffffffffffffffffffffffffffffff169050336000806101000a81548173ffffffffffffffffffffffffffffffffffffffff021916908373ffffffffffffffffffffffffffffffffffffffff1602179055506000600160006101000a81548173ffffffffffffffffffffffffffffffffffffffff021916908373ffffffffffffffffffffffffffffffffffffffff1602179055503373ffffffffffffffffffffffffffffffffffffffff168173ffffffffffffffffffffffffffffffffffffffff167f8be0079c531659141344cd1fd0a4f28419497f9722a3daafe3b4186f6b6457e060405160405180910390a350565b6124ff612fdd565b8060178190555050565b601460069054906101000a900463ffffffff1681565b6060601660009054906101000a900460ff1615612573576040518060400160405280601381526020017f56524620676173206665657320696e204554480000000000000000000000000081525090506125ac565b6040518060400160405280601481526020017f56524620676173206665657320696e204c494e4b00000000000000000000000081525090505b90565b60125481565b60008060009054906101000a900473ffffffffffffffffffffffffffffffffffffffff16905090565b6125e66125b5565b73ffffffffffffffffffffffffffffffffffffffff163373ffffffffffffffffffffffffffffffffffffffff161415801561266f5750600960009054906101000a900473ffffffffffffffffffffffffffffffffffffffff1673ffffffffffffffffffffffffffffffffffffffff163373ffffffffffffffffffffffffffffffffffffffff1614155b156126de573361267d6125b5565b600960009054906101000a900473ffffffffffffffffffffffffffffffffffffffff166040517f061db9c10000000000000000000000000000000000000000000000000000000081526004016126d593929190615aa3565b60405180910390fd5b600073ffffffffffffffffffffffffffffffffffffffff168173ffffffffffffffffffffffffffffffffffffffff1603612744576040517fd92e233d00000000000000000000000000000000000000000000000000000000815260040160405180910390fd5b80600960006101000a81548173ffffffffffffffffffffffffffffffffffffffff021916908373ffffffffffffffffffffffffffffffffffffffff1602179055507fd1a6a14209a385a964d036e404cb5cfb71f4000cdb03c9366292430787261be6816040516127b49190614840565b60405180910390a150565b6060600380546127ce9061540b565b80601f01602080910402602001604051908101604052809291908181526020018280546127fa9061540b565b80156128475780601f1061281c57610100808354040283529160200191612847565b820191906000526020600020905b81548152906001019060200180831161282a57829003601f168201915b5050505050905090565b600960009054906101000a900473ffffffffffffffffffffffffffffffffffffffff1681565b612889612882612fc3565b8383613540565b5050565b6000600e60008381526020019081526020016000206003015490506000600e600084815260200190815260200160002060010160009054906101000a900473ffffffffffffffffffffffffffffffffffffffff169050813414612925576040517f08c379a000000000000000000000000000000000000000000000000000000000815260040161291c90615b4c565b60405180910390fd5b33600e600085815260200190815260200160002060020160006101000a81548173ffffffffffffffffffffffffffffffffffffffff021916908373ffffffffffffffffffffffffffffffffffffffff1602179055506001600e600085815260200190815260200160002060040160006101000a81548160ff0219169083151502179055506000600e600085815260200190815260200160002060010160006101000a81548173ffffffffffffffffffffffffffffffffffffffff021916908373ffffffffffffffffffffffffffffffffffffffff160217905550612a156001600b54610ddb90919063ffffffff16565b600b81905550612a263033856136af565b600d60009054906101000a900473ffffffffffffffffffffffffffffffffffffffff1673ffffffffffffffffffffffffffffffffffffffff166108fc600c549081150290604051600060405180830381858888f19350505050158015612a90573d6000803e3d6000fd5b508073ffffffffffffffffffffffffffffffffffffffff166108fc349081150290604051600060405180830381858888f19350505050158015612ad7573d6000803e3d6000fd5b50505050565b6060601d6000838152602001908152602001600020805480602002602001604051908101604052809291908181526020018280548015612b3c57602002820191906000526020600020905b815481526020019060010190808311612b28575b50505050509050919050565b601460049054906101000a900461ffff1681565b612b67848484611747565b612b7b612b72612fc3565b8585858561381c565b50505050565b60195481565b6060612b9282612efe565b506000600860008481526020019081526020016000208054612bb39061540b565b80601f0160208091040260200160405190810160405280929190818152602001828054612bdf9061540b565b8015612c2c5780601f10612c0157610100808354040283529160200191612c2c565b820191906000526020600020905b815481529060010190602001808311612c0f57829003601f168201915b505050505090506000612c3d6139cd565b90506000815103612c52578192505050612c95565b600082511115612c87578082604051602001612c6f929190615b6c565b60405160208183030381529060405292505050612c95565b612c90846139e4565b925050505b919050565b60185481565b6000601854905090565b6000600760008473ffffffffffffffffffffffffffffffffffffffff1673ffffffffffffffffffffffffffffffffffffffff16815260200190815260200160002060008373ffffffffffffffffffffffffffffffffffffffff1673ffffffffffffffffffffffffffffffffffffffff16815260200190815260200160002060009054906101000a900460ff16905092915050565b612d488282613a4d565b5050565b612d54612fdd565b612d5d81613c54565b50565b60108181548110612d7057600080fd5b906000526020600020016000915090505481565b60607f92fd13387c7fe7befbc38d303d6468778fb9731bc4583f17d92989c6fcfdeaaa82604051602401612db89190615bac565b604051602081830303815290604052907bffffffffffffffffffffffffffffffffffffffffffffffffffffffff19166020820180517bffffffffffffffffffffffffffffffffffffffffffffffffffffffff83818316178352505050509050919050565b60007f80ac58cd000000000000000000000000000000000000000000000000000000007bffffffffffffffffffffffffffffffffffffffffffffffffffffffff1916827bffffffffffffffffffffffffffffffffffffffffffffffffffffffff19161480612ee757507f5b5e139f000000000000000000000000000000000000000000000000000000007bffffffffffffffffffffffffffffffffffffffffffffffffffffffff1916827bffffffffffffffffffffffffffffffffffffffffffffffffffffffff1916145b80612ef75750612ef682613d80565b5b9050919050565b600080612f0a83613dea565b9050600073ffffffffffffffffffffffffffffffffffffffff168173ffffffffffffffffffffffffffffffffffffffff1603612f7d57826040517f7e273289000000000000000000000000000000000000000000000000000000008152600401612f74919061492f565b60405180910390fd5b80915050919050565b60006006600083815260200190815260200160002060009054906101000a900473ffffffffffffffffffffffffffffffffffffffff169050919050565b600033905090565b612fd88383836001613e27565b505050565b60008054906101000a900473ffffffffffffffffffffffffffffffffffffffff1673ffffffffffffffffffffffffffffffffffffffff163373ffffffffffffffffffffffffffffffffffffffff161461306b576040517f08c379a000000000000000000000000000000000000000000000000000000000815260040161306290615c13565b60405180910390fd5b565b81816010919061307e929190614328565b506130fe828280806020026020016040519081016040528093929190818152602001838360200280828437600081840152601f19601f82011690508083019250505050505050601a600086815260200190815260200160002060009054906101000a900473ffffffffffffffffffffffffffffffffffffffff1685611d61565b505050565b60008061310f84613dea565b9050600073ffffffffffffffffffffffffffffffffffffffff168373ffffffffffffffffffffffffffffffffffffffff161461315157613150818486613fec565b5b600073ffffffffffffffffffffffffffffffffffffffff168173ffffffffffffffffffffffffffffffffffffffff16146131e257613193600085600080613e27565b6001600560008373ffffffffffffffffffffffffffffffffffffffff1673ffffffffffffffffffffffffffffffffffffffff168152602001908152602001600020600082825403925050819055505b600073ffffffffffffffffffffffffffffffffffffffff168573ffffffffffffffffffffffffffffffffffffffff1614613265576001600560008773ffffffffffffffffffffffffffffffffffffffff1673ffffffffffffffffffffffffffffffffffffffff168152602001908152602001600020600082825401925050819055505b846004600086815260200190815260200160002060006101000a81548173ffffffffffffffffffffffffffffffffffffffff021916908373ffffffffffffffffffffffffffffffffffffffff160217905550838573ffffffffffffffffffffffffffffffffffffffff168273ffffffffffffffffffffffffffffffffffffffff167fddf252ad1be2c89b69c2b068fc378daa952ba7f163c4a11628f55a4df523b3ef60405160405180910390a4809150509392505050565b60606000600161332c846140b0565b01905060008167ffffffffffffffff81111561334b5761334a614bd3565b5b6040519080825280601f01601f19166020018201604052801561337d5781602001600182028036833780820191505090505b509050600082602001820190505b6001156133e0578080600190039150507f3031323334353637383961626364656600000000000000000000000000000000600a86061a8153600a85816133d4576133d361585f565b5b0494506000850361338b575b819350505050919050565b600073ffffffffffffffffffffffffffffffffffffffff168273ffffffffffffffffffffffffffffffffffffffff160361345d5760006040517f64a0ae920000000000000000000000000000000000000000000000000000000081526004016134549190614840565b60405180910390fd5b600061346b83836000613103565b9050600073ffffffffffffffffffffffffffffffffffffffff168173ffffffffffffffffffffffffffffffffffffffff16146134df5760006040517f73c6ac6e0000000000000000000000000000000000000000000000000000000081526004016134d69190614840565b60405180910390fd5b505050565b8060086000848152602001908152602001600020908161350491906156b5565b507ff8e1a15aba9398e019f0b49df1a4fde98ee17ae345cb5f6b5e2c27f5033e8ce782604051613534919061492f565b60405180910390a15050565b600073ffffffffffffffffffffffffffffffffffffffff168273ffffffffffffffffffffffffffffffffffffffff16036135b157816040517f5b08ba180000000000000000000000000000000000000000000000000000000081526004016135a89190614840565b60405180910390fd5b80600760008573ffffffffffffffffffffffffffffffffffffffff1673ffffffffffffffffffffffffffffffffffffffff16815260200190815260200160002060008473ffffffffffffffffffffffffffffffffffffffff1673ffffffffffffffffffffffffffffffffffffffff16815260200190815260200160002060006101000a81548160ff0219169083151502179055508173ffffffffffffffffffffffffffffffffffffffff168373ffffffffffffffffffffffffffffffffffffffff167f17307eab39ab6107e8899845ad3d59bd9653f200f220920489ca2b5937696c31836040516136a29190614555565b60405180910390a3505050565b600073ffffffffffffffffffffffffffffffffffffffff168273ffffffffffffffffffffffffffffffffffffffff16036137215760006040517f64a0ae920000000000000000000000000000000000000000000000000000000081526004016137189190614840565b60405180910390fd5b600061372f83836000613103565b9050600073ffffffffffffffffffffffffffffffffffffffff168173ffffffffffffffffffffffffffffffffffffffff16036137a257816040517f7e273289000000000000000000000000000000000000000000000000000000008152600401613799919061492f565b60405180910390fd5b8373ffffffffffffffffffffffffffffffffffffffff168173ffffffffffffffffffffffffffffffffffffffff1614613816578382826040517f64283d7b00000000000000000000000000000000000000000000000000000000815260040161380d939291906154dc565b60405180910390fd5b50505050565b60008373ffffffffffffffffffffffffffffffffffffffff163b11156139c6578273ffffffffffffffffffffffffffffffffffffffff1663150b7a02868685856040518563ffffffff1660e01b815260040161387b9493929190615c7d565b6020604051808303816000875af19250505080156138b757506040513d601f19601f820116820180604052508101906138b49190615cde565b60015b61393b573d80600081146138e7576040519150601f19603f3d011682016040523d82523d6000602084013e6138ec565b606091505b50600081510361393357836040517f64a0ae9200000000000000000000000000000000000000000000000000000000815260040161392a9190614840565b60405180910390fd5b805181602001fd5b63150b7a0260e01b7bffffffffffffffffffffffffffffffffffffffffffffffffffffffff1916817bffffffffffffffffffffffffffffffffffffffffffffffffffffffff1916146139c457836040517f64a0ae920000000000000000000000000000000000000000000000000000000081526004016139bb9190614840565b60405180910390fd5b505b5050505050565b606060405180602001604052806000815250905090565b60606139ef82612efe565b5060006139fa6139cd565b90506000815111613a1a5760405180602001604052806000815250613a45565b80613a248461331d565b604051602001613a35929190615b6c565b6040516020818303038152906040525b915050919050565b60008111613a90576040517f08c379a0000000000000000000000000000000000000000000000000000000008152600401613a8790615d57565b60405180910390fd5b613aa66001600b54610daf90919063ffffffff16565b600b819055506000600e60008481526020019081526020016000206005015490506040518060c001604052808481526020013373ffffffffffffffffffffffffffffffffffffffff1681526020013073ffffffffffffffffffffffffffffffffffffffff16815260200183815260200160001515815260200182815250600e60008581526020019081526020016000206000820151816000015560208201518160010160006101000a81548173ffffffffffffffffffffffffffffffffffffffff021916908373ffffffffffffffffffffffffffffffffffffffff16021790555060408201518160020160006101000a81548173ffffffffffffffffffffffffffffffffffffffff021916908373ffffffffffffffffffffffffffffffffffffffff1602179055506060820151816003015560808201518160040160006101000a81548160ff02191690831515021790555060a08201518160050155905050613c103330856136af565b827f3cf8eaa46d9accaa9c8e76a1b58ee317d0eac0885fb7635711309f21e5a25fb93330856000604051613c479493929190615d77565b60405180910390a2505050565b3373ffffffffffffffffffffffffffffffffffffffff168173ffffffffffffffffffffffffffffffffffffffff1603613cc2576040517f08c379a0000000000000000000000000000000000000000000000000000000008152600401613cb990615e08565b60405180910390fd5b80600160006101000a81548173ffffffffffffffffffffffffffffffffffffffff021916908373ffffffffffffffffffffffffffffffffffffffff1602179055508073ffffffffffffffffffffffffffffffffffffffff1660008054906101000a900473ffffffffffffffffffffffffffffffffffffffff1673ffffffffffffffffffffffffffffffffffffffff167fed8889f560326eb138920d842192f0eb3dd22b4f139c87a2c57538e05bae127860405160405180910390a350565b60007f01ffc9a7000000000000000000000000000000000000000000000000000000007bffffffffffffffffffffffffffffffffffffffffffffffffffffffff1916827bffffffffffffffffffffffffffffffffffffffffffffffffffffffff1916149050919050565b60006004600083815260200190815260200160002060009054906101000a900473ffffffffffffffffffffffffffffffffffffffff169050919050565b8080613e605750600073ffffffffffffffffffffffffffffffffffffffff168273ffffffffffffffffffffffffffffffffffffffff1614155b15613f94576000613e7084612efe565b9050600073ffffffffffffffffffffffffffffffffffffffff168373ffffffffffffffffffffffffffffffffffffffff1614158015613edb57508273ffffffffffffffffffffffffffffffffffffffff168173ffffffffffffffffffffffffffffffffffffffff1614155b8015613eee5750613eec8184612caa565b155b15613f3057826040517fa9fbf51f000000000000000000000000000000000000000000000000000000008152600401613f279190614840565b60405180910390fd5b8115613f9257838573ffffffffffffffffffffffffffffffffffffffff168273ffffffffffffffffffffffffffffffffffffffff167f8c5be1e5ebec7d5bd14f71427d1e84f3dd0314c0f7b2291e5b200ac8c7c3b92560405160405180910390a45b505b836006600085815260200190815260200160002060006101000a81548173ffffffffffffffffffffffffffffffffffffffff021916908373ffffffffffffffffffffffffffffffffffffffff16021790555050505050565b613ff7838383614203565b6140ab57600073ffffffffffffffffffffffffffffffffffffffff168373ffffffffffffffffffffffffffffffffffffffff160361406c57806040517f7e273289000000000000000000000000000000000000000000000000000000008152600401614063919061492f565b60405180910390fd5b81816040517f177e802f0000000000000000000000000000000000000000000000000000000081526004016140a2929190615e28565b60405180910390fd5b505050565b600080600090507a184f03e93ff9f4daa797ed6e38ed64bf6a1f010000000000000000831061410e577a184f03e93ff9f4daa797ed6e38ed64bf6a1f01000000000000000083816141045761410361585f565b5b0492506040810190505b6d04ee2d6d415b85acef8100000000831061414b576d04ee2d6d415b85acef810000000083816141415761414061585f565b5b0492506020810190505b662386f26fc10000831061417a57662386f26fc1000083816141705761416f61585f565b5b0492506010810190505b6305f5e10083106141a3576305f5e10083816141995761419861585f565b5b0492506008810190505b61271083106141c85761271083816141be576141bd61585f565b5b0492506004810190505b606483106141eb57606483816141e1576141e061585f565b5b0492506002810190505b600a83106141fa576001810190505b80915050919050565b60008073ffffffffffffffffffffffffffffffffffffffff168373ffffffffffffffffffffffffffffffffffffffff16141580156142bb57508273ffffffffffffffffffffffffffffffffffffffff168473ffffffffffffffffffffffffffffffffffffffff16148061427c575061427b8484612caa565b5b806142ba57508273ffffffffffffffffffffffffffffffffffffffff166142a283612f86565b73ffffffffffffffffffffffffffffffffffffffff16145b5b90509392505050565b6040518060c0016040528060008152602001600073ffffffffffffffffffffffffffffffffffffffff168152602001600073ffffffffffffffffffffffffffffffffffffffff16815260200160008152602001600015158152602001600081525090565b828054828255906000526020600020908101928215614364579160200282015b82811115614363578235825591602001919060010190614348565b5b5090506143719190614375565b5090565b5b8082111561438e576000816000905550600101614376565b5090565b600082825260208201905092915050565b7f416c6c2063617264207061636b73206172652063757272656e746c7920736f6c60008201527f64206f7574000000000000000000000000000000000000000000000000000000602082015250565b60006143ff602583614392565b915061440a826143a3565b604082019050919050565b6000602082019050818103600083015261442e816143f2565b9050919050565b7f496e636f7272656374207061796d656e7420616d6f756e740000000000000000600082015250565b600061446b601883614392565b915061447682614435565b602082019050919050565b6000602082019050818103600083015261449a8161445e565b9050919050565b6000604051905090565b600080fd5b600080fd5b60007fffffffff0000000000000000000000000000000000000000000000000000000082169050919050565b6144ea816144b5565b81146144f557600080fd5b50565b600081359050614507816144e1565b92915050565b600060208284031215614523576145226144ab565b5b6000614531848285016144f8565b91505092915050565b60008115159050919050565b61454f8161453a565b82525050565b600060208201905061456a6000830184614546565b92915050565b600081519050919050565b60005b8381101561459957808201518184015260208101905061457e565b60008484015250505050565b6000601f19601f8301169050919050565b60006145c182614570565b6145cb8185614392565b93506145db81856020860161457b565b6145e4816145a5565b840191505092915050565b6000602082019050818103600083015261460981846145b6565b905092915050565b600081519050919050565b600082825260208201905092915050565b6000819050602082019050919050565b6000819050919050565b6146508161463d565b82525050565b600073ffffffffffffffffffffffffffffffffffffffff82169050919050565b600061468182614656565b9050919050565b61469181614676565b82525050565b6146a08161453a565b82525050565b60c0820160008201516146bc6000850182614647565b5060208201516146cf6020850182614688565b5060408201516146e26040850182614688565b5060608201516146f56060850182614647565b5060808201516147086080850182614697565b5060a082015161471b60a0850182614647565b50505050565b600061472d83836146a6565b60c08301905092915050565b6000602082019050919050565b600061475182614611565b61475b818561461c565b93506147668361462d565b8060005b8381101561479757815161477e8882614721565b975061478983614739565b92505060018101905061476a565b5085935050505092915050565b600060208201905081810360008301526147be8184614746565b905092915050565b6147cf8161463d565b81146147da57600080fd5b50565b6000813590506147ec816147c6565b92915050565b600060208284031215614808576148076144ab565b5b6000614816848285016147dd565b91505092915050565b600061482a82614656565b9050919050565b61483a8161481f565b82525050565b60006020820190506148556000830184614831565b92915050565b6148648161481f565b811461486f57600080fd5b50565b6000813590506148818161485b565b92915050565b6000806040838503121561489e5761489d6144ab565b5b60006148ac85828601614872565b92505060206148bd858286016147dd565b9150509250929050565b6148d08161453a565b81146148db57600080fd5b50565b6000813590506148ed816148c7565b92915050565b600060208284031215614909576149086144ab565b5b6000614917848285016148de565b91505092915050565b6149298161463d565b82525050565b60006020820190506149446000830184614920565b92915050565b600080fd5b600080fd5b600080fd5b60008083601f84011261496f5761496e61494a565b5b8235905067ffffffffffffffff81111561498c5761498b61494f565b5b6020830191508360208202830111156149a8576149a7614954565b5b9250929050565b6000806000604084860312156149c8576149c76144ab565b5b60006149d6868287016147dd565b935050602084013567ffffffffffffffff8111156149f7576149f66144b0565b5b614a0386828701614959565b92509250509250925092565b600080600060608486031215614a2857614a276144ab565b5b6000614a3686828701614872565b9350506020614a4786828701614872565b9250506040614a58868287016147dd565b9150509250925092565b600063ffffffff82169050919050565b614a7b81614a62565b82525050565b6000602082019050614a966000830184614a72565b92915050565b600060208284031215614ab257614ab16144ab565b5b6000614ac084828501614872565b91505092915050565b600081519050919050565b600082825260208201905092915050565b6000819050602082019050919050565b6000614b018383614647565b60208301905092915050565b6000602082019050919050565b6000614b2582614ac9565b614b2f8185614ad4565b9350614b3a83614ae5565b8060005b83811015614b6b578151614b528882614af5565b9750614b5d83614b0d565b925050600181019050614b3e565b5085935050505092915050565b60006020820190508181036000830152614b928184614b1a565b905092915050565b6000819050919050565b614bad81614b9a565b82525050565b6000602082019050614bc86000830184614ba4565b92915050565b600080fd5b7f4e487b7100000000000000000000000000000000000000000000000000000000600052604160045260246000fd5b614c0b826145a5565b810181811067ffffffffffffffff82111715614c2a57614c29614bd3565b5b80604052505050565b6000614c3d6144a1565b9050614c498282614c02565b919050565b600067ffffffffffffffff821115614c6957614c68614bd3565b5b614c72826145a5565b9050602081019050919050565b82818337600083830152505050565b6000614ca1614c9c84614c4e565b614c33565b905082815260208101848484011115614cbd57614cbc614bce565b5b614cc8848285614c7f565b509392505050565b600082601f830112614ce557614ce461494a565b5b8135614cf5848260208601614c8e565b91505092915050565b600060208284031215614d1457614d136144ab565b5b600082013567ffffffffffffffff811115614d3257614d316144b0565b5b614d3e84828501614cd0565b91505092915050565b600067ffffffffffffffff821115614d6257614d61614bd3565b5b602082029050602081019050919050565b6000614d86614d8184614d47565b614c33565b90508083825260208201905060208402830185811115614da957614da8614954565b5b835b81811015614dd25780614dbe88826147dd565b845260208401935050602081019050614dab565b5050509392505050565b600082601f830112614df157614df061494a565b5b8135614e01848260208601614d73565b91505092915050565b600080600060608486031215614e2357614e226144ab565b5b600084013567ffffffffffffffff811115614e4157614e406144b0565b5b614e4d86828701614ddc565b9350506020614e5e86828701614872565b9250506040614e6f868287016147dd565b9150509250925092565b600080600060608486031215614e9257614e916144ab565b5b600084013567ffffffffffffffff811115614eb057614eaf6144b0565b5b614ebc86828701614cd0565b9350506020614ecd86828701614872565b9250506040614ede868287016147dd565b9150509250925092565b6000819050919050565b6000614f0d614f08614f0384614656565b614ee8565b614656565b9050919050565b6000614f1f82614ef2565b9050919050565b6000614f3182614f14565b9050919050565b614f4181614f26565b82525050565b6000602082019050614f5c6000830184614f38565b92915050565b60008060408385031215614f7957614f786144ab565b5b6000614f8785828601614872565b9250506020614f98858286016148de565b9150509250929050565b600061ffff82169050919050565b614fb981614fa2565b82525050565b6000602082019050614fd46000830184614fb0565b92915050565b600067ffffffffffffffff821115614ff557614ff4614bd3565b5b614ffe826145a5565b9050602081019050919050565b600061501e61501984614fda565b614c33565b90508281526020810184848401111561503a57615039614bce565b5b615045848285614c7f565b509392505050565b600082601f8301126150625761506161494a565b5b813561507284826020860161500b565b91505092915050565b60008060008060808587031215615095576150946144ab565b5b60006150a387828801614872565b94505060206150b487828801614872565b93505060406150c5878288016147dd565b925050606085013567ffffffffffffffff8111156150e6576150e56144b0565b5b6150f28782880161504d565b91505092959194509250565b60008060408385031215615115576151146144ab565b5b600061512385828601614872565b925050602061513485828601614872565b9150509250929050565b60008060408385031215615155576151546144ab565b5b6000615163858286016147dd565b9250506020615174858286016147dd565b9150509250929050565b7f4e487b7100000000000000000000000000000000000000000000000000000000600052601160045260246000fd5b60006151b88261463d565b91506151c38361463d565b92508282019050808211156151db576151da61517e565b5b92915050565b7f4e487b7100000000000000000000000000000000000000000000000000000000600052600160045260246000fd5b600061521b8261463d565b91506152268361463d565b925082820390508181111561523e5761523d61517e565b5b92915050565b61524d81614b9a565b82525050565b61525c81614fa2565b82525050565b61526b81614a62565b82525050565b600081519050919050565b600082825260208201905092915050565b600061529882615271565b6152a2818561527c565b93506152b281856020860161457b565b6152bb816145a5565b840191505092915050565b600060c0830160008301516152de6000860182615244565b5060208301516152f16020860182614647565b5060408301516153046040860182615253565b5060608301516153176060860182615262565b50608083015161532a6080860182615262565b5060a083015184820360a0860152615342828261528d565b9150508091505092915050565b6000602082019050818103600083015261536981846152c6565b905092915050565b600081519050615380816147c6565b92915050565b60006020828403121561539c5761539b6144ab565b5b60006153aa84828501615371565b91505092915050565b60006040820190506153c86000830185614920565b6153d56020830184614831565b9392505050565b7f4e487b7100000000000000000000000000000000000000000000000000000000600052602260045260246000fd5b6000600282049050600182168061542357607f821691505b602082108103615436576154356153dc565b5b50919050565b7f4e487b7100000000000000000000000000000000000000000000000000000000600052603260045260246000fd5b60006154768261463d565b91507fffffffffffffffffffffffffffffffffffffffffffffffffffffffffffffffff82036154a8576154a761517e565b5b600182019050919050565b60006040820190506154c86000830185614831565b6154d56020830184614831565b9392505050565b60006060820190506154f16000830186614831565b6154fe6020830185614920565b61550b6040830184614831565b949350505050565b60008190508160005260206000209050919050565b60006020601f8301049050919050565b600082821b905092915050565b6000600883026155757fffffffffffffffffffffffffffffffffffffffffffffffffffffffffffffffff82615538565b61557f8683615538565b95508019841693508086168417925050509392505050565b60006155b26155ad6155a88461463d565b614ee8565b61463d565b9050919050565b6000819050919050565b6155cc83615597565b6155e06155d8826155b9565b848454615545565b825550505050565b600090565b6155f56155e8565b6156008184846155c3565b505050565b5b81811015615624576156196000826155ed565b600181019050615606565b5050565b601f8211156156695761563a81615513565b61564384615528565b81016020851015615652578190505b61566661565e85615528565b830182615605565b50505b505050565b600082821c905092915050565b600061568c6000198460080261566e565b1980831691505092915050565b60006156a5838361567b565b9150826002028217905092915050565b6156be82614570565b67ffffffffffffffff8111156156d7576156d6614bd3565b5b6156e1825461540b565b6156ec828285615628565b600060209050601f83116001811461571f576000841561570d578287015190505b6157178582615699565b86555061577f565b601f19841661572d86615513565b60005b8281101561575557848901518255600182019150602085019450602081019050615730565b86831015615772578489015161576e601f89168261567b565b8355505b6001600288020188555050505b505050505050565b7f457870656374656420582072616e646f6d206e756d6265727300000000000000600082015250565b60006157bd601983614392565b91506157c882615787565b602082019050919050565b600060208201905081810360008301526157ec816157b0565b9050919050565b7f526563697069656e74206164647265737320697320696e76616c696400000000600082015250565b6000615829601c83614392565b9150615834826157f3565b602082019050919050565b600060208201905081810360008301526158588161581c565b9050919050565b7f4e487b7100000000000000000000000000000000000000000000000000000000600052601260045260246000fd5b60006158998261463d565b91506158a48361463d565b9250826158b4576158b361585f565b5b828206905092915050565b600081905092915050565b600081546158d78161540b565b6158e181866158bf565b945060018216600081146158fc576001811461591157615944565b60ff1983168652811515820286019350615944565b61591a85615513565b60005b8381101561593c5781548189015260018201915060208101905061591d565b838801955050505b50505092915050565b600061595882614570565b61596281856158bf565b935061597281856020860161457b565b80840191505092915050565b7f2e6a736f6e000000000000000000000000000000000000000000000000000000600082015250565b60006159b46005836158bf565b91506159bf8261597e565b600582019050919050565b60006159d682856158ca565b91506159e2828461594d565b91506159ed826159a7565b91508190509392505050565b6000606082019050615a0e6000830186614920565b615a1b6020830185614831565b8181036040830152615a2d81846145b6565b9050949350505050565b7f4d7573742062652070726f706f736564206f776e657200000000000000000000600082015250565b6000615a6d601683614392565b9150615a7882615a37565b602082019050919050565b60006020820190508181036000830152615a9c81615a60565b9050919050565b6000606082019050615ab86000830186614831565b615ac56020830185614831565b615ad26040830184614831565b949350505050565b7f506c65617365207375626d6974207468652061736b696e67207072696365206960008201527f6e206f7264657220746f20636f6d706c65746520746865207075726368617365602082015250565b6000615b36604083614392565b9150615b4182615ada565b604082019050919050565b60006020820190508181036000830152615b6581615b29565b9050919050565b6000615b78828561594d565b9150615b84828461594d565b91508190509392505050565b602082016000820151615ba66000850182614697565b50505050565b6000602082019050615bc16000830184615b90565b92915050565b7f4f6e6c792063616c6c61626c65206279206f776e657200000000000000000000600082015250565b6000615bfd601683614392565b9150615c0882615bc7565b602082019050919050565b60006020820190508181036000830152615c2c81615bf0565b9050919050565b600082825260208201905092915050565b6000615c4f82615271565b615c598185615c33565b9350615c6981856020860161457b565b615c72816145a5565b840191505092915050565b6000608082019050615c926000830187614831565b615c9f6020830186614831565b615cac6040830185614920565b8181036060830152615cbe8184615c44565b905095945050505050565b600081519050615cd8816144e1565b92915050565b600060208284031215615cf457615cf36144ab565b5b6000615d0284828501615cc9565b91505092915050565b7f5072696365206d757374206265206174206c6561737420312077656900000000600082015250565b6000615d41601c83614392565b9150615d4c82615d0b565b602082019050919050565b60006020820190508181036000830152615d7081615d34565b9050919050565b6000608082019050615d8c6000830187614831565b615d996020830186614831565b615da66040830185614920565b615db36060830184614546565b95945050505050565b7f43616e6e6f74207472616e7366657220746f2073656c66000000000000000000600082015250565b6000615df2601783614392565b9150615dfd82615dbc565b602082019050919050565b60006020820190508181036000830152615e2181615de5565b9050919050565b6000604082019050615e3d6000830185614831565b615e4a6020830184614920565b939250505056fea2646970667358221220b3c350d6e430924d4a74367b5fbebf2122d0d87ff74671778480d7738e05917f64736f6c6343000814003368747470733a2f2f677265656e2d6d616e75616c2d6261646765722d33372e6d7970696e6174612e636c6f75642f697066732f62616679626569646c7667706c6d6b357262616d636f3363636d7a326279347662357067696136687465736d6e79626b34636f6d683779696276342f",
  "linkReferences": {},
  "deployedLinkReferences": {}
}