{
  "_format": "hh-sol-artifact-1",
  "contractName": "CardMintPack",
  "sourceName": "contracts/CardMintPack.sol",
  "abi": [
    {
      "inputs": [
        {
          "internalType": "uint256",
          "name": "subscriptionId",
          "type": "uint256"
        }
      ],
      "stateMutability": "nonpayable",
      "type": "constructor"
    },
    {
      "inputs": [
        {
          "internalType": "address",
          "name": "sender",
          "type": "address"
        },
        {
          "internalType": "uint256",
          "name": "tokenId",
          "type": "uint256"
        },
        {
          "internalType": "address",
          "name": "owner",
          "type": "address"
        }
      ],
      "name": "ERC721IncorrectOwner",
      "type": "error"
    },
    {
      "inputs": [
        {
          "internalType": "address",
          "name": "operator",
          "type": "address"
        },
        {
          "internalType": "uint256",
          "name": "tokenId",
          "type": "uint256"
        }
      ],
      "name": "ERC721InsufficientApproval",
      "type": "error"
    },
    {
      "inputs": [
        {
          "internalType": "address",
          "name": "approver",
          "type": "address"
        }
      ],
      "name": "ERC721InvalidApprover",
      "type": "error"
    },
    {
      "inputs": [
        {
          "internalType": "address",
          "name": "operator",
          "type": "address"
        }
      ],
      "name": "ERC721InvalidOperator",
      "type": "error"
    },
    {
      "inputs": [
        {
          "internalType": "address",
          "name": "owner",
          "type": "address"
        }
      ],
      "name": "ERC721InvalidOwner",
      "type": "error"
    },
    {
      "inputs": [
        {
          "internalType": "address",
          "name": "receiver",
          "type": "address"
        }
      ],
      "name": "ERC721InvalidReceiver",
      "type": "error"
    },
    {
      "inputs": [
        {
          "internalType": "address",
          "name": "sender",
          "type": "address"
        }
      ],
      "name": "ERC721InvalidSender",
      "type": "error"
    },
    {
      "inputs": [
        {
          "internalType": "uint256",
          "name": "tokenId",
          "type": "uint256"
        }
      ],
      "name": "ERC721NonexistentToken",
      "type": "error"
    },
    {
      "inputs": [
        {
          "internalType": "address",
          "name": "have",
          "type": "address"
        },
        {
          "internalType": "address",
          "name": "want",
          "type": "address"
        }
      ],
      "name": "OnlyCoordinatorCanFulfill",
      "type": "error"
    },
    {
      "inputs": [
        {
          "internalType": "address",
          "name": "have",
          "type": "address"
        },
        {
          "internalType": "address",
          "name": "owner",
          "type": "address"
        },
        {
          "internalType": "address",
          "name": "coordinator",
          "type": "address"
        }
      ],
      "name": "OnlyOwnerOrCoordinator",
      "type": "error"
    },
    {
      "inputs": [],
      "name": "ZeroAddress",
      "type": "error"
    },
    {
      "anonymous": false,
      "inputs": [
        {
          "indexed": true,
          "internalType": "address",
          "name": "owner",
          "type": "address"
        },
        {
          "indexed": true,
          "internalType": "address",
          "name": "approved",
          "type": "address"
        },
        {
          "indexed": true,
          "internalType": "uint256",
          "name": "tokenId",
          "type": "uint256"
        }
      ],
      "name": "Approval",
      "type": "event"
    },
    {
      "anonymous": false,
      "inputs": [
        {
          "indexed": true,
          "internalType": "address",
          "name": "owner",
          "type": "address"
        },
        {
          "indexed": true,
          "internalType": "address",
          "name": "operator",
          "type": "address"
        },
        {
          "indexed": false,
          "internalType": "bool",
          "name": "approved",
          "type": "bool"
        }
      ],
      "name": "ApprovalForAll",
      "type": "event"
    },
    {
      "anonymous": false,
      "inputs": [
        {
          "indexed": false,
          "internalType": "uint256",
          "name": "_fromTokenId",
          "type": "uint256"
        },
        {
          "indexed": false,
          "internalType": "uint256",
          "name": "_toTokenId",
          "type": "uint256"
        }
      ],
      "name": "BatchMetadataUpdate",
      "type": "event"
    },
    {
      "anonymous": false,
      "inputs": [
        {
          "indexed": false,
          "internalType": "uint256",
          "name": "tokenId",
          "type": "uint256"
        },
        {
          "indexed": false,
          "internalType": "address",
          "name": "owner",
          "type": "address"
        },
        {
          "indexed": false,
          "internalType": "string",
          "name": "metadataURI",
          "type": "string"
        }
      ],
      "name": "CardMinted",
      "type": "event"
    },
    {
      "anonymous": false,
      "inputs": [
        {
          "indexed": false,
          "internalType": "address",
          "name": "vrfCoordinator",
          "type": "address"
        }
      ],
      "name": "CoordinatorSet",
      "type": "event"
    },
    {
      "anonymous": false,
      "inputs": [
        {
          "indexed": true,
          "internalType": "uint256",
          "name": "tokenId",
          "type": "uint256"
        },
        {
          "indexed": false,
          "internalType": "address",
          "name": "seller",
          "type": "address"
        },
        {
          "indexed": false,
          "internalType": "address",
          "name": "owner",
          "type": "address"
        },
        {
          "indexed": false,
          "internalType": "uint256",
          "name": "price",
          "type": "uint256"
        },
        {
          "indexed": false,
          "internalType": "bool",
          "name": "sold",
          "type": "bool"
        }
      ],
      "name": "ListingCreated",
      "type": "event"
    },
    {
      "anonymous": false,
      "inputs": [
        {
          "indexed": true,
          "internalType": "uint256",
          "name": "tokenId",
          "type": "uint256"
        },
        {
          "indexed": false,
          "internalType": "address",
          "name": "seller",
          "type": "address"
        }
      ],
      "name": "ListingRemoved",
      "type": "event"
    },
    {
      "anonymous": false,
      "inputs": [
        {
          "indexed": false,
          "internalType": "uint256",
          "name": "_tokenId",
          "type": "uint256"
        }
      ],
      "name": "MetadataUpdate",
      "type": "event"
    },
    {
      "anonymous": false,
      "inputs": [
        {
          "indexed": true,
          "internalType": "address",
          "name": "from",
          "type": "address"
        },
        {
          "indexed": true,
          "internalType": "address",
          "name": "to",
          "type": "address"
        }
      ],
      "name": "OwnershipTransferRequested",
      "type": "event"
    },
    {
      "anonymous": false,
      "inputs": [
        {
          "indexed": true,
          "internalType": "address",
          "name": "from",
          "type": "address"
        },
        {
          "indexed": true,
          "internalType": "address",
          "name": "to",
          "type": "address"
        }
      ],
      "name": "OwnershipTransferred",
      "type": "event"
    },
    {
      "anonymous": false,
      "inputs": [
        {
          "indexed": true,
          "internalType": "address",
          "name": "buyer",
          "type": "address"
        },
        {
          "indexed": false,
          "internalType": "uint256",
          "name": "packId",
          "type": "uint256"
        },
        {
          "indexed": false,
          "internalType": "uint256",
          "name": "requestId",
          "type": "uint256"
        }
      ],
      "name": "PackPurchased",
      "type": "event"
    },
    {
      "anonymous": false,
      "inputs": [
        {
          "indexed": false,
          "internalType": "uint256",
          "name": "requestId",
          "type": "uint256"
        },
        {
          "indexed": false,
          "internalType": "uint256[]",
          "name": "randomWords",
          "type": "uint256[]"
        }
      ],
      "name": "RandomnessFulfilled",
      "type": "event"
    },
    {
      "anonymous": false,
      "inputs": [
        {
          "indexed": false,
          "internalType": "uint256",
          "name": "requestId",
          "type": "uint256"
        },
        {
          "indexed": false,
          "internalType": "address",
          "name": "requester",
          "type": "address"
        }
      ],
      "name": "RandomnessRequested",
      "type": "event"
    },
    {
      "anonymous": false,
      "inputs": [
        {
          "indexed": true,
          "internalType": "address",
          "name": "from",
          "type": "address"
        },
        {
          "indexed": true,
          "internalType": "address",
          "name": "to",
          "type": "address"
        },
        {
          "indexed": true,
          "internalType": "uint256",
          "name": "tokenId",
          "type": "uint256"
        }
      ],
      "name": "Transfer",
      "type": "event"
    },
    {
      "inputs": [],
      "name": "acceptOwnership",
      "outputs": [],
      "stateMutability": "nonpayable",
      "type": "function"
    },
    {
      "inputs": [
        {
          "internalType": "address",
          "name": "to",
          "type": "address"
        },
        {
          "internalType": "uint256",
          "name": "tokenId",
          "type": "uint256"
        }
      ],
      "name": "approve",
      "outputs": [],
      "stateMutability": "nonpayable",
      "type": "function"
    },
    {
      "inputs": [
        {
          "internalType": "address",
          "name": "owner",
          "type": "address"
        }
      ],
      "name": "balanceOf",
      "outputs": [
        {
          "internalType": "uint256",
          "name": "",
          "type": "uint256"
        }
      ],
      "stateMutability": "view",
      "type": "function"
    },
    {
      "inputs": [],
      "name": "baseURI",
      "outputs": [
        {
          "internalType": "string",
          "name": "",
          "type": "string"
        }
      ],
      "stateMutability": "view",
      "type": "function"
    },
    {
      "inputs": [
        {
          "internalType": "uint256[]",
          "name": "_randomWords",
          "type": "uint256[]"
        },
        {
          "internalType": "address",
          "name": "recipient",
          "type": "address"
        },
        {
          "internalType": "uint256",
          "name": "requestId",
          "type": "uint256"
        }
      ],
      "name": "batchMint",
      "outputs": [],
      "stateMutability": "nonpayable",
      "type": "function"
    },
    {
      "inputs": [],
      "name": "callbackGasLimit",
      "outputs": [
        {
          "internalType": "uint32",
          "name": "",
          "type": "uint32"
        }
      ],
      "stateMutability": "view",
      "type": "function"
    },
    {
      "inputs": [
        {
          "internalType": "uint256",
          "name": "",
          "type": "uint256"
        }
      ],
      "name": "cardIndexes",
      "outputs": [
        {
          "internalType": "uint256",
          "name": "",
          "type": "uint256"
        }
      ],
      "stateMutability": "view",
      "type": "function"
    },
    {
      "inputs": [
        {
          "internalType": "string",
          "name": "tokenURI",
          "type": "string"
        },
        {
          "internalType": "address",
          "name": "recipient",
          "type": "address"
        }
      ],
      "name": "createToken",
      "outputs": [
        {
          "internalType": "uint256",
          "name": "",
          "type": "uint256"
        }
      ],
      "stateMutability": "payable",
      "type": "function"
    },
    {
      "inputs": [],
      "name": "fetchItemsListed",
      "outputs": [
        {
          "components": [
            {
              "internalType": "uint256",
              "name": "tokenId",
              "type": "uint256"
            },
            {
              "internalType": "address payable",
              "name": "seller",
              "type": "address"
            },
            {
              "internalType": "address payable",
              "name": "owner",
              "type": "address"
            },
            {
              "internalType": "uint256",
              "name": "price",
              "type": "uint256"
            },
            {
              "internalType": "bool",
              "name": "sold",
              "type": "bool"
            }
          ],
          "internalType": "struct NFTplace.Listing[]",
          "name": "",
          "type": "tuple[]"
        }
      ],
      "stateMutability": "view",
      "type": "function"
    },
    {
      "inputs": [],
      "name": "fetchListingMarketplace",
      "outputs": [
        {
          "components": [
            {
              "internalType": "uint256",
              "name": "tokenId",
              "type": "uint256"
            },
            {
              "internalType": "address payable",
              "name": "seller",
              "type": "address"
            },
            {
              "internalType": "address payable",
              "name": "owner",
              "type": "address"
            },
            {
              "internalType": "uint256",
              "name": "price",
              "type": "uint256"
            },
            {
              "internalType": "bool",
              "name": "sold",
              "type": "bool"
            }
          ],
          "internalType": "struct NFTplace.Listing[]",
          "name": "",
          "type": "tuple[]"
        }
      ],
      "stateMutability": "view",
      "type": "function"
    },
    {
      "inputs": [],
      "name": "fetchMyNFTs",
      "outputs": [
        {
          "components": [
            {
              "internalType": "uint256",
              "name": "tokenId",
              "type": "uint256"
            },
            {
              "internalType": "address payable",
              "name": "seller",
              "type": "address"
            },
            {
              "internalType": "address payable",
              "name": "owner",
              "type": "address"
            },
            {
              "internalType": "uint256",
              "name": "price",
              "type": "uint256"
            },
            {
              "internalType": "bool",
              "name": "sold",
              "type": "bool"
            }
          ],
          "internalType": "struct NFTplace.Listing[]",
          "name": "",
          "type": "tuple[]"
        }
      ],
      "stateMutability": "view",
      "type": "function"
    },
    {
      "inputs": [
        {
          "internalType": "uint256",
          "name": "tokenId",
          "type": "uint256"
        }
      ],
      "name": "getApproved",
      "outputs": [
        {
          "internalType": "address",
          "name": "",
          "type": "address"
        }
      ],
      "stateMutability": "view",
      "type": "function"
    },
    {
      "inputs": [
        {
          "internalType": "uint256",
          "name": "tokenId",
          "type": "uint256"
        }
      ],
      "name": "getCardIndexFromId",
      "outputs": [
        {
          "internalType": "uint256",
          "name": "",
          "type": "uint256"
        }
      ],
      "stateMutability": "view",
      "type": "function"
    },
    {
      "inputs": [],
      "name": "getContractOwner",
      "outputs": [
        {
          "internalType": "address",
          "name": "",
          "type": "address"
        }
      ],
      "stateMutability": "view",
      "type": "function"
    },
    {
      "inputs": [],
      "name": "getListingPrice",
      "outputs": [
        {
          "internalType": "uint256",
          "name": "",
          "type": "uint256"
        }
      ],
      "stateMutability": "view",
      "type": "function"
    },
    {
      "inputs": [
        {
          "internalType": "address",
          "name": "user",
          "type": "address"
        }
      ],
      "name": "getMintedTokens",
      "outputs": [
        {
          "internalType": "uint256[]",
          "name": "",
          "type": "uint256[]"
        }
      ],
      "stateMutability": "view",
      "type": "function"
    },
    {
      "inputs": [
        {
          "internalType": "uint256",
          "name": "requestId",
          "type": "uint256"
        }
      ],
      "name": "getMintedTokensFromRequest",
      "outputs": [
        {
          "internalType": "uint256[]",
          "name": "",
          "type": "uint256[]"
        }
      ],
      "stateMutability": "view",
      "type": "function"
    },
    {
      "inputs": [],
      "name": "getNativePayment",
      "outputs": [
        {
          "internalType": "string",
          "name": "",
          "type": "string"
        }
      ],
      "stateMutability": "view",
      "type": "function"
    },
    {
      "inputs": [],
      "name": "getPacksAvailable",
      "outputs": [
        {
          "internalType": "uint256",
          "name": "",
          "type": "uint256"
        }
      ],
      "stateMutability": "view",
      "type": "function"
    },
    {
      "inputs": [],
      "name": "getTotalPacksSold",
      "outputs": [
        {
          "internalType": "uint256",
          "name": "",
          "type": "uint256"
        }
      ],
      "stateMutability": "view",
      "type": "function"
    },
    {
      "inputs": [
        {
          "internalType": "address",
          "name": "owner",
          "type": "address"
        },
        {
          "internalType": "address",
          "name": "operator",
          "type": "address"
        }
      ],
      "name": "isApprovedForAll",
      "outputs": [
        {
          "internalType": "bool",
          "name": "",
          "type": "bool"
        }
      ],
      "stateMutability": "view",
      "type": "function"
    },
    {
      "inputs": [
        {
          "internalType": "uint256",
          "name": "tokenId",
          "type": "uint256"
        },
        {
          "internalType": "uint256",
          "name": "price",
          "type": "uint256"
        }
      ],
      "name": "listCard",
      "outputs": [],
      "stateMutability": "payable",
      "type": "function"
    },
    {
      "inputs": [],
      "name": "name",
      "outputs": [
        {
          "internalType": "string",
          "name": "",
          "type": "string"
        }
      ],
      "stateMutability": "view",
      "type": "function"
    },
    {
      "inputs": [],
      "name": "nextTokenId",
      "outputs": [
        {
          "internalType": "uint256",
          "name": "",
          "type": "uint256"
        }
      ],
      "stateMutability": "view",
      "type": "function"
    },
    {
      "inputs": [],
      "name": "numWords",
      "outputs": [
        {
          "internalType": "uint32",
          "name": "",
          "type": "uint32"
        }
      ],
      "stateMutability": "view",
      "type": "function"
    },
    {
      "inputs": [],
      "name": "owner",
      "outputs": [
        {
          "internalType": "address",
          "name": "",
          "type": "address"
        }
      ],
      "stateMutability": "view",
      "type": "function"
    },
    {
      "inputs": [
        {
          "internalType": "uint256",
          "name": "tokenId",
          "type": "uint256"
        }
      ],
      "name": "ownerOf",
      "outputs": [
        {
          "internalType": "address",
          "name": "",
          "type": "address"
        }
      ],
      "stateMutability": "view",
      "type": "function"
    },
    {
      "inputs": [],
      "name": "packPrice",
      "outputs": [
        {
          "internalType": "uint256",
          "name": "",
          "type": "uint256"
        }
      ],
      "stateMutability": "view",
      "type": "function"
    },
    {
      "inputs": [],
      "name": "packsAvailable",
      "outputs": [
        {
          "internalType": "uint256",
          "name": "",
          "type": "uint256"
        }
      ],
      "stateMutability": "view",
      "type": "function"
    },
    {
      "inputs": [
        {
          "internalType": "uint256",
          "name": "tokenId",
          "type": "uint256"
        }
      ],
      "name": "purchaseCard",
      "outputs": [],
      "stateMutability": "payable",
      "type": "function"
    },
    {
      "inputs": [
        {
          "internalType": "uint256",
          "name": "requestId",
          "type": "uint256"
        },
        {
          "internalType": "uint256[]",
          "name": "randomWords",
          "type": "uint256[]"
        }
      ],
      "name": "rawFulfillRandomWords",
      "outputs": [],
      "stateMutability": "nonpayable",
      "type": "function"
    },
    {
      "inputs": [],
      "name": "requestConfirmations",
      "outputs": [
        {
          "internalType": "uint16",
          "name": "",
          "type": "uint16"
        }
      ],
      "stateMutability": "view",
      "type": "function"
    },
    {
      "inputs": [],
      "name": "requestRandomWords",
      "outputs": [
        {
          "internalType": "uint256",
          "name": "requestId",
          "type": "uint256"
        }
      ],
      "stateMutability": "nonpayable",
      "type": "function"
    },
    {
      "inputs": [],
      "name": "s_keyHash",
      "outputs": [
        {
          "internalType": "bytes32",
          "name": "",
          "type": "bytes32"
        }
      ],
      "stateMutability": "view",
      "type": "function"
    },
    {
      "inputs": [
        {
          "internalType": "uint256",
          "name": "",
          "type": "uint256"
        }
      ],
      "name": "s_randomWords",
      "outputs": [
        {
          "internalType": "uint256",
          "name": "",
          "type": "uint256"
        }
      ],
      "stateMutability": "view",
      "type": "function"
    },
    {
      "inputs": [
        {
          "internalType": "uint256",
          "name": "",
          "type": "uint256"
        }
      ],
      "name": "s_requestToSender",
      "outputs": [
        {
          "internalType": "address",
          "name": "",
          "type": "address"
        }
      ],
      "stateMutability": "view",
      "type": "function"
    },
    {
      "inputs": [],
      "name": "s_subscriptionId",
      "outputs": [
        {
          "internalType": "uint256",
          "name": "",
          "type": "uint256"
        }
      ],
      "stateMutability": "view",
      "type": "function"
    },
    {
      "inputs": [],
      "name": "s_vrfCoordinator",
      "outputs": [
        {
          "internalType": "contract IVRFCoordinatorV2Plus",
          "name": "",
          "type": "address"
        }
      ],
      "stateMutability": "view",
      "type": "function"
    },
    {
      "inputs": [
        {
          "internalType": "address",
          "name": "from",
          "type": "address"
        },
        {
          "internalType": "address",
          "name": "to",
          "type": "address"
        },
        {
          "internalType": "uint256",
          "name": "tokenId",
          "type": "uint256"
        }
      ],
      "name": "safeTransferFrom",
      "outputs": [],
      "stateMutability": "nonpayable",
      "type": "function"
    },
    {
      "inputs": [
        {
          "internalType": "address",
          "name": "from",
          "type": "address"
        },
        {
          "internalType": "address",
          "name": "to",
          "type": "address"
        },
        {
          "internalType": "uint256",
          "name": "tokenId",
          "type": "uint256"
        },
        {
          "internalType": "bytes",
          "name": "data",
          "type": "bytes"
        }
      ],
      "name": "safeTransferFrom",
      "outputs": [],
      "stateMutability": "nonpayable",
      "type": "function"
    },
    {
      "inputs": [
        {
          "internalType": "address",
          "name": "operator",
          "type": "address"
        },
        {
          "internalType": "bool",
          "name": "approved",
          "type": "bool"
        }
      ],
      "name": "setApprovalForAll",
      "outputs": [],
      "stateMutability": "nonpayable",
      "type": "function"
    },
    {
      "inputs": [
        {
          "internalType": "string",
          "name": "_baseURI",
          "type": "string"
        }
      ],
      "name": "setBaseURI",
      "outputs": [],
      "stateMutability": "nonpayable",
      "type": "function"
    },
    {
      "inputs": [
        {
          "internalType": "address",
          "name": "_vrfCoordinator",
          "type": "address"
        }
      ],
      "name": "setCoordinator",
      "outputs": [],
      "stateMutability": "nonpayable",
      "type": "function"
    },
    {
      "inputs": [
        {
          "internalType": "bool",
          "name": "_enableNativePayment",
          "type": "bool"
        }
      ],
      "name": "setNativePayment",
      "outputs": [],
      "stateMutability": "nonpayable",
      "type": "function"
    },
    {
      "inputs": [
        {
          "internalType": "bytes4",
          "name": "interfaceId",
          "type": "bytes4"
        }
      ],
      "name": "supportsInterface",
      "outputs": [
        {
          "internalType": "bool",
          "name": "",
          "type": "bool"
        }
      ],
      "stateMutability": "view",
      "type": "function"
    },
    {
      "inputs": [],
      "name": "symbol",
      "outputs": [
        {
          "internalType": "string",
          "name": "",
          "type": "string"
        }
      ],
      "stateMutability": "view",
      "type": "function"
    },
    {
      "inputs": [
        {
          "internalType": "uint256",
          "name": "tokenId",
          "type": "uint256"
        }
      ],
      "name": "tokenURI",
      "outputs": [
        {
          "internalType": "string",
          "name": "",
          "type": "string"
        }
      ],
      "stateMutability": "view",
      "type": "function"
    },
    {
      "inputs": [],
      "name": "totalPacksSold",
      "outputs": [
        {
          "internalType": "uint256",
          "name": "",
          "type": "uint256"
        }
      ],
      "stateMutability": "view",
      "type": "function"
    },
    {
      "inputs": [
        {
          "internalType": "address",
          "name": "from",
          "type": "address"
        },
        {
          "internalType": "address",
          "name": "to",
          "type": "address"
        },
        {
          "internalType": "uint256",
          "name": "tokenId",
          "type": "uint256"
        }
      ],
      "name": "transferFrom",
      "outputs": [],
      "stateMutability": "nonpayable",
      "type": "function"
    },
    {
      "inputs": [
        {
          "internalType": "address",
          "name": "to",
          "type": "address"
        }
      ],
      "name": "transferOwnership",
      "outputs": [],
      "stateMutability": "nonpayable",
      "type": "function"
    },
    {
      "inputs": [
        {
          "internalType": "uint256",
          "name": "newPrice",
          "type": "uint256"
        }
      ],
      "name": "updatePackPrice",
      "outputs": [],
      "stateMutability": "nonpayable",
      "type": "function"
    },
    {
      "inputs": [
        {
          "internalType": "uint256",
          "name": "newQty",
          "type": "uint256"
        }
      ],
      "name": "updatePacksAvailable",
      "outputs": [],
      "stateMutability": "nonpayable",
      "type": "function"
    },
    {
      "inputs": [],
      "name": "withdraw",
      "outputs": [],
      "stateMutability": "nonpayable",
      "type": "function"
    },
    {
      "stateMutability": "payable",
      "type": "receive"
    }
  ],
  "bytecode": "0x6080604052655af3107a4000600c557f787d74caea10b2b357790d5b5247c2f63d1d91572a9846f780606e4d953677ae60001b601355621e8480601460006101000a81548163ffffffff021916908363ffffffff1602179055506003601460046101000a81548161ffff021916908361ffff1602179055506005601460066101000a81548163ffffffff021916908363ffffffff1602179055506040518060a00160405280607481526020016200667e6074913960159081620000c3919062000756565b5066038d7ea4c680006017556064601855348015620000e157600080fd5b50604051620066f2380380620066f2833981810160405281019062000107919062000873565b739ddfaca8183c41ad55329bdeed9f6a8d53168b1b6040518060400160405280600c81526020017f5a6f6465636b20436172647300000000000000000000000000000000000000008152506040518060400160405280600381526020017f5a444b0000000000000000000000000000000000000000000000000000000000815250338060008073ffffffffffffffffffffffffffffffffffffffff168273ffffffffffffffffffffffffffffffffffffffff1603620001fd576040517f08c379a0000000000000000000000000000000000000000000000000000000008152600401620001f49062000906565b60405180910390fd5b816000806101000a81548173ffffffffffffffffffffffffffffffffffffffff021916908373ffffffffffffffffffffffffffffffffffffffff160217905550600073ffffffffffffffffffffffffffffffffffffffff168173ffffffffffffffffffffffffffffffffffffffff161462000284576200028381620003ad60201b60201c565b5b505050816002908162000298919062000756565b508060039081620002aa919062000756565b505050600073ffffffffffffffffffffffffffffffffffffffff168173ffffffffffffffffffffffffffffffffffffffff160362000314576040517fd92e233d00000000000000000000000000000000000000000000000000000000815260040160405180910390fd5b80600960006101000a81548173ffffffffffffffffffffffffffffffffffffffff021916908373ffffffffffffffffffffffffffffffffffffffff1602179055505033600d60006101000a81548173ffffffffffffffffffffffffffffffffffffffff021916908373ffffffffffffffffffffffffffffffffffffffff160217905550806012819055506000601981905550506200099a565b3373ffffffffffffffffffffffffffffffffffffffff168173ffffffffffffffffffffffffffffffffffffffff16036200041e576040517f08c379a0000000000000000000000000000000000000000000000000000000008152600401620004159062000978565b60405180910390fd5b80600160006101000a81548173ffffffffffffffffffffffffffffffffffffffff021916908373ffffffffffffffffffffffffffffffffffffffff1602179055508073ffffffffffffffffffffffffffffffffffffffff1660008054906101000a900473ffffffffffffffffffffffffffffffffffffffff1673ffffffffffffffffffffffffffffffffffffffff167fed8889f560326eb138920d842192f0eb3dd22b4f139c87a2c57538e05bae127860405160405180910390a350565b600081519050919050565b7f4e487b7100000000000000000000000000000000000000000000000000000000600052604160045260246000fd5b7f4e487b7100000000000000000000000000000000000000000000000000000000600052602260045260246000fd5b600060028204905060018216806200055e57607f821691505b60208210810362000574576200057362000516565b5b50919050565b60008190508160005260206000209050919050565b60006020601f8301049050919050565b600082821b905092915050565b600060088302620005de7fffffffffffffffffffffffffffffffffffffffffffffffffffffffffffffffff826200059f565b620005ea86836200059f565b95508019841693508086168417925050509392505050565b6000819050919050565b6000819050919050565b600062000637620006316200062b8462000602565b6200060c565b62000602565b9050919050565b6000819050919050565b620006538362000616565b6200066b62000662826200063e565b848454620005ac565b825550505050565b600090565b6200068262000673565b6200068f81848462000648565b505050565b5b81811015620006b757620006ab60008262000678565b60018101905062000695565b5050565b601f8211156200070657620006d0816200057a565b620006db846200058f565b81016020851015620006eb578190505b62000703620006fa856200058f565b83018262000694565b50505b505050565b600082821c905092915050565b60006200072b600019846008026200070b565b1980831691505092915050565b600062000746838362000718565b9150826002028217905092915050565b6200076182620004dc565b67ffffffffffffffff8111156200077d576200077c620004e7565b5b62000789825462000545565b62000796828285620006bb565b600060209050601f831160018114620007ce5760008415620007b9578287015190505b620007c5858262000738565b86555062000835565b601f198416620007de866200057a565b60005b828110156200080857848901518255600182019150602085019450602081019050620007e1565b8683101562000828578489015162000824601f89168262000718565b8355505b6001600288020188555050505b505050505050565b600080fd5b6200084d8162000602565b81146200085957600080fd5b50565b6000815190506200086d8162000842565b92915050565b6000602082840312156200088c576200088b6200083d565b5b60006200089c848285016200085c565b91505092915050565b600082825260208201905092915050565b7f43616e6e6f7420736574206f776e657220746f207a65726f0000000000000000600082015250565b6000620008ee601883620008a5565b9150620008fb82620008b6565b602082019050919050565b600060208201905081810360008301526200092181620008df565b9050919050565b7f43616e6e6f74207472616e7366657220746f2073656c66000000000000000000600082015250565b600062000960601783620008a5565b91506200096d8262000928565b602082019050919050565b60006020820190508181036000830152620009938162000951565b9050919050565b615cd480620009aa6000396000f3fe60806040526004361061031e5760003560e01c80636c0360eb116101ab578063a22cb465116100f7578063d759000b11610095578063e985e9c51161006f578063e985e9c514610c98578063ed36c52f14610cd5578063f2fde38b14610cf1578063f6eaffc814610d1a576103ee565b8063d759000b14610c17578063d917bf3e14610c42578063e0c8628914610c6d576103ee565b8063b0fb162f116100d1578063b0fb162f14610b5b578063b88d4fde14610b86578063c0abba9e14610baf578063c87b56dd14610bda576103ee565b8063a22cb46514610ad9578063a54447aa14610b02578063ad49ba1b14610b1e576103ee565b80637f95e4b3116101645780638ea981171161013e5780638ea9811714610a2a57806395d89b4114610a535780639eccacf614610a7e578063a211937714610aa9576103ee565b80637f95e4b3146109a95780638ac00021146109d45780638da5cb5b146109ff576103ee565b80636c0360eb146108ab57806370a08231146108d657806375794a3c1461091357806379ba50971461093e5780637cc539b4146109555780637ccfd7fc1461097e576103ee565b80632e602d291161026a578063442890d51161022357806355901bb0116101fd57806355901bb0146107f157806355f804b31461081c5780636273ce9b146108455780636352211e1461086e576103ee565b8063442890d51461077057806345bb327b1461079b57806345f8fa80146107c6576103ee565b80632e602d291461064e578063335c8b631461068b5780633ccfd60b146106b65780634129c1c1146106cd57806342842e0e1461070a578063434a49a114610733576103ee565b806312e85585116102d7578063202e3740116102b1578063202e37401461059257806323b872dd146105bd57806324f74697146105e65780632916b13014610611576103ee565b806312e85585146105155780631a01d53a146105405780631fe543e314610569576103ee565b806301ffc9a7146103f357806306fdde031461043057806307c11e0d1461045b578063081812fc14610486578063095ea7b3146104c35780630c6dcd31146104ec576103ee565b366103ee57600060185411610368576040517f08c379a000000000000000000000000000000000000000000000000000000000815260040161035f906142c3565b60405180910390fd5b60175434146103ac576040517f08c379a00000000000000000000000000000000000000000000000000000000081526004016103a39061432f565b60405180910390fd5b6103c26001601954610d5790919063ffffffff16565b6019819055506103de6001601854610d8390919063ffffffff16565b6018819055506103ec610daa565b005b600080fd5b3480156103ff57600080fd5b5061041a600480360381019061041591906143bb565b610f75565b6040516104279190614403565b60405180910390f35b34801561043c57600080fd5b50610445610fd6565b604051610452919061449d565b60405180910390f35b34801561046757600080fd5b50610470611068565b60405161047d919061463f565b60405180910390f35b34801561049257600080fd5b506104ad60048036038101906104a8919061468d565b6112af565b6040516104ba91906146db565b60405180910390f35b3480156104cf57600080fd5b506104ea60048036038101906104e59190614722565b6112cb565b005b3480156104f857600080fd5b50610513600480360381019061050e919061478e565b6112e1565b005b34801561052157600080fd5b5061052a611306565b60405161053791906147ca565b60405180910390f35b34801561054c57600080fd5b506105676004803603810190610562919061468d565b611310565b005b34801561057557600080fd5b50610590600480360381019061058b919061484a565b611322565b005b34801561059e57600080fd5b506105a76113e8565b6040516105b4919061463f565b60405180910390f35b3480156105c957600080fd5b506105e460048036038101906105df91906148aa565b6116db565b005b3480156105f257600080fd5b506105fb6117dd565b604051610608919061491c565b60405180910390f35b34801561061d57600080fd5b506106386004803603810190610633919061468d565b6117f3565b60405161064591906147ca565b60405180910390f35b34801561065a57600080fd5b506106756004803603810190610670919061468d565b611810565b60405161068291906146db565b60405180910390f35b34801561069757600080fd5b506106a0611843565b6040516106ad91906147ca565b60405180910390f35b3480156106c257600080fd5b506106cb611849565b005b3480156106d957600080fd5b506106f460048036038101906106ef919061468d565b6118a7565b60405161070191906147ca565b60405180910390f35b34801561071657600080fd5b50610731600480360381019061072c91906148aa565b6118bf565b005b34801561073f57600080fd5b5061075a60048036038101906107559190614937565b6118df565b6040516107679190614a13565b60405180910390f35b34801561077c57600080fd5b50610785611976565b60405161079291906146db565b60405180910390f35b3480156107a757600080fd5b506107b06119a0565b6040516107bd9190614a4e565b60405180910390f35b3480156107d257600080fd5b506107db6119a6565b6040516107e8919061463f565b60405180910390f35b3480156107fd57600080fd5b50610806611c99565b60405161081391906147ca565b60405180910390f35b34801561082857600080fd5b50610843600480360381019061083e9190614b99565b611ca3565b005b34801561085157600080fd5b5061086c60048036038101906108679190614ca5565b611cbe565b005b34801561087a57600080fd5b506108956004803603810190610890919061468d565b611fce565b6040516108a291906146db565b60405180910390f35b3480156108b757600080fd5b506108c0611fe0565b6040516108cd919061449d565b60405180910390f35b3480156108e257600080fd5b506108fd60048036038101906108f89190614937565b61206e565b60405161090a91906147ca565b60405180910390f35b34801561091f57600080fd5b50610928612128565b60405161093591906147ca565b60405180910390f35b34801561094a57600080fd5b5061095361212e565b005b34801561096157600080fd5b5061097c6004803603810190610977919061468d565b6122c3565b005b34801561098a57600080fd5b506109936122d5565b6040516109a0919061491c565b60405180910390f35b3480156109b557600080fd5b506109be6122eb565b6040516109cb919061449d565b60405180910390f35b3480156109e057600080fd5b506109e961237b565b6040516109f691906147ca565b60405180910390f35b348015610a0b57600080fd5b50610a14612381565b604051610a2191906146db565b60405180910390f35b348015610a3657600080fd5b50610a516004803603810190610a4c9190614937565b6123aa565b005b348015610a5f57600080fd5b50610a6861258b565b604051610a75919061449d565b60405180910390f35b348015610a8a57600080fd5b50610a9361261d565b604051610aa09190614d73565b60405180910390f35b610ac36004803603810190610abe9190614d8e565b612643565b604051610ad091906147ca565b60405180910390f35b348015610ae557600080fd5b50610b006004803603810190610afb9190614dea565b6127b6565b005b610b1c6004803603810190610b17919061468d565b6127cc565b005b348015610b2a57600080fd5b50610b456004803603810190610b40919061468d565b6129be565b604051610b529190614a13565b60405180910390f35b348015610b6757600080fd5b50610b70612a29565b604051610b7d9190614e47565b60405180910390f35b348015610b9257600080fd5b50610bad6004803603810190610ba89190614f03565b612a3d565b005b348015610bbb57600080fd5b50610bc4612a62565b604051610bd191906147ca565b60405180910390f35b348015610be657600080fd5b50610c016004803603810190610bfc919061468d565b612a68565b604051610c0e919061449d565b60405180910390f35b348015610c2357600080fd5b50610c2c612b7b565b604051610c3991906147ca565b60405180910390f35b348015610c4e57600080fd5b50610c57612b81565b604051610c6491906147ca565b60405180910390f35b348015610c7957600080fd5b50610c82610daa565b604051610c8f91906147ca565b60405180910390f35b348015610ca457600080fd5b50610cbf6004803603810190610cba9190614f86565b612b8b565b604051610ccc9190614403565b60405180910390f35b610cef6004803603810190610cea9190614fc6565b612c1f565b005b348015610cfd57600080fd5b50610d186004803603810190610d139190614937565b612c2d565b005b348015610d2657600080fd5b50610d416004803603810190610d3c919061468d565b612c41565b604051610d4e91906147ca565b60405180910390f35b6000808284610d669190615035565b905083811015610d7957610d78615069565b5b8091505092915050565b600082821115610d9657610d95615069565b5b8183610da29190615098565b905092915050565b6000600960009054906101000a900473ffffffffffffffffffffffffffffffffffffffff1673ffffffffffffffffffffffffffffffffffffffff16639b1c385e6040518060c0016040528060135481526020016012548152602001601460049054906101000a900461ffff1661ffff168152602001601460009054906101000a900463ffffffff1663ffffffff168152602001601460069054906101000a900463ffffffff1663ffffffff168152602001610e836040518060200160405280601660009054906101000a900460ff161515815250612c65565b8152506040518263ffffffff1660e01b8152600401610ea291906151d7565b6020604051808303816000875af1158015610ec1573d6000803e3d6000fd5b505050506040513d601f19601f82011682018060405250810190610ee5919061520e565b905033601a600083815260200190815260200160002060006101000a81548173ffffffffffffffffffffffffffffffffffffffff021916908373ffffffffffffffffffffffffffffffffffffffff1602179055507f28f521cf7abd0044cba5bb040c5217ff69a4e5865f5262905018698e68fe7d008133604051610f6a92919061523b565b60405180910390a190565b6000634906490660e01b7bffffffffffffffffffffffffffffffffffffffffffffffffffffffff1916827bffffffffffffffffffffffffffffffffffffffffffffffffffffffff19161480610fcf5750610fce82612cfd565b5b9050919050565b606060028054610fe590615293565b80601f016020809104026020016040519081016040528092919081815260200182805461101190615293565b801561105e5780601f106110335761010080835404028352916020019161105e565b820191906000526020600020905b81548152906001019060200180831161104157829003601f168201915b5050505050905090565b60606000600a549050600080600b5467ffffffffffffffff8111156110905761108f614a6e565b5b6040519080825280602002602001820160405280156110c957816020015b6110b6614179565b8152602001906001900390816110ae5790505b50905060005b838110156112a5573073ffffffffffffffffffffffffffffffffffffffff16600e60006001846110ff9190615035565b815260200190815260200160002060020160009054906101000a900473ffffffffffffffffffffffffffffffffffffffff1673ffffffffffffffffffffffffffffffffffffffff160361129257600060018261115b9190615035565b90506000600e60008381526020019081526020016000209050806040518060a0016040529081600082015481526020016001820160009054906101000a900473ffffffffffffffffffffffffffffffffffffffff1673ffffffffffffffffffffffffffffffffffffffff1673ffffffffffffffffffffffffffffffffffffffff1681526020016002820160009054906101000a900473ffffffffffffffffffffffffffffffffffffffff1673ffffffffffffffffffffffffffffffffffffffff1673ffffffffffffffffffffffffffffffffffffffff168152602001600382015481526020016004820160009054906101000a900460ff16151515158152505084868151811061126e5761126d6152c4565b5b602002602001018190525061128d600186610d5790919063ffffffff16565b945050505b808061129d906152f3565b9150506110cf565b5080935050505090565b60006112ba82612ddf565b506112c482612e67565b9050919050565b6112dd82826112d8612ea4565b612eac565b5050565b6112e9612ebe565b80601660006101000a81548160ff02191690831515021790555050565b6000600c54905090565b611318612ebe565b8060188190555050565b600960009054906101000a900473ffffffffffffffffffffffffffffffffffffffff1673ffffffffffffffffffffffffffffffffffffffff163373ffffffffffffffffffffffffffffffffffffffff16146113d85733600960009054906101000a900473ffffffffffffffffffffffffffffffffffffffff166040517f1cf993f40000000000000000000000000000000000000000000000000000000081526004016113cf92919061533b565b60405180910390fd5b6113e3838383612f4e565b505050565b60606000600a54905060008060005b8381101561149e573373ffffffffffffffffffffffffffffffffffffffff16600e60006001846114279190615035565b815260200190815260200160002060020160009054906101000a900473ffffffffffffffffffffffffffffffffffffffff1673ffffffffffffffffffffffffffffffffffffffff160361148b57611488600184610d5790919063ffffffff16565b92505b8080611496906152f3565b9150506113f7565b5060008267ffffffffffffffff8111156114bb576114ba614a6e565b5b6040519080825280602002602001820160405280156114f457816020015b6114e1614179565b8152602001906001900390816114d95790505b50905060005b848110156116d0573373ffffffffffffffffffffffffffffffffffffffff16600e600060018461152a9190615035565b815260200190815260200160002060020160009054906101000a900473ffffffffffffffffffffffffffffffffffffffff1673ffffffffffffffffffffffffffffffffffffffff16036116bd5760006001826115869190615035565b90506000600e60008381526020019081526020016000209050806040518060a0016040529081600082015481526020016001820160009054906101000a900473ffffffffffffffffffffffffffffffffffffffff1673ffffffffffffffffffffffffffffffffffffffff1673ffffffffffffffffffffffffffffffffffffffff1681526020016002820160009054906101000a900473ffffffffffffffffffffffffffffffffffffffff1673ffffffffffffffffffffffffffffffffffffffff1673ffffffffffffffffffffffffffffffffffffffff168152602001600382015481526020016004820160009054906101000a900460ff161515151581525050848681518110611699576116986152c4565b5b60200260200101819052506116b8600186610d5790919063ffffffff16565b945050505b80806116c8906152f3565b9150506114fa565b508094505050505090565b600073ffffffffffffffffffffffffffffffffffffffff168273ffffffffffffffffffffffffffffffffffffffff160361174d5760006040517f64a0ae9200000000000000000000000000000000000000000000000000000000815260040161174491906146db565b60405180910390fd5b6000611761838361175c612ea4565b612fe4565b90508373ffffffffffffffffffffffffffffffffffffffff168173ffffffffffffffffffffffffffffffffffffffff16146117d7578382826040517f64283d7b0000000000000000000000000000000000000000000000000000000081526004016117ce93929190615364565b60405180910390fd5b50505050565b601460009054906101000a900463ffffffff1681565b6000601e6000838152602001908152602001600020549050919050565b601a6020528060005260406000206000915054906101000a900473ffffffffffffffffffffffffffffffffffffffff1681565b60175481565b611851612ebe565b600061185b612381565b90508073ffffffffffffffffffffffffffffffffffffffff166108fc479081150290604051600060405180830381858888f193505050501580156118a3573d6000803e3d6000fd5b5050565b601e6020528060005260406000206000915090505481565b6118da83838360405180602001604052806000815250612a3d565b505050565b6060601c60008373ffffffffffffffffffffffffffffffffffffffff1673ffffffffffffffffffffffffffffffffffffffff16815260200190815260200160002080548060200260200160405190810160405280929190818152602001828054801561196a57602002820191906000526020600020905b815481526020019060010190808311611956575b50505050509050919050565b6000600d60009054906101000a900473ffffffffffffffffffffffffffffffffffffffff16905090565b60135481565b60606000600a54905060008060005b83811015611a5c573373ffffffffffffffffffffffffffffffffffffffff16600e60006001846119e59190615035565b815260200190815260200160002060010160009054906101000a900473ffffffffffffffffffffffffffffffffffffffff1673ffffffffffffffffffffffffffffffffffffffff1603611a4957611a46600184610d5790919063ffffffff16565b92505b8080611a54906152f3565b9150506119b5565b5060008267ffffffffffffffff811115611a7957611a78614a6e565b5b604051908082528060200260200182016040528015611ab257816020015b611a9f614179565b815260200190600190039081611a975790505b50905060005b84811015611c8e573373ffffffffffffffffffffffffffffffffffffffff16600e6000600184611ae89190615035565b815260200190815260200160002060010160009054906101000a900473ffffffffffffffffffffffffffffffffffffffff1673ffffffffffffffffffffffffffffffffffffffff1603611c7b576000600182611b449190615035565b90506000600e60008381526020019081526020016000209050806040518060a0016040529081600082015481526020016001820160009054906101000a900473ffffffffffffffffffffffffffffffffffffffff1673ffffffffffffffffffffffffffffffffffffffff1673ffffffffffffffffffffffffffffffffffffffff1681526020016002820160009054906101000a900473ffffffffffffffffffffffffffffffffffffffff1673ffffffffffffffffffffffffffffffffffffffff1673ffffffffffffffffffffffffffffffffffffffff168152602001600382015481526020016004820160009054906101000a900460ff161515151581525050848681518110611c5757611c566152c4565b5b6020026020010181905250611c76600186610d5790919063ffffffff16565b945050505b8080611c86906152f3565b915050611ab8565b508094505050505090565b6000601954905090565b611cab612ebe565b8060159081611cba919061553d565b5050565b601460069054906101000a900463ffffffff1663ffffffff16835114611d19576040517f08c379a0000000000000000000000000000000000000000000000000000000008152600401611d109061565b565b60405180910390fd5b600073ffffffffffffffffffffffffffffffffffffffff168273ffffffffffffffffffffffffffffffffffffffff1603611d88576040517f08c379a0000000000000000000000000000000000000000000000000000000008152600401611d7f906156c7565b60405180910390fd5b6000835167ffffffffffffffff811115611da557611da4614a6e565b5b604051908082528060200260200182016040528015611dd35781602001602082028036833780820191505090505b50905060005b8451811015611ed35760006014868381518110611df957611df86152c4565b5b6020026020010151611e0b9190615716565b905060006015611e1a836131fe565b604051602001611e2b92919061589e565b60405160208183030381529060405290506000611e488288612643565b905080858581518110611e5e57611e5d6152c4565b5b60200260200101818152505082601e6000838152602001908152602001600020819055507fd8734743ed0c1c7547379b55d892e5cea71bc5371832ffa4149a506fbc1aa6d0818884604051611eb5939291906158d8565b60405180910390a15050508080611ecb906152f3565b915050611dd9565b5060005b8151811015611fc757601c60008573ffffffffffffffffffffffffffffffffffffffff1673ffffffffffffffffffffffffffffffffffffffff168152602001908152602001600020828281518110611f3257611f316152c4565b5b60200260200101519080600181540180825580915050600190039060005260206000200160009091909190915055601d6000848152602001908152602001600020828281518110611f8657611f856152c4565b5b602002602001015190806001815401808255809150506001900390600052602060002001600090919091909150558080611fbf906152f3565b915050611ed7565b5050505050565b6000611fd982612ddf565b9050919050565b60158054611fed90615293565b80601f016020809104026020016040519081016040528092919081815260200182805461201990615293565b80156120665780601f1061203b57610100808354040283529160200191612066565b820191906000526020600020905b81548152906001019060200180831161204957829003601f168201915b505050505081565b60008073ffffffffffffffffffffffffffffffffffffffff168273ffffffffffffffffffffffffffffffffffffffff16036120e15760006040517f89c62b640000000000000000000000000000000000000000000000000000000081526004016120d891906146db565b60405180910390fd5b600560008373ffffffffffffffffffffffffffffffffffffffff1673ffffffffffffffffffffffffffffffffffffffff168152602001908152602001600020549050919050565b60115481565b600160009054906101000a900473ffffffffffffffffffffffffffffffffffffffff1673ffffffffffffffffffffffffffffffffffffffff163373ffffffffffffffffffffffffffffffffffffffff16146121be576040517f08c379a00000000000000000000000000000000000000000000000000000000081526004016121b590615962565b60405180910390fd5b60008060009054906101000a900473ffffffffffffffffffffffffffffffffffffffff169050336000806101000a81548173ffffffffffffffffffffffffffffffffffffffff021916908373ffffffffffffffffffffffffffffffffffffffff1602179055506000600160006101000a81548173ffffffffffffffffffffffffffffffffffffffff021916908373ffffffffffffffffffffffffffffffffffffffff1602179055503373ffffffffffffffffffffffffffffffffffffffff168173ffffffffffffffffffffffffffffffffffffffff167f8be0079c531659141344cd1fd0a4f28419497f9722a3daafe3b4186f6b6457e060405160405180910390a350565b6122cb612ebe565b8060178190555050565b601460069054906101000a900463ffffffff1681565b6060601660009054906101000a900460ff161561233f576040518060400160405280601381526020017f56524620676173206665657320696e20455448000000000000000000000000008152509050612378565b6040518060400160405280601481526020017f56524620676173206665657320696e204c494e4b00000000000000000000000081525090505b90565b60125481565b60008060009054906101000a900473ffffffffffffffffffffffffffffffffffffffff16905090565b6123b2612381565b73ffffffffffffffffffffffffffffffffffffffff163373ffffffffffffffffffffffffffffffffffffffff161415801561243b5750600960009054906101000a900473ffffffffffffffffffffffffffffffffffffffff1673ffffffffffffffffffffffffffffffffffffffff163373ffffffffffffffffffffffffffffffffffffffff1614155b156124aa5733612449612381565b600960009054906101000a900473ffffffffffffffffffffffffffffffffffffffff166040517f061db9c10000000000000000000000000000000000000000000000000000000081526004016124a193929190615982565b60405180910390fd5b600073ffffffffffffffffffffffffffffffffffffffff168173ffffffffffffffffffffffffffffffffffffffff1603612510576040517fd92e233d00000000000000000000000000000000000000000000000000000000815260040160405180910390fd5b80600960006101000a81548173ffffffffffffffffffffffffffffffffffffffff021916908373ffffffffffffffffffffffffffffffffffffffff1602179055507fd1a6a14209a385a964d036e404cb5cfb71f4000cdb03c9366292430787261be68160405161258091906146db565b60405180910390a150565b60606003805461259a90615293565b80601f01602080910402602001604051908101604052809291908181526020018280546125c690615293565b80156126135780601f106125e857610100808354040283529160200191612613565b820191906000526020600020905b8154815290600101906020018083116125f657829003601f168201915b5050505050905090565b600960009054906101000a900473ffffffffffffffffffffffffffffffffffffffff1681565b600061265b6001600a54610d5790919063ffffffff16565b600a819055506000600a54905061267283826132cc565b61267c81856133c5565b6040518060a00160405280828152602001600073ffffffffffffffffffffffffffffffffffffffff1681526020018473ffffffffffffffffffffffffffffffffffffffff1681526020016000815260200160011515815250600e60008381526020019081526020016000206000820151816000015560208201518160010160006101000a81548173ffffffffffffffffffffffffffffffffffffffff021916908373ffffffffffffffffffffffffffffffffffffffff16021790555060408201518160020160006101000a81548173ffffffffffffffffffffffffffffffffffffffff021916908373ffffffffffffffffffffffffffffffffffffffff1602179055506060820151816003015560808201518160040160006101000a81548160ff0219169083151502179055509050508091505092915050565b6127c86127c1612ea4565b8383613421565b5050565b6000600e600083815260200190815260200160002060010160009054906101000a900473ffffffffffffffffffffffffffffffffffffffff16905033600e600084815260200190815260200160002060020160006101000a81548173ffffffffffffffffffffffffffffffffffffffff021916908373ffffffffffffffffffffffffffffffffffffffff1602179055506001600e600084815260200190815260200160002060040160006101000a81548160ff0219169083151502179055506000600e600084815260200190815260200160002060010160006101000a81548173ffffffffffffffffffffffffffffffffffffffff021916908373ffffffffffffffffffffffffffffffffffffffff1602179055506128f76001600b54610d8390919063ffffffff16565b600b81905550612908303384613590565b600d60009054906101000a900473ffffffffffffffffffffffffffffffffffffffff1673ffffffffffffffffffffffffffffffffffffffff166108fc600c549081150290604051600060405180830381858888f19350505050158015612972573d6000803e3d6000fd5b508073ffffffffffffffffffffffffffffffffffffffff166108fc349081150290604051600060405180830381858888f193505050501580156129b9573d6000803e3d6000fd5b505050565b6060601d6000838152602001908152602001600020805480602002602001604051908101604052809291908181526020018280548015612a1d57602002820191906000526020600020905b815481526020019060010190808311612a09575b50505050509050919050565b601460049054906101000a900461ffff1681565b612a488484846116db565b612a5c612a53612ea4565b858585856136fd565b50505050565b60195481565b6060612a7382612ddf565b506000600860008481526020019081526020016000208054612a9490615293565b80601f0160208091040260200160405190810160405280929190818152602001828054612ac090615293565b8015612b0d5780601f10612ae257610100808354040283529160200191612b0d565b820191906000526020600020905b815481529060010190602001808311612af057829003601f168201915b505050505090506000612b1e6138ae565b90506000815103612b33578192505050612b76565b600082511115612b68578082604051602001612b509291906159b9565b60405160208183030381529060405292505050612b76565b612b71846138c5565b925050505b919050565b60185481565b6000601854905090565b6000600760008473ffffffffffffffffffffffffffffffffffffffff1673ffffffffffffffffffffffffffffffffffffffff16815260200190815260200160002060008373ffffffffffffffffffffffffffffffffffffffff1673ffffffffffffffffffffffffffffffffffffffff16815260200190815260200160002060009054906101000a900460ff16905092915050565b612c29828261392e565b5050565b612c35612ebe565b612c3e81613b09565b50565b60108181548110612c5157600080fd5b906000526020600020016000915090505481565b60607f92fd13387c7fe7befbc38d303d6468778fb9731bc4583f17d92989c6fcfdeaaa82604051602401612c9991906159f9565b604051602081830303815290604052907bffffffffffffffffffffffffffffffffffffffffffffffffffffffff19166020820180517bffffffffffffffffffffffffffffffffffffffffffffffffffffffff83818316178352505050509050919050565b60007f80ac58cd000000000000000000000000000000000000000000000000000000007bffffffffffffffffffffffffffffffffffffffffffffffffffffffff1916827bffffffffffffffffffffffffffffffffffffffffffffffffffffffff19161480612dc857507f5b5e139f000000000000000000000000000000000000000000000000000000007bffffffffffffffffffffffffffffffffffffffffffffffffffffffff1916827bffffffffffffffffffffffffffffffffffffffffffffffffffffffff1916145b80612dd85750612dd782613c35565b5b9050919050565b600080612deb83613c9f565b9050600073ffffffffffffffffffffffffffffffffffffffff168173ffffffffffffffffffffffffffffffffffffffff1603612e5e57826040517f7e273289000000000000000000000000000000000000000000000000000000008152600401612e5591906147ca565b60405180910390fd5b80915050919050565b60006006600083815260200190815260200160002060009054906101000a900473ffffffffffffffffffffffffffffffffffffffff169050919050565b600033905090565b612eb98383836001613cdc565b505050565b60008054906101000a900473ffffffffffffffffffffffffffffffffffffffff1673ffffffffffffffffffffffffffffffffffffffff163373ffffffffffffffffffffffffffffffffffffffff1614612f4c576040517f08c379a0000000000000000000000000000000000000000000000000000000008152600401612f4390615a60565b60405180910390fd5b565b818160109190612f5f9291906141d6565b50612fdf828280806020026020016040519081016040528093929190818152602001838360200280828437600081840152601f19601f82011690508083019250505050505050601a600086815260200190815260200160002060009054906101000a900473ffffffffffffffffffffffffffffffffffffffff1685611cbe565b505050565b600080612ff084613c9f565b9050600073ffffffffffffffffffffffffffffffffffffffff168373ffffffffffffffffffffffffffffffffffffffff161461303257613031818486613ea1565b5b600073ffffffffffffffffffffffffffffffffffffffff168173ffffffffffffffffffffffffffffffffffffffff16146130c357613074600085600080613cdc565b6001600560008373ffffffffffffffffffffffffffffffffffffffff1673ffffffffffffffffffffffffffffffffffffffff168152602001908152602001600020600082825403925050819055505b600073ffffffffffffffffffffffffffffffffffffffff168573ffffffffffffffffffffffffffffffffffffffff1614613146576001600560008773ffffffffffffffffffffffffffffffffffffffff1673ffffffffffffffffffffffffffffffffffffffff168152602001908152602001600020600082825401925050819055505b846004600086815260200190815260200160002060006101000a81548173ffffffffffffffffffffffffffffffffffffffff021916908373ffffffffffffffffffffffffffffffffffffffff160217905550838573ffffffffffffffffffffffffffffffffffffffff168273ffffffffffffffffffffffffffffffffffffffff167fddf252ad1be2c89b69c2b068fc378daa952ba7f163c4a11628f55a4df523b3ef60405160405180910390a4809150509392505050565b60606000600161320d84613f65565b01905060008167ffffffffffffffff81111561322c5761322b614a6e565b5b6040519080825280601f01601f19166020018201604052801561325e5781602001600182028036833780820191505090505b509050600082602001820190505b6001156132c1578080600190039150507f3031323334353637383961626364656600000000000000000000000000000000600a86061a8153600a85816132b5576132b46156e7565b5b0494506000850361326c575b819350505050919050565b600073ffffffffffffffffffffffffffffffffffffffff168273ffffffffffffffffffffffffffffffffffffffff160361333e5760006040517f64a0ae9200000000000000000000000000000000000000000000000000000000815260040161333591906146db565b60405180910390fd5b600061334c83836000612fe4565b9050600073ffffffffffffffffffffffffffffffffffffffff168173ffffffffffffffffffffffffffffffffffffffff16146133c05760006040517f73c6ac6e0000000000000000000000000000000000000000000000000000000081526004016133b791906146db565b60405180910390fd5b505050565b806008600084815260200190815260200160002090816133e5919061553d565b507ff8e1a15aba9398e019f0b49df1a4fde98ee17ae345cb5f6b5e2c27f5033e8ce78260405161341591906147ca565b60405180910390a15050565b600073ffffffffffffffffffffffffffffffffffffffff168273ffffffffffffffffffffffffffffffffffffffff160361349257816040517f5b08ba1800000000000000000000000000000000000000000000000000000000815260040161348991906146db565b60405180910390fd5b80600760008573ffffffffffffffffffffffffffffffffffffffff1673ffffffffffffffffffffffffffffffffffffffff16815260200190815260200160002060008473ffffffffffffffffffffffffffffffffffffffff1673ffffffffffffffffffffffffffffffffffffffff16815260200190815260200160002060006101000a81548160ff0219169083151502179055508173ffffffffffffffffffffffffffffffffffffffff168373ffffffffffffffffffffffffffffffffffffffff167f17307eab39ab6107e8899845ad3d59bd9653f200f220920489ca2b5937696c31836040516135839190614403565b60405180910390a3505050565b600073ffffffffffffffffffffffffffffffffffffffff168273ffffffffffffffffffffffffffffffffffffffff16036136025760006040517f64a0ae920000000000000000000000000000000000000000000000000000000081526004016135f991906146db565b60405180910390fd5b600061361083836000612fe4565b9050600073ffffffffffffffffffffffffffffffffffffffff168173ffffffffffffffffffffffffffffffffffffffff160361368357816040517f7e27328900000000000000000000000000000000000000000000000000000000815260040161367a91906147ca565b60405180910390fd5b8373ffffffffffffffffffffffffffffffffffffffff168173ffffffffffffffffffffffffffffffffffffffff16146136f7578382826040517f64283d7b0000000000000000000000000000000000000000000000000000000081526004016136ee93929190615364565b60405180910390fd5b50505050565b60008373ffffffffffffffffffffffffffffffffffffffff163b11156138a7578273ffffffffffffffffffffffffffffffffffffffff1663150b7a02868685856040518563ffffffff1660e01b815260040161375c9493929190615aca565b6020604051808303816000875af192505050801561379857506040513d601f19601f820116820180604052508101906137959190615b2b565b60015b61381c573d80600081146137c8576040519150601f19603f3d011682016040523d82523d6000602084013e6137cd565b606091505b50600081510361381457836040517f64a0ae9200000000000000000000000000000000000000000000000000000000815260040161380b91906146db565b60405180910390fd5b805181602001fd5b63150b7a0260e01b7bffffffffffffffffffffffffffffffffffffffffffffffffffffffff1916817bffffffffffffffffffffffffffffffffffffffffffffffffffffffff1916146138a557836040517f64a0ae9200000000000000000000000000000000000000000000000000000000815260040161389c91906146db565b60405180910390fd5b505b5050505050565b606060405180602001604052806000815250905090565b60606138d082612ddf565b5060006138db6138ae565b905060008151116138fb5760405180602001604052806000815250613926565b80613905846131fe565b6040516020016139169291906159b9565b6040516020818303038152906040525b915050919050565b60008111613971576040517f08c379a000000000000000000000000000000000000000000000000000000000815260040161396890615ba4565b60405180910390fd5b6139876001600b54610d5790919063ffffffff16565b600b819055506040518060a001604052808381526020013373ffffffffffffffffffffffffffffffffffffffff1681526020013073ffffffffffffffffffffffffffffffffffffffff16815260200182815260200160001515815250600e60008481526020019081526020016000206000820151816000015560208201518160010160006101000a81548173ffffffffffffffffffffffffffffffffffffffff021916908373ffffffffffffffffffffffffffffffffffffffff16021790555060408201518160020160006101000a81548173ffffffffffffffffffffffffffffffffffffffff021916908373ffffffffffffffffffffffffffffffffffffffff1602179055506060820151816003015560808201518160040160006101000a81548160ff021916908315150217905550905050613ac6333084613590565b817f3cf8eaa46d9accaa9c8e76a1b58ee317d0eac0885fb7635711309f21e5a25fb93330846000604051613afd9493929190615bc4565b60405180910390a25050565b3373ffffffffffffffffffffffffffffffffffffffff168173ffffffffffffffffffffffffffffffffffffffff1603613b77576040517f08c379a0000000000000000000000000000000000000000000000000000000008152600401613b6e90615c55565b60405180910390fd5b80600160006101000a81548173ffffffffffffffffffffffffffffffffffffffff021916908373ffffffffffffffffffffffffffffffffffffffff1602179055508073ffffffffffffffffffffffffffffffffffffffff1660008054906101000a900473ffffffffffffffffffffffffffffffffffffffff1673ffffffffffffffffffffffffffffffffffffffff167fed8889f560326eb138920d842192f0eb3dd22b4f139c87a2c57538e05bae127860405160405180910390a350565b60007f01ffc9a7000000000000000000000000000000000000000000000000000000007bffffffffffffffffffffffffffffffffffffffffffffffffffffffff1916827bffffffffffffffffffffffffffffffffffffffffffffffffffffffff1916149050919050565b60006004600083815260200190815260200160002060009054906101000a900473ffffffffffffffffffffffffffffffffffffffff169050919050565b8080613d155750600073ffffffffffffffffffffffffffffffffffffffff168273ffffffffffffffffffffffffffffffffffffffff1614155b15613e49576000613d2584612ddf565b9050600073ffffffffffffffffffffffffffffffffffffffff168373ffffffffffffffffffffffffffffffffffffffff1614158015613d9057508273ffffffffffffffffffffffffffffffffffffffff168173ffffffffffffffffffffffffffffffffffffffff1614155b8015613da35750613da18184612b8b565b155b15613de557826040517fa9fbf51f000000000000000000000000000000000000000000000000000000008152600401613ddc91906146db565b60405180910390fd5b8115613e4757838573ffffffffffffffffffffffffffffffffffffffff168273ffffffffffffffffffffffffffffffffffffffff167f8c5be1e5ebec7d5bd14f71427d1e84f3dd0314c0f7b2291e5b200ac8c7c3b92560405160405180910390a45b505b836006600085815260200190815260200160002060006101000a81548173ffffffffffffffffffffffffffffffffffffffff021916908373ffffffffffffffffffffffffffffffffffffffff16021790555050505050565b613eac8383836140b8565b613f6057600073ffffffffffffffffffffffffffffffffffffffff168373ffffffffffffffffffffffffffffffffffffffff1603613f2157806040517f7e273289000000000000000000000000000000000000000000000000000000008152600401613f1891906147ca565b60405180910390fd5b81816040517f177e802f000000000000000000000000000000000000000000000000000000008152600401613f57929190615c75565b60405180910390fd5b505050565b600080600090507a184f03e93ff9f4daa797ed6e38ed64bf6a1f0100000000000000008310613fc3577a184f03e93ff9f4daa797ed6e38ed64bf6a1f0100000000000000008381613fb957613fb86156e7565b5b0492506040810190505b6d04ee2d6d415b85acef81000000008310614000576d04ee2d6d415b85acef81000000008381613ff657613ff56156e7565b5b0492506020810190505b662386f26fc10000831061402f57662386f26fc100008381614025576140246156e7565b5b0492506010810190505b6305f5e1008310614058576305f5e100838161404e5761404d6156e7565b5b0492506008810190505b612710831061407d576127108381614073576140726156e7565b5b0492506004810190505b606483106140a05760648381614096576140956156e7565b5b0492506002810190505b600a83106140af576001810190505b80915050919050565b60008073ffffffffffffffffffffffffffffffffffffffff168373ffffffffffffffffffffffffffffffffffffffff161415801561417057508273ffffffffffffffffffffffffffffffffffffffff168473ffffffffffffffffffffffffffffffffffffffff16148061413157506141308484612b8b565b5b8061416f57508273ffffffffffffffffffffffffffffffffffffffff1661415783612e67565b73ffffffffffffffffffffffffffffffffffffffff16145b5b90509392505050565b6040518060a0016040528060008152602001600073ffffffffffffffffffffffffffffffffffffffff168152602001600073ffffffffffffffffffffffffffffffffffffffff168152602001600081526020016000151581525090565b828054828255906000526020600020908101928215614212579160200282015b828111156142115782358255916020019190600101906141f6565b5b50905061421f9190614223565b5090565b5b8082111561423c576000816000905550600101614224565b5090565b600082825260208201905092915050565b7f416c6c2063617264207061636b73206172652063757272656e746c7920736f6c60008201527f64206f7574000000000000000000000000000000000000000000000000000000602082015250565b60006142ad602583614240565b91506142b882614251565b604082019050919050565b600060208201905081810360008301526142dc816142a0565b9050919050565b7f496e636f7272656374207061796d656e7420616d6f756e740000000000000000600082015250565b6000614319601883614240565b9150614324826142e3565b602082019050919050565b600060208201905081810360008301526143488161430c565b9050919050565b6000604051905090565b600080fd5b600080fd5b60007fffffffff0000000000000000000000000000000000000000000000000000000082169050919050565b61439881614363565b81146143a357600080fd5b50565b6000813590506143b58161438f565b92915050565b6000602082840312156143d1576143d0614359565b5b60006143df848285016143a6565b91505092915050565b60008115159050919050565b6143fd816143e8565b82525050565b600060208201905061441860008301846143f4565b92915050565b600081519050919050565b60005b8381101561444757808201518184015260208101905061442c565b60008484015250505050565b6000601f19601f8301169050919050565b600061446f8261441e565b6144798185614240565b9350614489818560208601614429565b61449281614453565b840191505092915050565b600060208201905081810360008301526144b78184614464565b905092915050565b600081519050919050565b600082825260208201905092915050565b6000819050602082019050919050565b6000819050919050565b6144fe816144eb565b82525050565b600073ffffffffffffffffffffffffffffffffffffffff82169050919050565b600061452f82614504565b9050919050565b61453f81614524565b82525050565b61454e816143e8565b82525050565b60a08201600082015161456a60008501826144f5565b50602082015161457d6020850182614536565b5060408201516145906040850182614536565b5060608201516145a360608501826144f5565b5060808201516145b66080850182614545565b50505050565b60006145c88383614554565b60a08301905092915050565b6000602082019050919050565b60006145ec826144bf565b6145f681856144ca565b9350614601836144db565b8060005b8381101561463257815161461988826145bc565b9750614624836145d4565b925050600181019050614605565b5085935050505092915050565b6000602082019050818103600083015261465981846145e1565b905092915050565b61466a816144eb565b811461467557600080fd5b50565b60008135905061468781614661565b92915050565b6000602082840312156146a3576146a2614359565b5b60006146b184828501614678565b91505092915050565b60006146c582614504565b9050919050565b6146d5816146ba565b82525050565b60006020820190506146f060008301846146cc565b92915050565b6146ff816146ba565b811461470a57600080fd5b50565b60008135905061471c816146f6565b92915050565b6000806040838503121561473957614738614359565b5b60006147478582860161470d565b925050602061475885828601614678565b9150509250929050565b61476b816143e8565b811461477657600080fd5b50565b60008135905061478881614762565b92915050565b6000602082840312156147a4576147a3614359565b5b60006147b284828501614779565b91505092915050565b6147c4816144eb565b82525050565b60006020820190506147df60008301846147bb565b92915050565b600080fd5b600080fd5b600080fd5b60008083601f84011261480a576148096147e5565b5b8235905067ffffffffffffffff811115614827576148266147ea565b5b602083019150836020820283011115614843576148426147ef565b5b9250929050565b60008060006040848603121561486357614862614359565b5b600061487186828701614678565b935050602084013567ffffffffffffffff8111156148925761489161435e565b5b61489e868287016147f4565b92509250509250925092565b6000806000606084860312156148c3576148c2614359565b5b60006148d18682870161470d565b93505060206148e28682870161470d565b92505060406148f386828701614678565b9150509250925092565b600063ffffffff82169050919050565b614916816148fd565b82525050565b6000602082019050614931600083018461490d565b92915050565b60006020828403121561494d5761494c614359565b5b600061495b8482850161470d565b91505092915050565b600081519050919050565b600082825260208201905092915050565b6000819050602082019050919050565b600061499c83836144f5565b60208301905092915050565b6000602082019050919050565b60006149c082614964565b6149ca818561496f565b93506149d583614980565b8060005b83811015614a065781516149ed8882614990565b97506149f8836149a8565b9250506001810190506149d9565b5085935050505092915050565b60006020820190508181036000830152614a2d81846149b5565b905092915050565b6000819050919050565b614a4881614a35565b82525050565b6000602082019050614a636000830184614a3f565b92915050565b600080fd5b7f4e487b7100000000000000000000000000000000000000000000000000000000600052604160045260246000fd5b614aa682614453565b810181811067ffffffffffffffff82111715614ac557614ac4614a6e565b5b80604052505050565b6000614ad861434f565b9050614ae48282614a9d565b919050565b600067ffffffffffffffff821115614b0457614b03614a6e565b5b614b0d82614453565b9050602081019050919050565b82818337600083830152505050565b6000614b3c614b3784614ae9565b614ace565b905082815260208101848484011115614b5857614b57614a69565b5b614b63848285614b1a565b509392505050565b600082601f830112614b8057614b7f6147e5565b5b8135614b90848260208601614b29565b91505092915050565b600060208284031215614baf57614bae614359565b5b600082013567ffffffffffffffff811115614bcd57614bcc61435e565b5b614bd984828501614b6b565b91505092915050565b600067ffffffffffffffff821115614bfd57614bfc614a6e565b5b602082029050602081019050919050565b6000614c21614c1c84614be2565b614ace565b90508083825260208201905060208402830185811115614c4457614c436147ef565b5b835b81811015614c6d5780614c598882614678565b845260208401935050602081019050614c46565b5050509392505050565b600082601f830112614c8c57614c8b6147e5565b5b8135614c9c848260208601614c0e565b91505092915050565b600080600060608486031215614cbe57614cbd614359565b5b600084013567ffffffffffffffff811115614cdc57614cdb61435e565b5b614ce886828701614c77565b9350506020614cf98682870161470d565b9250506040614d0a86828701614678565b9150509250925092565b6000819050919050565b6000614d39614d34614d2f84614504565b614d14565b614504565b9050919050565b6000614d4b82614d1e565b9050919050565b6000614d5d82614d40565b9050919050565b614d6d81614d52565b82525050565b6000602082019050614d886000830184614d64565b92915050565b60008060408385031215614da557614da4614359565b5b600083013567ffffffffffffffff811115614dc357614dc261435e565b5b614dcf85828601614b6b565b9250506020614de08582860161470d565b9150509250929050565b60008060408385031215614e0157614e00614359565b5b6000614e0f8582860161470d565b9250506020614e2085828601614779565b9150509250929050565b600061ffff82169050919050565b614e4181614e2a565b82525050565b6000602082019050614e5c6000830184614e38565b92915050565b600067ffffffffffffffff821115614e7d57614e7c614a6e565b5b614e8682614453565b9050602081019050919050565b6000614ea6614ea184614e62565b614ace565b905082815260208101848484011115614ec257614ec1614a69565b5b614ecd848285614b1a565b509392505050565b600082601f830112614eea57614ee96147e5565b5b8135614efa848260208601614e93565b91505092915050565b60008060008060808587031215614f1d57614f1c614359565b5b6000614f2b8782880161470d565b9450506020614f3c8782880161470d565b9350506040614f4d87828801614678565b925050606085013567ffffffffffffffff811115614f6e57614f6d61435e565b5b614f7a87828801614ed5565b91505092959194509250565b60008060408385031215614f9d57614f9c614359565b5b6000614fab8582860161470d565b9250506020614fbc8582860161470d565b9150509250929050565b60008060408385031215614fdd57614fdc614359565b5b6000614feb85828601614678565b9250506020614ffc85828601614678565b9150509250929050565b7f4e487b7100000000000000000000000000000000000000000000000000000000600052601160045260246000fd5b6000615040826144eb565b915061504b836144eb565b925082820190508082111561506357615062615006565b5b92915050565b7f4e487b7100000000000000000000000000000000000000000000000000000000600052600160045260246000fd5b60006150a3826144eb565b91506150ae836144eb565b92508282039050818111156150c6576150c5615006565b5b92915050565b6150d581614a35565b82525050565b6150e481614e2a565b82525050565b6150f3816148fd565b82525050565b600081519050919050565b600082825260208201905092915050565b6000615120826150f9565b61512a8185615104565b935061513a818560208601614429565b61514381614453565b840191505092915050565b600060c08301600083015161516660008601826150cc565b50602083015161517960208601826144f5565b50604083015161518c60408601826150db565b50606083015161519f60608601826150ea565b5060808301516151b260808601826150ea565b5060a083015184820360a08601526151ca8282615115565b9150508091505092915050565b600060208201905081810360008301526151f1818461514e565b905092915050565b60008151905061520881614661565b92915050565b60006020828403121561522457615223614359565b5b6000615232848285016151f9565b91505092915050565b600060408201905061525060008301856147bb565b61525d60208301846146cc565b9392505050565b7f4e487b7100000000000000000000000000000000000000000000000000000000600052602260045260246000fd5b600060028204905060018216806152ab57607f821691505b6020821081036152be576152bd615264565b5b50919050565b7f4e487b7100000000000000000000000000000000000000000000000000000000600052603260045260246000fd5b60006152fe826144eb565b91507fffffffffffffffffffffffffffffffffffffffffffffffffffffffffffffffff82036153305761532f615006565b5b600182019050919050565b600060408201905061535060008301856146cc565b61535d60208301846146cc565b9392505050565b600060608201905061537960008301866146cc565b61538660208301856147bb565b61539360408301846146cc565b949350505050565b60008190508160005260206000209050919050565b60006020601f8301049050919050565b600082821b905092915050565b6000600883026153fd7fffffffffffffffffffffffffffffffffffffffffffffffffffffffffffffffff826153c0565b61540786836153c0565b95508019841693508086168417925050509392505050565b600061543a615435615430846144eb565b614d14565b6144eb565b9050919050565b6000819050919050565b6154548361541f565b61546861546082615441565b8484546153cd565b825550505050565b600090565b61547d615470565b61548881848461544b565b505050565b5b818110156154ac576154a1600082615475565b60018101905061548e565b5050565b601f8211156154f1576154c28161539b565b6154cb846153b0565b810160208510156154da578190505b6154ee6154e6856153b0565b83018261548d565b50505b505050565b600082821c905092915050565b6000615514600019846008026154f6565b1980831691505092915050565b600061552d8383615503565b9150826002028217905092915050565b6155468261441e565b67ffffffffffffffff81111561555f5761555e614a6e565b5b6155698254615293565b6155748282856154b0565b600060209050601f8311600181146155a75760008415615595578287015190505b61559f8582615521565b865550615607565b601f1984166155b58661539b565b60005b828110156155dd578489015182556001820191506020850194506020810190506155b8565b868310156155fa57848901516155f6601f891682615503565b8355505b6001600288020188555050505b505050505050565b7f457870656374656420582072616e646f6d206e756d6265727300000000000000600082015250565b6000615645601983614240565b91506156508261560f565b602082019050919050565b6000602082019050818103600083015261567481615638565b9050919050565b7f526563697069656e74206164647265737320697320696e76616c696400000000600082015250565b60006156b1601c83614240565b91506156bc8261567b565b602082019050919050565b600060208201905081810360008301526156e0816156a4565b9050919050565b7f4e487b7100000000000000000000000000000000000000000000000000000000600052601260045260246000fd5b6000615721826144eb565b915061572c836144eb565b92508261573c5761573b6156e7565b5b828206905092915050565b600081905092915050565b6000815461575f81615293565b6157698186615747565b945060018216600081146157845760018114615799576157cc565b60ff19831686528115158202860193506157cc565b6157a28561539b565b60005b838110156157c4578154818901526001820191506020810190506157a5565b838801955050505b50505092915050565b7f4361726420000000000000000000000000000000000000000000000000000000600082015250565b600061580b600583615747565b9150615816826157d5565b600582019050919050565b600061582c8261441e565b6158368185615747565b9350615846818560208601614429565b80840191505092915050565b7f2e706e6700000000000000000000000000000000000000000000000000000000600082015250565b6000615888600483615747565b915061589382615852565b600482019050919050565b60006158aa8285615752565b91506158b5826157fe565b91506158c18284615821565b91506158cc8261587b565b91508190509392505050565b60006060820190506158ed60008301866147bb565b6158fa60208301856146cc565b818103604083015261590c8184614464565b9050949350505050565b7f4d7573742062652070726f706f736564206f776e657200000000000000000000600082015250565b600061594c601683614240565b915061595782615916565b602082019050919050565b6000602082019050818103600083015261597b8161593f565b9050919050565b600060608201905061599760008301866146cc565b6159a460208301856146cc565b6159b160408301846146cc565b949350505050565b60006159c58285615821565b91506159d18284615821565b91508190509392505050565b6020820160008201516159f36000850182614545565b50505050565b6000602082019050615a0e60008301846159dd565b92915050565b7f4f6e6c792063616c6c61626c65206279206f776e657200000000000000000000600082015250565b6000615a4a601683614240565b9150615a5582615a14565b602082019050919050565b60006020820190508181036000830152615a7981615a3d565b9050919050565b600082825260208201905092915050565b6000615a9c826150f9565b615aa68185615a80565b9350615ab6818560208601614429565b615abf81614453565b840191505092915050565b6000608082019050615adf60008301876146cc565b615aec60208301866146cc565b615af960408301856147bb565b8181036060830152615b0b8184615a91565b905095945050505050565b600081519050615b258161438f565b92915050565b600060208284031215615b4157615b40614359565b5b6000615b4f84828501615b16565b91505092915050565b7f5072696365206d757374206265206174206c6561737420312077656900000000600082015250565b6000615b8e601c83614240565b9150615b9982615b58565b602082019050919050565b60006020820190508181036000830152615bbd81615b81565b9050919050565b6000608082019050615bd960008301876146cc565b615be660208301866146cc565b615bf360408301856147bb565b615c0060608301846143f4565b95945050505050565b7f43616e6e6f74207472616e7366657220746f2073656c66000000000000000000600082015250565b6000615c3f601783614240565b9150615c4a82615c09565b602082019050919050565b60006020820190508181036000830152615c6e81615c32565b9050919050565b6000604082019050615c8a60008301856146cc565b615c9760208301846147bb565b939250505056fea26469706673582212207b10bd3d613815e21a0730f222bc0bbea57d06f56156e09905bd05c0034c1f6964736f6c6343000814003368747470733a2f2f61707269636f742d636865657266756c2d616c706163612d3633362e6d7970696e6174612e636c6f75642f697066732f62616679626569663477646536693435337568616432627336336179346e6970336d6c32713778336a6866666d6f346c6b64327a35327569706d692f",
  "linkReferences": {},
  "deployedLinkReferences": {}
}