{
  "_format": "hh-sol-artifact-1",
  "contractName": "CardMintPack",
  "sourceName": "contracts/CardMintPack.sol",
  "abi": [
    {
      "inputs": [
        {
          "internalType": "uint256",
          "name": "subscriptionId",
          "type": "uint256"
        }
      ],
      "stateMutability": "nonpayable",
      "type": "constructor"
    },
    {
      "inputs": [
        {
          "internalType": "address",
          "name": "sender",
          "type": "address"
        },
        {
          "internalType": "uint256",
          "name": "tokenId",
          "type": "uint256"
        },
        {
          "internalType": "address",
          "name": "owner",
          "type": "address"
        }
      ],
      "name": "ERC721IncorrectOwner",
      "type": "error"
    },
    {
      "inputs": [
        {
          "internalType": "address",
          "name": "operator",
          "type": "address"
        },
        {
          "internalType": "uint256",
          "name": "tokenId",
          "type": "uint256"
        }
      ],
      "name": "ERC721InsufficientApproval",
      "type": "error"
    },
    {
      "inputs": [
        {
          "internalType": "address",
          "name": "approver",
          "type": "address"
        }
      ],
      "name": "ERC721InvalidApprover",
      "type": "error"
    },
    {
      "inputs": [
        {
          "internalType": "address",
          "name": "operator",
          "type": "address"
        }
      ],
      "name": "ERC721InvalidOperator",
      "type": "error"
    },
    {
      "inputs": [
        {
          "internalType": "address",
          "name": "owner",
          "type": "address"
        }
      ],
      "name": "ERC721InvalidOwner",
      "type": "error"
    },
    {
      "inputs": [
        {
          "internalType": "address",
          "name": "receiver",
          "type": "address"
        }
      ],
      "name": "ERC721InvalidReceiver",
      "type": "error"
    },
    {
      "inputs": [
        {
          "internalType": "address",
          "name": "sender",
          "type": "address"
        }
      ],
      "name": "ERC721InvalidSender",
      "type": "error"
    },
    {
      "inputs": [
        {
          "internalType": "uint256",
          "name": "tokenId",
          "type": "uint256"
        }
      ],
      "name": "ERC721NonexistentToken",
      "type": "error"
    },
    {
      "inputs": [
        {
          "internalType": "address",
          "name": "have",
          "type": "address"
        },
        {
          "internalType": "address",
          "name": "want",
          "type": "address"
        }
      ],
      "name": "OnlyCoordinatorCanFulfill",
      "type": "error"
    },
    {
      "inputs": [
        {
          "internalType": "address",
          "name": "have",
          "type": "address"
        },
        {
          "internalType": "address",
          "name": "owner",
          "type": "address"
        },
        {
          "internalType": "address",
          "name": "coordinator",
          "type": "address"
        }
      ],
      "name": "OnlyOwnerOrCoordinator",
      "type": "error"
    },
    {
      "inputs": [],
      "name": "ZeroAddress",
      "type": "error"
    },
    {
      "anonymous": false,
      "inputs": [
        {
          "indexed": true,
          "internalType": "address",
          "name": "owner",
          "type": "address"
        },
        {
          "indexed": true,
          "internalType": "address",
          "name": "approved",
          "type": "address"
        },
        {
          "indexed": true,
          "internalType": "uint256",
          "name": "tokenId",
          "type": "uint256"
        }
      ],
      "name": "Approval",
      "type": "event"
    },
    {
      "anonymous": false,
      "inputs": [
        {
          "indexed": true,
          "internalType": "address",
          "name": "owner",
          "type": "address"
        },
        {
          "indexed": true,
          "internalType": "address",
          "name": "operator",
          "type": "address"
        },
        {
          "indexed": false,
          "internalType": "bool",
          "name": "approved",
          "type": "bool"
        }
      ],
      "name": "ApprovalForAll",
      "type": "event"
    },
    {
      "anonymous": false,
      "inputs": [
        {
          "indexed": false,
          "internalType": "uint256",
          "name": "_fromTokenId",
          "type": "uint256"
        },
        {
          "indexed": false,
          "internalType": "uint256",
          "name": "_toTokenId",
          "type": "uint256"
        }
      ],
      "name": "BatchMetadataUpdate",
      "type": "event"
    },
    {
      "anonymous": false,
      "inputs": [
        {
          "indexed": false,
          "internalType": "uint256",
          "name": "tokenId",
          "type": "uint256"
        },
        {
          "indexed": false,
          "internalType": "address",
          "name": "owner",
          "type": "address"
        },
        {
          "indexed": false,
          "internalType": "string",
          "name": "metadataURI",
          "type": "string"
        }
      ],
      "name": "CardMinted",
      "type": "event"
    },
    {
      "anonymous": false,
      "inputs": [
        {
          "indexed": false,
          "internalType": "address",
          "name": "vrfCoordinator",
          "type": "address"
        }
      ],
      "name": "CoordinatorSet",
      "type": "event"
    },
    {
      "anonymous": false,
      "inputs": [
        {
          "indexed": true,
          "internalType": "uint256",
          "name": "tokenId",
          "type": "uint256"
        },
        {
          "indexed": false,
          "internalType": "address",
          "name": "seller",
          "type": "address"
        },
        {
          "indexed": false,
          "internalType": "address",
          "name": "owner",
          "type": "address"
        },
        {
          "indexed": false,
          "internalType": "uint256",
          "name": "price",
          "type": "uint256"
        },
        {
          "indexed": false,
          "internalType": "bool",
          "name": "sold",
          "type": "bool"
        }
      ],
      "name": "ListingCreated",
      "type": "event"
    },
    {
      "anonymous": false,
      "inputs": [
        {
          "indexed": true,
          "internalType": "uint256",
          "name": "tokenId",
          "type": "uint256"
        },
        {
          "indexed": false,
          "internalType": "address",
          "name": "seller",
          "type": "address"
        }
      ],
      "name": "ListingRemoved",
      "type": "event"
    },
    {
      "anonymous": false,
      "inputs": [
        {
          "indexed": false,
          "internalType": "uint256",
          "name": "_tokenId",
          "type": "uint256"
        }
      ],
      "name": "MetadataUpdate",
      "type": "event"
    },
    {
      "anonymous": false,
      "inputs": [
        {
          "indexed": true,
          "internalType": "address",
          "name": "from",
          "type": "address"
        },
        {
          "indexed": true,
          "internalType": "address",
          "name": "to",
          "type": "address"
        }
      ],
      "name": "OwnershipTransferRequested",
      "type": "event"
    },
    {
      "anonymous": false,
      "inputs": [
        {
          "indexed": true,
          "internalType": "address",
          "name": "from",
          "type": "address"
        },
        {
          "indexed": true,
          "internalType": "address",
          "name": "to",
          "type": "address"
        }
      ],
      "name": "OwnershipTransferred",
      "type": "event"
    },
    {
      "anonymous": false,
      "inputs": [
        {
          "indexed": true,
          "internalType": "address",
          "name": "buyer",
          "type": "address"
        },
        {
          "indexed": false,
          "internalType": "uint256",
          "name": "packId",
          "type": "uint256"
        },
        {
          "indexed": false,
          "internalType": "uint256",
          "name": "requestId",
          "type": "uint256"
        }
      ],
      "name": "PackPurchased",
      "type": "event"
    },
    {
      "anonymous": false,
      "inputs": [
        {
          "indexed": false,
          "internalType": "uint256",
          "name": "requestId",
          "type": "uint256"
        },
        {
          "indexed": false,
          "internalType": "uint256[]",
          "name": "randomWords",
          "type": "uint256[]"
        }
      ],
      "name": "RandomnessFulfilled",
      "type": "event"
    },
    {
      "anonymous": false,
      "inputs": [
        {
          "indexed": false,
          "internalType": "uint256",
          "name": "requestId",
          "type": "uint256"
        },
        {
          "indexed": false,
          "internalType": "address",
          "name": "requester",
          "type": "address"
        }
      ],
      "name": "RandomnessRequested",
      "type": "event"
    },
    {
      "anonymous": false,
      "inputs": [
        {
          "indexed": true,
          "internalType": "address",
          "name": "from",
          "type": "address"
        },
        {
          "indexed": true,
          "internalType": "address",
          "name": "to",
          "type": "address"
        },
        {
          "indexed": true,
          "internalType": "uint256",
          "name": "tokenId",
          "type": "uint256"
        }
      ],
      "name": "Transfer",
      "type": "event"
    },
    {
      "inputs": [],
      "name": "acceptOwnership",
      "outputs": [],
      "stateMutability": "nonpayable",
      "type": "function"
    },
    {
      "inputs": [
        {
          "internalType": "address",
          "name": "to",
          "type": "address"
        },
        {
          "internalType": "uint256",
          "name": "tokenId",
          "type": "uint256"
        }
      ],
      "name": "approve",
      "outputs": [],
      "stateMutability": "nonpayable",
      "type": "function"
    },
    {
      "inputs": [
        {
          "internalType": "address",
          "name": "owner",
          "type": "address"
        }
      ],
      "name": "balanceOf",
      "outputs": [
        {
          "internalType": "uint256",
          "name": "",
          "type": "uint256"
        }
      ],
      "stateMutability": "view",
      "type": "function"
    },
    {
      "inputs": [],
      "name": "baseURI",
      "outputs": [
        {
          "internalType": "string",
          "name": "",
          "type": "string"
        }
      ],
      "stateMutability": "view",
      "type": "function"
    },
    {
      "inputs": [
        {
          "internalType": "uint256[]",
          "name": "_randomWords",
          "type": "uint256[]"
        },
        {
          "internalType": "address",
          "name": "recipient",
          "type": "address"
        },
        {
          "internalType": "uint256",
          "name": "requestId",
          "type": "uint256"
        }
      ],
      "name": "batchMint",
      "outputs": [],
      "stateMutability": "nonpayable",
      "type": "function"
    },
    {
      "inputs": [],
      "name": "callbackGasLimit",
      "outputs": [
        {
          "internalType": "uint32",
          "name": "",
          "type": "uint32"
        }
      ],
      "stateMutability": "view",
      "type": "function"
    },
    {
      "inputs": [
        {
          "internalType": "string",
          "name": "tokenURI",
          "type": "string"
        },
        {
          "internalType": "address",
          "name": "recipient",
          "type": "address"
        }
      ],
      "name": "createToken",
      "outputs": [
        {
          "internalType": "uint256",
          "name": "",
          "type": "uint256"
        }
      ],
      "stateMutability": "payable",
      "type": "function"
    },
    {
      "inputs": [],
      "name": "fetchItemsListed",
      "outputs": [
        {
          "components": [
            {
              "internalType": "uint256",
              "name": "tokenId",
              "type": "uint256"
            },
            {
              "internalType": "address payable",
              "name": "seller",
              "type": "address"
            },
            {
              "internalType": "address payable",
              "name": "owner",
              "type": "address"
            },
            {
              "internalType": "uint256",
              "name": "price",
              "type": "uint256"
            },
            {
              "internalType": "bool",
              "name": "sold",
              "type": "bool"
            }
          ],
          "internalType": "struct NFTplace.Listing[]",
          "name": "",
          "type": "tuple[]"
        }
      ],
      "stateMutability": "view",
      "type": "function"
    },
    {
      "inputs": [],
      "name": "fetchListingMarketplace",
      "outputs": [
        {
          "components": [
            {
              "internalType": "uint256",
              "name": "tokenId",
              "type": "uint256"
            },
            {
              "internalType": "address payable",
              "name": "seller",
              "type": "address"
            },
            {
              "internalType": "address payable",
              "name": "owner",
              "type": "address"
            },
            {
              "internalType": "uint256",
              "name": "price",
              "type": "uint256"
            },
            {
              "internalType": "bool",
              "name": "sold",
              "type": "bool"
            }
          ],
          "internalType": "struct NFTplace.Listing[]",
          "name": "",
          "type": "tuple[]"
        }
      ],
      "stateMutability": "view",
      "type": "function"
    },
    {
      "inputs": [],
      "name": "fetchMyNFTs",
      "outputs": [
        {
          "components": [
            {
              "internalType": "uint256",
              "name": "tokenId",
              "type": "uint256"
            },
            {
              "internalType": "address payable",
              "name": "seller",
              "type": "address"
            },
            {
              "internalType": "address payable",
              "name": "owner",
              "type": "address"
            },
            {
              "internalType": "uint256",
              "name": "price",
              "type": "uint256"
            },
            {
              "internalType": "bool",
              "name": "sold",
              "type": "bool"
            }
          ],
          "internalType": "struct NFTplace.Listing[]",
          "name": "",
          "type": "tuple[]"
        }
      ],
      "stateMutability": "view",
      "type": "function"
    },
    {
      "inputs": [
        {
          "internalType": "uint256",
          "name": "tokenId",
          "type": "uint256"
        }
      ],
      "name": "getApproved",
      "outputs": [
        {
          "internalType": "address",
          "name": "",
          "type": "address"
        }
      ],
      "stateMutability": "view",
      "type": "function"
    },
    {
      "inputs": [],
      "name": "getContractOwner",
      "outputs": [
        {
          "internalType": "address",
          "name": "",
          "type": "address"
        }
      ],
      "stateMutability": "view",
      "type": "function"
    },
    {
      "inputs": [],
      "name": "getListingPrice",
      "outputs": [
        {
          "internalType": "uint256",
          "name": "",
          "type": "uint256"
        }
      ],
      "stateMutability": "view",
      "type": "function"
    },
    {
      "inputs": [
        {
          "internalType": "address",
          "name": "user",
          "type": "address"
        }
      ],
      "name": "getMintedTokens",
      "outputs": [
        {
          "internalType": "uint256[]",
          "name": "",
          "type": "uint256[]"
        }
      ],
      "stateMutability": "view",
      "type": "function"
    },
    {
      "inputs": [
        {
          "internalType": "uint256",
          "name": "requestId",
          "type": "uint256"
        }
      ],
      "name": "getMintedTokensFromRequest",
      "outputs": [
        {
          "internalType": "uint256[]",
          "name": "",
          "type": "uint256[]"
        }
      ],
      "stateMutability": "view",
      "type": "function"
    },
    {
      "inputs": [],
      "name": "getNativePayment",
      "outputs": [
        {
          "internalType": "string",
          "name": "",
          "type": "string"
        }
      ],
      "stateMutability": "view",
      "type": "function"
    },
    {
      "inputs": [],
      "name": "getPacksAvailable",
      "outputs": [
        {
          "internalType": "uint256",
          "name": "",
          "type": "uint256"
        }
      ],
      "stateMutability": "view",
      "type": "function"
    },
    {
      "inputs": [],
      "name": "getTotalPacksSold",
      "outputs": [
        {
          "internalType": "uint256",
          "name": "",
          "type": "uint256"
        }
      ],
      "stateMutability": "view",
      "type": "function"
    },
    {
      "inputs": [
        {
          "internalType": "address",
          "name": "owner",
          "type": "address"
        },
        {
          "internalType": "address",
          "name": "operator",
          "type": "address"
        }
      ],
      "name": "isApprovedForAll",
      "outputs": [
        {
          "internalType": "bool",
          "name": "",
          "type": "bool"
        }
      ],
      "stateMutability": "view",
      "type": "function"
    },
    {
      "inputs": [
        {
          "internalType": "uint256",
          "name": "tokenId",
          "type": "uint256"
        },
        {
          "internalType": "uint256",
          "name": "price",
          "type": "uint256"
        }
      ],
      "name": "listCard",
      "outputs": [],
      "stateMutability": "payable",
      "type": "function"
    },
    {
      "inputs": [],
      "name": "name",
      "outputs": [
        {
          "internalType": "string",
          "name": "",
          "type": "string"
        }
      ],
      "stateMutability": "view",
      "type": "function"
    },
    {
      "inputs": [],
      "name": "nextTokenId",
      "outputs": [
        {
          "internalType": "uint256",
          "name": "",
          "type": "uint256"
        }
      ],
      "stateMutability": "view",
      "type": "function"
    },
    {
      "inputs": [],
      "name": "numWords",
      "outputs": [
        {
          "internalType": "uint32",
          "name": "",
          "type": "uint32"
        }
      ],
      "stateMutability": "view",
      "type": "function"
    },
    {
      "inputs": [],
      "name": "owner",
      "outputs": [
        {
          "internalType": "address",
          "name": "",
          "type": "address"
        }
      ],
      "stateMutability": "view",
      "type": "function"
    },
    {
      "inputs": [
        {
          "internalType": "uint256",
          "name": "tokenId",
          "type": "uint256"
        }
      ],
      "name": "ownerOf",
      "outputs": [
        {
          "internalType": "address",
          "name": "",
          "type": "address"
        }
      ],
      "stateMutability": "view",
      "type": "function"
    },
    {
      "inputs": [],
      "name": "packPrice",
      "outputs": [
        {
          "internalType": "uint256",
          "name": "",
          "type": "uint256"
        }
      ],
      "stateMutability": "view",
      "type": "function"
    },
    {
      "inputs": [],
      "name": "packsAvailable",
      "outputs": [
        {
          "internalType": "uint256",
          "name": "",
          "type": "uint256"
        }
      ],
      "stateMutability": "view",
      "type": "function"
    },
    {
      "inputs": [
        {
          "internalType": "uint256",
          "name": "tokenId",
          "type": "uint256"
        }
      ],
      "name": "purchaseCard",
      "outputs": [],
      "stateMutability": "payable",
      "type": "function"
    },
    {
      "inputs": [
        {
          "internalType": "uint256",
          "name": "requestId",
          "type": "uint256"
        },
        {
          "internalType": "uint256[]",
          "name": "randomWords",
          "type": "uint256[]"
        }
      ],
      "name": "rawFulfillRandomWords",
      "outputs": [],
      "stateMutability": "nonpayable",
      "type": "function"
    },
    {
      "inputs": [],
      "name": "requestConfirmations",
      "outputs": [
        {
          "internalType": "uint16",
          "name": "",
          "type": "uint16"
        }
      ],
      "stateMutability": "view",
      "type": "function"
    },
    {
      "inputs": [],
      "name": "requestRandomWords",
      "outputs": [
        {
          "internalType": "uint256",
          "name": "requestId",
          "type": "uint256"
        }
      ],
      "stateMutability": "nonpayable",
      "type": "function"
    },
    {
      "inputs": [],
      "name": "s_keyHash",
      "outputs": [
        {
          "internalType": "bytes32",
          "name": "",
          "type": "bytes32"
        }
      ],
      "stateMutability": "view",
      "type": "function"
    },
    {
      "inputs": [
        {
          "internalType": "uint256",
          "name": "",
          "type": "uint256"
        }
      ],
      "name": "s_randomWords",
      "outputs": [
        {
          "internalType": "uint256",
          "name": "",
          "type": "uint256"
        }
      ],
      "stateMutability": "view",
      "type": "function"
    },
    {
      "inputs": [
        {
          "internalType": "uint256",
          "name": "",
          "type": "uint256"
        }
      ],
      "name": "s_requestToSender",
      "outputs": [
        {
          "internalType": "address",
          "name": "",
          "type": "address"
        }
      ],
      "stateMutability": "view",
      "type": "function"
    },
    {
      "inputs": [],
      "name": "s_subscriptionId",
      "outputs": [
        {
          "internalType": "uint256",
          "name": "",
          "type": "uint256"
        }
      ],
      "stateMutability": "view",
      "type": "function"
    },
    {
      "inputs": [],
      "name": "s_vrfCoordinator",
      "outputs": [
        {
          "internalType": "contract IVRFCoordinatorV2Plus",
          "name": "",
          "type": "address"
        }
      ],
      "stateMutability": "view",
      "type": "function"
    },
    {
      "inputs": [
        {
          "internalType": "address",
          "name": "from",
          "type": "address"
        },
        {
          "internalType": "address",
          "name": "to",
          "type": "address"
        },
        {
          "internalType": "uint256",
          "name": "tokenId",
          "type": "uint256"
        }
      ],
      "name": "safeTransferFrom",
      "outputs": [],
      "stateMutability": "nonpayable",
      "type": "function"
    },
    {
      "inputs": [
        {
          "internalType": "address",
          "name": "from",
          "type": "address"
        },
        {
          "internalType": "address",
          "name": "to",
          "type": "address"
        },
        {
          "internalType": "uint256",
          "name": "tokenId",
          "type": "uint256"
        },
        {
          "internalType": "bytes",
          "name": "data",
          "type": "bytes"
        }
      ],
      "name": "safeTransferFrom",
      "outputs": [],
      "stateMutability": "nonpayable",
      "type": "function"
    },
    {
      "inputs": [
        {
          "internalType": "address",
          "name": "operator",
          "type": "address"
        },
        {
          "internalType": "bool",
          "name": "approved",
          "type": "bool"
        }
      ],
      "name": "setApprovalForAll",
      "outputs": [],
      "stateMutability": "nonpayable",
      "type": "function"
    },
    {
      "inputs": [
        {
          "internalType": "string",
          "name": "_baseURI",
          "type": "string"
        }
      ],
      "name": "setBaseURI",
      "outputs": [],
      "stateMutability": "nonpayable",
      "type": "function"
    },
    {
      "inputs": [
        {
          "internalType": "address",
          "name": "_vrfCoordinator",
          "type": "address"
        }
      ],
      "name": "setCoordinator",
      "outputs": [],
      "stateMutability": "nonpayable",
      "type": "function"
    },
    {
      "inputs": [
        {
          "internalType": "bool",
          "name": "_enableNativePayment",
          "type": "bool"
        }
      ],
      "name": "setNativePayment",
      "outputs": [],
      "stateMutability": "nonpayable",
      "type": "function"
    },
    {
      "inputs": [
        {
          "internalType": "bytes4",
          "name": "interfaceId",
          "type": "bytes4"
        }
      ],
      "name": "supportsInterface",
      "outputs": [
        {
          "internalType": "bool",
          "name": "",
          "type": "bool"
        }
      ],
      "stateMutability": "view",
      "type": "function"
    },
    {
      "inputs": [],
      "name": "symbol",
      "outputs": [
        {
          "internalType": "string",
          "name": "",
          "type": "string"
        }
      ],
      "stateMutability": "view",
      "type": "function"
    },
    {
      "inputs": [
        {
          "internalType": "uint256",
          "name": "tokenId",
          "type": "uint256"
        }
      ],
      "name": "tokenURI",
      "outputs": [
        {
          "internalType": "string",
          "name": "",
          "type": "string"
        }
      ],
      "stateMutability": "view",
      "type": "function"
    },
    {
      "inputs": [],
      "name": "totalPacksSold",
      "outputs": [
        {
          "internalType": "uint256",
          "name": "",
          "type": "uint256"
        }
      ],
      "stateMutability": "view",
      "type": "function"
    },
    {
      "inputs": [
        {
          "internalType": "address",
          "name": "from",
          "type": "address"
        },
        {
          "internalType": "address",
          "name": "to",
          "type": "address"
        },
        {
          "internalType": "uint256",
          "name": "tokenId",
          "type": "uint256"
        }
      ],
      "name": "transferFrom",
      "outputs": [],
      "stateMutability": "nonpayable",
      "type": "function"
    },
    {
      "inputs": [
        {
          "internalType": "address",
          "name": "to",
          "type": "address"
        }
      ],
      "name": "transferOwnership",
      "outputs": [],
      "stateMutability": "nonpayable",
      "type": "function"
    },
    {
      "inputs": [
        {
          "internalType": "uint256",
          "name": "newPrice",
          "type": "uint256"
        }
      ],
      "name": "updatePackPrice",
      "outputs": [],
      "stateMutability": "nonpayable",
      "type": "function"
    },
    {
      "inputs": [
        {
          "internalType": "uint256",
          "name": "newQty",
          "type": "uint256"
        }
      ],
      "name": "updatePacksAvailable",
      "outputs": [],
      "stateMutability": "nonpayable",
      "type": "function"
    },
    {
      "inputs": [],
      "name": "withdraw",
      "outputs": [],
      "stateMutability": "nonpayable",
      "type": "function"
    },
    {
      "stateMutability": "payable",
      "type": "receive"
    }
  ],
  "bytecode": "0x6080604052655af3107a4000600c557f787d74caea10b2b357790d5b5247c2f63d1d91572a9846f780606e4d953677ae60001b601355621e8480601460006101000a81548163ffffffff021916908363ffffffff1602179055506003601460046101000a81548161ffff021916908361ffff1602179055506005601460066101000a81548163ffffffff021916908363ffffffff1602179055506040518060a0016040528060748152602001620065816074913960159081620000c3919062000756565b5066038d7ea4c680006017556064601855348015620000e157600080fd5b50604051620065f5380380620065f5833981810160405281019062000107919062000873565b739ddfaca8183c41ad55329bdeed9f6a8d53168b1b6040518060400160405280600c81526020017f5a6f6465636b20436172647300000000000000000000000000000000000000008152506040518060400160405280600381526020017f5a444b0000000000000000000000000000000000000000000000000000000000815250338060008073ffffffffffffffffffffffffffffffffffffffff168273ffffffffffffffffffffffffffffffffffffffff1603620001fd576040517f08c379a0000000000000000000000000000000000000000000000000000000008152600401620001f49062000906565b60405180910390fd5b816000806101000a81548173ffffffffffffffffffffffffffffffffffffffff021916908373ffffffffffffffffffffffffffffffffffffffff160217905550600073ffffffffffffffffffffffffffffffffffffffff168173ffffffffffffffffffffffffffffffffffffffff161462000284576200028381620003ad60201b60201c565b5b505050816002908162000298919062000756565b508060039081620002aa919062000756565b505050600073ffffffffffffffffffffffffffffffffffffffff168173ffffffffffffffffffffffffffffffffffffffff160362000314576040517fd92e233d00000000000000000000000000000000000000000000000000000000815260040160405180910390fd5b80600960006101000a81548173ffffffffffffffffffffffffffffffffffffffff021916908373ffffffffffffffffffffffffffffffffffffffff1602179055505033600d60006101000a81548173ffffffffffffffffffffffffffffffffffffffff021916908373ffffffffffffffffffffffffffffffffffffffff160217905550806012819055506000601981905550506200099a565b3373ffffffffffffffffffffffffffffffffffffffff168173ffffffffffffffffffffffffffffffffffffffff16036200041e576040517f08c379a0000000000000000000000000000000000000000000000000000000008152600401620004159062000978565b60405180910390fd5b80600160006101000a81548173ffffffffffffffffffffffffffffffffffffffff021916908373ffffffffffffffffffffffffffffffffffffffff1602179055508073ffffffffffffffffffffffffffffffffffffffff1660008054906101000a900473ffffffffffffffffffffffffffffffffffffffff1673ffffffffffffffffffffffffffffffffffffffff167fed8889f560326eb138920d842192f0eb3dd22b4f139c87a2c57538e05bae127860405160405180910390a350565b600081519050919050565b7f4e487b7100000000000000000000000000000000000000000000000000000000600052604160045260246000fd5b7f4e487b7100000000000000000000000000000000000000000000000000000000600052602260045260246000fd5b600060028204905060018216806200055e57607f821691505b60208210810362000574576200057362000516565b5b50919050565b60008190508160005260206000209050919050565b60006020601f8301049050919050565b600082821b905092915050565b600060088302620005de7fffffffffffffffffffffffffffffffffffffffffffffffffffffffffffffffff826200059f565b620005ea86836200059f565b95508019841693508086168417925050509392505050565b6000819050919050565b6000819050919050565b600062000637620006316200062b8462000602565b6200060c565b62000602565b9050919050565b6000819050919050565b620006538362000616565b6200066b62000662826200063e565b848454620005ac565b825550505050565b600090565b6200068262000673565b6200068f81848462000648565b505050565b5b81811015620006b757620006ab60008262000678565b60018101905062000695565b5050565b601f8211156200070657620006d0816200057a565b620006db846200058f565b81016020851015620006eb578190505b62000703620006fa856200058f565b83018262000694565b50505b505050565b600082821c905092915050565b60006200072b600019846008026200070b565b1980831691505092915050565b600062000746838362000718565b9150826002028217905092915050565b6200076182620004dc565b67ffffffffffffffff8111156200077d576200077c620004e7565b5b62000789825462000545565b62000796828285620006bb565b600060209050601f831160018114620007ce5760008415620007b9578287015190505b620007c5858262000738565b86555062000835565b601f198416620007de866200057a565b60005b828110156200080857848901518255600182019150602085019450602081019050620007e1565b8683101562000828578489015162000824601f89168262000718565b8355505b6001600288020188555050505b505050505050565b600080fd5b6200084d8162000602565b81146200085957600080fd5b50565b6000815190506200086d8162000842565b92915050565b6000602082840312156200088c576200088b6200083d565b5b60006200089c848285016200085c565b91505092915050565b600082825260208201905092915050565b7f43616e6e6f7420736574206f776e657220746f207a65726f0000000000000000600082015250565b6000620008ee601883620008a5565b9150620008fb82620008b6565b602082019050919050565b600060208201905081810360008301526200092181620008df565b9050919050565b7f43616e6e6f74207472616e7366657220746f2073656c66000000000000000000600082015250565b600062000960601783620008a5565b91506200096d8262000928565b602082019050919050565b60006020820190508181036000830152620009938162000951565b9050919050565b615bd780620009aa6000396000f3fe6080604052600436106102e85760003560e01c806370a0823111610190578063a54447aa116100dc578063d759000b11610095578063e985e9c51161006f578063e985e9c514610be8578063ed36c52f14610c25578063f2fde38b14610c41578063f6eaffc814610c6a576103b8565b8063d759000b14610b67578063d917bf3e14610b92578063e0c8628914610bbd576103b8565b8063a54447aa14610a52578063ad49ba1b14610a6e578063b0fb162f14610aab578063b88d4fde14610ad6578063c0abba9e14610aff578063c87b56dd14610b2a576103b8565b80638ac000211161014957806395d89b411161012357806395d89b41146109a35780639eccacf6146109ce578063a2119377146109f9578063a22cb46514610a29576103b8565b80638ac00021146109245780638da5cb5b1461094f5780638ea981171461097a576103b8565b806370a082311461082657806375794a3c1461086357806379ba50971461088e5780637cc539b4146108a55780637ccfd7fc146108ce5780637f95e4b3146108f9576103b8565b80632e602d291161024f57806345bb327b1161020857806355f804b3116101e257806355f804b31461076c5780636273ce9b146107955780636352211e146107be5780636c0360eb146107fb576103b8565b806345bb327b146106eb57806345f8fa801461071657806355901bb014610741576103b8565b80632e602d29146105db578063335c8b63146106185780633ccfd60b1461064357806342842e0e1461065a578063434a49a114610683578063442890d5146106c0576103b8565b806312e85585116102a157806312e85585146104df5780631a01d53a1461050a5780631fe543e314610533578063202e37401461055c57806323b872dd1461058757806324f74697146105b0576103b8565b806301ffc9a7146103bd57806306fdde03146103fa57806307c11e0d14610425578063081812fc14610450578063095ea7b31461048d5780630c6dcd31146104b6576103b8565b366103b857600060185411610332576040517f08c379a0000000000000000000000000000000000000000000000000000000008152600401610329906141c6565b60405180910390fd5b6017543414610376576040517f08c379a000000000000000000000000000000000000000000000000000000000815260040161036d90614232565b60405180910390fd5b61038c6001601954610ca790919063ffffffff16565b6019819055506103a86001601854610cd390919063ffffffff16565b6018819055506103b6610cfa565b005b600080fd5b3480156103c957600080fd5b506103e460048036038101906103df91906142be565b610ec5565b6040516103f19190614306565b60405180910390f35b34801561040657600080fd5b5061040f610f26565b60405161041c91906143a0565b60405180910390f35b34801561043157600080fd5b5061043a610fb8565b6040516104479190614542565b60405180910390f35b34801561045c57600080fd5b5061047760048036038101906104729190614590565b6111ff565b60405161048491906145de565b60405180910390f35b34801561049957600080fd5b506104b460048036038101906104af9190614625565b61121b565b005b3480156104c257600080fd5b506104dd60048036038101906104d89190614691565b611231565b005b3480156104eb57600080fd5b506104f4611256565b60405161050191906146cd565b60405180910390f35b34801561051657600080fd5b50610531600480360381019061052c9190614590565b611260565b005b34801561053f57600080fd5b5061055a6004803603810190610555919061474d565b611272565b005b34801561056857600080fd5b50610571611338565b60405161057e9190614542565b60405180910390f35b34801561059357600080fd5b506105ae60048036038101906105a991906147ad565b61162b565b005b3480156105bc57600080fd5b506105c561172d565b6040516105d2919061481f565b60405180910390f35b3480156105e757600080fd5b5061060260048036038101906105fd9190614590565b611743565b60405161060f91906145de565b60405180910390f35b34801561062457600080fd5b5061062d611776565b60405161063a91906146cd565b60405180910390f35b34801561064f57600080fd5b5061065861177c565b005b34801561066657600080fd5b50610681600480360381019061067c91906147ad565b6117da565b005b34801561068f57600080fd5b506106aa60048036038101906106a5919061483a565b6117fa565b6040516106b79190614916565b60405180910390f35b3480156106cc57600080fd5b506106d5611891565b6040516106e291906145de565b60405180910390f35b3480156106f757600080fd5b506107006118bb565b60405161070d9190614951565b60405180910390f35b34801561072257600080fd5b5061072b6118c1565b6040516107389190614542565b60405180910390f35b34801561074d57600080fd5b50610756611bb4565b60405161076391906146cd565b60405180910390f35b34801561077857600080fd5b50610793600480360381019061078e9190614a9c565b611bbe565b005b3480156107a157600080fd5b506107bc60048036038101906107b79190614ba8565b611bd9565b005b3480156107ca57600080fd5b506107e560048036038101906107e09190614590565b611ed1565b6040516107f291906145de565b60405180910390f35b34801561080757600080fd5b50610810611ee3565b60405161081d91906143a0565b60405180910390f35b34801561083257600080fd5b5061084d6004803603810190610848919061483a565b611f71565b60405161085a91906146cd565b60405180910390f35b34801561086f57600080fd5b5061087861202b565b60405161088591906146cd565b60405180910390f35b34801561089a57600080fd5b506108a3612031565b005b3480156108b157600080fd5b506108cc60048036038101906108c79190614590565b6121c6565b005b3480156108da57600080fd5b506108e36121d8565b6040516108f0919061481f565b60405180910390f35b34801561090557600080fd5b5061090e6121ee565b60405161091b91906143a0565b60405180910390f35b34801561093057600080fd5b5061093961227e565b60405161094691906146cd565b60405180910390f35b34801561095b57600080fd5b50610964612284565b60405161097191906145de565b60405180910390f35b34801561098657600080fd5b506109a1600480360381019061099c919061483a565b6122ad565b005b3480156109af57600080fd5b506109b861248e565b6040516109c591906143a0565b60405180910390f35b3480156109da57600080fd5b506109e3612520565b6040516109f09190614c76565b60405180910390f35b610a136004803603810190610a0e9190614c91565b612546565b604051610a2091906146cd565b60405180910390f35b348015610a3557600080fd5b50610a506004803603810190610a4b9190614ced565b6126b9565b005b610a6c6004803603810190610a679190614590565b6126cf565b005b348015610a7a57600080fd5b50610a956004803603810190610a909190614590565b6128c1565b604051610aa29190614916565b60405180910390f35b348015610ab757600080fd5b50610ac061292c565b604051610acd9190614d4a565b60405180910390f35b348015610ae257600080fd5b50610afd6004803603810190610af89190614e06565b612940565b005b348015610b0b57600080fd5b50610b14612965565b604051610b2191906146cd565b60405180910390f35b348015610b3657600080fd5b50610b516004803603810190610b4c9190614590565b61296b565b604051610b5e91906143a0565b60405180910390f35b348015610b7357600080fd5b50610b7c612a7e565b604051610b8991906146cd565b60405180910390f35b348015610b9e57600080fd5b50610ba7612a84565b604051610bb491906146cd565b60405180910390f35b348015610bc957600080fd5b50610bd2610cfa565b604051610bdf91906146cd565b60405180910390f35b348015610bf457600080fd5b50610c0f6004803603810190610c0a9190614e89565b612a8e565b604051610c1c9190614306565b60405180910390f35b610c3f6004803603810190610c3a9190614ec9565b612b22565b005b348015610c4d57600080fd5b50610c686004803603810190610c63919061483a565b612b30565b005b348015610c7657600080fd5b50610c916004803603810190610c8c9190614590565b612b44565b604051610c9e91906146cd565b60405180910390f35b6000808284610cb69190614f38565b905083811015610cc957610cc8614f6c565b5b8091505092915050565b600082821115610ce657610ce5614f6c565b5b8183610cf29190614f9b565b905092915050565b6000600960009054906101000a900473ffffffffffffffffffffffffffffffffffffffff1673ffffffffffffffffffffffffffffffffffffffff16639b1c385e6040518060c0016040528060135481526020016012548152602001601460049054906101000a900461ffff1661ffff168152602001601460009054906101000a900463ffffffff1663ffffffff168152602001601460069054906101000a900463ffffffff1663ffffffff168152602001610dd36040518060200160405280601660009054906101000a900460ff161515815250612b68565b8152506040518263ffffffff1660e01b8152600401610df291906150da565b6020604051808303816000875af1158015610e11573d6000803e3d6000fd5b505050506040513d601f19601f82011682018060405250810190610e359190615111565b905033601a600083815260200190815260200160002060006101000a81548173ffffffffffffffffffffffffffffffffffffffff021916908373ffffffffffffffffffffffffffffffffffffffff1602179055507f28f521cf7abd0044cba5bb040c5217ff69a4e5865f5262905018698e68fe7d008133604051610eba92919061513e565b60405180910390a190565b6000634906490660e01b7bffffffffffffffffffffffffffffffffffffffffffffffffffffffff1916827bffffffffffffffffffffffffffffffffffffffffffffffffffffffff19161480610f1f5750610f1e82612c00565b5b9050919050565b606060028054610f3590615196565b80601f0160208091040260200160405190810160405280929190818152602001828054610f6190615196565b8015610fae5780601f10610f8357610100808354040283529160200191610fae565b820191906000526020600020905b815481529060010190602001808311610f9157829003601f168201915b5050505050905090565b60606000600a549050600080600b5467ffffffffffffffff811115610fe057610fdf614971565b5b60405190808252806020026020018201604052801561101957816020015b61100661407c565b815260200190600190039081610ffe5790505b50905060005b838110156111f5573073ffffffffffffffffffffffffffffffffffffffff16600e600060018461104f9190614f38565b815260200190815260200160002060020160009054906101000a900473ffffffffffffffffffffffffffffffffffffffff1673ffffffffffffffffffffffffffffffffffffffff16036111e25760006001826110ab9190614f38565b90506000600e60008381526020019081526020016000209050806040518060a0016040529081600082015481526020016001820160009054906101000a900473ffffffffffffffffffffffffffffffffffffffff1673ffffffffffffffffffffffffffffffffffffffff1673ffffffffffffffffffffffffffffffffffffffff1681526020016002820160009054906101000a900473ffffffffffffffffffffffffffffffffffffffff1673ffffffffffffffffffffffffffffffffffffffff1673ffffffffffffffffffffffffffffffffffffffff168152602001600382015481526020016004820160009054906101000a900460ff1615151515815250508486815181106111be576111bd6151c7565b5b60200260200101819052506111dd600186610ca790919063ffffffff16565b945050505b80806111ed906151f6565b91505061101f565b5080935050505090565b600061120a82612ce2565b5061121482612d6a565b9050919050565b61122d8282611228612da7565b612daf565b5050565b611239612dc1565b80601660006101000a81548160ff02191690831515021790555050565b6000600c54905090565b611268612dc1565b8060188190555050565b600960009054906101000a900473ffffffffffffffffffffffffffffffffffffffff1673ffffffffffffffffffffffffffffffffffffffff163373ffffffffffffffffffffffffffffffffffffffff16146113285733600960009054906101000a900473ffffffffffffffffffffffffffffffffffffffff166040517f1cf993f400000000000000000000000000000000000000000000000000000000815260040161131f92919061523e565b60405180910390fd5b611333838383612e51565b505050565b60606000600a54905060008060005b838110156113ee573373ffffffffffffffffffffffffffffffffffffffff16600e60006001846113779190614f38565b815260200190815260200160002060020160009054906101000a900473ffffffffffffffffffffffffffffffffffffffff1673ffffffffffffffffffffffffffffffffffffffff16036113db576113d8600184610ca790919063ffffffff16565b92505b80806113e6906151f6565b915050611347565b5060008267ffffffffffffffff81111561140b5761140a614971565b5b60405190808252806020026020018201604052801561144457816020015b61143161407c565b8152602001906001900390816114295790505b50905060005b84811015611620573373ffffffffffffffffffffffffffffffffffffffff16600e600060018461147a9190614f38565b815260200190815260200160002060020160009054906101000a900473ffffffffffffffffffffffffffffffffffffffff1673ffffffffffffffffffffffffffffffffffffffff160361160d5760006001826114d69190614f38565b90506000600e60008381526020019081526020016000209050806040518060a0016040529081600082015481526020016001820160009054906101000a900473ffffffffffffffffffffffffffffffffffffffff1673ffffffffffffffffffffffffffffffffffffffff1673ffffffffffffffffffffffffffffffffffffffff1681526020016002820160009054906101000a900473ffffffffffffffffffffffffffffffffffffffff1673ffffffffffffffffffffffffffffffffffffffff1673ffffffffffffffffffffffffffffffffffffffff168152602001600382015481526020016004820160009054906101000a900460ff1615151515815250508486815181106115e9576115e86151c7565b5b6020026020010181905250611608600186610ca790919063ffffffff16565b945050505b8080611618906151f6565b91505061144a565b508094505050505090565b600073ffffffffffffffffffffffffffffffffffffffff168273ffffffffffffffffffffffffffffffffffffffff160361169d5760006040517f64a0ae9200000000000000000000000000000000000000000000000000000000815260040161169491906145de565b60405180910390fd5b60006116b183836116ac612da7565b612ee7565b90508373ffffffffffffffffffffffffffffffffffffffff168173ffffffffffffffffffffffffffffffffffffffff1614611727578382826040517f64283d7b00000000000000000000000000000000000000000000000000000000815260040161171e93929190615267565b60405180910390fd5b50505050565b601460009054906101000a900463ffffffff1681565b601a6020528060005260406000206000915054906101000a900473ffffffffffffffffffffffffffffffffffffffff1681565b60175481565b611784612dc1565b600061178e612284565b90508073ffffffffffffffffffffffffffffffffffffffff166108fc479081150290604051600060405180830381858888f193505050501580156117d6573d6000803e3d6000fd5b5050565b6117f583838360405180602001604052806000815250612940565b505050565b6060601c60008373ffffffffffffffffffffffffffffffffffffffff1673ffffffffffffffffffffffffffffffffffffffff16815260200190815260200160002080548060200260200160405190810160405280929190818152602001828054801561188557602002820191906000526020600020905b815481526020019060010190808311611871575b50505050509050919050565b6000600d60009054906101000a900473ffffffffffffffffffffffffffffffffffffffff16905090565b60135481565b60606000600a54905060008060005b83811015611977573373ffffffffffffffffffffffffffffffffffffffff16600e60006001846119009190614f38565b815260200190815260200160002060010160009054906101000a900473ffffffffffffffffffffffffffffffffffffffff1673ffffffffffffffffffffffffffffffffffffffff160361196457611961600184610ca790919063ffffffff16565b92505b808061196f906151f6565b9150506118d0565b5060008267ffffffffffffffff81111561199457611993614971565b5b6040519080825280602002602001820160405280156119cd57816020015b6119ba61407c565b8152602001906001900390816119b25790505b50905060005b84811015611ba9573373ffffffffffffffffffffffffffffffffffffffff16600e6000600184611a039190614f38565b815260200190815260200160002060010160009054906101000a900473ffffffffffffffffffffffffffffffffffffffff1673ffffffffffffffffffffffffffffffffffffffff1603611b96576000600182611a5f9190614f38565b90506000600e60008381526020019081526020016000209050806040518060a0016040529081600082015481526020016001820160009054906101000a900473ffffffffffffffffffffffffffffffffffffffff1673ffffffffffffffffffffffffffffffffffffffff1673ffffffffffffffffffffffffffffffffffffffff1681526020016002820160009054906101000a900473ffffffffffffffffffffffffffffffffffffffff1673ffffffffffffffffffffffffffffffffffffffff1673ffffffffffffffffffffffffffffffffffffffff168152602001600382015481526020016004820160009054906101000a900460ff161515151581525050848681518110611b7257611b716151c7565b5b6020026020010181905250611b91600186610ca790919063ffffffff16565b945050505b8080611ba1906151f6565b9150506119d3565b508094505050505090565b6000601954905090565b611bc6612dc1565b8060159081611bd59190615440565b5050565b601460069054906101000a900463ffffffff1663ffffffff16835114611c34576040517f08c379a0000000000000000000000000000000000000000000000000000000008152600401611c2b9061555e565b60405180910390fd5b600073ffffffffffffffffffffffffffffffffffffffff168273ffffffffffffffffffffffffffffffffffffffff1603611ca3576040517f08c379a0000000000000000000000000000000000000000000000000000000008152600401611c9a906155ca565b60405180910390fd5b6000835167ffffffffffffffff811115611cc057611cbf614971565b5b604051908082528060200260200182016040528015611cee5781602001602082028036833780820191505090505b50905060005b8451811015611dd65760006014868381518110611d1457611d136151c7565b5b6020026020010151611d269190615619565b905060006015611d3583613101565b604051602001611d469291906157a1565b60405160208183030381529060405290506000611d638288612546565b905080858581518110611d7957611d786151c7565b5b6020026020010181815250507fd8734743ed0c1c7547379b55d892e5cea71bc5371832ffa4149a506fbc1aa6d0818884604051611db8939291906157db565b60405180910390a15050508080611dce906151f6565b915050611cf4565b5060005b8151811015611eca57601c60008573ffffffffffffffffffffffffffffffffffffffff1673ffffffffffffffffffffffffffffffffffffffff168152602001908152602001600020828281518110611e3557611e346151c7565b5b60200260200101519080600181540180825580915050600190039060005260206000200160009091909190915055601d6000848152602001908152602001600020828281518110611e8957611e886151c7565b5b602002602001015190806001815401808255809150506001900390600052602060002001600090919091909150558080611ec2906151f6565b915050611dda565b5050505050565b6000611edc82612ce2565b9050919050565b60158054611ef090615196565b80601f0160208091040260200160405190810160405280929190818152602001828054611f1c90615196565b8015611f695780601f10611f3e57610100808354040283529160200191611f69565b820191906000526020600020905b815481529060010190602001808311611f4c57829003601f168201915b505050505081565b60008073ffffffffffffffffffffffffffffffffffffffff168273ffffffffffffffffffffffffffffffffffffffff1603611fe45760006040517f89c62b64000000000000000000000000000000000000000000000000000000008152600401611fdb91906145de565b60405180910390fd5b600560008373ffffffffffffffffffffffffffffffffffffffff1673ffffffffffffffffffffffffffffffffffffffff168152602001908152602001600020549050919050565b60115481565b600160009054906101000a900473ffffffffffffffffffffffffffffffffffffffff1673ffffffffffffffffffffffffffffffffffffffff163373ffffffffffffffffffffffffffffffffffffffff16146120c1576040517f08c379a00000000000000000000000000000000000000000000000000000000081526004016120b890615865565b60405180910390fd5b60008060009054906101000a900473ffffffffffffffffffffffffffffffffffffffff169050336000806101000a81548173ffffffffffffffffffffffffffffffffffffffff021916908373ffffffffffffffffffffffffffffffffffffffff1602179055506000600160006101000a81548173ffffffffffffffffffffffffffffffffffffffff021916908373ffffffffffffffffffffffffffffffffffffffff1602179055503373ffffffffffffffffffffffffffffffffffffffff168173ffffffffffffffffffffffffffffffffffffffff167f8be0079c531659141344cd1fd0a4f28419497f9722a3daafe3b4186f6b6457e060405160405180910390a350565b6121ce612dc1565b8060178190555050565b601460069054906101000a900463ffffffff1681565b6060601660009054906101000a900460ff1615612242576040518060400160405280601381526020017f56524620676173206665657320696e2045544800000000000000000000000000815250905061227b565b6040518060400160405280601481526020017f56524620676173206665657320696e204c494e4b00000000000000000000000081525090505b90565b60125481565b60008060009054906101000a900473ffffffffffffffffffffffffffffffffffffffff16905090565b6122b5612284565b73ffffffffffffffffffffffffffffffffffffffff163373ffffffffffffffffffffffffffffffffffffffff161415801561233e5750600960009054906101000a900473ffffffffffffffffffffffffffffffffffffffff1673ffffffffffffffffffffffffffffffffffffffff163373ffffffffffffffffffffffffffffffffffffffff1614155b156123ad573361234c612284565b600960009054906101000a900473ffffffffffffffffffffffffffffffffffffffff166040517f061db9c10000000000000000000000000000000000000000000000000000000081526004016123a493929190615885565b60405180910390fd5b600073ffffffffffffffffffffffffffffffffffffffff168173ffffffffffffffffffffffffffffffffffffffff1603612413576040517fd92e233d00000000000000000000000000000000000000000000000000000000815260040160405180910390fd5b80600960006101000a81548173ffffffffffffffffffffffffffffffffffffffff021916908373ffffffffffffffffffffffffffffffffffffffff1602179055507fd1a6a14209a385a964d036e404cb5cfb71f4000cdb03c9366292430787261be68160405161248391906145de565b60405180910390a150565b60606003805461249d90615196565b80601f01602080910402602001604051908101604052809291908181526020018280546124c990615196565b80156125165780601f106124eb57610100808354040283529160200191612516565b820191906000526020600020905b8154815290600101906020018083116124f957829003601f168201915b5050505050905090565b600960009054906101000a900473ffffffffffffffffffffffffffffffffffffffff1681565b600061255e6001600a54610ca790919063ffffffff16565b600a819055506000600a54905061257583826131cf565b61257f81856132c8565b6040518060a00160405280828152602001600073ffffffffffffffffffffffffffffffffffffffff1681526020018473ffffffffffffffffffffffffffffffffffffffff1681526020016000815260200160011515815250600e60008381526020019081526020016000206000820151816000015560208201518160010160006101000a81548173ffffffffffffffffffffffffffffffffffffffff021916908373ffffffffffffffffffffffffffffffffffffffff16021790555060408201518160020160006101000a81548173ffffffffffffffffffffffffffffffffffffffff021916908373ffffffffffffffffffffffffffffffffffffffff1602179055506060820151816003015560808201518160040160006101000a81548160ff0219169083151502179055509050508091505092915050565b6126cb6126c4612da7565b8383613324565b5050565b6000600e600083815260200190815260200160002060010160009054906101000a900473ffffffffffffffffffffffffffffffffffffffff16905033600e600084815260200190815260200160002060020160006101000a81548173ffffffffffffffffffffffffffffffffffffffff021916908373ffffffffffffffffffffffffffffffffffffffff1602179055506001600e600084815260200190815260200160002060040160006101000a81548160ff0219169083151502179055506000600e600084815260200190815260200160002060010160006101000a81548173ffffffffffffffffffffffffffffffffffffffff021916908373ffffffffffffffffffffffffffffffffffffffff1602179055506127fa6001600b54610cd390919063ffffffff16565b600b8190555061280b303384613493565b600d60009054906101000a900473ffffffffffffffffffffffffffffffffffffffff1673ffffffffffffffffffffffffffffffffffffffff166108fc600c549081150290604051600060405180830381858888f19350505050158015612875573d6000803e3d6000fd5b508073ffffffffffffffffffffffffffffffffffffffff166108fc349081150290604051600060405180830381858888f193505050501580156128bc573d6000803e3d6000fd5b505050565b6060601d600083815260200190815260200160002080548060200260200160405190810160405280929190818152602001828054801561292057602002820191906000526020600020905b81548152602001906001019080831161290c575b50505050509050919050565b601460049054906101000a900461ffff1681565b61294b84848461162b565b61295f612956612da7565b85858585613600565b50505050565b60195481565b606061297682612ce2565b50600060086000848152602001908152602001600020805461299790615196565b80601f01602080910402602001604051908101604052809291908181526020018280546129c390615196565b8015612a105780601f106129e557610100808354040283529160200191612a10565b820191906000526020600020905b8154815290600101906020018083116129f357829003601f168201915b505050505090506000612a216137b1565b90506000815103612a36578192505050612a79565b600082511115612a6b578082604051602001612a539291906158bc565b60405160208183030381529060405292505050612a79565b612a74846137c8565b925050505b919050565b60185481565b6000601854905090565b6000600760008473ffffffffffffffffffffffffffffffffffffffff1673ffffffffffffffffffffffffffffffffffffffff16815260200190815260200160002060008373ffffffffffffffffffffffffffffffffffffffff1673ffffffffffffffffffffffffffffffffffffffff16815260200190815260200160002060009054906101000a900460ff16905092915050565b612b2c8282613831565b5050565b612b38612dc1565b612b4181613a0c565b50565b60108181548110612b5457600080fd5b906000526020600020016000915090505481565b60607f92fd13387c7fe7befbc38d303d6468778fb9731bc4583f17d92989c6fcfdeaaa82604051602401612b9c91906158fc565b604051602081830303815290604052907bffffffffffffffffffffffffffffffffffffffffffffffffffffffff19166020820180517bffffffffffffffffffffffffffffffffffffffffffffffffffffffff83818316178352505050509050919050565b60007f80ac58cd000000000000000000000000000000000000000000000000000000007bffffffffffffffffffffffffffffffffffffffffffffffffffffffff1916827bffffffffffffffffffffffffffffffffffffffffffffffffffffffff19161480612ccb57507f5b5e139f000000000000000000000000000000000000000000000000000000007bffffffffffffffffffffffffffffffffffffffffffffffffffffffff1916827bffffffffffffffffffffffffffffffffffffffffffffffffffffffff1916145b80612cdb5750612cda82613b38565b5b9050919050565b600080612cee83613ba2565b9050600073ffffffffffffffffffffffffffffffffffffffff168173ffffffffffffffffffffffffffffffffffffffff1603612d6157826040517f7e273289000000000000000000000000000000000000000000000000000000008152600401612d5891906146cd565b60405180910390fd5b80915050919050565b60006006600083815260200190815260200160002060009054906101000a900473ffffffffffffffffffffffffffffffffffffffff169050919050565b600033905090565b612dbc8383836001613bdf565b505050565b60008054906101000a900473ffffffffffffffffffffffffffffffffffffffff1673ffffffffffffffffffffffffffffffffffffffff163373ffffffffffffffffffffffffffffffffffffffff1614612e4f576040517f08c379a0000000000000000000000000000000000000000000000000000000008152600401612e4690615963565b60405180910390fd5b565b818160109190612e629291906140d9565b50612ee2828280806020026020016040519081016040528093929190818152602001838360200280828437600081840152601f19601f82011690508083019250505050505050601a600086815260200190815260200160002060009054906101000a900473ffffffffffffffffffffffffffffffffffffffff1685611bd9565b505050565b600080612ef384613ba2565b9050600073ffffffffffffffffffffffffffffffffffffffff168373ffffffffffffffffffffffffffffffffffffffff1614612f3557612f34818486613da4565b5b600073ffffffffffffffffffffffffffffffffffffffff168173ffffffffffffffffffffffffffffffffffffffff1614612fc657612f77600085600080613bdf565b6001600560008373ffffffffffffffffffffffffffffffffffffffff1673ffffffffffffffffffffffffffffffffffffffff168152602001908152602001600020600082825403925050819055505b600073ffffffffffffffffffffffffffffffffffffffff168573ffffffffffffffffffffffffffffffffffffffff1614613049576001600560008773ffffffffffffffffffffffffffffffffffffffff1673ffffffffffffffffffffffffffffffffffffffff168152602001908152602001600020600082825401925050819055505b846004600086815260200190815260200160002060006101000a81548173ffffffffffffffffffffffffffffffffffffffff021916908373ffffffffffffffffffffffffffffffffffffffff160217905550838573ffffffffffffffffffffffffffffffffffffffff168273ffffffffffffffffffffffffffffffffffffffff167fddf252ad1be2c89b69c2b068fc378daa952ba7f163c4a11628f55a4df523b3ef60405160405180910390a4809150509392505050565b60606000600161311084613e68565b01905060008167ffffffffffffffff81111561312f5761312e614971565b5b6040519080825280601f01601f1916602001820160405280156131615781602001600182028036833780820191505090505b509050600082602001820190505b6001156131c4578080600190039150507f3031323334353637383961626364656600000000000000000000000000000000600a86061a8153600a85816131b8576131b76155ea565b5b0494506000850361316f575b819350505050919050565b600073ffffffffffffffffffffffffffffffffffffffff168273ffffffffffffffffffffffffffffffffffffffff16036132415760006040517f64a0ae9200000000000000000000000000000000000000000000000000000000815260040161323891906145de565b60405180910390fd5b600061324f83836000612ee7565b9050600073ffffffffffffffffffffffffffffffffffffffff168173ffffffffffffffffffffffffffffffffffffffff16146132c35760006040517f73c6ac6e0000000000000000000000000000000000000000000000000000000081526004016132ba91906145de565b60405180910390fd5b505050565b806008600084815260200190815260200160002090816132e89190615440565b507ff8e1a15aba9398e019f0b49df1a4fde98ee17ae345cb5f6b5e2c27f5033e8ce78260405161331891906146cd565b60405180910390a15050565b600073ffffffffffffffffffffffffffffffffffffffff168273ffffffffffffffffffffffffffffffffffffffff160361339557816040517f5b08ba1800000000000000000000000000000000000000000000000000000000815260040161338c91906145de565b60405180910390fd5b80600760008573ffffffffffffffffffffffffffffffffffffffff1673ffffffffffffffffffffffffffffffffffffffff16815260200190815260200160002060008473ffffffffffffffffffffffffffffffffffffffff1673ffffffffffffffffffffffffffffffffffffffff16815260200190815260200160002060006101000a81548160ff0219169083151502179055508173ffffffffffffffffffffffffffffffffffffffff168373ffffffffffffffffffffffffffffffffffffffff167f17307eab39ab6107e8899845ad3d59bd9653f200f220920489ca2b5937696c31836040516134869190614306565b60405180910390a3505050565b600073ffffffffffffffffffffffffffffffffffffffff168273ffffffffffffffffffffffffffffffffffffffff16036135055760006040517f64a0ae920000000000000000000000000000000000000000000000000000000081526004016134fc91906145de565b60405180910390fd5b600061351383836000612ee7565b9050600073ffffffffffffffffffffffffffffffffffffffff168173ffffffffffffffffffffffffffffffffffffffff160361358657816040517f7e27328900000000000000000000000000000000000000000000000000000000815260040161357d91906146cd565b60405180910390fd5b8373ffffffffffffffffffffffffffffffffffffffff168173ffffffffffffffffffffffffffffffffffffffff16146135fa578382826040517f64283d7b0000000000000000000000000000000000000000000000000000000081526004016135f193929190615267565b60405180910390fd5b50505050565b60008373ffffffffffffffffffffffffffffffffffffffff163b11156137aa578273ffffffffffffffffffffffffffffffffffffffff1663150b7a02868685856040518563ffffffff1660e01b815260040161365f94939291906159cd565b6020604051808303816000875af192505050801561369b57506040513d601f19601f820116820180604052508101906136989190615a2e565b60015b61371f573d80600081146136cb576040519150601f19603f3d011682016040523d82523d6000602084013e6136d0565b606091505b50600081510361371757836040517f64a0ae9200000000000000000000000000000000000000000000000000000000815260040161370e91906145de565b60405180910390fd5b805181602001fd5b63150b7a0260e01b7bffffffffffffffffffffffffffffffffffffffffffffffffffffffff1916817bffffffffffffffffffffffffffffffffffffffffffffffffffffffff1916146137a857836040517f64a0ae9200000000000000000000000000000000000000000000000000000000815260040161379f91906145de565b60405180910390fd5b505b5050505050565b606060405180602001604052806000815250905090565b60606137d382612ce2565b5060006137de6137b1565b905060008151116137fe5760405180602001604052806000815250613829565b8061380884613101565b6040516020016138199291906158bc565b6040516020818303038152906040525b915050919050565b60008111613874576040517f08c379a000000000000000000000000000000000000000000000000000000000815260040161386b90615aa7565b60405180910390fd5b61388a6001600b54610ca790919063ffffffff16565b600b819055506040518060a001604052808381526020013373ffffffffffffffffffffffffffffffffffffffff1681526020013073ffffffffffffffffffffffffffffffffffffffff16815260200182815260200160001515815250600e60008481526020019081526020016000206000820151816000015560208201518160010160006101000a81548173ffffffffffffffffffffffffffffffffffffffff021916908373ffffffffffffffffffffffffffffffffffffffff16021790555060408201518160020160006101000a81548173ffffffffffffffffffffffffffffffffffffffff021916908373ffffffffffffffffffffffffffffffffffffffff1602179055506060820151816003015560808201518160040160006101000a81548160ff0219169083151502179055509050506139c9333084613493565b817f3cf8eaa46d9accaa9c8e76a1b58ee317d0eac0885fb7635711309f21e5a25fb93330846000604051613a009493929190615ac7565b60405180910390a25050565b3373ffffffffffffffffffffffffffffffffffffffff168173ffffffffffffffffffffffffffffffffffffffff1603613a7a576040517f08c379a0000000000000000000000000000000000000000000000000000000008152600401613a7190615b58565b60405180910390fd5b80600160006101000a81548173ffffffffffffffffffffffffffffffffffffffff021916908373ffffffffffffffffffffffffffffffffffffffff1602179055508073ffffffffffffffffffffffffffffffffffffffff1660008054906101000a900473ffffffffffffffffffffffffffffffffffffffff1673ffffffffffffffffffffffffffffffffffffffff167fed8889f560326eb138920d842192f0eb3dd22b4f139c87a2c57538e05bae127860405160405180910390a350565b60007f01ffc9a7000000000000000000000000000000000000000000000000000000007bffffffffffffffffffffffffffffffffffffffffffffffffffffffff1916827bffffffffffffffffffffffffffffffffffffffffffffffffffffffff1916149050919050565b60006004600083815260200190815260200160002060009054906101000a900473ffffffffffffffffffffffffffffffffffffffff169050919050565b8080613c185750600073ffffffffffffffffffffffffffffffffffffffff168273ffffffffffffffffffffffffffffffffffffffff1614155b15613d4c576000613c2884612ce2565b9050600073ffffffffffffffffffffffffffffffffffffffff168373ffffffffffffffffffffffffffffffffffffffff1614158015613c9357508273ffffffffffffffffffffffffffffffffffffffff168173ffffffffffffffffffffffffffffffffffffffff1614155b8015613ca65750613ca48184612a8e565b155b15613ce857826040517fa9fbf51f000000000000000000000000000000000000000000000000000000008152600401613cdf91906145de565b60405180910390fd5b8115613d4a57838573ffffffffffffffffffffffffffffffffffffffff168273ffffffffffffffffffffffffffffffffffffffff167f8c5be1e5ebec7d5bd14f71427d1e84f3dd0314c0f7b2291e5b200ac8c7c3b92560405160405180910390a45b505b836006600085815260200190815260200160002060006101000a81548173ffffffffffffffffffffffffffffffffffffffff021916908373ffffffffffffffffffffffffffffffffffffffff16021790555050505050565b613daf838383613fbb565b613e6357600073ffffffffffffffffffffffffffffffffffffffff168373ffffffffffffffffffffffffffffffffffffffff1603613e2457806040517f7e273289000000000000000000000000000000000000000000000000000000008152600401613e1b91906146cd565b60405180910390fd5b81816040517f177e802f000000000000000000000000000000000000000000000000000000008152600401613e5a929190615b78565b60405180910390fd5b505050565b600080600090507a184f03e93ff9f4daa797ed6e38ed64bf6a1f0100000000000000008310613ec6577a184f03e93ff9f4daa797ed6e38ed64bf6a1f0100000000000000008381613ebc57613ebb6155ea565b5b0492506040810190505b6d04ee2d6d415b85acef81000000008310613f03576d04ee2d6d415b85acef81000000008381613ef957613ef86155ea565b5b0492506020810190505b662386f26fc100008310613f3257662386f26fc100008381613f2857613f276155ea565b5b0492506010810190505b6305f5e1008310613f5b576305f5e1008381613f5157613f506155ea565b5b0492506008810190505b6127108310613f80576127108381613f7657613f756155ea565b5b0492506004810190505b60648310613fa35760648381613f9957613f986155ea565b5b0492506002810190505b600a8310613fb2576001810190505b80915050919050565b60008073ffffffffffffffffffffffffffffffffffffffff168373ffffffffffffffffffffffffffffffffffffffff161415801561407357508273ffffffffffffffffffffffffffffffffffffffff168473ffffffffffffffffffffffffffffffffffffffff16148061403457506140338484612a8e565b5b8061407257508273ffffffffffffffffffffffffffffffffffffffff1661405a83612d6a565b73ffffffffffffffffffffffffffffffffffffffff16145b5b90509392505050565b6040518060a0016040528060008152602001600073ffffffffffffffffffffffffffffffffffffffff168152602001600073ffffffffffffffffffffffffffffffffffffffff168152602001600081526020016000151581525090565b828054828255906000526020600020908101928215614115579160200282015b828111156141145782358255916020019190600101906140f9565b5b5090506141229190614126565b5090565b5b8082111561413f576000816000905550600101614127565b5090565b600082825260208201905092915050565b7f416c6c2063617264207061636b73206172652063757272656e746c7920736f6c60008201527f64206f7574000000000000000000000000000000000000000000000000000000602082015250565b60006141b0602583614143565b91506141bb82614154565b604082019050919050565b600060208201905081810360008301526141df816141a3565b9050919050565b7f496e636f7272656374207061796d656e7420616d6f756e740000000000000000600082015250565b600061421c601883614143565b9150614227826141e6565b602082019050919050565b6000602082019050818103600083015261424b8161420f565b9050919050565b6000604051905090565b600080fd5b600080fd5b60007fffffffff0000000000000000000000000000000000000000000000000000000082169050919050565b61429b81614266565b81146142a657600080fd5b50565b6000813590506142b881614292565b92915050565b6000602082840312156142d4576142d361425c565b5b60006142e2848285016142a9565b91505092915050565b60008115159050919050565b614300816142eb565b82525050565b600060208201905061431b60008301846142f7565b92915050565b600081519050919050565b60005b8381101561434a57808201518184015260208101905061432f565b60008484015250505050565b6000601f19601f8301169050919050565b600061437282614321565b61437c8185614143565b935061438c81856020860161432c565b61439581614356565b840191505092915050565b600060208201905081810360008301526143ba8184614367565b905092915050565b600081519050919050565b600082825260208201905092915050565b6000819050602082019050919050565b6000819050919050565b614401816143ee565b82525050565b600073ffffffffffffffffffffffffffffffffffffffff82169050919050565b600061443282614407565b9050919050565b61444281614427565b82525050565b614451816142eb565b82525050565b60a08201600082015161446d60008501826143f8565b5060208201516144806020850182614439565b5060408201516144936040850182614439565b5060608201516144a660608501826143f8565b5060808201516144b96080850182614448565b50505050565b60006144cb8383614457565b60a08301905092915050565b6000602082019050919050565b60006144ef826143c2565b6144f981856143cd565b9350614504836143de565b8060005b8381101561453557815161451c88826144bf565b9750614527836144d7565b925050600181019050614508565b5085935050505092915050565b6000602082019050818103600083015261455c81846144e4565b905092915050565b61456d816143ee565b811461457857600080fd5b50565b60008135905061458a81614564565b92915050565b6000602082840312156145a6576145a561425c565b5b60006145b48482850161457b565b91505092915050565b60006145c882614407565b9050919050565b6145d8816145bd565b82525050565b60006020820190506145f360008301846145cf565b92915050565b614602816145bd565b811461460d57600080fd5b50565b60008135905061461f816145f9565b92915050565b6000806040838503121561463c5761463b61425c565b5b600061464a85828601614610565b925050602061465b8582860161457b565b9150509250929050565b61466e816142eb565b811461467957600080fd5b50565b60008135905061468b81614665565b92915050565b6000602082840312156146a7576146a661425c565b5b60006146b58482850161467c565b91505092915050565b6146c7816143ee565b82525050565b60006020820190506146e260008301846146be565b92915050565b600080fd5b600080fd5b600080fd5b60008083601f84011261470d5761470c6146e8565b5b8235905067ffffffffffffffff81111561472a576147296146ed565b5b602083019150836020820283011115614746576147456146f2565b5b9250929050565b6000806000604084860312156147665761476561425c565b5b60006147748682870161457b565b935050602084013567ffffffffffffffff81111561479557614794614261565b5b6147a1868287016146f7565b92509250509250925092565b6000806000606084860312156147c6576147c561425c565b5b60006147d486828701614610565b93505060206147e586828701614610565b92505060406147f68682870161457b565b9150509250925092565b600063ffffffff82169050919050565b61481981614800565b82525050565b60006020820190506148346000830184614810565b92915050565b6000602082840312156148505761484f61425c565b5b600061485e84828501614610565b91505092915050565b600081519050919050565b600082825260208201905092915050565b6000819050602082019050919050565b600061489f83836143f8565b60208301905092915050565b6000602082019050919050565b60006148c382614867565b6148cd8185614872565b93506148d883614883565b8060005b838110156149095781516148f08882614893565b97506148fb836148ab565b9250506001810190506148dc565b5085935050505092915050565b6000602082019050818103600083015261493081846148b8565b905092915050565b6000819050919050565b61494b81614938565b82525050565b60006020820190506149666000830184614942565b92915050565b600080fd5b7f4e487b7100000000000000000000000000000000000000000000000000000000600052604160045260246000fd5b6149a982614356565b810181811067ffffffffffffffff821117156149c8576149c7614971565b5b80604052505050565b60006149db614252565b90506149e782826149a0565b919050565b600067ffffffffffffffff821115614a0757614a06614971565b5b614a1082614356565b9050602081019050919050565b82818337600083830152505050565b6000614a3f614a3a846149ec565b6149d1565b905082815260208101848484011115614a5b57614a5a61496c565b5b614a66848285614a1d565b509392505050565b600082601f830112614a8357614a826146e8565b5b8135614a93848260208601614a2c565b91505092915050565b600060208284031215614ab257614ab161425c565b5b600082013567ffffffffffffffff811115614ad057614acf614261565b5b614adc84828501614a6e565b91505092915050565b600067ffffffffffffffff821115614b0057614aff614971565b5b602082029050602081019050919050565b6000614b24614b1f84614ae5565b6149d1565b90508083825260208201905060208402830185811115614b4757614b466146f2565b5b835b81811015614b705780614b5c888261457b565b845260208401935050602081019050614b49565b5050509392505050565b600082601f830112614b8f57614b8e6146e8565b5b8135614b9f848260208601614b11565b91505092915050565b600080600060608486031215614bc157614bc061425c565b5b600084013567ffffffffffffffff811115614bdf57614bde614261565b5b614beb86828701614b7a565b9350506020614bfc86828701614610565b9250506040614c0d8682870161457b565b9150509250925092565b6000819050919050565b6000614c3c614c37614c3284614407565b614c17565b614407565b9050919050565b6000614c4e82614c21565b9050919050565b6000614c6082614c43565b9050919050565b614c7081614c55565b82525050565b6000602082019050614c8b6000830184614c67565b92915050565b60008060408385031215614ca857614ca761425c565b5b600083013567ffffffffffffffff811115614cc657614cc5614261565b5b614cd285828601614a6e565b9250506020614ce385828601614610565b9150509250929050565b60008060408385031215614d0457614d0361425c565b5b6000614d1285828601614610565b9250506020614d238582860161467c565b9150509250929050565b600061ffff82169050919050565b614d4481614d2d565b82525050565b6000602082019050614d5f6000830184614d3b565b92915050565b600067ffffffffffffffff821115614d8057614d7f614971565b5b614d8982614356565b9050602081019050919050565b6000614da9614da484614d65565b6149d1565b905082815260208101848484011115614dc557614dc461496c565b5b614dd0848285614a1d565b509392505050565b600082601f830112614ded57614dec6146e8565b5b8135614dfd848260208601614d96565b91505092915050565b60008060008060808587031215614e2057614e1f61425c565b5b6000614e2e87828801614610565b9450506020614e3f87828801614610565b9350506040614e508782880161457b565b925050606085013567ffffffffffffffff811115614e7157614e70614261565b5b614e7d87828801614dd8565b91505092959194509250565b60008060408385031215614ea057614e9f61425c565b5b6000614eae85828601614610565b9250506020614ebf85828601614610565b9150509250929050565b60008060408385031215614ee057614edf61425c565b5b6000614eee8582860161457b565b9250506020614eff8582860161457b565b9150509250929050565b7f4e487b7100000000000000000000000000000000000000000000000000000000600052601160045260246000fd5b6000614f43826143ee565b9150614f4e836143ee565b9250828201905080821115614f6657614f65614f09565b5b92915050565b7f4e487b7100000000000000000000000000000000000000000000000000000000600052600160045260246000fd5b6000614fa6826143ee565b9150614fb1836143ee565b9250828203905081811115614fc957614fc8614f09565b5b92915050565b614fd881614938565b82525050565b614fe781614d2d565b82525050565b614ff681614800565b82525050565b600081519050919050565b600082825260208201905092915050565b600061502382614ffc565b61502d8185615007565b935061503d81856020860161432c565b61504681614356565b840191505092915050565b600060c0830160008301516150696000860182614fcf565b50602083015161507c60208601826143f8565b50604083015161508f6040860182614fde565b5060608301516150a26060860182614fed565b5060808301516150b56080860182614fed565b5060a083015184820360a08601526150cd8282615018565b9150508091505092915050565b600060208201905081810360008301526150f48184615051565b905092915050565b60008151905061510b81614564565b92915050565b6000602082840312156151275761512661425c565b5b6000615135848285016150fc565b91505092915050565b600060408201905061515360008301856146be565b61516060208301846145cf565b9392505050565b7f4e487b7100000000000000000000000000000000000000000000000000000000600052602260045260246000fd5b600060028204905060018216806151ae57607f821691505b6020821081036151c1576151c0615167565b5b50919050565b7f4e487b7100000000000000000000000000000000000000000000000000000000600052603260045260246000fd5b6000615201826143ee565b91507fffffffffffffffffffffffffffffffffffffffffffffffffffffffffffffffff820361523357615232614f09565b5b600182019050919050565b600060408201905061525360008301856145cf565b61526060208301846145cf565b9392505050565b600060608201905061527c60008301866145cf565b61528960208301856146be565b61529660408301846145cf565b949350505050565b60008190508160005260206000209050919050565b60006020601f8301049050919050565b600082821b905092915050565b6000600883026153007fffffffffffffffffffffffffffffffffffffffffffffffffffffffffffffffff826152c3565b61530a86836152c3565b95508019841693508086168417925050509392505050565b600061533d615338615333846143ee565b614c17565b6143ee565b9050919050565b6000819050919050565b61535783615322565b61536b61536382615344565b8484546152d0565b825550505050565b600090565b615380615373565b61538b81848461534e565b505050565b5b818110156153af576153a4600082615378565b600181019050615391565b5050565b601f8211156153f4576153c58161529e565b6153ce846152b3565b810160208510156153dd578190505b6153f16153e9856152b3565b830182615390565b50505b505050565b600082821c905092915050565b6000615417600019846008026153f9565b1980831691505092915050565b60006154308383615406565b9150826002028217905092915050565b61544982614321565b67ffffffffffffffff81111561546257615461614971565b5b61546c8254615196565b6154778282856153b3565b600060209050601f8311600181146154aa5760008415615498578287015190505b6154a28582615424565b86555061550a565b601f1984166154b88661529e565b60005b828110156154e0578489015182556001820191506020850194506020810190506154bb565b868310156154fd57848901516154f9601f891682615406565b8355505b6001600288020188555050505b505050505050565b7f457870656374656420582072616e646f6d206e756d6265727300000000000000600082015250565b6000615548601983614143565b915061555382615512565b602082019050919050565b600060208201905081810360008301526155778161553b565b9050919050565b7f526563697069656e74206164647265737320697320696e76616c696400000000600082015250565b60006155b4601c83614143565b91506155bf8261557e565b602082019050919050565b600060208201905081810360008301526155e3816155a7565b9050919050565b7f4e487b7100000000000000000000000000000000000000000000000000000000600052601260045260246000fd5b6000615624826143ee565b915061562f836143ee565b92508261563f5761563e6155ea565b5b828206905092915050565b600081905092915050565b6000815461566281615196565b61566c818661564a565b94506001821660008114615687576001811461569c576156cf565b60ff19831686528115158202860193506156cf565b6156a58561529e565b60005b838110156156c7578154818901526001820191506020810190506156a8565b838801955050505b50505092915050565b7f4361726420000000000000000000000000000000000000000000000000000000600082015250565b600061570e60058361564a565b9150615719826156d8565b600582019050919050565b600061572f82614321565b615739818561564a565b935061574981856020860161432c565b80840191505092915050565b7f2e706e6700000000000000000000000000000000000000000000000000000000600082015250565b600061578b60048361564a565b915061579682615755565b600482019050919050565b60006157ad8285615655565b91506157b882615701565b91506157c48284615724565b91506157cf8261577e565b91508190509392505050565b60006060820190506157f060008301866146be565b6157fd60208301856145cf565b818103604083015261580f8184614367565b9050949350505050565b7f4d7573742062652070726f706f736564206f776e657200000000000000000000600082015250565b600061584f601683614143565b915061585a82615819565b602082019050919050565b6000602082019050818103600083015261587e81615842565b9050919050565b600060608201905061589a60008301866145cf565b6158a760208301856145cf565b6158b460408301846145cf565b949350505050565b60006158c88285615724565b91506158d48284615724565b91508190509392505050565b6020820160008201516158f66000850182614448565b50505050565b600060208201905061591160008301846158e0565b92915050565b7f4f6e6c792063616c6c61626c65206279206f776e657200000000000000000000600082015250565b600061594d601683614143565b915061595882615917565b602082019050919050565b6000602082019050818103600083015261597c81615940565b9050919050565b600082825260208201905092915050565b600061599f82614ffc565b6159a98185615983565b93506159b981856020860161432c565b6159c281614356565b840191505092915050565b60006080820190506159e260008301876145cf565b6159ef60208301866145cf565b6159fc60408301856146be565b8181036060830152615a0e8184615994565b905095945050505050565b600081519050615a2881614292565b92915050565b600060208284031215615a4457615a4361425c565b5b6000615a5284828501615a19565b91505092915050565b7f5072696365206d757374206265206174206c6561737420312077656900000000600082015250565b6000615a91601c83614143565b9150615a9c82615a5b565b602082019050919050565b60006020820190508181036000830152615ac081615a84565b9050919050565b6000608082019050615adc60008301876145cf565b615ae960208301866145cf565b615af660408301856146be565b615b0360608301846142f7565b95945050505050565b7f43616e6e6f74207472616e7366657220746f2073656c66000000000000000000600082015250565b6000615b42601783614143565b9150615b4d82615b0c565b602082019050919050565b60006020820190508181036000830152615b7181615b35565b9050919050565b6000604082019050615b8d60008301856145cf565b615b9a60208301846146be565b939250505056fea264697066735822122025102339cca235454fd86417482da72d0ff648d739e6efc4c8f531f7b07f41d964736f6c6343000814003368747470733a2f2f61707269636f742d636865657266756c2d616c706163612d3633362e6d7970696e6174612e636c6f75642f697066732f62616679626569663477646536693435337568616432627336336179346e6970336d6c32713778336a6866666d6f346c6b64327a35327569706d692f",
  "linkReferences": {},
  "deployedLinkReferences": {}
}