{
  "_format": "hh-sol-artifact-1",
  "contractName": "CardMintPack",
  "sourceName": "contracts/CardMintPack.sol",
  "abi": [
    {
      "inputs": [
        {
          "internalType": "uint256",
          "name": "subscriptionId",
          "type": "uint256"
        }
      ],
      "stateMutability": "nonpayable",
      "type": "constructor"
    },
    {
      "inputs": [
        {
          "internalType": "address",
          "name": "sender",
          "type": "address"
        },
        {
          "internalType": "uint256",
          "name": "tokenId",
          "type": "uint256"
        },
        {
          "internalType": "address",
          "name": "owner",
          "type": "address"
        }
      ],
      "name": "ERC721IncorrectOwner",
      "type": "error"
    },
    {
      "inputs": [
        {
          "internalType": "address",
          "name": "operator",
          "type": "address"
        },
        {
          "internalType": "uint256",
          "name": "tokenId",
          "type": "uint256"
        }
      ],
      "name": "ERC721InsufficientApproval",
      "type": "error"
    },
    {
      "inputs": [
        {
          "internalType": "address",
          "name": "approver",
          "type": "address"
        }
      ],
      "name": "ERC721InvalidApprover",
      "type": "error"
    },
    {
      "inputs": [
        {
          "internalType": "address",
          "name": "operator",
          "type": "address"
        }
      ],
      "name": "ERC721InvalidOperator",
      "type": "error"
    },
    {
      "inputs": [
        {
          "internalType": "address",
          "name": "owner",
          "type": "address"
        }
      ],
      "name": "ERC721InvalidOwner",
      "type": "error"
    },
    {
      "inputs": [
        {
          "internalType": "address",
          "name": "receiver",
          "type": "address"
        }
      ],
      "name": "ERC721InvalidReceiver",
      "type": "error"
    },
    {
      "inputs": [
        {
          "internalType": "address",
          "name": "sender",
          "type": "address"
        }
      ],
      "name": "ERC721InvalidSender",
      "type": "error"
    },
    {
      "inputs": [
        {
          "internalType": "uint256",
          "name": "tokenId",
          "type": "uint256"
        }
      ],
      "name": "ERC721NonexistentToken",
      "type": "error"
    },
    {
      "inputs": [
        {
          "internalType": "address",
          "name": "have",
          "type": "address"
        },
        {
          "internalType": "address",
          "name": "want",
          "type": "address"
        }
      ],
      "name": "OnlyCoordinatorCanFulfill",
      "type": "error"
    },
    {
      "inputs": [
        {
          "internalType": "address",
          "name": "have",
          "type": "address"
        },
        {
          "internalType": "address",
          "name": "owner",
          "type": "address"
        },
        {
          "internalType": "address",
          "name": "coordinator",
          "type": "address"
        }
      ],
      "name": "OnlyOwnerOrCoordinator",
      "type": "error"
    },
    {
      "inputs": [],
      "name": "ZeroAddress",
      "type": "error"
    },
    {
      "anonymous": false,
      "inputs": [
        {
          "indexed": true,
          "internalType": "address",
          "name": "owner",
          "type": "address"
        },
        {
          "indexed": true,
          "internalType": "address",
          "name": "approved",
          "type": "address"
        },
        {
          "indexed": true,
          "internalType": "uint256",
          "name": "tokenId",
          "type": "uint256"
        }
      ],
      "name": "Approval",
      "type": "event"
    },
    {
      "anonymous": false,
      "inputs": [
        {
          "indexed": true,
          "internalType": "address",
          "name": "owner",
          "type": "address"
        },
        {
          "indexed": true,
          "internalType": "address",
          "name": "operator",
          "type": "address"
        },
        {
          "indexed": false,
          "internalType": "bool",
          "name": "approved",
          "type": "bool"
        }
      ],
      "name": "ApprovalForAll",
      "type": "event"
    },
    {
      "anonymous": false,
      "inputs": [
        {
          "indexed": false,
          "internalType": "uint256",
          "name": "_fromTokenId",
          "type": "uint256"
        },
        {
          "indexed": false,
          "internalType": "uint256",
          "name": "_toTokenId",
          "type": "uint256"
        }
      ],
      "name": "BatchMetadataUpdate",
      "type": "event"
    },
    {
      "anonymous": false,
      "inputs": [
        {
          "indexed": false,
          "internalType": "uint256",
          "name": "tokenId",
          "type": "uint256"
        },
        {
          "indexed": false,
          "internalType": "address",
          "name": "owner",
          "type": "address"
        },
        {
          "indexed": false,
          "internalType": "string",
          "name": "metadataURI",
          "type": "string"
        }
      ],
      "name": "CardMinted",
      "type": "event"
    },
    {
      "anonymous": false,
      "inputs": [
        {
          "indexed": false,
          "internalType": "address",
          "name": "vrfCoordinator",
          "type": "address"
        }
      ],
      "name": "CoordinatorSet",
      "type": "event"
    },
    {
      "anonymous": false,
      "inputs": [
        {
          "indexed": true,
          "internalType": "uint256",
          "name": "tokenId",
          "type": "uint256"
        },
        {
          "indexed": false,
          "internalType": "address",
          "name": "seller",
          "type": "address"
        },
        {
          "indexed": false,
          "internalType": "address",
          "name": "owner",
          "type": "address"
        },
        {
          "indexed": false,
          "internalType": "uint256",
          "name": "price",
          "type": "uint256"
        },
        {
          "indexed": false,
          "internalType": "bool",
          "name": "sold",
          "type": "bool"
        }
      ],
      "name": "ListingCreated",
      "type": "event"
    },
    {
      "anonymous": false,
      "inputs": [
        {
          "indexed": true,
          "internalType": "uint256",
          "name": "tokenId",
          "type": "uint256"
        },
        {
          "indexed": false,
          "internalType": "address",
          "name": "seller",
          "type": "address"
        }
      ],
      "name": "ListingRemoved",
      "type": "event"
    },
    {
      "anonymous": false,
      "inputs": [
        {
          "indexed": false,
          "internalType": "uint256",
          "name": "_tokenId",
          "type": "uint256"
        }
      ],
      "name": "MetadataUpdate",
      "type": "event"
    },
    {
      "anonymous": false,
      "inputs": [
        {
          "indexed": true,
          "internalType": "address",
          "name": "from",
          "type": "address"
        },
        {
          "indexed": true,
          "internalType": "address",
          "name": "to",
          "type": "address"
        }
      ],
      "name": "OwnershipTransferRequested",
      "type": "event"
    },
    {
      "anonymous": false,
      "inputs": [
        {
          "indexed": true,
          "internalType": "address",
          "name": "from",
          "type": "address"
        },
        {
          "indexed": true,
          "internalType": "address",
          "name": "to",
          "type": "address"
        }
      ],
      "name": "OwnershipTransferred",
      "type": "event"
    },
    {
      "anonymous": false,
      "inputs": [
        {
          "indexed": true,
          "internalType": "address",
          "name": "buyer",
          "type": "address"
        },
        {
          "indexed": false,
          "internalType": "uint256",
          "name": "packId",
          "type": "uint256"
        },
        {
          "indexed": false,
          "internalType": "uint256",
          "name": "requestId",
          "type": "uint256"
        }
      ],
      "name": "PackPurchased",
      "type": "event"
    },
    {
      "anonymous": false,
      "inputs": [
        {
          "indexed": false,
          "internalType": "uint256",
          "name": "requestId",
          "type": "uint256"
        },
        {
          "indexed": false,
          "internalType": "uint256[]",
          "name": "randomWords",
          "type": "uint256[]"
        }
      ],
      "name": "RandomnessFulfilled",
      "type": "event"
    },
    {
      "anonymous": false,
      "inputs": [
        {
          "indexed": false,
          "internalType": "uint256",
          "name": "requestId",
          "type": "uint256"
        },
        {
          "indexed": false,
          "internalType": "address",
          "name": "requester",
          "type": "address"
        }
      ],
      "name": "RandomnessRequested",
      "type": "event"
    },
    {
      "anonymous": false,
      "inputs": [
        {
          "indexed": true,
          "internalType": "address",
          "name": "from",
          "type": "address"
        },
        {
          "indexed": true,
          "internalType": "address",
          "name": "to",
          "type": "address"
        },
        {
          "indexed": true,
          "internalType": "uint256",
          "name": "tokenId",
          "type": "uint256"
        }
      ],
      "name": "Transfer",
      "type": "event"
    },
    {
      "inputs": [],
      "name": "acceptOwnership",
      "outputs": [],
      "stateMutability": "nonpayable",
      "type": "function"
    },
    {
      "inputs": [
        {
          "internalType": "address",
          "name": "to",
          "type": "address"
        },
        {
          "internalType": "uint256",
          "name": "tokenId",
          "type": "uint256"
        }
      ],
      "name": "approve",
      "outputs": [],
      "stateMutability": "nonpayable",
      "type": "function"
    },
    {
      "inputs": [
        {
          "internalType": "address",
          "name": "owner",
          "type": "address"
        }
      ],
      "name": "balanceOf",
      "outputs": [
        {
          "internalType": "uint256",
          "name": "",
          "type": "uint256"
        }
      ],
      "stateMutability": "view",
      "type": "function"
    },
    {
      "inputs": [],
      "name": "baseURI",
      "outputs": [
        {
          "internalType": "string",
          "name": "",
          "type": "string"
        }
      ],
      "stateMutability": "view",
      "type": "function"
    },
    {
      "inputs": [
        {
          "internalType": "uint256[]",
          "name": "_randomWords",
          "type": "uint256[]"
        },
        {
          "internalType": "address",
          "name": "recipient",
          "type": "address"
        },
        {
          "internalType": "uint256",
          "name": "requestId",
          "type": "uint256"
        }
      ],
      "name": "batchMint",
      "outputs": [],
      "stateMutability": "nonpayable",
      "type": "function"
    },
    {
      "inputs": [],
      "name": "callbackGasLimit",
      "outputs": [
        {
          "internalType": "uint32",
          "name": "",
          "type": "uint32"
        }
      ],
      "stateMutability": "view",
      "type": "function"
    },
    {
      "inputs": [
        {
          "internalType": "uint256",
          "name": "",
          "type": "uint256"
        }
      ],
      "name": "cardIndexes",
      "outputs": [
        {
          "internalType": "uint256",
          "name": "",
          "type": "uint256"
        }
      ],
      "stateMutability": "view",
      "type": "function"
    },
    {
      "inputs": [
        {
          "internalType": "string",
          "name": "tokenURI",
          "type": "string"
        },
        {
          "internalType": "address",
          "name": "recipient",
          "type": "address"
        },
        {
          "internalType": "uint256",
          "name": "cardIndex",
          "type": "uint256"
        }
      ],
      "name": "createToken",
      "outputs": [
        {
          "internalType": "uint256",
          "name": "",
          "type": "uint256"
        }
      ],
      "stateMutability": "payable",
      "type": "function"
    },
    {
      "inputs": [],
      "name": "fetchItemsListed",
      "outputs": [
        {
          "components": [
            {
              "internalType": "uint256",
              "name": "tokenId",
              "type": "uint256"
            },
            {
              "internalType": "address payable",
              "name": "seller",
              "type": "address"
            },
            {
              "internalType": "address payable",
              "name": "owner",
              "type": "address"
            },
            {
              "internalType": "uint256",
              "name": "price",
              "type": "uint256"
            },
            {
              "internalType": "bool",
              "name": "sold",
              "type": "bool"
            },
            {
              "internalType": "uint256",
              "name": "cardIndex",
              "type": "uint256"
            }
          ],
          "internalType": "struct NFTplace.Listing[]",
          "name": "",
          "type": "tuple[]"
        }
      ],
      "stateMutability": "view",
      "type": "function"
    },
    {
      "inputs": [],
      "name": "fetchListingMarketplace",
      "outputs": [
        {
          "components": [
            {
              "internalType": "uint256",
              "name": "tokenId",
              "type": "uint256"
            },
            {
              "internalType": "address payable",
              "name": "seller",
              "type": "address"
            },
            {
              "internalType": "address payable",
              "name": "owner",
              "type": "address"
            },
            {
              "internalType": "uint256",
              "name": "price",
              "type": "uint256"
            },
            {
              "internalType": "bool",
              "name": "sold",
              "type": "bool"
            },
            {
              "internalType": "uint256",
              "name": "cardIndex",
              "type": "uint256"
            }
          ],
          "internalType": "struct NFTplace.Listing[]",
          "name": "",
          "type": "tuple[]"
        }
      ],
      "stateMutability": "view",
      "type": "function"
    },
    {
      "inputs": [],
      "name": "fetchMyNFTs",
      "outputs": [
        {
          "components": [
            {
              "internalType": "uint256",
              "name": "tokenId",
              "type": "uint256"
            },
            {
              "internalType": "address payable",
              "name": "seller",
              "type": "address"
            },
            {
              "internalType": "address payable",
              "name": "owner",
              "type": "address"
            },
            {
              "internalType": "uint256",
              "name": "price",
              "type": "uint256"
            },
            {
              "internalType": "bool",
              "name": "sold",
              "type": "bool"
            },
            {
              "internalType": "uint256",
              "name": "cardIndex",
              "type": "uint256"
            }
          ],
          "internalType": "struct NFTplace.Listing[]",
          "name": "",
          "type": "tuple[]"
        }
      ],
      "stateMutability": "view",
      "type": "function"
    },
    {
      "inputs": [
        {
          "internalType": "uint256",
          "name": "tokenId",
          "type": "uint256"
        }
      ],
      "name": "getApproved",
      "outputs": [
        {
          "internalType": "address",
          "name": "",
          "type": "address"
        }
      ],
      "stateMutability": "view",
      "type": "function"
    },
    {
      "inputs": [
        {
          "internalType": "uint256",
          "name": "tokenId",
          "type": "uint256"
        }
      ],
      "name": "getCardIndexFromId",
      "outputs": [
        {
          "internalType": "uint256",
          "name": "",
          "type": "uint256"
        }
      ],
      "stateMutability": "view",
      "type": "function"
    },
    {
      "inputs": [],
      "name": "getContractOwner",
      "outputs": [
        {
          "internalType": "address",
          "name": "",
          "type": "address"
        }
      ],
      "stateMutability": "view",
      "type": "function"
    },
    {
      "inputs": [],
      "name": "getListingPrice",
      "outputs": [
        {
          "internalType": "uint256",
          "name": "",
          "type": "uint256"
        }
      ],
      "stateMutability": "view",
      "type": "function"
    },
    {
      "inputs": [
        {
          "internalType": "address",
          "name": "user",
          "type": "address"
        }
      ],
      "name": "getMintedTokens",
      "outputs": [
        {
          "internalType": "uint256[]",
          "name": "",
          "type": "uint256[]"
        }
      ],
      "stateMutability": "view",
      "type": "function"
    },
    {
      "inputs": [
        {
          "internalType": "uint256",
          "name": "requestId",
          "type": "uint256"
        }
      ],
      "name": "getMintedTokensFromRequest",
      "outputs": [
        {
          "internalType": "uint256[]",
          "name": "",
          "type": "uint256[]"
        }
      ],
      "stateMutability": "view",
      "type": "function"
    },
    {
      "inputs": [],
      "name": "getNativePayment",
      "outputs": [
        {
          "internalType": "string",
          "name": "",
          "type": "string"
        }
      ],
      "stateMutability": "view",
      "type": "function"
    },
    {
      "inputs": [],
      "name": "getPacksAvailable",
      "outputs": [
        {
          "internalType": "uint256",
          "name": "",
          "type": "uint256"
        }
      ],
      "stateMutability": "view",
      "type": "function"
    },
    {
      "inputs": [],
      "name": "getTotalPacksSold",
      "outputs": [
        {
          "internalType": "uint256",
          "name": "",
          "type": "uint256"
        }
      ],
      "stateMutability": "view",
      "type": "function"
    },
    {
      "inputs": [
        {
          "internalType": "address",
          "name": "owner",
          "type": "address"
        },
        {
          "internalType": "address",
          "name": "operator",
          "type": "address"
        }
      ],
      "name": "isApprovedForAll",
      "outputs": [
        {
          "internalType": "bool",
          "name": "",
          "type": "bool"
        }
      ],
      "stateMutability": "view",
      "type": "function"
    },
    {
      "inputs": [
        {
          "internalType": "uint256",
          "name": "tokenId",
          "type": "uint256"
        },
        {
          "internalType": "uint256",
          "name": "price",
          "type": "uint256"
        }
      ],
      "name": "listCard",
      "outputs": [],
      "stateMutability": "payable",
      "type": "function"
    },
    {
      "inputs": [],
      "name": "name",
      "outputs": [
        {
          "internalType": "string",
          "name": "",
          "type": "string"
        }
      ],
      "stateMutability": "view",
      "type": "function"
    },
    {
      "inputs": [],
      "name": "nextTokenId",
      "outputs": [
        {
          "internalType": "uint256",
          "name": "",
          "type": "uint256"
        }
      ],
      "stateMutability": "view",
      "type": "function"
    },
    {
      "inputs": [],
      "name": "numWords",
      "outputs": [
        {
          "internalType": "uint32",
          "name": "",
          "type": "uint32"
        }
      ],
      "stateMutability": "view",
      "type": "function"
    },
    {
      "inputs": [],
      "name": "owner",
      "outputs": [
        {
          "internalType": "address",
          "name": "",
          "type": "address"
        }
      ],
      "stateMutability": "view",
      "type": "function"
    },
    {
      "inputs": [
        {
          "internalType": "uint256",
          "name": "tokenId",
          "type": "uint256"
        }
      ],
      "name": "ownerOf",
      "outputs": [
        {
          "internalType": "address",
          "name": "",
          "type": "address"
        }
      ],
      "stateMutability": "view",
      "type": "function"
    },
    {
      "inputs": [],
      "name": "packPrice",
      "outputs": [
        {
          "internalType": "uint256",
          "name": "",
          "type": "uint256"
        }
      ],
      "stateMutability": "view",
      "type": "function"
    },
    {
      "inputs": [],
      "name": "packsAvailable",
      "outputs": [
        {
          "internalType": "uint256",
          "name": "",
          "type": "uint256"
        }
      ],
      "stateMutability": "view",
      "type": "function"
    },
    {
      "inputs": [
        {
          "internalType": "uint256",
          "name": "tokenId",
          "type": "uint256"
        }
      ],
      "name": "purchaseCard",
      "outputs": [],
      "stateMutability": "payable",
      "type": "function"
    },
    {
      "inputs": [
        {
          "internalType": "uint256",
          "name": "requestId",
          "type": "uint256"
        },
        {
          "internalType": "uint256[]",
          "name": "randomWords",
          "type": "uint256[]"
        }
      ],
      "name": "rawFulfillRandomWords",
      "outputs": [],
      "stateMutability": "nonpayable",
      "type": "function"
    },
    {
      "inputs": [],
      "name": "requestConfirmations",
      "outputs": [
        {
          "internalType": "uint16",
          "name": "",
          "type": "uint16"
        }
      ],
      "stateMutability": "view",
      "type": "function"
    },
    {
      "inputs": [],
      "name": "requestRandomWords",
      "outputs": [
        {
          "internalType": "uint256",
          "name": "requestId",
          "type": "uint256"
        }
      ],
      "stateMutability": "nonpayable",
      "type": "function"
    },
    {
      "inputs": [],
      "name": "s_keyHash",
      "outputs": [
        {
          "internalType": "bytes32",
          "name": "",
          "type": "bytes32"
        }
      ],
      "stateMutability": "view",
      "type": "function"
    },
    {
      "inputs": [
        {
          "internalType": "uint256",
          "name": "",
          "type": "uint256"
        }
      ],
      "name": "s_randomWords",
      "outputs": [
        {
          "internalType": "uint256",
          "name": "",
          "type": "uint256"
        }
      ],
      "stateMutability": "view",
      "type": "function"
    },
    {
      "inputs": [
        {
          "internalType": "uint256",
          "name": "",
          "type": "uint256"
        }
      ],
      "name": "s_requestToSender",
      "outputs": [
        {
          "internalType": "address",
          "name": "",
          "type": "address"
        }
      ],
      "stateMutability": "view",
      "type": "function"
    },
    {
      "inputs": [],
      "name": "s_subscriptionId",
      "outputs": [
        {
          "internalType": "uint256",
          "name": "",
          "type": "uint256"
        }
      ],
      "stateMutability": "view",
      "type": "function"
    },
    {
      "inputs": [],
      "name": "s_vrfCoordinator",
      "outputs": [
        {
          "internalType": "contract IVRFCoordinatorV2Plus",
          "name": "",
          "type": "address"
        }
      ],
      "stateMutability": "view",
      "type": "function"
    },
    {
      "inputs": [
        {
          "internalType": "address",
          "name": "from",
          "type": "address"
        },
        {
          "internalType": "address",
          "name": "to",
          "type": "address"
        },
        {
          "internalType": "uint256",
          "name": "tokenId",
          "type": "uint256"
        }
      ],
      "name": "safeTransferFrom",
      "outputs": [],
      "stateMutability": "nonpayable",
      "type": "function"
    },
    {
      "inputs": [
        {
          "internalType": "address",
          "name": "from",
          "type": "address"
        },
        {
          "internalType": "address",
          "name": "to",
          "type": "address"
        },
        {
          "internalType": "uint256",
          "name": "tokenId",
          "type": "uint256"
        },
        {
          "internalType": "bytes",
          "name": "data",
          "type": "bytes"
        }
      ],
      "name": "safeTransferFrom",
      "outputs": [],
      "stateMutability": "nonpayable",
      "type": "function"
    },
    {
      "inputs": [
        {
          "internalType": "address",
          "name": "operator",
          "type": "address"
        },
        {
          "internalType": "bool",
          "name": "approved",
          "type": "bool"
        }
      ],
      "name": "setApprovalForAll",
      "outputs": [],
      "stateMutability": "nonpayable",
      "type": "function"
    },
    {
      "inputs": [
        {
          "internalType": "string",
          "name": "_baseURI",
          "type": "string"
        }
      ],
      "name": "setBaseURI",
      "outputs": [],
      "stateMutability": "nonpayable",
      "type": "function"
    },
    {
      "inputs": [
        {
          "internalType": "address",
          "name": "_vrfCoordinator",
          "type": "address"
        }
      ],
      "name": "setCoordinator",
      "outputs": [],
      "stateMutability": "nonpayable",
      "type": "function"
    },
    {
      "inputs": [
        {
          "internalType": "bool",
          "name": "_enableNativePayment",
          "type": "bool"
        }
      ],
      "name": "setNativePayment",
      "outputs": [],
      "stateMutability": "nonpayable",
      "type": "function"
    },
    {
      "inputs": [
        {
          "internalType": "bytes4",
          "name": "interfaceId",
          "type": "bytes4"
        }
      ],
      "name": "supportsInterface",
      "outputs": [
        {
          "internalType": "bool",
          "name": "",
          "type": "bool"
        }
      ],
      "stateMutability": "view",
      "type": "function"
    },
    {
      "inputs": [],
      "name": "symbol",
      "outputs": [
        {
          "internalType": "string",
          "name": "",
          "type": "string"
        }
      ],
      "stateMutability": "view",
      "type": "function"
    },
    {
      "inputs": [
        {
          "internalType": "uint256",
          "name": "tokenId",
          "type": "uint256"
        }
      ],
      "name": "tokenURI",
      "outputs": [
        {
          "internalType": "string",
          "name": "",
          "type": "string"
        }
      ],
      "stateMutability": "view",
      "type": "function"
    },
    {
      "inputs": [],
      "name": "totalPacksSold",
      "outputs": [
        {
          "internalType": "uint256",
          "name": "",
          "type": "uint256"
        }
      ],
      "stateMutability": "view",
      "type": "function"
    },
    {
      "inputs": [
        {
          "internalType": "address",
          "name": "from",
          "type": "address"
        },
        {
          "internalType": "address",
          "name": "to",
          "type": "address"
        },
        {
          "internalType": "uint256",
          "name": "tokenId",
          "type": "uint256"
        }
      ],
      "name": "transferFrom",
      "outputs": [],
      "stateMutability": "nonpayable",
      "type": "function"
    },
    {
      "inputs": [
        {
          "internalType": "address",
          "name": "to",
          "type": "address"
        }
      ],
      "name": "transferOwnership",
      "outputs": [],
      "stateMutability": "nonpayable",
      "type": "function"
    },
    {
      "inputs": [
        {
          "internalType": "uint256",
          "name": "newPrice",
          "type": "uint256"
        }
      ],
      "name": "updatePackPrice",
      "outputs": [],
      "stateMutability": "nonpayable",
      "type": "function"
    },
    {
      "inputs": [
        {
          "internalType": "uint256",
          "name": "newQty",
          "type": "uint256"
        }
      ],
      "name": "updatePacksAvailable",
      "outputs": [],
      "stateMutability": "nonpayable",
      "type": "function"
    },
    {
      "inputs": [],
      "name": "withdraw",
      "outputs": [],
      "stateMutability": "nonpayable",
      "type": "function"
    },
    {
      "stateMutability": "payable",
      "type": "receive"
    }
  ],
  "bytecode": "0x6080604052655af3107a4000600c557f787d74caea10b2b357790d5b5247c2f63d1d91572a9846f780606e4d953677ae60001b601355621e8480601460006101000a81548163ffffffff021916908363ffffffff1602179055506003601460046101000a81548161ffff021916908361ffff1602179055506005601460066101000a81548163ffffffff021916908363ffffffff1602179055506040518060a0016040528060748152602001620067076074913960159081620000c3919062000756565b5066038d7ea4c680006017556064601855348015620000e157600080fd5b506040516200677b3803806200677b833981810160405281019062000107919062000873565b739ddfaca8183c41ad55329bdeed9f6a8d53168b1b6040518060400160405280600c81526020017f5a6f6465636b20436172647300000000000000000000000000000000000000008152506040518060400160405280600381526020017f5a444b0000000000000000000000000000000000000000000000000000000000815250338060008073ffffffffffffffffffffffffffffffffffffffff168273ffffffffffffffffffffffffffffffffffffffff1603620001fd576040517f08c379a0000000000000000000000000000000000000000000000000000000008152600401620001f49062000906565b60405180910390fd5b816000806101000a81548173ffffffffffffffffffffffffffffffffffffffff021916908373ffffffffffffffffffffffffffffffffffffffff160217905550600073ffffffffffffffffffffffffffffffffffffffff168173ffffffffffffffffffffffffffffffffffffffff161462000284576200028381620003ad60201b60201c565b5b505050816002908162000298919062000756565b508060039081620002aa919062000756565b505050600073ffffffffffffffffffffffffffffffffffffffff168173ffffffffffffffffffffffffffffffffffffffff160362000314576040517fd92e233d00000000000000000000000000000000000000000000000000000000815260040160405180910390fd5b80600960006101000a81548173ffffffffffffffffffffffffffffffffffffffff021916908373ffffffffffffffffffffffffffffffffffffffff1602179055505033600d60006101000a81548173ffffffffffffffffffffffffffffffffffffffff021916908373ffffffffffffffffffffffffffffffffffffffff160217905550806012819055506000601981905550506200099a565b3373ffffffffffffffffffffffffffffffffffffffff168173ffffffffffffffffffffffffffffffffffffffff16036200041e576040517f08c379a0000000000000000000000000000000000000000000000000000000008152600401620004159062000978565b60405180910390fd5b80600160006101000a81548173ffffffffffffffffffffffffffffffffffffffff021916908373ffffffffffffffffffffffffffffffffffffffff1602179055508073ffffffffffffffffffffffffffffffffffffffff1660008054906101000a900473ffffffffffffffffffffffffffffffffffffffff1673ffffffffffffffffffffffffffffffffffffffff167fed8889f560326eb138920d842192f0eb3dd22b4f139c87a2c57538e05bae127860405160405180910390a350565b600081519050919050565b7f4e487b7100000000000000000000000000000000000000000000000000000000600052604160045260246000fd5b7f4e487b7100000000000000000000000000000000000000000000000000000000600052602260045260246000fd5b600060028204905060018216806200055e57607f821691505b60208210810362000574576200057362000516565b5b50919050565b60008190508160005260206000209050919050565b60006020601f8301049050919050565b600082821b905092915050565b600060088302620005de7fffffffffffffffffffffffffffffffffffffffffffffffffffffffffffffffff826200059f565b620005ea86836200059f565b95508019841693508086168417925050509392505050565b6000819050919050565b6000819050919050565b600062000637620006316200062b8462000602565b6200060c565b62000602565b9050919050565b6000819050919050565b620006538362000616565b6200066b62000662826200063e565b848454620005ac565b825550505050565b600090565b6200068262000673565b6200068f81848462000648565b505050565b5b81811015620006b757620006ab60008262000678565b60018101905062000695565b5050565b601f8211156200070657620006d0816200057a565b620006db846200058f565b81016020851015620006eb578190505b62000703620006fa856200058f565b83018262000694565b50505b505050565b600082821c905092915050565b60006200072b600019846008026200070b565b1980831691505092915050565b600062000746838362000718565b9150826002028217905092915050565b6200076182620004dc565b67ffffffffffffffff8111156200077d576200077c620004e7565b5b62000789825462000545565b62000796828285620006bb565b600060209050601f831160018114620007ce5760008415620007b9578287015190505b620007c5858262000738565b86555062000835565b601f198416620007de866200057a565b60005b828110156200080857848901518255600182019150602085019450602081019050620007e1565b8683101562000828578489015162000824601f89168262000718565b8355505b6001600288020188555050505b505050505050565b600080fd5b6200084d8162000602565b81146200085957600080fd5b50565b6000815190506200086d8162000842565b92915050565b6000602082840312156200088c576200088b6200083d565b5b60006200089c848285016200085c565b91505092915050565b600082825260208201905092915050565b7f43616e6e6f7420736574206f776e657220746f207a65726f0000000000000000600082015250565b6000620008ee601883620008a5565b9150620008fb82620008b6565b602082019050919050565b600060208201905081810360008301526200092181620008df565b9050919050565b7f43616e6e6f74207472616e7366657220746f2073656c66000000000000000000600082015250565b600062000960601783620008a5565b91506200096d8262000928565b602082019050919050565b60006020820190508181036000830152620009938162000951565b9050919050565b615d5d80620009aa6000396000f3fe60806040526004361061031e5760003560e01c80636c0360eb116101ab578063a22cb465116100f7578063d759000b11610095578063e985e9c51161006f578063e985e9c514610c98578063ed36c52f14610cd5578063f2fde38b14610cf1578063f6eaffc814610d1a576103ee565b8063d759000b14610c17578063d917bf3e14610c42578063e0c8628914610c6d576103ee565b8063b0fb162f116100d1578063b0fb162f14610b5b578063b88d4fde14610b86578063c0abba9e14610baf578063c87b56dd14610bda576103ee565b8063a22cb46514610ad9578063a54447aa14610b02578063ad49ba1b14610b1e576103ee565b80637ccfd7fc116101645780638da5cb5b1161013e5780638da5cb5b14610a2f5780638ea9811714610a5a57806395d89b4114610a835780639eccacf614610aae576103ee565b80637ccfd7fc146109ae5780637f95e4b3146109d95780638ac0002114610a04576103ee565b80636c0360eb146108ab57806370a08231146108d657806373b4df051461091357806375794a3c1461094357806379ba50971461096e5780637cc539b414610985576103ee565b80632e602d291161026a578063442890d51161022357806355901bb0116101fd57806355901bb0146107f157806355f804b31461081c5780636273ce9b146108455780636352211e1461086e576103ee565b8063442890d51461077057806345bb327b1461079b57806345f8fa80146107c6576103ee565b80632e602d291461064e578063335c8b631461068b5780633ccfd60b146106b65780634129c1c1146106cd57806342842e0e1461070a578063434a49a114610733576103ee565b806312e85585116102d7578063202e3740116102b1578063202e37401461059257806323b872dd146105bd57806324f74697146105e65780632916b13014610611576103ee565b806312e85585146105155780631a01d53a146105405780631fe543e314610569576103ee565b806301ffc9a7146103f357806306fdde031461043057806307c11e0d1461045b578063081812fc14610486578063095ea7b3146104c35780630c6dcd31146104ec576103ee565b366103ee57600060185411610368576040517f08c379a000000000000000000000000000000000000000000000000000000000815260040161035f90614326565b60405180910390fd5b60175434146103ac576040517f08c379a00000000000000000000000000000000000000000000000000000000081526004016103a390614392565b60405180910390fd5b6103c26001601954610d5790919063ffffffff16565b6019819055506103de6001601854610d8390919063ffffffff16565b6018819055506103ec610daa565b005b600080fd5b3480156103ff57600080fd5b5061041a6004803603810190610415919061441e565b610f75565b6040516104279190614466565b60405180910390f35b34801561043c57600080fd5b50610445610fd6565b6040516104529190614500565b60405180910390f35b34801561046757600080fd5b50610470611068565b60405161047d91906146b5565b60405180910390f35b34801561049257600080fd5b506104ad60048036038101906104a89190614703565b6112b9565b6040516104ba9190614751565b60405180910390f35b3480156104cf57600080fd5b506104ea60048036038101906104e59190614798565b6112d5565b005b3480156104f857600080fd5b50610513600480360381019061050e9190614804565b6112eb565b005b34801561052157600080fd5b5061052a611310565b6040516105379190614840565b60405180910390f35b34801561054c57600080fd5b5061056760048036038101906105629190614703565b61131a565b005b34801561057557600080fd5b50610590600480360381019061058b91906148c0565b61132c565b005b34801561059e57600080fd5b506105a76113f2565b6040516105b491906146b5565b60405180910390f35b3480156105c957600080fd5b506105e460048036038101906105df9190614920565b6116ef565b005b3480156105f257600080fd5b506105fb6117f1565b6040516106089190614992565b60405180910390f35b34801561061d57600080fd5b5061063860048036038101906106339190614703565b611807565b6040516106459190614840565b60405180910390f35b34801561065a57600080fd5b5061067560048036038101906106709190614703565b611824565b6040516106829190614751565b60405180910390f35b34801561069757600080fd5b506106a0611857565b6040516106ad9190614840565b60405180910390f35b3480156106c257600080fd5b506106cb61185d565b005b3480156106d957600080fd5b506106f460048036038101906106ef9190614703565b6118bb565b6040516107019190614840565b60405180910390f35b34801561071657600080fd5b50610731600480360381019061072c9190614920565b6118d3565b005b34801561073f57600080fd5b5061075a600480360381019061075591906149ad565b6118f3565b6040516107679190614a89565b60405180910390f35b34801561077c57600080fd5b5061078561198a565b6040516107929190614751565b60405180910390f35b3480156107a757600080fd5b506107b06119b4565b6040516107bd9190614ac4565b60405180910390f35b3480156107d257600080fd5b506107db6119ba565b6040516107e891906146b5565b60405180910390f35b3480156107fd57600080fd5b50610806611cb7565b6040516108139190614840565b60405180910390f35b34801561082857600080fd5b50610843600480360381019061083e9190614c0f565b611cc1565b005b34801561085157600080fd5b5061086c60048036038101906108679190614d1b565b611cdc565b005b34801561087a57600080fd5b5061089560048036038101906108909190614703565b611fed565b6040516108a29190614751565b60405180910390f35b3480156108b757600080fd5b506108c0611fff565b6040516108cd9190614500565b60405180910390f35b3480156108e257600080fd5b506108fd60048036038101906108f891906149ad565b61208d565b60405161090a9190614840565b60405180910390f35b61092d60048036038101906109289190614d8a565b612147565b60405161093a9190614840565b60405180910390f35b34801561094f57600080fd5b506109586122cb565b6040516109659190614840565b60405180910390f35b34801561097a57600080fd5b506109836122d1565b005b34801561099157600080fd5b506109ac60048036038101906109a79190614703565b612466565b005b3480156109ba57600080fd5b506109c3612478565b6040516109d09190614992565b60405180910390f35b3480156109e557600080fd5b506109ee61248e565b6040516109fb9190614500565b60405180910390f35b348015610a1057600080fd5b50610a1961251e565b604051610a269190614840565b60405180910390f35b348015610a3b57600080fd5b50610a44612524565b604051610a519190614751565b60405180910390f35b348015610a6657600080fd5b50610a816004803603810190610a7c91906149ad565b61254d565b005b348015610a8f57600080fd5b50610a9861272e565b604051610aa59190614500565b60405180910390f35b348015610aba57600080fd5b50610ac36127c0565b604051610ad09190614e58565b60405180910390f35b348015610ae557600080fd5b50610b006004803603810190610afb9190614e73565b6127e6565b005b610b1c6004803603810190610b179190614703565b6127fc565b005b348015610b2a57600080fd5b50610b456004803603810190610b409190614703565b6129ee565b604051610b529190614a89565b60405180910390f35b348015610b6757600080fd5b50610b70612a59565b604051610b7d9190614ed0565b60405180910390f35b348015610b9257600080fd5b50610bad6004803603810190610ba89190614f8c565b612a6d565b005b348015610bbb57600080fd5b50610bc4612a92565b604051610bd19190614840565b60405180910390f35b348015610be657600080fd5b50610c016004803603810190610bfc9190614703565b612a98565b604051610c0e9190614500565b60405180910390f35b348015610c2357600080fd5b50610c2c612bab565b604051610c399190614840565b60405180910390f35b348015610c4e57600080fd5b50610c57612bb1565b604051610c649190614840565b60405180910390f35b348015610c7957600080fd5b50610c82610daa565b604051610c8f9190614840565b60405180910390f35b348015610ca457600080fd5b50610cbf6004803603810190610cba919061500f565b612bbb565b604051610ccc9190614466565b60405180910390f35b610cef6004803603810190610cea919061504f565b612c4f565b005b348015610cfd57600080fd5b50610d186004803603810190610d1391906149ad565b612c5d565b005b348015610d2657600080fd5b50610d416004803603810190610d3c9190614703565b612c71565b604051610d4e9190614840565b60405180910390f35b6000808284610d6691906150be565b905083811015610d7957610d786150f2565b5b8091505092915050565b600082821115610d9657610d956150f2565b5b8183610da29190615121565b905092915050565b6000600960009054906101000a900473ffffffffffffffffffffffffffffffffffffffff1673ffffffffffffffffffffffffffffffffffffffff16639b1c385e6040518060c0016040528060135481526020016012548152602001601460049054906101000a900461ffff1661ffff168152602001601460009054906101000a900463ffffffff1663ffffffff168152602001601460069054906101000a900463ffffffff1663ffffffff168152602001610e836040518060200160405280601660009054906101000a900460ff161515815250612c95565b8152506040518263ffffffff1660e01b8152600401610ea29190615260565b6020604051808303816000875af1158015610ec1573d6000803e3d6000fd5b505050506040513d601f19601f82011682018060405250810190610ee59190615297565b905033601a600083815260200190815260200160002060006101000a81548173ffffffffffffffffffffffffffffffffffffffff021916908373ffffffffffffffffffffffffffffffffffffffff1602179055507f28f521cf7abd0044cba5bb040c5217ff69a4e5865f5262905018698e68fe7d008133604051610f6a9291906152c4565b60405180910390a190565b6000634906490660e01b7bffffffffffffffffffffffffffffffffffffffffffffffffffffffff1916827bffffffffffffffffffffffffffffffffffffffffffffffffffffffff19161480610fcf5750610fce82612d2d565b5b9050919050565b606060028054610fe59061531c565b80601f01602080910402602001604051908101604052809291908181526020018280546110119061531c565b801561105e5780601f106110335761010080835404028352916020019161105e565b820191906000526020600020905b81548152906001019060200180831161104157829003601f168201915b5050505050905090565b60606000600a549050600080600b5467ffffffffffffffff8111156110905761108f614ae4565b5b6040519080825280602002602001820160405280156110c957816020015b6110b66141d5565b8152602001906001900390816110ae5790505b50905060005b838110156112af573073ffffffffffffffffffffffffffffffffffffffff16600e60006001846110ff91906150be565b815260200190815260200160002060020160009054906101000a900473ffffffffffffffffffffffffffffffffffffffff1673ffffffffffffffffffffffffffffffffffffffff160361129c57600060018261115b91906150be565b90506000600e60008381526020019081526020016000209050806040518060c0016040529081600082015481526020016001820160009054906101000a900473ffffffffffffffffffffffffffffffffffffffff1673ffffffffffffffffffffffffffffffffffffffff1673ffffffffffffffffffffffffffffffffffffffff1681526020016002820160009054906101000a900473ffffffffffffffffffffffffffffffffffffffff1673ffffffffffffffffffffffffffffffffffffffff1673ffffffffffffffffffffffffffffffffffffffff168152602001600382015481526020016004820160009054906101000a900460ff161515151581526020016005820154815250508486815181106112785761127761534d565b5b6020026020010181905250611297600186610d5790919063ffffffff16565b945050505b80806112a79061537c565b9150506110cf565b5080935050505090565b60006112c482612e0f565b506112ce82612e97565b9050919050565b6112e782826112e2612ed4565b612edc565b5050565b6112f3612eee565b80601660006101000a81548160ff02191690831515021790555050565b6000600c54905090565b611322612eee565b8060188190555050565b600960009054906101000a900473ffffffffffffffffffffffffffffffffffffffff1673ffffffffffffffffffffffffffffffffffffffff163373ffffffffffffffffffffffffffffffffffffffff16146113e25733600960009054906101000a900473ffffffffffffffffffffffffffffffffffffffff166040517f1cf993f40000000000000000000000000000000000000000000000000000000081526004016113d99291906153c4565b60405180910390fd5b6113ed838383612f7e565b505050565b60606000600a54905060008060005b838110156114a8573373ffffffffffffffffffffffffffffffffffffffff16600e600060018461143191906150be565b815260200190815260200160002060020160009054906101000a900473ffffffffffffffffffffffffffffffffffffffff1673ffffffffffffffffffffffffffffffffffffffff160361149557611492600184610d5790919063ffffffff16565b92505b80806114a09061537c565b915050611401565b5060008267ffffffffffffffff8111156114c5576114c4614ae4565b5b6040519080825280602002602001820160405280156114fe57816020015b6114eb6141d5565b8152602001906001900390816114e35790505b50905060005b848110156116e4573373ffffffffffffffffffffffffffffffffffffffff16600e600060018461153491906150be565b815260200190815260200160002060020160009054906101000a900473ffffffffffffffffffffffffffffffffffffffff1673ffffffffffffffffffffffffffffffffffffffff16036116d157600060018261159091906150be565b90506000600e60008381526020019081526020016000209050806040518060c0016040529081600082015481526020016001820160009054906101000a900473ffffffffffffffffffffffffffffffffffffffff1673ffffffffffffffffffffffffffffffffffffffff1673ffffffffffffffffffffffffffffffffffffffff1681526020016002820160009054906101000a900473ffffffffffffffffffffffffffffffffffffffff1673ffffffffffffffffffffffffffffffffffffffff1673ffffffffffffffffffffffffffffffffffffffff168152602001600382015481526020016004820160009054906101000a900460ff161515151581526020016005820154815250508486815181106116ad576116ac61534d565b5b60200260200101819052506116cc600186610d5790919063ffffffff16565b945050505b80806116dc9061537c565b915050611504565b508094505050505090565b600073ffffffffffffffffffffffffffffffffffffffff168273ffffffffffffffffffffffffffffffffffffffff16036117615760006040517f64a0ae920000000000000000000000000000000000000000000000000000000081526004016117589190614751565b60405180910390fd5b60006117758383611770612ed4565b613014565b90508373ffffffffffffffffffffffffffffffffffffffff168173ffffffffffffffffffffffffffffffffffffffff16146117eb578382826040517f64283d7b0000000000000000000000000000000000000000000000000000000081526004016117e2939291906153ed565b60405180910390fd5b50505050565b601460009054906101000a900463ffffffff1681565b6000601e6000838152602001908152602001600020549050919050565b601a6020528060005260406000206000915054906101000a900473ffffffffffffffffffffffffffffffffffffffff1681565b60175481565b611865612eee565b600061186f612524565b90508073ffffffffffffffffffffffffffffffffffffffff166108fc479081150290604051600060405180830381858888f193505050501580156118b7573d6000803e3d6000fd5b5050565b601e6020528060005260406000206000915090505481565b6118ee83838360405180602001604052806000815250612a6d565b505050565b6060601c60008373ffffffffffffffffffffffffffffffffffffffff1673ffffffffffffffffffffffffffffffffffffffff16815260200190815260200160002080548060200260200160405190810160405280929190818152602001828054801561197e57602002820191906000526020600020905b81548152602001906001019080831161196a575b50505050509050919050565b6000600d60009054906101000a900473ffffffffffffffffffffffffffffffffffffffff16905090565b60135481565b60606000600a54905060008060005b83811015611a70573373ffffffffffffffffffffffffffffffffffffffff16600e60006001846119f991906150be565b815260200190815260200160002060010160009054906101000a900473ffffffffffffffffffffffffffffffffffffffff1673ffffffffffffffffffffffffffffffffffffffff1603611a5d57611a5a600184610d5790919063ffffffff16565b92505b8080611a689061537c565b9150506119c9565b5060008267ffffffffffffffff811115611a8d57611a8c614ae4565b5b604051908082528060200260200182016040528015611ac657816020015b611ab36141d5565b815260200190600190039081611aab5790505b50905060005b84811015611cac573373ffffffffffffffffffffffffffffffffffffffff16600e6000600184611afc91906150be565b815260200190815260200160002060010160009054906101000a900473ffffffffffffffffffffffffffffffffffffffff1673ffffffffffffffffffffffffffffffffffffffff1603611c99576000600182611b5891906150be565b90506000600e60008381526020019081526020016000209050806040518060c0016040529081600082015481526020016001820160009054906101000a900473ffffffffffffffffffffffffffffffffffffffff1673ffffffffffffffffffffffffffffffffffffffff1673ffffffffffffffffffffffffffffffffffffffff1681526020016002820160009054906101000a900473ffffffffffffffffffffffffffffffffffffffff1673ffffffffffffffffffffffffffffffffffffffff1673ffffffffffffffffffffffffffffffffffffffff168152602001600382015481526020016004820160009054906101000a900460ff16151515158152602001600582015481525050848681518110611c7557611c7461534d565b5b6020026020010181905250611c94600186610d5790919063ffffffff16565b945050505b8080611ca49061537c565b915050611acc565b508094505050505090565b6000601954905090565b611cc9612eee565b8060159081611cd891906155c6565b5050565b601460069054906101000a900463ffffffff1663ffffffff16835114611d37576040517f08c379a0000000000000000000000000000000000000000000000000000000008152600401611d2e906156e4565b60405180910390fd5b600073ffffffffffffffffffffffffffffffffffffffff168273ffffffffffffffffffffffffffffffffffffffff1603611da6576040517f08c379a0000000000000000000000000000000000000000000000000000000008152600401611d9d90615750565b60405180910390fd5b6000835167ffffffffffffffff811115611dc357611dc2614ae4565b5b604051908082528060200260200182016040528015611df15781602001602082028036833780820191505090505b50905060005b8451811015611ef25760006014868381518110611e1757611e1661534d565b5b6020026020010151611e29919061579f565b905060006015611e388361322e565b604051602001611e49929190615927565b60405160208183030381529060405290506000611e67828885612147565b905080858581518110611e7d57611e7c61534d565b5b60200260200101818152505082601e6000838152602001908152602001600020819055507fd8734743ed0c1c7547379b55d892e5cea71bc5371832ffa4149a506fbc1aa6d0818884604051611ed493929190615961565b60405180910390a15050508080611eea9061537c565b915050611df7565b5060005b8151811015611fe657601c60008573ffffffffffffffffffffffffffffffffffffffff1673ffffffffffffffffffffffffffffffffffffffff168152602001908152602001600020828281518110611f5157611f5061534d565b5b60200260200101519080600181540180825580915050600190039060005260206000200160009091909190915055601d6000848152602001908152602001600020828281518110611fa557611fa461534d565b5b602002602001015190806001815401808255809150506001900390600052602060002001600090919091909150558080611fde9061537c565b915050611ef6565b5050505050565b6000611ff882612e0f565b9050919050565b6015805461200c9061531c565b80601f01602080910402602001604051908101604052809291908181526020018280546120389061531c565b80156120855780601f1061205a57610100808354040283529160200191612085565b820191906000526020600020905b81548152906001019060200180831161206857829003601f168201915b505050505081565b60008073ffffffffffffffffffffffffffffffffffffffff168273ffffffffffffffffffffffffffffffffffffffff16036121005760006040517f89c62b640000000000000000000000000000000000000000000000000000000081526004016120f79190614751565b60405180910390fd5b600560008373ffffffffffffffffffffffffffffffffffffffff1673ffffffffffffffffffffffffffffffffffffffff168152602001908152602001600020549050919050565b600061215f6001600a54610d5790919063ffffffff16565b600a819055506000600a54905061217684826132fc565b61218081866133f5565b6040518060c00160405280828152602001600073ffffffffffffffffffffffffffffffffffffffff1681526020018573ffffffffffffffffffffffffffffffffffffffff1681526020016000815260200160011515815260200184815250600e60008381526020019081526020016000206000820151816000015560208201518160010160006101000a81548173ffffffffffffffffffffffffffffffffffffffff021916908373ffffffffffffffffffffffffffffffffffffffff16021790555060408201518160020160006101000a81548173ffffffffffffffffffffffffffffffffffffffff021916908373ffffffffffffffffffffffffffffffffffffffff1602179055506060820151816003015560808201518160040160006101000a81548160ff02191690831515021790555060a08201518160050155905050809150509392505050565b60115481565b600160009054906101000a900473ffffffffffffffffffffffffffffffffffffffff1673ffffffffffffffffffffffffffffffffffffffff163373ffffffffffffffffffffffffffffffffffffffff1614612361576040517f08c379a0000000000000000000000000000000000000000000000000000000008152600401612358906159eb565b60405180910390fd5b60008060009054906101000a900473ffffffffffffffffffffffffffffffffffffffff169050336000806101000a81548173ffffffffffffffffffffffffffffffffffffffff021916908373ffffffffffffffffffffffffffffffffffffffff1602179055506000600160006101000a81548173ffffffffffffffffffffffffffffffffffffffff021916908373ffffffffffffffffffffffffffffffffffffffff1602179055503373ffffffffffffffffffffffffffffffffffffffff168173ffffffffffffffffffffffffffffffffffffffff167f8be0079c531659141344cd1fd0a4f28419497f9722a3daafe3b4186f6b6457e060405160405180910390a350565b61246e612eee565b8060178190555050565b601460069054906101000a900463ffffffff1681565b6060601660009054906101000a900460ff16156124e2576040518060400160405280601381526020017f56524620676173206665657320696e2045544800000000000000000000000000815250905061251b565b6040518060400160405280601481526020017f56524620676173206665657320696e204c494e4b00000000000000000000000081525090505b90565b60125481565b60008060009054906101000a900473ffffffffffffffffffffffffffffffffffffffff16905090565b612555612524565b73ffffffffffffffffffffffffffffffffffffffff163373ffffffffffffffffffffffffffffffffffffffff16141580156125de5750600960009054906101000a900473ffffffffffffffffffffffffffffffffffffffff1673ffffffffffffffffffffffffffffffffffffffff163373ffffffffffffffffffffffffffffffffffffffff1614155b1561264d57336125ec612524565b600960009054906101000a900473ffffffffffffffffffffffffffffffffffffffff166040517f061db9c100000000000000000000000000000000000000000000000000000000815260040161264493929190615a0b565b60405180910390fd5b600073ffffffffffffffffffffffffffffffffffffffff168173ffffffffffffffffffffffffffffffffffffffff16036126b3576040517fd92e233d00000000000000000000000000000000000000000000000000000000815260040160405180910390fd5b80600960006101000a81548173ffffffffffffffffffffffffffffffffffffffff021916908373ffffffffffffffffffffffffffffffffffffffff1602179055507fd1a6a14209a385a964d036e404cb5cfb71f4000cdb03c9366292430787261be6816040516127239190614751565b60405180910390a150565b60606003805461273d9061531c565b80601f01602080910402602001604051908101604052809291908181526020018280546127699061531c565b80156127b65780601f1061278b576101008083540402835291602001916127b6565b820191906000526020600020905b81548152906001019060200180831161279957829003601f168201915b5050505050905090565b600960009054906101000a900473ffffffffffffffffffffffffffffffffffffffff1681565b6127f86127f1612ed4565b8383613451565b5050565b6000600e600083815260200190815260200160002060010160009054906101000a900473ffffffffffffffffffffffffffffffffffffffff16905033600e600084815260200190815260200160002060020160006101000a81548173ffffffffffffffffffffffffffffffffffffffff021916908373ffffffffffffffffffffffffffffffffffffffff1602179055506001600e600084815260200190815260200160002060040160006101000a81548160ff0219169083151502179055506000600e600084815260200190815260200160002060010160006101000a81548173ffffffffffffffffffffffffffffffffffffffff021916908373ffffffffffffffffffffffffffffffffffffffff1602179055506129276001600b54610d8390919063ffffffff16565b600b819055506129383033846135c0565b600d60009054906101000a900473ffffffffffffffffffffffffffffffffffffffff1673ffffffffffffffffffffffffffffffffffffffff166108fc600c549081150290604051600060405180830381858888f193505050501580156129a2573d6000803e3d6000fd5b508073ffffffffffffffffffffffffffffffffffffffff166108fc349081150290604051600060405180830381858888f193505050501580156129e9573d6000803e3d6000fd5b505050565b6060601d6000838152602001908152602001600020805480602002602001604051908101604052809291908181526020018280548015612a4d57602002820191906000526020600020905b815481526020019060010190808311612a39575b50505050509050919050565b601460049054906101000a900461ffff1681565b612a788484846116ef565b612a8c612a83612ed4565b8585858561372d565b50505050565b60195481565b6060612aa382612e0f565b506000600860008481526020019081526020016000208054612ac49061531c565b80601f0160208091040260200160405190810160405280929190818152602001828054612af09061531c565b8015612b3d5780601f10612b1257610100808354040283529160200191612b3d565b820191906000526020600020905b815481529060010190602001808311612b2057829003601f168201915b505050505090506000612b4e6138de565b90506000815103612b63578192505050612ba6565b600082511115612b98578082604051602001612b80929190615a42565b60405160208183030381529060405292505050612ba6565b612ba1846138f5565b925050505b919050565b60185481565b6000601854905090565b6000600760008473ffffffffffffffffffffffffffffffffffffffff1673ffffffffffffffffffffffffffffffffffffffff16815260200190815260200160002060008373ffffffffffffffffffffffffffffffffffffffff1673ffffffffffffffffffffffffffffffffffffffff16815260200190815260200160002060009054906101000a900460ff16905092915050565b612c59828261395e565b5050565b612c65612eee565b612c6e81613b65565b50565b60108181548110612c8157600080fd5b906000526020600020016000915090505481565b60607f92fd13387c7fe7befbc38d303d6468778fb9731bc4583f17d92989c6fcfdeaaa82604051602401612cc99190615a82565b604051602081830303815290604052907bffffffffffffffffffffffffffffffffffffffffffffffffffffffff19166020820180517bffffffffffffffffffffffffffffffffffffffffffffffffffffffff83818316178352505050509050919050565b60007f80ac58cd000000000000000000000000000000000000000000000000000000007bffffffffffffffffffffffffffffffffffffffffffffffffffffffff1916827bffffffffffffffffffffffffffffffffffffffffffffffffffffffff19161480612df857507f5b5e139f000000000000000000000000000000000000000000000000000000007bffffffffffffffffffffffffffffffffffffffffffffffffffffffff1916827bffffffffffffffffffffffffffffffffffffffffffffffffffffffff1916145b80612e085750612e0782613c91565b5b9050919050565b600080612e1b83613cfb565b9050600073ffffffffffffffffffffffffffffffffffffffff168173ffffffffffffffffffffffffffffffffffffffff1603612e8e57826040517f7e273289000000000000000000000000000000000000000000000000000000008152600401612e859190614840565b60405180910390fd5b80915050919050565b60006006600083815260200190815260200160002060009054906101000a900473ffffffffffffffffffffffffffffffffffffffff169050919050565b600033905090565b612ee98383836001613d38565b505050565b60008054906101000a900473ffffffffffffffffffffffffffffffffffffffff1673ffffffffffffffffffffffffffffffffffffffff163373ffffffffffffffffffffffffffffffffffffffff1614612f7c576040517f08c379a0000000000000000000000000000000000000000000000000000000008152600401612f7390615ae9565b60405180910390fd5b565b818160109190612f8f929190614239565b5061300f828280806020026020016040519081016040528093929190818152602001838360200280828437600081840152601f19601f82011690508083019250505050505050601a600086815260200190815260200160002060009054906101000a900473ffffffffffffffffffffffffffffffffffffffff1685611cdc565b505050565b60008061302084613cfb565b9050600073ffffffffffffffffffffffffffffffffffffffff168373ffffffffffffffffffffffffffffffffffffffff161461306257613061818486613efd565b5b600073ffffffffffffffffffffffffffffffffffffffff168173ffffffffffffffffffffffffffffffffffffffff16146130f3576130a4600085600080613d38565b6001600560008373ffffffffffffffffffffffffffffffffffffffff1673ffffffffffffffffffffffffffffffffffffffff168152602001908152602001600020600082825403925050819055505b600073ffffffffffffffffffffffffffffffffffffffff168573ffffffffffffffffffffffffffffffffffffffff1614613176576001600560008773ffffffffffffffffffffffffffffffffffffffff1673ffffffffffffffffffffffffffffffffffffffff168152602001908152602001600020600082825401925050819055505b846004600086815260200190815260200160002060006101000a81548173ffffffffffffffffffffffffffffffffffffffff021916908373ffffffffffffffffffffffffffffffffffffffff160217905550838573ffffffffffffffffffffffffffffffffffffffff168273ffffffffffffffffffffffffffffffffffffffff167fddf252ad1be2c89b69c2b068fc378daa952ba7f163c4a11628f55a4df523b3ef60405160405180910390a4809150509392505050565b60606000600161323d84613fc1565b01905060008167ffffffffffffffff81111561325c5761325b614ae4565b5b6040519080825280601f01601f19166020018201604052801561328e5781602001600182028036833780820191505090505b509050600082602001820190505b6001156132f1578080600190039150507f3031323334353637383961626364656600000000000000000000000000000000600a86061a8153600a85816132e5576132e4615770565b5b0494506000850361329c575b819350505050919050565b600073ffffffffffffffffffffffffffffffffffffffff168273ffffffffffffffffffffffffffffffffffffffff160361336e5760006040517f64a0ae920000000000000000000000000000000000000000000000000000000081526004016133659190614751565b60405180910390fd5b600061337c83836000613014565b9050600073ffffffffffffffffffffffffffffffffffffffff168173ffffffffffffffffffffffffffffffffffffffff16146133f05760006040517f73c6ac6e0000000000000000000000000000000000000000000000000000000081526004016133e79190614751565b60405180910390fd5b505050565b8060086000848152602001908152602001600020908161341591906155c6565b507ff8e1a15aba9398e019f0b49df1a4fde98ee17ae345cb5f6b5e2c27f5033e8ce7826040516134459190614840565b60405180910390a15050565b600073ffffffffffffffffffffffffffffffffffffffff168273ffffffffffffffffffffffffffffffffffffffff16036134c257816040517f5b08ba180000000000000000000000000000000000000000000000000000000081526004016134b99190614751565b60405180910390fd5b80600760008573ffffffffffffffffffffffffffffffffffffffff1673ffffffffffffffffffffffffffffffffffffffff16815260200190815260200160002060008473ffffffffffffffffffffffffffffffffffffffff1673ffffffffffffffffffffffffffffffffffffffff16815260200190815260200160002060006101000a81548160ff0219169083151502179055508173ffffffffffffffffffffffffffffffffffffffff168373ffffffffffffffffffffffffffffffffffffffff167f17307eab39ab6107e8899845ad3d59bd9653f200f220920489ca2b5937696c31836040516135b39190614466565b60405180910390a3505050565b600073ffffffffffffffffffffffffffffffffffffffff168273ffffffffffffffffffffffffffffffffffffffff16036136325760006040517f64a0ae920000000000000000000000000000000000000000000000000000000081526004016136299190614751565b60405180910390fd5b600061364083836000613014565b9050600073ffffffffffffffffffffffffffffffffffffffff168173ffffffffffffffffffffffffffffffffffffffff16036136b357816040517f7e2732890000000000000000000000000000000000000000000000000000000081526004016136aa9190614840565b60405180910390fd5b8373ffffffffffffffffffffffffffffffffffffffff168173ffffffffffffffffffffffffffffffffffffffff1614613727578382826040517f64283d7b00000000000000000000000000000000000000000000000000000000815260040161371e939291906153ed565b60405180910390fd5b50505050565b60008373ffffffffffffffffffffffffffffffffffffffff163b11156138d7578273ffffffffffffffffffffffffffffffffffffffff1663150b7a02868685856040518563ffffffff1660e01b815260040161378c9493929190615b53565b6020604051808303816000875af19250505080156137c857506040513d601f19601f820116820180604052508101906137c59190615bb4565b60015b61384c573d80600081146137f8576040519150601f19603f3d011682016040523d82523d6000602084013e6137fd565b606091505b50600081510361384457836040517f64a0ae9200000000000000000000000000000000000000000000000000000000815260040161383b9190614751565b60405180910390fd5b805181602001fd5b63150b7a0260e01b7bffffffffffffffffffffffffffffffffffffffffffffffffffffffff1916817bffffffffffffffffffffffffffffffffffffffffffffffffffffffff1916146138d557836040517f64a0ae920000000000000000000000000000000000000000000000000000000081526004016138cc9190614751565b60405180910390fd5b505b5050505050565b606060405180602001604052806000815250905090565b606061390082612e0f565b50600061390b6138de565b9050600081511161392b5760405180602001604052806000815250613956565b806139358461322e565b604051602001613946929190615a42565b6040516020818303038152906040525b915050919050565b600081116139a1576040517f08c379a000000000000000000000000000000000000000000000000000000000815260040161399890615c2d565b60405180910390fd5b6139b76001600b54610d5790919063ffffffff16565b600b819055506000600e60008481526020019081526020016000206005015490506040518060c001604052808481526020013373ffffffffffffffffffffffffffffffffffffffff1681526020013073ffffffffffffffffffffffffffffffffffffffff16815260200183815260200160001515815260200182815250600e60008581526020019081526020016000206000820151816000015560208201518160010160006101000a81548173ffffffffffffffffffffffffffffffffffffffff021916908373ffffffffffffffffffffffffffffffffffffffff16021790555060408201518160020160006101000a81548173ffffffffffffffffffffffffffffffffffffffff021916908373ffffffffffffffffffffffffffffffffffffffff1602179055506060820151816003015560808201518160040160006101000a81548160ff02191690831515021790555060a08201518160050155905050613b213330856135c0565b827f3cf8eaa46d9accaa9c8e76a1b58ee317d0eac0885fb7635711309f21e5a25fb93330856000604051613b589493929190615c4d565b60405180910390a2505050565b3373ffffffffffffffffffffffffffffffffffffffff168173ffffffffffffffffffffffffffffffffffffffff1603613bd3576040517f08c379a0000000000000000000000000000000000000000000000000000000008152600401613bca90615cde565b60405180910390fd5b80600160006101000a81548173ffffffffffffffffffffffffffffffffffffffff021916908373ffffffffffffffffffffffffffffffffffffffff1602179055508073ffffffffffffffffffffffffffffffffffffffff1660008054906101000a900473ffffffffffffffffffffffffffffffffffffffff1673ffffffffffffffffffffffffffffffffffffffff167fed8889f560326eb138920d842192f0eb3dd22b4f139c87a2c57538e05bae127860405160405180910390a350565b60007f01ffc9a7000000000000000000000000000000000000000000000000000000007bffffffffffffffffffffffffffffffffffffffffffffffffffffffff1916827bffffffffffffffffffffffffffffffffffffffffffffffffffffffff1916149050919050565b60006004600083815260200190815260200160002060009054906101000a900473ffffffffffffffffffffffffffffffffffffffff169050919050565b8080613d715750600073ffffffffffffffffffffffffffffffffffffffff168273ffffffffffffffffffffffffffffffffffffffff1614155b15613ea5576000613d8184612e0f565b9050600073ffffffffffffffffffffffffffffffffffffffff168373ffffffffffffffffffffffffffffffffffffffff1614158015613dec57508273ffffffffffffffffffffffffffffffffffffffff168173ffffffffffffffffffffffffffffffffffffffff1614155b8015613dff5750613dfd8184612bbb565b155b15613e4157826040517fa9fbf51f000000000000000000000000000000000000000000000000000000008152600401613e389190614751565b60405180910390fd5b8115613ea357838573ffffffffffffffffffffffffffffffffffffffff168273ffffffffffffffffffffffffffffffffffffffff167f8c5be1e5ebec7d5bd14f71427d1e84f3dd0314c0f7b2291e5b200ac8c7c3b92560405160405180910390a45b505b836006600085815260200190815260200160002060006101000a81548173ffffffffffffffffffffffffffffffffffffffff021916908373ffffffffffffffffffffffffffffffffffffffff16021790555050505050565b613f08838383614114565b613fbc57600073ffffffffffffffffffffffffffffffffffffffff168373ffffffffffffffffffffffffffffffffffffffff1603613f7d57806040517f7e273289000000000000000000000000000000000000000000000000000000008152600401613f749190614840565b60405180910390fd5b81816040517f177e802f000000000000000000000000000000000000000000000000000000008152600401613fb3929190615cfe565b60405180910390fd5b505050565b600080600090507a184f03e93ff9f4daa797ed6e38ed64bf6a1f010000000000000000831061401f577a184f03e93ff9f4daa797ed6e38ed64bf6a1f010000000000000000838161401557614014615770565b5b0492506040810190505b6d04ee2d6d415b85acef8100000000831061405c576d04ee2d6d415b85acef8100000000838161405257614051615770565b5b0492506020810190505b662386f26fc10000831061408b57662386f26fc10000838161408157614080615770565b5b0492506010810190505b6305f5e10083106140b4576305f5e10083816140aa576140a9615770565b5b0492506008810190505b61271083106140d95761271083816140cf576140ce615770565b5b0492506004810190505b606483106140fc57606483816140f2576140f1615770565b5b0492506002810190505b600a831061410b576001810190505b80915050919050565b60008073ffffffffffffffffffffffffffffffffffffffff168373ffffffffffffffffffffffffffffffffffffffff16141580156141cc57508273ffffffffffffffffffffffffffffffffffffffff168473ffffffffffffffffffffffffffffffffffffffff16148061418d575061418c8484612bbb565b5b806141cb57508273ffffffffffffffffffffffffffffffffffffffff166141b383612e97565b73ffffffffffffffffffffffffffffffffffffffff16145b5b90509392505050565b6040518060c0016040528060008152602001600073ffffffffffffffffffffffffffffffffffffffff168152602001600073ffffffffffffffffffffffffffffffffffffffff16815260200160008152602001600015158152602001600081525090565b828054828255906000526020600020908101928215614275579160200282015b82811115614274578235825591602001919060010190614259565b5b5090506142829190614286565b5090565b5b8082111561429f576000816000905550600101614287565b5090565b600082825260208201905092915050565b7f416c6c2063617264207061636b73206172652063757272656e746c7920736f6c60008201527f64206f7574000000000000000000000000000000000000000000000000000000602082015250565b60006143106025836142a3565b915061431b826142b4565b604082019050919050565b6000602082019050818103600083015261433f81614303565b9050919050565b7f496e636f7272656374207061796d656e7420616d6f756e740000000000000000600082015250565b600061437c6018836142a3565b915061438782614346565b602082019050919050565b600060208201905081810360008301526143ab8161436f565b9050919050565b6000604051905090565b600080fd5b600080fd5b60007fffffffff0000000000000000000000000000000000000000000000000000000082169050919050565b6143fb816143c6565b811461440657600080fd5b50565b600081359050614418816143f2565b92915050565b600060208284031215614434576144336143bc565b5b600061444284828501614409565b91505092915050565b60008115159050919050565b6144608161444b565b82525050565b600060208201905061447b6000830184614457565b92915050565b600081519050919050565b60005b838110156144aa57808201518184015260208101905061448f565b60008484015250505050565b6000601f19601f8301169050919050565b60006144d282614481565b6144dc81856142a3565b93506144ec81856020860161448c565b6144f5816144b6565b840191505092915050565b6000602082019050818103600083015261451a81846144c7565b905092915050565b600081519050919050565b600082825260208201905092915050565b6000819050602082019050919050565b6000819050919050565b6145618161454e565b82525050565b600073ffffffffffffffffffffffffffffffffffffffff82169050919050565b600061459282614567565b9050919050565b6145a281614587565b82525050565b6145b18161444b565b82525050565b60c0820160008201516145cd6000850182614558565b5060208201516145e06020850182614599565b5060408201516145f36040850182614599565b5060608201516146066060850182614558565b50608082015161461960808501826145a8565b5060a082015161462c60a0850182614558565b50505050565b600061463e83836145b7565b60c08301905092915050565b6000602082019050919050565b600061466282614522565b61466c818561452d565b93506146778361453e565b8060005b838110156146a857815161468f8882614632565b975061469a8361464a565b92505060018101905061467b565b5085935050505092915050565b600060208201905081810360008301526146cf8184614657565b905092915050565b6146e08161454e565b81146146eb57600080fd5b50565b6000813590506146fd816146d7565b92915050565b600060208284031215614719576147186143bc565b5b6000614727848285016146ee565b91505092915050565b600061473b82614567565b9050919050565b61474b81614730565b82525050565b60006020820190506147666000830184614742565b92915050565b61477581614730565b811461478057600080fd5b50565b6000813590506147928161476c565b92915050565b600080604083850312156147af576147ae6143bc565b5b60006147bd85828601614783565b92505060206147ce858286016146ee565b9150509250929050565b6147e18161444b565b81146147ec57600080fd5b50565b6000813590506147fe816147d8565b92915050565b60006020828403121561481a576148196143bc565b5b6000614828848285016147ef565b91505092915050565b61483a8161454e565b82525050565b60006020820190506148556000830184614831565b92915050565b600080fd5b600080fd5b600080fd5b60008083601f8401126148805761487f61485b565b5b8235905067ffffffffffffffff81111561489d5761489c614860565b5b6020830191508360208202830111156148b9576148b8614865565b5b9250929050565b6000806000604084860312156148d9576148d86143bc565b5b60006148e7868287016146ee565b935050602084013567ffffffffffffffff811115614908576149076143c1565b5b6149148682870161486a565b92509250509250925092565b600080600060608486031215614939576149386143bc565b5b600061494786828701614783565b935050602061495886828701614783565b9250506040614969868287016146ee565b9150509250925092565b600063ffffffff82169050919050565b61498c81614973565b82525050565b60006020820190506149a76000830184614983565b92915050565b6000602082840312156149c3576149c26143bc565b5b60006149d184828501614783565b91505092915050565b600081519050919050565b600082825260208201905092915050565b6000819050602082019050919050565b6000614a128383614558565b60208301905092915050565b6000602082019050919050565b6000614a36826149da565b614a4081856149e5565b9350614a4b836149f6565b8060005b83811015614a7c578151614a638882614a06565b9750614a6e83614a1e565b925050600181019050614a4f565b5085935050505092915050565b60006020820190508181036000830152614aa38184614a2b565b905092915050565b6000819050919050565b614abe81614aab565b82525050565b6000602082019050614ad96000830184614ab5565b92915050565b600080fd5b7f4e487b7100000000000000000000000000000000000000000000000000000000600052604160045260246000fd5b614b1c826144b6565b810181811067ffffffffffffffff82111715614b3b57614b3a614ae4565b5b80604052505050565b6000614b4e6143b2565b9050614b5a8282614b13565b919050565b600067ffffffffffffffff821115614b7a57614b79614ae4565b5b614b83826144b6565b9050602081019050919050565b82818337600083830152505050565b6000614bb2614bad84614b5f565b614b44565b905082815260208101848484011115614bce57614bcd614adf565b5b614bd9848285614b90565b509392505050565b600082601f830112614bf657614bf561485b565b5b8135614c06848260208601614b9f565b91505092915050565b600060208284031215614c2557614c246143bc565b5b600082013567ffffffffffffffff811115614c4357614c426143c1565b5b614c4f84828501614be1565b91505092915050565b600067ffffffffffffffff821115614c7357614c72614ae4565b5b602082029050602081019050919050565b6000614c97614c9284614c58565b614b44565b90508083825260208201905060208402830185811115614cba57614cb9614865565b5b835b81811015614ce35780614ccf88826146ee565b845260208401935050602081019050614cbc565b5050509392505050565b600082601f830112614d0257614d0161485b565b5b8135614d12848260208601614c84565b91505092915050565b600080600060608486031215614d3457614d336143bc565b5b600084013567ffffffffffffffff811115614d5257614d516143c1565b5b614d5e86828701614ced565b9350506020614d6f86828701614783565b9250506040614d80868287016146ee565b9150509250925092565b600080600060608486031215614da357614da26143bc565b5b600084013567ffffffffffffffff811115614dc157614dc06143c1565b5b614dcd86828701614be1565b9350506020614dde86828701614783565b9250506040614def868287016146ee565b9150509250925092565b6000819050919050565b6000614e1e614e19614e1484614567565b614df9565b614567565b9050919050565b6000614e3082614e03565b9050919050565b6000614e4282614e25565b9050919050565b614e5281614e37565b82525050565b6000602082019050614e6d6000830184614e49565b92915050565b60008060408385031215614e8a57614e896143bc565b5b6000614e9885828601614783565b9250506020614ea9858286016147ef565b9150509250929050565b600061ffff82169050919050565b614eca81614eb3565b82525050565b6000602082019050614ee56000830184614ec1565b92915050565b600067ffffffffffffffff821115614f0657614f05614ae4565b5b614f0f826144b6565b9050602081019050919050565b6000614f2f614f2a84614eeb565b614b44565b905082815260208101848484011115614f4b57614f4a614adf565b5b614f56848285614b90565b509392505050565b600082601f830112614f7357614f7261485b565b5b8135614f83848260208601614f1c565b91505092915050565b60008060008060808587031215614fa657614fa56143bc565b5b6000614fb487828801614783565b9450506020614fc587828801614783565b9350506040614fd6878288016146ee565b925050606085013567ffffffffffffffff811115614ff757614ff66143c1565b5b61500387828801614f5e565b91505092959194509250565b60008060408385031215615026576150256143bc565b5b600061503485828601614783565b925050602061504585828601614783565b9150509250929050565b60008060408385031215615066576150656143bc565b5b6000615074858286016146ee565b9250506020615085858286016146ee565b9150509250929050565b7f4e487b7100000000000000000000000000000000000000000000000000000000600052601160045260246000fd5b60006150c98261454e565b91506150d48361454e565b92508282019050808211156150ec576150eb61508f565b5b92915050565b7f4e487b7100000000000000000000000000000000000000000000000000000000600052600160045260246000fd5b600061512c8261454e565b91506151378361454e565b925082820390508181111561514f5761514e61508f565b5b92915050565b61515e81614aab565b82525050565b61516d81614eb3565b82525050565b61517c81614973565b82525050565b600081519050919050565b600082825260208201905092915050565b60006151a982615182565b6151b3818561518d565b93506151c381856020860161448c565b6151cc816144b6565b840191505092915050565b600060c0830160008301516151ef6000860182615155565b5060208301516152026020860182614558565b5060408301516152156040860182615164565b5060608301516152286060860182615173565b50608083015161523b6080860182615173565b5060a083015184820360a0860152615253828261519e565b9150508091505092915050565b6000602082019050818103600083015261527a81846151d7565b905092915050565b600081519050615291816146d7565b92915050565b6000602082840312156152ad576152ac6143bc565b5b60006152bb84828501615282565b91505092915050565b60006040820190506152d96000830185614831565b6152e66020830184614742565b9392505050565b7f4e487b7100000000000000000000000000000000000000000000000000000000600052602260045260246000fd5b6000600282049050600182168061533457607f821691505b602082108103615347576153466152ed565b5b50919050565b7f4e487b7100000000000000000000000000000000000000000000000000000000600052603260045260246000fd5b60006153878261454e565b91507fffffffffffffffffffffffffffffffffffffffffffffffffffffffffffffffff82036153b9576153b861508f565b5b600182019050919050565b60006040820190506153d96000830185614742565b6153e66020830184614742565b9392505050565b60006060820190506154026000830186614742565b61540f6020830185614831565b61541c6040830184614742565b949350505050565b60008190508160005260206000209050919050565b60006020601f8301049050919050565b600082821b905092915050565b6000600883026154867fffffffffffffffffffffffffffffffffffffffffffffffffffffffffffffffff82615449565b6154908683615449565b95508019841693508086168417925050509392505050565b60006154c36154be6154b98461454e565b614df9565b61454e565b9050919050565b6000819050919050565b6154dd836154a8565b6154f16154e9826154ca565b848454615456565b825550505050565b600090565b6155066154f9565b6155118184846154d4565b505050565b5b818110156155355761552a6000826154fe565b600181019050615517565b5050565b601f82111561557a5761554b81615424565b61555484615439565b81016020851015615563578190505b61557761556f85615439565b830182615516565b50505b505050565b600082821c905092915050565b600061559d6000198460080261557f565b1980831691505092915050565b60006155b6838361558c565b9150826002028217905092915050565b6155cf82614481565b67ffffffffffffffff8111156155e8576155e7614ae4565b5b6155f2825461531c565b6155fd828285615539565b600060209050601f831160018114615630576000841561561e578287015190505b61562885826155aa565b865550615690565b601f19841661563e86615424565b60005b8281101561566657848901518255600182019150602085019450602081019050615641565b86831015615683578489015161567f601f89168261558c565b8355505b6001600288020188555050505b505050505050565b7f457870656374656420582072616e646f6d206e756d6265727300000000000000600082015250565b60006156ce6019836142a3565b91506156d982615698565b602082019050919050565b600060208201905081810360008301526156fd816156c1565b9050919050565b7f526563697069656e74206164647265737320697320696e76616c696400000000600082015250565b600061573a601c836142a3565b915061574582615704565b602082019050919050565b600060208201905081810360008301526157698161572d565b9050919050565b7f4e487b7100000000000000000000000000000000000000000000000000000000600052601260045260246000fd5b60006157aa8261454e565b91506157b58361454e565b9250826157c5576157c4615770565b5b828206905092915050565b600081905092915050565b600081546157e88161531c565b6157f281866157d0565b9450600182166000811461580d576001811461582257615855565b60ff1983168652811515820286019350615855565b61582b85615424565b60005b8381101561584d5781548189015260018201915060208101905061582e565b838801955050505b50505092915050565b7f4361726420000000000000000000000000000000000000000000000000000000600082015250565b60006158946005836157d0565b915061589f8261585e565b600582019050919050565b60006158b582614481565b6158bf81856157d0565b93506158cf81856020860161448c565b80840191505092915050565b7f2e706e6700000000000000000000000000000000000000000000000000000000600082015250565b60006159116004836157d0565b915061591c826158db565b600482019050919050565b600061593382856157db565b915061593e82615887565b915061594a82846158aa565b915061595582615904565b91508190509392505050565b60006060820190506159766000830186614831565b6159836020830185614742565b818103604083015261599581846144c7565b9050949350505050565b7f4d7573742062652070726f706f736564206f776e657200000000000000000000600082015250565b60006159d56016836142a3565b91506159e08261599f565b602082019050919050565b60006020820190508181036000830152615a04816159c8565b9050919050565b6000606082019050615a206000830186614742565b615a2d6020830185614742565b615a3a6040830184614742565b949350505050565b6000615a4e82856158aa565b9150615a5a82846158aa565b91508190509392505050565b602082016000820151615a7c60008501826145a8565b50505050565b6000602082019050615a976000830184615a66565b92915050565b7f4f6e6c792063616c6c61626c65206279206f776e657200000000000000000000600082015250565b6000615ad36016836142a3565b9150615ade82615a9d565b602082019050919050565b60006020820190508181036000830152615b0281615ac6565b9050919050565b600082825260208201905092915050565b6000615b2582615182565b615b2f8185615b09565b9350615b3f81856020860161448c565b615b48816144b6565b840191505092915050565b6000608082019050615b686000830187614742565b615b756020830186614742565b615b826040830185614831565b8181036060830152615b948184615b1a565b905095945050505050565b600081519050615bae816143f2565b92915050565b600060208284031215615bca57615bc96143bc565b5b6000615bd884828501615b9f565b91505092915050565b7f5072696365206d757374206265206174206c6561737420312077656900000000600082015250565b6000615c17601c836142a3565b9150615c2282615be1565b602082019050919050565b60006020820190508181036000830152615c4681615c0a565b9050919050565b6000608082019050615c626000830187614742565b615c6f6020830186614742565b615c7c6040830185614831565b615c896060830184614457565b95945050505050565b7f43616e6e6f74207472616e7366657220746f2073656c66000000000000000000600082015250565b6000615cc86017836142a3565b9150615cd382615c92565b602082019050919050565b60006020820190508181036000830152615cf781615cbb565b9050919050565b6000604082019050615d136000830185614742565b615d206020830184614831565b939250505056fea2646970667358221220f88ef7c2445da092450cee84e8b8ce4719db6cc5a4b742c50fe8b92a45ad813c64736f6c6343000814003368747470733a2f2f61707269636f742d636865657266756c2d616c706163612d3633362e6d7970696e6174612e636c6f75642f697066732f62616679626569663477646536693435337568616432627336336179346e6970336d6c32713778336a6866666d6f346c6b64327a35327569706d692f",
  "linkReferences": {},
  "deployedLinkReferences": {}
}