{
    "_format": "hh-sol-artifact-1",
    "contractName": "CardCollectingNFT",
    "sourceName": "contracts/CardCollectingNFT.sol",
    "abi": [
        {
            "inputs": [
                {
                    "internalType": "uint256",
                    "name": "subscriptionId",
                    "type": "uint256"
                }
            ],
            "stateMutability": "nonpayable",
            "type": "constructor"
        },
        {
            "inputs": [
                {
                    "internalType": "address",
                    "name": "sender",
                    "type": "address"
                },
                {
                    "internalType": "uint256",
                    "name": "tokenId",
                    "type": "uint256"
                },
                {
                    "internalType": "address",
                    "name": "owner",
                    "type": "address"
                }
            ],
            "name": "ERC721IncorrectOwner",
            "type": "error"
        },
        {
            "inputs": [
                {
                    "internalType": "address",
                    "name": "operator",
                    "type": "address"
                },
                {
                    "internalType": "uint256",
                    "name": "tokenId",
                    "type": "uint256"
                }
            ],
            "name": "ERC721InsufficientApproval",
            "type": "error"
        },
        {
            "inputs": [
                {
                    "internalType": "address",
                    "name": "approver",
                    "type": "address"
                }
            ],
            "name": "ERC721InvalidApprover",
            "type": "error"
        },
        {
            "inputs": [
                {
                    "internalType": "address",
                    "name": "operator",
                    "type": "address"
                }
            ],
            "name": "ERC721InvalidOperator",
            "type": "error"
        },
        {
            "inputs": [
                {
                    "internalType": "address",
                    "name": "owner",
                    "type": "address"
                }
            ],
            "name": "ERC721InvalidOwner",
            "type": "error"
        },
        {
            "inputs": [
                {
                    "internalType": "address",
                    "name": "receiver",
                    "type": "address"
                }
            ],
            "name": "ERC721InvalidReceiver",
            "type": "error"
        },
        {
            "inputs": [
                {
                    "internalType": "address",
                    "name": "sender",
                    "type": "address"
                }
            ],
            "name": "ERC721InvalidSender",
            "type": "error"
        },
        {
            "inputs": [
                {
                    "internalType": "uint256",
                    "name": "tokenId",
                    "type": "uint256"
                }
            ],
            "name": "ERC721NonexistentToken",
            "type": "error"
        },
        {
            "inputs": [
                {
                    "internalType": "address",
                    "name": "have",
                    "type": "address"
                },
                {
                    "internalType": "address",
                    "name": "want",
                    "type": "address"
                }
            ],
            "name": "OnlyCoordinatorCanFulfill",
            "type": "error"
        },
        {
            "inputs": [
                {
                    "internalType": "address",
                    "name": "have",
                    "type": "address"
                },
                {
                    "internalType": "address",
                    "name": "owner",
                    "type": "address"
                },
                {
                    "internalType": "address",
                    "name": "coordinator",
                    "type": "address"
                }
            ],
            "name": "OnlyOwnerOrCoordinator",
            "type": "error"
        },
        {
            "inputs": [],
            "name": "ZeroAddress",
            "type": "error"
        },
        {
            "anonymous": false,
            "inputs": [
                {
                    "indexed": true,
                    "internalType": "address",
                    "name": "owner",
                    "type": "address"
                },
                {
                    "indexed": true,
                    "internalType": "address",
                    "name": "approved",
                    "type": "address"
                },
                {
                    "indexed": true,
                    "internalType": "uint256",
                    "name": "tokenId",
                    "type": "uint256"
                }
            ],
            "name": "Approval",
            "type": "event"
        },
        {
            "anonymous": false,
            "inputs": [
                {
                    "indexed": true,
                    "internalType": "address",
                    "name": "owner",
                    "type": "address"
                },
                {
                    "indexed": true,
                    "internalType": "address",
                    "name": "operator",
                    "type": "address"
                },
                {
                    "indexed": false,
                    "internalType": "bool",
                    "name": "approved",
                    "type": "bool"
                }
            ],
            "name": "ApprovalForAll",
            "type": "event"
        },
        {
            "anonymous": false,
            "inputs": [
                {
                    "indexed": false,
                    "internalType": "uint256",
                    "name": "_fromTokenId",
                    "type": "uint256"
                },
                {
                    "indexed": false,
                    "internalType": "uint256",
                    "name": "_toTokenId",
                    "type": "uint256"
                }
            ],
            "name": "BatchMetadataUpdate",
            "type": "event"
        },
        {
            "anonymous": false,
            "inputs": [
                {
                    "indexed": false,
                    "internalType": "uint256",
                    "name": "tokenId",
                    "type": "uint256"
                },
                {
                    "indexed": false,
                    "internalType": "address",
                    "name": "owner",
                    "type": "address"
                },
                {
                    "indexed": false,
                    "internalType": "string",
                    "name": "metadataURI",
                    "type": "string"
                }
            ],
            "name": "CardMinted",
            "type": "event"
        },
        {
            "anonymous": false,
            "inputs": [
                {
                    "indexed": false,
                    "internalType": "address",
                    "name": "vrfCoordinator",
                    "type": "address"
                }
            ],
            "name": "CoordinatorSet",
            "type": "event"
        },
        {
            "anonymous": false,
            "inputs": [
                {
                    "indexed": false,
                    "internalType": "uint256",
                    "name": "_tokenId",
                    "type": "uint256"
                }
            ],
            "name": "MetadataUpdate",
            "type": "event"
        },
        {
            "anonymous": false,
            "inputs": [
                {
                    "indexed": true,
                    "internalType": "address",
                    "name": "from",
                    "type": "address"
                },
                {
                    "indexed": true,
                    "internalType": "address",
                    "name": "to",
                    "type": "address"
                }
            ],
            "name": "OwnershipTransferRequested",
            "type": "event"
        },
        {
            "anonymous": false,
            "inputs": [
                {
                    "indexed": true,
                    "internalType": "address",
                    "name": "from",
                    "type": "address"
                },
                {
                    "indexed": true,
                    "internalType": "address",
                    "name": "to",
                    "type": "address"
                }
            ],
            "name": "OwnershipTransferred",
            "type": "event"
        },
        {
            "anonymous": false,
            "inputs": [
                {
                    "indexed": false,
                    "internalType": "uint256",
                    "name": "requestId",
                    "type": "uint256"
                },
                {
                    "indexed": false,
                    "internalType": "uint256[]",
                    "name": "randomWords",
                    "type": "uint256[]"
                }
            ],
            "name": "RandomnessFulfilled",
            "type": "event"
        },
        {
            "anonymous": false,
            "inputs": [
                {
                    "indexed": false,
                    "internalType": "uint256",
                    "name": "requestId",
                    "type": "uint256"
                },
                {
                    "indexed": false,
                    "internalType": "address",
                    "name": "requester",
                    "type": "address"
                }
            ],
            "name": "RandomnessRequested",
            "type": "event"
        },
        {
            "anonymous": false,
            "inputs": [
                {
                    "indexed": true,
                    "internalType": "address",
                    "name": "from",
                    "type": "address"
                },
                {
                    "indexed": true,
                    "internalType": "address",
                    "name": "to",
                    "type": "address"
                },
                {
                    "indexed": true,
                    "internalType": "uint256",
                    "name": "tokenId",
                    "type": "uint256"
                }
            ],
            "name": "Transfer",
            "type": "event"
        },
        {
            "inputs": [],
            "name": "acceptOwnership",
            "outputs": [],
            "stateMutability": "nonpayable",
            "type": "function"
        },
        {
            "inputs": [
                {
                    "internalType": "address",
                    "name": "to",
                    "type": "address"
                },
                {
                    "internalType": "uint256",
                    "name": "tokenId",
                    "type": "uint256"
                }
            ],
            "name": "approve",
            "outputs": [],
            "stateMutability": "nonpayable",
            "type": "function"
        },
        {
            "inputs": [
                {
                    "internalType": "address",
                    "name": "owner",
                    "type": "address"
                }
            ],
            "name": "balanceOf",
            "outputs": [
                {
                    "internalType": "uint256",
                    "name": "",
                    "type": "uint256"
                }
            ],
            "stateMutability": "view",
            "type": "function"
        },
        {
            "inputs": [],
            "name": "baseURI",
            "outputs": [
                {
                    "internalType": "string",
                    "name": "",
                    "type": "string"
                }
            ],
            "stateMutability": "view",
            "type": "function"
        },
        {
            "inputs": [
                {
                    "internalType": "uint256",
                    "name": "_requestId",
                    "type": "uint256"
                }
            ],
            "name": "batchMint",
            "outputs": [],
            "stateMutability": "nonpayable",
            "type": "function"
        },
        {
            "inputs": [],
            "name": "callbackGasLimit",
            "outputs": [
                {
                    "internalType": "uint32",
                    "name": "",
                    "type": "uint32"
                }
            ],
            "stateMutability": "view",
            "type": "function"
        },
        {
            "inputs": [
                {
                    "internalType": "uint256",
                    "name": "tokenId",
                    "type": "uint256"
                }
            ],
            "name": "getApproved",
            "outputs": [
                {
                    "internalType": "address",
                    "name": "",
                    "type": "address"
                }
            ],
            "stateMutability": "view",
            "type": "function"
        },
        {
            "inputs": [
                {
                    "internalType": "address",
                    "name": "user",
                    "type": "address"
                }
            ],
            "name": "getMintedTokens",
            "outputs": [
                {
                    "internalType": "uint256[]",
                    "name": "",
                    "type": "uint256[]"
                }
            ],
            "stateMutability": "view",
            "type": "function"
        },
        {
            "inputs": [
                {
                    "internalType": "uint256",
                    "name": "_requestId",
                    "type": "uint256"
                }
            ],
            "name": "getRequestStatus",
            "outputs": [
                {
                    "internalType": "bool",
                    "name": "fulfilled",
                    "type": "bool"
                },
                {
                    "internalType": "uint256[]",
                    "name": "randomWords",
                    "type": "uint256[]"
                }
            ],
            "stateMutability": "view",
            "type": "function"
        },
        {
            "inputs": [
                {
                    "internalType": "address",
                    "name": "owner",
                    "type": "address"
                },
                {
                    "internalType": "address",
                    "name": "operator",
                    "type": "address"
                }
            ],
            "name": "isApprovedForAll",
            "outputs": [
                {
                    "internalType": "bool",
                    "name": "",
                    "type": "bool"
                }
            ],
            "stateMutability": "view",
            "type": "function"
        },
        {
            "inputs": [],
            "name": "lastRequestId",
            "outputs": [
                {
                    "internalType": "uint256",
                    "name": "",
                    "type": "uint256"
                }
            ],
            "stateMutability": "view",
            "type": "function"
        },
        {
            "inputs": [],
            "name": "name",
            "outputs": [
                {
                    "internalType": "string",
                    "name": "",
                    "type": "string"
                }
            ],
            "stateMutability": "view",
            "type": "function"
        },
        {
            "inputs": [],
            "name": "nextTokenId",
            "outputs": [
                {
                    "internalType": "uint256",
                    "name": "",
                    "type": "uint256"
                }
            ],
            "stateMutability": "view",
            "type": "function"
        },
        {
            "inputs": [],
            "name": "numWords",
            "outputs": [
                {
                    "internalType": "uint32",
                    "name": "",
                    "type": "uint32"
                }
            ],
            "stateMutability": "view",
            "type": "function"
        },
        {
            "inputs": [],
            "name": "owner",
            "outputs": [
                {
                    "internalType": "address",
                    "name": "",
                    "type": "address"
                }
            ],
            "stateMutability": "view",
            "type": "function"
        },
        {
            "inputs": [
                {
                    "internalType": "uint256",
                    "name": "tokenId",
                    "type": "uint256"
                }
            ],
            "name": "ownerOf",
            "outputs": [
                {
                    "internalType": "address",
                    "name": "",
                    "type": "address"
                }
            ],
            "stateMutability": "view",
            "type": "function"
        },
        {
            "inputs": [
                {
                    "internalType": "uint256",
                    "name": "requestId",
                    "type": "uint256"
                },
                {
                    "internalType": "uint256[]",
                    "name": "randomWords",
                    "type": "uint256[]"
                }
            ],
            "name": "rawFulfillRandomWords",
            "outputs": [],
            "stateMutability": "nonpayable",
            "type": "function"
        },
        {
            "inputs": [],
            "name": "requestConfirmations",
            "outputs": [
                {
                    "internalType": "uint16",
                    "name": "",
                    "type": "uint16"
                }
            ],
            "stateMutability": "view",
            "type": "function"
        },
        {
            "inputs": [
                {
                    "internalType": "uint256",
                    "name": "",
                    "type": "uint256"
                }
            ],
            "name": "requestIds",
            "outputs": [
                {
                    "internalType": "uint256",
                    "name": "",
                    "type": "uint256"
                }
            ],
            "stateMutability": "view",
            "type": "function"
        },
        {
            "inputs": [],
            "name": "requestRandomWords",
            "outputs": [
                {
                    "internalType": "uint256",
                    "name": "requestId",
                    "type": "uint256"
                }
            ],
            "stateMutability": "nonpayable",
            "type": "function"
        },
        {
            "inputs": [],
            "name": "s_keyHash",
            "outputs": [
                {
                    "internalType": "bytes32",
                    "name": "",
                    "type": "bytes32"
                }
            ],
            "stateMutability": "view",
            "type": "function"
        },
        {
            "inputs": [
                {
                    "internalType": "uint256",
                    "name": "",
                    "type": "uint256"
                }
            ],
            "name": "s_randomWords",
            "outputs": [
                {
                    "internalType": "uint256",
                    "name": "",
                    "type": "uint256"
                }
            ],
            "stateMutability": "view",
            "type": "function"
        },
        {
            "inputs": [
                {
                    "internalType": "uint256",
                    "name": "",
                    "type": "uint256"
                },
                {
                    "internalType": "uint256",
                    "name": "",
                    "type": "uint256"
                }
            ],
            "name": "s_requestToRandomNumbers",
            "outputs": [
                {
                    "internalType": "uint256",
                    "name": "",
                    "type": "uint256"
                }
            ],
            "stateMutability": "view",
            "type": "function"
        },
        {
            "inputs": [
                {
                    "internalType": "uint256",
                    "name": "",
                    "type": "uint256"
                }
            ],
            "name": "s_requestToSender",
            "outputs": [
                {
                    "internalType": "address",
                    "name": "",
                    "type": "address"
                }
            ],
            "stateMutability": "view",
            "type": "function"
        },
        {
            "inputs": [
                {
                    "internalType": "uint256",
                    "name": "",
                    "type": "uint256"
                }
            ],
            "name": "s_requests",
            "outputs": [
                {
                    "internalType": "bool",
                    "name": "fulfilled",
                    "type": "bool"
                },
                {
                    "internalType": "bool",
                    "name": "exists",
                    "type": "bool"
                }
            ],
            "stateMutability": "view",
            "type": "function"
        },
        {
            "inputs": [],
            "name": "s_subscriptionId",
            "outputs": [
                {
                    "internalType": "uint256",
                    "name": "",
                    "type": "uint256"
                }
            ],
            "stateMutability": "view",
            "type": "function"
        },
        {
            "inputs": [],
            "name": "s_vrfCoordinator",
            "outputs": [
                {
                    "internalType": "contract IVRFCoordinatorV2Plus",
                    "name": "",
                    "type": "address"
                }
            ],
            "stateMutability": "view",
            "type": "function"
        },
        {
            "inputs": [
                {
                    "internalType": "address",
                    "name": "from",
                    "type": "address"
                },
                {
                    "internalType": "address",
                    "name": "to",
                    "type": "address"
                },
                {
                    "internalType": "uint256",
                    "name": "tokenId",
                    "type": "uint256"
                }
            ],
            "name": "safeTransferFrom",
            "outputs": [],
            "stateMutability": "nonpayable",
            "type": "function"
        },
        {
            "inputs": [
                {
                    "internalType": "address",
                    "name": "from",
                    "type": "address"
                },
                {
                    "internalType": "address",
                    "name": "to",
                    "type": "address"
                },
                {
                    "internalType": "uint256",
                    "name": "tokenId",
                    "type": "uint256"
                },
                {
                    "internalType": "bytes",
                    "name": "data",
                    "type": "bytes"
                }
            ],
            "name": "safeTransferFrom",
            "outputs": [],
            "stateMutability": "nonpayable",
            "type": "function"
        },
        {
            "inputs": [
                {
                    "internalType": "address",
                    "name": "operator",
                    "type": "address"
                },
                {
                    "internalType": "bool",
                    "name": "approved",
                    "type": "bool"
                }
            ],
            "name": "setApprovalForAll",
            "outputs": [],
            "stateMutability": "nonpayable",
            "type": "function"
        },
        {
            "inputs": [
                {
                    "internalType": "string",
                    "name": "_baseURI",
                    "type": "string"
                }
            ],
            "name": "setBaseURI",
            "outputs": [],
            "stateMutability": "nonpayable",
            "type": "function"
        },
        {
            "inputs": [
                {
                    "internalType": "address",
                    "name": "_vrfCoordinator",
                    "type": "address"
                }
            ],
            "name": "setCoordinator",
            "outputs": [],
            "stateMutability": "nonpayable",
            "type": "function"
        },
        {
            "inputs": [
                {
                    "internalType": "bytes4",
                    "name": "interfaceId",
                    "type": "bytes4"
                }
            ],
            "name": "supportsInterface",
            "outputs": [
                {
                    "internalType": "bool",
                    "name": "",
                    "type": "bool"
                }
            ],
            "stateMutability": "view",
            "type": "function"
        },
        {
            "inputs": [],
            "name": "symbol",
            "outputs": [
                {
                    "internalType": "string",
                    "name": "",
                    "type": "string"
                }
            ],
            "stateMutability": "view",
            "type": "function"
        },
        {
            "inputs": [
                {
                    "internalType": "uint256",
                    "name": "tokenId",
                    "type": "uint256"
                }
            ],
            "name": "tokenURI",
            "outputs": [
                {
                    "internalType": "string",
                    "name": "",
                    "type": "string"
                }
            ],
            "stateMutability": "view",
            "type": "function"
        },
        {
            "inputs": [
                {
                    "internalType": "address",
                    "name": "from",
                    "type": "address"
                },
                {
                    "internalType": "address",
                    "name": "to",
                    "type": "address"
                },
                {
                    "internalType": "uint256",
                    "name": "tokenId",
                    "type": "uint256"
                }
            ],
            "name": "transferFrom",
            "outputs": [],
            "stateMutability": "nonpayable",
            "type": "function"
        },
        {
            "inputs": [
                {
                    "internalType": "address",
                    "name": "to",
                    "type": "address"
                }
            ],
            "name": "transferOwnership",
            "outputs": [],
            "stateMutability": "nonpayable",
            "type": "function"
        }
    ],
    "bytecode": "0x60806040527f787d74caea10b2b357790d5b5247c2f63d1d91572a9846f780606e4d953677ae60001b601155620f4240601260006101000a81548163ffffffff021916908363ffffffff1602179055506003601260046101000a81548161ffff021916908361ffff160217905550600a601260066101000a81548163ffffffff021916908363ffffffff16021790555060405180606001604052806024815260200162004fe36024913960139081620000b99190620006f7565b50348015620000c757600080fd5b5060405162005007380380620050078339818101604052810190620000ed919062000814565b739ddfaca8183c41ad55329bdeed9f6a8d53168b1b338060006040518060400160405280601181526020017f43617264436f6c6c656374696e674e46540000000000000000000000000000008152506040518060400160405280600581526020017f43434e46540000000000000000000000000000000000000000000000000000008152508160009081620001839190620006f7565b508060019081620001959190620006f7565b505050600073ffffffffffffffffffffffffffffffffffffffff168273ffffffffffffffffffffffffffffffffffffffff16036200020a576040517f08c379a00000000000000000000000000000000000000000000000000000000081526004016200020190620008a7565b60405180910390fd5b81600760006101000a81548173ffffffffffffffffffffffffffffffffffffffff021916908373ffffffffffffffffffffffffffffffffffffffff160217905550600073ffffffffffffffffffffffffffffffffffffffff168173ffffffffffffffffffffffffffffffffffffffff1614620002925762000291816200034c60201b60201c565b5b505050600073ffffffffffffffffffffffffffffffffffffffff168173ffffffffffffffffffffffffffffffffffffffff1603620002fc576040517fd92e233d00000000000000000000000000000000000000000000000000000000815260040160405180910390fd5b80600960006101000a81548173ffffffffffffffffffffffffffffffffffffffff021916908373ffffffffffffffffffffffffffffffffffffffff1602179055505080601081905550506200093b565b3373ffffffffffffffffffffffffffffffffffffffff168173ffffffffffffffffffffffffffffffffffffffff1603620003bd576040517f08c379a0000000000000000000000000000000000000000000000000000000008152600401620003b49062000919565b60405180910390fd5b80600860006101000a81548173ffffffffffffffffffffffffffffffffffffffff021916908373ffffffffffffffffffffffffffffffffffffffff1602179055508073ffffffffffffffffffffffffffffffffffffffff16600760009054906101000a900473ffffffffffffffffffffffffffffffffffffffff1673ffffffffffffffffffffffffffffffffffffffff167fed8889f560326eb138920d842192f0eb3dd22b4f139c87a2c57538e05bae127860405160405180910390a350565b600081519050919050565b7f4e487b7100000000000000000000000000000000000000000000000000000000600052604160045260246000fd5b7f4e487b7100000000000000000000000000000000000000000000000000000000600052602260045260246000fd5b60006002820490506001821680620004ff57607f821691505b602082108103620005155762000514620004b7565b5b50919050565b60008190508160005260206000209050919050565b60006020601f8301049050919050565b600082821b905092915050565b6000600883026200057f7fffffffffffffffffffffffffffffffffffffffffffffffffffffffffffffffff8262000540565b6200058b868362000540565b95508019841693508086168417925050509392505050565b6000819050919050565b6000819050919050565b6000620005d8620005d2620005cc84620005a3565b620005ad565b620005a3565b9050919050565b6000819050919050565b620005f483620005b7565b6200060c6200060382620005df565b8484546200054d565b825550505050565b600090565b6200062362000614565b62000630818484620005e9565b505050565b5b8181101562000658576200064c60008262000619565b60018101905062000636565b5050565b601f821115620006a75762000671816200051b565b6200067c8462000530565b810160208510156200068c578190505b620006a46200069b8562000530565b83018262000635565b50505b505050565b600082821c905092915050565b6000620006cc60001984600802620006ac565b1980831691505092915050565b6000620006e78383620006b9565b9150826002028217905092915050565b62000702826200047d565b67ffffffffffffffff8111156200071e576200071d62000488565b5b6200072a8254620004e6565b620007378282856200065c565b600060209050601f8311600181146200076f57600084156200075a578287015190505b620007668582620006d9565b865550620007d6565b601f1984166200077f866200051b565b60005b82811015620007a95784890151825560018201915060208501945060208101905062000782565b86831015620007c95784890151620007c5601f891682620006b9565b8355505b6001600288020188555050505b505050505050565b600080fd5b620007ee81620005a3565b8114620007fa57600080fd5b50565b6000815190506200080e81620007e3565b92915050565b6000602082840312156200082d576200082c620007de565b5b60006200083d84828501620007fd565b91505092915050565b600082825260208201905092915050565b7f43616e6e6f7420736574206f776e657220746f207a65726f0000000000000000600082015250565b60006200088f60188362000846565b91506200089c8262000857565b602082019050919050565b60006020820190508181036000830152620008c28162000880565b9050919050565b7f43616e6e6f74207472616e7366657220746f2073656c66000000000000000000600082015250565b60006200090160178362000846565b91506200090e82620008c9565b602082019050919050565b600060208201905081810360008301526200093481620008f2565b9050919050565b614698806200094b6000396000f3fe608060405234801561001057600080fd5b50600436106102275760003560e01c80638467be0d11610130578063b0fb162f116100b8578063e0c862891161007c578063e0c862891461068e578063e985e9c5146106ac578063f2fde38b146106dc578063f6eaffc8146106f8578063fc2a88c31461072857610227565b8063b0fb162f146105c3578063b88d4fde146105e1578063c1077632146105fd578063c87b56dd1461062d578063d8a4676f1461065d57610227565b80638ea98117116100ff5780638ea981171461051e57806395d89b411461053a5780639eccacf614610558578063a168fa8914610576578063a22cb465146105a757610227565b80638467be0d146104965780638796ba8c146104b25780638ac00021146104e25780638da5cb5b1461050057610227565b8063434a49a1116101b35780636c0360eb116101825780636c0360eb1461040257806370a082311461042057806375794a3c1461045057806379ba50971461046e5780637ccfd7fc1461047857610227565b8063434a49a11461036857806345bb327b1461039857806355f804b3146103b65780636352211e146103d257610227565b80631fe543e3116101fa5780631fe543e3146102c657806323b872dd146102e257806324f74697146102fe5780632e602d291461031c57806342842e0e1461034c57610227565b806301ffc9a71461022c57806306fdde031461025c578063081812fc1461027a578063095ea7b3146102aa575b600080fd5b61024660048036038101906102419190612f65565b610746565b6040516102539190612fad565b60405180910390f35b6102646107a7565b6040516102719190613058565b60405180910390f35b610294600480360381019061028f91906130b0565b610839565b6040516102a1919061311e565b60405180910390f35b6102c460048036038101906102bf9190613165565b610855565b005b6102e060048036038101906102db919061320a565b61086b565b005b6102fc60048036038101906102f7919061326a565b610931565b005b610306610a33565b60405161031391906132dc565b60405180910390f35b610336600480360381019061033191906130b0565b610a49565b604051610343919061311e565b60405180910390f35b6103666004803603810190610361919061326a565b610a7c565b005b610382600480360381019061037d91906132f7565b610a9c565b60405161038f91906133e2565b60405180910390f35b6103a0610b33565b6040516103ad919061341d565b60405180910390f35b6103d060048036038101906103cb9190613568565b610b39565b005b6103ec60048036038101906103e791906130b0565b610b54565b6040516103f9919061311e565b60405180910390f35b61040a610b66565b6040516104179190613058565b60405180910390f35b61043a600480360381019061043591906132f7565b610bf4565b60405161044791906135c0565b60405180910390f35b610458610cae565b60405161046591906135c0565b60405180910390f35b610476610cb4565b005b610480610e4b565b60405161048d91906132dc565b60405180910390f35b6104b060048036038101906104ab91906130b0565b610e61565b005b6104cc60048036038101906104c791906130b0565b61118c565b6040516104d991906135c0565b60405180910390f35b6104ea6111b0565b6040516104f791906135c0565b60405180910390f35b6105086111b6565b604051610515919061311e565b60405180910390f35b610538600480360381019061053391906132f7565b6111e0565b005b6105426113c1565b60405161054f9190613058565b60405180910390f35b610560611453565b60405161056d919061363a565b60405180910390f35b610590600480360381019061058b91906130b0565b611479565b60405161059e929190613655565b60405180910390f35b6105c160048036038101906105bc91906136aa565b6114b7565b005b6105cb6114cd565b6040516105d89190613707565b60405180910390f35b6105fb60048036038101906105f691906137c3565b6114e1565b005b61061760048036038101906106129190613846565b611506565b60405161062491906135c0565b60405180910390f35b610647600480360381019061064291906130b0565b611537565b6040516106549190613058565b60405180910390f35b610677600480360381019061067291906130b0565b61164a565b604051610685929190613886565b60405180910390f35b610696611775565b6040516106a391906135c0565b60405180910390f35b6106c660048036038101906106c191906138b6565b611a3f565b6040516106d39190612fad565b60405180910390f35b6106f660048036038101906106f191906132f7565b611ad3565b005b610712600480360381019061070d91906130b0565b611ae7565b60405161071f91906135c0565b60405180910390f35b610730611b0b565b60405161073d91906135c0565b60405180910390f35b6000634906490660e01b7bffffffffffffffffffffffffffffffffffffffffffffffffffffffff1916827bffffffffffffffffffffffffffffffffffffffffffffffffffffffff191614806107a0575061079f82611b11565b5b9050919050565b6060600080546107b690613925565b80601f01602080910402602001604051908101604052809291908181526020018280546107e290613925565b801561082f5780601f106108045761010080835404028352916020019161082f565b820191906000526020600020905b81548152906001019060200180831161081257829003601f168201915b5050505050905090565b600061084482611bf3565b5061084e82611c7b565b9050919050565b6108678282610862611cb8565b611cc0565b5050565b600960009054906101000a900473ffffffffffffffffffffffffffffffffffffffff1673ffffffffffffffffffffffffffffffffffffffff163373ffffffffffffffffffffffffffffffffffffffff16146109215733600960009054906101000a900473ffffffffffffffffffffffffffffffffffffffff166040517f1cf993f4000000000000000000000000000000000000000000000000000000008152600401610918929190613956565b60405180910390fd5b61092c838383611cd2565b505050565b600073ffffffffffffffffffffffffffffffffffffffff168273ffffffffffffffffffffffffffffffffffffffff16036109a35760006040517f64a0ae9200000000000000000000000000000000000000000000000000000000815260040161099a919061311e565b60405180910390fd5b60006109b783836109b2611cb8565b611dc5565b90508373ffffffffffffffffffffffffffffffffffffffff168173ffffffffffffffffffffffffffffffffffffffff1614610a2d578382826040517f64283d7b000000000000000000000000000000000000000000000000000000008152600401610a249392919061397f565b60405180910390fd5b50505050565b601260009054906101000a900463ffffffff1681565b60146020528060005260406000206000915054906101000a900473ffffffffffffffffffffffffffffffffffffffff1681565b610a97838383604051806020016040528060008152506114e1565b505050565b6060601760008373ffffffffffffffffffffffffffffffffffffffff1673ffffffffffffffffffffffffffffffffffffffff168152602001908152602001600020805480602002602001604051908101604052809291908181526020018280548015610b2757602002820191906000526020600020905b815481526020019060010190808311610b13575b50505050509050919050565b60115481565b610b41611fdf565b8060139081610b509190613b58565b5050565b6000610b5f82611bf3565b9050919050565b60138054610b7390613925565b80601f0160208091040260200160405190810160405280929190818152602001828054610b9f90613925565b8015610bec5780601f10610bc157610100808354040283529160200191610bec565b820191906000526020600020905b815481529060010190602001808311610bcf57829003601f168201915b505050505081565b60008073ffffffffffffffffffffffffffffffffffffffff168273ffffffffffffffffffffffffffffffffffffffff1603610c675760006040517f89c62b64000000000000000000000000000000000000000000000000000000008152600401610c5e919061311e565b60405180910390fd5b600360008373ffffffffffffffffffffffffffffffffffffffff1673ffffffffffffffffffffffffffffffffffffffff168152602001908152602001600020549050919050565b600e5481565b600860009054906101000a900473ffffffffffffffffffffffffffffffffffffffff1673ffffffffffffffffffffffffffffffffffffffff163373ffffffffffffffffffffffffffffffffffffffff1614610d44576040517f08c379a0000000000000000000000000000000000000000000000000000000008152600401610d3b90613c76565b60405180910390fd5b6000600760009054906101000a900473ffffffffffffffffffffffffffffffffffffffff16905033600760006101000a81548173ffffffffffffffffffffffffffffffffffffffff021916908373ffffffffffffffffffffffffffffffffffffffff1602179055506000600860006101000a81548173ffffffffffffffffffffffffffffffffffffffff021916908373ffffffffffffffffffffffffffffffffffffffff1602179055503373ffffffffffffffffffffffffffffffffffffffff168173ffffffffffffffffffffffffffffffffffffffff167f8be0079c531659141344cd1fd0a4f28419497f9722a3daafe3b4186f6b6457e060405160405180910390a350565b601260069054906101000a900463ffffffff1681565b600080610e6d8361164a565b9150915081610eb1576040517f08c379a0000000000000000000000000000000000000000000000000000000008152600401610ea890613ce2565b60405180910390fd5b600a815114610ef5576040517f08c379a0000000000000000000000000000000000000000000000000000000008152600401610eec90613d4e565b60405180910390fd5b60006014600085815260200190815260200160002060009054906101000a900473ffffffffffffffffffffffffffffffffffffffff169050600073ffffffffffffffffffffffffffffffffffffffff168173ffffffffffffffffffffffffffffffffffffffff1603610f9c576040517f08c379a0000000000000000000000000000000000000000000000000000000008152600401610f9390613dba565b60405180910390fd5b6000825167ffffffffffffffff811115610fb957610fb861343d565b5b604051908082528060200260200182016040528015610fe75781602001602082028036833780820191505090505b50905060005b83518110156110e4576000601485838151811061100d5761100c613dda565b5b602002602001015161101f9190613e38565b90506000600e5490508084848151811061103c5761103b613dda565b5b602002602001018181525050600e600081548092919061105b90613e98565b919050555061106a8582612071565b7fd8734743ed0c1c7547379b55d892e5cea71bc5371832ffa4149a506fbc1aa6d0818660136110988661216a565b6040516020016110a9929190614037565b6040516020818303038152906040526040516110c793929190614071565b60405180910390a1505080806110dc90613e98565b915050610fed565b5060005b815181101561118457601760008473ffffffffffffffffffffffffffffffffffffffff1673ffffffffffffffffffffffffffffffffffffffff16815260200190815260200160002082828151811061114357611142613dda565b5b60200260200101519080600181540180825580915050600190039060005260206000200160009091909190915055808061117c90613e98565b9150506110e8565b505050505050565b600b818154811061119c57600080fd5b906000526020600020016000915090505481565b60105481565b6000600760009054906101000a900473ffffffffffffffffffffffffffffffffffffffff16905090565b6111e86111b6565b73ffffffffffffffffffffffffffffffffffffffff163373ffffffffffffffffffffffffffffffffffffffff16141580156112715750600960009054906101000a900473ffffffffffffffffffffffffffffffffffffffff1673ffffffffffffffffffffffffffffffffffffffff163373ffffffffffffffffffffffffffffffffffffffff1614155b156112e0573361127f6111b6565b600960009054906101000a900473ffffffffffffffffffffffffffffffffffffffff166040517f061db9c10000000000000000000000000000000000000000000000000000000081526004016112d7939291906140af565b60405180910390fd5b600073ffffffffffffffffffffffffffffffffffffffff168173ffffffffffffffffffffffffffffffffffffffff1603611346576040517fd92e233d00000000000000000000000000000000000000000000000000000000815260040160405180910390fd5b80600960006101000a81548173ffffffffffffffffffffffffffffffffffffffff021916908373ffffffffffffffffffffffffffffffffffffffff1602179055507fd1a6a14209a385a964d036e404cb5cfb71f4000cdb03c9366292430787261be6816040516113b6919061311e565b60405180910390a150565b6060600180546113d090613925565b80601f01602080910402602001604051908101604052809291908181526020018280546113fc90613925565b80156114495780601f1061141e57610100808354040283529160200191611449565b820191906000526020600020905b81548152906001019060200180831161142c57829003601f168201915b5050505050905090565b600960009054906101000a900473ffffffffffffffffffffffffffffffffffffffff1681565b600f6020528060005260406000206000915090508060000160009054906101000a900460ff16908060000160019054906101000a900460ff16905082565b6114c96114c2611cb8565b83836122ca565b5050565b601260049054906101000a900461ffff1681565b6114ec848484610931565b6115006114f7611cb8565b85858585612439565b50505050565b6015602052816000526040600020818154811061152257600080fd5b90600052602060002001600091509150505481565b606061154282611bf3565b50600060066000848152602001908152602001600020805461156390613925565b80601f016020809104026020016040519081016040528092919081815260200182805461158f90613925565b80156115dc5780601f106115b1576101008083540402835291602001916115dc565b820191906000526020600020905b8154815290600101906020018083116115bf57829003601f168201915b5050505050905060006115ed6125ea565b90506000815103611602578192505050611645565b60008251111561163757808260405160200161161f9291906140e6565b60405160208183030381529060405292505050611645565b61164084612601565b925050505b919050565b60006060600f600084815260200190815260200160002060000160019054906101000a900460ff166116b1576040517f08c379a00000000000000000000000000000000000000000000000000000000081526004016116a890614156565b60405180910390fd5b6000600f60008581526020019081526020016000206040518060600160405290816000820160009054906101000a900460ff161515151581526020016000820160019054906101000a900460ff161515151581526020016001820180548060200260200160405190810160405280929190818152602001828054801561175657602002820191906000526020600020905b815481526020019060010190808311611742575b5050505050815250509050806000015181604001519250925050915091565b6000600960009054906101000a900473ffffffffffffffffffffffffffffffffffffffff1673ffffffffffffffffffffffffffffffffffffffff16639b1c385e6040518060c0016040528060115481526020016010548152602001601260049054906101000a900461ffff1661ffff168152602001601260009054906101000a900463ffffffff1663ffffffff168152602001601260069054906101000a900463ffffffff1663ffffffff16815260200161184060405180602001604052806000151581525061266a565b8152506040518263ffffffff1660e01b815260040161185f9190614281565b6020604051808303816000875af115801561187e573d6000803e3d6000fd5b505050506040513d601f19601f820116820180604052508101906118a291906142b8565b90506040518060600160405280600015158152602001600115158152602001600067ffffffffffffffff8111156118dc576118db61343d565b5b60405190808252806020026020018201604052801561190a5781602001602082028036833780820191505090505b50815250600f600083815260200190815260200160002060008201518160000160006101000a81548160ff02191690831515021790555060208201518160000160016101000a81548160ff021916908315150217905550604082015181600101908051906020019061197d929190612e42565b50905050600b81908060018154018082558091505060019003906000526020600020016000909190919091505580600d81905550336014600083815260200190815260200160002060006101000a81548173ffffffffffffffffffffffffffffffffffffffff021916908373ffffffffffffffffffffffffffffffffffffffff1602179055507f28f521cf7abd0044cba5bb040c5217ff69a4e5865f5262905018698e68fe7d008133604051611a349291906142e5565b60405180910390a190565b6000600560008473ffffffffffffffffffffffffffffffffffffffff1673ffffffffffffffffffffffffffffffffffffffff16815260200190815260200160002060008373ffffffffffffffffffffffffffffffffffffffff1673ffffffffffffffffffffffffffffffffffffffff16815260200190815260200160002060009054906101000a900460ff16905092915050565b611adb611fdf565b611ae481612702565b50565b600c8181548110611af757600080fd5b906000526020600020016000915090505481565b600d5481565b60007f80ac58cd000000000000000000000000000000000000000000000000000000007bffffffffffffffffffffffffffffffffffffffffffffffffffffffff1916827bffffffffffffffffffffffffffffffffffffffffffffffffffffffff19161480611bdc57507f5b5e139f000000000000000000000000000000000000000000000000000000007bffffffffffffffffffffffffffffffffffffffffffffffffffffffff1916827bffffffffffffffffffffffffffffffffffffffffffffffffffffffff1916145b80611bec5750611beb82612830565b5b9050919050565b600080611bff8361289a565b9050600073ffffffffffffffffffffffffffffffffffffffff168173ffffffffffffffffffffffffffffffffffffffff1603611c7257826040517f7e273289000000000000000000000000000000000000000000000000000000008152600401611c6991906135c0565b60405180910390fd5b80915050919050565b60006004600083815260200190815260200160002060009054906101000a900473ffffffffffffffffffffffffffffffffffffffff169050919050565b600033905090565b611ccd83838360016128d7565b505050565b8181600c9190611ce3929190612e8f565b50600b8390806001815401808255809150506001900390600052602060002001600090919091909150558181601560008681526020019081526020016000209190611d2f929190612e8f565b506001600f600085815260200190815260200160002060000160006101000a81548160ff0219169083151502179055508181600f60008681526020019081526020016000206001019190611d84929190612e8f565b507f67578974dcd1e9cdb0ebe63163f817c9866d397c48bc125393551f78f33b515f838383604051611db893929190614378565b60405180910390a1505050565b600080611dd18461289a565b9050600073ffffffffffffffffffffffffffffffffffffffff168373ffffffffffffffffffffffffffffffffffffffff1614611e1357611e12818486612a9c565b5b600073ffffffffffffffffffffffffffffffffffffffff168173ffffffffffffffffffffffffffffffffffffffff1614611ea457611e556000856000806128d7565b6001600360008373ffffffffffffffffffffffffffffffffffffffff1673ffffffffffffffffffffffffffffffffffffffff168152602001908152602001600020600082825403925050819055505b600073ffffffffffffffffffffffffffffffffffffffff168573ffffffffffffffffffffffffffffffffffffffff1614611f27576001600360008773ffffffffffffffffffffffffffffffffffffffff1673ffffffffffffffffffffffffffffffffffffffff168152602001908152602001600020600082825401925050819055505b846002600086815260200190815260200160002060006101000a81548173ffffffffffffffffffffffffffffffffffffffff021916908373ffffffffffffffffffffffffffffffffffffffff160217905550838573ffffffffffffffffffffffffffffffffffffffff168273ffffffffffffffffffffffffffffffffffffffff167fddf252ad1be2c89b69c2b068fc378daa952ba7f163c4a11628f55a4df523b3ef60405160405180910390a4809150509392505050565b600760009054906101000a900473ffffffffffffffffffffffffffffffffffffffff1673ffffffffffffffffffffffffffffffffffffffff163373ffffffffffffffffffffffffffffffffffffffff161461206f576040517f08c379a0000000000000000000000000000000000000000000000000000000008152600401612066906143f6565b60405180910390fd5b565b600073ffffffffffffffffffffffffffffffffffffffff168273ffffffffffffffffffffffffffffffffffffffff16036120e35760006040517f64a0ae920000000000000000000000000000000000000000000000000000000081526004016120da919061311e565b60405180910390fd5b60006120f183836000611dc5565b9050600073ffffffffffffffffffffffffffffffffffffffff168173ffffffffffffffffffffffffffffffffffffffff16146121655760006040517f73c6ac6e00000000000000000000000000000000000000000000000000000000815260040161215c919061311e565b60405180910390fd5b505050565b6060600082036121b1576040518060400160405280600181526020017f300000000000000000000000000000000000000000000000000000000000000081525090506122c5565b600082905060005b600082146121e35780806121cc90613e98565b915050600a826121dc9190614416565b91506121b9565b60008167ffffffffffffffff8111156121ff576121fe61343d565b5b6040519080825280601f01601f1916602001820160405280156122315781602001600182028036833780820191505090505b5090505b600085146122be5760018261224a9190614447565b9150600a856122599190613e38565b6030612265919061447b565b60f81b81838151811061227b5761227a613dda565b5b60200101907effffffffffffffffffffffffffffffffffffffffffffffffffffffffffffff1916908160001a905350600a856122b79190614416565b9450612235565b8093505050505b919050565b600073ffffffffffffffffffffffffffffffffffffffff168273ffffffffffffffffffffffffffffffffffffffff160361233b57816040517f5b08ba18000000000000000000000000000000000000000000000000000000008152600401612332919061311e565b60405180910390fd5b80600560008573ffffffffffffffffffffffffffffffffffffffff1673ffffffffffffffffffffffffffffffffffffffff16815260200190815260200160002060008473ffffffffffffffffffffffffffffffffffffffff1673ffffffffffffffffffffffffffffffffffffffff16815260200190815260200160002060006101000a81548160ff0219169083151502179055508173ffffffffffffffffffffffffffffffffffffffff168373ffffffffffffffffffffffffffffffffffffffff167f17307eab39ab6107e8899845ad3d59bd9653f200f220920489ca2b5937696c318360405161242c9190612fad565b60405180910390a3505050565b60008373ffffffffffffffffffffffffffffffffffffffff163b11156125e3578273ffffffffffffffffffffffffffffffffffffffff1663150b7a02868685856040518563ffffffff1660e01b815260040161249894939291906144f9565b6020604051808303816000875af19250505080156124d457506040513d601f19601f820116820180604052508101906124d1919061455a565b60015b612558573d8060008114612504576040519150601f19603f3d011682016040523d82523d6000602084013e612509565b606091505b50600081510361255057836040517f64a0ae92000000000000000000000000000000000000000000000000000000008152600401612547919061311e565b60405180910390fd5b805181602001fd5b63150b7a0260e01b7bffffffffffffffffffffffffffffffffffffffffffffffffffffffff1916817bffffffffffffffffffffffffffffffffffffffffffffffffffffffff1916146125e157836040517f64a0ae920000000000000000000000000000000000000000000000000000000081526004016125d8919061311e565b60405180910390fd5b505b5050505050565b606060405180602001604052806000815250905090565b606061260c82611bf3565b5060006126176125ea565b905060008151116126375760405180602001604052806000815250612662565b8061264184612b60565b6040516020016126529291906140e6565b6040516020818303038152906040525b915050919050565b60607f92fd13387c7fe7befbc38d303d6468778fb9731bc4583f17d92989c6fcfdeaaa8260405160240161269e91906145b2565b604051602081830303815290604052907bffffffffffffffffffffffffffffffffffffffffffffffffffffffff19166020820180517bffffffffffffffffffffffffffffffffffffffffffffffffffffffff83818316178352505050509050919050565b3373ffffffffffffffffffffffffffffffffffffffff168173ffffffffffffffffffffffffffffffffffffffff1603612770576040517f08c379a000000000000000000000000000000000000000000000000000000000815260040161276790614619565b60405180910390fd5b80600860006101000a81548173ffffffffffffffffffffffffffffffffffffffff021916908373ffffffffffffffffffffffffffffffffffffffff1602179055508073ffffffffffffffffffffffffffffffffffffffff16600760009054906101000a900473ffffffffffffffffffffffffffffffffffffffff1673ffffffffffffffffffffffffffffffffffffffff167fed8889f560326eb138920d842192f0eb3dd22b4f139c87a2c57538e05bae127860405160405180910390a350565b60007f01ffc9a7000000000000000000000000000000000000000000000000000000007bffffffffffffffffffffffffffffffffffffffffffffffffffffffff1916827bffffffffffffffffffffffffffffffffffffffffffffffffffffffff1916149050919050565b60006002600083815260200190815260200160002060009054906101000a900473ffffffffffffffffffffffffffffffffffffffff169050919050565b80806129105750600073ffffffffffffffffffffffffffffffffffffffff168273ffffffffffffffffffffffffffffffffffffffff1614155b15612a4457600061292084611bf3565b9050600073ffffffffffffffffffffffffffffffffffffffff168373ffffffffffffffffffffffffffffffffffffffff161415801561298b57508273ffffffffffffffffffffffffffffffffffffffff168173ffffffffffffffffffffffffffffffffffffffff1614155b801561299e575061299c8184611a3f565b155b156129e057826040517fa9fbf51f0000000000000000000000000000000000000000000000000000000081526004016129d7919061311e565b60405180910390fd5b8115612a4257838573ffffffffffffffffffffffffffffffffffffffff168273ffffffffffffffffffffffffffffffffffffffff167f8c5be1e5ebec7d5bd14f71427d1e84f3dd0314c0f7b2291e5b200ac8c7c3b92560405160405180910390a45b505b836004600085815260200190815260200160002060006101000a81548173ffffffffffffffffffffffffffffffffffffffff021916908373ffffffffffffffffffffffffffffffffffffffff16021790555050505050565b612aa7838383612c2e565b612b5b57600073ffffffffffffffffffffffffffffffffffffffff168373ffffffffffffffffffffffffffffffffffffffff1603612b1c57806040517f7e273289000000000000000000000000000000000000000000000000000000008152600401612b1391906135c0565b60405180910390fd5b81816040517f177e802f000000000000000000000000000000000000000000000000000000008152600401612b52929190614639565b60405180910390fd5b505050565b606060006001612b6f84612cef565b01905060008167ffffffffffffffff811115612b8e57612b8d61343d565b5b6040519080825280601f01601f191660200182016040528015612bc05781602001600182028036833780820191505090505b509050600082602001820190505b600115612c23578080600190039150507f3031323334353637383961626364656600000000000000000000000000000000600a86061a8153600a8581612c1757612c16613e09565b5b04945060008503612bce575b819350505050919050565b60008073ffffffffffffffffffffffffffffffffffffffff168373ffffffffffffffffffffffffffffffffffffffff1614158015612ce657508273ffffffffffffffffffffffffffffffffffffffff168473ffffffffffffffffffffffffffffffffffffffff161480612ca75750612ca68484611a3f565b5b80612ce557508273ffffffffffffffffffffffffffffffffffffffff16612ccd83611c7b565b73ffffffffffffffffffffffffffffffffffffffff16145b5b90509392505050565b600080600090507a184f03e93ff9f4daa797ed6e38ed64bf6a1f0100000000000000008310612d4d577a184f03e93ff9f4daa797ed6e38ed64bf6a1f0100000000000000008381612d4357612d42613e09565b5b0492506040810190505b6d04ee2d6d415b85acef81000000008310612d8a576d04ee2d6d415b85acef81000000008381612d8057612d7f613e09565b5b0492506020810190505b662386f26fc100008310612db957662386f26fc100008381612daf57612dae613e09565b5b0492506010810190505b6305f5e1008310612de2576305f5e1008381612dd857612dd7613e09565b5b0492506008810190505b6127108310612e07576127108381612dfd57612dfc613e09565b5b0492506004810190505b60648310612e2a5760648381612e2057612e1f613e09565b5b0492506002810190505b600a8310612e39576001810190505b80915050919050565b828054828255906000526020600020908101928215612e7e579160200282015b82811115612e7d578251825591602001919060010190612e62565b5b509050612e8b9190612edc565b5090565b828054828255906000526020600020908101928215612ecb579160200282015b82811115612eca578235825591602001919060010190612eaf565b5b509050612ed89190612edc565b5090565b5b80821115612ef5576000816000905550600101612edd565b5090565b6000604051905090565b600080fd5b600080fd5b60007fffffffff0000000000000000000000000000000000000000000000000000000082169050919050565b612f4281612f0d565b8114612f4d57600080fd5b50565b600081359050612f5f81612f39565b92915050565b600060208284031215612f7b57612f7a612f03565b5b6000612f8984828501612f50565b91505092915050565b60008115159050919050565b612fa781612f92565b82525050565b6000602082019050612fc26000830184612f9e565b92915050565b600081519050919050565b600082825260208201905092915050565b60005b83811015613002578082015181840152602081019050612fe7565b60008484015250505050565b6000601f19601f8301169050919050565b600061302a82612fc8565b6130348185612fd3565b9350613044818560208601612fe4565b61304d8161300e565b840191505092915050565b60006020820190508181036000830152613072818461301f565b905092915050565b6000819050919050565b61308d8161307a565b811461309857600080fd5b50565b6000813590506130aa81613084565b92915050565b6000602082840312156130c6576130c5612f03565b5b60006130d48482850161309b565b91505092915050565b600073ffffffffffffffffffffffffffffffffffffffff82169050919050565b6000613108826130dd565b9050919050565b613118816130fd565b82525050565b6000602082019050613133600083018461310f565b92915050565b613142816130fd565b811461314d57600080fd5b50565b60008135905061315f81613139565b92915050565b6000806040838503121561317c5761317b612f03565b5b600061318a85828601613150565b925050602061319b8582860161309b565b9150509250929050565b600080fd5b600080fd5b600080fd5b60008083601f8401126131ca576131c96131a5565b5b8235905067ffffffffffffffff8111156131e7576131e66131aa565b5b602083019150836020820283011115613203576132026131af565b5b9250929050565b60008060006040848603121561322357613222612f03565b5b60006132318682870161309b565b935050602084013567ffffffffffffffff81111561325257613251612f08565b5b61325e868287016131b4565b92509250509250925092565b60008060006060848603121561328357613282612f03565b5b600061329186828701613150565b93505060206132a286828701613150565b92505060406132b38682870161309b565b9150509250925092565b600063ffffffff82169050919050565b6132d6816132bd565b82525050565b60006020820190506132f160008301846132cd565b92915050565b60006020828403121561330d5761330c612f03565b5b600061331b84828501613150565b91505092915050565b600081519050919050565b600082825260208201905092915050565b6000819050602082019050919050565b6133598161307a565b82525050565b600061336b8383613350565b60208301905092915050565b6000602082019050919050565b600061338f82613324565b613399818561332f565b93506133a483613340565b8060005b838110156133d55781516133bc888261335f565b97506133c783613377565b9250506001810190506133a8565b5085935050505092915050565b600060208201905081810360008301526133fc8184613384565b905092915050565b6000819050919050565b61341781613404565b82525050565b6000602082019050613432600083018461340e565b92915050565b600080fd5b7f4e487b7100000000000000000000000000000000000000000000000000000000600052604160045260246000fd5b6134758261300e565b810181811067ffffffffffffffff821117156134945761349361343d565b5b80604052505050565b60006134a7612ef9565b90506134b3828261346c565b919050565b600067ffffffffffffffff8211156134d3576134d261343d565b5b6134dc8261300e565b9050602081019050919050565b82818337600083830152505050565b600061350b613506846134b8565b61349d565b90508281526020810184848401111561352757613526613438565b5b6135328482856134e9565b509392505050565b600082601f83011261354f5761354e6131a5565b5b813561355f8482602086016134f8565b91505092915050565b60006020828403121561357e5761357d612f03565b5b600082013567ffffffffffffffff81111561359c5761359b612f08565b5b6135a88482850161353a565b91505092915050565b6135ba8161307a565b82525050565b60006020820190506135d560008301846135b1565b92915050565b6000819050919050565b60006136006135fb6135f6846130dd565b6135db565b6130dd565b9050919050565b6000613612826135e5565b9050919050565b600061362482613607565b9050919050565b61363481613619565b82525050565b600060208201905061364f600083018461362b565b92915050565b600060408201905061366a6000830185612f9e565b6136776020830184612f9e565b9392505050565b61368781612f92565b811461369257600080fd5b50565b6000813590506136a48161367e565b92915050565b600080604083850312156136c1576136c0612f03565b5b60006136cf85828601613150565b92505060206136e085828601613695565b9150509250929050565b600061ffff82169050919050565b613701816136ea565b82525050565b600060208201905061371c60008301846136f8565b92915050565b600067ffffffffffffffff82111561373d5761373c61343d565b5b6137468261300e565b9050602081019050919050565b600061376661376184613722565b61349d565b90508281526020810184848401111561378257613781613438565b5b61378d8482856134e9565b509392505050565b600082601f8301126137aa576137a96131a5565b5b81356137ba848260208601613753565b91505092915050565b600080600080608085870312156137dd576137dc612f03565b5b60006137eb87828801613150565b94505060206137fc87828801613150565b935050604061380d8782880161309b565b925050606085013567ffffffffffffffff81111561382e5761382d612f08565b5b61383a87828801613795565b91505092959194509250565b6000806040838503121561385d5761385c612f03565b5b600061386b8582860161309b565b925050602061387c8582860161309b565b9150509250929050565b600060408201905061389b6000830185612f9e565b81810360208301526138ad8184613384565b90509392505050565b600080604083850312156138cd576138cc612f03565b5b60006138db85828601613150565b92505060206138ec85828601613150565b9150509250929050565b7f4e487b7100000000000000000000000000000000000000000000000000000000600052602260045260246000fd5b6000600282049050600182168061393d57607f821691505b6020821081036139505761394f6138f6565b5b50919050565b600060408201905061396b600083018561310f565b613978602083018461310f565b9392505050565b6000606082019050613994600083018661310f565b6139a160208301856135b1565b6139ae604083018461310f565b949350505050565b60008190508160005260206000209050919050565b60006020601f8301049050919050565b600082821b905092915050565b600060088302613a187fffffffffffffffffffffffffffffffffffffffffffffffffffffffffffffffff826139db565b613a2286836139db565b95508019841693508086168417925050509392505050565b6000613a55613a50613a4b8461307a565b6135db565b61307a565b9050919050565b6000819050919050565b613a6f83613a3a565b613a83613a7b82613a5c565b8484546139e8565b825550505050565b600090565b613a98613a8b565b613aa3818484613a66565b505050565b5b81811015613ac757613abc600082613a90565b600181019050613aa9565b5050565b601f821115613b0c57613add816139b6565b613ae6846139cb565b81016020851015613af5578190505b613b09613b01856139cb565b830182613aa8565b50505b505050565b600082821c905092915050565b6000613b2f60001984600802613b11565b1980831691505092915050565b6000613b488383613b1e565b9150826002028217905092915050565b613b6182612fc8565b67ffffffffffffffff811115613b7a57613b7961343d565b5b613b848254613925565b613b8f828285613acb565b600060209050601f831160018114613bc25760008415613bb0578287015190505b613bba8582613b3c565b865550613c22565b601f198416613bd0866139b6565b60005b82811015613bf857848901518255600182019150602085019450602081019050613bd3565b86831015613c155784890151613c11601f891682613b1e565b8355505b6001600288020188555050505b505050505050565b7f4d7573742062652070726f706f736564206f776e657200000000000000000000600082015250565b6000613c60601683612fd3565b9150613c6b82613c2a565b602082019050919050565b60006020820190508181036000830152613c8f81613c53565b9050919050565b7f52657175657374206e6f7420667566696c6c6564000000000000000000000000600082015250565b6000613ccc601483612fd3565b9150613cd782613c96565b602082019050919050565b60006020820190508181036000830152613cfb81613cbf565b9050919050565b7f45787065637465642031302072616e646f6d206e756d62657273000000000000600082015250565b6000613d38601a83612fd3565b9150613d4382613d02565b602082019050919050565b60006020820190508181036000830152613d6781613d2b565b9050919050565b7f526563697069656e74206164647265737320697320696e76616c696400000000600082015250565b6000613da4601c83612fd3565b9150613daf82613d6e565b602082019050919050565b60006020820190508181036000830152613dd381613d97565b9050919050565b7f4e487b7100000000000000000000000000000000000000000000000000000000600052603260045260246000fd5b7f4e487b7100000000000000000000000000000000000000000000000000000000600052601260045260246000fd5b6000613e438261307a565b9150613e4e8361307a565b925082613e5e57613e5d613e09565b5b828206905092915050565b7f4e487b7100000000000000000000000000000000000000000000000000000000600052601160045260246000fd5b6000613ea38261307a565b91507fffffffffffffffffffffffffffffffffffffffffffffffffffffffffffffffff8203613ed557613ed4613e69565b5b600182019050919050565b600081905092915050565b60008154613ef881613925565b613f028186613ee0565b94506001821660008114613f1d5760018114613f3257613f65565b60ff1983168652811515820286019350613f65565b613f3b856139b6565b60005b83811015613f5d57815481890152600182019150602081019050613f3e565b838801955050505b50505092915050565b7f4361726420000000000000000000000000000000000000000000000000000000600082015250565b6000613fa4600583613ee0565b9150613faf82613f6e565b600582019050919050565b6000613fc582612fc8565b613fcf8185613ee0565b9350613fdf818560208601612fe4565b80840191505092915050565b7f2e706e6700000000000000000000000000000000000000000000000000000000600082015250565b6000614021600483613ee0565b915061402c82613feb565b600482019050919050565b60006140438285613eeb565b915061404e82613f97565b915061405a8284613fba565b915061406582614014565b91508190509392505050565b600060608201905061408660008301866135b1565b614093602083018561310f565b81810360408301526140a5818461301f565b9050949350505050565b60006060820190506140c4600083018661310f565b6140d1602083018561310f565b6140de604083018461310f565b949350505050565b60006140f28285613fba565b91506140fe8284613fba565b91508190509392505050565b7f72657175657374206e6f7420666f756e64000000000000000000000000000000600082015250565b6000614140601183612fd3565b915061414b8261410a565b602082019050919050565b6000602082019050818103600083015261416f81614133565b9050919050565b61417f81613404565b82525050565b61418e816136ea565b82525050565b61419d816132bd565b82525050565b600081519050919050565b600082825260208201905092915050565b60006141ca826141a3565b6141d481856141ae565b93506141e4818560208601612fe4565b6141ed8161300e565b840191505092915050565b600060c0830160008301516142106000860182614176565b5060208301516142236020860182613350565b5060408301516142366040860182614185565b5060608301516142496060860182614194565b50608083015161425c6080860182614194565b5060a083015184820360a086015261427482826141bf565b9150508091505092915050565b6000602082019050818103600083015261429b81846141f8565b905092915050565b6000815190506142b281613084565b92915050565b6000602082840312156142ce576142cd612f03565b5b60006142dc848285016142a3565b91505092915050565b60006040820190506142fa60008301856135b1565b614307602083018461310f565b9392505050565b600080fd5b82818337505050565b6000614328838561332f565b93507f07ffffffffffffffffffffffffffffffffffffffffffffffffffffffffffffff83111561435b5761435a61430e565b5b60208302925061436c838584614313565b82840190509392505050565b600060408201905061438d60008301866135b1565b81810360208301526143a081848661431c565b9050949350505050565b7f4f6e6c792063616c6c61626c65206279206f776e657200000000000000000000600082015250565b60006143e0601683612fd3565b91506143eb826143aa565b602082019050919050565b6000602082019050818103600083015261440f816143d3565b9050919050565b60006144218261307a565b915061442c8361307a565b92508261443c5761443b613e09565b5b828204905092915050565b60006144528261307a565b915061445d8361307a565b925082820390508181111561447557614474613e69565b5b92915050565b60006144868261307a565b91506144918361307a565b92508282019050808211156144a9576144a8613e69565b5b92915050565b600082825260208201905092915050565b60006144cb826141a3565b6144d581856144af565b93506144e5818560208601612fe4565b6144ee8161300e565b840191505092915050565b600060808201905061450e600083018761310f565b61451b602083018661310f565b61452860408301856135b1565b818103606083015261453a81846144c0565b905095945050505050565b60008151905061455481612f39565b92915050565b6000602082840312156145705761456f612f03565b5b600061457e84828501614545565b91505092915050565b61459081612f92565b82525050565b6020820160008201516145ac6000850182614587565b50505050565b60006020820190506145c76000830184614596565b92915050565b7f43616e6e6f74207472616e7366657220746f2073656c66000000000000000000600082015250565b6000614603601783612fd3565b915061460e826145cd565b602082019050919050565b60006020820190508181036000830152614632816145f6565b9050919050565b600060408201905061464e600083018561310f565b61465b60208301846135b1565b939250505056fea26469706673582212209d77c5f8c7640b20f7b29772feb140d4e6bb79d56c7c272800661502369e765864736f6c6343000814003368747470733a2f2f6c6f63616c686f73743a333030302f496d616765732f496d61676573",
    "linkReferences": {},
    "deployedLinkReferences": {}
}