{
  "_format": "hh-sol-artifact-1",
  "contractName": "CardCollectingNFT",
  "sourceName": "contracts/CardCollectingNFT.sol",
  "abi": [
    {
      "inputs": [],
      "stateMutability": "nonpayable",
      "type": "constructor"
    },
    {
      "inputs": [
        {
          "internalType": "address",
          "name": "sender",
          "type": "address"
        },
        {
          "internalType": "uint256",
          "name": "tokenId",
          "type": "uint256"
        },
        {
          "internalType": "address",
          "name": "owner",
          "type": "address"
        }
      ],
      "name": "ERC721IncorrectOwner",
      "type": "error"
    },
    {
      "inputs": [
        {
          "internalType": "address",
          "name": "operator",
          "type": "address"
        },
        {
          "internalType": "uint256",
          "name": "tokenId",
          "type": "uint256"
        }
      ],
      "name": "ERC721InsufficientApproval",
      "type": "error"
    },
    {
      "inputs": [
        {
          "internalType": "address",
          "name": "approver",
          "type": "address"
        }
      ],
      "name": "ERC721InvalidApprover",
      "type": "error"
    },
    {
      "inputs": [
        {
          "internalType": "address",
          "name": "operator",
          "type": "address"
        }
      ],
      "name": "ERC721InvalidOperator",
      "type": "error"
    },
    {
      "inputs": [
        {
          "internalType": "address",
          "name": "owner",
          "type": "address"
        }
      ],
      "name": "ERC721InvalidOwner",
      "type": "error"
    },
    {
      "inputs": [
        {
          "internalType": "address",
          "name": "receiver",
          "type": "address"
        }
      ],
      "name": "ERC721InvalidReceiver",
      "type": "error"
    },
    {
      "inputs": [
        {
          "internalType": "address",
          "name": "sender",
          "type": "address"
        }
      ],
      "name": "ERC721InvalidSender",
      "type": "error"
    },
    {
      "inputs": [
        {
          "internalType": "uint256",
          "name": "tokenId",
          "type": "uint256"
        }
      ],
      "name": "ERC721NonexistentToken",
      "type": "error"
    },
    {
      "inputs": [
        {
          "internalType": "address",
          "name": "have",
          "type": "address"
        },
        {
          "internalType": "address",
          "name": "want",
          "type": "address"
        }
      ],
      "name": "OnlyCoordinatorCanFulfill",
      "type": "error"
    },
    {
      "inputs": [
        {
          "internalType": "address",
          "name": "have",
          "type": "address"
        },
        {
          "internalType": "address",
          "name": "owner",
          "type": "address"
        },
        {
          "internalType": "address",
          "name": "coordinator",
          "type": "address"
        }
      ],
      "name": "OnlyOwnerOrCoordinator",
      "type": "error"
    },
    {
      "inputs": [],
      "name": "ZeroAddress",
      "type": "error"
    },
    {
      "anonymous": false,
      "inputs": [
        {
          "indexed": true,
          "internalType": "address",
          "name": "owner",
          "type": "address"
        },
        {
          "indexed": true,
          "internalType": "address",
          "name": "approved",
          "type": "address"
        },
        {
          "indexed": true,
          "internalType": "uint256",
          "name": "tokenId",
          "type": "uint256"
        }
      ],
      "name": "Approval",
      "type": "event"
    },
    {
      "anonymous": false,
      "inputs": [
        {
          "indexed": true,
          "internalType": "address",
          "name": "owner",
          "type": "address"
        },
        {
          "indexed": true,
          "internalType": "address",
          "name": "operator",
          "type": "address"
        },
        {
          "indexed": false,
          "internalType": "bool",
          "name": "approved",
          "type": "bool"
        }
      ],
      "name": "ApprovalForAll",
      "type": "event"
    },
    {
      "anonymous": false,
      "inputs": [
        {
          "indexed": false,
          "internalType": "uint256",
          "name": "_fromTokenId",
          "type": "uint256"
        },
        {
          "indexed": false,
          "internalType": "uint256",
          "name": "_toTokenId",
          "type": "uint256"
        }
      ],
      "name": "BatchMetadataUpdate",
      "type": "event"
    },
    {
      "anonymous": false,
      "inputs": [
        {
          "indexed": false,
          "internalType": "uint256",
          "name": "tokenId",
          "type": "uint256"
        },
        {
          "indexed": false,
          "internalType": "address",
          "name": "owner",
          "type": "address"
        },
        {
          "indexed": false,
          "internalType": "string",
          "name": "metadataURI",
          "type": "string"
        }
      ],
      "name": "CardMinted",
      "type": "event"
    },
    {
      "anonymous": false,
      "inputs": [
        {
          "indexed": false,
          "internalType": "address",
          "name": "vrfCoordinator",
          "type": "address"
        }
      ],
      "name": "CoordinatorSet",
      "type": "event"
    },
    {
      "anonymous": false,
      "inputs": [
        {
          "indexed": false,
          "internalType": "uint256",
          "name": "_tokenId",
          "type": "uint256"
        }
      ],
      "name": "MetadataUpdate",
      "type": "event"
    },
    {
      "anonymous": false,
      "inputs": [
        {
          "indexed": true,
          "internalType": "address",
          "name": "from",
          "type": "address"
        },
        {
          "indexed": true,
          "internalType": "address",
          "name": "to",
          "type": "address"
        }
      ],
      "name": "OwnershipTransferRequested",
      "type": "event"
    },
    {
      "anonymous": false,
      "inputs": [
        {
          "indexed": true,
          "internalType": "address",
          "name": "from",
          "type": "address"
        },
        {
          "indexed": true,
          "internalType": "address",
          "name": "to",
          "type": "address"
        }
      ],
      "name": "OwnershipTransferred",
      "type": "event"
    },
    {
      "anonymous": false,
      "inputs": [
        {
          "indexed": false,
          "internalType": "uint256",
          "name": "requestId",
          "type": "uint256"
        },
        {
          "indexed": false,
          "internalType": "uint256[]",
          "name": "randomWords",
          "type": "uint256[]"
        }
      ],
      "name": "RandomnessFulfilled",
      "type": "event"
    },
    {
      "anonymous": false,
      "inputs": [
        {
          "indexed": false,
          "internalType": "uint256",
          "name": "requestId",
          "type": "uint256"
        },
        {
          "indexed": false,
          "internalType": "address",
          "name": "requester",
          "type": "address"
        }
      ],
      "name": "RandomnessRequested",
      "type": "event"
    },
    {
      "anonymous": false,
      "inputs": [
        {
          "indexed": true,
          "internalType": "address",
          "name": "from",
          "type": "address"
        },
        {
          "indexed": true,
          "internalType": "address",
          "name": "to",
          "type": "address"
        },
        {
          "indexed": true,
          "internalType": "uint256",
          "name": "tokenId",
          "type": "uint256"
        }
      ],
      "name": "Transfer",
      "type": "event"
    },
    {
      "inputs": [],
      "name": "acceptOwnership",
      "outputs": [],
      "stateMutability": "nonpayable",
      "type": "function"
    },
    {
      "inputs": [
        {
          "internalType": "address",
          "name": "to",
          "type": "address"
        },
        {
          "internalType": "uint256",
          "name": "tokenId",
          "type": "uint256"
        }
      ],
      "name": "approve",
      "outputs": [],
      "stateMutability": "nonpayable",
      "type": "function"
    },
    {
      "inputs": [
        {
          "internalType": "address",
          "name": "owner",
          "type": "address"
        }
      ],
      "name": "balanceOf",
      "outputs": [
        {
          "internalType": "uint256",
          "name": "",
          "type": "uint256"
        }
      ],
      "stateMutability": "view",
      "type": "function"
    },
    {
      "inputs": [],
      "name": "baseURI",
      "outputs": [
        {
          "internalType": "string",
          "name": "",
          "type": "string"
        }
      ],
      "stateMutability": "view",
      "type": "function"
    },
    {
      "inputs": [
        {
          "internalType": "uint256",
          "name": "_requestId",
          "type": "uint256"
        }
      ],
      "name": "batchMint",
      "outputs": [],
      "stateMutability": "nonpayable",
      "type": "function"
    },
    {
      "inputs": [],
      "name": "callbackGasLimit",
      "outputs": [
        {
          "internalType": "uint32",
          "name": "",
          "type": "uint32"
        }
      ],
      "stateMutability": "view",
      "type": "function"
    },
    {
      "inputs": [
        {
          "internalType": "uint256",
          "name": "tokenId",
          "type": "uint256"
        }
      ],
      "name": "getApproved",
      "outputs": [
        {
          "internalType": "address",
          "name": "",
          "type": "address"
        }
      ],
      "stateMutability": "view",
      "type": "function"
    },
    {
      "inputs": [
        {
          "internalType": "address",
          "name": "user",
          "type": "address"
        }
      ],
      "name": "getMintedTokens",
      "outputs": [
        {
          "internalType": "uint256[]",
          "name": "",
          "type": "uint256[]"
        }
      ],
      "stateMutability": "view",
      "type": "function"
    },
    {
      "inputs": [
        {
          "internalType": "uint256",
          "name": "requestId",
          "type": "uint256"
        }
      ],
      "name": "getMintedTokensByRequest",
      "outputs": [
        {
          "internalType": "uint256[]",
          "name": "",
          "type": "uint256[]"
        }
      ],
      "stateMutability": "view",
      "type": "function"
    },
    {
      "inputs": [
        {
          "internalType": "uint256",
          "name": "_requestId",
          "type": "uint256"
        }
      ],
      "name": "getRequestStatus",
      "outputs": [
        {
          "internalType": "bool",
          "name": "fulfilled",
          "type": "bool"
        },
        {
          "internalType": "uint256[]",
          "name": "randomWords",
          "type": "uint256[]"
        }
      ],
      "stateMutability": "view",
      "type": "function"
    },
    {
      "inputs": [
        {
          "internalType": "address",
          "name": "owner",
          "type": "address"
        },
        {
          "internalType": "address",
          "name": "operator",
          "type": "address"
        }
      ],
      "name": "isApprovedForAll",
      "outputs": [
        {
          "internalType": "bool",
          "name": "",
          "type": "bool"
        }
      ],
      "stateMutability": "view",
      "type": "function"
    },
    {
      "inputs": [],
      "name": "lastRequestId",
      "outputs": [
        {
          "internalType": "uint256",
          "name": "",
          "type": "uint256"
        }
      ],
      "stateMutability": "view",
      "type": "function"
    },
    {
      "inputs": [],
      "name": "name",
      "outputs": [
        {
          "internalType": "string",
          "name": "",
          "type": "string"
        }
      ],
      "stateMutability": "view",
      "type": "function"
    },
    {
      "inputs": [],
      "name": "nextTokenId",
      "outputs": [
        {
          "internalType": "uint256",
          "name": "",
          "type": "uint256"
        }
      ],
      "stateMutability": "view",
      "type": "function"
    },
    {
      "inputs": [],
      "name": "numWords",
      "outputs": [
        {
          "internalType": "uint32",
          "name": "",
          "type": "uint32"
        }
      ],
      "stateMutability": "view",
      "type": "function"
    },
    {
      "inputs": [],
      "name": "owner",
      "outputs": [
        {
          "internalType": "address",
          "name": "",
          "type": "address"
        }
      ],
      "stateMutability": "view",
      "type": "function"
    },
    {
      "inputs": [
        {
          "internalType": "uint256",
          "name": "tokenId",
          "type": "uint256"
        }
      ],
      "name": "ownerOf",
      "outputs": [
        {
          "internalType": "address",
          "name": "",
          "type": "address"
        }
      ],
      "stateMutability": "view",
      "type": "function"
    },
    {
      "inputs": [
        {
          "internalType": "uint256",
          "name": "requestId",
          "type": "uint256"
        },
        {
          "internalType": "uint256[]",
          "name": "randomWords",
          "type": "uint256[]"
        }
      ],
      "name": "rawFulfillRandomWords",
      "outputs": [],
      "stateMutability": "nonpayable",
      "type": "function"
    },
    {
      "inputs": [],
      "name": "requestConfirmations",
      "outputs": [
        {
          "internalType": "uint16",
          "name": "",
          "type": "uint16"
        }
      ],
      "stateMutability": "view",
      "type": "function"
    },
    {
      "inputs": [
        {
          "internalType": "uint256",
          "name": "",
          "type": "uint256"
        }
      ],
      "name": "requestIds",
      "outputs": [
        {
          "internalType": "uint256",
          "name": "",
          "type": "uint256"
        }
      ],
      "stateMutability": "view",
      "type": "function"
    },
    {
      "inputs": [],
      "name": "requestRandomWords",
      "outputs": [
        {
          "internalType": "uint256",
          "name": "requestId",
          "type": "uint256"
        }
      ],
      "stateMutability": "nonpayable",
      "type": "function"
    },
    {
      "inputs": [],
      "name": "s_keyHash",
      "outputs": [
        {
          "internalType": "bytes32",
          "name": "",
          "type": "bytes32"
        }
      ],
      "stateMutability": "view",
      "type": "function"
    },
    {
      "inputs": [
        {
          "internalType": "uint256",
          "name": "",
          "type": "uint256"
        }
      ],
      "name": "s_randomWords",
      "outputs": [
        {
          "internalType": "uint256",
          "name": "",
          "type": "uint256"
        }
      ],
      "stateMutability": "view",
      "type": "function"
    },
    {
      "inputs": [
        {
          "internalType": "uint256",
          "name": "",
          "type": "uint256"
        },
        {
          "internalType": "uint256",
          "name": "",
          "type": "uint256"
        }
      ],
      "name": "s_requestToMintedTokens",
      "outputs": [
        {
          "internalType": "uint256",
          "name": "",
          "type": "uint256"
        }
      ],
      "stateMutability": "view",
      "type": "function"
    },
    {
      "inputs": [
        {
          "internalType": "uint256",
          "name": "",
          "type": "uint256"
        },
        {
          "internalType": "uint256",
          "name": "",
          "type": "uint256"
        }
      ],
      "name": "s_requestToRandomNumbers",
      "outputs": [
        {
          "internalType": "uint256",
          "name": "",
          "type": "uint256"
        }
      ],
      "stateMutability": "view",
      "type": "function"
    },
    {
      "inputs": [
        {
          "internalType": "uint256",
          "name": "",
          "type": "uint256"
        }
      ],
      "name": "s_requestToSender",
      "outputs": [
        {
          "internalType": "address",
          "name": "",
          "type": "address"
        }
      ],
      "stateMutability": "view",
      "type": "function"
    },
    {
      "inputs": [
        {
          "internalType": "uint256",
          "name": "",
          "type": "uint256"
        }
      ],
      "name": "s_requests",
      "outputs": [
        {
          "internalType": "bool",
          "name": "fulfilled",
          "type": "bool"
        },
        {
          "internalType": "bool",
          "name": "exists",
          "type": "bool"
        }
      ],
      "stateMutability": "view",
      "type": "function"
    },
    {
      "inputs": [],
      "name": "s_subscriptionId",
      "outputs": [
        {
          "internalType": "uint256",
          "name": "",
          "type": "uint256"
        }
      ],
      "stateMutability": "view",
      "type": "function"
    },
    {
      "inputs": [],
      "name": "s_vrfCoordinator",
      "outputs": [
        {
          "internalType": "contract IVRFCoordinatorV2Plus",
          "name": "",
          "type": "address"
        }
      ],
      "stateMutability": "view",
      "type": "function"
    },
    {
      "inputs": [
        {
          "internalType": "address",
          "name": "from",
          "type": "address"
        },
        {
          "internalType": "address",
          "name": "to",
          "type": "address"
        },
        {
          "internalType": "uint256",
          "name": "tokenId",
          "type": "uint256"
        }
      ],
      "name": "safeTransferFrom",
      "outputs": [],
      "stateMutability": "nonpayable",
      "type": "function"
    },
    {
      "inputs": [
        {
          "internalType": "address",
          "name": "from",
          "type": "address"
        },
        {
          "internalType": "address",
          "name": "to",
          "type": "address"
        },
        {
          "internalType": "uint256",
          "name": "tokenId",
          "type": "uint256"
        },
        {
          "internalType": "bytes",
          "name": "data",
          "type": "bytes"
        }
      ],
      "name": "safeTransferFrom",
      "outputs": [],
      "stateMutability": "nonpayable",
      "type": "function"
    },
    {
      "inputs": [
        {
          "internalType": "address",
          "name": "operator",
          "type": "address"
        },
        {
          "internalType": "bool",
          "name": "approved",
          "type": "bool"
        }
      ],
      "name": "setApprovalForAll",
      "outputs": [],
      "stateMutability": "nonpayable",
      "type": "function"
    },
    {
      "inputs": [
        {
          "internalType": "string",
          "name": "_baseURI",
          "type": "string"
        }
      ],
      "name": "setBaseURI",
      "outputs": [],
      "stateMutability": "nonpayable",
      "type": "function"
    },
    {
      "inputs": [
        {
          "internalType": "address",
          "name": "_vrfCoordinator",
          "type": "address"
        }
      ],
      "name": "setCoordinator",
      "outputs": [],
      "stateMutability": "nonpayable",
      "type": "function"
    },
    {
      "inputs": [
        {
          "internalType": "bytes4",
          "name": "interfaceId",
          "type": "bytes4"
        }
      ],
      "name": "supportsInterface",
      "outputs": [
        {
          "internalType": "bool",
          "name": "",
          "type": "bool"
        }
      ],
      "stateMutability": "view",
      "type": "function"
    },
    {
      "inputs": [],
      "name": "symbol",
      "outputs": [
        {
          "internalType": "string",
          "name": "",
          "type": "string"
        }
      ],
      "stateMutability": "view",
      "type": "function"
    },
    {
      "inputs": [
        {
          "internalType": "uint256",
          "name": "tokenId",
          "type": "uint256"
        }
      ],
      "name": "tokenURI",
      "outputs": [
        {
          "internalType": "string",
          "name": "",
          "type": "string"
        }
      ],
      "stateMutability": "view",
      "type": "function"
    },
    {
      "inputs": [
        {
          "internalType": "address",
          "name": "from",
          "type": "address"
        },
        {
          "internalType": "address",
          "name": "to",
          "type": "address"
        },
        {
          "internalType": "uint256",
          "name": "tokenId",
          "type": "uint256"
        }
      ],
      "name": "transferFrom",
      "outputs": [],
      "stateMutability": "nonpayable",
      "type": "function"
    },
    {
      "inputs": [
        {
          "internalType": "address",
          "name": "to",
          "type": "address"
        }
      ],
      "name": "transferOwnership",
      "outputs": [],
      "stateMutability": "nonpayable",
      "type": "function"
    }
  ],
  "bytecode": "0x60806040527f2cb3ba4db500c82af3dc64c9547161cd45b3c82df37efa82a7a075d89ad91c0e6010557f787d74caea10b2b357790d5b5247c2f63d1d91572a9846f780606e4d953677ae60001b601155620f4240601260006101000a81548163ffffffff021916908363ffffffff1602179055506003601260046101000a81548161ffff021916908361ffff160217905550600a601260066101000a81548163ffffffff021916908363ffffffff160217905550604051806080016040528060438152602001620050d86043913960139081620000dd9190620006ee565b50348015620000eb57600080fd5b50739ddfaca8183c41ad55329bdeed9f6a8d53168b1b338060006040518060400160405280601181526020017f43617264436f6c6c656374696e674e46540000000000000000000000000000008152506040518060400160405280600581526020017f43434e46540000000000000000000000000000000000000000000000000000008152508160009081620001829190620006ee565b508060019081620001949190620006ee565b505050600073ffffffffffffffffffffffffffffffffffffffff168273ffffffffffffffffffffffffffffffffffffffff160362000209576040517f08c379a0000000000000000000000000000000000000000000000000000000008152600401620002009062000836565b60405180910390fd5b81600760006101000a81548173ffffffffffffffffffffffffffffffffffffffff021916908373ffffffffffffffffffffffffffffffffffffffff160217905550600073ffffffffffffffffffffffffffffffffffffffff168173ffffffffffffffffffffffffffffffffffffffff1614620002915762000290816200034360201b60201c565b5b505050600073ffffffffffffffffffffffffffffffffffffffff168173ffffffffffffffffffffffffffffffffffffffff1603620002fb576040517fd92e233d00000000000000000000000000000000000000000000000000000000815260040160405180910390fd5b80600960006101000a81548173ffffffffffffffffffffffffffffffffffffffff021916908373ffffffffffffffffffffffffffffffffffffffff16021790555050620008ca565b3373ffffffffffffffffffffffffffffffffffffffff168173ffffffffffffffffffffffffffffffffffffffff1603620003b4576040517f08c379a0000000000000000000000000000000000000000000000000000000008152600401620003ab90620008a8565b60405180910390fd5b80600860006101000a81548173ffffffffffffffffffffffffffffffffffffffff021916908373ffffffffffffffffffffffffffffffffffffffff1602179055508073ffffffffffffffffffffffffffffffffffffffff16600760009054906101000a900473ffffffffffffffffffffffffffffffffffffffff1673ffffffffffffffffffffffffffffffffffffffff167fed8889f560326eb138920d842192f0eb3dd22b4f139c87a2c57538e05bae127860405160405180910390a350565b600081519050919050565b7f4e487b7100000000000000000000000000000000000000000000000000000000600052604160045260246000fd5b7f4e487b7100000000000000000000000000000000000000000000000000000000600052602260045260246000fd5b60006002820490506001821680620004f657607f821691505b6020821081036200050c576200050b620004ae565b5b50919050565b60008190508160005260206000209050919050565b60006020601f8301049050919050565b600082821b905092915050565b600060088302620005767fffffffffffffffffffffffffffffffffffffffffffffffffffffffffffffffff8262000537565b62000582868362000537565b95508019841693508086168417925050509392505050565b6000819050919050565b6000819050919050565b6000620005cf620005c9620005c3846200059a565b620005a4565b6200059a565b9050919050565b6000819050919050565b620005eb83620005ae565b62000603620005fa82620005d6565b84845462000544565b825550505050565b600090565b6200061a6200060b565b62000627818484620005e0565b505050565b5b818110156200064f576200064360008262000610565b6001810190506200062d565b5050565b601f8211156200069e57620006688162000512565b620006738462000527565b8101602085101562000683578190505b6200069b620006928562000527565b8301826200062c565b50505b505050565b600082821c905092915050565b6000620006c360001984600802620006a3565b1980831691505092915050565b6000620006de8383620006b0565b9150826002028217905092915050565b620006f98262000474565b67ffffffffffffffff8111156200071557620007146200047f565b5b620007218254620004dd565b6200072e82828562000653565b600060209050601f83116001811462000766576000841562000751578287015190505b6200075d8582620006d0565b865550620007cd565b601f198416620007768662000512565b60005b82811015620007a05784890151825560018201915060208501945060208101905062000779565b86831015620007c05784890151620007bc601f891682620006b0565b8355505b6001600288020188555050505b505050505050565b600082825260208201905092915050565b7f43616e6e6f7420736574206f776e657220746f207a65726f0000000000000000600082015250565b60006200081e601883620007d5565b91506200082b82620007e6565b602082019050919050565b6000602082019050818103600083015262000851816200080f565b9050919050565b7f43616e6e6f74207472616e7366657220746f2073656c66000000000000000000600082015250565b600062000890601783620007d5565b91506200089d8262000858565b602082019050919050565b60006020820190508181036000830152620008c38162000881565b9050919050565b6147fe80620008da6000396000f3fe608060405234801561001057600080fd5b506004361061023d5760003560e01c80637ccfd7fc1161013b578063b0fb162f116100b8578063e0c862891161007c578063e0c8628914610704578063e985e9c514610722578063f2fde38b14610752578063f6eaffc81461076e578063fc2a88c31461079e5761023d565b8063b0fb162f14610639578063b88d4fde14610657578063c107763214610673578063c87b56dd146106a3578063d8a4676f146106d35761023d565b80638ea98117116100ff5780638ea981171461059457806395d89b41146105b05780639eccacf6146105ce578063a168fa89146105ec578063a22cb4651461061d5761023d565b80637ccfd7fc146104ee5780638467be0d1461050c5780638796ba8c146105285780638ac00021146105585780638da5cb5b146105765761023d565b806342842e0e116101c95780636352211e1161018d5780636352211e146104485780636c0360eb1461047857806370a082311461049657806375794a3c146104c657806379ba5097146104e45761023d565b806342842e0e14610392578063434a49a1146103ae578063437650fd146103de57806345bb327b1461040e57806355f804b31461042c5761023d565b80631fb9b1db116102105780631fb9b1db146102dc5780631fe543e31461030c57806323b872dd1461032857806324f74697146103445780632e602d29146103625761023d565b806301ffc9a71461024257806306fdde0314610272578063081812fc14610290578063095ea7b3146102c0575b600080fd5b61025c600480360381019061025791906130cb565b6107bc565b6040516102699190613113565b60405180910390f35b61027a61081d565b60405161028791906131be565b60405180910390f35b6102aa60048036038101906102a59190613216565b6108af565b6040516102b79190613284565b60405180910390f35b6102da60048036038101906102d591906132cb565b6108cb565b005b6102f660048036038101906102f19190613216565b6108e1565b60405161030391906133c9565b60405180910390f35b61032660048036038101906103219190613450565b61094c565b005b610342600480360381019061033d91906134b0565b610a12565b005b61034c610b14565b6040516103599190613522565b60405180910390f35b61037c60048036038101906103779190613216565b610b2a565b6040516103899190613284565b60405180910390f35b6103ac60048036038101906103a791906134b0565b610b5d565b005b6103c860048036038101906103c3919061353d565b610b7d565b6040516103d591906133c9565b60405180910390f35b6103f860048036038101906103f3919061356a565b610c14565b60405161040591906135b9565b60405180910390f35b610416610c45565b60405161042391906135ed565b60405180910390f35b61044660048036038101906104419190613738565b610c4b565b005b610462600480360381019061045d9190613216565b610c66565b60405161046f9190613284565b60405180910390f35b610480610c78565b60405161048d91906131be565b60405180910390f35b6104b060048036038101906104ab919061353d565b610d06565b6040516104bd91906135b9565b60405180910390f35b6104ce610dc0565b6040516104db91906135b9565b60405180910390f35b6104ec610dc6565b005b6104f6610f5d565b6040516105039190613522565b60405180910390f35b61052660048036038101906105219190613216565b610f73565b005b610542600480360381019061053d9190613216565b6112f2565b60405161054f91906135b9565b60405180910390f35b610560611316565b60405161056d91906135b9565b60405180910390f35b61057e61131c565b60405161058b9190613284565b60405180910390f35b6105ae60048036038101906105a9919061353d565b611346565b005b6105b8611527565b6040516105c591906131be565b60405180910390f35b6105d66115b9565b6040516105e391906137e0565b60405180910390f35b61060660048036038101906106019190613216565b6115df565b6040516106149291906137fb565b60405180910390f35b61063760048036038101906106329190613850565b61161d565b005b610641611633565b60405161064e91906138ad565b60405180910390f35b610671600480360381019061066c9190613969565b611647565b005b61068d6004803603810190610688919061356a565b61166c565b60405161069a91906135b9565b60405180910390f35b6106bd60048036038101906106b89190613216565b61169d565b6040516106ca91906131be565b60405180910390f35b6106ed60048036038101906106e89190613216565b6117b0565b6040516106fb9291906139ec565b60405180910390f35b61070c6118db565b60405161071991906135b9565b60405180910390f35b61073c60048036038101906107379190613a1c565b611ba5565b6040516107499190613113565b60405180910390f35b61076c6004803603810190610767919061353d565b611c39565b005b61078860048036038101906107839190613216565b611c4d565b60405161079591906135b9565b60405180910390f35b6107a6611c71565b6040516107b391906135b9565b60405180910390f35b6000634906490660e01b7bffffffffffffffffffffffffffffffffffffffffffffffffffffffff1916827bffffffffffffffffffffffffffffffffffffffffffffffffffffffff19161480610816575061081582611c77565b5b9050919050565b60606000805461082c90613a8b565b80601f016020809104026020016040519081016040528092919081815260200182805461085890613a8b565b80156108a55780601f1061087a576101008083540402835291602001916108a5565b820191906000526020600020905b81548152906001019060200180831161088857829003601f168201915b5050505050905090565b60006108ba82611d59565b506108c482611de1565b9050919050565b6108dd82826108d8611e1e565b611e26565b5050565b60606016600083815260200190815260200160002080548060200260200160405190810160405280929190818152602001828054801561094057602002820191906000526020600020905b81548152602001906001019080831161092c575b50505050509050919050565b600960009054906101000a900473ffffffffffffffffffffffffffffffffffffffff1673ffffffffffffffffffffffffffffffffffffffff163373ffffffffffffffffffffffffffffffffffffffff1614610a025733600960009054906101000a900473ffffffffffffffffffffffffffffffffffffffff166040517f1cf993f40000000000000000000000000000000000000000000000000000000081526004016109f9929190613abc565b60405180910390fd5b610a0d838383611e38565b505050565b600073ffffffffffffffffffffffffffffffffffffffff168273ffffffffffffffffffffffffffffffffffffffff1603610a845760006040517f64a0ae92000000000000000000000000000000000000000000000000000000008152600401610a7b9190613284565b60405180910390fd5b6000610a988383610a93611e1e565b611f2b565b90508373ffffffffffffffffffffffffffffffffffffffff168173ffffffffffffffffffffffffffffffffffffffff1614610b0e578382826040517f64283d7b000000000000000000000000000000000000000000000000000000008152600401610b0593929190613ae5565b60405180910390fd5b50505050565b601260009054906101000a900463ffffffff1681565b60146020528060005260406000206000915054906101000a900473ffffffffffffffffffffffffffffffffffffffff1681565b610b7883838360405180602001604052806000815250611647565b505050565b6060601860008373ffffffffffffffffffffffffffffffffffffffff1673ffffffffffffffffffffffffffffffffffffffff168152602001908152602001600020805480602002602001604051908101604052809291908181526020018280548015610c0857602002820191906000526020600020905b815481526020019060010190808311610bf4575b50505050509050919050565b60166020528160005260406000208181548110610c3057600080fd5b90600052602060002001600091509150505481565b60115481565b610c53612145565b8060139081610c629190613cbe565b5050565b6000610c7182611d59565b9050919050565b60138054610c8590613a8b565b80601f0160208091040260200160405190810160405280929190818152602001828054610cb190613a8b565b8015610cfe5780601f10610cd357610100808354040283529160200191610cfe565b820191906000526020600020905b815481529060010190602001808311610ce157829003601f168201915b505050505081565b60008073ffffffffffffffffffffffffffffffffffffffff168273ffffffffffffffffffffffffffffffffffffffff1603610d795760006040517f89c62b64000000000000000000000000000000000000000000000000000000008152600401610d709190613284565b60405180910390fd5b600360008373ffffffffffffffffffffffffffffffffffffffff1673ffffffffffffffffffffffffffffffffffffffff168152602001908152602001600020549050919050565b600e5481565b600860009054906101000a900473ffffffffffffffffffffffffffffffffffffffff1673ffffffffffffffffffffffffffffffffffffffff163373ffffffffffffffffffffffffffffffffffffffff1614610e56576040517f08c379a0000000000000000000000000000000000000000000000000000000008152600401610e4d90613ddc565b60405180910390fd5b6000600760009054906101000a900473ffffffffffffffffffffffffffffffffffffffff16905033600760006101000a81548173ffffffffffffffffffffffffffffffffffffffff021916908373ffffffffffffffffffffffffffffffffffffffff1602179055506000600860006101000a81548173ffffffffffffffffffffffffffffffffffffffff021916908373ffffffffffffffffffffffffffffffffffffffff1602179055503373ffffffffffffffffffffffffffffffffffffffff168173ffffffffffffffffffffffffffffffffffffffff167f8be0079c531659141344cd1fd0a4f28419497f9722a3daafe3b4186f6b6457e060405160405180910390a350565b601260069054906101000a900463ffffffff1681565b600080610f7f836117b0565b9150915081610fc3576040517f08c379a0000000000000000000000000000000000000000000000000000000008152600401610fba90613e48565b60405180910390fd5b600a815114611007576040517f08c379a0000000000000000000000000000000000000000000000000000000008152600401610ffe90613eb4565b60405180910390fd5b60006014600085815260200190815260200160002060009054906101000a900473ffffffffffffffffffffffffffffffffffffffff169050600073ffffffffffffffffffffffffffffffffffffffff168173ffffffffffffffffffffffffffffffffffffffff16036110ae576040517f08c379a00000000000000000000000000000000000000000000000000000000081526004016110a590613f20565b60405180910390fd5b6000825167ffffffffffffffff8111156110cb576110ca61360d565b5b6040519080825280602002602001820160405280156110f95781602001602082028036833780820191505090505b50905060005b83518110156111f6576000601485838151811061111f5761111e613f40565b5b60200260200101516111319190613f9e565b90506000600e5490508084848151811061114e5761114d613f40565b5b602002602001018181525050600e600081548092919061116d90613ffe565b919050555061117c85826121d7565b7fd8734743ed0c1c7547379b55d892e5cea71bc5371832ffa4149a506fbc1aa6d0818660136111aa866122d0565b6040516020016111bb92919061419d565b6040516020818303038152906040526040516111d9939291906141d7565b60405180910390a1505080806111ee90613ffe565b9150506110ff565b5060005b81518110156112ea576016600087815260200190815260200160002082828151811061122957611228613f40565b5b60200260200101519080600181540180825580915050600190039060005260206000200160009091909190915055601860008473ffffffffffffffffffffffffffffffffffffffff1673ffffffffffffffffffffffffffffffffffffffff1681526020019081526020016000208282815181106112a9576112a8613f40565b5b6020026020010151908060018154018082558091505060019003906000526020600020016000909190919091505580806112e290613ffe565b9150506111fa565b505050505050565b600b818154811061130257600080fd5b906000526020600020016000915090505481565b60105481565b6000600760009054906101000a900473ffffffffffffffffffffffffffffffffffffffff16905090565b61134e61131c565b73ffffffffffffffffffffffffffffffffffffffff163373ffffffffffffffffffffffffffffffffffffffff16141580156113d75750600960009054906101000a900473ffffffffffffffffffffffffffffffffffffffff1673ffffffffffffffffffffffffffffffffffffffff163373ffffffffffffffffffffffffffffffffffffffff1614155b1561144657336113e561131c565b600960009054906101000a900473ffffffffffffffffffffffffffffffffffffffff166040517f061db9c100000000000000000000000000000000000000000000000000000000815260040161143d93929190614215565b60405180910390fd5b600073ffffffffffffffffffffffffffffffffffffffff168173ffffffffffffffffffffffffffffffffffffffff16036114ac576040517fd92e233d00000000000000000000000000000000000000000000000000000000815260040160405180910390fd5b80600960006101000a81548173ffffffffffffffffffffffffffffffffffffffff021916908373ffffffffffffffffffffffffffffffffffffffff1602179055507fd1a6a14209a385a964d036e404cb5cfb71f4000cdb03c9366292430787261be68160405161151c9190613284565b60405180910390a150565b60606001805461153690613a8b565b80601f016020809104026020016040519081016040528092919081815260200182805461156290613a8b565b80156115af5780601f10611584576101008083540402835291602001916115af565b820191906000526020600020905b81548152906001019060200180831161159257829003601f168201915b5050505050905090565b600960009054906101000a900473ffffffffffffffffffffffffffffffffffffffff1681565b600f6020528060005260406000206000915090508060000160009054906101000a900460ff16908060000160019054906101000a900460ff16905082565b61162f611628611e1e565b8383612430565b5050565b601260049054906101000a900461ffff1681565b611652848484610a12565b61166661165d611e1e565b8585858561259f565b50505050565b6015602052816000526040600020818154811061168857600080fd5b90600052602060002001600091509150505481565b60606116a882611d59565b5060006006600084815260200190815260200160002080546116c990613a8b565b80601f01602080910402602001604051908101604052809291908181526020018280546116f590613a8b565b80156117425780601f1061171757610100808354040283529160200191611742565b820191906000526020600020905b81548152906001019060200180831161172557829003601f168201915b505050505090506000611753612750565b905060008151036117685781925050506117ab565b60008251111561179d57808260405160200161178592919061424c565b604051602081830303815290604052925050506117ab565b6117a684612767565b925050505b919050565b60006060600f600084815260200190815260200160002060000160019054906101000a900460ff16611817576040517f08c379a000000000000000000000000000000000000000000000000000000000815260040161180e906142bc565b60405180910390fd5b6000600f60008581526020019081526020016000206040518060600160405290816000820160009054906101000a900460ff161515151581526020016000820160019054906101000a900460ff16151515158152602001600182018054806020026020016040519081016040528092919081815260200182805480156118bc57602002820191906000526020600020905b8154815260200190600101908083116118a8575b5050505050815250509050806000015181604001519250925050915091565b6000600960009054906101000a900473ffffffffffffffffffffffffffffffffffffffff1673ffffffffffffffffffffffffffffffffffffffff16639b1c385e6040518060c0016040528060115481526020016010548152602001601260049054906101000a900461ffff1661ffff168152602001601260009054906101000a900463ffffffff1663ffffffff168152602001601260069054906101000a900463ffffffff1663ffffffff1681526020016119a66040518060200160405280600015158152506127d0565b8152506040518263ffffffff1660e01b81526004016119c591906143e7565b6020604051808303816000875af11580156119e4573d6000803e3d6000fd5b505050506040513d601f19601f82011682018060405250810190611a08919061441e565b90506040518060600160405280600015158152602001600115158152602001600067ffffffffffffffff811115611a4257611a4161360d565b5b604051908082528060200260200182016040528015611a705781602001602082028036833780820191505090505b50815250600f600083815260200190815260200160002060008201518160000160006101000a81548160ff02191690831515021790555060208201518160000160016101000a81548160ff0219169083151502179055506040820151816001019080519060200190611ae3929190612fa8565b50905050600b81908060018154018082558091505060019003906000526020600020016000909190919091505580600d81905550336014600083815260200190815260200160002060006101000a81548173ffffffffffffffffffffffffffffffffffffffff021916908373ffffffffffffffffffffffffffffffffffffffff1602179055507f28f521cf7abd0044cba5bb040c5217ff69a4e5865f5262905018698e68fe7d008133604051611b9a92919061444b565b60405180910390a190565b6000600560008473ffffffffffffffffffffffffffffffffffffffff1673ffffffffffffffffffffffffffffffffffffffff16815260200190815260200160002060008373ffffffffffffffffffffffffffffffffffffffff1673ffffffffffffffffffffffffffffffffffffffff16815260200190815260200160002060009054906101000a900460ff16905092915050565b611c41612145565b611c4a81612868565b50565b600c8181548110611c5d57600080fd5b906000526020600020016000915090505481565b600d5481565b60007f80ac58cd000000000000000000000000000000000000000000000000000000007bffffffffffffffffffffffffffffffffffffffffffffffffffffffff1916827bffffffffffffffffffffffffffffffffffffffffffffffffffffffff19161480611d4257507f5b5e139f000000000000000000000000000000000000000000000000000000007bffffffffffffffffffffffffffffffffffffffffffffffffffffffff1916827bffffffffffffffffffffffffffffffffffffffffffffffffffffffff1916145b80611d525750611d5182612996565b5b9050919050565b600080611d6583612a00565b9050600073ffffffffffffffffffffffffffffffffffffffff168173ffffffffffffffffffffffffffffffffffffffff1603611dd857826040517f7e273289000000000000000000000000000000000000000000000000000000008152600401611dcf91906135b9565b60405180910390fd5b80915050919050565b60006004600083815260200190815260200160002060009054906101000a900473ffffffffffffffffffffffffffffffffffffffff169050919050565b600033905090565b611e338383836001612a3d565b505050565b8181600c9190611e49929190612ff5565b50600b8390806001815401808255809150506001900390600052602060002001600090919091909150558181601560008681526020019081526020016000209190611e95929190612ff5565b506001600f600085815260200190815260200160002060000160006101000a81548160ff0219169083151502179055508181600f60008681526020019081526020016000206001019190611eea929190612ff5565b507f67578974dcd1e9cdb0ebe63163f817c9866d397c48bc125393551f78f33b515f838383604051611f1e939291906144de565b60405180910390a1505050565b600080611f3784612a00565b9050600073ffffffffffffffffffffffffffffffffffffffff168373ffffffffffffffffffffffffffffffffffffffff1614611f7957611f78818486612c02565b5b600073ffffffffffffffffffffffffffffffffffffffff168173ffffffffffffffffffffffffffffffffffffffff161461200a57611fbb600085600080612a3d565b6001600360008373ffffffffffffffffffffffffffffffffffffffff1673ffffffffffffffffffffffffffffffffffffffff168152602001908152602001600020600082825403925050819055505b600073ffffffffffffffffffffffffffffffffffffffff168573ffffffffffffffffffffffffffffffffffffffff161461208d576001600360008773ffffffffffffffffffffffffffffffffffffffff1673ffffffffffffffffffffffffffffffffffffffff168152602001908152602001600020600082825401925050819055505b846002600086815260200190815260200160002060006101000a81548173ffffffffffffffffffffffffffffffffffffffff021916908373ffffffffffffffffffffffffffffffffffffffff160217905550838573ffffffffffffffffffffffffffffffffffffffff168273ffffffffffffffffffffffffffffffffffffffff167fddf252ad1be2c89b69c2b068fc378daa952ba7f163c4a11628f55a4df523b3ef60405160405180910390a4809150509392505050565b600760009054906101000a900473ffffffffffffffffffffffffffffffffffffffff1673ffffffffffffffffffffffffffffffffffffffff163373ffffffffffffffffffffffffffffffffffffffff16146121d5576040517f08c379a00000000000000000000000000000000000000000000000000000000081526004016121cc9061455c565b60405180910390fd5b565b600073ffffffffffffffffffffffffffffffffffffffff168273ffffffffffffffffffffffffffffffffffffffff16036122495760006040517f64a0ae920000000000000000000000000000000000000000000000000000000081526004016122409190613284565b60405180910390fd5b600061225783836000611f2b565b9050600073ffffffffffffffffffffffffffffffffffffffff168173ffffffffffffffffffffffffffffffffffffffff16146122cb5760006040517f73c6ac6e0000000000000000000000000000000000000000000000000000000081526004016122c29190613284565b60405180910390fd5b505050565b606060008203612317576040518060400160405280600181526020017f3000000000000000000000000000000000000000000000000000000000000000815250905061242b565b600082905060005b6000821461234957808061233290613ffe565b915050600a82612342919061457c565b915061231f565b60008167ffffffffffffffff8111156123655761236461360d565b5b6040519080825280601f01601f1916602001820160405280156123975781602001600182028036833780820191505090505b5090505b60008514612424576001826123b091906145ad565b9150600a856123bf9190613f9e565b60306123cb91906145e1565b60f81b8183815181106123e1576123e0613f40565b5b60200101907effffffffffffffffffffffffffffffffffffffffffffffffffffffffffffff1916908160001a905350600a8561241d919061457c565b945061239b565b8093505050505b919050565b600073ffffffffffffffffffffffffffffffffffffffff168273ffffffffffffffffffffffffffffffffffffffff16036124a157816040517f5b08ba180000000000000000000000000000000000000000000000000000000081526004016124989190613284565b60405180910390fd5b80600560008573ffffffffffffffffffffffffffffffffffffffff1673ffffffffffffffffffffffffffffffffffffffff16815260200190815260200160002060008473ffffffffffffffffffffffffffffffffffffffff1673ffffffffffffffffffffffffffffffffffffffff16815260200190815260200160002060006101000a81548160ff0219169083151502179055508173ffffffffffffffffffffffffffffffffffffffff168373ffffffffffffffffffffffffffffffffffffffff167f17307eab39ab6107e8899845ad3d59bd9653f200f220920489ca2b5937696c31836040516125929190613113565b60405180910390a3505050565b60008373ffffffffffffffffffffffffffffffffffffffff163b1115612749578273ffffffffffffffffffffffffffffffffffffffff1663150b7a02868685856040518563ffffffff1660e01b81526004016125fe949392919061465f565b6020604051808303816000875af192505050801561263a57506040513d601f19601f8201168201806040525081019061263791906146c0565b60015b6126be573d806000811461266a576040519150601f19603f3d011682016040523d82523d6000602084013e61266f565b606091505b5060008151036126b657836040517f64a0ae920000000000000000000000000000000000000000000000000000000081526004016126ad9190613284565b60405180910390fd5b805181602001fd5b63150b7a0260e01b7bffffffffffffffffffffffffffffffffffffffffffffffffffffffff1916817bffffffffffffffffffffffffffffffffffffffffffffffffffffffff19161461274757836040517f64a0ae9200000000000000000000000000000000000000000000000000000000815260040161273e9190613284565b60405180910390fd5b505b5050505050565b606060405180602001604052806000815250905090565b606061277282611d59565b50600061277d612750565b9050600081511161279d57604051806020016040528060008152506127c8565b806127a784612cc6565b6040516020016127b892919061424c565b6040516020818303038152906040525b915050919050565b60607f92fd13387c7fe7befbc38d303d6468778fb9731bc4583f17d92989c6fcfdeaaa826040516024016128049190614718565b604051602081830303815290604052907bffffffffffffffffffffffffffffffffffffffffffffffffffffffff19166020820180517bffffffffffffffffffffffffffffffffffffffffffffffffffffffff83818316178352505050509050919050565b3373ffffffffffffffffffffffffffffffffffffffff168173ffffffffffffffffffffffffffffffffffffffff16036128d6576040517f08c379a00000000000000000000000000000000000000000000000000000000081526004016128cd9061477f565b60405180910390fd5b80600860006101000a81548173ffffffffffffffffffffffffffffffffffffffff021916908373ffffffffffffffffffffffffffffffffffffffff1602179055508073ffffffffffffffffffffffffffffffffffffffff16600760009054906101000a900473ffffffffffffffffffffffffffffffffffffffff1673ffffffffffffffffffffffffffffffffffffffff167fed8889f560326eb138920d842192f0eb3dd22b4f139c87a2c57538e05bae127860405160405180910390a350565b60007f01ffc9a7000000000000000000000000000000000000000000000000000000007bffffffffffffffffffffffffffffffffffffffffffffffffffffffff1916827bffffffffffffffffffffffffffffffffffffffffffffffffffffffff1916149050919050565b60006002600083815260200190815260200160002060009054906101000a900473ffffffffffffffffffffffffffffffffffffffff169050919050565b8080612a765750600073ffffffffffffffffffffffffffffffffffffffff168273ffffffffffffffffffffffffffffffffffffffff1614155b15612baa576000612a8684611d59565b9050600073ffffffffffffffffffffffffffffffffffffffff168373ffffffffffffffffffffffffffffffffffffffff1614158015612af157508273ffffffffffffffffffffffffffffffffffffffff168173ffffffffffffffffffffffffffffffffffffffff1614155b8015612b045750612b028184611ba5565b155b15612b4657826040517fa9fbf51f000000000000000000000000000000000000000000000000000000008152600401612b3d9190613284565b60405180910390fd5b8115612ba857838573ffffffffffffffffffffffffffffffffffffffff168273ffffffffffffffffffffffffffffffffffffffff167f8c5be1e5ebec7d5bd14f71427d1e84f3dd0314c0f7b2291e5b200ac8c7c3b92560405160405180910390a45b505b836004600085815260200190815260200160002060006101000a81548173ffffffffffffffffffffffffffffffffffffffff021916908373ffffffffffffffffffffffffffffffffffffffff16021790555050505050565b612c0d838383612d94565b612cc157600073ffffffffffffffffffffffffffffffffffffffff168373ffffffffffffffffffffffffffffffffffffffff1603612c8257806040517f7e273289000000000000000000000000000000000000000000000000000000008152600401612c7991906135b9565b60405180910390fd5b81816040517f177e802f000000000000000000000000000000000000000000000000000000008152600401612cb892919061479f565b60405180910390fd5b505050565b606060006001612cd584612e55565b01905060008167ffffffffffffffff811115612cf457612cf361360d565b5b6040519080825280601f01601f191660200182016040528015612d265781602001600182028036833780820191505090505b509050600082602001820190505b600115612d89578080600190039150507f3031323334353637383961626364656600000000000000000000000000000000600a86061a8153600a8581612d7d57612d7c613f6f565b5b04945060008503612d34575b819350505050919050565b60008073ffffffffffffffffffffffffffffffffffffffff168373ffffffffffffffffffffffffffffffffffffffff1614158015612e4c57508273ffffffffffffffffffffffffffffffffffffffff168473ffffffffffffffffffffffffffffffffffffffff161480612e0d5750612e0c8484611ba5565b5b80612e4b57508273ffffffffffffffffffffffffffffffffffffffff16612e3383611de1565b73ffffffffffffffffffffffffffffffffffffffff16145b5b90509392505050565b600080600090507a184f03e93ff9f4daa797ed6e38ed64bf6a1f0100000000000000008310612eb3577a184f03e93ff9f4daa797ed6e38ed64bf6a1f0100000000000000008381612ea957612ea8613f6f565b5b0492506040810190505b6d04ee2d6d415b85acef81000000008310612ef0576d04ee2d6d415b85acef81000000008381612ee657612ee5613f6f565b5b0492506020810190505b662386f26fc100008310612f1f57662386f26fc100008381612f1557612f14613f6f565b5b0492506010810190505b6305f5e1008310612f48576305f5e1008381612f3e57612f3d613f6f565b5b0492506008810190505b6127108310612f6d576127108381612f6357612f62613f6f565b5b0492506004810190505b60648310612f905760648381612f8657612f85613f6f565b5b0492506002810190505b600a8310612f9f576001810190505b80915050919050565b828054828255906000526020600020908101928215612fe4579160200282015b82811115612fe3578251825591602001919060010190612fc8565b5b509050612ff19190613042565b5090565b828054828255906000526020600020908101928215613031579160200282015b82811115613030578235825591602001919060010190613015565b5b50905061303e9190613042565b5090565b5b8082111561305b576000816000905550600101613043565b5090565b6000604051905090565b600080fd5b600080fd5b60007fffffffff0000000000000000000000000000000000000000000000000000000082169050919050565b6130a881613073565b81146130b357600080fd5b50565b6000813590506130c58161309f565b92915050565b6000602082840312156130e1576130e0613069565b5b60006130ef848285016130b6565b91505092915050565b60008115159050919050565b61310d816130f8565b82525050565b60006020820190506131286000830184613104565b92915050565b600081519050919050565b600082825260208201905092915050565b60005b8381101561316857808201518184015260208101905061314d565b60008484015250505050565b6000601f19601f8301169050919050565b60006131908261312e565b61319a8185613139565b93506131aa81856020860161314a565b6131b381613174565b840191505092915050565b600060208201905081810360008301526131d88184613185565b905092915050565b6000819050919050565b6131f3816131e0565b81146131fe57600080fd5b50565b600081359050613210816131ea565b92915050565b60006020828403121561322c5761322b613069565b5b600061323a84828501613201565b91505092915050565b600073ffffffffffffffffffffffffffffffffffffffff82169050919050565b600061326e82613243565b9050919050565b61327e81613263565b82525050565b60006020820190506132996000830184613275565b92915050565b6132a881613263565b81146132b357600080fd5b50565b6000813590506132c58161329f565b92915050565b600080604083850312156132e2576132e1613069565b5b60006132f0858286016132b6565b925050602061330185828601613201565b9150509250929050565b600081519050919050565b600082825260208201905092915050565b6000819050602082019050919050565b613340816131e0565b82525050565b60006133528383613337565b60208301905092915050565b6000602082019050919050565b60006133768261330b565b6133808185613316565b935061338b83613327565b8060005b838110156133bc5781516133a38882613346565b97506133ae8361335e565b92505060018101905061338f565b5085935050505092915050565b600060208201905081810360008301526133e3818461336b565b905092915050565b600080fd5b600080fd5b600080fd5b60008083601f8401126134105761340f6133eb565b5b8235905067ffffffffffffffff81111561342d5761342c6133f0565b5b602083019150836020820283011115613449576134486133f5565b5b9250929050565b60008060006040848603121561346957613468613069565b5b600061347786828701613201565b935050602084013567ffffffffffffffff8111156134985761349761306e565b5b6134a4868287016133fa565b92509250509250925092565b6000806000606084860312156134c9576134c8613069565b5b60006134d7868287016132b6565b93505060206134e8868287016132b6565b92505060406134f986828701613201565b9150509250925092565b600063ffffffff82169050919050565b61351c81613503565b82525050565b60006020820190506135376000830184613513565b92915050565b60006020828403121561355357613552613069565b5b6000613561848285016132b6565b91505092915050565b6000806040838503121561358157613580613069565b5b600061358f85828601613201565b92505060206135a085828601613201565b9150509250929050565b6135b3816131e0565b82525050565b60006020820190506135ce60008301846135aa565b92915050565b6000819050919050565b6135e7816135d4565b82525050565b600060208201905061360260008301846135de565b92915050565b600080fd5b7f4e487b7100000000000000000000000000000000000000000000000000000000600052604160045260246000fd5b61364582613174565b810181811067ffffffffffffffff821117156136645761366361360d565b5b80604052505050565b600061367761305f565b9050613683828261363c565b919050565b600067ffffffffffffffff8211156136a3576136a261360d565b5b6136ac82613174565b9050602081019050919050565b82818337600083830152505050565b60006136db6136d684613688565b61366d565b9050828152602081018484840111156136f7576136f6613608565b5b6137028482856136b9565b509392505050565b600082601f83011261371f5761371e6133eb565b5b813561372f8482602086016136c8565b91505092915050565b60006020828403121561374e5761374d613069565b5b600082013567ffffffffffffffff81111561376c5761376b61306e565b5b6137788482850161370a565b91505092915050565b6000819050919050565b60006137a66137a161379c84613243565b613781565b613243565b9050919050565b60006137b88261378b565b9050919050565b60006137ca826137ad565b9050919050565b6137da816137bf565b82525050565b60006020820190506137f560008301846137d1565b92915050565b60006040820190506138106000830185613104565b61381d6020830184613104565b9392505050565b61382d816130f8565b811461383857600080fd5b50565b60008135905061384a81613824565b92915050565b6000806040838503121561386757613866613069565b5b6000613875858286016132b6565b92505060206138868582860161383b565b9150509250929050565b600061ffff82169050919050565b6138a781613890565b82525050565b60006020820190506138c2600083018461389e565b92915050565b600067ffffffffffffffff8211156138e3576138e261360d565b5b6138ec82613174565b9050602081019050919050565b600061390c613907846138c8565b61366d565b90508281526020810184848401111561392857613927613608565b5b6139338482856136b9565b509392505050565b600082601f8301126139505761394f6133eb565b5b81356139608482602086016138f9565b91505092915050565b6000806000806080858703121561398357613982613069565b5b6000613991878288016132b6565b94505060206139a2878288016132b6565b93505060406139b387828801613201565b925050606085013567ffffffffffffffff8111156139d4576139d361306e565b5b6139e08782880161393b565b91505092959194509250565b6000604082019050613a016000830185613104565b8181036020830152613a13818461336b565b90509392505050565b60008060408385031215613a3357613a32613069565b5b6000613a41858286016132b6565b9250506020613a52858286016132b6565b9150509250929050565b7f4e487b7100000000000000000000000000000000000000000000000000000000600052602260045260246000fd5b60006002820490506001821680613aa357607f821691505b602082108103613ab657613ab5613a5c565b5b50919050565b6000604082019050613ad16000830185613275565b613ade6020830184613275565b9392505050565b6000606082019050613afa6000830186613275565b613b0760208301856135aa565b613b146040830184613275565b949350505050565b60008190508160005260206000209050919050565b60006020601f8301049050919050565b600082821b905092915050565b600060088302613b7e7fffffffffffffffffffffffffffffffffffffffffffffffffffffffffffffffff82613b41565b613b888683613b41565b95508019841693508086168417925050509392505050565b6000613bbb613bb6613bb1846131e0565b613781565b6131e0565b9050919050565b6000819050919050565b613bd583613ba0565b613be9613be182613bc2565b848454613b4e565b825550505050565b600090565b613bfe613bf1565b613c09818484613bcc565b505050565b5b81811015613c2d57613c22600082613bf6565b600181019050613c0f565b5050565b601f821115613c7257613c4381613b1c565b613c4c84613b31565b81016020851015613c5b578190505b613c6f613c6785613b31565b830182613c0e565b50505b505050565b600082821c905092915050565b6000613c9560001984600802613c77565b1980831691505092915050565b6000613cae8383613c84565b9150826002028217905092915050565b613cc78261312e565b67ffffffffffffffff811115613ce057613cdf61360d565b5b613cea8254613a8b565b613cf5828285613c31565b600060209050601f831160018114613d285760008415613d16578287015190505b613d208582613ca2565b865550613d88565b601f198416613d3686613b1c565b60005b82811015613d5e57848901518255600182019150602085019450602081019050613d39565b86831015613d7b5784890151613d77601f891682613c84565b8355505b6001600288020188555050505b505050505050565b7f4d7573742062652070726f706f736564206f776e657200000000000000000000600082015250565b6000613dc6601683613139565b9150613dd182613d90565b602082019050919050565b60006020820190508181036000830152613df581613db9565b9050919050565b7f52657175657374206e6f7420667566696c6c6564000000000000000000000000600082015250565b6000613e32601483613139565b9150613e3d82613dfc565b602082019050919050565b60006020820190508181036000830152613e6181613e25565b9050919050565b7f45787065637465642031302072616e646f6d206e756d62657273000000000000600082015250565b6000613e9e601a83613139565b9150613ea982613e68565b602082019050919050565b60006020820190508181036000830152613ecd81613e91565b9050919050565b7f526563697069656e74206164647265737320697320696e76616c696400000000600082015250565b6000613f0a601c83613139565b9150613f1582613ed4565b602082019050919050565b60006020820190508181036000830152613f3981613efd565b9050919050565b7f4e487b7100000000000000000000000000000000000000000000000000000000600052603260045260246000fd5b7f4e487b7100000000000000000000000000000000000000000000000000000000600052601260045260246000fd5b6000613fa9826131e0565b9150613fb4836131e0565b925082613fc457613fc3613f6f565b5b828206905092915050565b7f4e487b7100000000000000000000000000000000000000000000000000000000600052601160045260246000fd5b6000614009826131e0565b91507fffffffffffffffffffffffffffffffffffffffffffffffffffffffffffffffff820361403b5761403a613fcf565b5b600182019050919050565b600081905092915050565b6000815461405e81613a8b565b6140688186614046565b945060018216600081146140835760018114614098576140cb565b60ff19831686528115158202860193506140cb565b6140a185613b1c565b60005b838110156140c3578154818901526001820191506020810190506140a4565b838801955050505b50505092915050565b7f4361726420000000000000000000000000000000000000000000000000000000600082015250565b600061410a600583614046565b9150614115826140d4565b600582019050919050565b600061412b8261312e565b6141358185614046565b935061414581856020860161314a565b80840191505092915050565b7f2e706e6700000000000000000000000000000000000000000000000000000000600082015250565b6000614187600483614046565b915061419282614151565b600482019050919050565b60006141a98285614051565b91506141b4826140fd565b91506141c08284614120565b91506141cb8261417a565b91508190509392505050565b60006060820190506141ec60008301866135aa565b6141f96020830185613275565b818103604083015261420b8184613185565b9050949350505050565b600060608201905061422a6000830186613275565b6142376020830185613275565b6142446040830184613275565b949350505050565b60006142588285614120565b91506142648284614120565b91508190509392505050565b7f72657175657374206e6f7420666f756e64000000000000000000000000000000600082015250565b60006142a6601183613139565b91506142b182614270565b602082019050919050565b600060208201905081810360008301526142d581614299565b9050919050565b6142e5816135d4565b82525050565b6142f481613890565b82525050565b61430381613503565b82525050565b600081519050919050565b600082825260208201905092915050565b600061433082614309565b61433a8185614314565b935061434a81856020860161314a565b61435381613174565b840191505092915050565b600060c08301600083015161437660008601826142dc565b5060208301516143896020860182613337565b50604083015161439c60408601826142eb565b5060608301516143af60608601826142fa565b5060808301516143c260808601826142fa565b5060a083015184820360a08601526143da8282614325565b9150508091505092915050565b60006020820190508181036000830152614401818461435e565b905092915050565b600081519050614418816131ea565b92915050565b60006020828403121561443457614433613069565b5b600061444284828501614409565b91505092915050565b600060408201905061446060008301856135aa565b61446d6020830184613275565b9392505050565b600080fd5b82818337505050565b600061448e8385613316565b93507f07ffffffffffffffffffffffffffffffffffffffffffffffffffffffffffffff8311156144c1576144c0614474565b5b6020830292506144d2838584614479565b82840190509392505050565b60006040820190506144f360008301866135aa565b8181036020830152614506818486614482565b9050949350505050565b7f4f6e6c792063616c6c61626c65206279206f776e657200000000000000000000600082015250565b6000614546601683613139565b915061455182614510565b602082019050919050565b6000602082019050818103600083015261457581614539565b9050919050565b6000614587826131e0565b9150614592836131e0565b9250826145a2576145a1613f6f565b5b828204905092915050565b60006145b8826131e0565b91506145c3836131e0565b92508282039050818111156145db576145da613fcf565b5b92915050565b60006145ec826131e0565b91506145f7836131e0565b925082820190508082111561460f5761460e613fcf565b5b92915050565b600082825260208201905092915050565b600061463182614309565b61463b8185614615565b935061464b81856020860161314a565b61465481613174565b840191505092915050565b60006080820190506146746000830187613275565b6146816020830186613275565b61468e60408301856135aa565b81810360608301526146a08184614626565b905095945050505050565b6000815190506146ba8161309f565b92915050565b6000602082840312156146d6576146d5613069565b5b60006146e4848285016146ab565b91505092915050565b6146f6816130f8565b82525050565b60208201600082015161471260008501826146ed565b50505050565b600060208201905061472d60008301846146fc565b92915050565b7f43616e6e6f74207472616e7366657220746f2073656c66000000000000000000600082015250565b6000614769601783613139565b915061477482614733565b602082019050919050565b600060208201905081810360008301526147988161475c565b9050919050565b60006040820190506147b46000830185613275565b6147c160208301846135aa565b939250505056fea264697066735822122023ffb415fc0d3cf17d8a58fb398221809d1187f0e06434f490c30f5f50b4ec4664736f6c63430008140033697066733a2f2f62616679626569663477646536693435337568616432627336336179346e6970336d6c32713778336a6866666d6f346c6b64327a35327569706d692f",
  "linkReferences": {},
  "deployedLinkReferences": {}
}