{
  "_format": "hh-sol-artifact-1",
  "contractName": "CardMintPack",
  "sourceName": "contracts/CardMintPack.sol",
  "abi": [
    {
      "inputs": [
        {
          "internalType": "uint256",
          "name": "subscriptionId",
          "type": "uint256"
        }
      ],
      "stateMutability": "nonpayable",
      "type": "constructor"
    },
    {
      "inputs": [
        {
          "internalType": "address",
          "name": "sender",
          "type": "address"
        },
        {
          "internalType": "uint256",
          "name": "tokenId",
          "type": "uint256"
        },
        {
          "internalType": "address",
          "name": "owner",
          "type": "address"
        }
      ],
      "name": "ERC721IncorrectOwner",
      "type": "error"
    },
    {
      "inputs": [
        {
          "internalType": "address",
          "name": "operator",
          "type": "address"
        },
        {
          "internalType": "uint256",
          "name": "tokenId",
          "type": "uint256"
        }
      ],
      "name": "ERC721InsufficientApproval",
      "type": "error"
    },
    {
      "inputs": [
        {
          "internalType": "address",
          "name": "approver",
          "type": "address"
        }
      ],
      "name": "ERC721InvalidApprover",
      "type": "error"
    },
    {
      "inputs": [
        {
          "internalType": "address",
          "name": "operator",
          "type": "address"
        }
      ],
      "name": "ERC721InvalidOperator",
      "type": "error"
    },
    {
      "inputs": [
        {
          "internalType": "address",
          "name": "owner",
          "type": "address"
        }
      ],
      "name": "ERC721InvalidOwner",
      "type": "error"
    },
    {
      "inputs": [
        {
          "internalType": "address",
          "name": "receiver",
          "type": "address"
        }
      ],
      "name": "ERC721InvalidReceiver",
      "type": "error"
    },
    {
      "inputs": [
        {
          "internalType": "address",
          "name": "sender",
          "type": "address"
        }
      ],
      "name": "ERC721InvalidSender",
      "type": "error"
    },
    {
      "inputs": [
        {
          "internalType": "uint256",
          "name": "tokenId",
          "type": "uint256"
        }
      ],
      "name": "ERC721NonexistentToken",
      "type": "error"
    },
    {
      "inputs": [
        {
          "internalType": "address",
          "name": "have",
          "type": "address"
        },
        {
          "internalType": "address",
          "name": "want",
          "type": "address"
        }
      ],
      "name": "OnlyCoordinatorCanFulfill",
      "type": "error"
    },
    {
      "inputs": [
        {
          "internalType": "address",
          "name": "have",
          "type": "address"
        },
        {
          "internalType": "address",
          "name": "owner",
          "type": "address"
        },
        {
          "internalType": "address",
          "name": "coordinator",
          "type": "address"
        }
      ],
      "name": "OnlyOwnerOrCoordinator",
      "type": "error"
    },
    {
      "inputs": [],
      "name": "ZeroAddress",
      "type": "error"
    },
    {
      "anonymous": false,
      "inputs": [
        {
          "indexed": true,
          "internalType": "address",
          "name": "owner",
          "type": "address"
        },
        {
          "indexed": true,
          "internalType": "address",
          "name": "approved",
          "type": "address"
        },
        {
          "indexed": true,
          "internalType": "uint256",
          "name": "tokenId",
          "type": "uint256"
        }
      ],
      "name": "Approval",
      "type": "event"
    },
    {
      "anonymous": false,
      "inputs": [
        {
          "indexed": true,
          "internalType": "address",
          "name": "owner",
          "type": "address"
        },
        {
          "indexed": true,
          "internalType": "address",
          "name": "operator",
          "type": "address"
        },
        {
          "indexed": false,
          "internalType": "bool",
          "name": "approved",
          "type": "bool"
        }
      ],
      "name": "ApprovalForAll",
      "type": "event"
    },
    {
      "anonymous": false,
      "inputs": [
        {
          "indexed": false,
          "internalType": "uint256",
          "name": "_fromTokenId",
          "type": "uint256"
        },
        {
          "indexed": false,
          "internalType": "uint256",
          "name": "_toTokenId",
          "type": "uint256"
        }
      ],
      "name": "BatchMetadataUpdate",
      "type": "event"
    },
    {
      "anonymous": false,
      "inputs": [
        {
          "indexed": false,
          "internalType": "uint256",
          "name": "tokenId",
          "type": "uint256"
        },
        {
          "indexed": false,
          "internalType": "address",
          "name": "owner",
          "type": "address"
        },
        {
          "indexed": false,
          "internalType": "string",
          "name": "metadataURI",
          "type": "string"
        }
      ],
      "name": "CardMinted",
      "type": "event"
    },
    {
      "anonymous": false,
      "inputs": [
        {
          "indexed": false,
          "internalType": "address",
          "name": "vrfCoordinator",
          "type": "address"
        }
      ],
      "name": "CoordinatorSet",
      "type": "event"
    },
    {
      "anonymous": false,
      "inputs": [
        {
          "indexed": true,
          "internalType": "uint256",
          "name": "tokenId",
          "type": "uint256"
        },
        {
          "indexed": false,
          "internalType": "address",
          "name": "seller",
          "type": "address"
        },
        {
          "indexed": false,
          "internalType": "address",
          "name": "owner",
          "type": "address"
        },
        {
          "indexed": false,
          "internalType": "uint256",
          "name": "price",
          "type": "uint256"
        },
        {
          "indexed": false,
          "internalType": "bool",
          "name": "sold",
          "type": "bool"
        }
      ],
      "name": "ListingCreated",
      "type": "event"
    },
    {
      "anonymous": false,
      "inputs": [
        {
          "indexed": true,
          "internalType": "uint256",
          "name": "tokenId",
          "type": "uint256"
        },
        {
          "indexed": false,
          "internalType": "address",
          "name": "seller",
          "type": "address"
        }
      ],
      "name": "ListingRemoved",
      "type": "event"
    },
    {
      "anonymous": false,
      "inputs": [
        {
          "indexed": false,
          "internalType": "uint256",
          "name": "_tokenId",
          "type": "uint256"
        }
      ],
      "name": "MetadataUpdate",
      "type": "event"
    },
    {
      "anonymous": false,
      "inputs": [
        {
          "indexed": true,
          "internalType": "address",
          "name": "from",
          "type": "address"
        },
        {
          "indexed": true,
          "internalType": "address",
          "name": "to",
          "type": "address"
        }
      ],
      "name": "OwnershipTransferRequested",
      "type": "event"
    },
    {
      "anonymous": false,
      "inputs": [
        {
          "indexed": true,
          "internalType": "address",
          "name": "from",
          "type": "address"
        },
        {
          "indexed": true,
          "internalType": "address",
          "name": "to",
          "type": "address"
        }
      ],
      "name": "OwnershipTransferred",
      "type": "event"
    },
    {
      "anonymous": false,
      "inputs": [
        {
          "indexed": true,
          "internalType": "address",
          "name": "buyer",
          "type": "address"
        },
        {
          "indexed": false,
          "internalType": "uint256",
          "name": "packId",
          "type": "uint256"
        },
        {
          "indexed": false,
          "internalType": "uint256",
          "name": "requestId",
          "type": "uint256"
        }
      ],
      "name": "PackPurchased",
      "type": "event"
    },
    {
      "anonymous": false,
      "inputs": [
        {
          "indexed": false,
          "internalType": "uint256",
          "name": "requestId",
          "type": "uint256"
        },
        {
          "indexed": false,
          "internalType": "uint256[]",
          "name": "randomWords",
          "type": "uint256[]"
        }
      ],
      "name": "RandomnessFulfilled",
      "type": "event"
    },
    {
      "anonymous": false,
      "inputs": [
        {
          "indexed": false,
          "internalType": "uint256",
          "name": "requestId",
          "type": "uint256"
        },
        {
          "indexed": false,
          "internalType": "address",
          "name": "requester",
          "type": "address"
        }
      ],
      "name": "RandomnessRequested",
      "type": "event"
    },
    {
      "anonymous": false,
      "inputs": [
        {
          "indexed": true,
          "internalType": "address",
          "name": "from",
          "type": "address"
        },
        {
          "indexed": true,
          "internalType": "address",
          "name": "to",
          "type": "address"
        },
        {
          "indexed": true,
          "internalType": "uint256",
          "name": "tokenId",
          "type": "uint256"
        }
      ],
      "name": "Transfer",
      "type": "event"
    },
    {
      "inputs": [],
      "name": "acceptOwnership",
      "outputs": [],
      "stateMutability": "nonpayable",
      "type": "function"
    },
    {
      "inputs": [
        {
          "internalType": "address",
          "name": "to",
          "type": "address"
        },
        {
          "internalType": "uint256",
          "name": "tokenId",
          "type": "uint256"
        }
      ],
      "name": "approve",
      "outputs": [],
      "stateMutability": "nonpayable",
      "type": "function"
    },
    {
      "inputs": [
        {
          "internalType": "address",
          "name": "owner",
          "type": "address"
        }
      ],
      "name": "balanceOf",
      "outputs": [
        {
          "internalType": "uint256",
          "name": "",
          "type": "uint256"
        }
      ],
      "stateMutability": "view",
      "type": "function"
    },
    {
      "inputs": [],
      "name": "baseURI",
      "outputs": [
        {
          "internalType": "string",
          "name": "",
          "type": "string"
        }
      ],
      "stateMutability": "view",
      "type": "function"
    },
    {
      "inputs": [
        {
          "internalType": "uint256[]",
          "name": "_randomWords",
          "type": "uint256[]"
        },
        {
          "internalType": "address",
          "name": "recipient",
          "type": "address"
        },
        {
          "internalType": "uint256",
          "name": "requestId",
          "type": "uint256"
        }
      ],
      "name": "batchMint",
      "outputs": [],
      "stateMutability": "nonpayable",
      "type": "function"
    },
    {
      "inputs": [],
      "name": "callbackGasLimit",
      "outputs": [
        {
          "internalType": "uint32",
          "name": "",
          "type": "uint32"
        }
      ],
      "stateMutability": "view",
      "type": "function"
    },
    {
      "inputs": [
        {
          "internalType": "uint256",
          "name": "",
          "type": "uint256"
        }
      ],
      "name": "cardIndexes",
      "outputs": [
        {
          "internalType": "uint256",
          "name": "",
          "type": "uint256"
        }
      ],
      "stateMutability": "view",
      "type": "function"
    },
    {
      "inputs": [
        {
          "internalType": "string",
          "name": "tokenURI",
          "type": "string"
        },
        {
          "internalType": "address",
          "name": "recipient",
          "type": "address"
        },
        {
          "internalType": "uint256",
          "name": "cardIndex",
          "type": "uint256"
        }
      ],
      "name": "createToken",
      "outputs": [
        {
          "internalType": "uint256",
          "name": "",
          "type": "uint256"
        }
      ],
      "stateMutability": "payable",
      "type": "function"
    },
    {
      "inputs": [],
      "name": "fetchItemsListed",
      "outputs": [
        {
          "components": [
            {
              "internalType": "uint256",
              "name": "tokenId",
              "type": "uint256"
            },
            {
              "internalType": "address payable",
              "name": "seller",
              "type": "address"
            },
            {
              "internalType": "address payable",
              "name": "owner",
              "type": "address"
            },
            {
              "internalType": "uint256",
              "name": "price",
              "type": "uint256"
            },
            {
              "internalType": "bool",
              "name": "sold",
              "type": "bool"
            },
            {
              "internalType": "uint256",
              "name": "cardIndex",
              "type": "uint256"
            }
          ],
          "internalType": "struct NFTplace.Listing[]",
          "name": "",
          "type": "tuple[]"
        }
      ],
      "stateMutability": "view",
      "type": "function"
    },
    {
      "inputs": [],
      "name": "fetchListingMarketplace",
      "outputs": [
        {
          "components": [
            {
              "internalType": "uint256",
              "name": "tokenId",
              "type": "uint256"
            },
            {
              "internalType": "address payable",
              "name": "seller",
              "type": "address"
            },
            {
              "internalType": "address payable",
              "name": "owner",
              "type": "address"
            },
            {
              "internalType": "uint256",
              "name": "price",
              "type": "uint256"
            },
            {
              "internalType": "bool",
              "name": "sold",
              "type": "bool"
            },
            {
              "internalType": "uint256",
              "name": "cardIndex",
              "type": "uint256"
            }
          ],
          "internalType": "struct NFTplace.Listing[]",
          "name": "",
          "type": "tuple[]"
        }
      ],
      "stateMutability": "view",
      "type": "function"
    },
    {
      "inputs": [],
      "name": "fetchMyNFTs",
      "outputs": [
        {
          "components": [
            {
              "internalType": "uint256",
              "name": "tokenId",
              "type": "uint256"
            },
            {
              "internalType": "address payable",
              "name": "seller",
              "type": "address"
            },
            {
              "internalType": "address payable",
              "name": "owner",
              "type": "address"
            },
            {
              "internalType": "uint256",
              "name": "price",
              "type": "uint256"
            },
            {
              "internalType": "bool",
              "name": "sold",
              "type": "bool"
            },
            {
              "internalType": "uint256",
              "name": "cardIndex",
              "type": "uint256"
            }
          ],
          "internalType": "struct NFTplace.Listing[]",
          "name": "",
          "type": "tuple[]"
        }
      ],
      "stateMutability": "view",
      "type": "function"
    },
    {
      "inputs": [
        {
          "internalType": "uint256",
          "name": "tokenId",
          "type": "uint256"
        }
      ],
      "name": "getApproved",
      "outputs": [
        {
          "internalType": "address",
          "name": "",
          "type": "address"
        }
      ],
      "stateMutability": "view",
      "type": "function"
    },
    {
      "inputs": [
        {
          "internalType": "uint256",
          "name": "tokenId",
          "type": "uint256"
        }
      ],
      "name": "getCardIndexFromId",
      "outputs": [
        {
          "internalType": "uint256",
          "name": "",
          "type": "uint256"
        }
      ],
      "stateMutability": "view",
      "type": "function"
    },
    {
      "inputs": [],
      "name": "getContractOwner",
      "outputs": [
        {
          "internalType": "address",
          "name": "",
          "type": "address"
        }
      ],
      "stateMutability": "view",
      "type": "function"
    },
    {
      "inputs": [],
      "name": "getListingPrice",
      "outputs": [
        {
          "internalType": "uint256",
          "name": "",
          "type": "uint256"
        }
      ],
      "stateMutability": "view",
      "type": "function"
    },
    {
      "inputs": [
        {
          "internalType": "address",
          "name": "user",
          "type": "address"
        }
      ],
      "name": "getMintedTokens",
      "outputs": [
        {
          "internalType": "uint256[]",
          "name": "",
          "type": "uint256[]"
        }
      ],
      "stateMutability": "view",
      "type": "function"
    },
    {
      "inputs": [
        {
          "internalType": "uint256",
          "name": "requestId",
          "type": "uint256"
        }
      ],
      "name": "getMintedTokensFromRequest",
      "outputs": [
        {
          "internalType": "uint256[]",
          "name": "",
          "type": "uint256[]"
        }
      ],
      "stateMutability": "view",
      "type": "function"
    },
    {
      "inputs": [],
      "name": "getNativePayment",
      "outputs": [
        {
          "internalType": "string",
          "name": "",
          "type": "string"
        }
      ],
      "stateMutability": "view",
      "type": "function"
    },
    {
      "inputs": [],
      "name": "getPacksAvailable",
      "outputs": [
        {
          "internalType": "uint256",
          "name": "",
          "type": "uint256"
        }
      ],
      "stateMutability": "view",
      "type": "function"
    },
    {
      "inputs": [
        {
          "internalType": "uint256",
          "name": "tokenId",
          "type": "uint256"
        }
      ],
      "name": "getSoldStatus",
      "outputs": [
        {
          "internalType": "bool",
          "name": "",
          "type": "bool"
        }
      ],
      "stateMutability": "view",
      "type": "function"
    },
    {
      "inputs": [],
      "name": "getTotalPacksSold",
      "outputs": [
        {
          "internalType": "uint256",
          "name": "",
          "type": "uint256"
        }
      ],
      "stateMutability": "view",
      "type": "function"
    },
    {
      "inputs": [
        {
          "internalType": "address",
          "name": "owner",
          "type": "address"
        },
        {
          "internalType": "address",
          "name": "operator",
          "type": "address"
        }
      ],
      "name": "isApprovedForAll",
      "outputs": [
        {
          "internalType": "bool",
          "name": "",
          "type": "bool"
        }
      ],
      "stateMutability": "view",
      "type": "function"
    },
    {
      "inputs": [
        {
          "internalType": "uint256",
          "name": "tokenId",
          "type": "uint256"
        },
        {
          "internalType": "uint256",
          "name": "price",
          "type": "uint256"
        }
      ],
      "name": "listCard",
      "outputs": [],
      "stateMutability": "payable",
      "type": "function"
    },
    {
      "inputs": [],
      "name": "name",
      "outputs": [
        {
          "internalType": "string",
          "name": "",
          "type": "string"
        }
      ],
      "stateMutability": "view",
      "type": "function"
    },
    {
      "inputs": [],
      "name": "nextTokenId",
      "outputs": [
        {
          "internalType": "uint256",
          "name": "",
          "type": "uint256"
        }
      ],
      "stateMutability": "view",
      "type": "function"
    },
    {
      "inputs": [],
      "name": "numWords",
      "outputs": [
        {
          "internalType": "uint32",
          "name": "",
          "type": "uint32"
        }
      ],
      "stateMutability": "view",
      "type": "function"
    },
    {
      "inputs": [],
      "name": "owner",
      "outputs": [
        {
          "internalType": "address",
          "name": "",
          "type": "address"
        }
      ],
      "stateMutability": "view",
      "type": "function"
    },
    {
      "inputs": [
        {
          "internalType": "uint256",
          "name": "tokenId",
          "type": "uint256"
        }
      ],
      "name": "ownerOf",
      "outputs": [
        {
          "internalType": "address",
          "name": "",
          "type": "address"
        }
      ],
      "stateMutability": "view",
      "type": "function"
    },
    {
      "inputs": [],
      "name": "packPrice",
      "outputs": [
        {
          "internalType": "uint256",
          "name": "",
          "type": "uint256"
        }
      ],
      "stateMutability": "view",
      "type": "function"
    },
    {
      "inputs": [],
      "name": "packsAvailable",
      "outputs": [
        {
          "internalType": "uint256",
          "name": "",
          "type": "uint256"
        }
      ],
      "stateMutability": "view",
      "type": "function"
    },
    {
      "inputs": [
        {
          "internalType": "uint256",
          "name": "tokenId",
          "type": "uint256"
        }
      ],
      "name": "purchaseCard",
      "outputs": [],
      "stateMutability": "payable",
      "type": "function"
    },
    {
      "inputs": [
        {
          "internalType": "uint256",
          "name": "requestId",
          "type": "uint256"
        },
        {
          "internalType": "uint256[]",
          "name": "randomWords",
          "type": "uint256[]"
        }
      ],
      "name": "rawFulfillRandomWords",
      "outputs": [],
      "stateMutability": "nonpayable",
      "type": "function"
    },
    {
      "inputs": [],
      "name": "requestConfirmations",
      "outputs": [
        {
          "internalType": "uint16",
          "name": "",
          "type": "uint16"
        }
      ],
      "stateMutability": "view",
      "type": "function"
    },
    {
      "inputs": [],
      "name": "requestRandomWords",
      "outputs": [
        {
          "internalType": "uint256",
          "name": "requestId",
          "type": "uint256"
        }
      ],
      "stateMutability": "nonpayable",
      "type": "function"
    },
    {
      "inputs": [],
      "name": "s_keyHash",
      "outputs": [
        {
          "internalType": "bytes32",
          "name": "",
          "type": "bytes32"
        }
      ],
      "stateMutability": "view",
      "type": "function"
    },
    {
      "inputs": [
        {
          "internalType": "uint256",
          "name": "",
          "type": "uint256"
        }
      ],
      "name": "s_randomWords",
      "outputs": [
        {
          "internalType": "uint256",
          "name": "",
          "type": "uint256"
        }
      ],
      "stateMutability": "view",
      "type": "function"
    },
    {
      "inputs": [
        {
          "internalType": "uint256",
          "name": "",
          "type": "uint256"
        }
      ],
      "name": "s_requestToSender",
      "outputs": [
        {
          "internalType": "address",
          "name": "",
          "type": "address"
        }
      ],
      "stateMutability": "view",
      "type": "function"
    },
    {
      "inputs": [],
      "name": "s_subscriptionId",
      "outputs": [
        {
          "internalType": "uint256",
          "name": "",
          "type": "uint256"
        }
      ],
      "stateMutability": "view",
      "type": "function"
    },
    {
      "inputs": [],
      "name": "s_vrfCoordinator",
      "outputs": [
        {
          "internalType": "contract IVRFCoordinatorV2Plus",
          "name": "",
          "type": "address"
        }
      ],
      "stateMutability": "view",
      "type": "function"
    },
    {
      "inputs": [
        {
          "internalType": "address",
          "name": "from",
          "type": "address"
        },
        {
          "internalType": "address",
          "name": "to",
          "type": "address"
        },
        {
          "internalType": "uint256",
          "name": "tokenId",
          "type": "uint256"
        }
      ],
      "name": "safeTransferFrom",
      "outputs": [],
      "stateMutability": "nonpayable",
      "type": "function"
    },
    {
      "inputs": [
        {
          "internalType": "address",
          "name": "from",
          "type": "address"
        },
        {
          "internalType": "address",
          "name": "to",
          "type": "address"
        },
        {
          "internalType": "uint256",
          "name": "tokenId",
          "type": "uint256"
        },
        {
          "internalType": "bytes",
          "name": "data",
          "type": "bytes"
        }
      ],
      "name": "safeTransferFrom",
      "outputs": [],
      "stateMutability": "nonpayable",
      "type": "function"
    },
    {
      "inputs": [
        {
          "internalType": "address",
          "name": "operator",
          "type": "address"
        },
        {
          "internalType": "bool",
          "name": "approved",
          "type": "bool"
        }
      ],
      "name": "setApprovalForAll",
      "outputs": [],
      "stateMutability": "nonpayable",
      "type": "function"
    },
    {
      "inputs": [
        {
          "internalType": "string",
          "name": "_baseURI",
          "type": "string"
        }
      ],
      "name": "setBaseURI",
      "outputs": [],
      "stateMutability": "nonpayable",
      "type": "function"
    },
    {
      "inputs": [
        {
          "internalType": "address",
          "name": "_vrfCoordinator",
          "type": "address"
        }
      ],
      "name": "setCoordinator",
      "outputs": [],
      "stateMutability": "nonpayable",
      "type": "function"
    },
    {
      "inputs": [
        {
          "internalType": "bool",
          "name": "_enableNativePayment",
          "type": "bool"
        }
      ],
      "name": "setNativePayment",
      "outputs": [],
      "stateMutability": "nonpayable",
      "type": "function"
    },
    {
      "inputs": [
        {
          "internalType": "bytes4",
          "name": "interfaceId",
          "type": "bytes4"
        }
      ],
      "name": "supportsInterface",
      "outputs": [
        {
          "internalType": "bool",
          "name": "",
          "type": "bool"
        }
      ],
      "stateMutability": "view",
      "type": "function"
    },
    {
      "inputs": [],
      "name": "symbol",
      "outputs": [
        {
          "internalType": "string",
          "name": "",
          "type": "string"
        }
      ],
      "stateMutability": "view",
      "type": "function"
    },
    {
      "inputs": [
        {
          "internalType": "uint256",
          "name": "tokenId",
          "type": "uint256"
        }
      ],
      "name": "tokenURI",
      "outputs": [
        {
          "internalType": "string",
          "name": "",
          "type": "string"
        }
      ],
      "stateMutability": "view",
      "type": "function"
    },
    {
      "inputs": [],
      "name": "totalPacksSold",
      "outputs": [
        {
          "internalType": "uint256",
          "name": "",
          "type": "uint256"
        }
      ],
      "stateMutability": "view",
      "type": "function"
    },
    {
      "inputs": [
        {
          "internalType": "address",
          "name": "from",
          "type": "address"
        },
        {
          "internalType": "address",
          "name": "to",
          "type": "address"
        },
        {
          "internalType": "uint256",
          "name": "tokenId",
          "type": "uint256"
        }
      ],
      "name": "transferFrom",
      "outputs": [],
      "stateMutability": "nonpayable",
      "type": "function"
    },
    {
      "inputs": [
        {
          "internalType": "address",
          "name": "to",
          "type": "address"
        }
      ],
      "name": "transferOwnership",
      "outputs": [],
      "stateMutability": "nonpayable",
      "type": "function"
    },
    {
      "inputs": [
        {
          "internalType": "uint256",
          "name": "newPrice",
          "type": "uint256"
        }
      ],
      "name": "updatePackPrice",
      "outputs": [],
      "stateMutability": "nonpayable",
      "type": "function"
    },
    {
      "inputs": [
        {
          "internalType": "uint256",
          "name": "newQty",
          "type": "uint256"
        }
      ],
      "name": "updatePacksAvailable",
      "outputs": [],
      "stateMutability": "nonpayable",
      "type": "function"
    },
    {
      "inputs": [],
      "name": "withdraw",
      "outputs": [],
      "stateMutability": "nonpayable",
      "type": "function"
    },
    {
      "stateMutability": "payable",
      "type": "receive"
    }
  ],
  "bytecode": "0x6080604052655af3107a4000600c557f787d74caea10b2b357790d5b5247c2f63d1d91572a9846f780606e4d953677ae60001b601355621e8480601460006101000a81548163ffffffff021916908363ffffffff1602179055506003601460046101000a81548161ffff021916908361ffff1602179055506005601460066101000a81548163ffffffff021916908363ffffffff1602179055506040518060a00160405280606f815260200162006907606f913960159081620000c3919062000756565b5066038d7ea4c680006017556064601855348015620000e157600080fd5b506040516200697638038062006976833981810160405281019062000107919062000873565b739ddfaca8183c41ad55329bdeed9f6a8d53168b1b6040518060400160405280600c81526020017f5a6f6465636b20436172647300000000000000000000000000000000000000008152506040518060400160405280600381526020017f5a444b0000000000000000000000000000000000000000000000000000000000815250338060008073ffffffffffffffffffffffffffffffffffffffff168273ffffffffffffffffffffffffffffffffffffffff1603620001fd576040517f08c379a0000000000000000000000000000000000000000000000000000000008152600401620001f49062000906565b60405180910390fd5b816000806101000a81548173ffffffffffffffffffffffffffffffffffffffff021916908373ffffffffffffffffffffffffffffffffffffffff160217905550600073ffffffffffffffffffffffffffffffffffffffff168173ffffffffffffffffffffffffffffffffffffffff161462000284576200028381620003ad60201b60201c565b5b505050816002908162000298919062000756565b508060039081620002aa919062000756565b505050600073ffffffffffffffffffffffffffffffffffffffff168173ffffffffffffffffffffffffffffffffffffffff160362000314576040517fd92e233d00000000000000000000000000000000000000000000000000000000815260040160405180910390fd5b80600960006101000a81548173ffffffffffffffffffffffffffffffffffffffff021916908373ffffffffffffffffffffffffffffffffffffffff1602179055505033600d60006101000a81548173ffffffffffffffffffffffffffffffffffffffff021916908373ffffffffffffffffffffffffffffffffffffffff160217905550806012819055506000601981905550506200099a565b3373ffffffffffffffffffffffffffffffffffffffff168173ffffffffffffffffffffffffffffffffffffffff16036200041e576040517f08c379a0000000000000000000000000000000000000000000000000000000008152600401620004159062000978565b60405180910390fd5b80600160006101000a81548173ffffffffffffffffffffffffffffffffffffffff021916908373ffffffffffffffffffffffffffffffffffffffff1602179055508073ffffffffffffffffffffffffffffffffffffffff1660008054906101000a900473ffffffffffffffffffffffffffffffffffffffff1673ffffffffffffffffffffffffffffffffffffffff167fed8889f560326eb138920d842192f0eb3dd22b4f139c87a2c57538e05bae127860405160405180910390a350565b600081519050919050565b7f4e487b7100000000000000000000000000000000000000000000000000000000600052604160045260246000fd5b7f4e487b7100000000000000000000000000000000000000000000000000000000600052602260045260246000fd5b600060028204905060018216806200055e57607f821691505b60208210810362000574576200057362000516565b5b50919050565b60008190508160005260206000209050919050565b60006020601f8301049050919050565b600082821b905092915050565b600060088302620005de7fffffffffffffffffffffffffffffffffffffffffffffffffffffffffffffffff826200059f565b620005ea86836200059f565b95508019841693508086168417925050509392505050565b6000819050919050565b6000819050919050565b600062000637620006316200062b8462000602565b6200060c565b62000602565b9050919050565b6000819050919050565b620006538362000616565b6200066b62000662826200063e565b848454620005ac565b825550505050565b600090565b6200068262000673565b6200068f81848462000648565b505050565b5b81811015620006b757620006ab60008262000678565b60018101905062000695565b5050565b601f8211156200070657620006d0816200057a565b620006db846200058f565b81016020851015620006eb578190505b62000703620006fa856200058f565b83018262000694565b50505b505050565b600082821c905092915050565b60006200072b600019846008026200070b565b1980831691505092915050565b600062000746838362000718565b9150826002028217905092915050565b6200076182620004dc565b67ffffffffffffffff8111156200077d576200077c620004e7565b5b62000789825462000545565b62000796828285620006bb565b600060209050601f831160018114620007ce5760008415620007b9578287015190505b620007c5858262000738565b86555062000835565b601f198416620007de866200057a565b60005b828110156200080857848901518255600182019150602085019450602081019050620007e1565b8683101562000828578489015162000824601f89168262000718565b8355505b6001600288020188555050505b505050505050565b600080fd5b6200084d8162000602565b81146200085957600080fd5b50565b6000815190506200086d8162000842565b92915050565b6000602082840312156200088c576200088b6200083d565b5b60006200089c848285016200085c565b91505092915050565b600082825260208201905092915050565b7f43616e6e6f7420736574206f776e657220746f207a65726f0000000000000000600082015250565b6000620008ee601883620008a5565b9150620008fb82620008b6565b602082019050919050565b600060208201905081810360008301526200092181620008df565b9050919050565b7f43616e6e6f74207472616e7366657220746f2073656c66000000000000000000600082015250565b600062000960601783620008a5565b91506200096d8262000928565b602082019050919050565b60006020820190508181036000830152620009938162000951565b9050919050565b615f5d80620009aa6000396000f3fe6080604052600436106103395760003560e01c80636c0360eb116101ab578063a22cb465116100f7578063d759000b11610095578063e985e9c51161006f578063e985e9c514610cf0578063ed36c52f14610d2d578063f2fde38b14610d49578063f6eaffc814610d7257610409565b8063d759000b14610c6f578063d917bf3e14610c9a578063e0c8628914610cc557610409565b8063b0fb162f116100d1578063b0fb162f14610bb3578063b88d4fde14610bde578063c0abba9e14610c07578063c87b56dd14610c3257610409565b8063a22cb46514610b31578063a54447aa14610b5a578063ad49ba1b14610b7657610409565b80637ccfd7fc116101645780638da5cb5b1161013e5780638da5cb5b14610a875780638ea9811714610ab257806395d89b4114610adb5780639eccacf614610b0657610409565b80637ccfd7fc14610a065780637f95e4b314610a315780638ac0002114610a5c57610409565b80636c0360eb1461090357806370a082311461092e57806373b4df051461096b57806375794a3c1461099b57806379ba5097146109c65780637cc539b4146109dd57610409565b80632e602d291161028557806345bb327b1161022357806355f804b3116101fd57806355f804b3146108375780635aa88fd5146108605780636273ce9b1461089d5780636352211e146108c657610409565b806345bb327b146107b657806345f8fa80146107e157806355901bb01461080c57610409565b80634129c1c11161025f5780634129c1c1146106e857806342842e0e14610725578063434a49a11461074e578063442890d51461078b57610409565b80632e602d2914610669578063335c8b63146106a65780633ccfd60b146106d157610409565b806312e85585116102f2578063202e3740116102cc578063202e3740146105ad57806323b872dd146105d857806324f74697146106015780632916b1301461062c57610409565b806312e85585146105305780631a01d53a1461055b5780631fe543e31461058457610409565b806301ffc9a71461040e57806306fdde031461044b57806307c11e0d14610476578063081812fc146104a1578063095ea7b3146104de5780630c6dcd311461050757610409565b3661040957600060185411610383576040517f08c379a000000000000000000000000000000000000000000000000000000000815260040161037a90614459565b60405180910390fd5b60175434146103c7576040517f08c379a00000000000000000000000000000000000000000000000000000000081526004016103be906144c5565b60405180910390fd5b6103dd6001601954610daf90919063ffffffff16565b6019819055506103f96001601854610ddb90919063ffffffff16565b601881905550610407610e02565b005b600080fd5b34801561041a57600080fd5b5061043560048036038101906104309190614551565b610fcd565b6040516104429190614599565b60405180910390f35b34801561045757600080fd5b5061046061102e565b60405161046d9190614633565b60405180910390f35b34801561048257600080fd5b5061048b6110c0565b60405161049891906147e8565b60405180910390f35b3480156104ad57600080fd5b506104c860048036038101906104c39190614836565b611311565b6040516104d59190614884565b60405180910390f35b3480156104ea57600080fd5b50610505600480360381019061050091906148cb565b61132d565b005b34801561051357600080fd5b5061052e60048036038101906105299190614937565b611343565b005b34801561053c57600080fd5b50610545611368565b6040516105529190614973565b60405180910390f35b34801561056757600080fd5b50610582600480360381019061057d9190614836565b611372565b005b34801561059057600080fd5b506105ab60048036038101906105a691906149f3565b611384565b005b3480156105b957600080fd5b506105c261144a565b6040516105cf91906147e8565b60405180910390f35b3480156105e457600080fd5b506105ff60048036038101906105fa9190614a53565b611747565b005b34801561060d57600080fd5b50610616611849565b6040516106239190614ac5565b60405180910390f35b34801561063857600080fd5b50610653600480360381019061064e9190614836565b61185f565b6040516106609190614973565b60405180910390f35b34801561067557600080fd5b50610690600480360381019061068b9190614836565b61187c565b60405161069d9190614884565b60405180910390f35b3480156106b257600080fd5b506106bb6118af565b6040516106c89190614973565b60405180910390f35b3480156106dd57600080fd5b506106e66118b5565b005b3480156106f457600080fd5b5061070f600480360381019061070a9190614836565b611913565b60405161071c9190614973565b60405180910390f35b34801561073157600080fd5b5061074c60048036038101906107479190614a53565b61192b565b005b34801561075a57600080fd5b5061077560048036038101906107709190614ae0565b61194b565b6040516107829190614bbc565b60405180910390f35b34801561079757600080fd5b506107a06119e2565b6040516107ad9190614884565b60405180910390f35b3480156107c257600080fd5b506107cb611a0c565b6040516107d89190614bf7565b60405180910390f35b3480156107ed57600080fd5b506107f6611a12565b60405161080391906147e8565b60405180910390f35b34801561081857600080fd5b50610821611d0f565b60405161082e9190614973565b60405180910390f35b34801561084357600080fd5b5061085e60048036038101906108599190614d42565b611d19565b005b34801561086c57600080fd5b5061088760048036038101906108829190614836565b611d34565b6040516108949190614599565b60405180910390f35b3480156108a957600080fd5b506108c460048036038101906108bf9190614e4e565b611d61565b005b3480156108d257600080fd5b506108ed60048036038101906108e89190614836565b61207e565b6040516108fa9190614884565b60405180910390f35b34801561090f57600080fd5b50610918612090565b6040516109259190614633565b60405180910390f35b34801561093a57600080fd5b5061095560048036038101906109509190614ae0565b61211e565b6040516109629190614973565b60405180910390f35b61098560048036038101906109809190614ebd565b6121d8565b6040516109929190614973565b60405180910390f35b3480156109a757600080fd5b506109b061235c565b6040516109bd9190614973565b60405180910390f35b3480156109d257600080fd5b506109db612362565b005b3480156109e957600080fd5b50610a0460048036038101906109ff9190614836565b6124f7565b005b348015610a1257600080fd5b50610a1b612509565b604051610a289190614ac5565b60405180910390f35b348015610a3d57600080fd5b50610a4661251f565b604051610a539190614633565b60405180910390f35b348015610a6857600080fd5b50610a716125af565b604051610a7e9190614973565b60405180910390f35b348015610a9357600080fd5b50610a9c6125b5565b604051610aa99190614884565b60405180910390f35b348015610abe57600080fd5b50610ad96004803603810190610ad49190614ae0565b6125de565b005b348015610ae757600080fd5b50610af06127bf565b604051610afd9190614633565b60405180910390f35b348015610b1257600080fd5b50610b1b612851565b604051610b289190614f8b565b60405180910390f35b348015610b3d57600080fd5b50610b586004803603810190610b539190614fa6565b612877565b005b610b746004803603810190610b6f9190614836565b61288d565b005b348015610b8257600080fd5b50610b9d6004803603810190610b989190614836565b612add565b604051610baa9190614bbc565b60405180910390f35b348015610bbf57600080fd5b50610bc8612b48565b604051610bd59190615003565b60405180910390f35b348015610bea57600080fd5b50610c056004803603810190610c0091906150bf565b612b5c565b005b348015610c1357600080fd5b50610c1c612b81565b604051610c299190614973565b60405180910390f35b348015610c3e57600080fd5b50610c596004803603810190610c549190614836565b612b87565b604051610c669190614633565b60405180910390f35b348015610c7b57600080fd5b50610c84612c9a565b604051610c919190614973565b60405180910390f35b348015610ca657600080fd5b50610caf612ca0565b604051610cbc9190614973565b60405180910390f35b348015610cd157600080fd5b50610cda610e02565b604051610ce79190614973565b60405180910390f35b348015610cfc57600080fd5b50610d176004803603810190610d129190615142565b612caa565b604051610d249190614599565b60405180910390f35b610d476004803603810190610d429190615182565b612d3e565b005b348015610d5557600080fd5b50610d706004803603810190610d6b9190614ae0565b612d90565b005b348015610d7e57600080fd5b50610d996004803603810190610d949190614836565b612da4565b604051610da69190614973565b60405180910390f35b6000808284610dbe91906151f1565b905083811015610dd157610dd0615225565b5b8091505092915050565b600082821115610dee57610ded615225565b5b8183610dfa9190615254565b905092915050565b6000600960009054906101000a900473ffffffffffffffffffffffffffffffffffffffff1673ffffffffffffffffffffffffffffffffffffffff16639b1c385e6040518060c0016040528060135481526020016012548152602001601460049054906101000a900461ffff1661ffff168152602001601460009054906101000a900463ffffffff1663ffffffff168152602001601460069054906101000a900463ffffffff1663ffffffff168152602001610edb6040518060200160405280601660009054906101000a900460ff161515815250612dc8565b8152506040518263ffffffff1660e01b8152600401610efa9190615393565b6020604051808303816000875af1158015610f19573d6000803e3d6000fd5b505050506040513d601f19601f82011682018060405250810190610f3d91906153ca565b905033601a600083815260200190815260200160002060006101000a81548173ffffffffffffffffffffffffffffffffffffffff021916908373ffffffffffffffffffffffffffffffffffffffff1602179055507f28f521cf7abd0044cba5bb040c5217ff69a4e5865f5262905018698e68fe7d008133604051610fc29291906153f7565b60405180910390a190565b6000634906490660e01b7bffffffffffffffffffffffffffffffffffffffffffffffffffffffff1916827bffffffffffffffffffffffffffffffffffffffffffffffffffffffff19161480611027575061102682612e60565b5b9050919050565b60606002805461103d9061544f565b80601f01602080910402602001604051908101604052809291908181526020018280546110699061544f565b80156110b65780601f1061108b576101008083540402835291602001916110b6565b820191906000526020600020905b81548152906001019060200180831161109957829003601f168201915b5050505050905090565b60606000600a549050600080600b5467ffffffffffffffff8111156110e8576110e7614c17565b5b60405190808252806020026020018201604052801561112157816020015b61110e614308565b8152602001906001900390816111065790505b50905060005b83811015611307573073ffffffffffffffffffffffffffffffffffffffff16600e600060018461115791906151f1565b815260200190815260200160002060020160009054906101000a900473ffffffffffffffffffffffffffffffffffffffff1673ffffffffffffffffffffffffffffffffffffffff16036112f45760006001826111b391906151f1565b90506000600e60008381526020019081526020016000209050806040518060c0016040529081600082015481526020016001820160009054906101000a900473ffffffffffffffffffffffffffffffffffffffff1673ffffffffffffffffffffffffffffffffffffffff1673ffffffffffffffffffffffffffffffffffffffff1681526020016002820160009054906101000a900473ffffffffffffffffffffffffffffffffffffffff1673ffffffffffffffffffffffffffffffffffffffff1673ffffffffffffffffffffffffffffffffffffffff168152602001600382015481526020016004820160009054906101000a900460ff161515151581526020016005820154815250508486815181106112d0576112cf615480565b5b60200260200101819052506112ef600186610daf90919063ffffffff16565b945050505b80806112ff906154af565b915050611127565b5080935050505090565b600061131c82612f42565b5061132682612fca565b9050919050565b61133f828261133a613007565b61300f565b5050565b61134b613021565b80601660006101000a81548160ff02191690831515021790555050565b6000600c54905090565b61137a613021565b8060188190555050565b600960009054906101000a900473ffffffffffffffffffffffffffffffffffffffff1673ffffffffffffffffffffffffffffffffffffffff163373ffffffffffffffffffffffffffffffffffffffff161461143a5733600960009054906101000a900473ffffffffffffffffffffffffffffffffffffffff166040517f1cf993f40000000000000000000000000000000000000000000000000000000081526004016114319291906154f7565b60405180910390fd5b6114458383836130b1565b505050565b60606000600a54905060008060005b83811015611500573373ffffffffffffffffffffffffffffffffffffffff16600e600060018461148991906151f1565b815260200190815260200160002060020160009054906101000a900473ffffffffffffffffffffffffffffffffffffffff1673ffffffffffffffffffffffffffffffffffffffff16036114ed576114ea600184610daf90919063ffffffff16565b92505b80806114f8906154af565b915050611459565b5060008267ffffffffffffffff81111561151d5761151c614c17565b5b60405190808252806020026020018201604052801561155657816020015b611543614308565b81526020019060019003908161153b5790505b50905060005b8481101561173c573373ffffffffffffffffffffffffffffffffffffffff16600e600060018461158c91906151f1565b815260200190815260200160002060020160009054906101000a900473ffffffffffffffffffffffffffffffffffffffff1673ffffffffffffffffffffffffffffffffffffffff16036117295760006001826115e891906151f1565b90506000600e60008381526020019081526020016000209050806040518060c0016040529081600082015481526020016001820160009054906101000a900473ffffffffffffffffffffffffffffffffffffffff1673ffffffffffffffffffffffffffffffffffffffff1673ffffffffffffffffffffffffffffffffffffffff1681526020016002820160009054906101000a900473ffffffffffffffffffffffffffffffffffffffff1673ffffffffffffffffffffffffffffffffffffffff1673ffffffffffffffffffffffffffffffffffffffff168152602001600382015481526020016004820160009054906101000a900460ff1615151515815260200160058201548152505084868151811061170557611704615480565b5b6020026020010181905250611724600186610daf90919063ffffffff16565b945050505b8080611734906154af565b91505061155c565b508094505050505090565b600073ffffffffffffffffffffffffffffffffffffffff168273ffffffffffffffffffffffffffffffffffffffff16036117b95760006040517f64a0ae920000000000000000000000000000000000000000000000000000000081526004016117b09190614884565b60405180910390fd5b60006117cd83836117c8613007565b613147565b90508373ffffffffffffffffffffffffffffffffffffffff168173ffffffffffffffffffffffffffffffffffffffff1614611843578382826040517f64283d7b00000000000000000000000000000000000000000000000000000000815260040161183a93929190615520565b60405180910390fd5b50505050565b601460009054906101000a900463ffffffff1681565b6000601e6000838152602001908152602001600020549050919050565b601a6020528060005260406000206000915054906101000a900473ffffffffffffffffffffffffffffffffffffffff1681565b60175481565b6118bd613021565b60006118c76125b5565b90508073ffffffffffffffffffffffffffffffffffffffff166108fc479081150290604051600060405180830381858888f1935050505015801561190f573d6000803e3d6000fd5b5050565b601e6020528060005260406000206000915090505481565b61194683838360405180602001604052806000815250612b5c565b505050565b6060601c60008373ffffffffffffffffffffffffffffffffffffffff1673ffffffffffffffffffffffffffffffffffffffff1681526020019081526020016000208054806020026020016040519081016040528092919081815260200182805480156119d657602002820191906000526020600020905b8154815260200190600101908083116119c2575b50505050509050919050565b6000600d60009054906101000a900473ffffffffffffffffffffffffffffffffffffffff16905090565b60135481565b60606000600a54905060008060005b83811015611ac8573373ffffffffffffffffffffffffffffffffffffffff16600e6000600184611a5191906151f1565b815260200190815260200160002060010160009054906101000a900473ffffffffffffffffffffffffffffffffffffffff1673ffffffffffffffffffffffffffffffffffffffff1603611ab557611ab2600184610daf90919063ffffffff16565b92505b8080611ac0906154af565b915050611a21565b5060008267ffffffffffffffff811115611ae557611ae4614c17565b5b604051908082528060200260200182016040528015611b1e57816020015b611b0b614308565b815260200190600190039081611b035790505b50905060005b84811015611d04573373ffffffffffffffffffffffffffffffffffffffff16600e6000600184611b5491906151f1565b815260200190815260200160002060010160009054906101000a900473ffffffffffffffffffffffffffffffffffffffff1673ffffffffffffffffffffffffffffffffffffffff1603611cf1576000600182611bb091906151f1565b90506000600e60008381526020019081526020016000209050806040518060c0016040529081600082015481526020016001820160009054906101000a900473ffffffffffffffffffffffffffffffffffffffff1673ffffffffffffffffffffffffffffffffffffffff1673ffffffffffffffffffffffffffffffffffffffff1681526020016002820160009054906101000a900473ffffffffffffffffffffffffffffffffffffffff1673ffffffffffffffffffffffffffffffffffffffff1673ffffffffffffffffffffffffffffffffffffffff168152602001600382015481526020016004820160009054906101000a900460ff16151515158152602001600582015481525050848681518110611ccd57611ccc615480565b5b6020026020010181905250611cec600186610daf90919063ffffffff16565b945050505b8080611cfc906154af565b915050611b24565b508094505050505090565b6000601954905090565b611d21613021565b8060159081611d3091906156f9565b5050565b6000600e600083815260200190815260200160002060040160009054906101000a900460ff169050919050565b601460069054906101000a900463ffffffff1663ffffffff16835114611dbc576040517f08c379a0000000000000000000000000000000000000000000000000000000008152600401611db390615817565b60405180910390fd5b600073ffffffffffffffffffffffffffffffffffffffff168273ffffffffffffffffffffffffffffffffffffffff1603611e2b576040517f08c379a0000000000000000000000000000000000000000000000000000000008152600401611e2290615883565b60405180910390fd5b6000835167ffffffffffffffff811115611e4857611e47614c17565b5b604051908082528060200260200182016040528015611e765781602001602082028036833780820191505090505b50905060005b8451811015611f8357600060016030878481518110611e9e57611e9d615480565b5b6020026020010151611eb091906158d2565b611eba91906151f1565b905060006015611ec983613361565b604051602001611eda929190615a0e565b60405160208183030381529060405290506000611ef88288856121d8565b905080858581518110611f0e57611f0d615480565b5b60200260200101818152505082601e6000838152602001908152602001600020819055507fd8734743ed0c1c7547379b55d892e5cea71bc5371832ffa4149a506fbc1aa6d0818884604051611f6593929190615a3d565b60405180910390a15050508080611f7b906154af565b915050611e7c565b5060005b815181101561207757601c60008573ffffffffffffffffffffffffffffffffffffffff1673ffffffffffffffffffffffffffffffffffffffff168152602001908152602001600020828281518110611fe257611fe1615480565b5b60200260200101519080600181540180825580915050600190039060005260206000200160009091909190915055601d600084815260200190815260200160002082828151811061203657612035615480565b5b60200260200101519080600181540180825580915050600190039060005260206000200160009091909190915055808061206f906154af565b915050611f87565b5050505050565b600061208982612f42565b9050919050565b6015805461209d9061544f565b80601f01602080910402602001604051908101604052809291908181526020018280546120c99061544f565b80156121165780601f106120eb57610100808354040283529160200191612116565b820191906000526020600020905b8154815290600101906020018083116120f957829003601f168201915b505050505081565b60008073ffffffffffffffffffffffffffffffffffffffff168273ffffffffffffffffffffffffffffffffffffffff16036121915760006040517f89c62b640000000000000000000000000000000000000000000000000000000081526004016121889190614884565b60405180910390fd5b600560008373ffffffffffffffffffffffffffffffffffffffff1673ffffffffffffffffffffffffffffffffffffffff168152602001908152602001600020549050919050565b60006121f06001600a54610daf90919063ffffffff16565b600a819055506000600a549050612207848261342f565b6122118186613528565b6040518060c00160405280828152602001600073ffffffffffffffffffffffffffffffffffffffff1681526020018573ffffffffffffffffffffffffffffffffffffffff1681526020016000815260200160011515815260200184815250600e60008381526020019081526020016000206000820151816000015560208201518160010160006101000a81548173ffffffffffffffffffffffffffffffffffffffff021916908373ffffffffffffffffffffffffffffffffffffffff16021790555060408201518160020160006101000a81548173ffffffffffffffffffffffffffffffffffffffff021916908373ffffffffffffffffffffffffffffffffffffffff1602179055506060820151816003015560808201518160040160006101000a81548160ff02191690831515021790555060a08201518160050155905050809150509392505050565b60115481565b600160009054906101000a900473ffffffffffffffffffffffffffffffffffffffff1673ffffffffffffffffffffffffffffffffffffffff163373ffffffffffffffffffffffffffffffffffffffff16146123f2576040517f08c379a00000000000000000000000000000000000000000000000000000000081526004016123e990615ac7565b60405180910390fd5b60008060009054906101000a900473ffffffffffffffffffffffffffffffffffffffff169050336000806101000a81548173ffffffffffffffffffffffffffffffffffffffff021916908373ffffffffffffffffffffffffffffffffffffffff1602179055506000600160006101000a81548173ffffffffffffffffffffffffffffffffffffffff021916908373ffffffffffffffffffffffffffffffffffffffff1602179055503373ffffffffffffffffffffffffffffffffffffffff168173ffffffffffffffffffffffffffffffffffffffff167f8be0079c531659141344cd1fd0a4f28419497f9722a3daafe3b4186f6b6457e060405160405180910390a350565b6124ff613021565b8060178190555050565b601460069054906101000a900463ffffffff1681565b6060601660009054906101000a900460ff1615612573576040518060400160405280601381526020017f56524620676173206665657320696e204554480000000000000000000000000081525090506125ac565b6040518060400160405280601481526020017f56524620676173206665657320696e204c494e4b00000000000000000000000081525090505b90565b60125481565b60008060009054906101000a900473ffffffffffffffffffffffffffffffffffffffff16905090565b6125e66125b5565b73ffffffffffffffffffffffffffffffffffffffff163373ffffffffffffffffffffffffffffffffffffffff161415801561266f5750600960009054906101000a900473ffffffffffffffffffffffffffffffffffffffff1673ffffffffffffffffffffffffffffffffffffffff163373ffffffffffffffffffffffffffffffffffffffff1614155b156126de573361267d6125b5565b600960009054906101000a900473ffffffffffffffffffffffffffffffffffffffff166040517f061db9c10000000000000000000000000000000000000000000000000000000081526004016126d593929190615ae7565b60405180910390fd5b600073ffffffffffffffffffffffffffffffffffffffff168173ffffffffffffffffffffffffffffffffffffffff1603612744576040517fd92e233d00000000000000000000000000000000000000000000000000000000815260040160405180910390fd5b80600960006101000a81548173ffffffffffffffffffffffffffffffffffffffff021916908373ffffffffffffffffffffffffffffffffffffffff1602179055507fd1a6a14209a385a964d036e404cb5cfb71f4000cdb03c9366292430787261be6816040516127b49190614884565b60405180910390a150565b6060600380546127ce9061544f565b80601f01602080910402602001604051908101604052809291908181526020018280546127fa9061544f565b80156128475780601f1061281c57610100808354040283529160200191612847565b820191906000526020600020905b81548152906001019060200180831161282a57829003601f168201915b5050505050905090565b600960009054906101000a900473ffffffffffffffffffffffffffffffffffffffff1681565b612889612882613007565b8383613584565b5050565b6000600e60008381526020019081526020016000206003015490506000600e600084815260200190815260200160002060010160009054906101000a900473ffffffffffffffffffffffffffffffffffffffff169050813414612925576040517f08c379a000000000000000000000000000000000000000000000000000000000815260040161291c90615b90565b60405180910390fd5b33600e600085815260200190815260200160002060020160006101000a81548173ffffffffffffffffffffffffffffffffffffffff021916908373ffffffffffffffffffffffffffffffffffffffff1602179055506001600e600085815260200190815260200160002060040160006101000a81548160ff0219169083151502179055506000600e600085815260200190815260200160002060010160006101000a81548173ffffffffffffffffffffffffffffffffffffffff021916908373ffffffffffffffffffffffffffffffffffffffff160217905550612a156001600b54610ddb90919063ffffffff16565b600b81905550612a263033856136f3565b600d60009054906101000a900473ffffffffffffffffffffffffffffffffffffffff1673ffffffffffffffffffffffffffffffffffffffff166108fc600c549081150290604051600060405180830381858888f19350505050158015612a90573d6000803e3d6000fd5b508073ffffffffffffffffffffffffffffffffffffffff166108fc349081150290604051600060405180830381858888f19350505050158015612ad7573d6000803e3d6000fd5b50505050565b6060601d6000838152602001908152602001600020805480602002602001604051908101604052809291908181526020018280548015612b3c57602002820191906000526020600020905b815481526020019060010190808311612b28575b50505050509050919050565b601460049054906101000a900461ffff1681565b612b67848484611747565b612b7b612b72613007565b85858585613860565b50505050565b60195481565b6060612b9282612f42565b506000600860008481526020019081526020016000208054612bb39061544f565b80601f0160208091040260200160405190810160405280929190818152602001828054612bdf9061544f565b8015612c2c5780601f10612c0157610100808354040283529160200191612c2c565b820191906000526020600020905b815481529060010190602001808311612c0f57829003601f168201915b505050505090506000612c3d613a11565b90506000815103612c52578192505050612c95565b600082511115612c87578082604051602001612c6f929190615bb0565b60405160208183030381529060405292505050612c95565b612c9084613a28565b925050505b919050565b60185481565b6000601854905090565b6000600760008473ffffffffffffffffffffffffffffffffffffffff1673ffffffffffffffffffffffffffffffffffffffff16815260200190815260200160002060008373ffffffffffffffffffffffffffffffffffffffff1673ffffffffffffffffffffffffffffffffffffffff16815260200190815260200160002060009054906101000a900460ff16905092915050565b600c543414612d82576040517f08c379a0000000000000000000000000000000000000000000000000000000008152600401612d7990615c46565b60405180910390fd5b612d8c8282613a91565b5050565b612d98613021565b612da181613c98565b50565b60108181548110612db457600080fd5b906000526020600020016000915090505481565b60607f92fd13387c7fe7befbc38d303d6468778fb9731bc4583f17d92989c6fcfdeaaa82604051602401612dfc9190615c82565b604051602081830303815290604052907bffffffffffffffffffffffffffffffffffffffffffffffffffffffff19166020820180517bffffffffffffffffffffffffffffffffffffffffffffffffffffffff83818316178352505050509050919050565b60007f80ac58cd000000000000000000000000000000000000000000000000000000007bffffffffffffffffffffffffffffffffffffffffffffffffffffffff1916827bffffffffffffffffffffffffffffffffffffffffffffffffffffffff19161480612f2b57507f5b5e139f000000000000000000000000000000000000000000000000000000007bffffffffffffffffffffffffffffffffffffffffffffffffffffffff1916827bffffffffffffffffffffffffffffffffffffffffffffffffffffffff1916145b80612f3b5750612f3a82613dc4565b5b9050919050565b600080612f4e83613e2e565b9050600073ffffffffffffffffffffffffffffffffffffffff168173ffffffffffffffffffffffffffffffffffffffff1603612fc157826040517f7e273289000000000000000000000000000000000000000000000000000000008152600401612fb89190614973565b60405180910390fd5b80915050919050565b60006006600083815260200190815260200160002060009054906101000a900473ffffffffffffffffffffffffffffffffffffffff169050919050565b600033905090565b61301c8383836001613e6b565b505050565b60008054906101000a900473ffffffffffffffffffffffffffffffffffffffff1673ffffffffffffffffffffffffffffffffffffffff163373ffffffffffffffffffffffffffffffffffffffff16146130af576040517f08c379a00000000000000000000000000000000000000000000000000000000081526004016130a690615ce9565b60405180910390fd5b565b8181601091906130c292919061436c565b50613142828280806020026020016040519081016040528093929190818152602001838360200280828437600081840152601f19601f82011690508083019250505050505050601a600086815260200190815260200160002060009054906101000a900473ffffffffffffffffffffffffffffffffffffffff1685611d61565b505050565b60008061315384613e2e565b9050600073ffffffffffffffffffffffffffffffffffffffff168373ffffffffffffffffffffffffffffffffffffffff161461319557613194818486614030565b5b600073ffffffffffffffffffffffffffffffffffffffff168173ffffffffffffffffffffffffffffffffffffffff1614613226576131d7600085600080613e6b565b6001600560008373ffffffffffffffffffffffffffffffffffffffff1673ffffffffffffffffffffffffffffffffffffffff168152602001908152602001600020600082825403925050819055505b600073ffffffffffffffffffffffffffffffffffffffff168573ffffffffffffffffffffffffffffffffffffffff16146132a9576001600560008773ffffffffffffffffffffffffffffffffffffffff1673ffffffffffffffffffffffffffffffffffffffff168152602001908152602001600020600082825401925050819055505b846004600086815260200190815260200160002060006101000a81548173ffffffffffffffffffffffffffffffffffffffff021916908373ffffffffffffffffffffffffffffffffffffffff160217905550838573ffffffffffffffffffffffffffffffffffffffff168273ffffffffffffffffffffffffffffffffffffffff167fddf252ad1be2c89b69c2b068fc378daa952ba7f163c4a11628f55a4df523b3ef60405160405180910390a4809150509392505050565b606060006001613370846140f4565b01905060008167ffffffffffffffff81111561338f5761338e614c17565b5b6040519080825280601f01601f1916602001820160405280156133c15781602001600182028036833780820191505090505b509050600082602001820190505b600115613424578080600190039150507f3031323334353637383961626364656600000000000000000000000000000000600a86061a8153600a8581613418576134176158a3565b5b049450600085036133cf575b819350505050919050565b600073ffffffffffffffffffffffffffffffffffffffff168273ffffffffffffffffffffffffffffffffffffffff16036134a15760006040517f64a0ae920000000000000000000000000000000000000000000000000000000081526004016134989190614884565b60405180910390fd5b60006134af83836000613147565b9050600073ffffffffffffffffffffffffffffffffffffffff168173ffffffffffffffffffffffffffffffffffffffff16146135235760006040517f73c6ac6e00000000000000000000000000000000000000000000000000000000815260040161351a9190614884565b60405180910390fd5b505050565b8060086000848152602001908152602001600020908161354891906156f9565b507ff8e1a15aba9398e019f0b49df1a4fde98ee17ae345cb5f6b5e2c27f5033e8ce7826040516135789190614973565b60405180910390a15050565b600073ffffffffffffffffffffffffffffffffffffffff168273ffffffffffffffffffffffffffffffffffffffff16036135f557816040517f5b08ba180000000000000000000000000000000000000000000000000000000081526004016135ec9190614884565b60405180910390fd5b80600760008573ffffffffffffffffffffffffffffffffffffffff1673ffffffffffffffffffffffffffffffffffffffff16815260200190815260200160002060008473ffffffffffffffffffffffffffffffffffffffff1673ffffffffffffffffffffffffffffffffffffffff16815260200190815260200160002060006101000a81548160ff0219169083151502179055508173ffffffffffffffffffffffffffffffffffffffff168373ffffffffffffffffffffffffffffffffffffffff167f17307eab39ab6107e8899845ad3d59bd9653f200f220920489ca2b5937696c31836040516136e69190614599565b60405180910390a3505050565b600073ffffffffffffffffffffffffffffffffffffffff168273ffffffffffffffffffffffffffffffffffffffff16036137655760006040517f64a0ae9200000000000000000000000000000000000000000000000000000000815260040161375c9190614884565b60405180910390fd5b600061377383836000613147565b9050600073ffffffffffffffffffffffffffffffffffffffff168173ffffffffffffffffffffffffffffffffffffffff16036137e657816040517f7e2732890000000000000000000000000000000000000000000000000000000081526004016137dd9190614973565b60405180910390fd5b8373ffffffffffffffffffffffffffffffffffffffff168173ffffffffffffffffffffffffffffffffffffffff161461385a578382826040517f64283d7b00000000000000000000000000000000000000000000000000000000815260040161385193929190615520565b60405180910390fd5b50505050565b60008373ffffffffffffffffffffffffffffffffffffffff163b1115613a0a578273ffffffffffffffffffffffffffffffffffffffff1663150b7a02868685856040518563ffffffff1660e01b81526004016138bf9493929190615d53565b6020604051808303816000875af19250505080156138fb57506040513d601f19601f820116820180604052508101906138f89190615db4565b60015b61397f573d806000811461392b576040519150601f19603f3d011682016040523d82523d6000602084013e613930565b606091505b50600081510361397757836040517f64a0ae9200000000000000000000000000000000000000000000000000000000815260040161396e9190614884565b60405180910390fd5b805181602001fd5b63150b7a0260e01b7bffffffffffffffffffffffffffffffffffffffffffffffffffffffff1916817bffffffffffffffffffffffffffffffffffffffffffffffffffffffff191614613a0857836040517f64a0ae920000000000000000000000000000000000000000000000000000000081526004016139ff9190614884565b60405180910390fd5b505b5050505050565b606060405180602001604052806000815250905090565b6060613a3382612f42565b506000613a3e613a11565b90506000815111613a5e5760405180602001604052806000815250613a89565b80613a6884613361565b604051602001613a79929190615bb0565b6040516020818303038152906040525b915050919050565b60008111613ad4576040517f08c379a0000000000000000000000000000000000000000000000000000000008152600401613acb90615e2d565b60405180910390fd5b613aea6001600b54610daf90919063ffffffff16565b600b819055506000600e60008481526020019081526020016000206005015490506040518060c001604052808481526020013373ffffffffffffffffffffffffffffffffffffffff1681526020013073ffffffffffffffffffffffffffffffffffffffff16815260200183815260200160001515815260200182815250600e60008581526020019081526020016000206000820151816000015560208201518160010160006101000a81548173ffffffffffffffffffffffffffffffffffffffff021916908373ffffffffffffffffffffffffffffffffffffffff16021790555060408201518160020160006101000a81548173ffffffffffffffffffffffffffffffffffffffff021916908373ffffffffffffffffffffffffffffffffffffffff1602179055506060820151816003015560808201518160040160006101000a81548160ff02191690831515021790555060a08201518160050155905050613c543330856136f3565b827f3cf8eaa46d9accaa9c8e76a1b58ee317d0eac0885fb7635711309f21e5a25fb93330856000604051613c8b9493929190615e4d565b60405180910390a2505050565b3373ffffffffffffffffffffffffffffffffffffffff168173ffffffffffffffffffffffffffffffffffffffff1603613d06576040517f08c379a0000000000000000000000000000000000000000000000000000000008152600401613cfd90615ede565b60405180910390fd5b80600160006101000a81548173ffffffffffffffffffffffffffffffffffffffff021916908373ffffffffffffffffffffffffffffffffffffffff1602179055508073ffffffffffffffffffffffffffffffffffffffff1660008054906101000a900473ffffffffffffffffffffffffffffffffffffffff1673ffffffffffffffffffffffffffffffffffffffff167fed8889f560326eb138920d842192f0eb3dd22b4f139c87a2c57538e05bae127860405160405180910390a350565b60007f01ffc9a7000000000000000000000000000000000000000000000000000000007bffffffffffffffffffffffffffffffffffffffffffffffffffffffff1916827bffffffffffffffffffffffffffffffffffffffffffffffffffffffff1916149050919050565b60006004600083815260200190815260200160002060009054906101000a900473ffffffffffffffffffffffffffffffffffffffff169050919050565b8080613ea45750600073ffffffffffffffffffffffffffffffffffffffff168273ffffffffffffffffffffffffffffffffffffffff1614155b15613fd8576000613eb484612f42565b9050600073ffffffffffffffffffffffffffffffffffffffff168373ffffffffffffffffffffffffffffffffffffffff1614158015613f1f57508273ffffffffffffffffffffffffffffffffffffffff168173ffffffffffffffffffffffffffffffffffffffff1614155b8015613f325750613f308184612caa565b155b15613f7457826040517fa9fbf51f000000000000000000000000000000000000000000000000000000008152600401613f6b9190614884565b60405180910390fd5b8115613fd657838573ffffffffffffffffffffffffffffffffffffffff168273ffffffffffffffffffffffffffffffffffffffff167f8c5be1e5ebec7d5bd14f71427d1e84f3dd0314c0f7b2291e5b200ac8c7c3b92560405160405180910390a45b505b836006600085815260200190815260200160002060006101000a81548173ffffffffffffffffffffffffffffffffffffffff021916908373ffffffffffffffffffffffffffffffffffffffff16021790555050505050565b61403b838383614247565b6140ef57600073ffffffffffffffffffffffffffffffffffffffff168373ffffffffffffffffffffffffffffffffffffffff16036140b057806040517f7e2732890000000000000000000000000000000000000000000000000000000081526004016140a79190614973565b60405180910390fd5b81816040517f177e802f0000000000000000000000000000000000000000000000000000000081526004016140e6929190615efe565b60405180910390fd5b505050565b600080600090507a184f03e93ff9f4daa797ed6e38ed64bf6a1f0100000000000000008310614152577a184f03e93ff9f4daa797ed6e38ed64bf6a1f0100000000000000008381614148576141476158a3565b5b0492506040810190505b6d04ee2d6d415b85acef8100000000831061418f576d04ee2d6d415b85acef81000000008381614185576141846158a3565b5b0492506020810190505b662386f26fc1000083106141be57662386f26fc1000083816141b4576141b36158a3565b5b0492506010810190505b6305f5e10083106141e7576305f5e10083816141dd576141dc6158a3565b5b0492506008810190505b612710831061420c576127108381614202576142016158a3565b5b0492506004810190505b6064831061422f5760648381614225576142246158a3565b5b0492506002810190505b600a831061423e576001810190505b80915050919050565b60008073ffffffffffffffffffffffffffffffffffffffff168373ffffffffffffffffffffffffffffffffffffffff16141580156142ff57508273ffffffffffffffffffffffffffffffffffffffff168473ffffffffffffffffffffffffffffffffffffffff1614806142c057506142bf8484612caa565b5b806142fe57508273ffffffffffffffffffffffffffffffffffffffff166142e683612fca565b73ffffffffffffffffffffffffffffffffffffffff16145b5b90509392505050565b6040518060c0016040528060008152602001600073ffffffffffffffffffffffffffffffffffffffff168152602001600073ffffffffffffffffffffffffffffffffffffffff16815260200160008152602001600015158152602001600081525090565b8280548282559060005260206000209081019282156143a8579160200282015b828111156143a757823582559160200191906001019061438c565b5b5090506143b591906143b9565b5090565b5b808211156143d25760008160009055506001016143ba565b5090565b600082825260208201905092915050565b7f416c6c2063617264207061636b73206172652063757272656e746c7920736f6c60008201527f64206f7574000000000000000000000000000000000000000000000000000000602082015250565b60006144436025836143d6565b915061444e826143e7565b604082019050919050565b6000602082019050818103600083015261447281614436565b9050919050565b7f496e636f7272656374207061796d656e7420616d6f756e740000000000000000600082015250565b60006144af6018836143d6565b91506144ba82614479565b602082019050919050565b600060208201905081810360008301526144de816144a2565b9050919050565b6000604051905090565b600080fd5b600080fd5b60007fffffffff0000000000000000000000000000000000000000000000000000000082169050919050565b61452e816144f9565b811461453957600080fd5b50565b60008135905061454b81614525565b92915050565b600060208284031215614567576145666144ef565b5b60006145758482850161453c565b91505092915050565b60008115159050919050565b6145938161457e565b82525050565b60006020820190506145ae600083018461458a565b92915050565b600081519050919050565b60005b838110156145dd5780820151818401526020810190506145c2565b60008484015250505050565b6000601f19601f8301169050919050565b6000614605826145b4565b61460f81856143d6565b935061461f8185602086016145bf565b614628816145e9565b840191505092915050565b6000602082019050818103600083015261464d81846145fa565b905092915050565b600081519050919050565b600082825260208201905092915050565b6000819050602082019050919050565b6000819050919050565b61469481614681565b82525050565b600073ffffffffffffffffffffffffffffffffffffffff82169050919050565b60006146c58261469a565b9050919050565b6146d5816146ba565b82525050565b6146e48161457e565b82525050565b60c082016000820151614700600085018261468b565b50602082015161471360208501826146cc565b50604082015161472660408501826146cc565b506060820151614739606085018261468b565b50608082015161474c60808501826146db565b5060a082015161475f60a085018261468b565b50505050565b600061477183836146ea565b60c08301905092915050565b6000602082019050919050565b600061479582614655565b61479f8185614660565b93506147aa83614671565b8060005b838110156147db5781516147c28882614765565b97506147cd8361477d565b9250506001810190506147ae565b5085935050505092915050565b60006020820190508181036000830152614802818461478a565b905092915050565b61481381614681565b811461481e57600080fd5b50565b6000813590506148308161480a565b92915050565b60006020828403121561484c5761484b6144ef565b5b600061485a84828501614821565b91505092915050565b600061486e8261469a565b9050919050565b61487e81614863565b82525050565b60006020820190506148996000830184614875565b92915050565b6148a881614863565b81146148b357600080fd5b50565b6000813590506148c58161489f565b92915050565b600080604083850312156148e2576148e16144ef565b5b60006148f0858286016148b6565b925050602061490185828601614821565b9150509250929050565b6149148161457e565b811461491f57600080fd5b50565b6000813590506149318161490b565b92915050565b60006020828403121561494d5761494c6144ef565b5b600061495b84828501614922565b91505092915050565b61496d81614681565b82525050565b60006020820190506149886000830184614964565b92915050565b600080fd5b600080fd5b600080fd5b60008083601f8401126149b3576149b261498e565b5b8235905067ffffffffffffffff8111156149d0576149cf614993565b5b6020830191508360208202830111156149ec576149eb614998565b5b9250929050565b600080600060408486031215614a0c57614a0b6144ef565b5b6000614a1a86828701614821565b935050602084013567ffffffffffffffff811115614a3b57614a3a6144f4565b5b614a478682870161499d565b92509250509250925092565b600080600060608486031215614a6c57614a6b6144ef565b5b6000614a7a868287016148b6565b9350506020614a8b868287016148b6565b9250506040614a9c86828701614821565b9150509250925092565b600063ffffffff82169050919050565b614abf81614aa6565b82525050565b6000602082019050614ada6000830184614ab6565b92915050565b600060208284031215614af657614af56144ef565b5b6000614b04848285016148b6565b91505092915050565b600081519050919050565b600082825260208201905092915050565b6000819050602082019050919050565b6000614b45838361468b565b60208301905092915050565b6000602082019050919050565b6000614b6982614b0d565b614b738185614b18565b9350614b7e83614b29565b8060005b83811015614baf578151614b968882614b39565b9750614ba183614b51565b925050600181019050614b82565b5085935050505092915050565b60006020820190508181036000830152614bd68184614b5e565b905092915050565b6000819050919050565b614bf181614bde565b82525050565b6000602082019050614c0c6000830184614be8565b92915050565b600080fd5b7f4e487b7100000000000000000000000000000000000000000000000000000000600052604160045260246000fd5b614c4f826145e9565b810181811067ffffffffffffffff82111715614c6e57614c6d614c17565b5b80604052505050565b6000614c816144e5565b9050614c8d8282614c46565b919050565b600067ffffffffffffffff821115614cad57614cac614c17565b5b614cb6826145e9565b9050602081019050919050565b82818337600083830152505050565b6000614ce5614ce084614c92565b614c77565b905082815260208101848484011115614d0157614d00614c12565b5b614d0c848285614cc3565b509392505050565b600082601f830112614d2957614d2861498e565b5b8135614d39848260208601614cd2565b91505092915050565b600060208284031215614d5857614d576144ef565b5b600082013567ffffffffffffffff811115614d7657614d756144f4565b5b614d8284828501614d14565b91505092915050565b600067ffffffffffffffff821115614da657614da5614c17565b5b602082029050602081019050919050565b6000614dca614dc584614d8b565b614c77565b90508083825260208201905060208402830185811115614ded57614dec614998565b5b835b81811015614e165780614e028882614821565b845260208401935050602081019050614def565b5050509392505050565b600082601f830112614e3557614e3461498e565b5b8135614e45848260208601614db7565b91505092915050565b600080600060608486031215614e6757614e666144ef565b5b600084013567ffffffffffffffff811115614e8557614e846144f4565b5b614e9186828701614e20565b9350506020614ea2868287016148b6565b9250506040614eb386828701614821565b9150509250925092565b600080600060608486031215614ed657614ed56144ef565b5b600084013567ffffffffffffffff811115614ef457614ef36144f4565b5b614f0086828701614d14565b9350506020614f11868287016148b6565b9250506040614f2286828701614821565b9150509250925092565b6000819050919050565b6000614f51614f4c614f478461469a565b614f2c565b61469a565b9050919050565b6000614f6382614f36565b9050919050565b6000614f7582614f58565b9050919050565b614f8581614f6a565b82525050565b6000602082019050614fa06000830184614f7c565b92915050565b60008060408385031215614fbd57614fbc6144ef565b5b6000614fcb858286016148b6565b9250506020614fdc85828601614922565b9150509250929050565b600061ffff82169050919050565b614ffd81614fe6565b82525050565b60006020820190506150186000830184614ff4565b92915050565b600067ffffffffffffffff82111561503957615038614c17565b5b615042826145e9565b9050602081019050919050565b600061506261505d8461501e565b614c77565b90508281526020810184848401111561507e5761507d614c12565b5b615089848285614cc3565b509392505050565b600082601f8301126150a6576150a561498e565b5b81356150b684826020860161504f565b91505092915050565b600080600080608085870312156150d9576150d86144ef565b5b60006150e7878288016148b6565b94505060206150f8878288016148b6565b935050604061510987828801614821565b925050606085013567ffffffffffffffff81111561512a576151296144f4565b5b61513687828801615091565b91505092959194509250565b60008060408385031215615159576151586144ef565b5b6000615167858286016148b6565b9250506020615178858286016148b6565b9150509250929050565b60008060408385031215615199576151986144ef565b5b60006151a785828601614821565b92505060206151b885828601614821565b9150509250929050565b7f4e487b7100000000000000000000000000000000000000000000000000000000600052601160045260246000fd5b60006151fc82614681565b915061520783614681565b925082820190508082111561521f5761521e6151c2565b5b92915050565b7f4e487b7100000000000000000000000000000000000000000000000000000000600052600160045260246000fd5b600061525f82614681565b915061526a83614681565b9250828203905081811115615282576152816151c2565b5b92915050565b61529181614bde565b82525050565b6152a081614fe6565b82525050565b6152af81614aa6565b82525050565b600081519050919050565b600082825260208201905092915050565b60006152dc826152b5565b6152e681856152c0565b93506152f68185602086016145bf565b6152ff816145e9565b840191505092915050565b600060c0830160008301516153226000860182615288565b506020830151615335602086018261468b565b5060408301516153486040860182615297565b50606083015161535b60608601826152a6565b50608083015161536e60808601826152a6565b5060a083015184820360a086015261538682826152d1565b9150508091505092915050565b600060208201905081810360008301526153ad818461530a565b905092915050565b6000815190506153c48161480a565b92915050565b6000602082840312156153e0576153df6144ef565b5b60006153ee848285016153b5565b91505092915050565b600060408201905061540c6000830185614964565b6154196020830184614875565b9392505050565b7f4e487b7100000000000000000000000000000000000000000000000000000000600052602260045260246000fd5b6000600282049050600182168061546757607f821691505b60208210810361547a57615479615420565b5b50919050565b7f4e487b7100000000000000000000000000000000000000000000000000000000600052603260045260246000fd5b60006154ba82614681565b91507fffffffffffffffffffffffffffffffffffffffffffffffffffffffffffffffff82036154ec576154eb6151c2565b5b600182019050919050565b600060408201905061550c6000830185614875565b6155196020830184614875565b9392505050565b60006060820190506155356000830186614875565b6155426020830185614964565b61554f6040830184614875565b949350505050565b60008190508160005260206000209050919050565b60006020601f8301049050919050565b600082821b905092915050565b6000600883026155b97fffffffffffffffffffffffffffffffffffffffffffffffffffffffffffffffff8261557c565b6155c3868361557c565b95508019841693508086168417925050509392505050565b60006155f66155f16155ec84614681565b614f2c565b614681565b9050919050565b6000819050919050565b615610836155db565b61562461561c826155fd565b848454615589565b825550505050565b600090565b61563961562c565b615644818484615607565b505050565b5b818110156156685761565d600082615631565b60018101905061564a565b5050565b601f8211156156ad5761567e81615557565b6156878461556c565b81016020851015615696578190505b6156aa6156a28561556c565b830182615649565b50505b505050565b600082821c905092915050565b60006156d0600019846008026156b2565b1980831691505092915050565b60006156e983836156bf565b9150826002028217905092915050565b615702826145b4565b67ffffffffffffffff81111561571b5761571a614c17565b5b615725825461544f565b61573082828561566c565b600060209050601f8311600181146157635760008415615751578287015190505b61575b85826156dd565b8655506157c3565b601f19841661577186615557565b60005b8281101561579957848901518255600182019150602085019450602081019050615774565b868310156157b657848901516157b2601f8916826156bf565b8355505b6001600288020188555050505b505050505050565b7f457870656374656420352072616e646f6d206e756d6265727300000000000000600082015250565b60006158016019836143d6565b915061580c826157cb565b602082019050919050565b60006020820190508181036000830152615830816157f4565b9050919050565b7f526563697069656e74206164647265737320697320696e76616c696400000000600082015250565b600061586d601c836143d6565b915061587882615837565b602082019050919050565b6000602082019050818103600083015261589c81615860565b9050919050565b7f4e487b7100000000000000000000000000000000000000000000000000000000600052601260045260246000fd5b60006158dd82614681565b91506158e883614681565b9250826158f8576158f76158a3565b5b828206905092915050565b600081905092915050565b6000815461591b8161544f565b6159258186615903565b94506001821660008114615940576001811461595557615988565b60ff1983168652811515820286019350615988565b61595e85615557565b60005b8381101561598057815481890152600182019150602081019050615961565b838801955050505b50505092915050565b600061599c826145b4565b6159a68185615903565b93506159b68185602086016145bf565b80840191505092915050565b7f2e6a736f6e000000000000000000000000000000000000000000000000000000600082015250565b60006159f8600583615903565b9150615a03826159c2565b600582019050919050565b6000615a1a828561590e565b9150615a268284615991565b9150615a31826159eb565b91508190509392505050565b6000606082019050615a526000830186614964565b615a5f6020830185614875565b8181036040830152615a7181846145fa565b9050949350505050565b7f4d7573742062652070726f706f736564206f776e657200000000000000000000600082015250565b6000615ab16016836143d6565b9150615abc82615a7b565b602082019050919050565b60006020820190508181036000830152615ae081615aa4565b9050919050565b6000606082019050615afc6000830186614875565b615b096020830185614875565b615b166040830184614875565b949350505050565b7f506c65617365207375626d6974207468652061736b696e67207072696365206960008201527f6e206f7264657220746f20636f6d706c65746520746865207075726368617365602082015250565b6000615b7a6040836143d6565b9150615b8582615b1e565b604082019050919050565b60006020820190508181036000830152615ba981615b6d565b9050919050565b6000615bbc8285615991565b9150615bc88284615991565b91508190509392505050565b7f506c65617365207375626d697420746865206c697374696e672070726963652060008201527f696e206f7264657220746f206c69737420612063617264000000000000000000602082015250565b6000615c306037836143d6565b9150615c3b82615bd4565b604082019050919050565b60006020820190508181036000830152615c5f81615c23565b9050919050565b602082016000820151615c7c60008501826146db565b50505050565b6000602082019050615c976000830184615c66565b92915050565b7f4f6e6c792063616c6c61626c65206279206f776e657200000000000000000000600082015250565b6000615cd36016836143d6565b9150615cde82615c9d565b602082019050919050565b60006020820190508181036000830152615d0281615cc6565b9050919050565b600082825260208201905092915050565b6000615d25826152b5565b615d2f8185615d09565b9350615d3f8185602086016145bf565b615d48816145e9565b840191505092915050565b6000608082019050615d686000830187614875565b615d756020830186614875565b615d826040830185614964565b8181036060830152615d948184615d1a565b905095945050505050565b600081519050615dae81614525565b92915050565b600060208284031215615dca57615dc96144ef565b5b6000615dd884828501615d9f565b91505092915050565b7f5072696365206d757374206265206174206c6561737420312077656900000000600082015250565b6000615e17601c836143d6565b9150615e2282615de1565b602082019050919050565b60006020820190508181036000830152615e4681615e0a565b9050919050565b6000608082019050615e626000830187614875565b615e6f6020830186614875565b615e7c6040830185614964565b615e89606083018461458a565b95945050505050565b7f43616e6e6f74207472616e7366657220746f2073656c66000000000000000000600082015250565b6000615ec86017836143d6565b9150615ed382615e92565b602082019050919050565b60006020820190508181036000830152615ef781615ebb565b9050919050565b6000604082019050615f136000830185614875565b615f206020830184614964565b939250505056fea2646970667358221220ef6cb841e701760f78fd4f842efd4f42819da6b1d5eb4a84d5d09909d01e992864736f6c6343000814003368747470733a2f2f677265656e2d6d616e75616c2d6261646765722d33372e6d7970696e6174612e636c6f75642f697066732f62616679626569646c7667706c6d6b357262616d636f3363636d7a326279347662357067696136687465736d6e79626b34636f6d683779696276342f",
  "linkReferences": {},
  "deployedLinkReferences": {}
}