{
  "_format": "hh-sol-artifact-1",
  "contractName": "CardMintPack",
  "sourceName": "contracts/CardMintPack.sol",
  "abi": [
    {
      "inputs": [
        {
          "internalType": "uint256",
          "name": "subscriptionId",
          "type": "uint256"
        }
      ],
      "stateMutability": "nonpayable",
      "type": "constructor"
    },
    {
      "inputs": [
        {
          "internalType": "address",
          "name": "sender",
          "type": "address"
        },
        {
          "internalType": "uint256",
          "name": "tokenId",
          "type": "uint256"
        },
        {
          "internalType": "address",
          "name": "owner",
          "type": "address"
        }
      ],
      "name": "ERC721IncorrectOwner",
      "type": "error"
    },
    {
      "inputs": [
        {
          "internalType": "address",
          "name": "operator",
          "type": "address"
        },
        {
          "internalType": "uint256",
          "name": "tokenId",
          "type": "uint256"
        }
      ],
      "name": "ERC721InsufficientApproval",
      "type": "error"
    },
    {
      "inputs": [
        {
          "internalType": "address",
          "name": "approver",
          "type": "address"
        }
      ],
      "name": "ERC721InvalidApprover",
      "type": "error"
    },
    {
      "inputs": [
        {
          "internalType": "address",
          "name": "operator",
          "type": "address"
        }
      ],
      "name": "ERC721InvalidOperator",
      "type": "error"
    },
    {
      "inputs": [
        {
          "internalType": "address",
          "name": "owner",
          "type": "address"
        }
      ],
      "name": "ERC721InvalidOwner",
      "type": "error"
    },
    {
      "inputs": [
        {
          "internalType": "address",
          "name": "receiver",
          "type": "address"
        }
      ],
      "name": "ERC721InvalidReceiver",
      "type": "error"
    },
    {
      "inputs": [
        {
          "internalType": "address",
          "name": "sender",
          "type": "address"
        }
      ],
      "name": "ERC721InvalidSender",
      "type": "error"
    },
    {
      "inputs": [
        {
          "internalType": "uint256",
          "name": "tokenId",
          "type": "uint256"
        }
      ],
      "name": "ERC721NonexistentToken",
      "type": "error"
    },
    {
      "inputs": [
        {
          "internalType": "address",
          "name": "have",
          "type": "address"
        },
        {
          "internalType": "address",
          "name": "want",
          "type": "address"
        }
      ],
      "name": "OnlyCoordinatorCanFulfill",
      "type": "error"
    },
    {
      "inputs": [
        {
          "internalType": "address",
          "name": "have",
          "type": "address"
        },
        {
          "internalType": "address",
          "name": "owner",
          "type": "address"
        },
        {
          "internalType": "address",
          "name": "coordinator",
          "type": "address"
        }
      ],
      "name": "OnlyOwnerOrCoordinator",
      "type": "error"
    },
    {
      "inputs": [],
      "name": "ZeroAddress",
      "type": "error"
    },
    {
      "anonymous": false,
      "inputs": [
        {
          "indexed": true,
          "internalType": "address",
          "name": "owner",
          "type": "address"
        },
        {
          "indexed": true,
          "internalType": "address",
          "name": "approved",
          "type": "address"
        },
        {
          "indexed": true,
          "internalType": "uint256",
          "name": "tokenId",
          "type": "uint256"
        }
      ],
      "name": "Approval",
      "type": "event"
    },
    {
      "anonymous": false,
      "inputs": [
        {
          "indexed": true,
          "internalType": "address",
          "name": "owner",
          "type": "address"
        },
        {
          "indexed": true,
          "internalType": "address",
          "name": "operator",
          "type": "address"
        },
        {
          "indexed": false,
          "internalType": "bool",
          "name": "approved",
          "type": "bool"
        }
      ],
      "name": "ApprovalForAll",
      "type": "event"
    },
    {
      "anonymous": false,
      "inputs": [
        {
          "indexed": false,
          "internalType": "uint256",
          "name": "_fromTokenId",
          "type": "uint256"
        },
        {
          "indexed": false,
          "internalType": "uint256",
          "name": "_toTokenId",
          "type": "uint256"
        }
      ],
      "name": "BatchMetadataUpdate",
      "type": "event"
    },
    {
      "anonymous": false,
      "inputs": [
        {
          "indexed": false,
          "internalType": "uint256",
          "name": "tokenId",
          "type": "uint256"
        },
        {
          "indexed": false,
          "internalType": "address",
          "name": "owner",
          "type": "address"
        },
        {
          "indexed": false,
          "internalType": "string",
          "name": "metadataURI",
          "type": "string"
        }
      ],
      "name": "CardMinted",
      "type": "event"
    },
    {
      "anonymous": false,
      "inputs": [
        {
          "indexed": false,
          "internalType": "address",
          "name": "vrfCoordinator",
          "type": "address"
        }
      ],
      "name": "CoordinatorSet",
      "type": "event"
    },
    {
      "anonymous": false,
      "inputs": [
        {
          "indexed": true,
          "internalType": "uint256",
          "name": "tokenId",
          "type": "uint256"
        },
        {
          "indexed": false,
          "internalType": "address",
          "name": "seller",
          "type": "address"
        },
        {
          "indexed": false,
          "internalType": "address",
          "name": "owner",
          "type": "address"
        },
        {
          "indexed": false,
          "internalType": "uint256",
          "name": "price",
          "type": "uint256"
        },
        {
          "indexed": false,
          "internalType": "bool",
          "name": "sold",
          "type": "bool"
        }
      ],
      "name": "ListingCreated",
      "type": "event"
    },
    {
      "anonymous": false,
      "inputs": [
        {
          "indexed": true,
          "internalType": "uint256",
          "name": "tokenId",
          "type": "uint256"
        },
        {
          "indexed": false,
          "internalType": "address",
          "name": "seller",
          "type": "address"
        }
      ],
      "name": "ListingRemoved",
      "type": "event"
    },
    {
      "anonymous": false,
      "inputs": [
        {
          "indexed": false,
          "internalType": "uint256",
          "name": "_tokenId",
          "type": "uint256"
        }
      ],
      "name": "MetadataUpdate",
      "type": "event"
    },
    {
      "anonymous": false,
      "inputs": [
        {
          "indexed": true,
          "internalType": "address",
          "name": "from",
          "type": "address"
        },
        {
          "indexed": true,
          "internalType": "address",
          "name": "to",
          "type": "address"
        }
      ],
      "name": "OwnershipTransferRequested",
      "type": "event"
    },
    {
      "anonymous": false,
      "inputs": [
        {
          "indexed": true,
          "internalType": "address",
          "name": "from",
          "type": "address"
        },
        {
          "indexed": true,
          "internalType": "address",
          "name": "to",
          "type": "address"
        }
      ],
      "name": "OwnershipTransferred",
      "type": "event"
    },
    {
      "anonymous": false,
      "inputs": [
        {
          "indexed": true,
          "internalType": "address",
          "name": "buyer",
          "type": "address"
        },
        {
          "indexed": false,
          "internalType": "uint256",
          "name": "packId",
          "type": "uint256"
        },
        {
          "indexed": false,
          "internalType": "uint256",
          "name": "requestId",
          "type": "uint256"
        }
      ],
      "name": "PackPurchased",
      "type": "event"
    },
    {
      "anonymous": false,
      "inputs": [
        {
          "indexed": false,
          "internalType": "uint256",
          "name": "requestId",
          "type": "uint256"
        },
        {
          "indexed": false,
          "internalType": "uint256[]",
          "name": "randomWords",
          "type": "uint256[]"
        }
      ],
      "name": "RandomnessFulfilled",
      "type": "event"
    },
    {
      "anonymous": false,
      "inputs": [
        {
          "indexed": false,
          "internalType": "uint256",
          "name": "requestId",
          "type": "uint256"
        },
        {
          "indexed": false,
          "internalType": "address",
          "name": "requester",
          "type": "address"
        }
      ],
      "name": "RandomnessRequested",
      "type": "event"
    },
    {
      "anonymous": false,
      "inputs": [
        {
          "indexed": true,
          "internalType": "address",
          "name": "from",
          "type": "address"
        },
        {
          "indexed": true,
          "internalType": "address",
          "name": "to",
          "type": "address"
        },
        {
          "indexed": true,
          "internalType": "uint256",
          "name": "tokenId",
          "type": "uint256"
        }
      ],
      "name": "Transfer",
      "type": "event"
    },
    {
      "inputs": [],
      "name": "acceptOwnership",
      "outputs": [],
      "stateMutability": "nonpayable",
      "type": "function"
    },
    {
      "inputs": [
        {
          "internalType": "address",
          "name": "to",
          "type": "address"
        },
        {
          "internalType": "uint256",
          "name": "tokenId",
          "type": "uint256"
        }
      ],
      "name": "approve",
      "outputs": [],
      "stateMutability": "nonpayable",
      "type": "function"
    },
    {
      "inputs": [
        {
          "internalType": "address",
          "name": "owner",
          "type": "address"
        }
      ],
      "name": "balanceOf",
      "outputs": [
        {
          "internalType": "uint256",
          "name": "",
          "type": "uint256"
        }
      ],
      "stateMutability": "view",
      "type": "function"
    },
    {
      "inputs": [],
      "name": "baseURI",
      "outputs": [
        {
          "internalType": "string",
          "name": "",
          "type": "string"
        }
      ],
      "stateMutability": "view",
      "type": "function"
    },
    {
      "inputs": [
        {
          "internalType": "uint256[]",
          "name": "_randomWords",
          "type": "uint256[]"
        },
        {
          "internalType": "address",
          "name": "recipient",
          "type": "address"
        },
        {
          "internalType": "uint256",
          "name": "requestId",
          "type": "uint256"
        }
      ],
      "name": "batchMint",
      "outputs": [],
      "stateMutability": "nonpayable",
      "type": "function"
    },
    {
      "inputs": [],
      "name": "callbackGasLimit",
      "outputs": [
        {
          "internalType": "uint32",
          "name": "",
          "type": "uint32"
        }
      ],
      "stateMutability": "view",
      "type": "function"
    },
    {
      "inputs": [
        {
          "internalType": "uint256",
          "name": "",
          "type": "uint256"
        }
      ],
      "name": "cardIndexes",
      "outputs": [
        {
          "internalType": "uint256",
          "name": "",
          "type": "uint256"
        }
      ],
      "stateMutability": "view",
      "type": "function"
    },
    {
      "inputs": [
        {
          "internalType": "string",
          "name": "tokenURI",
          "type": "string"
        },
        {
          "internalType": "address",
          "name": "recipient",
          "type": "address"
        },
        {
          "internalType": "uint256",
          "name": "cardIndex",
          "type": "uint256"
        }
      ],
      "name": "createToken",
      "outputs": [
        {
          "internalType": "uint256",
          "name": "",
          "type": "uint256"
        }
      ],
      "stateMutability": "payable",
      "type": "function"
    },
    {
      "inputs": [],
      "name": "fetchItemsListed",
      "outputs": [
        {
          "components": [
            {
              "internalType": "uint256",
              "name": "tokenId",
              "type": "uint256"
            },
            {
              "internalType": "address payable",
              "name": "seller",
              "type": "address"
            },
            {
              "internalType": "address payable",
              "name": "owner",
              "type": "address"
            },
            {
              "internalType": "uint256",
              "name": "price",
              "type": "uint256"
            },
            {
              "internalType": "bool",
              "name": "sold",
              "type": "bool"
            },
            {
              "internalType": "uint256",
              "name": "cardIndex",
              "type": "uint256"
            }
          ],
          "internalType": "struct NFTplace.Listing[]",
          "name": "",
          "type": "tuple[]"
        }
      ],
      "stateMutability": "view",
      "type": "function"
    },
    {
      "inputs": [],
      "name": "fetchListingMarketplace",
      "outputs": [
        {
          "components": [
            {
              "internalType": "uint256",
              "name": "tokenId",
              "type": "uint256"
            },
            {
              "internalType": "address payable",
              "name": "seller",
              "type": "address"
            },
            {
              "internalType": "address payable",
              "name": "owner",
              "type": "address"
            },
            {
              "internalType": "uint256",
              "name": "price",
              "type": "uint256"
            },
            {
              "internalType": "bool",
              "name": "sold",
              "type": "bool"
            },
            {
              "internalType": "uint256",
              "name": "cardIndex",
              "type": "uint256"
            }
          ],
          "internalType": "struct NFTplace.Listing[]",
          "name": "",
          "type": "tuple[]"
        }
      ],
      "stateMutability": "view",
      "type": "function"
    },
    {
      "inputs": [],
      "name": "fetchMyNFTs",
      "outputs": [
        {
          "components": [
            {
              "internalType": "uint256",
              "name": "tokenId",
              "type": "uint256"
            },
            {
              "internalType": "address payable",
              "name": "seller",
              "type": "address"
            },
            {
              "internalType": "address payable",
              "name": "owner",
              "type": "address"
            },
            {
              "internalType": "uint256",
              "name": "price",
              "type": "uint256"
            },
            {
              "internalType": "bool",
              "name": "sold",
              "type": "bool"
            },
            {
              "internalType": "uint256",
              "name": "cardIndex",
              "type": "uint256"
            }
          ],
          "internalType": "struct NFTplace.Listing[]",
          "name": "",
          "type": "tuple[]"
        }
      ],
      "stateMutability": "view",
      "type": "function"
    },
    {
      "inputs": [
        {
          "internalType": "uint256",
          "name": "tokenId",
          "type": "uint256"
        }
      ],
      "name": "getApproved",
      "outputs": [
        {
          "internalType": "address",
          "name": "",
          "type": "address"
        }
      ],
      "stateMutability": "view",
      "type": "function"
    },
    {
      "inputs": [
        {
          "internalType": "uint256",
          "name": "tokenId",
          "type": "uint256"
        }
      ],
      "name": "getCardIndexFromId",
      "outputs": [
        {
          "internalType": "uint256",
          "name": "",
          "type": "uint256"
        }
      ],
      "stateMutability": "view",
      "type": "function"
    },
    {
      "inputs": [],
      "name": "getContractOwner",
      "outputs": [
        {
          "internalType": "address",
          "name": "",
          "type": "address"
        }
      ],
      "stateMutability": "view",
      "type": "function"
    },
    {
      "inputs": [],
      "name": "getListingPrice",
      "outputs": [
        {
          "internalType": "uint256",
          "name": "",
          "type": "uint256"
        }
      ],
      "stateMutability": "view",
      "type": "function"
    },
    {
      "inputs": [
        {
          "internalType": "address",
          "name": "user",
          "type": "address"
        }
      ],
      "name": "getMintedTokens",
      "outputs": [
        {
          "internalType": "uint256[]",
          "name": "",
          "type": "uint256[]"
        }
      ],
      "stateMutability": "view",
      "type": "function"
    },
    {
      "inputs": [
        {
          "internalType": "uint256",
          "name": "requestId",
          "type": "uint256"
        }
      ],
      "name": "getMintedTokensFromRequest",
      "outputs": [
        {
          "internalType": "uint256[]",
          "name": "",
          "type": "uint256[]"
        }
      ],
      "stateMutability": "view",
      "type": "function"
    },
    {
      "inputs": [],
      "name": "getNativePayment",
      "outputs": [
        {
          "internalType": "string",
          "name": "",
          "type": "string"
        }
      ],
      "stateMutability": "view",
      "type": "function"
    },
    {
      "inputs": [],
      "name": "getPacksAvailable",
      "outputs": [
        {
          "internalType": "uint256",
          "name": "",
          "type": "uint256"
        }
      ],
      "stateMutability": "view",
      "type": "function"
    },
    {
      "inputs": [],
      "name": "getTotalPacksSold",
      "outputs": [
        {
          "internalType": "uint256",
          "name": "",
          "type": "uint256"
        }
      ],
      "stateMutability": "view",
      "type": "function"
    },
    {
      "inputs": [
        {
          "internalType": "address",
          "name": "owner",
          "type": "address"
        },
        {
          "internalType": "address",
          "name": "operator",
          "type": "address"
        }
      ],
      "name": "isApprovedForAll",
      "outputs": [
        {
          "internalType": "bool",
          "name": "",
          "type": "bool"
        }
      ],
      "stateMutability": "view",
      "type": "function"
    },
    {
      "inputs": [
        {
          "internalType": "uint256",
          "name": "tokenId",
          "type": "uint256"
        },
        {
          "internalType": "uint256",
          "name": "price",
          "type": "uint256"
        }
      ],
      "name": "listCard",
      "outputs": [],
      "stateMutability": "payable",
      "type": "function"
    },
    {
      "inputs": [],
      "name": "name",
      "outputs": [
        {
          "internalType": "string",
          "name": "",
          "type": "string"
        }
      ],
      "stateMutability": "view",
      "type": "function"
    },
    {
      "inputs": [],
      "name": "nextTokenId",
      "outputs": [
        {
          "internalType": "uint256",
          "name": "",
          "type": "uint256"
        }
      ],
      "stateMutability": "view",
      "type": "function"
    },
    {
      "inputs": [],
      "name": "numWords",
      "outputs": [
        {
          "internalType": "uint32",
          "name": "",
          "type": "uint32"
        }
      ],
      "stateMutability": "view",
      "type": "function"
    },
    {
      "inputs": [],
      "name": "owner",
      "outputs": [
        {
          "internalType": "address",
          "name": "",
          "type": "address"
        }
      ],
      "stateMutability": "view",
      "type": "function"
    },
    {
      "inputs": [
        {
          "internalType": "uint256",
          "name": "tokenId",
          "type": "uint256"
        }
      ],
      "name": "ownerOf",
      "outputs": [
        {
          "internalType": "address",
          "name": "",
          "type": "address"
        }
      ],
      "stateMutability": "view",
      "type": "function"
    },
    {
      "inputs": [],
      "name": "packPrice",
      "outputs": [
        {
          "internalType": "uint256",
          "name": "",
          "type": "uint256"
        }
      ],
      "stateMutability": "view",
      "type": "function"
    },
    {
      "inputs": [],
      "name": "packsAvailable",
      "outputs": [
        {
          "internalType": "uint256",
          "name": "",
          "type": "uint256"
        }
      ],
      "stateMutability": "view",
      "type": "function"
    },
    {
      "inputs": [
        {
          "internalType": "uint256",
          "name": "tokenId",
          "type": "uint256"
        }
      ],
      "name": "purchaseCard",
      "outputs": [],
      "stateMutability": "payable",
      "type": "function"
    },
    {
      "inputs": [
        {
          "internalType": "uint256",
          "name": "requestId",
          "type": "uint256"
        },
        {
          "internalType": "uint256[]",
          "name": "randomWords",
          "type": "uint256[]"
        }
      ],
      "name": "rawFulfillRandomWords",
      "outputs": [],
      "stateMutability": "nonpayable",
      "type": "function"
    },
    {
      "inputs": [],
      "name": "requestConfirmations",
      "outputs": [
        {
          "internalType": "uint16",
          "name": "",
          "type": "uint16"
        }
      ],
      "stateMutability": "view",
      "type": "function"
    },
    {
      "inputs": [],
      "name": "requestRandomWords",
      "outputs": [
        {
          "internalType": "uint256",
          "name": "requestId",
          "type": "uint256"
        }
      ],
      "stateMutability": "nonpayable",
      "type": "function"
    },
    {
      "inputs": [],
      "name": "s_keyHash",
      "outputs": [
        {
          "internalType": "bytes32",
          "name": "",
          "type": "bytes32"
        }
      ],
      "stateMutability": "view",
      "type": "function"
    },
    {
      "inputs": [
        {
          "internalType": "uint256",
          "name": "",
          "type": "uint256"
        }
      ],
      "name": "s_randomWords",
      "outputs": [
        {
          "internalType": "uint256",
          "name": "",
          "type": "uint256"
        }
      ],
      "stateMutability": "view",
      "type": "function"
    },
    {
      "inputs": [
        {
          "internalType": "uint256",
          "name": "",
          "type": "uint256"
        }
      ],
      "name": "s_requestToSender",
      "outputs": [
        {
          "internalType": "address",
          "name": "",
          "type": "address"
        }
      ],
      "stateMutability": "view",
      "type": "function"
    },
    {
      "inputs": [],
      "name": "s_subscriptionId",
      "outputs": [
        {
          "internalType": "uint256",
          "name": "",
          "type": "uint256"
        }
      ],
      "stateMutability": "view",
      "type": "function"
    },
    {
      "inputs": [],
      "name": "s_vrfCoordinator",
      "outputs": [
        {
          "internalType": "contract IVRFCoordinatorV2Plus",
          "name": "",
          "type": "address"
        }
      ],
      "stateMutability": "view",
      "type": "function"
    },
    {
      "inputs": [
        {
          "internalType": "address",
          "name": "from",
          "type": "address"
        },
        {
          "internalType": "address",
          "name": "to",
          "type": "address"
        },
        {
          "internalType": "uint256",
          "name": "tokenId",
          "type": "uint256"
        }
      ],
      "name": "safeTransferFrom",
      "outputs": [],
      "stateMutability": "nonpayable",
      "type": "function"
    },
    {
      "inputs": [
        {
          "internalType": "address",
          "name": "from",
          "type": "address"
        },
        {
          "internalType": "address",
          "name": "to",
          "type": "address"
        },
        {
          "internalType": "uint256",
          "name": "tokenId",
          "type": "uint256"
        },
        {
          "internalType": "bytes",
          "name": "data",
          "type": "bytes"
        }
      ],
      "name": "safeTransferFrom",
      "outputs": [],
      "stateMutability": "nonpayable",
      "type": "function"
    },
    {
      "inputs": [
        {
          "internalType": "address",
          "name": "operator",
          "type": "address"
        },
        {
          "internalType": "bool",
          "name": "approved",
          "type": "bool"
        }
      ],
      "name": "setApprovalForAll",
      "outputs": [],
      "stateMutability": "nonpayable",
      "type": "function"
    },
    {
      "inputs": [
        {
          "internalType": "string",
          "name": "_baseURI",
          "type": "string"
        }
      ],
      "name": "setBaseURI",
      "outputs": [],
      "stateMutability": "nonpayable",
      "type": "function"
    },
    {
      "inputs": [
        {
          "internalType": "address",
          "name": "_vrfCoordinator",
          "type": "address"
        }
      ],
      "name": "setCoordinator",
      "outputs": [],
      "stateMutability": "nonpayable",
      "type": "function"
    },
    {
      "inputs": [
        {
          "internalType": "bool",
          "name": "_enableNativePayment",
          "type": "bool"
        }
      ],
      "name": "setNativePayment",
      "outputs": [],
      "stateMutability": "nonpayable",
      "type": "function"
    },
    {
      "inputs": [
        {
          "internalType": "bytes4",
          "name": "interfaceId",
          "type": "bytes4"
        }
      ],
      "name": "supportsInterface",
      "outputs": [
        {
          "internalType": "bool",
          "name": "",
          "type": "bool"
        }
      ],
      "stateMutability": "view",
      "type": "function"
    },
    {
      "inputs": [],
      "name": "symbol",
      "outputs": [
        {
          "internalType": "string",
          "name": "",
          "type": "string"
        }
      ],
      "stateMutability": "view",
      "type": "function"
    },
    {
      "inputs": [
        {
          "internalType": "uint256",
          "name": "tokenId",
          "type": "uint256"
        }
      ],
      "name": "tokenURI",
      "outputs": [
        {
          "internalType": "string",
          "name": "",
          "type": "string"
        }
      ],
      "stateMutability": "view",
      "type": "function"
    },
    {
      "inputs": [],
      "name": "totalPacksSold",
      "outputs": [
        {
          "internalType": "uint256",
          "name": "",
          "type": "uint256"
        }
      ],
      "stateMutability": "view",
      "type": "function"
    },
    {
      "inputs": [
        {
          "internalType": "address",
          "name": "from",
          "type": "address"
        },
        {
          "internalType": "address",
          "name": "to",
          "type": "address"
        },
        {
          "internalType": "uint256",
          "name": "tokenId",
          "type": "uint256"
        }
      ],
      "name": "transferFrom",
      "outputs": [],
      "stateMutability": "nonpayable",
      "type": "function"
    },
    {
      "inputs": [
        {
          "internalType": "address",
          "name": "to",
          "type": "address"
        }
      ],
      "name": "transferOwnership",
      "outputs": [],
      "stateMutability": "nonpayable",
      "type": "function"
    },
    {
      "inputs": [
        {
          "internalType": "uint256",
          "name": "newPrice",
          "type": "uint256"
        }
      ],
      "name": "updatePackPrice",
      "outputs": [],
      "stateMutability": "nonpayable",
      "type": "function"
    },
    {
      "inputs": [
        {
          "internalType": "uint256",
          "name": "newQty",
          "type": "uint256"
        }
      ],
      "name": "updatePacksAvailable",
      "outputs": [],
      "stateMutability": "nonpayable",
      "type": "function"
    },
    {
      "inputs": [],
      "name": "withdraw",
      "outputs": [],
      "stateMutability": "nonpayable",
      "type": "function"
    },
    {
      "stateMutability": "payable",
      "type": "receive"
    }
  ],
  "bytecode": "0x6080604052655af3107a4000600c557f787d74caea10b2b357790d5b5247c2f63d1d91572a9846f780606e4d953677ae60001b601355621e8480601460006101000a81548163ffffffff021916908363ffffffff1602179055506003601460046101000a81548161ffff021916908361ffff1602179055506005601460066101000a81548163ffffffff021916908363ffffffff160217905550604051806080016040528060528152602001620067ac6052913960159081620000c3919062000756565b5066038d7ea4c680006017556064601855348015620000e157600080fd5b50604051620067fe380380620067fe833981810160405281019062000107919062000873565b739ddfaca8183c41ad55329bdeed9f6a8d53168b1b6040518060400160405280600c81526020017f5a6f6465636b20436172647300000000000000000000000000000000000000008152506040518060400160405280600381526020017f5a444b0000000000000000000000000000000000000000000000000000000000815250338060008073ffffffffffffffffffffffffffffffffffffffff168273ffffffffffffffffffffffffffffffffffffffff1603620001fd576040517f08c379a0000000000000000000000000000000000000000000000000000000008152600401620001f49062000906565b60405180910390fd5b816000806101000a81548173ffffffffffffffffffffffffffffffffffffffff021916908373ffffffffffffffffffffffffffffffffffffffff160217905550600073ffffffffffffffffffffffffffffffffffffffff168173ffffffffffffffffffffffffffffffffffffffff161462000284576200028381620003ad60201b60201c565b5b505050816002908162000298919062000756565b508060039081620002aa919062000756565b505050600073ffffffffffffffffffffffffffffffffffffffff168173ffffffffffffffffffffffffffffffffffffffff160362000314576040517fd92e233d00000000000000000000000000000000000000000000000000000000815260040160405180910390fd5b80600960006101000a81548173ffffffffffffffffffffffffffffffffffffffff021916908373ffffffffffffffffffffffffffffffffffffffff1602179055505033600d60006101000a81548173ffffffffffffffffffffffffffffffffffffffff021916908373ffffffffffffffffffffffffffffffffffffffff160217905550806012819055506000601981905550506200099a565b3373ffffffffffffffffffffffffffffffffffffffff168173ffffffffffffffffffffffffffffffffffffffff16036200041e576040517f08c379a0000000000000000000000000000000000000000000000000000000008152600401620004159062000978565b60405180910390fd5b80600160006101000a81548173ffffffffffffffffffffffffffffffffffffffff021916908373ffffffffffffffffffffffffffffffffffffffff1602179055508073ffffffffffffffffffffffffffffffffffffffff1660008054906101000a900473ffffffffffffffffffffffffffffffffffffffff1673ffffffffffffffffffffffffffffffffffffffff167fed8889f560326eb138920d842192f0eb3dd22b4f139c87a2c57538e05bae127860405160405180910390a350565b600081519050919050565b7f4e487b7100000000000000000000000000000000000000000000000000000000600052604160045260246000fd5b7f4e487b7100000000000000000000000000000000000000000000000000000000600052602260045260246000fd5b600060028204905060018216806200055e57607f821691505b60208210810362000574576200057362000516565b5b50919050565b60008190508160005260206000209050919050565b60006020601f8301049050919050565b600082821b905092915050565b600060088302620005de7fffffffffffffffffffffffffffffffffffffffffffffffffffffffffffffffff826200059f565b620005ea86836200059f565b95508019841693508086168417925050509392505050565b6000819050919050565b6000819050919050565b600062000637620006316200062b8462000602565b6200060c565b62000602565b9050919050565b6000819050919050565b620006538362000616565b6200066b62000662826200063e565b848454620005ac565b825550505050565b600090565b6200068262000673565b6200068f81848462000648565b505050565b5b81811015620006b757620006ab60008262000678565b60018101905062000695565b5050565b601f8211156200070657620006d0816200057a565b620006db846200058f565b81016020851015620006eb578190505b62000703620006fa856200058f565b83018262000694565b50505b505050565b600082821c905092915050565b60006200072b600019846008026200070b565b1980831691505092915050565b600062000746838362000718565b9150826002028217905092915050565b6200076182620004dc565b67ffffffffffffffff8111156200077d576200077c620004e7565b5b62000789825462000545565b62000796828285620006bb565b600060209050601f831160018114620007ce5760008415620007b9578287015190505b620007c5858262000738565b86555062000835565b601f198416620007de866200057a565b60005b828110156200080857848901518255600182019150602085019450602081019050620007e1565b8683101562000828578489015162000824601f89168262000718565b8355505b6001600288020188555050505b505050505050565b600080fd5b6200084d8162000602565b81146200085957600080fd5b50565b6000815190506200086d8162000842565b92915050565b6000602082840312156200088c576200088b6200083d565b5b60006200089c848285016200085c565b91505092915050565b600082825260208201905092915050565b7f43616e6e6f7420736574206f776e657220746f207a65726f0000000000000000600082015250565b6000620008ee601883620008a5565b9150620008fb82620008b6565b602082019050919050565b600060208201905081810360008301526200092181620008df565b9050919050565b7f43616e6e6f74207472616e7366657220746f2073656c66000000000000000000600082015250565b600062000960601783620008a5565b91506200096d8262000928565b602082019050919050565b60006020820190508181036000830152620009938162000951565b9050919050565b615e0280620009aa6000396000f3fe60806040526004361061031e5760003560e01c80636c0360eb116101ab578063a22cb465116100f7578063d759000b11610095578063e985e9c51161006f578063e985e9c514610c98578063ed36c52f14610cd5578063f2fde38b14610cf1578063f6eaffc814610d1a576103ee565b8063d759000b14610c17578063d917bf3e14610c42578063e0c8628914610c6d576103ee565b8063b0fb162f116100d1578063b0fb162f14610b5b578063b88d4fde14610b86578063c0abba9e14610baf578063c87b56dd14610bda576103ee565b8063a22cb46514610ad9578063a54447aa14610b02578063ad49ba1b14610b1e576103ee565b80637ccfd7fc116101645780638da5cb5b1161013e5780638da5cb5b14610a2f5780638ea9811714610a5a57806395d89b4114610a835780639eccacf614610aae576103ee565b80637ccfd7fc146109ae5780637f95e4b3146109d95780638ac0002114610a04576103ee565b80636c0360eb146108ab57806370a08231146108d657806373b4df051461091357806375794a3c1461094357806379ba50971461096e5780637cc539b414610985576103ee565b80632e602d291161026a578063442890d51161022357806355901bb0116101fd57806355901bb0146107f157806355f804b31461081c5780636273ce9b146108455780636352211e1461086e576103ee565b8063442890d51461077057806345bb327b1461079b57806345f8fa80146107c6576103ee565b80632e602d291461064e578063335c8b631461068b5780633ccfd60b146106b65780634129c1c1146106cd57806342842e0e1461070a578063434a49a114610733576103ee565b806312e85585116102d7578063202e3740116102b1578063202e37401461059257806323b872dd146105bd57806324f74697146105e65780632916b13014610611576103ee565b806312e85585146105155780631a01d53a146105405780631fe543e314610569576103ee565b806301ffc9a7146103f357806306fdde031461043057806307c11e0d1461045b578063081812fc14610486578063095ea7b3146104c35780630c6dcd31146104ec576103ee565b366103ee57600060185411610368576040517f08c379a000000000000000000000000000000000000000000000000000000000815260040161035f90614390565b60405180910390fd5b60175434146103ac576040517f08c379a00000000000000000000000000000000000000000000000000000000081526004016103a3906143fc565b60405180910390fd5b6103c26001601954610d5790919063ffffffff16565b6019819055506103de6001601854610d8390919063ffffffff16565b6018819055506103ec610daa565b005b600080fd5b3480156103ff57600080fd5b5061041a60048036038101906104159190614488565b610f75565b60405161042791906144d0565b60405180910390f35b34801561043c57600080fd5b50610445610fd6565b604051610452919061456a565b60405180910390f35b34801561046757600080fd5b50610470611068565b60405161047d919061471f565b60405180910390f35b34801561049257600080fd5b506104ad60048036038101906104a8919061476d565b6112b9565b6040516104ba91906147bb565b60405180910390f35b3480156104cf57600080fd5b506104ea60048036038101906104e59190614802565b6112d5565b005b3480156104f857600080fd5b50610513600480360381019061050e919061486e565b6112eb565b005b34801561052157600080fd5b5061052a611310565b60405161053791906148aa565b60405180910390f35b34801561054c57600080fd5b506105676004803603810190610562919061476d565b61131a565b005b34801561057557600080fd5b50610590600480360381019061058b919061492a565b61132c565b005b34801561059e57600080fd5b506105a76113f2565b6040516105b4919061471f565b60405180910390f35b3480156105c957600080fd5b506105e460048036038101906105df919061498a565b6116ef565b005b3480156105f257600080fd5b506105fb6117f1565b60405161060891906149fc565b60405180910390f35b34801561061d57600080fd5b506106386004803603810190610633919061476d565b611807565b60405161064591906148aa565b60405180910390f35b34801561065a57600080fd5b506106756004803603810190610670919061476d565b611824565b60405161068291906147bb565b60405180910390f35b34801561069757600080fd5b506106a0611857565b6040516106ad91906148aa565b60405180910390f35b3480156106c257600080fd5b506106cb61185d565b005b3480156106d957600080fd5b506106f460048036038101906106ef919061476d565b6118bb565b60405161070191906148aa565b60405180910390f35b34801561071657600080fd5b50610731600480360381019061072c919061498a565b6118d3565b005b34801561073f57600080fd5b5061075a60048036038101906107559190614a17565b6118f3565b6040516107679190614af3565b60405180910390f35b34801561077c57600080fd5b5061078561198a565b60405161079291906147bb565b60405180910390f35b3480156107a757600080fd5b506107b06119b4565b6040516107bd9190614b2e565b60405180910390f35b3480156107d257600080fd5b506107db6119ba565b6040516107e8919061471f565b60405180910390f35b3480156107fd57600080fd5b50610806611cb7565b60405161081391906148aa565b60405180910390f35b34801561082857600080fd5b50610843600480360381019061083e9190614c79565b611cc1565b005b34801561085157600080fd5b5061086c60048036038101906108679190614d85565b611cdc565b005b34801561087a57600080fd5b506108956004803603810190610890919061476d565b611ff9565b6040516108a291906147bb565b60405180910390f35b3480156108b757600080fd5b506108c061200b565b6040516108cd919061456a565b60405180910390f35b3480156108e257600080fd5b506108fd60048036038101906108f89190614a17565b612099565b60405161090a91906148aa565b60405180910390f35b61092d60048036038101906109289190614df4565b612153565b60405161093a91906148aa565b60405180910390f35b34801561094f57600080fd5b506109586122d7565b60405161096591906148aa565b60405180910390f35b34801561097a57600080fd5b506109836122dd565b005b34801561099157600080fd5b506109ac60048036038101906109a7919061476d565b612472565b005b3480156109ba57600080fd5b506109c3612484565b6040516109d091906149fc565b60405180910390f35b3480156109e557600080fd5b506109ee61249a565b6040516109fb919061456a565b60405180910390f35b348015610a1057600080fd5b50610a1961252a565b604051610a2691906148aa565b60405180910390f35b348015610a3b57600080fd5b50610a44612530565b604051610a5191906147bb565b60405180910390f35b348015610a6657600080fd5b50610a816004803603810190610a7c9190614a17565b612559565b005b348015610a8f57600080fd5b50610a9861273a565b604051610aa5919061456a565b60405180910390f35b348015610aba57600080fd5b50610ac36127cc565b604051610ad09190614ec2565b60405180910390f35b348015610ae557600080fd5b50610b006004803603810190610afb9190614edd565b6127f2565b005b610b1c6004803603810190610b17919061476d565b612808565b005b348015610b2a57600080fd5b50610b456004803603810190610b40919061476d565b612a58565b604051610b529190614af3565b60405180910390f35b348015610b6757600080fd5b50610b70612ac3565b604051610b7d9190614f3a565b60405180910390f35b348015610b9257600080fd5b50610bad6004803603810190610ba89190614ff6565b612ad7565b005b348015610bbb57600080fd5b50610bc4612afc565b604051610bd191906148aa565b60405180910390f35b348015610be657600080fd5b50610c016004803603810190610bfc919061476d565b612b02565b604051610c0e919061456a565b60405180910390f35b348015610c2357600080fd5b50610c2c612c15565b604051610c3991906148aa565b60405180910390f35b348015610c4e57600080fd5b50610c57612c1b565b604051610c6491906148aa565b60405180910390f35b348015610c7957600080fd5b50610c82610daa565b604051610c8f91906148aa565b60405180910390f35b348015610ca457600080fd5b50610cbf6004803603810190610cba9190615079565b612c25565b604051610ccc91906144d0565b60405180910390f35b610cef6004803603810190610cea91906150b9565b612cb9565b005b348015610cfd57600080fd5b50610d186004803603810190610d139190614a17565b612cc7565b005b348015610d2657600080fd5b50610d416004803603810190610d3c919061476d565b612cdb565b604051610d4e91906148aa565b60405180910390f35b6000808284610d669190615128565b905083811015610d7957610d7861515c565b5b8091505092915050565b600082821115610d9657610d9561515c565b5b8183610da2919061518b565b905092915050565b6000600960009054906101000a900473ffffffffffffffffffffffffffffffffffffffff1673ffffffffffffffffffffffffffffffffffffffff16639b1c385e6040518060c0016040528060135481526020016012548152602001601460049054906101000a900461ffff1661ffff168152602001601460009054906101000a900463ffffffff1663ffffffff168152602001601460069054906101000a900463ffffffff1663ffffffff168152602001610e836040518060200160405280601660009054906101000a900460ff161515815250612cff565b8152506040518263ffffffff1660e01b8152600401610ea291906152ca565b6020604051808303816000875af1158015610ec1573d6000803e3d6000fd5b505050506040513d601f19601f82011682018060405250810190610ee59190615301565b905033601a600083815260200190815260200160002060006101000a81548173ffffffffffffffffffffffffffffffffffffffff021916908373ffffffffffffffffffffffffffffffffffffffff1602179055507f28f521cf7abd0044cba5bb040c5217ff69a4e5865f5262905018698e68fe7d008133604051610f6a92919061532e565b60405180910390a190565b6000634906490660e01b7bffffffffffffffffffffffffffffffffffffffffffffffffffffffff1916827bffffffffffffffffffffffffffffffffffffffffffffffffffffffff19161480610fcf5750610fce82612d97565b5b9050919050565b606060028054610fe590615386565b80601f016020809104026020016040519081016040528092919081815260200182805461101190615386565b801561105e5780601f106110335761010080835404028352916020019161105e565b820191906000526020600020905b81548152906001019060200180831161104157829003601f168201915b5050505050905090565b60606000600a549050600080600b5467ffffffffffffffff8111156110905761108f614b4e565b5b6040519080825280602002602001820160405280156110c957816020015b6110b661423f565b8152602001906001900390816110ae5790505b50905060005b838110156112af573073ffffffffffffffffffffffffffffffffffffffff16600e60006001846110ff9190615128565b815260200190815260200160002060020160009054906101000a900473ffffffffffffffffffffffffffffffffffffffff1673ffffffffffffffffffffffffffffffffffffffff160361129c57600060018261115b9190615128565b90506000600e60008381526020019081526020016000209050806040518060c0016040529081600082015481526020016001820160009054906101000a900473ffffffffffffffffffffffffffffffffffffffff1673ffffffffffffffffffffffffffffffffffffffff1673ffffffffffffffffffffffffffffffffffffffff1681526020016002820160009054906101000a900473ffffffffffffffffffffffffffffffffffffffff1673ffffffffffffffffffffffffffffffffffffffff1673ffffffffffffffffffffffffffffffffffffffff168152602001600382015481526020016004820160009054906101000a900460ff16151515158152602001600582015481525050848681518110611278576112776153b7565b5b6020026020010181905250611297600186610d5790919063ffffffff16565b945050505b80806112a7906153e6565b9150506110cf565b5080935050505090565b60006112c482612e79565b506112ce82612f01565b9050919050565b6112e782826112e2612f3e565b612f46565b5050565b6112f3612f58565b80601660006101000a81548160ff02191690831515021790555050565b6000600c54905090565b611322612f58565b8060188190555050565b600960009054906101000a900473ffffffffffffffffffffffffffffffffffffffff1673ffffffffffffffffffffffffffffffffffffffff163373ffffffffffffffffffffffffffffffffffffffff16146113e25733600960009054906101000a900473ffffffffffffffffffffffffffffffffffffffff166040517f1cf993f40000000000000000000000000000000000000000000000000000000081526004016113d992919061542e565b60405180910390fd5b6113ed838383612fe8565b505050565b60606000600a54905060008060005b838110156114a8573373ffffffffffffffffffffffffffffffffffffffff16600e60006001846114319190615128565b815260200190815260200160002060020160009054906101000a900473ffffffffffffffffffffffffffffffffffffffff1673ffffffffffffffffffffffffffffffffffffffff160361149557611492600184610d5790919063ffffffff16565b92505b80806114a0906153e6565b915050611401565b5060008267ffffffffffffffff8111156114c5576114c4614b4e565b5b6040519080825280602002602001820160405280156114fe57816020015b6114eb61423f565b8152602001906001900390816114e35790505b50905060005b848110156116e4573373ffffffffffffffffffffffffffffffffffffffff16600e60006001846115349190615128565b815260200190815260200160002060020160009054906101000a900473ffffffffffffffffffffffffffffffffffffffff1673ffffffffffffffffffffffffffffffffffffffff16036116d15760006001826115909190615128565b90506000600e60008381526020019081526020016000209050806040518060c0016040529081600082015481526020016001820160009054906101000a900473ffffffffffffffffffffffffffffffffffffffff1673ffffffffffffffffffffffffffffffffffffffff1673ffffffffffffffffffffffffffffffffffffffff1681526020016002820160009054906101000a900473ffffffffffffffffffffffffffffffffffffffff1673ffffffffffffffffffffffffffffffffffffffff1673ffffffffffffffffffffffffffffffffffffffff168152602001600382015481526020016004820160009054906101000a900460ff161515151581526020016005820154815250508486815181106116ad576116ac6153b7565b5b60200260200101819052506116cc600186610d5790919063ffffffff16565b945050505b80806116dc906153e6565b915050611504565b508094505050505090565b600073ffffffffffffffffffffffffffffffffffffffff168273ffffffffffffffffffffffffffffffffffffffff16036117615760006040517f64a0ae9200000000000000000000000000000000000000000000000000000000815260040161175891906147bb565b60405180910390fd5b60006117758383611770612f3e565b61307e565b90508373ffffffffffffffffffffffffffffffffffffffff168173ffffffffffffffffffffffffffffffffffffffff16146117eb578382826040517f64283d7b0000000000000000000000000000000000000000000000000000000081526004016117e293929190615457565b60405180910390fd5b50505050565b601460009054906101000a900463ffffffff1681565b6000601e6000838152602001908152602001600020549050919050565b601a6020528060005260406000206000915054906101000a900473ffffffffffffffffffffffffffffffffffffffff1681565b60175481565b611865612f58565b600061186f612530565b90508073ffffffffffffffffffffffffffffffffffffffff166108fc479081150290604051600060405180830381858888f193505050501580156118b7573d6000803e3d6000fd5b5050565b601e6020528060005260406000206000915090505481565b6118ee83838360405180602001604052806000815250612ad7565b505050565b6060601c60008373ffffffffffffffffffffffffffffffffffffffff1673ffffffffffffffffffffffffffffffffffffffff16815260200190815260200160002080548060200260200160405190810160405280929190818152602001828054801561197e57602002820191906000526020600020905b81548152602001906001019080831161196a575b50505050509050919050565b6000600d60009054906101000a900473ffffffffffffffffffffffffffffffffffffffff16905090565b60135481565b60606000600a54905060008060005b83811015611a70573373ffffffffffffffffffffffffffffffffffffffff16600e60006001846119f99190615128565b815260200190815260200160002060010160009054906101000a900473ffffffffffffffffffffffffffffffffffffffff1673ffffffffffffffffffffffffffffffffffffffff1603611a5d57611a5a600184610d5790919063ffffffff16565b92505b8080611a68906153e6565b9150506119c9565b5060008267ffffffffffffffff811115611a8d57611a8c614b4e565b5b604051908082528060200260200182016040528015611ac657816020015b611ab361423f565b815260200190600190039081611aab5790505b50905060005b84811015611cac573373ffffffffffffffffffffffffffffffffffffffff16600e6000600184611afc9190615128565b815260200190815260200160002060010160009054906101000a900473ffffffffffffffffffffffffffffffffffffffff1673ffffffffffffffffffffffffffffffffffffffff1603611c99576000600182611b589190615128565b90506000600e60008381526020019081526020016000209050806040518060c0016040529081600082015481526020016001820160009054906101000a900473ffffffffffffffffffffffffffffffffffffffff1673ffffffffffffffffffffffffffffffffffffffff1673ffffffffffffffffffffffffffffffffffffffff1681526020016002820160009054906101000a900473ffffffffffffffffffffffffffffffffffffffff1673ffffffffffffffffffffffffffffffffffffffff1673ffffffffffffffffffffffffffffffffffffffff168152602001600382015481526020016004820160009054906101000a900460ff16151515158152602001600582015481525050848681518110611c7557611c746153b7565b5b6020026020010181905250611c94600186610d5790919063ffffffff16565b945050505b8080611ca4906153e6565b915050611acc565b508094505050505090565b6000601954905090565b611cc9612f58565b8060159081611cd89190615630565b5050565b601460069054906101000a900463ffffffff1663ffffffff16835114611d37576040517f08c379a0000000000000000000000000000000000000000000000000000000008152600401611d2e9061574e565b60405180910390fd5b600073ffffffffffffffffffffffffffffffffffffffff168273ffffffffffffffffffffffffffffffffffffffff1603611da6576040517f08c379a0000000000000000000000000000000000000000000000000000000008152600401611d9d906157ba565b60405180910390fd5b6000835167ffffffffffffffff811115611dc357611dc2614b4e565b5b604051908082528060200260200182016040528015611df15781602001602082028036833780820191505090505b50905060005b8451811015611efe57600060016030878481518110611e1957611e186153b7565b5b6020026020010151611e2b9190615809565b611e359190615128565b905060006015611e4483613298565b604051602001611e55929190615945565b60405160208183030381529060405290506000611e73828885612153565b905080858581518110611e8957611e886153b7565b5b60200260200101818152505082601e6000838152602001908152602001600020819055507fd8734743ed0c1c7547379b55d892e5cea71bc5371832ffa4149a506fbc1aa6d0818884604051611ee093929190615974565b60405180910390a15050508080611ef6906153e6565b915050611df7565b5060005b8151811015611ff257601c60008573ffffffffffffffffffffffffffffffffffffffff1673ffffffffffffffffffffffffffffffffffffffff168152602001908152602001600020828281518110611f5d57611f5c6153b7565b5b60200260200101519080600181540180825580915050600190039060005260206000200160009091909190915055601d6000848152602001908152602001600020828281518110611fb157611fb06153b7565b5b602002602001015190806001815401808255809150506001900390600052602060002001600090919091909150558080611fea906153e6565b915050611f02565b5050505050565b600061200482612e79565b9050919050565b6015805461201890615386565b80601f016020809104026020016040519081016040528092919081815260200182805461204490615386565b80156120915780601f1061206657610100808354040283529160200191612091565b820191906000526020600020905b81548152906001019060200180831161207457829003601f168201915b505050505081565b60008073ffffffffffffffffffffffffffffffffffffffff168273ffffffffffffffffffffffffffffffffffffffff160361210c5760006040517f89c62b6400000000000000000000000000000000000000000000000000000000815260040161210391906147bb565b60405180910390fd5b600560008373ffffffffffffffffffffffffffffffffffffffff1673ffffffffffffffffffffffffffffffffffffffff168152602001908152602001600020549050919050565b600061216b6001600a54610d5790919063ffffffff16565b600a819055506000600a5490506121828482613366565b61218c818661345f565b6040518060c00160405280828152602001600073ffffffffffffffffffffffffffffffffffffffff1681526020018573ffffffffffffffffffffffffffffffffffffffff1681526020016000815260200160011515815260200184815250600e60008381526020019081526020016000206000820151816000015560208201518160010160006101000a81548173ffffffffffffffffffffffffffffffffffffffff021916908373ffffffffffffffffffffffffffffffffffffffff16021790555060408201518160020160006101000a81548173ffffffffffffffffffffffffffffffffffffffff021916908373ffffffffffffffffffffffffffffffffffffffff1602179055506060820151816003015560808201518160040160006101000a81548160ff02191690831515021790555060a08201518160050155905050809150509392505050565b60115481565b600160009054906101000a900473ffffffffffffffffffffffffffffffffffffffff1673ffffffffffffffffffffffffffffffffffffffff163373ffffffffffffffffffffffffffffffffffffffff161461236d576040517f08c379a0000000000000000000000000000000000000000000000000000000008152600401612364906159fe565b60405180910390fd5b60008060009054906101000a900473ffffffffffffffffffffffffffffffffffffffff169050336000806101000a81548173ffffffffffffffffffffffffffffffffffffffff021916908373ffffffffffffffffffffffffffffffffffffffff1602179055506000600160006101000a81548173ffffffffffffffffffffffffffffffffffffffff021916908373ffffffffffffffffffffffffffffffffffffffff1602179055503373ffffffffffffffffffffffffffffffffffffffff168173ffffffffffffffffffffffffffffffffffffffff167f8be0079c531659141344cd1fd0a4f28419497f9722a3daafe3b4186f6b6457e060405160405180910390a350565b61247a612f58565b8060178190555050565b601460069054906101000a900463ffffffff1681565b6060601660009054906101000a900460ff16156124ee576040518060400160405280601381526020017f56524620676173206665657320696e20455448000000000000000000000000008152509050612527565b6040518060400160405280601481526020017f56524620676173206665657320696e204c494e4b00000000000000000000000081525090505b90565b60125481565b60008060009054906101000a900473ffffffffffffffffffffffffffffffffffffffff16905090565b612561612530565b73ffffffffffffffffffffffffffffffffffffffff163373ffffffffffffffffffffffffffffffffffffffff16141580156125ea5750600960009054906101000a900473ffffffffffffffffffffffffffffffffffffffff1673ffffffffffffffffffffffffffffffffffffffff163373ffffffffffffffffffffffffffffffffffffffff1614155b1561265957336125f8612530565b600960009054906101000a900473ffffffffffffffffffffffffffffffffffffffff166040517f061db9c100000000000000000000000000000000000000000000000000000000815260040161265093929190615a1e565b60405180910390fd5b600073ffffffffffffffffffffffffffffffffffffffff168173ffffffffffffffffffffffffffffffffffffffff16036126bf576040517fd92e233d00000000000000000000000000000000000000000000000000000000815260040160405180910390fd5b80600960006101000a81548173ffffffffffffffffffffffffffffffffffffffff021916908373ffffffffffffffffffffffffffffffffffffffff1602179055507fd1a6a14209a385a964d036e404cb5cfb71f4000cdb03c9366292430787261be68160405161272f91906147bb565b60405180910390a150565b60606003805461274990615386565b80601f016020809104026020016040519081016040528092919081815260200182805461277590615386565b80156127c25780601f10612797576101008083540402835291602001916127c2565b820191906000526020600020905b8154815290600101906020018083116127a557829003601f168201915b5050505050905090565b600960009054906101000a900473ffffffffffffffffffffffffffffffffffffffff1681565b6128046127fd612f3e565b83836134bb565b5050565b6000600e60008381526020019081526020016000206003015490506000600e600084815260200190815260200160002060010160009054906101000a900473ffffffffffffffffffffffffffffffffffffffff1690508134146128a0576040517f08c379a000000000000000000000000000000000000000000000000000000000815260040161289790615ac7565b60405180910390fd5b33600e600085815260200190815260200160002060020160006101000a81548173ffffffffffffffffffffffffffffffffffffffff021916908373ffffffffffffffffffffffffffffffffffffffff1602179055506001600e600085815260200190815260200160002060040160006101000a81548160ff0219169083151502179055506000600e600085815260200190815260200160002060010160006101000a81548173ffffffffffffffffffffffffffffffffffffffff021916908373ffffffffffffffffffffffffffffffffffffffff1602179055506129906001600b54610d8390919063ffffffff16565b600b819055506129a130338561362a565b600d60009054906101000a900473ffffffffffffffffffffffffffffffffffffffff1673ffffffffffffffffffffffffffffffffffffffff166108fc600c549081150290604051600060405180830381858888f19350505050158015612a0b573d6000803e3d6000fd5b508073ffffffffffffffffffffffffffffffffffffffff166108fc349081150290604051600060405180830381858888f19350505050158015612a52573d6000803e3d6000fd5b50505050565b6060601d6000838152602001908152602001600020805480602002602001604051908101604052809291908181526020018280548015612ab757602002820191906000526020600020905b815481526020019060010190808311612aa3575b50505050509050919050565b601460049054906101000a900461ffff1681565b612ae28484846116ef565b612af6612aed612f3e565b85858585613797565b50505050565b60195481565b6060612b0d82612e79565b506000600860008481526020019081526020016000208054612b2e90615386565b80601f0160208091040260200160405190810160405280929190818152602001828054612b5a90615386565b8015612ba75780601f10612b7c57610100808354040283529160200191612ba7565b820191906000526020600020905b815481529060010190602001808311612b8a57829003601f168201915b505050505090506000612bb8613948565b90506000815103612bcd578192505050612c10565b600082511115612c02578082604051602001612bea929190615ae7565b60405160208183030381529060405292505050612c10565b612c0b8461395f565b925050505b919050565b60185481565b6000601854905090565b6000600760008473ffffffffffffffffffffffffffffffffffffffff1673ffffffffffffffffffffffffffffffffffffffff16815260200190815260200160002060008373ffffffffffffffffffffffffffffffffffffffff1673ffffffffffffffffffffffffffffffffffffffff16815260200190815260200160002060009054906101000a900460ff16905092915050565b612cc382826139c8565b5050565b612ccf612f58565b612cd881613bcf565b50565b60108181548110612ceb57600080fd5b906000526020600020016000915090505481565b60607f92fd13387c7fe7befbc38d303d6468778fb9731bc4583f17d92989c6fcfdeaaa82604051602401612d339190615b27565b604051602081830303815290604052907bffffffffffffffffffffffffffffffffffffffffffffffffffffffff19166020820180517bffffffffffffffffffffffffffffffffffffffffffffffffffffffff83818316178352505050509050919050565b60007f80ac58cd000000000000000000000000000000000000000000000000000000007bffffffffffffffffffffffffffffffffffffffffffffffffffffffff1916827bffffffffffffffffffffffffffffffffffffffffffffffffffffffff19161480612e6257507f5b5e139f000000000000000000000000000000000000000000000000000000007bffffffffffffffffffffffffffffffffffffffffffffffffffffffff1916827bffffffffffffffffffffffffffffffffffffffffffffffffffffffff1916145b80612e725750612e7182613cfb565b5b9050919050565b600080612e8583613d65565b9050600073ffffffffffffffffffffffffffffffffffffffff168173ffffffffffffffffffffffffffffffffffffffff1603612ef857826040517f7e273289000000000000000000000000000000000000000000000000000000008152600401612eef91906148aa565b60405180910390fd5b80915050919050565b60006006600083815260200190815260200160002060009054906101000a900473ffffffffffffffffffffffffffffffffffffffff169050919050565b600033905090565b612f538383836001613da2565b505050565b60008054906101000a900473ffffffffffffffffffffffffffffffffffffffff1673ffffffffffffffffffffffffffffffffffffffff163373ffffffffffffffffffffffffffffffffffffffff1614612fe6576040517f08c379a0000000000000000000000000000000000000000000000000000000008152600401612fdd90615b8e565b60405180910390fd5b565b818160109190612ff99291906142a3565b50613079828280806020026020016040519081016040528093929190818152602001838360200280828437600081840152601f19601f82011690508083019250505050505050601a600086815260200190815260200160002060009054906101000a900473ffffffffffffffffffffffffffffffffffffffff1685611cdc565b505050565b60008061308a84613d65565b9050600073ffffffffffffffffffffffffffffffffffffffff168373ffffffffffffffffffffffffffffffffffffffff16146130cc576130cb818486613f67565b5b600073ffffffffffffffffffffffffffffffffffffffff168173ffffffffffffffffffffffffffffffffffffffff161461315d5761310e600085600080613da2565b6001600560008373ffffffffffffffffffffffffffffffffffffffff1673ffffffffffffffffffffffffffffffffffffffff168152602001908152602001600020600082825403925050819055505b600073ffffffffffffffffffffffffffffffffffffffff168573ffffffffffffffffffffffffffffffffffffffff16146131e0576001600560008773ffffffffffffffffffffffffffffffffffffffff1673ffffffffffffffffffffffffffffffffffffffff168152602001908152602001600020600082825401925050819055505b846004600086815260200190815260200160002060006101000a81548173ffffffffffffffffffffffffffffffffffffffff021916908373ffffffffffffffffffffffffffffffffffffffff160217905550838573ffffffffffffffffffffffffffffffffffffffff168273ffffffffffffffffffffffffffffffffffffffff167fddf252ad1be2c89b69c2b068fc378daa952ba7f163c4a11628f55a4df523b3ef60405160405180910390a4809150509392505050565b6060600060016132a78461402b565b01905060008167ffffffffffffffff8111156132c6576132c5614b4e565b5b6040519080825280601f01601f1916602001820160405280156132f85781602001600182028036833780820191505090505b509050600082602001820190505b60011561335b578080600190039150507f3031323334353637383961626364656600000000000000000000000000000000600a86061a8153600a858161334f5761334e6157da565b5b04945060008503613306575b819350505050919050565b600073ffffffffffffffffffffffffffffffffffffffff168273ffffffffffffffffffffffffffffffffffffffff16036133d85760006040517f64a0ae920000000000000000000000000000000000000000000000000000000081526004016133cf91906147bb565b60405180910390fd5b60006133e68383600061307e565b9050600073ffffffffffffffffffffffffffffffffffffffff168173ffffffffffffffffffffffffffffffffffffffff161461345a5760006040517f73c6ac6e00000000000000000000000000000000000000000000000000000000815260040161345191906147bb565b60405180910390fd5b505050565b8060086000848152602001908152602001600020908161347f9190615630565b507ff8e1a15aba9398e019f0b49df1a4fde98ee17ae345cb5f6b5e2c27f5033e8ce7826040516134af91906148aa565b60405180910390a15050565b600073ffffffffffffffffffffffffffffffffffffffff168273ffffffffffffffffffffffffffffffffffffffff160361352c57816040517f5b08ba1800000000000000000000000000000000000000000000000000000000815260040161352391906147bb565b60405180910390fd5b80600760008573ffffffffffffffffffffffffffffffffffffffff1673ffffffffffffffffffffffffffffffffffffffff16815260200190815260200160002060008473ffffffffffffffffffffffffffffffffffffffff1673ffffffffffffffffffffffffffffffffffffffff16815260200190815260200160002060006101000a81548160ff0219169083151502179055508173ffffffffffffffffffffffffffffffffffffffff168373ffffffffffffffffffffffffffffffffffffffff167f17307eab39ab6107e8899845ad3d59bd9653f200f220920489ca2b5937696c318360405161361d91906144d0565b60405180910390a3505050565b600073ffffffffffffffffffffffffffffffffffffffff168273ffffffffffffffffffffffffffffffffffffffff160361369c5760006040517f64a0ae9200000000000000000000000000000000000000000000000000000000815260040161369391906147bb565b60405180910390fd5b60006136aa8383600061307e565b9050600073ffffffffffffffffffffffffffffffffffffffff168173ffffffffffffffffffffffffffffffffffffffff160361371d57816040517f7e27328900000000000000000000000000000000000000000000000000000000815260040161371491906148aa565b60405180910390fd5b8373ffffffffffffffffffffffffffffffffffffffff168173ffffffffffffffffffffffffffffffffffffffff1614613791578382826040517f64283d7b00000000000000000000000000000000000000000000000000000000815260040161378893929190615457565b60405180910390fd5b50505050565b60008373ffffffffffffffffffffffffffffffffffffffff163b1115613941578273ffffffffffffffffffffffffffffffffffffffff1663150b7a02868685856040518563ffffffff1660e01b81526004016137f69493929190615bf8565b6020604051808303816000875af192505050801561383257506040513d601f19601f8201168201806040525081019061382f9190615c59565b60015b6138b6573d8060008114613862576040519150601f19603f3d011682016040523d82523d6000602084013e613867565b606091505b5060008151036138ae57836040517f64a0ae920000000000000000000000000000000000000000000000000000000081526004016138a591906147bb565b60405180910390fd5b805181602001fd5b63150b7a0260e01b7bffffffffffffffffffffffffffffffffffffffffffffffffffffffff1916817bffffffffffffffffffffffffffffffffffffffffffffffffffffffff19161461393f57836040517f64a0ae9200000000000000000000000000000000000000000000000000000000815260040161393691906147bb565b60405180910390fd5b505b5050505050565b606060405180602001604052806000815250905090565b606061396a82612e79565b506000613975613948565b9050600081511161399557604051806020016040528060008152506139c0565b8061399f84613298565b6040516020016139b0929190615ae7565b6040516020818303038152906040525b915050919050565b60008111613a0b576040517f08c379a0000000000000000000000000000000000000000000000000000000008152600401613a0290615cd2565b60405180910390fd5b613a216001600b54610d5790919063ffffffff16565b600b819055506000600e60008481526020019081526020016000206005015490506040518060c001604052808481526020013373ffffffffffffffffffffffffffffffffffffffff1681526020013073ffffffffffffffffffffffffffffffffffffffff16815260200183815260200160001515815260200182815250600e60008581526020019081526020016000206000820151816000015560208201518160010160006101000a81548173ffffffffffffffffffffffffffffffffffffffff021916908373ffffffffffffffffffffffffffffffffffffffff16021790555060408201518160020160006101000a81548173ffffffffffffffffffffffffffffffffffffffff021916908373ffffffffffffffffffffffffffffffffffffffff1602179055506060820151816003015560808201518160040160006101000a81548160ff02191690831515021790555060a08201518160050155905050613b8b33308561362a565b827f3cf8eaa46d9accaa9c8e76a1b58ee317d0eac0885fb7635711309f21e5a25fb93330856000604051613bc29493929190615cf2565b60405180910390a2505050565b3373ffffffffffffffffffffffffffffffffffffffff168173ffffffffffffffffffffffffffffffffffffffff1603613c3d576040517f08c379a0000000000000000000000000000000000000000000000000000000008152600401613c3490615d83565b60405180910390fd5b80600160006101000a81548173ffffffffffffffffffffffffffffffffffffffff021916908373ffffffffffffffffffffffffffffffffffffffff1602179055508073ffffffffffffffffffffffffffffffffffffffff1660008054906101000a900473ffffffffffffffffffffffffffffffffffffffff1673ffffffffffffffffffffffffffffffffffffffff167fed8889f560326eb138920d842192f0eb3dd22b4f139c87a2c57538e05bae127860405160405180910390a350565b60007f01ffc9a7000000000000000000000000000000000000000000000000000000007bffffffffffffffffffffffffffffffffffffffffffffffffffffffff1916827bffffffffffffffffffffffffffffffffffffffffffffffffffffffff1916149050919050565b60006004600083815260200190815260200160002060009054906101000a900473ffffffffffffffffffffffffffffffffffffffff169050919050565b8080613ddb5750600073ffffffffffffffffffffffffffffffffffffffff168273ffffffffffffffffffffffffffffffffffffffff1614155b15613f0f576000613deb84612e79565b9050600073ffffffffffffffffffffffffffffffffffffffff168373ffffffffffffffffffffffffffffffffffffffff1614158015613e5657508273ffffffffffffffffffffffffffffffffffffffff168173ffffffffffffffffffffffffffffffffffffffff1614155b8015613e695750613e678184612c25565b155b15613eab57826040517fa9fbf51f000000000000000000000000000000000000000000000000000000008152600401613ea291906147bb565b60405180910390fd5b8115613f0d57838573ffffffffffffffffffffffffffffffffffffffff168273ffffffffffffffffffffffffffffffffffffffff167f8c5be1e5ebec7d5bd14f71427d1e84f3dd0314c0f7b2291e5b200ac8c7c3b92560405160405180910390a45b505b836006600085815260200190815260200160002060006101000a81548173ffffffffffffffffffffffffffffffffffffffff021916908373ffffffffffffffffffffffffffffffffffffffff16021790555050505050565b613f7283838361417e565b61402657600073ffffffffffffffffffffffffffffffffffffffff168373ffffffffffffffffffffffffffffffffffffffff1603613fe757806040517f7e273289000000000000000000000000000000000000000000000000000000008152600401613fde91906148aa565b60405180910390fd5b81816040517f177e802f00000000000000000000000000000000000000000000000000000000815260040161401d929190615da3565b60405180910390fd5b505050565b600080600090507a184f03e93ff9f4daa797ed6e38ed64bf6a1f0100000000000000008310614089577a184f03e93ff9f4daa797ed6e38ed64bf6a1f010000000000000000838161407f5761407e6157da565b5b0492506040810190505b6d04ee2d6d415b85acef810000000083106140c6576d04ee2d6d415b85acef810000000083816140bc576140bb6157da565b5b0492506020810190505b662386f26fc1000083106140f557662386f26fc1000083816140eb576140ea6157da565b5b0492506010810190505b6305f5e100831061411e576305f5e1008381614114576141136157da565b5b0492506008810190505b6127108310614143576127108381614139576141386157da565b5b0492506004810190505b60648310614166576064838161415c5761415b6157da565b5b0492506002810190505b600a8310614175576001810190505b80915050919050565b60008073ffffffffffffffffffffffffffffffffffffffff168373ffffffffffffffffffffffffffffffffffffffff161415801561423657508273ffffffffffffffffffffffffffffffffffffffff168473ffffffffffffffffffffffffffffffffffffffff1614806141f757506141f68484612c25565b5b8061423557508273ffffffffffffffffffffffffffffffffffffffff1661421d83612f01565b73ffffffffffffffffffffffffffffffffffffffff16145b5b90509392505050565b6040518060c0016040528060008152602001600073ffffffffffffffffffffffffffffffffffffffff168152602001600073ffffffffffffffffffffffffffffffffffffffff16815260200160008152602001600015158152602001600081525090565b8280548282559060005260206000209081019282156142df579160200282015b828111156142de5782358255916020019190600101906142c3565b5b5090506142ec91906142f0565b5090565b5b808211156143095760008160009055506001016142f1565b5090565b600082825260208201905092915050565b7f416c6c2063617264207061636b73206172652063757272656e746c7920736f6c60008201527f64206f7574000000000000000000000000000000000000000000000000000000602082015250565b600061437a60258361430d565b91506143858261431e565b604082019050919050565b600060208201905081810360008301526143a98161436d565b9050919050565b7f496e636f7272656374207061796d656e7420616d6f756e740000000000000000600082015250565b60006143e660188361430d565b91506143f1826143b0565b602082019050919050565b60006020820190508181036000830152614415816143d9565b9050919050565b6000604051905090565b600080fd5b600080fd5b60007fffffffff0000000000000000000000000000000000000000000000000000000082169050919050565b61446581614430565b811461447057600080fd5b50565b6000813590506144828161445c565b92915050565b60006020828403121561449e5761449d614426565b5b60006144ac84828501614473565b91505092915050565b60008115159050919050565b6144ca816144b5565b82525050565b60006020820190506144e560008301846144c1565b92915050565b600081519050919050565b60005b838110156145145780820151818401526020810190506144f9565b60008484015250505050565b6000601f19601f8301169050919050565b600061453c826144eb565b614546818561430d565b93506145568185602086016144f6565b61455f81614520565b840191505092915050565b600060208201905081810360008301526145848184614531565b905092915050565b600081519050919050565b600082825260208201905092915050565b6000819050602082019050919050565b6000819050919050565b6145cb816145b8565b82525050565b600073ffffffffffffffffffffffffffffffffffffffff82169050919050565b60006145fc826145d1565b9050919050565b61460c816145f1565b82525050565b61461b816144b5565b82525050565b60c08201600082015161463760008501826145c2565b50602082015161464a6020850182614603565b50604082015161465d6040850182614603565b50606082015161467060608501826145c2565b5060808201516146836080850182614612565b5060a082015161469660a08501826145c2565b50505050565b60006146a88383614621565b60c08301905092915050565b6000602082019050919050565b60006146cc8261458c565b6146d68185614597565b93506146e1836145a8565b8060005b838110156147125781516146f9888261469c565b9750614704836146b4565b9250506001810190506146e5565b5085935050505092915050565b6000602082019050818103600083015261473981846146c1565b905092915050565b61474a816145b8565b811461475557600080fd5b50565b60008135905061476781614741565b92915050565b60006020828403121561478357614782614426565b5b600061479184828501614758565b91505092915050565b60006147a5826145d1565b9050919050565b6147b58161479a565b82525050565b60006020820190506147d060008301846147ac565b92915050565b6147df8161479a565b81146147ea57600080fd5b50565b6000813590506147fc816147d6565b92915050565b6000806040838503121561481957614818614426565b5b6000614827858286016147ed565b925050602061483885828601614758565b9150509250929050565b61484b816144b5565b811461485657600080fd5b50565b60008135905061486881614842565b92915050565b60006020828403121561488457614883614426565b5b600061489284828501614859565b91505092915050565b6148a4816145b8565b82525050565b60006020820190506148bf600083018461489b565b92915050565b600080fd5b600080fd5b600080fd5b60008083601f8401126148ea576148e96148c5565b5b8235905067ffffffffffffffff811115614907576149066148ca565b5b602083019150836020820283011115614923576149226148cf565b5b9250929050565b60008060006040848603121561494357614942614426565b5b600061495186828701614758565b935050602084013567ffffffffffffffff8111156149725761497161442b565b5b61497e868287016148d4565b92509250509250925092565b6000806000606084860312156149a3576149a2614426565b5b60006149b1868287016147ed565b93505060206149c2868287016147ed565b92505060406149d386828701614758565b9150509250925092565b600063ffffffff82169050919050565b6149f6816149dd565b82525050565b6000602082019050614a1160008301846149ed565b92915050565b600060208284031215614a2d57614a2c614426565b5b6000614a3b848285016147ed565b91505092915050565b600081519050919050565b600082825260208201905092915050565b6000819050602082019050919050565b6000614a7c83836145c2565b60208301905092915050565b6000602082019050919050565b6000614aa082614a44565b614aaa8185614a4f565b9350614ab583614a60565b8060005b83811015614ae6578151614acd8882614a70565b9750614ad883614a88565b925050600181019050614ab9565b5085935050505092915050565b60006020820190508181036000830152614b0d8184614a95565b905092915050565b6000819050919050565b614b2881614b15565b82525050565b6000602082019050614b436000830184614b1f565b92915050565b600080fd5b7f4e487b7100000000000000000000000000000000000000000000000000000000600052604160045260246000fd5b614b8682614520565b810181811067ffffffffffffffff82111715614ba557614ba4614b4e565b5b80604052505050565b6000614bb861441c565b9050614bc48282614b7d565b919050565b600067ffffffffffffffff821115614be457614be3614b4e565b5b614bed82614520565b9050602081019050919050565b82818337600083830152505050565b6000614c1c614c1784614bc9565b614bae565b905082815260208101848484011115614c3857614c37614b49565b5b614c43848285614bfa565b509392505050565b600082601f830112614c6057614c5f6148c5565b5b8135614c70848260208601614c09565b91505092915050565b600060208284031215614c8f57614c8e614426565b5b600082013567ffffffffffffffff811115614cad57614cac61442b565b5b614cb984828501614c4b565b91505092915050565b600067ffffffffffffffff821115614cdd57614cdc614b4e565b5b602082029050602081019050919050565b6000614d01614cfc84614cc2565b614bae565b90508083825260208201905060208402830185811115614d2457614d236148cf565b5b835b81811015614d4d5780614d398882614758565b845260208401935050602081019050614d26565b5050509392505050565b600082601f830112614d6c57614d6b6148c5565b5b8135614d7c848260208601614cee565b91505092915050565b600080600060608486031215614d9e57614d9d614426565b5b600084013567ffffffffffffffff811115614dbc57614dbb61442b565b5b614dc886828701614d57565b9350506020614dd9868287016147ed565b9250506040614dea86828701614758565b9150509250925092565b600080600060608486031215614e0d57614e0c614426565b5b600084013567ffffffffffffffff811115614e2b57614e2a61442b565b5b614e3786828701614c4b565b9350506020614e48868287016147ed565b9250506040614e5986828701614758565b9150509250925092565b6000819050919050565b6000614e88614e83614e7e846145d1565b614e63565b6145d1565b9050919050565b6000614e9a82614e6d565b9050919050565b6000614eac82614e8f565b9050919050565b614ebc81614ea1565b82525050565b6000602082019050614ed76000830184614eb3565b92915050565b60008060408385031215614ef457614ef3614426565b5b6000614f02858286016147ed565b9250506020614f1385828601614859565b9150509250929050565b600061ffff82169050919050565b614f3481614f1d565b82525050565b6000602082019050614f4f6000830184614f2b565b92915050565b600067ffffffffffffffff821115614f7057614f6f614b4e565b5b614f7982614520565b9050602081019050919050565b6000614f99614f9484614f55565b614bae565b905082815260208101848484011115614fb557614fb4614b49565b5b614fc0848285614bfa565b509392505050565b600082601f830112614fdd57614fdc6148c5565b5b8135614fed848260208601614f86565b91505092915050565b600080600080608085870312156150105761500f614426565b5b600061501e878288016147ed565b945050602061502f878288016147ed565b935050604061504087828801614758565b925050606085013567ffffffffffffffff8111156150615761506061442b565b5b61506d87828801614fc8565b91505092959194509250565b600080604083850312156150905761508f614426565b5b600061509e858286016147ed565b92505060206150af858286016147ed565b9150509250929050565b600080604083850312156150d0576150cf614426565b5b60006150de85828601614758565b92505060206150ef85828601614758565b9150509250929050565b7f4e487b7100000000000000000000000000000000000000000000000000000000600052601160045260246000fd5b6000615133826145b8565b915061513e836145b8565b9250828201905080821115615156576151556150f9565b5b92915050565b7f4e487b7100000000000000000000000000000000000000000000000000000000600052600160045260246000fd5b6000615196826145b8565b91506151a1836145b8565b92508282039050818111156151b9576151b86150f9565b5b92915050565b6151c881614b15565b82525050565b6151d781614f1d565b82525050565b6151e6816149dd565b82525050565b600081519050919050565b600082825260208201905092915050565b6000615213826151ec565b61521d81856151f7565b935061522d8185602086016144f6565b61523681614520565b840191505092915050565b600060c08301600083015161525960008601826151bf565b50602083015161526c60208601826145c2565b50604083015161527f60408601826151ce565b50606083015161529260608601826151dd565b5060808301516152a560808601826151dd565b5060a083015184820360a08601526152bd8282615208565b9150508091505092915050565b600060208201905081810360008301526152e48184615241565b905092915050565b6000815190506152fb81614741565b92915050565b60006020828403121561531757615316614426565b5b6000615325848285016152ec565b91505092915050565b6000604082019050615343600083018561489b565b61535060208301846147ac565b9392505050565b7f4e487b7100000000000000000000000000000000000000000000000000000000600052602260045260246000fd5b6000600282049050600182168061539e57607f821691505b6020821081036153b1576153b0615357565b5b50919050565b7f4e487b7100000000000000000000000000000000000000000000000000000000600052603260045260246000fd5b60006153f1826145b8565b91507fffffffffffffffffffffffffffffffffffffffffffffffffffffffffffffffff8203615423576154226150f9565b5b600182019050919050565b600060408201905061544360008301856147ac565b61545060208301846147ac565b9392505050565b600060608201905061546c60008301866147ac565b615479602083018561489b565b61548660408301846147ac565b949350505050565b60008190508160005260206000209050919050565b60006020601f8301049050919050565b600082821b905092915050565b6000600883026154f07fffffffffffffffffffffffffffffffffffffffffffffffffffffffffffffffff826154b3565b6154fa86836154b3565b95508019841693508086168417925050509392505050565b600061552d615528615523846145b8565b614e63565b6145b8565b9050919050565b6000819050919050565b61554783615512565b61555b61555382615534565b8484546154c0565b825550505050565b600090565b615570615563565b61557b81848461553e565b505050565b5b8181101561559f57615594600082615568565b600181019050615581565b5050565b601f8211156155e4576155b58161548e565b6155be846154a3565b810160208510156155cd578190505b6155e16155d9856154a3565b830182615580565b50505b505050565b600082821c905092915050565b6000615607600019846008026155e9565b1980831691505092915050565b600061562083836155f6565b9150826002028217905092915050565b615639826144eb565b67ffffffffffffffff81111561565257615651614b4e565b5b61565c8254615386565b6156678282856155a3565b600060209050601f83116001811461569a5760008415615688578287015190505b6156928582615614565b8655506156fa565b601f1984166156a88661548e565b60005b828110156156d0578489015182556001820191506020850194506020810190506156ab565b868310156156ed57848901516156e9601f8916826155f6565b8355505b6001600288020188555050505b505050505050565b7f457870656374656420582072616e646f6d206e756d6265727300000000000000600082015250565b600061573860198361430d565b915061574382615702565b602082019050919050565b600060208201905081810360008301526157678161572b565b9050919050565b7f526563697069656e74206164647265737320697320696e76616c696400000000600082015250565b60006157a4601c8361430d565b91506157af8261576e565b602082019050919050565b600060208201905081810360008301526157d381615797565b9050919050565b7f4e487b7100000000000000000000000000000000000000000000000000000000600052601260045260246000fd5b6000615814826145b8565b915061581f836145b8565b92508261582f5761582e6157da565b5b828206905092915050565b600081905092915050565b6000815461585281615386565b61585c818661583a565b94506001821660008114615877576001811461588c576158bf565b60ff19831686528115158202860193506158bf565b6158958561548e565b60005b838110156158b757815481890152600182019150602081019050615898565b838801955050505b50505092915050565b60006158d3826144eb565b6158dd818561583a565b93506158ed8185602086016144f6565b80840191505092915050565b7f2e706e6700000000000000000000000000000000000000000000000000000000600082015250565b600061592f60048361583a565b915061593a826158f9565b600482019050919050565b60006159518285615845565b915061595d82846158c8565b915061596882615922565b91508190509392505050565b6000606082019050615989600083018661489b565b61599660208301856147ac565b81810360408301526159a88184614531565b9050949350505050565b7f4d7573742062652070726f706f736564206f776e657200000000000000000000600082015250565b60006159e860168361430d565b91506159f3826159b2565b602082019050919050565b60006020820190508181036000830152615a17816159db565b9050919050565b6000606082019050615a3360008301866147ac565b615a4060208301856147ac565b615a4d60408301846147ac565b949350505050565b7f506c65617365207375626d6974207468652061736b696e67207072696365206960008201527f6e206f7264657220746f20636f6d706c65746520746865207075726368617365602082015250565b6000615ab160408361430d565b9150615abc82615a55565b604082019050919050565b60006020820190508181036000830152615ae081615aa4565b9050919050565b6000615af382856158c8565b9150615aff82846158c8565b91508190509392505050565b602082016000820151615b216000850182614612565b50505050565b6000602082019050615b3c6000830184615b0b565b92915050565b7f4f6e6c792063616c6c61626c65206279206f776e657200000000000000000000600082015250565b6000615b7860168361430d565b9150615b8382615b42565b602082019050919050565b60006020820190508181036000830152615ba781615b6b565b9050919050565b600082825260208201905092915050565b6000615bca826151ec565b615bd48185615bae565b9350615be48185602086016144f6565b615bed81614520565b840191505092915050565b6000608082019050615c0d60008301876147ac565b615c1a60208301866147ac565b615c27604083018561489b565b8181036060830152615c398184615bbf565b905095945050505050565b600081519050615c538161445c565b92915050565b600060208284031215615c6f57615c6e614426565b5b6000615c7d84828501615c44565b91505092915050565b7f5072696365206d757374206265206174206c6561737420312077656900000000600082015250565b6000615cbc601c8361430d565b9150615cc782615c86565b602082019050919050565b60006020820190508181036000830152615ceb81615caf565b9050919050565b6000608082019050615d0760008301876147ac565b615d1460208301866147ac565b615d21604083018561489b565b615d2e60608301846144c1565b95945050505050565b7f43616e6e6f74207472616e7366657220746f2073656c66000000000000000000600082015250565b6000615d6d60178361430d565b9150615d7882615d37565b602082019050919050565b60006020820190508181036000830152615d9c81615d60565b9050919050565b6000604082019050615db860008301856147ac565b615dc5602083018461489b565b939250505056fea2646970667358221220ecdf87c340dde21569f180c06ca35853260c7d6d7d7896760cf32542fa3c3c8364736f6c6343000814003368747470733a2f2f626166796265696337726c3569797134736537673635743264777a6f6c667175686d327434647772796f6d64636d716f756574327179766b6e33752e697066732e7733732e6c696e6b2f",
  "linkReferences": {},
  "deployedLinkReferences": {}
}