{
  "_format": "hh-sol-artifact-1",
  "contractName": "CardMintPack",
  "sourceName": "contracts/CardMintPack.sol",
  "abi": [
    {
      "inputs": [
        {
          "internalType": "uint256",
          "name": "subscriptionId",
          "type": "uint256"
        }
      ],
      "stateMutability": "nonpayable",
      "type": "constructor"
    },
    {
      "inputs": [
        {
          "internalType": "address",
          "name": "sender",
          "type": "address"
        },
        {
          "internalType": "uint256",
          "name": "tokenId",
          "type": "uint256"
        },
        {
          "internalType": "address",
          "name": "owner",
          "type": "address"
        }
      ],
      "name": "ERC721IncorrectOwner",
      "type": "error"
    },
    {
      "inputs": [
        {
          "internalType": "address",
          "name": "operator",
          "type": "address"
        },
        {
          "internalType": "uint256",
          "name": "tokenId",
          "type": "uint256"
        }
      ],
      "name": "ERC721InsufficientApproval",
      "type": "error"
    },
    {
      "inputs": [
        {
          "internalType": "address",
          "name": "approver",
          "type": "address"
        }
      ],
      "name": "ERC721InvalidApprover",
      "type": "error"
    },
    {
      "inputs": [
        {
          "internalType": "address",
          "name": "operator",
          "type": "address"
        }
      ],
      "name": "ERC721InvalidOperator",
      "type": "error"
    },
    {
      "inputs": [
        {
          "internalType": "address",
          "name": "owner",
          "type": "address"
        }
      ],
      "name": "ERC721InvalidOwner",
      "type": "error"
    },
    {
      "inputs": [
        {
          "internalType": "address",
          "name": "receiver",
          "type": "address"
        }
      ],
      "name": "ERC721InvalidReceiver",
      "type": "error"
    },
    {
      "inputs": [
        {
          "internalType": "address",
          "name": "sender",
          "type": "address"
        }
      ],
      "name": "ERC721InvalidSender",
      "type": "error"
    },
    {
      "inputs": [
        {
          "internalType": "uint256",
          "name": "tokenId",
          "type": "uint256"
        }
      ],
      "name": "ERC721NonexistentToken",
      "type": "error"
    },
    {
      "inputs": [
        {
          "internalType": "address",
          "name": "have",
          "type": "address"
        },
        {
          "internalType": "address",
          "name": "want",
          "type": "address"
        }
      ],
      "name": "OnlyCoordinatorCanFulfill",
      "type": "error"
    },
    {
      "inputs": [
        {
          "internalType": "address",
          "name": "have",
          "type": "address"
        },
        {
          "internalType": "address",
          "name": "owner",
          "type": "address"
        },
        {
          "internalType": "address",
          "name": "coordinator",
          "type": "address"
        }
      ],
      "name": "OnlyOwnerOrCoordinator",
      "type": "error"
    },
    {
      "inputs": [],
      "name": "ZeroAddress",
      "type": "error"
    },
    {
      "anonymous": false,
      "inputs": [
        {
          "indexed": true,
          "internalType": "address",
          "name": "owner",
          "type": "address"
        },
        {
          "indexed": true,
          "internalType": "address",
          "name": "approved",
          "type": "address"
        },
        {
          "indexed": true,
          "internalType": "uint256",
          "name": "tokenId",
          "type": "uint256"
        }
      ],
      "name": "Approval",
      "type": "event"
    },
    {
      "anonymous": false,
      "inputs": [
        {
          "indexed": true,
          "internalType": "address",
          "name": "owner",
          "type": "address"
        },
        {
          "indexed": true,
          "internalType": "address",
          "name": "operator",
          "type": "address"
        },
        {
          "indexed": false,
          "internalType": "bool",
          "name": "approved",
          "type": "bool"
        }
      ],
      "name": "ApprovalForAll",
      "type": "event"
    },
    {
      "anonymous": false,
      "inputs": [
        {
          "indexed": false,
          "internalType": "uint256",
          "name": "_fromTokenId",
          "type": "uint256"
        },
        {
          "indexed": false,
          "internalType": "uint256",
          "name": "_toTokenId",
          "type": "uint256"
        }
      ],
      "name": "BatchMetadataUpdate",
      "type": "event"
    },
    {
      "anonymous": false,
      "inputs": [
        {
          "indexed": false,
          "internalType": "uint256",
          "name": "tokenId",
          "type": "uint256"
        },
        {
          "indexed": false,
          "internalType": "address",
          "name": "owner",
          "type": "address"
        },
        {
          "indexed": false,
          "internalType": "string",
          "name": "metadataURI",
          "type": "string"
        }
      ],
      "name": "CardMinted",
      "type": "event"
    },
    {
      "anonymous": false,
      "inputs": [
        {
          "indexed": false,
          "internalType": "address",
          "name": "vrfCoordinator",
          "type": "address"
        }
      ],
      "name": "CoordinatorSet",
      "type": "event"
    },
    {
      "anonymous": false,
      "inputs": [
        {
          "indexed": true,
          "internalType": "uint256",
          "name": "tokenId",
          "type": "uint256"
        },
        {
          "indexed": false,
          "internalType": "address",
          "name": "seller",
          "type": "address"
        },
        {
          "indexed": false,
          "internalType": "address",
          "name": "owner",
          "type": "address"
        },
        {
          "indexed": false,
          "internalType": "uint256",
          "name": "price",
          "type": "uint256"
        },
        {
          "indexed": false,
          "internalType": "bool",
          "name": "sold",
          "type": "bool"
        }
      ],
      "name": "ListingCreated",
      "type": "event"
    },
    {
      "anonymous": false,
      "inputs": [
        {
          "indexed": true,
          "internalType": "uint256",
          "name": "tokenId",
          "type": "uint256"
        },
        {
          "indexed": false,
          "internalType": "address",
          "name": "seller",
          "type": "address"
        }
      ],
      "name": "ListingRemoved",
      "type": "event"
    },
    {
      "anonymous": false,
      "inputs": [
        {
          "indexed": false,
          "internalType": "uint256",
          "name": "_tokenId",
          "type": "uint256"
        }
      ],
      "name": "MetadataUpdate",
      "type": "event"
    },
    {
      "anonymous": false,
      "inputs": [
        {
          "indexed": true,
          "internalType": "address",
          "name": "from",
          "type": "address"
        },
        {
          "indexed": true,
          "internalType": "address",
          "name": "to",
          "type": "address"
        }
      ],
      "name": "OwnershipTransferRequested",
      "type": "event"
    },
    {
      "anonymous": false,
      "inputs": [
        {
          "indexed": true,
          "internalType": "address",
          "name": "from",
          "type": "address"
        },
        {
          "indexed": true,
          "internalType": "address",
          "name": "to",
          "type": "address"
        }
      ],
      "name": "OwnershipTransferred",
      "type": "event"
    },
    {
      "anonymous": false,
      "inputs": [
        {
          "indexed": true,
          "internalType": "address",
          "name": "buyer",
          "type": "address"
        },
        {
          "indexed": false,
          "internalType": "uint256",
          "name": "packId",
          "type": "uint256"
        },
        {
          "indexed": false,
          "internalType": "uint256",
          "name": "requestId",
          "type": "uint256"
        }
      ],
      "name": "PackPurchased",
      "type": "event"
    },
    {
      "anonymous": false,
      "inputs": [
        {
          "indexed": false,
          "internalType": "uint256",
          "name": "requestId",
          "type": "uint256"
        },
        {
          "indexed": false,
          "internalType": "uint256[]",
          "name": "randomWords",
          "type": "uint256[]"
        }
      ],
      "name": "RandomnessFulfilled",
      "type": "event"
    },
    {
      "anonymous": false,
      "inputs": [
        {
          "indexed": false,
          "internalType": "uint256",
          "name": "requestId",
          "type": "uint256"
        },
        {
          "indexed": false,
          "internalType": "address",
          "name": "requester",
          "type": "address"
        }
      ],
      "name": "RandomnessRequested",
      "type": "event"
    },
    {
      "anonymous": false,
      "inputs": [
        {
          "indexed": true,
          "internalType": "address",
          "name": "from",
          "type": "address"
        },
        {
          "indexed": true,
          "internalType": "address",
          "name": "to",
          "type": "address"
        },
        {
          "indexed": true,
          "internalType": "uint256",
          "name": "tokenId",
          "type": "uint256"
        }
      ],
      "name": "Transfer",
      "type": "event"
    },
    {
      "inputs": [],
      "name": "acceptOwnership",
      "outputs": [],
      "stateMutability": "nonpayable",
      "type": "function"
    },
    {
      "inputs": [
        {
          "internalType": "address",
          "name": "to",
          "type": "address"
        },
        {
          "internalType": "uint256",
          "name": "tokenId",
          "type": "uint256"
        }
      ],
      "name": "approve",
      "outputs": [],
      "stateMutability": "nonpayable",
      "type": "function"
    },
    {
      "inputs": [
        {
          "internalType": "address",
          "name": "owner",
          "type": "address"
        }
      ],
      "name": "balanceOf",
      "outputs": [
        {
          "internalType": "uint256",
          "name": "",
          "type": "uint256"
        }
      ],
      "stateMutability": "view",
      "type": "function"
    },
    {
      "inputs": [],
      "name": "baseURI",
      "outputs": [
        {
          "internalType": "string",
          "name": "",
          "type": "string"
        }
      ],
      "stateMutability": "view",
      "type": "function"
    },
    {
      "inputs": [
        {
          "internalType": "uint256[]",
          "name": "_randomWords",
          "type": "uint256[]"
        },
        {
          "internalType": "address",
          "name": "recipient",
          "type": "address"
        }
      ],
      "name": "batchMint",
      "outputs": [],
      "stateMutability": "nonpayable",
      "type": "function"
    },
    {
      "inputs": [],
      "name": "callbackGasLimit",
      "outputs": [
        {
          "internalType": "uint32",
          "name": "",
          "type": "uint32"
        }
      ],
      "stateMutability": "view",
      "type": "function"
    },
    {
      "inputs": [
        {
          "internalType": "string",
          "name": "tokenURI",
          "type": "string"
        },
        {
          "internalType": "address",
          "name": "recipient",
          "type": "address"
        }
      ],
      "name": "createToken",
      "outputs": [
        {
          "internalType": "uint256",
          "name": "",
          "type": "uint256"
        }
      ],
      "stateMutability": "payable",
      "type": "function"
    },
    {
      "inputs": [],
      "name": "fetchItemsListed",
      "outputs": [
        {
          "components": [
            {
              "internalType": "uint256",
              "name": "tokenId",
              "type": "uint256"
            },
            {
              "internalType": "address payable",
              "name": "seller",
              "type": "address"
            },
            {
              "internalType": "address payable",
              "name": "owner",
              "type": "address"
            },
            {
              "internalType": "uint256",
              "name": "price",
              "type": "uint256"
            },
            {
              "internalType": "bool",
              "name": "sold",
              "type": "bool"
            }
          ],
          "internalType": "struct NFTplace.Listing[]",
          "name": "",
          "type": "tuple[]"
        }
      ],
      "stateMutability": "view",
      "type": "function"
    },
    {
      "inputs": [],
      "name": "fetchListingMarketplace",
      "outputs": [
        {
          "components": [
            {
              "internalType": "uint256",
              "name": "tokenId",
              "type": "uint256"
            },
            {
              "internalType": "address payable",
              "name": "seller",
              "type": "address"
            },
            {
              "internalType": "address payable",
              "name": "owner",
              "type": "address"
            },
            {
              "internalType": "uint256",
              "name": "price",
              "type": "uint256"
            },
            {
              "internalType": "bool",
              "name": "sold",
              "type": "bool"
            }
          ],
          "internalType": "struct NFTplace.Listing[]",
          "name": "",
          "type": "tuple[]"
        }
      ],
      "stateMutability": "view",
      "type": "function"
    },
    {
      "inputs": [],
      "name": "fetchMyNFTs",
      "outputs": [
        {
          "components": [
            {
              "internalType": "uint256",
              "name": "tokenId",
              "type": "uint256"
            },
            {
              "internalType": "address payable",
              "name": "seller",
              "type": "address"
            },
            {
              "internalType": "address payable",
              "name": "owner",
              "type": "address"
            },
            {
              "internalType": "uint256",
              "name": "price",
              "type": "uint256"
            },
            {
              "internalType": "bool",
              "name": "sold",
              "type": "bool"
            }
          ],
          "internalType": "struct NFTplace.Listing[]",
          "name": "",
          "type": "tuple[]"
        }
      ],
      "stateMutability": "view",
      "type": "function"
    },
    {
      "inputs": [
        {
          "internalType": "uint256",
          "name": "tokenId",
          "type": "uint256"
        }
      ],
      "name": "getApproved",
      "outputs": [
        {
          "internalType": "address",
          "name": "",
          "type": "address"
        }
      ],
      "stateMutability": "view",
      "type": "function"
    },
    {
      "inputs": [],
      "name": "getContractOwner",
      "outputs": [
        {
          "internalType": "address",
          "name": "",
          "type": "address"
        }
      ],
      "stateMutability": "view",
      "type": "function"
    },
    {
      "inputs": [],
      "name": "getListingPrice",
      "outputs": [
        {
          "internalType": "uint256",
          "name": "",
          "type": "uint256"
        }
      ],
      "stateMutability": "view",
      "type": "function"
    },
    {
      "inputs": [
        {
          "internalType": "address",
          "name": "user",
          "type": "address"
        }
      ],
      "name": "getMintedTokens",
      "outputs": [
        {
          "internalType": "uint256[]",
          "name": "",
          "type": "uint256[]"
        }
      ],
      "stateMutability": "view",
      "type": "function"
    },
    {
      "inputs": [],
      "name": "getNativePayment",
      "outputs": [
        {
          "internalType": "string",
          "name": "",
          "type": "string"
        }
      ],
      "stateMutability": "view",
      "type": "function"
    },
    {
      "inputs": [],
      "name": "getPacksAvailable",
      "outputs": [
        {
          "internalType": "uint256",
          "name": "",
          "type": "uint256"
        }
      ],
      "stateMutability": "view",
      "type": "function"
    },
    {
      "inputs": [],
      "name": "getTotalPacksSold",
      "outputs": [
        {
          "internalType": "uint256",
          "name": "",
          "type": "uint256"
        }
      ],
      "stateMutability": "view",
      "type": "function"
    },
    {
      "inputs": [
        {
          "internalType": "address",
          "name": "owner",
          "type": "address"
        },
        {
          "internalType": "address",
          "name": "operator",
          "type": "address"
        }
      ],
      "name": "isApprovedForAll",
      "outputs": [
        {
          "internalType": "bool",
          "name": "",
          "type": "bool"
        }
      ],
      "stateMutability": "view",
      "type": "function"
    },
    {
      "inputs": [
        {
          "internalType": "uint256",
          "name": "tokenId",
          "type": "uint256"
        },
        {
          "internalType": "uint256",
          "name": "price",
          "type": "uint256"
        }
      ],
      "name": "listCard",
      "outputs": [],
      "stateMutability": "payable",
      "type": "function"
    },
    {
      "inputs": [],
      "name": "name",
      "outputs": [
        {
          "internalType": "string",
          "name": "",
          "type": "string"
        }
      ],
      "stateMutability": "view",
      "type": "function"
    },
    {
      "inputs": [],
      "name": "nextTokenId",
      "outputs": [
        {
          "internalType": "uint256",
          "name": "",
          "type": "uint256"
        }
      ],
      "stateMutability": "view",
      "type": "function"
    },
    {
      "inputs": [],
      "name": "numWords",
      "outputs": [
        {
          "internalType": "uint32",
          "name": "",
          "type": "uint32"
        }
      ],
      "stateMutability": "view",
      "type": "function"
    },
    {
      "inputs": [],
      "name": "owner",
      "outputs": [
        {
          "internalType": "address",
          "name": "",
          "type": "address"
        }
      ],
      "stateMutability": "view",
      "type": "function"
    },
    {
      "inputs": [
        {
          "internalType": "uint256",
          "name": "tokenId",
          "type": "uint256"
        }
      ],
      "name": "ownerOf",
      "outputs": [
        {
          "internalType": "address",
          "name": "",
          "type": "address"
        }
      ],
      "stateMutability": "view",
      "type": "function"
    },
    {
      "inputs": [],
      "name": "packPrice",
      "outputs": [
        {
          "internalType": "uint256",
          "name": "",
          "type": "uint256"
        }
      ],
      "stateMutability": "view",
      "type": "function"
    },
    {
      "inputs": [],
      "name": "packsAvailable",
      "outputs": [
        {
          "internalType": "uint256",
          "name": "",
          "type": "uint256"
        }
      ],
      "stateMutability": "view",
      "type": "function"
    },
    {
      "inputs": [
        {
          "internalType": "uint256",
          "name": "tokenId",
          "type": "uint256"
        }
      ],
      "name": "purchaseCard",
      "outputs": [],
      "stateMutability": "payable",
      "type": "function"
    },
    {
      "inputs": [
        {
          "internalType": "uint256",
          "name": "requestId",
          "type": "uint256"
        },
        {
          "internalType": "uint256[]",
          "name": "randomWords",
          "type": "uint256[]"
        }
      ],
      "name": "rawFulfillRandomWords",
      "outputs": [],
      "stateMutability": "nonpayable",
      "type": "function"
    },
    {
      "inputs": [],
      "name": "requestConfirmations",
      "outputs": [
        {
          "internalType": "uint16",
          "name": "",
          "type": "uint16"
        }
      ],
      "stateMutability": "view",
      "type": "function"
    },
    {
      "inputs": [],
      "name": "requestRandomWords",
      "outputs": [
        {
          "internalType": "uint256",
          "name": "requestId",
          "type": "uint256"
        }
      ],
      "stateMutability": "nonpayable",
      "type": "function"
    },
    {
      "inputs": [],
      "name": "s_keyHash",
      "outputs": [
        {
          "internalType": "bytes32",
          "name": "",
          "type": "bytes32"
        }
      ],
      "stateMutability": "view",
      "type": "function"
    },
    {
      "inputs": [
        {
          "internalType": "uint256",
          "name": "",
          "type": "uint256"
        }
      ],
      "name": "s_randomWords",
      "outputs": [
        {
          "internalType": "uint256",
          "name": "",
          "type": "uint256"
        }
      ],
      "stateMutability": "view",
      "type": "function"
    },
    {
      "inputs": [
        {
          "internalType": "uint256",
          "name": "",
          "type": "uint256"
        }
      ],
      "name": "s_requestToSender",
      "outputs": [
        {
          "internalType": "address",
          "name": "",
          "type": "address"
        }
      ],
      "stateMutability": "view",
      "type": "function"
    },
    {
      "inputs": [],
      "name": "s_subscriptionId",
      "outputs": [
        {
          "internalType": "uint256",
          "name": "",
          "type": "uint256"
        }
      ],
      "stateMutability": "view",
      "type": "function"
    },
    {
      "inputs": [],
      "name": "s_vrfCoordinator",
      "outputs": [
        {
          "internalType": "contract IVRFCoordinatorV2Plus",
          "name": "",
          "type": "address"
        }
      ],
      "stateMutability": "view",
      "type": "function"
    },
    {
      "inputs": [
        {
          "internalType": "address",
          "name": "from",
          "type": "address"
        },
        {
          "internalType": "address",
          "name": "to",
          "type": "address"
        },
        {
          "internalType": "uint256",
          "name": "tokenId",
          "type": "uint256"
        }
      ],
      "name": "safeTransferFrom",
      "outputs": [],
      "stateMutability": "nonpayable",
      "type": "function"
    },
    {
      "inputs": [
        {
          "internalType": "address",
          "name": "from",
          "type": "address"
        },
        {
          "internalType": "address",
          "name": "to",
          "type": "address"
        },
        {
          "internalType": "uint256",
          "name": "tokenId",
          "type": "uint256"
        },
        {
          "internalType": "bytes",
          "name": "data",
          "type": "bytes"
        }
      ],
      "name": "safeTransferFrom",
      "outputs": [],
      "stateMutability": "nonpayable",
      "type": "function"
    },
    {
      "inputs": [
        {
          "internalType": "address",
          "name": "operator",
          "type": "address"
        },
        {
          "internalType": "bool",
          "name": "approved",
          "type": "bool"
        }
      ],
      "name": "setApprovalForAll",
      "outputs": [],
      "stateMutability": "nonpayable",
      "type": "function"
    },
    {
      "inputs": [
        {
          "internalType": "string",
          "name": "_baseURI",
          "type": "string"
        }
      ],
      "name": "setBaseURI",
      "outputs": [],
      "stateMutability": "nonpayable",
      "type": "function"
    },
    {
      "inputs": [
        {
          "internalType": "address",
          "name": "_vrfCoordinator",
          "type": "address"
        }
      ],
      "name": "setCoordinator",
      "outputs": [],
      "stateMutability": "nonpayable",
      "type": "function"
    },
    {
      "inputs": [
        {
          "internalType": "bool",
          "name": "_enableNativePayment",
          "type": "bool"
        }
      ],
      "name": "setNativePayment",
      "outputs": [],
      "stateMutability": "nonpayable",
      "type": "function"
    },
    {
      "inputs": [
        {
          "internalType": "bytes4",
          "name": "interfaceId",
          "type": "bytes4"
        }
      ],
      "name": "supportsInterface",
      "outputs": [
        {
          "internalType": "bool",
          "name": "",
          "type": "bool"
        }
      ],
      "stateMutability": "view",
      "type": "function"
    },
    {
      "inputs": [],
      "name": "symbol",
      "outputs": [
        {
          "internalType": "string",
          "name": "",
          "type": "string"
        }
      ],
      "stateMutability": "view",
      "type": "function"
    },
    {
      "inputs": [
        {
          "internalType": "uint256",
          "name": "tokenId",
          "type": "uint256"
        }
      ],
      "name": "tokenURI",
      "outputs": [
        {
          "internalType": "string",
          "name": "",
          "type": "string"
        }
      ],
      "stateMutability": "view",
      "type": "function"
    },
    {
      "inputs": [],
      "name": "totalPacksSold",
      "outputs": [
        {
          "internalType": "uint256",
          "name": "",
          "type": "uint256"
        }
      ],
      "stateMutability": "view",
      "type": "function"
    },
    {
      "inputs": [
        {
          "internalType": "address",
          "name": "from",
          "type": "address"
        },
        {
          "internalType": "address",
          "name": "to",
          "type": "address"
        },
        {
          "internalType": "uint256",
          "name": "tokenId",
          "type": "uint256"
        }
      ],
      "name": "transferFrom",
      "outputs": [],
      "stateMutability": "nonpayable",
      "type": "function"
    },
    {
      "inputs": [
        {
          "internalType": "address",
          "name": "to",
          "type": "address"
        }
      ],
      "name": "transferOwnership",
      "outputs": [],
      "stateMutability": "nonpayable",
      "type": "function"
    },
    {
      "inputs": [
        {
          "internalType": "uint256",
          "name": "newPrice",
          "type": "uint256"
        }
      ],
      "name": "updatePackPrice",
      "outputs": [],
      "stateMutability": "nonpayable",
      "type": "function"
    },
    {
      "inputs": [
        {
          "internalType": "uint256",
          "name": "newQty",
          "type": "uint256"
        }
      ],
      "name": "updatePacksAvailable",
      "outputs": [],
      "stateMutability": "nonpayable",
      "type": "function"
    },
    {
      "inputs": [],
      "name": "withdraw",
      "outputs": [],
      "stateMutability": "nonpayable",
      "type": "function"
    },
    {
      "stateMutability": "payable",
      "type": "receive"
    }
  ],
  "bytecode": "0x6080604052655af3107a4000600c557f787d74caea10b2b357790d5b5247c2f63d1d91572a9846f780606e4d953677ae60001b601355621e8480601460006101000a81548163ffffffff021916908363ffffffff1602179055506003601460046101000a81548161ffff021916908361ffff1602179055506005601460066101000a81548163ffffffff021916908363ffffffff1602179055506040518060a0016040528060748152602001620064556074913960159081620000c3919062000756565b5066038d7ea4c680006017556064601855348015620000e157600080fd5b50604051620064c9380380620064c9833981810160405281019062000107919062000873565b739ddfaca8183c41ad55329bdeed9f6a8d53168b1b6040518060400160405280600c81526020017f5a6f6465636b20436172647300000000000000000000000000000000000000008152506040518060400160405280600381526020017f5a444b0000000000000000000000000000000000000000000000000000000000815250338060008073ffffffffffffffffffffffffffffffffffffffff168273ffffffffffffffffffffffffffffffffffffffff1603620001fd576040517f08c379a0000000000000000000000000000000000000000000000000000000008152600401620001f49062000906565b60405180910390fd5b816000806101000a81548173ffffffffffffffffffffffffffffffffffffffff021916908373ffffffffffffffffffffffffffffffffffffffff160217905550600073ffffffffffffffffffffffffffffffffffffffff168173ffffffffffffffffffffffffffffffffffffffff161462000284576200028381620003ad60201b60201c565b5b505050816002908162000298919062000756565b508060039081620002aa919062000756565b505050600073ffffffffffffffffffffffffffffffffffffffff168173ffffffffffffffffffffffffffffffffffffffff160362000314576040517fd92e233d00000000000000000000000000000000000000000000000000000000815260040160405180910390fd5b80600960006101000a81548173ffffffffffffffffffffffffffffffffffffffff021916908373ffffffffffffffffffffffffffffffffffffffff1602179055505033600d60006101000a81548173ffffffffffffffffffffffffffffffffffffffff021916908373ffffffffffffffffffffffffffffffffffffffff160217905550806012819055506000601981905550506200099a565b3373ffffffffffffffffffffffffffffffffffffffff168173ffffffffffffffffffffffffffffffffffffffff16036200041e576040517f08c379a0000000000000000000000000000000000000000000000000000000008152600401620004159062000978565b60405180910390fd5b80600160006101000a81548173ffffffffffffffffffffffffffffffffffffffff021916908373ffffffffffffffffffffffffffffffffffffffff1602179055508073ffffffffffffffffffffffffffffffffffffffff1660008054906101000a900473ffffffffffffffffffffffffffffffffffffffff1673ffffffffffffffffffffffffffffffffffffffff167fed8889f560326eb138920d842192f0eb3dd22b4f139c87a2c57538e05bae127860405160405180910390a350565b600081519050919050565b7f4e487b7100000000000000000000000000000000000000000000000000000000600052604160045260246000fd5b7f4e487b7100000000000000000000000000000000000000000000000000000000600052602260045260246000fd5b600060028204905060018216806200055e57607f821691505b60208210810362000574576200057362000516565b5b50919050565b60008190508160005260206000209050919050565b60006020601f8301049050919050565b600082821b905092915050565b600060088302620005de7fffffffffffffffffffffffffffffffffffffffffffffffffffffffffffffffff826200059f565b620005ea86836200059f565b95508019841693508086168417925050509392505050565b6000819050919050565b6000819050919050565b600062000637620006316200062b8462000602565b6200060c565b62000602565b9050919050565b6000819050919050565b620006538362000616565b6200066b62000662826200063e565b848454620005ac565b825550505050565b600090565b6200068262000673565b6200068f81848462000648565b505050565b5b81811015620006b757620006ab60008262000678565b60018101905062000695565b5050565b601f8211156200070657620006d0816200057a565b620006db846200058f565b81016020851015620006eb578190505b62000703620006fa856200058f565b83018262000694565b50505b505050565b600082821c905092915050565b60006200072b600019846008026200070b565b1980831691505092915050565b600062000746838362000718565b9150826002028217905092915050565b6200076182620004dc565b67ffffffffffffffff8111156200077d576200077c620004e7565b5b62000789825462000545565b62000796828285620006bb565b600060209050601f831160018114620007ce5760008415620007b9578287015190505b620007c5858262000738565b86555062000835565b601f198416620007de866200057a565b60005b828110156200080857848901518255600182019150602085019450602081019050620007e1565b8683101562000828578489015162000824601f89168262000718565b8355505b6001600288020188555050505b505050505050565b600080fd5b6200084d8162000602565b81146200085957600080fd5b50565b6000815190506200086d8162000842565b92915050565b6000602082840312156200088c576200088b6200083d565b5b60006200089c848285016200085c565b91505092915050565b600082825260208201905092915050565b7f43616e6e6f7420736574206f776e657220746f207a65726f0000000000000000600082015250565b6000620008ee601883620008a5565b9150620008fb82620008b6565b602082019050919050565b600060208201905081810360008301526200092181620008df565b9050919050565b7f43616e6e6f74207472616e7366657220746f2073656c66000000000000000000600082015250565b600062000960601783620008a5565b91506200096d8262000928565b602082019050919050565b60006020820190508181036000830152620009938162000951565b9050919050565b615aab80620009aa6000396000f3fe6080604052600436106102cd5760003560e01c806375794a3c11610175578063a54447aa116100dc578063d917bf3e11610095578063eb699f221161006f578063eb699f2214610ba4578063ed36c52f14610bcd578063f2fde38b14610be9578063f6eaffc814610c125761039d565b8063d917bf3e14610b11578063e0c8628914610b3c578063e985e9c514610b675761039d565b8063a54447aa14610a0e578063b0fb162f14610a2a578063b88d4fde14610a55578063c0abba9e14610a7e578063c87b56dd14610aa9578063d759000b14610ae65761039d565b80638da5cb5b1161012e5780638da5cb5b1461090b5780638ea981171461093657806395d89b411461095f5780639eccacf61461098a578063a2119377146109b5578063a22cb465146109e55761039d565b806375794a3c1461081f57806379ba50971461084a5780637cc539b4146108615780637ccfd7fc1461088a5780637f95e4b3146108b55780638ac00021146108e05761039d565b80632e602d291161023457806345bb327b116101ed57806355f804b3116101c757806355f804b3146107515780636352211e1461077a5780636c0360eb146107b757806370a08231146107e25761039d565b806345bb327b146106d057806345f8fa80146106fb57806355901bb0146107265761039d565b80632e602d29146105c0578063335c8b63146105fd5780633ccfd60b1461062857806342842e0e1461063f578063434a49a114610668578063442890d5146106a55761039d565b806312e855851161028657806312e85585146104c45780631a01d53a146104ef5780631fe543e314610518578063202e37401461054157806323b872dd1461056c57806324f74697146105955761039d565b806301ffc9a7146103a257806306fdde03146103df57806307c11e0d1461040a578063081812fc14610435578063095ea7b3146104725780630c6dcd311461049b5761039d565b3661039d57600060185411610317576040517f08c379a000000000000000000000000000000000000000000000000000000000815260040161030e906140ad565b60405180910390fd5b601754341461035b576040517f08c379a000000000000000000000000000000000000000000000000000000000815260040161035290614119565b60405180910390fd5b6103716001601954610c4f90919063ffffffff16565b60198190555061038d6001601854610c7b90919063ffffffff16565b60188190555061039b610ca2565b005b600080fd5b3480156103ae57600080fd5b506103c960048036038101906103c491906141a5565b610e6d565b6040516103d691906141ed565b60405180910390f35b3480156103eb57600080fd5b506103f4610ece565b6040516104019190614287565b60405180910390f35b34801561041657600080fd5b5061041f610f60565b60405161042c9190614429565b60405180910390f35b34801561044157600080fd5b5061045c60048036038101906104579190614477565b6111a7565b60405161046991906144c5565b60405180910390f35b34801561047e57600080fd5b506104996004803603810190610494919061450c565b6111c3565b005b3480156104a757600080fd5b506104c260048036038101906104bd9190614578565b6111d9565b005b3480156104d057600080fd5b506104d96111fe565b6040516104e691906145b4565b60405180910390f35b3480156104fb57600080fd5b5061051660048036038101906105119190614477565b611208565b005b34801561052457600080fd5b5061053f600480360381019061053a9190614634565b61121a565b005b34801561054d57600080fd5b506105566112e0565b6040516105639190614429565b60405180910390f35b34801561057857600080fd5b50610593600480360381019061058e9190614694565b6115d3565b005b3480156105a157600080fd5b506105aa6116d5565b6040516105b79190614706565b60405180910390f35b3480156105cc57600080fd5b506105e760048036038101906105e29190614477565b6116eb565b6040516105f491906144c5565b60405180910390f35b34801561060957600080fd5b5061061261171e565b60405161061f91906145b4565b60405180910390f35b34801561063457600080fd5b5061063d611724565b005b34801561064b57600080fd5b5061066660048036038101906106619190614694565b611782565b005b34801561067457600080fd5b5061068f600480360381019061068a9190614721565b6117a2565b60405161069c91906147fd565b60405180910390f35b3480156106b157600080fd5b506106ba611839565b6040516106c791906144c5565b60405180910390f35b3480156106dc57600080fd5b506106e5611863565b6040516106f29190614838565b60405180910390f35b34801561070757600080fd5b50610710611869565b60405161071d9190614429565b60405180910390f35b34801561073257600080fd5b5061073b611b5c565b60405161074891906145b4565b60405180910390f35b34801561075d57600080fd5b5061077860048036038101906107739190614983565b611b66565b005b34801561078657600080fd5b506107a1600480360381019061079c9190614477565b611b81565b6040516107ae91906144c5565b60405180910390f35b3480156107c357600080fd5b506107cc611b93565b6040516107d99190614287565b60405180910390f35b3480156107ee57600080fd5b5061080960048036038101906108049190614721565b611c21565b60405161081691906145b4565b60405180910390f35b34801561082b57600080fd5b50610834611cdb565b60405161084191906145b4565b60405180910390f35b34801561085657600080fd5b5061085f611ce1565b005b34801561086d57600080fd5b5061088860048036038101906108839190614477565b611e76565b005b34801561089657600080fd5b5061089f611e88565b6040516108ac9190614706565b60405180910390f35b3480156108c157600080fd5b506108ca611e9e565b6040516108d79190614287565b60405180910390f35b3480156108ec57600080fd5b506108f5611f2e565b60405161090291906145b4565b60405180910390f35b34801561091757600080fd5b50610920611f34565b60405161092d91906144c5565b60405180910390f35b34801561094257600080fd5b5061095d60048036038101906109589190614721565b611f5d565b005b34801561096b57600080fd5b5061097461213e565b6040516109819190614287565b60405180910390f35b34801561099657600080fd5b5061099f6121d0565b6040516109ac9190614a2b565b60405180910390f35b6109cf60048036038101906109ca9190614a46565b6121f6565b6040516109dc91906145b4565b60405180910390f35b3480156109f157600080fd5b50610a0c6004803603810190610a079190614aa2565b612369565b005b610a286004803603810190610a239190614477565b61237f565b005b348015610a3657600080fd5b50610a3f612571565b604051610a4c9190614aff565b60405180910390f35b348015610a6157600080fd5b50610a7c6004803603810190610a779190614bbb565b612585565b005b348015610a8a57600080fd5b50610a936125aa565b604051610aa091906145b4565b60405180910390f35b348015610ab557600080fd5b50610ad06004803603810190610acb9190614477565b6125b0565b604051610add9190614287565b60405180910390f35b348015610af257600080fd5b50610afb6126c3565b604051610b0891906145b4565b60405180910390f35b348015610b1d57600080fd5b50610b266126c9565b604051610b3391906145b4565b60405180910390f35b348015610b4857600080fd5b50610b51610ca2565b604051610b5e91906145b4565b60405180910390f35b348015610b7357600080fd5b50610b8e6004803603810190610b899190614c3e565b6126d3565b604051610b9b91906141ed565b60405180910390f35b348015610bb057600080fd5b50610bcb6004803603810190610bc69190614d41565b612767565b005b610be76004803603810190610be29190614d9d565b612a0a565b005b348015610bf557600080fd5b50610c106004803603810190610c0b9190614721565b612a18565b005b348015610c1e57600080fd5b50610c396004803603810190610c349190614477565b612a2c565b604051610c4691906145b4565b60405180910390f35b6000808284610c5e9190614e0c565b905083811015610c7157610c70614e40565b5b8091505092915050565b600082821115610c8e57610c8d614e40565b5b8183610c9a9190614e6f565b905092915050565b6000600960009054906101000a900473ffffffffffffffffffffffffffffffffffffffff1673ffffffffffffffffffffffffffffffffffffffff16639b1c385e6040518060c0016040528060135481526020016012548152602001601460049054906101000a900461ffff1661ffff168152602001601460009054906101000a900463ffffffff1663ffffffff168152602001601460069054906101000a900463ffffffff1663ffffffff168152602001610d7b6040518060200160405280601660009054906101000a900460ff161515815250612a50565b8152506040518263ffffffff1660e01b8152600401610d9a9190614fae565b6020604051808303816000875af1158015610db9573d6000803e3d6000fd5b505050506040513d601f19601f82011682018060405250810190610ddd9190614fe5565b905033601a600083815260200190815260200160002060006101000a81548173ffffffffffffffffffffffffffffffffffffffff021916908373ffffffffffffffffffffffffffffffffffffffff1602179055507f28f521cf7abd0044cba5bb040c5217ff69a4e5865f5262905018698e68fe7d008133604051610e62929190615012565b60405180910390a190565b6000634906490660e01b7bffffffffffffffffffffffffffffffffffffffffffffffffffffffff1916827bffffffffffffffffffffffffffffffffffffffffffffffffffffffff19161480610ec75750610ec682612ae8565b5b9050919050565b606060028054610edd9061506a565b80601f0160208091040260200160405190810160405280929190818152602001828054610f099061506a565b8015610f565780601f10610f2b57610100808354040283529160200191610f56565b820191906000526020600020905b815481529060010190602001808311610f3957829003601f168201915b5050505050905090565b60606000600a549050600080600b5467ffffffffffffffff811115610f8857610f87614858565b5b604051908082528060200260200182016040528015610fc157816020015b610fae613f63565b815260200190600190039081610fa65790505b50905060005b8381101561119d573073ffffffffffffffffffffffffffffffffffffffff16600e6000600184610ff79190614e0c565b815260200190815260200160002060020160009054906101000a900473ffffffffffffffffffffffffffffffffffffffff1673ffffffffffffffffffffffffffffffffffffffff160361118a5760006001826110539190614e0c565b90506000600e60008381526020019081526020016000209050806040518060a0016040529081600082015481526020016001820160009054906101000a900473ffffffffffffffffffffffffffffffffffffffff1673ffffffffffffffffffffffffffffffffffffffff1673ffffffffffffffffffffffffffffffffffffffff1681526020016002820160009054906101000a900473ffffffffffffffffffffffffffffffffffffffff1673ffffffffffffffffffffffffffffffffffffffff1673ffffffffffffffffffffffffffffffffffffffff168152602001600382015481526020016004820160009054906101000a900460ff1615151515815250508486815181106111665761116561509b565b5b6020026020010181905250611185600186610c4f90919063ffffffff16565b945050505b8080611195906150ca565b915050610fc7565b5080935050505090565b60006111b282612bca565b506111bc82612c52565b9050919050565b6111d582826111d0612c8f565b612c97565b5050565b6111e1612ca9565b80601660006101000a81548160ff02191690831515021790555050565b6000600c54905090565b611210612ca9565b8060188190555050565b600960009054906101000a900473ffffffffffffffffffffffffffffffffffffffff1673ffffffffffffffffffffffffffffffffffffffff163373ffffffffffffffffffffffffffffffffffffffff16146112d05733600960009054906101000a900473ffffffffffffffffffffffffffffffffffffffff166040517f1cf993f40000000000000000000000000000000000000000000000000000000081526004016112c7929190615112565b60405180910390fd5b6112db838383612d39565b505050565b60606000600a54905060008060005b83811015611396573373ffffffffffffffffffffffffffffffffffffffff16600e600060018461131f9190614e0c565b815260200190815260200160002060020160009054906101000a900473ffffffffffffffffffffffffffffffffffffffff1673ffffffffffffffffffffffffffffffffffffffff160361138357611380600184610c4f90919063ffffffff16565b92505b808061138e906150ca565b9150506112ef565b5060008267ffffffffffffffff8111156113b3576113b2614858565b5b6040519080825280602002602001820160405280156113ec57816020015b6113d9613f63565b8152602001906001900390816113d15790505b50905060005b848110156115c8573373ffffffffffffffffffffffffffffffffffffffff16600e60006001846114229190614e0c565b815260200190815260200160002060020160009054906101000a900473ffffffffffffffffffffffffffffffffffffffff1673ffffffffffffffffffffffffffffffffffffffff16036115b557600060018261147e9190614e0c565b90506000600e60008381526020019081526020016000209050806040518060a0016040529081600082015481526020016001820160009054906101000a900473ffffffffffffffffffffffffffffffffffffffff1673ffffffffffffffffffffffffffffffffffffffff1673ffffffffffffffffffffffffffffffffffffffff1681526020016002820160009054906101000a900473ffffffffffffffffffffffffffffffffffffffff1673ffffffffffffffffffffffffffffffffffffffff1673ffffffffffffffffffffffffffffffffffffffff168152602001600382015481526020016004820160009054906101000a900460ff1615151515815250508486815181106115915761159061509b565b5b60200260200101819052506115b0600186610c4f90919063ffffffff16565b945050505b80806115c0906150ca565b9150506113f2565b508094505050505090565b600073ffffffffffffffffffffffffffffffffffffffff168273ffffffffffffffffffffffffffffffffffffffff16036116455760006040517f64a0ae9200000000000000000000000000000000000000000000000000000000815260040161163c91906144c5565b60405180910390fd5b60006116598383611654612c8f565b612dce565b90508373ffffffffffffffffffffffffffffffffffffffff168173ffffffffffffffffffffffffffffffffffffffff16146116cf578382826040517f64283d7b0000000000000000000000000000000000000000000000000000000081526004016116c69392919061513b565b60405180910390fd5b50505050565b601460009054906101000a900463ffffffff1681565b601a6020528060005260406000206000915054906101000a900473ffffffffffffffffffffffffffffffffffffffff1681565b60175481565b61172c612ca9565b6000611736611f34565b90508073ffffffffffffffffffffffffffffffffffffffff166108fc479081150290604051600060405180830381858888f1935050505015801561177e573d6000803e3d6000fd5b5050565b61179d83838360405180602001604052806000815250612585565b505050565b6060601c60008373ffffffffffffffffffffffffffffffffffffffff1673ffffffffffffffffffffffffffffffffffffffff16815260200190815260200160002080548060200260200160405190810160405280929190818152602001828054801561182d57602002820191906000526020600020905b815481526020019060010190808311611819575b50505050509050919050565b6000600d60009054906101000a900473ffffffffffffffffffffffffffffffffffffffff16905090565b60135481565b60606000600a54905060008060005b8381101561191f573373ffffffffffffffffffffffffffffffffffffffff16600e60006001846118a89190614e0c565b815260200190815260200160002060010160009054906101000a900473ffffffffffffffffffffffffffffffffffffffff1673ffffffffffffffffffffffffffffffffffffffff160361190c57611909600184610c4f90919063ffffffff16565b92505b8080611917906150ca565b915050611878565b5060008267ffffffffffffffff81111561193c5761193b614858565b5b60405190808252806020026020018201604052801561197557816020015b611962613f63565b81526020019060019003908161195a5790505b50905060005b84811015611b51573373ffffffffffffffffffffffffffffffffffffffff16600e60006001846119ab9190614e0c565b815260200190815260200160002060010160009054906101000a900473ffffffffffffffffffffffffffffffffffffffff1673ffffffffffffffffffffffffffffffffffffffff1603611b3e576000600182611a079190614e0c565b90506000600e60008381526020019081526020016000209050806040518060a0016040529081600082015481526020016001820160009054906101000a900473ffffffffffffffffffffffffffffffffffffffff1673ffffffffffffffffffffffffffffffffffffffff1673ffffffffffffffffffffffffffffffffffffffff1681526020016002820160009054906101000a900473ffffffffffffffffffffffffffffffffffffffff1673ffffffffffffffffffffffffffffffffffffffff1673ffffffffffffffffffffffffffffffffffffffff168152602001600382015481526020016004820160009054906101000a900460ff161515151581525050848681518110611b1a57611b1961509b565b5b6020026020010181905250611b39600186610c4f90919063ffffffff16565b945050505b8080611b49906150ca565b91505061197b565b508094505050505090565b6000601954905090565b611b6e612ca9565b8060159081611b7d9190615314565b5050565b6000611b8c82612bca565b9050919050565b60158054611ba09061506a565b80601f0160208091040260200160405190810160405280929190818152602001828054611bcc9061506a565b8015611c195780601f10611bee57610100808354040283529160200191611c19565b820191906000526020600020905b815481529060010190602001808311611bfc57829003601f168201915b505050505081565b60008073ffffffffffffffffffffffffffffffffffffffff168273ffffffffffffffffffffffffffffffffffffffff1603611c945760006040517f89c62b64000000000000000000000000000000000000000000000000000000008152600401611c8b91906144c5565b60405180910390fd5b600560008373ffffffffffffffffffffffffffffffffffffffff1673ffffffffffffffffffffffffffffffffffffffff168152602001908152602001600020549050919050565b60115481565b600160009054906101000a900473ffffffffffffffffffffffffffffffffffffffff1673ffffffffffffffffffffffffffffffffffffffff163373ffffffffffffffffffffffffffffffffffffffff1614611d71576040517f08c379a0000000000000000000000000000000000000000000000000000000008152600401611d6890615432565b60405180910390fd5b60008060009054906101000a900473ffffffffffffffffffffffffffffffffffffffff169050336000806101000a81548173ffffffffffffffffffffffffffffffffffffffff021916908373ffffffffffffffffffffffffffffffffffffffff1602179055506000600160006101000a81548173ffffffffffffffffffffffffffffffffffffffff021916908373ffffffffffffffffffffffffffffffffffffffff1602179055503373ffffffffffffffffffffffffffffffffffffffff168173ffffffffffffffffffffffffffffffffffffffff167f8be0079c531659141344cd1fd0a4f28419497f9722a3daafe3b4186f6b6457e060405160405180910390a350565b611e7e612ca9565b8060178190555050565b601460069054906101000a900463ffffffff1681565b6060601660009054906101000a900460ff1615611ef2576040518060400160405280601381526020017f56524620676173206665657320696e20455448000000000000000000000000008152509050611f2b565b6040518060400160405280601481526020017f56524620676173206665657320696e204c494e4b00000000000000000000000081525090505b90565b60125481565b60008060009054906101000a900473ffffffffffffffffffffffffffffffffffffffff16905090565b611f65611f34565b73ffffffffffffffffffffffffffffffffffffffff163373ffffffffffffffffffffffffffffffffffffffff1614158015611fee5750600960009054906101000a900473ffffffffffffffffffffffffffffffffffffffff1673ffffffffffffffffffffffffffffffffffffffff163373ffffffffffffffffffffffffffffffffffffffff1614155b1561205d5733611ffc611f34565b600960009054906101000a900473ffffffffffffffffffffffffffffffffffffffff166040517f061db9c100000000000000000000000000000000000000000000000000000000815260040161205493929190615452565b60405180910390fd5b600073ffffffffffffffffffffffffffffffffffffffff168173ffffffffffffffffffffffffffffffffffffffff16036120c3576040517fd92e233d00000000000000000000000000000000000000000000000000000000815260040160405180910390fd5b80600960006101000a81548173ffffffffffffffffffffffffffffffffffffffff021916908373ffffffffffffffffffffffffffffffffffffffff1602179055507fd1a6a14209a385a964d036e404cb5cfb71f4000cdb03c9366292430787261be68160405161213391906144c5565b60405180910390a150565b60606003805461214d9061506a565b80601f01602080910402602001604051908101604052809291908181526020018280546121799061506a565b80156121c65780601f1061219b576101008083540402835291602001916121c6565b820191906000526020600020905b8154815290600101906020018083116121a957829003601f168201915b5050505050905090565b600960009054906101000a900473ffffffffffffffffffffffffffffffffffffffff1681565b600061220e6001600a54610c4f90919063ffffffff16565b600a819055506000600a5490506122258382612fe8565b61222f81856130e1565b6040518060a00160405280828152602001600073ffffffffffffffffffffffffffffffffffffffff1681526020018473ffffffffffffffffffffffffffffffffffffffff1681526020016000815260200160011515815250600e60008381526020019081526020016000206000820151816000015560208201518160010160006101000a81548173ffffffffffffffffffffffffffffffffffffffff021916908373ffffffffffffffffffffffffffffffffffffffff16021790555060408201518160020160006101000a81548173ffffffffffffffffffffffffffffffffffffffff021916908373ffffffffffffffffffffffffffffffffffffffff1602179055506060820151816003015560808201518160040160006101000a81548160ff0219169083151502179055509050508091505092915050565b61237b612374612c8f565b838361313d565b5050565b6000600e600083815260200190815260200160002060010160009054906101000a900473ffffffffffffffffffffffffffffffffffffffff16905033600e600084815260200190815260200160002060020160006101000a81548173ffffffffffffffffffffffffffffffffffffffff021916908373ffffffffffffffffffffffffffffffffffffffff1602179055506001600e600084815260200190815260200160002060040160006101000a81548160ff0219169083151502179055506000600e600084815260200190815260200160002060010160006101000a81548173ffffffffffffffffffffffffffffffffffffffff021916908373ffffffffffffffffffffffffffffffffffffffff1602179055506124aa6001600b54610c7b90919063ffffffff16565b600b819055506124bb3033846132ac565b600d60009054906101000a900473ffffffffffffffffffffffffffffffffffffffff1673ffffffffffffffffffffffffffffffffffffffff166108fc600c549081150290604051600060405180830381858888f19350505050158015612525573d6000803e3d6000fd5b508073ffffffffffffffffffffffffffffffffffffffff166108fc349081150290604051600060405180830381858888f1935050505015801561256c573d6000803e3d6000fd5b505050565b601460049054906101000a900461ffff1681565b6125908484846115d3565b6125a461259b612c8f565b85858585613419565b50505050565b60195481565b60606125bb82612bca565b5060006008600084815260200190815260200160002080546125dc9061506a565b80601f01602080910402602001604051908101604052809291908181526020018280546126089061506a565b80156126555780601f1061262a57610100808354040283529160200191612655565b820191906000526020600020905b81548152906001019060200180831161263857829003601f168201915b5050505050905060006126666135ca565b9050600081510361267b5781925050506126be565b6000825111156126b05780826040516020016126989291906154c5565b604051602081830303815290604052925050506126be565b6126b9846135e1565b925050505b919050565b60185481565b6000601854905090565b6000600760008473ffffffffffffffffffffffffffffffffffffffff1673ffffffffffffffffffffffffffffffffffffffff16815260200190815260200160002060008373ffffffffffffffffffffffffffffffffffffffff1673ffffffffffffffffffffffffffffffffffffffff16815260200190815260200160002060009054906101000a900460ff16905092915050565b601460069054906101000a900463ffffffff1663ffffffff168251146127c2576040517f08c379a00000000000000000000000000000000000000000000000000000000081526004016127b990615535565b60405180910390fd5b600073ffffffffffffffffffffffffffffffffffffffff168173ffffffffffffffffffffffffffffffffffffffff1603612831576040517f08c379a0000000000000000000000000000000000000000000000000000000008152600401612828906155a1565b60405180910390fd5b6000825167ffffffffffffffff81111561284e5761284d614858565b5b60405190808252806020026020018201604052801561287c5781602001602082028036833780820191505090505b50905060005b835181101561296457600060148583815181106128a2576128a161509b565b5b60200260200101516128b491906155f0565b9050600060156128c38361364a565b6040516020016128d492919061573c565b604051602081830303815290604052905060006128f182876121f6565b9050808585815181106129075761290661509b565b5b6020026020010181815250507fd8734743ed0c1c7547379b55d892e5cea71bc5371832ffa4149a506fbc1aa6d081878460405161294693929190615776565b60405180910390a1505050808061295c906150ca565b915050612882565b5060005b8151811015612a0457601c60008473ffffffffffffffffffffffffffffffffffffffff1673ffffffffffffffffffffffffffffffffffffffff1681526020019081526020016000208282815181106129c3576129c261509b565b5b6020026020010151908060018154018082558091505060019003906000526020600020016000909190919091505580806129fc906150ca565b915050612968565b50505050565b612a148282613718565b5050565b612a20612ca9565b612a29816138f3565b50565b60108181548110612a3c57600080fd5b906000526020600020016000915090505481565b60607f92fd13387c7fe7befbc38d303d6468778fb9731bc4583f17d92989c6fcfdeaaa82604051602401612a8491906157d0565b604051602081830303815290604052907bffffffffffffffffffffffffffffffffffffffffffffffffffffffff19166020820180517bffffffffffffffffffffffffffffffffffffffffffffffffffffffff83818316178352505050509050919050565b60007f80ac58cd000000000000000000000000000000000000000000000000000000007bffffffffffffffffffffffffffffffffffffffffffffffffffffffff1916827bffffffffffffffffffffffffffffffffffffffffffffffffffffffff19161480612bb357507f5b5e139f000000000000000000000000000000000000000000000000000000007bffffffffffffffffffffffffffffffffffffffffffffffffffffffff1916827bffffffffffffffffffffffffffffffffffffffffffffffffffffffff1916145b80612bc35750612bc282613a1f565b5b9050919050565b600080612bd683613a89565b9050600073ffffffffffffffffffffffffffffffffffffffff168173ffffffffffffffffffffffffffffffffffffffff1603612c4957826040517f7e273289000000000000000000000000000000000000000000000000000000008152600401612c4091906145b4565b60405180910390fd5b80915050919050565b60006006600083815260200190815260200160002060009054906101000a900473ffffffffffffffffffffffffffffffffffffffff169050919050565b600033905090565b612ca48383836001613ac6565b505050565b60008054906101000a900473ffffffffffffffffffffffffffffffffffffffff1673ffffffffffffffffffffffffffffffffffffffff163373ffffffffffffffffffffffffffffffffffffffff1614612d37576040517f08c379a0000000000000000000000000000000000000000000000000000000008152600401612d2e90615837565b60405180910390fd5b565b818160109190612d4a929190613fc0565b50612dc9828280806020026020016040519081016040528093929190818152602001838360200280828437600081840152601f19601f82011690508083019250505050505050601a600086815260200190815260200160002060009054906101000a900473ffffffffffffffffffffffffffffffffffffffff16612767565b505050565b600080612dda84613a89565b9050600073ffffffffffffffffffffffffffffffffffffffff168373ffffffffffffffffffffffffffffffffffffffff1614612e1c57612e1b818486613c8b565b5b600073ffffffffffffffffffffffffffffffffffffffff168173ffffffffffffffffffffffffffffffffffffffff1614612ead57612e5e600085600080613ac6565b6001600560008373ffffffffffffffffffffffffffffffffffffffff1673ffffffffffffffffffffffffffffffffffffffff168152602001908152602001600020600082825403925050819055505b600073ffffffffffffffffffffffffffffffffffffffff168573ffffffffffffffffffffffffffffffffffffffff1614612f30576001600560008773ffffffffffffffffffffffffffffffffffffffff1673ffffffffffffffffffffffffffffffffffffffff168152602001908152602001600020600082825401925050819055505b846004600086815260200190815260200160002060006101000a81548173ffffffffffffffffffffffffffffffffffffffff021916908373ffffffffffffffffffffffffffffffffffffffff160217905550838573ffffffffffffffffffffffffffffffffffffffff168273ffffffffffffffffffffffffffffffffffffffff167fddf252ad1be2c89b69c2b068fc378daa952ba7f163c4a11628f55a4df523b3ef60405160405180910390a4809150509392505050565b600073ffffffffffffffffffffffffffffffffffffffff168273ffffffffffffffffffffffffffffffffffffffff160361305a5760006040517f64a0ae9200000000000000000000000000000000000000000000000000000000815260040161305191906144c5565b60405180910390fd5b600061306883836000612dce565b9050600073ffffffffffffffffffffffffffffffffffffffff168173ffffffffffffffffffffffffffffffffffffffff16146130dc5760006040517f73c6ac6e0000000000000000000000000000000000000000000000000000000081526004016130d391906144c5565b60405180910390fd5b505050565b806008600084815260200190815260200160002090816131019190615314565b507ff8e1a15aba9398e019f0b49df1a4fde98ee17ae345cb5f6b5e2c27f5033e8ce78260405161313191906145b4565b60405180910390a15050565b600073ffffffffffffffffffffffffffffffffffffffff168273ffffffffffffffffffffffffffffffffffffffff16036131ae57816040517f5b08ba180000000000000000000000000000000000000000000000000000000081526004016131a591906144c5565b60405180910390fd5b80600760008573ffffffffffffffffffffffffffffffffffffffff1673ffffffffffffffffffffffffffffffffffffffff16815260200190815260200160002060008473ffffffffffffffffffffffffffffffffffffffff1673ffffffffffffffffffffffffffffffffffffffff16815260200190815260200160002060006101000a81548160ff0219169083151502179055508173ffffffffffffffffffffffffffffffffffffffff168373ffffffffffffffffffffffffffffffffffffffff167f17307eab39ab6107e8899845ad3d59bd9653f200f220920489ca2b5937696c318360405161329f91906141ed565b60405180910390a3505050565b600073ffffffffffffffffffffffffffffffffffffffff168273ffffffffffffffffffffffffffffffffffffffff160361331e5760006040517f64a0ae9200000000000000000000000000000000000000000000000000000000815260040161331591906144c5565b60405180910390fd5b600061332c83836000612dce565b9050600073ffffffffffffffffffffffffffffffffffffffff168173ffffffffffffffffffffffffffffffffffffffff160361339f57816040517f7e27328900000000000000000000000000000000000000000000000000000000815260040161339691906145b4565b60405180910390fd5b8373ffffffffffffffffffffffffffffffffffffffff168173ffffffffffffffffffffffffffffffffffffffff1614613413578382826040517f64283d7b00000000000000000000000000000000000000000000000000000000815260040161340a9392919061513b565b60405180910390fd5b50505050565b60008373ffffffffffffffffffffffffffffffffffffffff163b11156135c3578273ffffffffffffffffffffffffffffffffffffffff1663150b7a02868685856040518563ffffffff1660e01b815260040161347894939291906158a1565b6020604051808303816000875af19250505080156134b457506040513d601f19601f820116820180604052508101906134b19190615902565b60015b613538573d80600081146134e4576040519150601f19603f3d011682016040523d82523d6000602084013e6134e9565b606091505b50600081510361353057836040517f64a0ae9200000000000000000000000000000000000000000000000000000000815260040161352791906144c5565b60405180910390fd5b805181602001fd5b63150b7a0260e01b7bffffffffffffffffffffffffffffffffffffffffffffffffffffffff1916817bffffffffffffffffffffffffffffffffffffffffffffffffffffffff1916146135c157836040517f64a0ae920000000000000000000000000000000000000000000000000000000081526004016135b891906144c5565b60405180910390fd5b505b5050505050565b606060405180602001604052806000815250905090565b60606135ec82612bca565b5060006135f76135ca565b905060008151116136175760405180602001604052806000815250613642565b806136218461364a565b6040516020016136329291906154c5565b6040516020818303038152906040525b915050919050565b60606000600161365984613d4f565b01905060008167ffffffffffffffff81111561367857613677614858565b5b6040519080825280601f01601f1916602001820160405280156136aa5781602001600182028036833780820191505090505b509050600082602001820190505b60011561370d578080600190039150507f3031323334353637383961626364656600000000000000000000000000000000600a86061a8153600a8581613701576137006155c1565b5b049450600085036136b8575b819350505050919050565b6000811161375b576040517f08c379a00000000000000000000000000000000000000000000000000000000081526004016137529061597b565b60405180910390fd5b6137716001600b54610c4f90919063ffffffff16565b600b819055506040518060a001604052808381526020013373ffffffffffffffffffffffffffffffffffffffff1681526020013073ffffffffffffffffffffffffffffffffffffffff16815260200182815260200160001515815250600e60008481526020019081526020016000206000820151816000015560208201518160010160006101000a81548173ffffffffffffffffffffffffffffffffffffffff021916908373ffffffffffffffffffffffffffffffffffffffff16021790555060408201518160020160006101000a81548173ffffffffffffffffffffffffffffffffffffffff021916908373ffffffffffffffffffffffffffffffffffffffff1602179055506060820151816003015560808201518160040160006101000a81548160ff0219169083151502179055509050506138b03330846132ac565b817f3cf8eaa46d9accaa9c8e76a1b58ee317d0eac0885fb7635711309f21e5a25fb933308460006040516138e7949392919061599b565b60405180910390a25050565b3373ffffffffffffffffffffffffffffffffffffffff168173ffffffffffffffffffffffffffffffffffffffff1603613961576040517f08c379a000000000000000000000000000000000000000000000000000000000815260040161395890615a2c565b60405180910390fd5b80600160006101000a81548173ffffffffffffffffffffffffffffffffffffffff021916908373ffffffffffffffffffffffffffffffffffffffff1602179055508073ffffffffffffffffffffffffffffffffffffffff1660008054906101000a900473ffffffffffffffffffffffffffffffffffffffff1673ffffffffffffffffffffffffffffffffffffffff167fed8889f560326eb138920d842192f0eb3dd22b4f139c87a2c57538e05bae127860405160405180910390a350565b60007f01ffc9a7000000000000000000000000000000000000000000000000000000007bffffffffffffffffffffffffffffffffffffffffffffffffffffffff1916827bffffffffffffffffffffffffffffffffffffffffffffffffffffffff1916149050919050565b60006004600083815260200190815260200160002060009054906101000a900473ffffffffffffffffffffffffffffffffffffffff169050919050565b8080613aff5750600073ffffffffffffffffffffffffffffffffffffffff168273ffffffffffffffffffffffffffffffffffffffff1614155b15613c33576000613b0f84612bca565b9050600073ffffffffffffffffffffffffffffffffffffffff168373ffffffffffffffffffffffffffffffffffffffff1614158015613b7a57508273ffffffffffffffffffffffffffffffffffffffff168173ffffffffffffffffffffffffffffffffffffffff1614155b8015613b8d5750613b8b81846126d3565b155b15613bcf57826040517fa9fbf51f000000000000000000000000000000000000000000000000000000008152600401613bc691906144c5565b60405180910390fd5b8115613c3157838573ffffffffffffffffffffffffffffffffffffffff168273ffffffffffffffffffffffffffffffffffffffff167f8c5be1e5ebec7d5bd14f71427d1e84f3dd0314c0f7b2291e5b200ac8c7c3b92560405160405180910390a45b505b836006600085815260200190815260200160002060006101000a81548173ffffffffffffffffffffffffffffffffffffffff021916908373ffffffffffffffffffffffffffffffffffffffff16021790555050505050565b613c96838383613ea2565b613d4a57600073ffffffffffffffffffffffffffffffffffffffff168373ffffffffffffffffffffffffffffffffffffffff1603613d0b57806040517f7e273289000000000000000000000000000000000000000000000000000000008152600401613d0291906145b4565b60405180910390fd5b81816040517f177e802f000000000000000000000000000000000000000000000000000000008152600401613d41929190615a4c565b60405180910390fd5b505050565b600080600090507a184f03e93ff9f4daa797ed6e38ed64bf6a1f0100000000000000008310613dad577a184f03e93ff9f4daa797ed6e38ed64bf6a1f0100000000000000008381613da357613da26155c1565b5b0492506040810190505b6d04ee2d6d415b85acef81000000008310613dea576d04ee2d6d415b85acef81000000008381613de057613ddf6155c1565b5b0492506020810190505b662386f26fc100008310613e1957662386f26fc100008381613e0f57613e0e6155c1565b5b0492506010810190505b6305f5e1008310613e42576305f5e1008381613e3857613e376155c1565b5b0492506008810190505b6127108310613e67576127108381613e5d57613e5c6155c1565b5b0492506004810190505b60648310613e8a5760648381613e8057613e7f6155c1565b5b0492506002810190505b600a8310613e99576001810190505b80915050919050565b60008073ffffffffffffffffffffffffffffffffffffffff168373ffffffffffffffffffffffffffffffffffffffff1614158015613f5a57508273ffffffffffffffffffffffffffffffffffffffff168473ffffffffffffffffffffffffffffffffffffffff161480613f1b5750613f1a84846126d3565b5b80613f5957508273ffffffffffffffffffffffffffffffffffffffff16613f4183612c52565b73ffffffffffffffffffffffffffffffffffffffff16145b5b90509392505050565b6040518060a0016040528060008152602001600073ffffffffffffffffffffffffffffffffffffffff168152602001600073ffffffffffffffffffffffffffffffffffffffff168152602001600081526020016000151581525090565b828054828255906000526020600020908101928215613ffc579160200282015b82811115613ffb578235825591602001919060010190613fe0565b5b509050614009919061400d565b5090565b5b8082111561402657600081600090555060010161400e565b5090565b600082825260208201905092915050565b7f416c6c2063617264207061636b73206172652063757272656e746c7920736f6c60008201527f64206f7574000000000000000000000000000000000000000000000000000000602082015250565b600061409760258361402a565b91506140a28261403b565b604082019050919050565b600060208201905081810360008301526140c68161408a565b9050919050565b7f496e636f7272656374207061796d656e7420616d6f756e740000000000000000600082015250565b600061410360188361402a565b915061410e826140cd565b602082019050919050565b60006020820190508181036000830152614132816140f6565b9050919050565b6000604051905090565b600080fd5b600080fd5b60007fffffffff0000000000000000000000000000000000000000000000000000000082169050919050565b6141828161414d565b811461418d57600080fd5b50565b60008135905061419f81614179565b92915050565b6000602082840312156141bb576141ba614143565b5b60006141c984828501614190565b91505092915050565b60008115159050919050565b6141e7816141d2565b82525050565b600060208201905061420260008301846141de565b92915050565b600081519050919050565b60005b83811015614231578082015181840152602081019050614216565b60008484015250505050565b6000601f19601f8301169050919050565b600061425982614208565b614263818561402a565b9350614273818560208601614213565b61427c8161423d565b840191505092915050565b600060208201905081810360008301526142a1818461424e565b905092915050565b600081519050919050565b600082825260208201905092915050565b6000819050602082019050919050565b6000819050919050565b6142e8816142d5565b82525050565b600073ffffffffffffffffffffffffffffffffffffffff82169050919050565b6000614319826142ee565b9050919050565b6143298161430e565b82525050565b614338816141d2565b82525050565b60a08201600082015161435460008501826142df565b5060208201516143676020850182614320565b50604082015161437a6040850182614320565b50606082015161438d60608501826142df565b5060808201516143a0608085018261432f565b50505050565b60006143b2838361433e565b60a08301905092915050565b6000602082019050919050565b60006143d6826142a9565b6143e081856142b4565b93506143eb836142c5565b8060005b8381101561441c57815161440388826143a6565b975061440e836143be565b9250506001810190506143ef565b5085935050505092915050565b6000602082019050818103600083015261444381846143cb565b905092915050565b614454816142d5565b811461445f57600080fd5b50565b6000813590506144718161444b565b92915050565b60006020828403121561448d5761448c614143565b5b600061449b84828501614462565b91505092915050565b60006144af826142ee565b9050919050565b6144bf816144a4565b82525050565b60006020820190506144da60008301846144b6565b92915050565b6144e9816144a4565b81146144f457600080fd5b50565b600081359050614506816144e0565b92915050565b6000806040838503121561452357614522614143565b5b6000614531858286016144f7565b925050602061454285828601614462565b9150509250929050565b614555816141d2565b811461456057600080fd5b50565b6000813590506145728161454c565b92915050565b60006020828403121561458e5761458d614143565b5b600061459c84828501614563565b91505092915050565b6145ae816142d5565b82525050565b60006020820190506145c960008301846145a5565b92915050565b600080fd5b600080fd5b600080fd5b60008083601f8401126145f4576145f36145cf565b5b8235905067ffffffffffffffff811115614611576146106145d4565b5b60208301915083602082028301111561462d5761462c6145d9565b5b9250929050565b60008060006040848603121561464d5761464c614143565b5b600061465b86828701614462565b935050602084013567ffffffffffffffff81111561467c5761467b614148565b5b614688868287016145de565b92509250509250925092565b6000806000606084860312156146ad576146ac614143565b5b60006146bb868287016144f7565b93505060206146cc868287016144f7565b92505060406146dd86828701614462565b9150509250925092565b600063ffffffff82169050919050565b614700816146e7565b82525050565b600060208201905061471b60008301846146f7565b92915050565b60006020828403121561473757614736614143565b5b6000614745848285016144f7565b91505092915050565b600081519050919050565b600082825260208201905092915050565b6000819050602082019050919050565b600061478683836142df565b60208301905092915050565b6000602082019050919050565b60006147aa8261474e565b6147b48185614759565b93506147bf8361476a565b8060005b838110156147f05781516147d7888261477a565b97506147e283614792565b9250506001810190506147c3565b5085935050505092915050565b60006020820190508181036000830152614817818461479f565b905092915050565b6000819050919050565b6148328161481f565b82525050565b600060208201905061484d6000830184614829565b92915050565b600080fd5b7f4e487b7100000000000000000000000000000000000000000000000000000000600052604160045260246000fd5b6148908261423d565b810181811067ffffffffffffffff821117156148af576148ae614858565b5b80604052505050565b60006148c2614139565b90506148ce8282614887565b919050565b600067ffffffffffffffff8211156148ee576148ed614858565b5b6148f78261423d565b9050602081019050919050565b82818337600083830152505050565b6000614926614921846148d3565b6148b8565b90508281526020810184848401111561494257614941614853565b5b61494d848285614904565b509392505050565b600082601f83011261496a576149696145cf565b5b813561497a848260208601614913565b91505092915050565b60006020828403121561499957614998614143565b5b600082013567ffffffffffffffff8111156149b7576149b6614148565b5b6149c384828501614955565b91505092915050565b6000819050919050565b60006149f16149ec6149e7846142ee565b6149cc565b6142ee565b9050919050565b6000614a03826149d6565b9050919050565b6000614a15826149f8565b9050919050565b614a2581614a0a565b82525050565b6000602082019050614a406000830184614a1c565b92915050565b60008060408385031215614a5d57614a5c614143565b5b600083013567ffffffffffffffff811115614a7b57614a7a614148565b5b614a8785828601614955565b9250506020614a98858286016144f7565b9150509250929050565b60008060408385031215614ab957614ab8614143565b5b6000614ac7858286016144f7565b9250506020614ad885828601614563565b9150509250929050565b600061ffff82169050919050565b614af981614ae2565b82525050565b6000602082019050614b146000830184614af0565b92915050565b600067ffffffffffffffff821115614b3557614b34614858565b5b614b3e8261423d565b9050602081019050919050565b6000614b5e614b5984614b1a565b6148b8565b905082815260208101848484011115614b7a57614b79614853565b5b614b85848285614904565b509392505050565b600082601f830112614ba257614ba16145cf565b5b8135614bb2848260208601614b4b565b91505092915050565b60008060008060808587031215614bd557614bd4614143565b5b6000614be3878288016144f7565b9450506020614bf4878288016144f7565b9350506040614c0587828801614462565b925050606085013567ffffffffffffffff811115614c2657614c25614148565b5b614c3287828801614b8d565b91505092959194509250565b60008060408385031215614c5557614c54614143565b5b6000614c63858286016144f7565b9250506020614c74858286016144f7565b9150509250929050565b600067ffffffffffffffff821115614c9957614c98614858565b5b602082029050602081019050919050565b6000614cbd614cb884614c7e565b6148b8565b90508083825260208201905060208402830185811115614ce057614cdf6145d9565b5b835b81811015614d095780614cf58882614462565b845260208401935050602081019050614ce2565b5050509392505050565b600082601f830112614d2857614d276145cf565b5b8135614d38848260208601614caa565b91505092915050565b60008060408385031215614d5857614d57614143565b5b600083013567ffffffffffffffff811115614d7657614d75614148565b5b614d8285828601614d13565b9250506020614d93858286016144f7565b9150509250929050565b60008060408385031215614db457614db3614143565b5b6000614dc285828601614462565b9250506020614dd385828601614462565b9150509250929050565b7f4e487b7100000000000000000000000000000000000000000000000000000000600052601160045260246000fd5b6000614e17826142d5565b9150614e22836142d5565b9250828201905080821115614e3a57614e39614ddd565b5b92915050565b7f4e487b7100000000000000000000000000000000000000000000000000000000600052600160045260246000fd5b6000614e7a826142d5565b9150614e85836142d5565b9250828203905081811115614e9d57614e9c614ddd565b5b92915050565b614eac8161481f565b82525050565b614ebb81614ae2565b82525050565b614eca816146e7565b82525050565b600081519050919050565b600082825260208201905092915050565b6000614ef782614ed0565b614f018185614edb565b9350614f11818560208601614213565b614f1a8161423d565b840191505092915050565b600060c083016000830151614f3d6000860182614ea3565b506020830151614f5060208601826142df565b506040830151614f636040860182614eb2565b506060830151614f766060860182614ec1565b506080830151614f896080860182614ec1565b5060a083015184820360a0860152614fa18282614eec565b9150508091505092915050565b60006020820190508181036000830152614fc88184614f25565b905092915050565b600081519050614fdf8161444b565b92915050565b600060208284031215614ffb57614ffa614143565b5b600061500984828501614fd0565b91505092915050565b600060408201905061502760008301856145a5565b61503460208301846144b6565b9392505050565b7f4e487b7100000000000000000000000000000000000000000000000000000000600052602260045260246000fd5b6000600282049050600182168061508257607f821691505b6020821081036150955761509461503b565b5b50919050565b7f4e487b7100000000000000000000000000000000000000000000000000000000600052603260045260246000fd5b60006150d5826142d5565b91507fffffffffffffffffffffffffffffffffffffffffffffffffffffffffffffffff820361510757615106614ddd565b5b600182019050919050565b600060408201905061512760008301856144b6565b61513460208301846144b6565b9392505050565b600060608201905061515060008301866144b6565b61515d60208301856145a5565b61516a60408301846144b6565b949350505050565b60008190508160005260206000209050919050565b60006020601f8301049050919050565b600082821b905092915050565b6000600883026151d47fffffffffffffffffffffffffffffffffffffffffffffffffffffffffffffffff82615197565b6151de8683615197565b95508019841693508086168417925050509392505050565b600061521161520c615207846142d5565b6149cc565b6142d5565b9050919050565b6000819050919050565b61522b836151f6565b61523f61523782615218565b8484546151a4565b825550505050565b600090565b615254615247565b61525f818484615222565b505050565b5b818110156152835761527860008261524c565b600181019050615265565b5050565b601f8211156152c85761529981615172565b6152a284615187565b810160208510156152b1578190505b6152c56152bd85615187565b830182615264565b50505b505050565b600082821c905092915050565b60006152eb600019846008026152cd565b1980831691505092915050565b600061530483836152da565b9150826002028217905092915050565b61531d82614208565b67ffffffffffffffff81111561533657615335614858565b5b615340825461506a565b61534b828285615287565b600060209050601f83116001811461537e576000841561536c578287015190505b61537685826152f8565b8655506153de565b601f19841661538c86615172565b60005b828110156153b45784890151825560018201915060208501945060208101905061538f565b868310156153d157848901516153cd601f8916826152da565b8355505b6001600288020188555050505b505050505050565b7f4d7573742062652070726f706f736564206f776e657200000000000000000000600082015250565b600061541c60168361402a565b9150615427826153e6565b602082019050919050565b6000602082019050818103600083015261544b8161540f565b9050919050565b600060608201905061546760008301866144b6565b61547460208301856144b6565b61548160408301846144b6565b949350505050565b600081905092915050565b600061549f82614208565b6154a98185615489565b93506154b9818560208601614213565b80840191505092915050565b60006154d18285615494565b91506154dd8284615494565b91508190509392505050565b7f457870656374656420582072616e646f6d206e756d6265727300000000000000600082015250565b600061551f60198361402a565b915061552a826154e9565b602082019050919050565b6000602082019050818103600083015261554e81615512565b9050919050565b7f526563697069656e74206164647265737320697320696e76616c696400000000600082015250565b600061558b601c8361402a565b915061559682615555565b602082019050919050565b600060208201905081810360008301526155ba8161557e565b9050919050565b7f4e487b7100000000000000000000000000000000000000000000000000000000600052601260045260246000fd5b60006155fb826142d5565b9150615606836142d5565b925082615616576156156155c1565b5b828206905092915050565b6000815461562e8161506a565b6156388186615489565b9450600182166000811461565357600181146156685761569b565b60ff198316865281151582028601935061569b565b61567185615172565b60005b8381101561569357815481890152600182019150602081019050615674565b838801955050505b50505092915050565b7f4361726420000000000000000000000000000000000000000000000000000000600082015250565b60006156da600583615489565b91506156e5826156a4565b600582019050919050565b7f2e706e6700000000000000000000000000000000000000000000000000000000600082015250565b6000615726600483615489565b9150615731826156f0565b600482019050919050565b60006157488285615621565b9150615753826156cd565b915061575f8284615494565b915061576a82615719565b91508190509392505050565b600060608201905061578b60008301866145a5565b61579860208301856144b6565b81810360408301526157aa818461424e565b9050949350505050565b6020820160008201516157ca600085018261432f565b50505050565b60006020820190506157e560008301846157b4565b92915050565b7f4f6e6c792063616c6c61626c65206279206f776e657200000000000000000000600082015250565b600061582160168361402a565b915061582c826157eb565b602082019050919050565b6000602082019050818103600083015261585081615814565b9050919050565b600082825260208201905092915050565b600061587382614ed0565b61587d8185615857565b935061588d818560208601614213565b6158968161423d565b840191505092915050565b60006080820190506158b660008301876144b6565b6158c360208301866144b6565b6158d060408301856145a5565b81810360608301526158e28184615868565b905095945050505050565b6000815190506158fc81614179565b92915050565b60006020828403121561591857615917614143565b5b6000615926848285016158ed565b91505092915050565b7f5072696365206d757374206265206174206c6561737420312077656900000000600082015250565b6000615965601c8361402a565b91506159708261592f565b602082019050919050565b6000602082019050818103600083015261599481615958565b9050919050565b60006080820190506159b060008301876144b6565b6159bd60208301866144b6565b6159ca60408301856145a5565b6159d760608301846141de565b95945050505050565b7f43616e6e6f74207472616e7366657220746f2073656c66000000000000000000600082015250565b6000615a1660178361402a565b9150615a21826159e0565b602082019050919050565b60006020820190508181036000830152615a4581615a09565b9050919050565b6000604082019050615a6160008301856144b6565b615a6e60208301846145a5565b939250505056fea2646970667358221220c94344c5f69adc9870a39e87a3d97c5b662060741ec7c691dd83ce42081791df64736f6c6343000814003368747470733a2f2f61707269636f742d636865657266756c2d616c706163612d3633362e6d7970696e6174612e636c6f75642f697066732f62616679626569663477646536693435337568616432627336336179346e6970336d6c32713778336a6866666d6f346c6b64327a35327569706d692f",
  "linkReferences": {},
  "deployedLinkReferences": {}
}