{
  "_format": "hh-sol-artifact-1",
  "contractName": "CardMintPack",
  "sourceName": "contracts/CardMintPack.sol",
  "abi": [
    {
      "inputs": [
        {
          "internalType": "uint256",
          "name": "subscriptionId",
          "type": "uint256"
        }
      ],
      "stateMutability": "nonpayable",
      "type": "constructor"
    },
    {
      "inputs": [
        {
          "internalType": "address",
          "name": "sender",
          "type": "address"
        },
        {
          "internalType": "uint256",
          "name": "tokenId",
          "type": "uint256"
        },
        {
          "internalType": "address",
          "name": "owner",
          "type": "address"
        }
      ],
      "name": "ERC721IncorrectOwner",
      "type": "error"
    },
    {
      "inputs": [
        {
          "internalType": "address",
          "name": "operator",
          "type": "address"
        },
        {
          "internalType": "uint256",
          "name": "tokenId",
          "type": "uint256"
        }
      ],
      "name": "ERC721InsufficientApproval",
      "type": "error"
    },
    {
      "inputs": [
        {
          "internalType": "address",
          "name": "approver",
          "type": "address"
        }
      ],
      "name": "ERC721InvalidApprover",
      "type": "error"
    },
    {
      "inputs": [
        {
          "internalType": "address",
          "name": "operator",
          "type": "address"
        }
      ],
      "name": "ERC721InvalidOperator",
      "type": "error"
    },
    {
      "inputs": [
        {
          "internalType": "address",
          "name": "owner",
          "type": "address"
        }
      ],
      "name": "ERC721InvalidOwner",
      "type": "error"
    },
    {
      "inputs": [
        {
          "internalType": "address",
          "name": "receiver",
          "type": "address"
        }
      ],
      "name": "ERC721InvalidReceiver",
      "type": "error"
    },
    {
      "inputs": [
        {
          "internalType": "address",
          "name": "sender",
          "type": "address"
        }
      ],
      "name": "ERC721InvalidSender",
      "type": "error"
    },
    {
      "inputs": [
        {
          "internalType": "uint256",
          "name": "tokenId",
          "type": "uint256"
        }
      ],
      "name": "ERC721NonexistentToken",
      "type": "error"
    },
    {
      "inputs": [
        {
          "internalType": "address",
          "name": "have",
          "type": "address"
        },
        {
          "internalType": "address",
          "name": "want",
          "type": "address"
        }
      ],
      "name": "OnlyCoordinatorCanFulfill",
      "type": "error"
    },
    {
      "inputs": [
        {
          "internalType": "address",
          "name": "have",
          "type": "address"
        },
        {
          "internalType": "address",
          "name": "owner",
          "type": "address"
        },
        {
          "internalType": "address",
          "name": "coordinator",
          "type": "address"
        }
      ],
      "name": "OnlyOwnerOrCoordinator",
      "type": "error"
    },
    {
      "inputs": [],
      "name": "ZeroAddress",
      "type": "error"
    },
    {
      "anonymous": false,
      "inputs": [
        {
          "indexed": true,
          "internalType": "address",
          "name": "owner",
          "type": "address"
        },
        {
          "indexed": true,
          "internalType": "address",
          "name": "approved",
          "type": "address"
        },
        {
          "indexed": true,
          "internalType": "uint256",
          "name": "tokenId",
          "type": "uint256"
        }
      ],
      "name": "Approval",
      "type": "event"
    },
    {
      "anonymous": false,
      "inputs": [
        {
          "indexed": true,
          "internalType": "address",
          "name": "owner",
          "type": "address"
        },
        {
          "indexed": true,
          "internalType": "address",
          "name": "operator",
          "type": "address"
        },
        {
          "indexed": false,
          "internalType": "bool",
          "name": "approved",
          "type": "bool"
        }
      ],
      "name": "ApprovalForAll",
      "type": "event"
    },
    {
      "anonymous": false,
      "inputs": [
        {
          "indexed": false,
          "internalType": "uint256",
          "name": "_fromTokenId",
          "type": "uint256"
        },
        {
          "indexed": false,
          "internalType": "uint256",
          "name": "_toTokenId",
          "type": "uint256"
        }
      ],
      "name": "BatchMetadataUpdate",
      "type": "event"
    },
    {
      "anonymous": false,
      "inputs": [
        {
          "indexed": false,
          "internalType": "uint256",
          "name": "tokenId",
          "type": "uint256"
        },
        {
          "indexed": false,
          "internalType": "address",
          "name": "owner",
          "type": "address"
        },
        {
          "indexed": false,
          "internalType": "string",
          "name": "metadataURI",
          "type": "string"
        }
      ],
      "name": "CardMinted",
      "type": "event"
    },
    {
      "anonymous": false,
      "inputs": [
        {
          "indexed": false,
          "internalType": "address",
          "name": "vrfCoordinator",
          "type": "address"
        }
      ],
      "name": "CoordinatorSet",
      "type": "event"
    },
    {
      "anonymous": false,
      "inputs": [
        {
          "indexed": true,
          "internalType": "uint256",
          "name": "tokenId",
          "type": "uint256"
        },
        {
          "indexed": false,
          "internalType": "address",
          "name": "seller",
          "type": "address"
        },
        {
          "indexed": false,
          "internalType": "address",
          "name": "owner",
          "type": "address"
        },
        {
          "indexed": false,
          "internalType": "uint256",
          "name": "price",
          "type": "uint256"
        },
        {
          "indexed": false,
          "internalType": "bool",
          "name": "sold",
          "type": "bool"
        }
      ],
      "name": "ListingCreated",
      "type": "event"
    },
    {
      "anonymous": false,
      "inputs": [
        {
          "indexed": true,
          "internalType": "uint256",
          "name": "tokenId",
          "type": "uint256"
        },
        {
          "indexed": false,
          "internalType": "address",
          "name": "seller",
          "type": "address"
        }
      ],
      "name": "ListingRemoved",
      "type": "event"
    },
    {
      "anonymous": false,
      "inputs": [
        {
          "indexed": false,
          "internalType": "uint256",
          "name": "_tokenId",
          "type": "uint256"
        }
      ],
      "name": "MetadataUpdate",
      "type": "event"
    },
    {
      "anonymous": false,
      "inputs": [
        {
          "indexed": true,
          "internalType": "address",
          "name": "from",
          "type": "address"
        },
        {
          "indexed": true,
          "internalType": "address",
          "name": "to",
          "type": "address"
        }
      ],
      "name": "OwnershipTransferRequested",
      "type": "event"
    },
    {
      "anonymous": false,
      "inputs": [
        {
          "indexed": true,
          "internalType": "address",
          "name": "from",
          "type": "address"
        },
        {
          "indexed": true,
          "internalType": "address",
          "name": "to",
          "type": "address"
        }
      ],
      "name": "OwnershipTransferred",
      "type": "event"
    },
    {
      "anonymous": false,
      "inputs": [
        {
          "indexed": true,
          "internalType": "address",
          "name": "buyer",
          "type": "address"
        },
        {
          "indexed": false,
          "internalType": "uint256",
          "name": "packId",
          "type": "uint256"
        },
        {
          "indexed": false,
          "internalType": "uint256",
          "name": "requestId",
          "type": "uint256"
        }
      ],
      "name": "PackPurchased",
      "type": "event"
    },
    {
      "anonymous": false,
      "inputs": [
        {
          "indexed": false,
          "internalType": "uint256",
          "name": "requestId",
          "type": "uint256"
        },
        {
          "indexed": false,
          "internalType": "uint256[]",
          "name": "randomWords",
          "type": "uint256[]"
        }
      ],
      "name": "RandomnessFulfilled",
      "type": "event"
    },
    {
      "anonymous": false,
      "inputs": [
        {
          "indexed": false,
          "internalType": "uint256",
          "name": "requestId",
          "type": "uint256"
        },
        {
          "indexed": false,
          "internalType": "address",
          "name": "requester",
          "type": "address"
        }
      ],
      "name": "RandomnessRequested",
      "type": "event"
    },
    {
      "anonymous": false,
      "inputs": [
        {
          "indexed": true,
          "internalType": "address",
          "name": "from",
          "type": "address"
        },
        {
          "indexed": true,
          "internalType": "address",
          "name": "to",
          "type": "address"
        },
        {
          "indexed": true,
          "internalType": "uint256",
          "name": "tokenId",
          "type": "uint256"
        }
      ],
      "name": "Transfer",
      "type": "event"
    },
    {
      "inputs": [],
      "name": "acceptOwnership",
      "outputs": [],
      "stateMutability": "nonpayable",
      "type": "function"
    },
    {
      "inputs": [
        {
          "internalType": "address",
          "name": "to",
          "type": "address"
        },
        {
          "internalType": "uint256",
          "name": "tokenId",
          "type": "uint256"
        }
      ],
      "name": "approve",
      "outputs": [],
      "stateMutability": "nonpayable",
      "type": "function"
    },
    {
      "inputs": [
        {
          "internalType": "address",
          "name": "owner",
          "type": "address"
        }
      ],
      "name": "balanceOf",
      "outputs": [
        {
          "internalType": "uint256",
          "name": "",
          "type": "uint256"
        }
      ],
      "stateMutability": "view",
      "type": "function"
    },
    {
      "inputs": [],
      "name": "baseURI",
      "outputs": [
        {
          "internalType": "string",
          "name": "",
          "type": "string"
        }
      ],
      "stateMutability": "view",
      "type": "function"
    },
    {
      "inputs": [
        {
          "internalType": "uint256[]",
          "name": "_randomWords",
          "type": "uint256[]"
        },
        {
          "internalType": "address",
          "name": "recipient",
          "type": "address"
        }
      ],
      "name": "batchMint",
      "outputs": [],
      "stateMutability": "nonpayable",
      "type": "function"
    },
    {
      "inputs": [],
      "name": "callbackGasLimit",
      "outputs": [
        {
          "internalType": "uint32",
          "name": "",
          "type": "uint32"
        }
      ],
      "stateMutability": "view",
      "type": "function"
    },
    {
      "inputs": [
        {
          "internalType": "string",
          "name": "tokenURI",
          "type": "string"
        },
        {
          "internalType": "address",
          "name": "recipient",
          "type": "address"
        }
      ],
      "name": "createToken",
      "outputs": [
        {
          "internalType": "uint256",
          "name": "",
          "type": "uint256"
        }
      ],
      "stateMutability": "payable",
      "type": "function"
    },
    {
      "inputs": [],
      "name": "fetchItemsListed",
      "outputs": [
        {
          "components": [
            {
              "internalType": "uint256",
              "name": "tokenId",
              "type": "uint256"
            },
            {
              "internalType": "address payable",
              "name": "seller",
              "type": "address"
            },
            {
              "internalType": "address payable",
              "name": "owner",
              "type": "address"
            },
            {
              "internalType": "uint256",
              "name": "price",
              "type": "uint256"
            },
            {
              "internalType": "bool",
              "name": "sold",
              "type": "bool"
            }
          ],
          "internalType": "struct NFTplace.Listing[]",
          "name": "",
          "type": "tuple[]"
        }
      ],
      "stateMutability": "view",
      "type": "function"
    },
    {
      "inputs": [],
      "name": "fetchListingMarketplace",
      "outputs": [
        {
          "components": [
            {
              "internalType": "uint256",
              "name": "tokenId",
              "type": "uint256"
            },
            {
              "internalType": "address payable",
              "name": "seller",
              "type": "address"
            },
            {
              "internalType": "address payable",
              "name": "owner",
              "type": "address"
            },
            {
              "internalType": "uint256",
              "name": "price",
              "type": "uint256"
            },
            {
              "internalType": "bool",
              "name": "sold",
              "type": "bool"
            }
          ],
          "internalType": "struct NFTplace.Listing[]",
          "name": "",
          "type": "tuple[]"
        }
      ],
      "stateMutability": "view",
      "type": "function"
    },
    {
      "inputs": [],
      "name": "fetchMyNFTs",
      "outputs": [
        {
          "components": [
            {
              "internalType": "uint256",
              "name": "tokenId",
              "type": "uint256"
            },
            {
              "internalType": "address payable",
              "name": "seller",
              "type": "address"
            },
            {
              "internalType": "address payable",
              "name": "owner",
              "type": "address"
            },
            {
              "internalType": "uint256",
              "name": "price",
              "type": "uint256"
            },
            {
              "internalType": "bool",
              "name": "sold",
              "type": "bool"
            }
          ],
          "internalType": "struct NFTplace.Listing[]",
          "name": "",
          "type": "tuple[]"
        }
      ],
      "stateMutability": "view",
      "type": "function"
    },
    {
      "inputs": [
        {
          "internalType": "uint256",
          "name": "tokenId",
          "type": "uint256"
        }
      ],
      "name": "getApproved",
      "outputs": [
        {
          "internalType": "address",
          "name": "",
          "type": "address"
        }
      ],
      "stateMutability": "view",
      "type": "function"
    },
    {
      "inputs": [],
      "name": "getContractOwner",
      "outputs": [
        {
          "internalType": "address",
          "name": "",
          "type": "address"
        }
      ],
      "stateMutability": "view",
      "type": "function"
    },
    {
      "inputs": [],
      "name": "getListingPrice",
      "outputs": [
        {
          "internalType": "uint256",
          "name": "",
          "type": "uint256"
        }
      ],
      "stateMutability": "view",
      "type": "function"
    },
    {
      "inputs": [
        {
          "internalType": "address",
          "name": "user",
          "type": "address"
        }
      ],
      "name": "getMintedTokens",
      "outputs": [
        {
          "internalType": "uint256[]",
          "name": "",
          "type": "uint256[]"
        }
      ],
      "stateMutability": "view",
      "type": "function"
    },
    {
      "inputs": [],
      "name": "getPacksAvailable",
      "outputs": [
        {
          "internalType": "uint256",
          "name": "",
          "type": "uint256"
        }
      ],
      "stateMutability": "view",
      "type": "function"
    },
    {
      "inputs": [
        {
          "internalType": "uint256",
          "name": "_requestId",
          "type": "uint256"
        }
      ],
      "name": "getRequestStatus",
      "outputs": [
        {
          "internalType": "bool",
          "name": "fulfilled",
          "type": "bool"
        },
        {
          "internalType": "uint256[]",
          "name": "randomWords",
          "type": "uint256[]"
        }
      ],
      "stateMutability": "view",
      "type": "function"
    },
    {
      "inputs": [],
      "name": "getTotalPacksSold",
      "outputs": [
        {
          "internalType": "uint256",
          "name": "",
          "type": "uint256"
        }
      ],
      "stateMutability": "view",
      "type": "function"
    },
    {
      "inputs": [
        {
          "internalType": "address",
          "name": "owner",
          "type": "address"
        },
        {
          "internalType": "address",
          "name": "operator",
          "type": "address"
        }
      ],
      "name": "isApprovedForAll",
      "outputs": [
        {
          "internalType": "bool",
          "name": "",
          "type": "bool"
        }
      ],
      "stateMutability": "view",
      "type": "function"
    },
    {
      "inputs": [],
      "name": "lastRequestId",
      "outputs": [
        {
          "internalType": "uint256",
          "name": "",
          "type": "uint256"
        }
      ],
      "stateMutability": "view",
      "type": "function"
    },
    {
      "inputs": [
        {
          "internalType": "uint256",
          "name": "tokenId",
          "type": "uint256"
        },
        {
          "internalType": "uint256",
          "name": "price",
          "type": "uint256"
        }
      ],
      "name": "listCard",
      "outputs": [],
      "stateMutability": "payable",
      "type": "function"
    },
    {
      "inputs": [],
      "name": "name",
      "outputs": [
        {
          "internalType": "string",
          "name": "",
          "type": "string"
        }
      ],
      "stateMutability": "view",
      "type": "function"
    },
    {
      "inputs": [],
      "name": "nextTokenId",
      "outputs": [
        {
          "internalType": "uint256",
          "name": "",
          "type": "uint256"
        }
      ],
      "stateMutability": "view",
      "type": "function"
    },
    {
      "inputs": [],
      "name": "numWords",
      "outputs": [
        {
          "internalType": "uint32",
          "name": "",
          "type": "uint32"
        }
      ],
      "stateMutability": "view",
      "type": "function"
    },
    {
      "inputs": [],
      "name": "owner",
      "outputs": [
        {
          "internalType": "address",
          "name": "",
          "type": "address"
        }
      ],
      "stateMutability": "view",
      "type": "function"
    },
    {
      "inputs": [
        {
          "internalType": "uint256",
          "name": "tokenId",
          "type": "uint256"
        }
      ],
      "name": "ownerOf",
      "outputs": [
        {
          "internalType": "address",
          "name": "",
          "type": "address"
        }
      ],
      "stateMutability": "view",
      "type": "function"
    },
    {
      "inputs": [],
      "name": "packPrice",
      "outputs": [
        {
          "internalType": "uint256",
          "name": "",
          "type": "uint256"
        }
      ],
      "stateMutability": "view",
      "type": "function"
    },
    {
      "inputs": [],
      "name": "packsAvailable",
      "outputs": [
        {
          "internalType": "uint256",
          "name": "",
          "type": "uint256"
        }
      ],
      "stateMutability": "view",
      "type": "function"
    },
    {
      "inputs": [
        {
          "internalType": "uint256",
          "name": "tokenId",
          "type": "uint256"
        }
      ],
      "name": "purchaseCard",
      "outputs": [],
      "stateMutability": "payable",
      "type": "function"
    },
    {
      "inputs": [
        {
          "internalType": "uint256",
          "name": "requestId",
          "type": "uint256"
        },
        {
          "internalType": "uint256[]",
          "name": "randomWords",
          "type": "uint256[]"
        }
      ],
      "name": "rawFulfillRandomWords",
      "outputs": [],
      "stateMutability": "nonpayable",
      "type": "function"
    },
    {
      "inputs": [],
      "name": "requestConfirmations",
      "outputs": [
        {
          "internalType": "uint16",
          "name": "",
          "type": "uint16"
        }
      ],
      "stateMutability": "view",
      "type": "function"
    },
    {
      "inputs": [
        {
          "internalType": "uint256",
          "name": "",
          "type": "uint256"
        }
      ],
      "name": "requestIds",
      "outputs": [
        {
          "internalType": "uint256",
          "name": "",
          "type": "uint256"
        }
      ],
      "stateMutability": "view",
      "type": "function"
    },
    {
      "inputs": [
        {
          "internalType": "bool",
          "name": "enableNativePayment",
          "type": "bool"
        }
      ],
      "name": "requestRandomWords",
      "outputs": [
        {
          "internalType": "uint256",
          "name": "requestId",
          "type": "uint256"
        }
      ],
      "stateMutability": "nonpayable",
      "type": "function"
    },
    {
      "inputs": [],
      "name": "s_keyHash",
      "outputs": [
        {
          "internalType": "bytes32",
          "name": "",
          "type": "bytes32"
        }
      ],
      "stateMutability": "view",
      "type": "function"
    },
    {
      "inputs": [
        {
          "internalType": "uint256",
          "name": "",
          "type": "uint256"
        }
      ],
      "name": "s_randomWords",
      "outputs": [
        {
          "internalType": "uint256",
          "name": "",
          "type": "uint256"
        }
      ],
      "stateMutability": "view",
      "type": "function"
    },
    {
      "inputs": [
        {
          "internalType": "uint256",
          "name": "",
          "type": "uint256"
        }
      ],
      "name": "s_requestToSender",
      "outputs": [
        {
          "internalType": "address",
          "name": "",
          "type": "address"
        }
      ],
      "stateMutability": "view",
      "type": "function"
    },
    {
      "inputs": [
        {
          "internalType": "uint256",
          "name": "",
          "type": "uint256"
        }
      ],
      "name": "s_requests",
      "outputs": [
        {
          "internalType": "bool",
          "name": "fulfilled",
          "type": "bool"
        },
        {
          "internalType": "bool",
          "name": "exists",
          "type": "bool"
        }
      ],
      "stateMutability": "view",
      "type": "function"
    },
    {
      "inputs": [],
      "name": "s_subscriptionId",
      "outputs": [
        {
          "internalType": "uint256",
          "name": "",
          "type": "uint256"
        }
      ],
      "stateMutability": "view",
      "type": "function"
    },
    {
      "inputs": [],
      "name": "s_vrfCoordinator",
      "outputs": [
        {
          "internalType": "contract IVRFCoordinatorV2Plus",
          "name": "",
          "type": "address"
        }
      ],
      "stateMutability": "view",
      "type": "function"
    },
    {
      "inputs": [
        {
          "internalType": "address",
          "name": "from",
          "type": "address"
        },
        {
          "internalType": "address",
          "name": "to",
          "type": "address"
        },
        {
          "internalType": "uint256",
          "name": "tokenId",
          "type": "uint256"
        }
      ],
      "name": "safeTransferFrom",
      "outputs": [],
      "stateMutability": "nonpayable",
      "type": "function"
    },
    {
      "inputs": [
        {
          "internalType": "address",
          "name": "from",
          "type": "address"
        },
        {
          "internalType": "address",
          "name": "to",
          "type": "address"
        },
        {
          "internalType": "uint256",
          "name": "tokenId",
          "type": "uint256"
        },
        {
          "internalType": "bytes",
          "name": "data",
          "type": "bytes"
        }
      ],
      "name": "safeTransferFrom",
      "outputs": [],
      "stateMutability": "nonpayable",
      "type": "function"
    },
    {
      "inputs": [
        {
          "internalType": "address",
          "name": "operator",
          "type": "address"
        },
        {
          "internalType": "bool",
          "name": "approved",
          "type": "bool"
        }
      ],
      "name": "setApprovalForAll",
      "outputs": [],
      "stateMutability": "nonpayable",
      "type": "function"
    },
    {
      "inputs": [
        {
          "internalType": "string",
          "name": "_baseURI",
          "type": "string"
        }
      ],
      "name": "setBaseURI",
      "outputs": [],
      "stateMutability": "nonpayable",
      "type": "function"
    },
    {
      "inputs": [
        {
          "internalType": "address",
          "name": "_vrfCoordinator",
          "type": "address"
        }
      ],
      "name": "setCoordinator",
      "outputs": [],
      "stateMutability": "nonpayable",
      "type": "function"
    },
    {
      "inputs": [
        {
          "internalType": "bytes4",
          "name": "interfaceId",
          "type": "bytes4"
        }
      ],
      "name": "supportsInterface",
      "outputs": [
        {
          "internalType": "bool",
          "name": "",
          "type": "bool"
        }
      ],
      "stateMutability": "view",
      "type": "function"
    },
    {
      "inputs": [],
      "name": "symbol",
      "outputs": [
        {
          "internalType": "string",
          "name": "",
          "type": "string"
        }
      ],
      "stateMutability": "view",
      "type": "function"
    },
    {
      "inputs": [
        {
          "internalType": "uint256",
          "name": "tokenId",
          "type": "uint256"
        }
      ],
      "name": "tokenURI",
      "outputs": [
        {
          "internalType": "string",
          "name": "",
          "type": "string"
        }
      ],
      "stateMutability": "view",
      "type": "function"
    },
    {
      "inputs": [],
      "name": "totalPacksSold",
      "outputs": [
        {
          "internalType": "uint256",
          "name": "",
          "type": "uint256"
        }
      ],
      "stateMutability": "view",
      "type": "function"
    },
    {
      "inputs": [
        {
          "internalType": "address",
          "name": "from",
          "type": "address"
        },
        {
          "internalType": "address",
          "name": "to",
          "type": "address"
        },
        {
          "internalType": "uint256",
          "name": "tokenId",
          "type": "uint256"
        }
      ],
      "name": "transferFrom",
      "outputs": [],
      "stateMutability": "nonpayable",
      "type": "function"
    },
    {
      "inputs": [
        {
          "internalType": "address",
          "name": "to",
          "type": "address"
        }
      ],
      "name": "transferOwnership",
      "outputs": [],
      "stateMutability": "nonpayable",
      "type": "function"
    },
    {
      "inputs": [
        {
          "internalType": "uint256",
          "name": "newPrice",
          "type": "uint256"
        }
      ],
      "name": "updatePackPrice",
      "outputs": [],
      "stateMutability": "nonpayable",
      "type": "function"
    },
    {
      "inputs": [
        {
          "internalType": "uint256",
          "name": "newQty",
          "type": "uint256"
        }
      ],
      "name": "updatePacksAvailable",
      "outputs": [],
      "stateMutability": "nonpayable",
      "type": "function"
    },
    {
      "inputs": [],
      "name": "withdraw",
      "outputs": [],
      "stateMutability": "nonpayable",
      "type": "function"
    }
  ],
  "bytecode": "0x6080604052655af3107a4000600c557f787d74caea10b2b357790d5b5247c2f63d1d91572a9846f780606e4d953677ae60001b601655621e8480601760006101000a81548163ffffffff021916908363ffffffff1602179055506003601760046101000a81548161ffff021916908361ffff1602179055506005601760066101000a81548163ffffffff021916908363ffffffff1602179055506040518060a0016040528060748152602001620068016074913960189081620000c3919062000752565b50655af3107a40006019556064601a556000601b55348015620000e557600080fd5b50604051620068753803806200687583398181016040528101906200010b91906200086f565b739ddfaca8183c41ad55329bdeed9f6a8d53168b1b6040518060400160405280600c81526020017f5a6f6465636b20436172647300000000000000000000000000000000000000008152506040518060400160405280600381526020017f5a444b0000000000000000000000000000000000000000000000000000000000815250338060008073ffffffffffffffffffffffffffffffffffffffff168273ffffffffffffffffffffffffffffffffffffffff160362000201576040517f08c379a0000000000000000000000000000000000000000000000000000000008152600401620001f89062000902565b60405180910390fd5b816000806101000a81548173ffffffffffffffffffffffffffffffffffffffff021916908373ffffffffffffffffffffffffffffffffffffffff160217905550600073ffffffffffffffffffffffffffffffffffffffff168173ffffffffffffffffffffffffffffffffffffffff161462000288576200028781620003a960201b60201c565b5b50505081600290816200029c919062000752565b508060039081620002ae919062000752565b505050600073ffffffffffffffffffffffffffffffffffffffff168173ffffffffffffffffffffffffffffffffffffffff160362000318576040517fd92e233d00000000000000000000000000000000000000000000000000000000815260040160405180910390fd5b80600960006101000a81548173ffffffffffffffffffffffffffffffffffffffff021916908373ffffffffffffffffffffffffffffffffffffffff1602179055505033600d60006101000a81548173ffffffffffffffffffffffffffffffffffffffff021916908373ffffffffffffffffffffffffffffffffffffffff160217905550806015819055505062000996565b3373ffffffffffffffffffffffffffffffffffffffff168173ffffffffffffffffffffffffffffffffffffffff16036200041a576040517f08c379a0000000000000000000000000000000000000000000000000000000008152600401620004119062000974565b60405180910390fd5b80600160006101000a81548173ffffffffffffffffffffffffffffffffffffffff021916908373ffffffffffffffffffffffffffffffffffffffff1602179055508073ffffffffffffffffffffffffffffffffffffffff1660008054906101000a900473ffffffffffffffffffffffffffffffffffffffff1673ffffffffffffffffffffffffffffffffffffffff167fed8889f560326eb138920d842192f0eb3dd22b4f139c87a2c57538e05bae127860405160405180910390a350565b600081519050919050565b7f4e487b7100000000000000000000000000000000000000000000000000000000600052604160045260246000fd5b7f4e487b7100000000000000000000000000000000000000000000000000000000600052602260045260246000fd5b600060028204905060018216806200055a57607f821691505b60208210810362000570576200056f62000512565b5b50919050565b60008190508160005260206000209050919050565b60006020601f8301049050919050565b600082821b905092915050565b600060088302620005da7fffffffffffffffffffffffffffffffffffffffffffffffffffffffffffffffff826200059b565b620005e686836200059b565b95508019841693508086168417925050509392505050565b6000819050919050565b6000819050919050565b6000620006336200062d6200062784620005fe565b62000608565b620005fe565b9050919050565b6000819050919050565b6200064f8362000612565b620006676200065e826200063a565b848454620005a8565b825550505050565b600090565b6200067e6200066f565b6200068b81848462000644565b505050565b5b81811015620006b357620006a760008262000674565b60018101905062000691565b5050565b601f8211156200070257620006cc8162000576565b620006d7846200058b565b81016020851015620006e7578190505b620006ff620006f6856200058b565b83018262000690565b50505b505050565b600082821c905092915050565b6000620007276000198460080262000707565b1980831691505092915050565b600062000742838362000714565b9150826002028217905092915050565b6200075d82620004d8565b67ffffffffffffffff811115620007795762000778620004e3565b5b62000785825462000541565b62000792828285620006b7565b600060209050601f831160018114620007ca5760008415620007b5578287015190505b620007c1858262000734565b86555062000831565b601f198416620007da8662000576565b60005b828110156200080457848901518255600182019150602085019450602081019050620007dd565b8683101562000824578489015162000820601f89168262000714565b8355505b6001600288020188555050505b505050505050565b600080fd5b6200084981620005fe565b81146200085557600080fd5b50565b60008151905062000869816200083e565b92915050565b60006020828403121562000888576200088762000839565b5b6000620008988482850162000858565b91505092915050565b600082825260208201905092915050565b7f43616e6e6f7420736574206f776e657220746f207a65726f0000000000000000600082015250565b6000620008ea601883620008a1565b9150620008f782620008b2565b602082019050919050565b600060208201905081810360008301526200091d81620008db565b9050919050565b7f43616e6e6f74207472616e7366657220746f2073656c66000000000000000000600082015250565b60006200095c601783620008a1565b9150620009698262000924565b602082019050919050565b600060208201905081810360008301526200098f816200094d565b9050919050565b615e5b80620009a66000396000f3fe6080604052600436106102ff5760003560e01c806379ba509711610190578063b0fb162f116100dc578063d917bf3e11610095578063ed36c52f1161006f578063ed36c52f14610ba6578063f2fde38b14610bc2578063f6eaffc814610beb578063fc2a88c314610c28576102ff565b8063d917bf3e14610b15578063e985e9c514610b40578063eb699f2214610b7d576102ff565b8063b0fb162f146109f0578063b88d4fde14610a1b578063c0abba9e14610a44578063c87b56dd14610a6f578063d759000b14610aac578063d8a4676f14610ad7576102ff565b80638ea9811711610149578063a168fa8911610123578063a168fa891461093d578063a21193771461097b578063a22cb465146109ab578063a54447aa146109d4576102ff565b80638ea98117146108be57806395d89b41146108e75780639eccacf614610912576102ff565b806379ba5097146107c05780637cc539b4146107d75780637ccfd7fc146108005780638796ba8c1461082b5780638ac00021146108685780638da5cb5b14610893576102ff565b80633ccfd60b1161024f57806355901bb0116102085780636c0360eb116101e25780636c0360eb146106f057806370a082311461071b5780637392a7711461075857806375794a3c14610795576102ff565b806355901bb01461065f57806355f804b31461068a5780636352211e146106b3576102ff565b80633ccfd60b1461056157806342842e0e14610578578063434a49a1146105a1578063442890d5146105de57806345bb327b1461060957806345f8fa8014610634576102ff565b80631a01d53a116102bc57806323b872dd1161029657806323b872dd146104a557806324f74697146104ce5780632e602d29146104f9578063335c8b6314610536576102ff565b80631a01d53a146104285780631fe543e314610451578063202e37401461047a576102ff565b806301ffc9a71461030457806306fdde031461034157806307c11e0d1461036c578063081812fc14610397578063095ea7b3146103d457806312e85585146103fd575b600080fd5b34801561031057600080fd5b5061032b6004803603810190610326919061444e565b610c53565b6040516103389190614496565b60405180910390f35b34801561034d57600080fd5b50610356610cb4565b6040516103639190614541565b60405180910390f35b34801561037857600080fd5b50610381610d46565b60405161038e91906146e3565b60405180910390f35b3480156103a357600080fd5b506103be60048036038101906103b99190614731565b610f8d565b6040516103cb919061477f565b60405180910390f35b3480156103e057600080fd5b506103fb60048036038101906103f691906147c6565b610fa9565b005b34801561040957600080fd5b50610412610fbf565b60405161041f9190614815565b60405180910390f35b34801561043457600080fd5b5061044f600480360381019061044a9190614731565b610fc9565b005b34801561045d57600080fd5b5061047860048036038101906104739190614895565b610fdb565b005b34801561048657600080fd5b5061048f6110a1565b60405161049c91906146e3565b60405180910390f35b3480156104b157600080fd5b506104cc60048036038101906104c791906148f5565b611394565b005b3480156104da57600080fd5b506104e3611496565b6040516104f09190614967565b60405180910390f35b34801561050557600080fd5b50610520600480360381019061051b9190614731565b6114ac565b60405161052d919061477f565b60405180910390f35b34801561054257600080fd5b5061054b6114df565b6040516105589190614815565b60405180910390f35b34801561056d57600080fd5b506105766114e5565b005b34801561058457600080fd5b5061059f600480360381019061059a91906148f5565b611543565b005b3480156105ad57600080fd5b506105c860048036038101906105c39190614982565b611563565b6040516105d59190614a5e565b60405180910390f35b3480156105ea57600080fd5b506105f36115fa565b604051610600919061477f565b60405180910390f35b34801561061557600080fd5b5061061e611624565b60405161062b9190614a99565b60405180910390f35b34801561064057600080fd5b5061064961162a565b60405161065691906146e3565b60405180910390f35b34801561066b57600080fd5b5061067461191d565b6040516106819190614815565b60405180910390f35b34801561069657600080fd5b506106b160048036038101906106ac9190614be4565b611927565b005b3480156106bf57600080fd5b506106da60048036038101906106d59190614731565b611942565b6040516106e7919061477f565b60405180910390f35b3480156106fc57600080fd5b50610705611954565b6040516107129190614541565b60405180910390f35b34801561072757600080fd5b50610742600480360381019061073d9190614982565b6119e2565b60405161074f9190614815565b60405180910390f35b34801561076457600080fd5b5061077f600480360381019061077a9190614c59565b611a9c565b60405161078c9190614815565b60405180910390f35b3480156107a157600080fd5b506107aa611d67565b6040516107b79190614815565b60405180910390f35b3480156107cc57600080fd5b506107d5611d6d565b005b3480156107e357600080fd5b506107fe60048036038101906107f99190614731565b611f02565b005b34801561080c57600080fd5b50610815611f14565b6040516108229190614967565b60405180910390f35b34801561083757600080fd5b50610852600480360381019061084d9190614731565b611f2a565b60405161085f9190614815565b60405180910390f35b34801561087457600080fd5b5061087d611f4e565b60405161088a9190614815565b60405180910390f35b34801561089f57600080fd5b506108a8611f54565b6040516108b5919061477f565b60405180910390f35b3480156108ca57600080fd5b506108e560048036038101906108e09190614982565b611f7d565b005b3480156108f357600080fd5b506108fc61215e565b6040516109099190614541565b60405180910390f35b34801561091e57600080fd5b506109276121f0565b6040516109349190614ce5565b60405180910390f35b34801561094957600080fd5b50610964600480360381019061095f9190614731565b612216565b604051610972929190614d00565b60405180910390f35b61099560048036038101906109909190614d29565b612254565b6040516109a29190614815565b60405180910390f35b3480156109b757600080fd5b506109d260048036038101906109cd9190614d85565b6123c7565b005b6109ee60048036038101906109e99190614731565b6123dd565b005b3480156109fc57600080fd5b50610a056125cf565b604051610a129190614de2565b60405180910390f35b348015610a2757600080fd5b50610a426004803603810190610a3d9190614e9e565b6125e3565b005b348015610a5057600080fd5b50610a59612608565b604051610a669190614815565b60405180910390f35b348015610a7b57600080fd5b50610a966004803603810190610a919190614731565b61260e565b604051610aa39190614541565b60405180910390f35b348015610ab857600080fd5b50610ac1612721565b604051610ace9190614815565b60405180910390f35b348015610ae357600080fd5b50610afe6004803603810190610af99190614731565b612727565b604051610b0c929190614f21565b60405180910390f35b348015610b2157600080fd5b50610b2a612852565b604051610b379190614815565b60405180910390f35b348015610b4c57600080fd5b50610b676004803603810190610b629190614f51565b61285c565b604051610b749190614496565b60405180910390f35b348015610b8957600080fd5b50610ba46004803603810190610b9f9190615054565b6128f0565b005b610bc06004803603810190610bbb91906150b0565b612b93565b005b348015610bce57600080fd5b50610be96004803603810190610be49190614982565b612ba1565b005b348015610bf757600080fd5b50610c126004803603810190610c0d9190614731565b612bb5565b604051610c1f9190614815565b60405180910390f35b348015610c3457600080fd5b50610c3d612bd9565b604051610c4a9190614815565b60405180910390f35b6000634906490660e01b7bffffffffffffffffffffffffffffffffffffffffffffffffffffffff1916827bffffffffffffffffffffffffffffffffffffffffffffffffffffffff19161480610cad5750610cac82612bdf565b5b9050919050565b606060028054610cc39061511f565b80601f0160208091040260200160405190810160405280929190818152602001828054610cef9061511f565b8015610d3c5780601f10610d1157610100808354040283529160200191610d3c565b820191906000526020600020905b815481529060010190602001808311610d1f57829003601f168201915b5050505050905090565b60606000600a549050600080600b5467ffffffffffffffff811115610d6e57610d6d614ab9565b5b604051908082528060200260200182016040528015610da757816020015b610d946142ce565b815260200190600190039081610d8c5790505b50905060005b83811015610f83573073ffffffffffffffffffffffffffffffffffffffff16600e6000600184610ddd919061517f565b815260200190815260200160002060020160009054906101000a900473ffffffffffffffffffffffffffffffffffffffff1673ffffffffffffffffffffffffffffffffffffffff1603610f70576000600182610e39919061517f565b90506000600e60008381526020019081526020016000209050806040518060a0016040529081600082015481526020016001820160009054906101000a900473ffffffffffffffffffffffffffffffffffffffff1673ffffffffffffffffffffffffffffffffffffffff1673ffffffffffffffffffffffffffffffffffffffff1681526020016002820160009054906101000a900473ffffffffffffffffffffffffffffffffffffffff1673ffffffffffffffffffffffffffffffffffffffff1673ffffffffffffffffffffffffffffffffffffffff168152602001600382015481526020016004820160009054906101000a900460ff161515151581525050848681518110610f4c57610f4b6151b3565b5b6020026020010181905250610f6b600186612cc190919063ffffffff16565b945050505b8080610f7b906151e2565b915050610dad565b5080935050505090565b6000610f9882612ced565b50610fa282612d75565b9050919050565b610fbb8282610fb6612db2565b612dba565b5050565b6000600c54905090565b610fd1612dcc565b80601a8190555050565b600960009054906101000a900473ffffffffffffffffffffffffffffffffffffffff1673ffffffffffffffffffffffffffffffffffffffff163373ffffffffffffffffffffffffffffffffffffffff16146110915733600960009054906101000a900473ffffffffffffffffffffffffffffffffffffffff166040517f1cf993f400000000000000000000000000000000000000000000000000000000815260040161108892919061522a565b60405180910390fd5b61109c838383612e5c565b505050565b60606000600a54905060008060005b83811015611157573373ffffffffffffffffffffffffffffffffffffffff16600e60006001846110e0919061517f565b815260200190815260200160002060020160009054906101000a900473ffffffffffffffffffffffffffffffffffffffff1673ffffffffffffffffffffffffffffffffffffffff160361114457611141600184612cc190919063ffffffff16565b92505b808061114f906151e2565b9150506110b0565b5060008267ffffffffffffffff81111561117457611173614ab9565b5b6040519080825280602002602001820160405280156111ad57816020015b61119a6142ce565b8152602001906001900390816111925790505b50905060005b84811015611389573373ffffffffffffffffffffffffffffffffffffffff16600e60006001846111e3919061517f565b815260200190815260200160002060020160009054906101000a900473ffffffffffffffffffffffffffffffffffffffff1673ffffffffffffffffffffffffffffffffffffffff160361137657600060018261123f919061517f565b90506000600e60008381526020019081526020016000209050806040518060a0016040529081600082015481526020016001820160009054906101000a900473ffffffffffffffffffffffffffffffffffffffff1673ffffffffffffffffffffffffffffffffffffffff1673ffffffffffffffffffffffffffffffffffffffff1681526020016002820160009054906101000a900473ffffffffffffffffffffffffffffffffffffffff1673ffffffffffffffffffffffffffffffffffffffff1673ffffffffffffffffffffffffffffffffffffffff168152602001600382015481526020016004820160009054906101000a900460ff161515151581525050848681518110611352576113516151b3565b5b6020026020010181905250611371600186612cc190919063ffffffff16565b945050505b8080611381906151e2565b9150506111b3565b508094505050505090565b600073ffffffffffffffffffffffffffffffffffffffff168273ffffffffffffffffffffffffffffffffffffffff16036114065760006040517f64a0ae920000000000000000000000000000000000000000000000000000000081526004016113fd919061477f565b60405180910390fd5b600061141a8383611415612db2565b612f1a565b90508373ffffffffffffffffffffffffffffffffffffffff168173ffffffffffffffffffffffffffffffffffffffff1614611490578382826040517f64283d7b00000000000000000000000000000000000000000000000000000000815260040161148793929190615253565b60405180910390fd5b50505050565b601760009054906101000a900463ffffffff1681565b601c6020528060005260406000206000915054906101000a900473ffffffffffffffffffffffffffffffffffffffff1681565b60195481565b6114ed612dcc565b60006114f7611f54565b90508073ffffffffffffffffffffffffffffffffffffffff166108fc479081150290604051600060405180830381858888f1935050505015801561153f573d6000803e3d6000fd5b5050565b61155e838383604051806020016040528060008152506125e3565b505050565b6060601e60008373ffffffffffffffffffffffffffffffffffffffff1673ffffffffffffffffffffffffffffffffffffffff1681526020019081526020016000208054806020026020016040519081016040528092919081815260200182805480156115ee57602002820191906000526020600020905b8154815260200190600101908083116115da575b50505050509050919050565b6000600d60009054906101000a900473ffffffffffffffffffffffffffffffffffffffff16905090565b60165481565b60606000600a54905060008060005b838110156116e0573373ffffffffffffffffffffffffffffffffffffffff16600e6000600184611669919061517f565b815260200190815260200160002060010160009054906101000a900473ffffffffffffffffffffffffffffffffffffffff1673ffffffffffffffffffffffffffffffffffffffff16036116cd576116ca600184612cc190919063ffffffff16565b92505b80806116d8906151e2565b915050611639565b5060008267ffffffffffffffff8111156116fd576116fc614ab9565b5b60405190808252806020026020018201604052801561173657816020015b6117236142ce565b81526020019060019003908161171b5790505b50905060005b84811015611912573373ffffffffffffffffffffffffffffffffffffffff16600e600060018461176c919061517f565b815260200190815260200160002060010160009054906101000a900473ffffffffffffffffffffffffffffffffffffffff1673ffffffffffffffffffffffffffffffffffffffff16036118ff5760006001826117c8919061517f565b90506000600e60008381526020019081526020016000209050806040518060a0016040529081600082015481526020016001820160009054906101000a900473ffffffffffffffffffffffffffffffffffffffff1673ffffffffffffffffffffffffffffffffffffffff1673ffffffffffffffffffffffffffffffffffffffff1681526020016002820160009054906101000a900473ffffffffffffffffffffffffffffffffffffffff1673ffffffffffffffffffffffffffffffffffffffff1673ffffffffffffffffffffffffffffffffffffffff168152602001600382015481526020016004820160009054906101000a900460ff1615151515815250508486815181106118db576118da6151b3565b5b60200260200101819052506118fa600186612cc190919063ffffffff16565b945050505b808061190a906151e2565b91505061173c565b508094505050505090565b6000601b54905090565b61192f612dcc565b806018908161193e919061542c565b5050565b600061194d82612ced565b9050919050565b601880546119619061511f565b80601f016020809104026020016040519081016040528092919081815260200182805461198d9061511f565b80156119da5780601f106119af576101008083540402835291602001916119da565b820191906000526020600020905b8154815290600101906020018083116119bd57829003601f168201915b505050505081565b60008073ffffffffffffffffffffffffffffffffffffffff168273ffffffffffffffffffffffffffffffffffffffff1603611a555760006040517f89c62b64000000000000000000000000000000000000000000000000000000008152600401611a4c919061477f565b60405180910390fd5b600560008373ffffffffffffffffffffffffffffffffffffffff1673ffffffffffffffffffffffffffffffffffffffff168152602001908152602001600020549050919050565b6000600960009054906101000a900473ffffffffffffffffffffffffffffffffffffffff1673ffffffffffffffffffffffffffffffffffffffff16639b1c385e6040518060c0016040528060165481526020016015548152602001601760049054906101000a900461ffff1661ffff168152602001601760009054906101000a900463ffffffff1663ffffffff168152602001601760069054906101000a900463ffffffff1663ffffffff168152602001611b666040518060200160405280881515815250613134565b8152506040518263ffffffff1660e01b8152600401611b859190615609565b6020604051808303816000875af1158015611ba4573d6000803e3d6000fd5b505050506040513d601f19601f82011682018060405250810190611bc89190615640565b90506040518060600160405280600015158152602001600115158152602001600067ffffffffffffffff811115611c0257611c01614ab9565b5b604051908082528060200260200182016040528015611c305781602001602082028036833780820191505090505b508152506014600083815260200190815260200160002060008201518160000160006101000a81548160ff02191690831515021790555060208201518160000160016101000a81548160ff0219169083151502179055506040820151816001019080519060200190611ca392919061432b565b5090505060108190806001815401808255809150506001900390600052602060002001600090919091909150558060128190555033601c600083815260200190815260200160002060006101000a81548173ffffffffffffffffffffffffffffffffffffffff021916908373ffffffffffffffffffffffffffffffffffffffff1602179055507f28f521cf7abd0044cba5bb040c5217ff69a4e5865f5262905018698e68fe7d008133604051611d5a92919061566d565b60405180910390a1919050565b60135481565b600160009054906101000a900473ffffffffffffffffffffffffffffffffffffffff1673ffffffffffffffffffffffffffffffffffffffff163373ffffffffffffffffffffffffffffffffffffffff1614611dfd576040517f08c379a0000000000000000000000000000000000000000000000000000000008152600401611df4906156e2565b60405180910390fd5b60008060009054906101000a900473ffffffffffffffffffffffffffffffffffffffff169050336000806101000a81548173ffffffffffffffffffffffffffffffffffffffff021916908373ffffffffffffffffffffffffffffffffffffffff1602179055506000600160006101000a81548173ffffffffffffffffffffffffffffffffffffffff021916908373ffffffffffffffffffffffffffffffffffffffff1602179055503373ffffffffffffffffffffffffffffffffffffffff168173ffffffffffffffffffffffffffffffffffffffff167f8be0079c531659141344cd1fd0a4f28419497f9722a3daafe3b4186f6b6457e060405160405180910390a350565b611f0a612dcc565b8060198190555050565b601760069054906101000a900463ffffffff1681565b60108181548110611f3a57600080fd5b906000526020600020016000915090505481565b60155481565b60008060009054906101000a900473ffffffffffffffffffffffffffffffffffffffff16905090565b611f85611f54565b73ffffffffffffffffffffffffffffffffffffffff163373ffffffffffffffffffffffffffffffffffffffff161415801561200e5750600960009054906101000a900473ffffffffffffffffffffffffffffffffffffffff1673ffffffffffffffffffffffffffffffffffffffff163373ffffffffffffffffffffffffffffffffffffffff1614155b1561207d573361201c611f54565b600960009054906101000a900473ffffffffffffffffffffffffffffffffffffffff166040517f061db9c100000000000000000000000000000000000000000000000000000000815260040161207493929190615702565b60405180910390fd5b600073ffffffffffffffffffffffffffffffffffffffff168173ffffffffffffffffffffffffffffffffffffffff16036120e3576040517fd92e233d00000000000000000000000000000000000000000000000000000000815260040160405180910390fd5b80600960006101000a81548173ffffffffffffffffffffffffffffffffffffffff021916908373ffffffffffffffffffffffffffffffffffffffff1602179055507fd1a6a14209a385a964d036e404cb5cfb71f4000cdb03c9366292430787261be681604051612153919061477f565b60405180910390a150565b60606003805461216d9061511f565b80601f01602080910402602001604051908101604052809291908181526020018280546121999061511f565b80156121e65780601f106121bb576101008083540402835291602001916121e6565b820191906000526020600020905b8154815290600101906020018083116121c957829003601f168201915b5050505050905090565b600960009054906101000a900473ffffffffffffffffffffffffffffffffffffffff1681565b60146020528060005260406000206000915090508060000160009054906101000a900460ff16908060000160019054906101000a900460ff16905082565b600061226c6001600a54612cc190919063ffffffff16565b600a819055506000600a54905061228383826131cc565b61228d81856132c5565b6040518060a00160405280828152602001600073ffffffffffffffffffffffffffffffffffffffff1681526020018473ffffffffffffffffffffffffffffffffffffffff1681526020016000815260200160011515815250600e60008381526020019081526020016000206000820151816000015560208201518160010160006101000a81548173ffffffffffffffffffffffffffffffffffffffff021916908373ffffffffffffffffffffffffffffffffffffffff16021790555060408201518160020160006101000a81548173ffffffffffffffffffffffffffffffffffffffff021916908373ffffffffffffffffffffffffffffffffffffffff1602179055506060820151816003015560808201518160040160006101000a81548160ff0219169083151502179055509050508091505092915050565b6123d96123d2612db2565b8383613321565b5050565b6000600e600083815260200190815260200160002060010160009054906101000a900473ffffffffffffffffffffffffffffffffffffffff16905033600e600084815260200190815260200160002060020160006101000a81548173ffffffffffffffffffffffffffffffffffffffff021916908373ffffffffffffffffffffffffffffffffffffffff1602179055506001600e600084815260200190815260200160002060040160006101000a81548160ff0219169083151502179055506000600e600084815260200190815260200160002060010160006101000a81548173ffffffffffffffffffffffffffffffffffffffff021916908373ffffffffffffffffffffffffffffffffffffffff1602179055506125086001600b5461349090919063ffffffff16565b600b819055506125193033846134b7565b600d60009054906101000a900473ffffffffffffffffffffffffffffffffffffffff1673ffffffffffffffffffffffffffffffffffffffff166108fc600c549081150290604051600060405180830381858888f19350505050158015612583573d6000803e3d6000fd5b508073ffffffffffffffffffffffffffffffffffffffff166108fc349081150290604051600060405180830381858888f193505050501580156125ca573d6000803e3d6000fd5b505050565b601760049054906101000a900461ffff1681565b6125ee848484611394565b6126026125f9612db2565b85858585613624565b50505050565b601b5481565b606061261982612ced565b50600060086000848152602001908152602001600020805461263a9061511f565b80601f01602080910402602001604051908101604052809291908181526020018280546126669061511f565b80156126b35780601f10612688576101008083540402835291602001916126b3565b820191906000526020600020905b81548152906001019060200180831161269657829003601f168201915b5050505050905060006126c46137d5565b905060008151036126d957819250505061271c565b60008251111561270e5780826040516020016126f6929190615775565b6040516020818303038152906040529250505061271c565b612717846137ec565b925050505b919050565b601a5481565b600060606014600084815260200190815260200160002060000160019054906101000a900460ff1661278e576040517f08c379a0000000000000000000000000000000000000000000000000000000008152600401612785906157e5565b60405180910390fd5b6000601460008581526020019081526020016000206040518060600160405290816000820160009054906101000a900460ff161515151581526020016000820160019054906101000a900460ff161515151581526020016001820180548060200260200160405190810160405280929190818152602001828054801561283357602002820191906000526020600020905b81548152602001906001019080831161281f575b5050505050815250509050806000015181604001519250925050915091565b6000601a54905090565b6000600760008473ffffffffffffffffffffffffffffffffffffffff1673ffffffffffffffffffffffffffffffffffffffff16815260200190815260200160002060008373ffffffffffffffffffffffffffffffffffffffff1673ffffffffffffffffffffffffffffffffffffffff16815260200190815260200160002060009054906101000a900460ff16905092915050565b601760069054906101000a900463ffffffff1663ffffffff1682511461294b576040517f08c379a000000000000000000000000000000000000000000000000000000000815260040161294290615851565b60405180910390fd5b600073ffffffffffffffffffffffffffffffffffffffff168173ffffffffffffffffffffffffffffffffffffffff16036129ba576040517f08c379a00000000000000000000000000000000000000000000000000000000081526004016129b1906158bd565b60405180910390fd5b6000825167ffffffffffffffff8111156129d7576129d6614ab9565b5b604051908082528060200260200182016040528015612a055781602001602082028036833780820191505090505b50905060005b8351811015612aed5760006014858381518110612a2b57612a2a6151b3565b5b6020026020010151612a3d919061590c565b905060006018612a4c83613855565b604051602001612a5d929190615a58565b60405160208183030381529060405290506000612a7a8287612254565b905080858581518110612a9057612a8f6151b3565b5b6020026020010181815250507fd8734743ed0c1c7547379b55d892e5cea71bc5371832ffa4149a506fbc1aa6d0818784604051612acf93929190615a92565b60405180910390a15050508080612ae5906151e2565b915050612a0b565b5060005b8151811015612b8d57601e60008473ffffffffffffffffffffffffffffffffffffffff1673ffffffffffffffffffffffffffffffffffffffff168152602001908152602001600020828281518110612b4c57612b4b6151b3565b5b602002602001015190806001815401808255809150506001900390600052602060002001600090919091909150558080612b85906151e2565b915050612af1565b50505050565b612b9d82826139b5565b5050565b612ba9612dcc565b612bb281613b90565b50565b60118181548110612bc557600080fd5b906000526020600020016000915090505481565b60125481565b60007f80ac58cd000000000000000000000000000000000000000000000000000000007bffffffffffffffffffffffffffffffffffffffffffffffffffffffff1916827bffffffffffffffffffffffffffffffffffffffffffffffffffffffff19161480612caa57507f5b5e139f000000000000000000000000000000000000000000000000000000007bffffffffffffffffffffffffffffffffffffffffffffffffffffffff1916827bffffffffffffffffffffffffffffffffffffffffffffffffffffffff1916145b80612cba5750612cb982613cbc565b5b9050919050565b6000808284612cd0919061517f565b905083811015612ce357612ce2615ad0565b5b8091505092915050565b600080612cf983613d26565b9050600073ffffffffffffffffffffffffffffffffffffffff168173ffffffffffffffffffffffffffffffffffffffff1603612d6c57826040517f7e273289000000000000000000000000000000000000000000000000000000008152600401612d639190614815565b60405180910390fd5b80915050919050565b60006006600083815260200190815260200160002060009054906101000a900473ffffffffffffffffffffffffffffffffffffffff169050919050565b600033905090565b612dc78383836001613d63565b505050565b60008054906101000a900473ffffffffffffffffffffffffffffffffffffffff1673ffffffffffffffffffffffffffffffffffffffff163373ffffffffffffffffffffffffffffffffffffffff1614612e5a576040517f08c379a0000000000000000000000000000000000000000000000000000000008152600401612e5190615b4b565b60405180910390fd5b565b818160119190612e6d929190614378565b506010839080600181540180825580915050600190039060005260206000200160009091909190915055612f15828280806020026020016040519081016040528093929190818152602001838360200280828437600081840152601f19601f82011690508083019250505050505050601c600086815260200190815260200160002060009054906101000a900473ffffffffffffffffffffffffffffffffffffffff166128f0565b505050565b600080612f2684613d26565b9050600073ffffffffffffffffffffffffffffffffffffffff168373ffffffffffffffffffffffffffffffffffffffff1614612f6857612f67818486613f28565b5b600073ffffffffffffffffffffffffffffffffffffffff168173ffffffffffffffffffffffffffffffffffffffff1614612ff957612faa600085600080613d63565b6001600560008373ffffffffffffffffffffffffffffffffffffffff1673ffffffffffffffffffffffffffffffffffffffff168152602001908152602001600020600082825403925050819055505b600073ffffffffffffffffffffffffffffffffffffffff168573ffffffffffffffffffffffffffffffffffffffff161461307c576001600560008773ffffffffffffffffffffffffffffffffffffffff1673ffffffffffffffffffffffffffffffffffffffff168152602001908152602001600020600082825401925050819055505b846004600086815260200190815260200160002060006101000a81548173ffffffffffffffffffffffffffffffffffffffff021916908373ffffffffffffffffffffffffffffffffffffffff160217905550838573ffffffffffffffffffffffffffffffffffffffff168273ffffffffffffffffffffffffffffffffffffffff167fddf252ad1be2c89b69c2b068fc378daa952ba7f163c4a11628f55a4df523b3ef60405160405180910390a4809150509392505050565b60607f92fd13387c7fe7befbc38d303d6468778fb9731bc4583f17d92989c6fcfdeaaa826040516024016131689190615b87565b604051602081830303815290604052907bffffffffffffffffffffffffffffffffffffffffffffffffffffffff19166020820180517bffffffffffffffffffffffffffffffffffffffffffffffffffffffff83818316178352505050509050919050565b600073ffffffffffffffffffffffffffffffffffffffff168273ffffffffffffffffffffffffffffffffffffffff160361323e5760006040517f64a0ae92000000000000000000000000000000000000000000000000000000008152600401613235919061477f565b60405180910390fd5b600061324c83836000612f1a565b9050600073ffffffffffffffffffffffffffffffffffffffff168173ffffffffffffffffffffffffffffffffffffffff16146132c05760006040517f73c6ac6e0000000000000000000000000000000000000000000000000000000081526004016132b7919061477f565b60405180910390fd5b505050565b806008600084815260200190815260200160002090816132e5919061542c565b507ff8e1a15aba9398e019f0b49df1a4fde98ee17ae345cb5f6b5e2c27f5033e8ce7826040516133159190614815565b60405180910390a15050565b600073ffffffffffffffffffffffffffffffffffffffff168273ffffffffffffffffffffffffffffffffffffffff160361339257816040517f5b08ba18000000000000000000000000000000000000000000000000000000008152600401613389919061477f565b60405180910390fd5b80600760008573ffffffffffffffffffffffffffffffffffffffff1673ffffffffffffffffffffffffffffffffffffffff16815260200190815260200160002060008473ffffffffffffffffffffffffffffffffffffffff1673ffffffffffffffffffffffffffffffffffffffff16815260200190815260200160002060006101000a81548160ff0219169083151502179055508173ffffffffffffffffffffffffffffffffffffffff168373ffffffffffffffffffffffffffffffffffffffff167f17307eab39ab6107e8899845ad3d59bd9653f200f220920489ca2b5937696c31836040516134839190614496565b60405180910390a3505050565b6000828211156134a3576134a2615ad0565b5b81836134af9190615ba2565b905092915050565b600073ffffffffffffffffffffffffffffffffffffffff168273ffffffffffffffffffffffffffffffffffffffff16036135295760006040517f64a0ae92000000000000000000000000000000000000000000000000000000008152600401613520919061477f565b60405180910390fd5b600061353783836000612f1a565b9050600073ffffffffffffffffffffffffffffffffffffffff168173ffffffffffffffffffffffffffffffffffffffff16036135aa57816040517f7e2732890000000000000000000000000000000000000000000000000000000081526004016135a19190614815565b60405180910390fd5b8373ffffffffffffffffffffffffffffffffffffffff168173ffffffffffffffffffffffffffffffffffffffff161461361e578382826040517f64283d7b00000000000000000000000000000000000000000000000000000000815260040161361593929190615253565b60405180910390fd5b50505050565b60008373ffffffffffffffffffffffffffffffffffffffff163b11156137ce578273ffffffffffffffffffffffffffffffffffffffff1663150b7a02868685856040518563ffffffff1660e01b81526004016136839493929190615c20565b6020604051808303816000875af19250505080156136bf57506040513d601f19601f820116820180604052508101906136bc9190615c81565b60015b613743573d80600081146136ef576040519150601f19603f3d011682016040523d82523d6000602084013e6136f4565b606091505b50600081510361373b57836040517f64a0ae92000000000000000000000000000000000000000000000000000000008152600401613732919061477f565b60405180910390fd5b805181602001fd5b63150b7a0260e01b7bffffffffffffffffffffffffffffffffffffffffffffffffffffffff1916817bffffffffffffffffffffffffffffffffffffffffffffffffffffffff1916146137cc57836040517f64a0ae920000000000000000000000000000000000000000000000000000000081526004016137c3919061477f565b60405180910390fd5b505b5050505050565b606060405180602001604052806000815250905090565b60606137f782612ced565b5060006138026137d5565b90506000815111613822576040518060200160405280600081525061384d565b8061382c84613fec565b60405160200161383d929190615775565b6040516020818303038152906040525b915050919050565b60606000820361389c576040518060400160405280600181526020017f300000000000000000000000000000000000000000000000000000000000000081525090506139b0565b600082905060005b600082146138ce5780806138b7906151e2565b915050600a826138c79190615cae565b91506138a4565b60008167ffffffffffffffff8111156138ea576138e9614ab9565b5b6040519080825280601f01601f19166020018201604052801561391c5781602001600182028036833780820191505090505b5090505b600085146139a9576001826139359190615ba2565b9150600a85613944919061590c565b6030613950919061517f565b60f81b818381518110613966576139656151b3565b5b60200101907effffffffffffffffffffffffffffffffffffffffffffffffffffffffffffff1916908160001a905350600a856139a29190615cae565b9450613920565b8093505050505b919050565b600081116139f8576040517f08c379a00000000000000000000000000000000000000000000000000000000081526004016139ef90615d2b565b60405180910390fd5b613a0e6001600b54612cc190919063ffffffff16565b600b819055506040518060a001604052808381526020013373ffffffffffffffffffffffffffffffffffffffff1681526020013073ffffffffffffffffffffffffffffffffffffffff16815260200182815260200160001515815250600e60008481526020019081526020016000206000820151816000015560208201518160010160006101000a81548173ffffffffffffffffffffffffffffffffffffffff021916908373ffffffffffffffffffffffffffffffffffffffff16021790555060408201518160020160006101000a81548173ffffffffffffffffffffffffffffffffffffffff021916908373ffffffffffffffffffffffffffffffffffffffff1602179055506060820151816003015560808201518160040160006101000a81548160ff021916908315150217905550905050613b4d3330846134b7565b817f3cf8eaa46d9accaa9c8e76a1b58ee317d0eac0885fb7635711309f21e5a25fb93330846000604051613b849493929190615d4b565b60405180910390a25050565b3373ffffffffffffffffffffffffffffffffffffffff168173ffffffffffffffffffffffffffffffffffffffff1603613bfe576040517f08c379a0000000000000000000000000000000000000000000000000000000008152600401613bf590615ddc565b60405180910390fd5b80600160006101000a81548173ffffffffffffffffffffffffffffffffffffffff021916908373ffffffffffffffffffffffffffffffffffffffff1602179055508073ffffffffffffffffffffffffffffffffffffffff1660008054906101000a900473ffffffffffffffffffffffffffffffffffffffff1673ffffffffffffffffffffffffffffffffffffffff167fed8889f560326eb138920d842192f0eb3dd22b4f139c87a2c57538e05bae127860405160405180910390a350565b60007f01ffc9a7000000000000000000000000000000000000000000000000000000007bffffffffffffffffffffffffffffffffffffffffffffffffffffffff1916827bffffffffffffffffffffffffffffffffffffffffffffffffffffffff1916149050919050565b60006004600083815260200190815260200160002060009054906101000a900473ffffffffffffffffffffffffffffffffffffffff169050919050565b8080613d9c5750600073ffffffffffffffffffffffffffffffffffffffff168273ffffffffffffffffffffffffffffffffffffffff1614155b15613ed0576000613dac84612ced565b9050600073ffffffffffffffffffffffffffffffffffffffff168373ffffffffffffffffffffffffffffffffffffffff1614158015613e1757508273ffffffffffffffffffffffffffffffffffffffff168173ffffffffffffffffffffffffffffffffffffffff1614155b8015613e2a5750613e28818461285c565b155b15613e6c57826040517fa9fbf51f000000000000000000000000000000000000000000000000000000008152600401613e63919061477f565b60405180910390fd5b8115613ece57838573ffffffffffffffffffffffffffffffffffffffff168273ffffffffffffffffffffffffffffffffffffffff167f8c5be1e5ebec7d5bd14f71427d1e84f3dd0314c0f7b2291e5b200ac8c7c3b92560405160405180910390a45b505b836006600085815260200190815260200160002060006101000a81548173ffffffffffffffffffffffffffffffffffffffff021916908373ffffffffffffffffffffffffffffffffffffffff16021790555050505050565b613f338383836140ba565b613fe757600073ffffffffffffffffffffffffffffffffffffffff168373ffffffffffffffffffffffffffffffffffffffff1603613fa857806040517f7e273289000000000000000000000000000000000000000000000000000000008152600401613f9f9190614815565b60405180910390fd5b81816040517f177e802f000000000000000000000000000000000000000000000000000000008152600401613fde929190615dfc565b60405180910390fd5b505050565b606060006001613ffb8461417b565b01905060008167ffffffffffffffff81111561401a57614019614ab9565b5b6040519080825280601f01601f19166020018201604052801561404c5781602001600182028036833780820191505090505b509050600082602001820190505b6001156140af578080600190039150507f3031323334353637383961626364656600000000000000000000000000000000600a86061a8153600a85816140a3576140a26158dd565b5b0494506000850361405a575b819350505050919050565b60008073ffffffffffffffffffffffffffffffffffffffff168373ffffffffffffffffffffffffffffffffffffffff161415801561417257508273ffffffffffffffffffffffffffffffffffffffff168473ffffffffffffffffffffffffffffffffffffffff1614806141335750614132848461285c565b5b8061417157508273ffffffffffffffffffffffffffffffffffffffff1661415983612d75565b73ffffffffffffffffffffffffffffffffffffffff16145b5b90509392505050565b600080600090507a184f03e93ff9f4daa797ed6e38ed64bf6a1f01000000000000000083106141d9577a184f03e93ff9f4daa797ed6e38ed64bf6a1f01000000000000000083816141cf576141ce6158dd565b5b0492506040810190505b6d04ee2d6d415b85acef81000000008310614216576d04ee2d6d415b85acef8100000000838161420c5761420b6158dd565b5b0492506020810190505b662386f26fc10000831061424557662386f26fc10000838161423b5761423a6158dd565b5b0492506010810190505b6305f5e100831061426e576305f5e1008381614264576142636158dd565b5b0492506008810190505b6127108310614293576127108381614289576142886158dd565b5b0492506004810190505b606483106142b657606483816142ac576142ab6158dd565b5b0492506002810190505b600a83106142c5576001810190505b80915050919050565b6040518060a0016040528060008152602001600073ffffffffffffffffffffffffffffffffffffffff168152602001600073ffffffffffffffffffffffffffffffffffffffff168152602001600081526020016000151581525090565b828054828255906000526020600020908101928215614367579160200282015b8281111561436657825182559160200191906001019061434b565b5b50905061437491906143c5565b5090565b8280548282559060005260206000209081019282156143b4579160200282015b828111156143b3578235825591602001919060010190614398565b5b5090506143c191906143c5565b5090565b5b808211156143de5760008160009055506001016143c6565b5090565b6000604051905090565b600080fd5b600080fd5b60007fffffffff0000000000000000000000000000000000000000000000000000000082169050919050565b61442b816143f6565b811461443657600080fd5b50565b60008135905061444881614422565b92915050565b600060208284031215614464576144636143ec565b5b600061447284828501614439565b91505092915050565b60008115159050919050565b6144908161447b565b82525050565b60006020820190506144ab6000830184614487565b92915050565b600081519050919050565b600082825260208201905092915050565b60005b838110156144eb5780820151818401526020810190506144d0565b60008484015250505050565b6000601f19601f8301169050919050565b6000614513826144b1565b61451d81856144bc565b935061452d8185602086016144cd565b614536816144f7565b840191505092915050565b6000602082019050818103600083015261455b8184614508565b905092915050565b600081519050919050565b600082825260208201905092915050565b6000819050602082019050919050565b6000819050919050565b6145a28161458f565b82525050565b600073ffffffffffffffffffffffffffffffffffffffff82169050919050565b60006145d3826145a8565b9050919050565b6145e3816145c8565b82525050565b6145f28161447b565b82525050565b60a08201600082015161460e6000850182614599565b50602082015161462160208501826145da565b50604082015161463460408501826145da565b5060608201516146476060850182614599565b50608082015161465a60808501826145e9565b50505050565b600061466c83836145f8565b60a08301905092915050565b6000602082019050919050565b600061469082614563565b61469a818561456e565b93506146a58361457f565b8060005b838110156146d65781516146bd8882614660565b97506146c883614678565b9250506001810190506146a9565b5085935050505092915050565b600060208201905081810360008301526146fd8184614685565b905092915050565b61470e8161458f565b811461471957600080fd5b50565b60008135905061472b81614705565b92915050565b600060208284031215614747576147466143ec565b5b60006147558482850161471c565b91505092915050565b6000614769826145a8565b9050919050565b6147798161475e565b82525050565b60006020820190506147946000830184614770565b92915050565b6147a38161475e565b81146147ae57600080fd5b50565b6000813590506147c08161479a565b92915050565b600080604083850312156147dd576147dc6143ec565b5b60006147eb858286016147b1565b92505060206147fc8582860161471c565b9150509250929050565b61480f8161458f565b82525050565b600060208201905061482a6000830184614806565b92915050565b600080fd5b600080fd5b600080fd5b60008083601f84011261485557614854614830565b5b8235905067ffffffffffffffff81111561487257614871614835565b5b60208301915083602082028301111561488e5761488d61483a565b5b9250929050565b6000806000604084860312156148ae576148ad6143ec565b5b60006148bc8682870161471c565b935050602084013567ffffffffffffffff8111156148dd576148dc6143f1565b5b6148e98682870161483f565b92509250509250925092565b60008060006060848603121561490e5761490d6143ec565b5b600061491c868287016147b1565b935050602061492d868287016147b1565b925050604061493e8682870161471c565b9150509250925092565b600063ffffffff82169050919050565b61496181614948565b82525050565b600060208201905061497c6000830184614958565b92915050565b600060208284031215614998576149976143ec565b5b60006149a6848285016147b1565b91505092915050565b600081519050919050565b600082825260208201905092915050565b6000819050602082019050919050565b60006149e78383614599565b60208301905092915050565b6000602082019050919050565b6000614a0b826149af565b614a1581856149ba565b9350614a20836149cb565b8060005b83811015614a51578151614a3888826149db565b9750614a43836149f3565b925050600181019050614a24565b5085935050505092915050565b60006020820190508181036000830152614a788184614a00565b905092915050565b6000819050919050565b614a9381614a80565b82525050565b6000602082019050614aae6000830184614a8a565b92915050565b600080fd5b7f4e487b7100000000000000000000000000000000000000000000000000000000600052604160045260246000fd5b614af1826144f7565b810181811067ffffffffffffffff82111715614b1057614b0f614ab9565b5b80604052505050565b6000614b236143e2565b9050614b2f8282614ae8565b919050565b600067ffffffffffffffff821115614b4f57614b4e614ab9565b5b614b58826144f7565b9050602081019050919050565b82818337600083830152505050565b6000614b87614b8284614b34565b614b19565b905082815260208101848484011115614ba357614ba2614ab4565b5b614bae848285614b65565b509392505050565b600082601f830112614bcb57614bca614830565b5b8135614bdb848260208601614b74565b91505092915050565b600060208284031215614bfa57614bf96143ec565b5b600082013567ffffffffffffffff811115614c1857614c176143f1565b5b614c2484828501614bb6565b91505092915050565b614c368161447b565b8114614c4157600080fd5b50565b600081359050614c5381614c2d565b92915050565b600060208284031215614c6f57614c6e6143ec565b5b6000614c7d84828501614c44565b91505092915050565b6000819050919050565b6000614cab614ca6614ca1846145a8565b614c86565b6145a8565b9050919050565b6000614cbd82614c90565b9050919050565b6000614ccf82614cb2565b9050919050565b614cdf81614cc4565b82525050565b6000602082019050614cfa6000830184614cd6565b92915050565b6000604082019050614d156000830185614487565b614d226020830184614487565b9392505050565b60008060408385031215614d4057614d3f6143ec565b5b600083013567ffffffffffffffff811115614d5e57614d5d6143f1565b5b614d6a85828601614bb6565b9250506020614d7b858286016147b1565b9150509250929050565b60008060408385031215614d9c57614d9b6143ec565b5b6000614daa858286016147b1565b9250506020614dbb85828601614c44565b9150509250929050565b600061ffff82169050919050565b614ddc81614dc5565b82525050565b6000602082019050614df76000830184614dd3565b92915050565b600067ffffffffffffffff821115614e1857614e17614ab9565b5b614e21826144f7565b9050602081019050919050565b6000614e41614e3c84614dfd565b614b19565b905082815260208101848484011115614e5d57614e5c614ab4565b5b614e68848285614b65565b509392505050565b600082601f830112614e8557614e84614830565b5b8135614e95848260208601614e2e565b91505092915050565b60008060008060808587031215614eb857614eb76143ec565b5b6000614ec6878288016147b1565b9450506020614ed7878288016147b1565b9350506040614ee88782880161471c565b925050606085013567ffffffffffffffff811115614f0957614f086143f1565b5b614f1587828801614e70565b91505092959194509250565b6000604082019050614f366000830185614487565b8181036020830152614f488184614a00565b90509392505050565b60008060408385031215614f6857614f676143ec565b5b6000614f76858286016147b1565b9250506020614f87858286016147b1565b9150509250929050565b600067ffffffffffffffff821115614fac57614fab614ab9565b5b602082029050602081019050919050565b6000614fd0614fcb84614f91565b614b19565b90508083825260208201905060208402830185811115614ff357614ff261483a565b5b835b8181101561501c5780615008888261471c565b845260208401935050602081019050614ff5565b5050509392505050565b600082601f83011261503b5761503a614830565b5b813561504b848260208601614fbd565b91505092915050565b6000806040838503121561506b5761506a6143ec565b5b600083013567ffffffffffffffff811115615089576150886143f1565b5b61509585828601615026565b92505060206150a6858286016147b1565b9150509250929050565b600080604083850312156150c7576150c66143ec565b5b60006150d58582860161471c565b92505060206150e68582860161471c565b9150509250929050565b7f4e487b7100000000000000000000000000000000000000000000000000000000600052602260045260246000fd5b6000600282049050600182168061513757607f821691505b60208210810361514a576151496150f0565b5b50919050565b7f4e487b7100000000000000000000000000000000000000000000000000000000600052601160045260246000fd5b600061518a8261458f565b91506151958361458f565b92508282019050808211156151ad576151ac615150565b5b92915050565b7f4e487b7100000000000000000000000000000000000000000000000000000000600052603260045260246000fd5b60006151ed8261458f565b91507fffffffffffffffffffffffffffffffffffffffffffffffffffffffffffffffff820361521f5761521e615150565b5b600182019050919050565b600060408201905061523f6000830185614770565b61524c6020830184614770565b9392505050565b60006060820190506152686000830186614770565b6152756020830185614806565b6152826040830184614770565b949350505050565b60008190508160005260206000209050919050565b60006020601f8301049050919050565b600082821b905092915050565b6000600883026152ec7fffffffffffffffffffffffffffffffffffffffffffffffffffffffffffffffff826152af565b6152f686836152af565b95508019841693508086168417925050509392505050565b600061532961532461531f8461458f565b614c86565b61458f565b9050919050565b6000819050919050565b6153438361530e565b61535761534f82615330565b8484546152bc565b825550505050565b600090565b61536c61535f565b61537781848461533a565b505050565b5b8181101561539b57615390600082615364565b60018101905061537d565b5050565b601f8211156153e0576153b18161528a565b6153ba8461529f565b810160208510156153c9578190505b6153dd6153d58561529f565b83018261537c565b50505b505050565b600082821c905092915050565b6000615403600019846008026153e5565b1980831691505092915050565b600061541c83836153f2565b9150826002028217905092915050565b615435826144b1565b67ffffffffffffffff81111561544e5761544d614ab9565b5b615458825461511f565b61546382828561539f565b600060209050601f8311600181146154965760008415615484578287015190505b61548e8582615410565b8655506154f6565b601f1984166154a48661528a565b60005b828110156154cc578489015182556001820191506020850194506020810190506154a7565b868310156154e957848901516154e5601f8916826153f2565b8355505b6001600288020188555050505b505050505050565b61550781614a80565b82525050565b61551681614dc5565b82525050565b61552581614948565b82525050565b600081519050919050565b600082825260208201905092915050565b60006155528261552b565b61555c8185615536565b935061556c8185602086016144cd565b615575816144f7565b840191505092915050565b600060c08301600083015161559860008601826154fe565b5060208301516155ab6020860182614599565b5060408301516155be604086018261550d565b5060608301516155d1606086018261551c565b5060808301516155e4608086018261551c565b5060a083015184820360a08601526155fc8282615547565b9150508091505092915050565b600060208201905081810360008301526156238184615580565b905092915050565b60008151905061563a81614705565b92915050565b600060208284031215615656576156556143ec565b5b60006156648482850161562b565b91505092915050565b60006040820190506156826000830185614806565b61568f6020830184614770565b9392505050565b7f4d7573742062652070726f706f736564206f776e657200000000000000000000600082015250565b60006156cc6016836144bc565b91506156d782615696565b602082019050919050565b600060208201905081810360008301526156fb816156bf565b9050919050565b60006060820190506157176000830186614770565b6157246020830185614770565b6157316040830184614770565b949350505050565b600081905092915050565b600061574f826144b1565b6157598185615739565b93506157698185602086016144cd565b80840191505092915050565b60006157818285615744565b915061578d8284615744565b91508190509392505050565b7f72657175657374206e6f7420666f756e64000000000000000000000000000000600082015250565b60006157cf6011836144bc565b91506157da82615799565b602082019050919050565b600060208201905081810360008301526157fe816157c2565b9050919050565b7f457870656374656420582072616e646f6d206e756d6265727300000000000000600082015250565b600061583b6019836144bc565b915061584682615805565b602082019050919050565b6000602082019050818103600083015261586a8161582e565b9050919050565b7f526563697069656e74206164647265737320697320696e76616c696400000000600082015250565b60006158a7601c836144bc565b91506158b282615871565b602082019050919050565b600060208201905081810360008301526158d68161589a565b9050919050565b7f4e487b7100000000000000000000000000000000000000000000000000000000600052601260045260246000fd5b60006159178261458f565b91506159228361458f565b925082615932576159316158dd565b5b828206905092915050565b6000815461594a8161511f565b6159548186615739565b9450600182166000811461596f5760018114615984576159b7565b60ff19831686528115158202860193506159b7565b61598d8561528a565b60005b838110156159af57815481890152600182019150602081019050615990565b838801955050505b50505092915050565b7f4361726420000000000000000000000000000000000000000000000000000000600082015250565b60006159f6600583615739565b9150615a01826159c0565b600582019050919050565b7f2e706e6700000000000000000000000000000000000000000000000000000000600082015250565b6000615a42600483615739565b9150615a4d82615a0c565b600482019050919050565b6000615a64828561593d565b9150615a6f826159e9565b9150615a7b8284615744565b9150615a8682615a35565b91508190509392505050565b6000606082019050615aa76000830186614806565b615ab46020830185614770565b8181036040830152615ac68184614508565b9050949350505050565b7f4e487b7100000000000000000000000000000000000000000000000000000000600052600160045260246000fd5b7f4f6e6c792063616c6c61626c65206279206f776e657200000000000000000000600082015250565b6000615b356016836144bc565b9150615b4082615aff565b602082019050919050565b60006020820190508181036000830152615b6481615b28565b9050919050565b602082016000820151615b8160008501826145e9565b50505050565b6000602082019050615b9c6000830184615b6b565b92915050565b6000615bad8261458f565b9150615bb88361458f565b9250828203905081811115615bd057615bcf615150565b5b92915050565b600082825260208201905092915050565b6000615bf28261552b565b615bfc8185615bd6565b9350615c0c8185602086016144cd565b615c15816144f7565b840191505092915050565b6000608082019050615c356000830187614770565b615c426020830186614770565b615c4f6040830185614806565b8181036060830152615c618184615be7565b905095945050505050565b600081519050615c7b81614422565b92915050565b600060208284031215615c9757615c966143ec565b5b6000615ca584828501615c6c565b91505092915050565b6000615cb98261458f565b9150615cc48361458f565b925082615cd457615cd36158dd565b5b828204905092915050565b7f5072696365206d757374206265206174206c6561737420312077656900000000600082015250565b6000615d15601c836144bc565b9150615d2082615cdf565b602082019050919050565b60006020820190508181036000830152615d4481615d08565b9050919050565b6000608082019050615d606000830187614770565b615d6d6020830186614770565b615d7a6040830185614806565b615d876060830184614487565b95945050505050565b7f43616e6e6f74207472616e7366657220746f2073656c66000000000000000000600082015250565b6000615dc66017836144bc565b9150615dd182615d90565b602082019050919050565b60006020820190508181036000830152615df581615db9565b9050919050565b6000604082019050615e116000830185614770565b615e1e6020830184614806565b939250505056fea2646970667358221220e43b40b379c3ac3f357ba4bad6ca70e8542de9241b3123c4d6901dbae260e1cb64736f6c6343000814003368747470733a2f2f61707269636f742d636865657266756c2d616c706163612d3633362e6d7970696e6174612e636c6f75642f697066732f62616679626569663477646536693435337568616432627336336179346e6970336d6c32713778336a6866666d6f346c6b64327a35327569706d692f",
  "linkReferences": {},
  "deployedLinkReferences": {}
}