{
  "_format": "hh-sol-artifact-1",
  "contractName": "NFTplace",
  "sourceName": "contracts/test.sol",
  "abi": [
    {
      "inputs": [],
      "stateMutability": "nonpayable",
      "type": "constructor"
    },
    {
      "inputs": [
        {
          "internalType": "address",
          "name": "sender",
          "type": "address"
        },
        {
          "internalType": "uint256",
          "name": "tokenId",
          "type": "uint256"
        },
        {
          "internalType": "address",
          "name": "owner",
          "type": "address"
        }
      ],
      "name": "ERC721IncorrectOwner",
      "type": "error"
    },
    {
      "inputs": [
        {
          "internalType": "address",
          "name": "operator",
          "type": "address"
        },
        {
          "internalType": "uint256",
          "name": "tokenId",
          "type": "uint256"
        }
      ],
      "name": "ERC721InsufficientApproval",
      "type": "error"
    },
    {
      "inputs": [
        {
          "internalType": "address",
          "name": "approver",
          "type": "address"
        }
      ],
      "name": "ERC721InvalidApprover",
      "type": "error"
    },
    {
      "inputs": [
        {
          "internalType": "address",
          "name": "operator",
          "type": "address"
        }
      ],
      "name": "ERC721InvalidOperator",
      "type": "error"
    },
    {
      "inputs": [
        {
          "internalType": "address",
          "name": "owner",
          "type": "address"
        }
      ],
      "name": "ERC721InvalidOwner",
      "type": "error"
    },
    {
      "inputs": [
        {
          "internalType": "address",
          "name": "receiver",
          "type": "address"
        }
      ],
      "name": "ERC721InvalidReceiver",
      "type": "error"
    },
    {
      "inputs": [
        {
          "internalType": "address",
          "name": "sender",
          "type": "address"
        }
      ],
      "name": "ERC721InvalidSender",
      "type": "error"
    },
    {
      "inputs": [
        {
          "internalType": "uint256",
          "name": "tokenId",
          "type": "uint256"
        }
      ],
      "name": "ERC721NonexistentToken",
      "type": "error"
    },
    {
      "anonymous": false,
      "inputs": [
        {
          "indexed": true,
          "internalType": "address",
          "name": "owner",
          "type": "address"
        },
        {
          "indexed": true,
          "internalType": "address",
          "name": "approved",
          "type": "address"
        },
        {
          "indexed": true,
          "internalType": "uint256",
          "name": "tokenId",
          "type": "uint256"
        }
      ],
      "name": "Approval",
      "type": "event"
    },
    {
      "anonymous": false,
      "inputs": [
        {
          "indexed": true,
          "internalType": "address",
          "name": "owner",
          "type": "address"
        },
        {
          "indexed": true,
          "internalType": "address",
          "name": "operator",
          "type": "address"
        },
        {
          "indexed": false,
          "internalType": "bool",
          "name": "approved",
          "type": "bool"
        }
      ],
      "name": "ApprovalForAll",
      "type": "event"
    },
    {
      "anonymous": false,
      "inputs": [
        {
          "indexed": false,
          "internalType": "uint256",
          "name": "_fromTokenId",
          "type": "uint256"
        },
        {
          "indexed": false,
          "internalType": "uint256",
          "name": "_toTokenId",
          "type": "uint256"
        }
      ],
      "name": "BatchMetadataUpdate",
      "type": "event"
    },
    {
      "anonymous": false,
      "inputs": [
        {
          "indexed": true,
          "internalType": "uint256",
          "name": "tokenId",
          "type": "uint256"
        },
        {
          "indexed": false,
          "internalType": "address",
          "name": "seller",
          "type": "address"
        },
        {
          "indexed": false,
          "internalType": "address",
          "name": "owner",
          "type": "address"
        },
        {
          "indexed": false,
          "internalType": "uint256",
          "name": "price",
          "type": "uint256"
        },
        {
          "indexed": false,
          "internalType": "bool",
          "name": "sold",
          "type": "bool"
        }
      ],
      "name": "ListingCreated",
      "type": "event"
    },
    {
      "anonymous": false,
      "inputs": [
        {
          "indexed": true,
          "internalType": "uint256",
          "name": "tokenId",
          "type": "uint256"
        },
        {
          "indexed": false,
          "internalType": "address",
          "name": "seller",
          "type": "address"
        }
      ],
      "name": "ListingRemoved",
      "type": "event"
    },
    {
      "anonymous": false,
      "inputs": [
        {
          "indexed": false,
          "internalType": "uint256",
          "name": "_tokenId",
          "type": "uint256"
        }
      ],
      "name": "MetadataUpdate",
      "type": "event"
    },
    {
      "anonymous": false,
      "inputs": [
        {
          "indexed": true,
          "internalType": "address",
          "name": "from",
          "type": "address"
        },
        {
          "indexed": true,
          "internalType": "address",
          "name": "to",
          "type": "address"
        },
        {
          "indexed": true,
          "internalType": "uint256",
          "name": "tokenId",
          "type": "uint256"
        }
      ],
      "name": "Transfer",
      "type": "event"
    },
    {
      "inputs": [
        {
          "internalType": "address",
          "name": "to",
          "type": "address"
        },
        {
          "internalType": "uint256",
          "name": "tokenId",
          "type": "uint256"
        }
      ],
      "name": "approve",
      "outputs": [],
      "stateMutability": "nonpayable",
      "type": "function"
    },
    {
      "inputs": [
        {
          "internalType": "address",
          "name": "owner",
          "type": "address"
        }
      ],
      "name": "balanceOf",
      "outputs": [
        {
          "internalType": "uint256",
          "name": "",
          "type": "uint256"
        }
      ],
      "stateMutability": "view",
      "type": "function"
    },
    {
      "inputs": [
        {
          "internalType": "string",
          "name": "tokenURI",
          "type": "string"
        }
      ],
      "name": "createToken",
      "outputs": [
        {
          "internalType": "uint256",
          "name": "",
          "type": "uint256"
        }
      ],
      "stateMutability": "payable",
      "type": "function"
    },
    {
      "inputs": [],
      "name": "fetchItemsListed",
      "outputs": [
        {
          "components": [
            {
              "internalType": "uint256",
              "name": "tokenId",
              "type": "uint256"
            },
            {
              "internalType": "address payable",
              "name": "seller",
              "type": "address"
            },
            {
              "internalType": "address payable",
              "name": "owner",
              "type": "address"
            },
            {
              "internalType": "uint256",
              "name": "price",
              "type": "uint256"
            },
            {
              "internalType": "bool",
              "name": "sold",
              "type": "bool"
            }
          ],
          "internalType": "struct NFTplace.Listing[]",
          "name": "",
          "type": "tuple[]"
        }
      ],
      "stateMutability": "view",
      "type": "function"
    },
    {
      "inputs": [],
      "name": "fetchListingMarketplace",
      "outputs": [
        {
          "components": [
            {
              "internalType": "uint256",
              "name": "tokenId",
              "type": "uint256"
            },
            {
              "internalType": "address payable",
              "name": "seller",
              "type": "address"
            },
            {
              "internalType": "address payable",
              "name": "owner",
              "type": "address"
            },
            {
              "internalType": "uint256",
              "name": "price",
              "type": "uint256"
            },
            {
              "internalType": "bool",
              "name": "sold",
              "type": "bool"
            }
          ],
          "internalType": "struct NFTplace.Listing[]",
          "name": "",
          "type": "tuple[]"
        }
      ],
      "stateMutability": "view",
      "type": "function"
    },
    {
      "inputs": [],
      "name": "fetchMyNFTs",
      "outputs": [
        {
          "components": [
            {
              "internalType": "uint256",
              "name": "tokenId",
              "type": "uint256"
            },
            {
              "internalType": "address payable",
              "name": "seller",
              "type": "address"
            },
            {
              "internalType": "address payable",
              "name": "owner",
              "type": "address"
            },
            {
              "internalType": "uint256",
              "name": "price",
              "type": "uint256"
            },
            {
              "internalType": "bool",
              "name": "sold",
              "type": "bool"
            }
          ],
          "internalType": "struct NFTplace.Listing[]",
          "name": "",
          "type": "tuple[]"
        }
      ],
      "stateMutability": "view",
      "type": "function"
    },
    {
      "inputs": [
        {
          "internalType": "uint256",
          "name": "tokenId",
          "type": "uint256"
        }
      ],
      "name": "getApproved",
      "outputs": [
        {
          "internalType": "address",
          "name": "",
          "type": "address"
        }
      ],
      "stateMutability": "view",
      "type": "function"
    },
    {
      "inputs": [],
      "name": "getContractOwner",
      "outputs": [
        {
          "internalType": "address",
          "name": "",
          "type": "address"
        }
      ],
      "stateMutability": "view",
      "type": "function"
    },
    {
      "inputs": [],
      "name": "getListingPrice",
      "outputs": [
        {
          "internalType": "uint256",
          "name": "",
          "type": "uint256"
        }
      ],
      "stateMutability": "view",
      "type": "function"
    },
    {
      "inputs": [
        {
          "internalType": "address",
          "name": "owner",
          "type": "address"
        },
        {
          "internalType": "address",
          "name": "operator",
          "type": "address"
        }
      ],
      "name": "isApprovedForAll",
      "outputs": [
        {
          "internalType": "bool",
          "name": "",
          "type": "bool"
        }
      ],
      "stateMutability": "view",
      "type": "function"
    },
    {
      "inputs": [
        {
          "internalType": "uint256",
          "name": "tokenId",
          "type": "uint256"
        },
        {
          "internalType": "uint256",
          "name": "price",
          "type": "uint256"
        }
      ],
      "name": "listCard",
      "outputs": [],
      "stateMutability": "payable",
      "type": "function"
    },
    {
      "inputs": [],
      "name": "name",
      "outputs": [
        {
          "internalType": "string",
          "name": "",
          "type": "string"
        }
      ],
      "stateMutability": "view",
      "type": "function"
    },
    {
      "inputs": [
        {
          "internalType": "uint256",
          "name": "tokenId",
          "type": "uint256"
        }
      ],
      "name": "ownerOf",
      "outputs": [
        {
          "internalType": "address",
          "name": "",
          "type": "address"
        }
      ],
      "stateMutability": "view",
      "type": "function"
    },
    {
      "inputs": [
        {
          "internalType": "uint256",
          "name": "tokenId",
          "type": "uint256"
        }
      ],
      "name": "purchaseCard",
      "outputs": [],
      "stateMutability": "payable",
      "type": "function"
    },
    {
      "inputs": [
        {
          "internalType": "address",
          "name": "from",
          "type": "address"
        },
        {
          "internalType": "address",
          "name": "to",
          "type": "address"
        },
        {
          "internalType": "uint256",
          "name": "tokenId",
          "type": "uint256"
        }
      ],
      "name": "safeTransferFrom",
      "outputs": [],
      "stateMutability": "nonpayable",
      "type": "function"
    },
    {
      "inputs": [
        {
          "internalType": "address",
          "name": "from",
          "type": "address"
        },
        {
          "internalType": "address",
          "name": "to",
          "type": "address"
        },
        {
          "internalType": "uint256",
          "name": "tokenId",
          "type": "uint256"
        },
        {
          "internalType": "bytes",
          "name": "data",
          "type": "bytes"
        }
      ],
      "name": "safeTransferFrom",
      "outputs": [],
      "stateMutability": "nonpayable",
      "type": "function"
    },
    {
      "inputs": [
        {
          "internalType": "address",
          "name": "operator",
          "type": "address"
        },
        {
          "internalType": "bool",
          "name": "approved",
          "type": "bool"
        }
      ],
      "name": "setApprovalForAll",
      "outputs": [],
      "stateMutability": "nonpayable",
      "type": "function"
    },
    {
      "inputs": [
        {
          "internalType": "bytes4",
          "name": "interfaceId",
          "type": "bytes4"
        }
      ],
      "name": "supportsInterface",
      "outputs": [
        {
          "internalType": "bool",
          "name": "",
          "type": "bool"
        }
      ],
      "stateMutability": "view",
      "type": "function"
    },
    {
      "inputs": [],
      "name": "symbol",
      "outputs": [
        {
          "internalType": "string",
          "name": "",
          "type": "string"
        }
      ],
      "stateMutability": "view",
      "type": "function"
    },
    {
      "inputs": [
        {
          "internalType": "uint256",
          "name": "tokenId",
          "type": "uint256"
        }
      ],
      "name": "tokenURI",
      "outputs": [
        {
          "internalType": "string",
          "name": "",
          "type": "string"
        }
      ],
      "stateMutability": "view",
      "type": "function"
    },
    {
      "inputs": [
        {
          "internalType": "address",
          "name": "from",
          "type": "address"
        },
        {
          "internalType": "address",
          "name": "to",
          "type": "address"
        },
        {
          "internalType": "uint256",
          "name": "tokenId",
          "type": "uint256"
        }
      ],
      "name": "transferFrom",
      "outputs": [],
      "stateMutability": "nonpayable",
      "type": "function"
    }
  ],
  "bytecode": "0x6080604052655af3107a40006009553480156200001b57600080fd5b506040518060400160405280600c81526020017f5a6f6465636b20436172647300000000000000000000000000000000000000008152506040518060400160405280600381526020017f5a444b000000000000000000000000000000000000000000000000000000000081525081600090816200009991906200036f565b508060019081620000ab91906200036f565b50505033600a60006101000a81548173ffffffffffffffffffffffffffffffffffffffff021916908373ffffffffffffffffffffffffffffffffffffffff16021790555062000456565b600081519050919050565b7f4e487b7100000000000000000000000000000000000000000000000000000000600052604160045260246000fd5b7f4e487b7100000000000000000000000000000000000000000000000000000000600052602260045260246000fd5b600060028204905060018216806200017757607f821691505b6020821081036200018d576200018c6200012f565b5b50919050565b60008190508160005260206000209050919050565b60006020601f8301049050919050565b600082821b905092915050565b600060088302620001f77fffffffffffffffffffffffffffffffffffffffffffffffffffffffffffffffff82620001b8565b620002038683620001b8565b95508019841693508086168417925050509392505050565b6000819050919050565b6000819050919050565b6000620002506200024a62000244846200021b565b62000225565b6200021b565b9050919050565b6000819050919050565b6200026c836200022f565b620002846200027b8262000257565b848454620001c5565b825550505050565b600090565b6200029b6200028c565b620002a881848462000261565b505050565b5b81811015620002d057620002c460008262000291565b600181019050620002ae565b5050565b601f8211156200031f57620002e98162000193565b620002f484620001a8565b8101602085101562000304578190505b6200031c6200031385620001a8565b830182620002ad565b50505b505050565b600082821c905092915050565b6000620003446000198460080262000324565b1980831691505092915050565b60006200035f838362000331565b9150826002028217905092915050565b6200037a82620000f5565b67ffffffffffffffff81111562000396576200039562000100565b5b620003a282546200015e565b620003af828285620002d4565b600060209050601f831160018114620003e75760008415620003d2578287015190505b620003de858262000351565b8655506200044e565b601f198416620003f78662000193565b60005b828110156200042157848901518255600182019150602085019450602081019050620003fa565b868310156200044157848901516200043d601f89168262000331565b8355505b6001600288020188555050505b505050505050565b61383380620004666000396000f3fe60806040526004361061012a5760003560e01c806345576f94116100ab578063a22cb4651161006f578063a22cb465146103fb578063a54447aa14610424578063b88d4fde14610440578063c87b56dd14610469578063e985e9c5146104a6578063ed36c52f146104e35761012a565b806345576f94146102fb57806345f8fa801461032b5780636352211e1461035657806370a082311461039357806395d89b41146103d05761012a565b806312e85585116100f257806312e8558514610228578063202e37401461025357806323b872dd1461027e57806342842e0e146102a7578063442890d5146102d05761012a565b806301ffc9a71461012f57806306fdde031461016c57806307c11e0d14610197578063081812fc146101c2578063095ea7b3146101ff575b600080fd5b34801561013b57600080fd5b506101566004803603810190610151919061296f565b6104ff565b60405161016391906129b7565b60405180910390f35b34801561017857600080fd5b50610181610560565b60405161018e9190612a62565b60405180910390f35b3480156101a357600080fd5b506101ac6105f2565b6040516101b99190612c04565b60405180910390f35b3480156101ce57600080fd5b506101e960048036038101906101e49190612c52565b61084c565b6040516101f69190612ca0565b60405180910390f35b34801561020b57600080fd5b5061022660048036038101906102219190612ce7565b610868565b005b34801561023457600080fd5b5061023d61087e565b60405161024a9190612d36565b60405180910390f35b34801561025f57600080fd5b50610268610888565b6040516102759190612c04565b60405180910390f35b34801561028a57600080fd5b506102a560048036038101906102a09190612d51565b610b7b565b005b3480156102b357600080fd5b506102ce60048036038101906102c99190612d51565b610c7d565b005b3480156102dc57600080fd5b506102e5610c9d565b6040516102f29190612ca0565b60405180910390f35b61031560048036038101906103109190612ed9565b610cc7565b6040516103229190612d36565b60405180910390f35b34801561033757600080fd5b50610340610e39565b60405161034d9190612c04565b60405180910390f35b34801561036257600080fd5b5061037d60048036038101906103789190612c52565b61112c565b60405161038a9190612ca0565b60405180910390f35b34801561039f57600080fd5b506103ba60048036038101906103b59190612f22565b61113e565b6040516103c79190612d36565b60405180910390f35b3480156103dc57600080fd5b506103e56111f8565b6040516103f29190612a62565b60405180910390f35b34801561040757600080fd5b50610422600480360381019061041d9190612f7b565b61128a565b005b61043e60048036038101906104399190612c52565b6112a0565b005b34801561044c57600080fd5b506104676004803603810190610462919061305c565b611492565b005b34801561047557600080fd5b50610490600480360381019061048b9190612c52565b6114b7565b60405161049d9190612a62565b60405180910390f35b3480156104b257600080fd5b506104cd60048036038101906104c891906130df565b6115ca565b6040516104da91906129b7565b60405180910390f35b6104fd60048036038101906104f8919061311f565b61165e565b005b6000634906490660e01b7bffffffffffffffffffffffffffffffffffffffffffffffffffffffff1916827bffffffffffffffffffffffffffffffffffffffffffffffffffffffff1916148061055957506105588261166c565b5b9050919050565b60606000805461056f9061318e565b80601f016020809104026020016040519081016040528092919081815260200182805461059b9061318e565b80156105e85780601f106105bd576101008083540402835291602001916105e8565b820191906000526020600020905b8154815290600101906020018083116105cb57829003601f168201915b5050505050905090565b606060006007549050600060085460075461060d91906131ee565b90506000808267ffffffffffffffff81111561062c5761062b612dae565b5b60405190808252806020026020018201604052801561066557816020015b6106526128a6565b81526020019060019003908161064a5790505b50905060005b84811015610841573073ffffffffffffffffffffffffffffffffffffffff16600b600060018461069b9190613222565b815260200190815260200160002060020160009054906101000a900473ffffffffffffffffffffffffffffffffffffffff1673ffffffffffffffffffffffffffffffffffffffff160361082e5760006001826106f79190613222565b90506000600b60008381526020019081526020016000209050806040518060a0016040529081600082015481526020016001820160009054906101000a900473ffffffffffffffffffffffffffffffffffffffff1673ffffffffffffffffffffffffffffffffffffffff1673ffffffffffffffffffffffffffffffffffffffff1681526020016002820160009054906101000a900473ffffffffffffffffffffffffffffffffffffffff1673ffffffffffffffffffffffffffffffffffffffff1673ffffffffffffffffffffffffffffffffffffffff168152602001600382015481526020016004820160009054906101000a900460ff16151515158152505084868151811061080a57610809613256565b5b602002602001018190525061082960018661174e90919063ffffffff16565b945050505b808061083990613285565b91505061066b565b508094505050505090565b60006108578261177a565b5061086182611802565b9050919050565b61087a828261087561183f565b611847565b5050565b6000600954905090565b60606000600754905060008060005b8381101561093e573373ffffffffffffffffffffffffffffffffffffffff16600b60006001846108c79190613222565b815260200190815260200160002060020160009054906101000a900473ffffffffffffffffffffffffffffffffffffffff1673ffffffffffffffffffffffffffffffffffffffff160361092b5761092860018461174e90919063ffffffff16565b92505b808061093690613285565b915050610897565b5060008267ffffffffffffffff81111561095b5761095a612dae565b5b60405190808252806020026020018201604052801561099457816020015b6109816128a6565b8152602001906001900390816109795790505b50905060005b84811015610b70573373ffffffffffffffffffffffffffffffffffffffff16600b60006001846109ca9190613222565b815260200190815260200160002060020160009054906101000a900473ffffffffffffffffffffffffffffffffffffffff1673ffffffffffffffffffffffffffffffffffffffff1603610b5d576000600182610a269190613222565b90506000600b60008381526020019081526020016000209050806040518060a0016040529081600082015481526020016001820160009054906101000a900473ffffffffffffffffffffffffffffffffffffffff1673ffffffffffffffffffffffffffffffffffffffff1673ffffffffffffffffffffffffffffffffffffffff1681526020016002820160009054906101000a900473ffffffffffffffffffffffffffffffffffffffff1673ffffffffffffffffffffffffffffffffffffffff1673ffffffffffffffffffffffffffffffffffffffff168152602001600382015481526020016004820160009054906101000a900460ff161515151581525050848681518110610b3957610b38613256565b5b6020026020010181905250610b5860018661174e90919063ffffffff16565b945050505b8080610b6890613285565b91505061099a565b508094505050505090565b600073ffffffffffffffffffffffffffffffffffffffff168273ffffffffffffffffffffffffffffffffffffffff1603610bed5760006040517f64a0ae92000000000000000000000000000000000000000000000000000000008152600401610be49190612ca0565b60405180910390fd5b6000610c018383610bfc61183f565b611859565b90508373ffffffffffffffffffffffffffffffffffffffff168173ffffffffffffffffffffffffffffffffffffffff1614610c77578382826040517f64283d7b000000000000000000000000000000000000000000000000000000008152600401610c6e939291906132cd565b60405180910390fd5b50505050565b610c9883838360405180602001604052806000815250611492565b505050565b6000600a60009054906101000a900473ffffffffffffffffffffffffffffffffffffffff16905090565b6000610cdf600160075461174e90919063ffffffff16565b60078190555060006007549050610cf63382611a73565b610d008184611b6c565b6040518060a00160405280828152602001600073ffffffffffffffffffffffffffffffffffffffff1681526020013373ffffffffffffffffffffffffffffffffffffffff1681526020016000815260200160011515815250600b60008381526020019081526020016000206000820151816000015560208201518160010160006101000a81548173ffffffffffffffffffffffffffffffffffffffff021916908373ffffffffffffffffffffffffffffffffffffffff16021790555060408201518160020160006101000a81548173ffffffffffffffffffffffffffffffffffffffff021916908373ffffffffffffffffffffffffffffffffffffffff1602179055506060820151816003015560808201518160040160006101000a81548160ff02191690831515021790555090505080915050919050565b60606000600754905060008060005b83811015610eef573373ffffffffffffffffffffffffffffffffffffffff16600b6000600184610e789190613222565b815260200190815260200160002060010160009054906101000a900473ffffffffffffffffffffffffffffffffffffffff1673ffffffffffffffffffffffffffffffffffffffff1603610edc57610ed960018461174e90919063ffffffff16565b92505b8080610ee790613285565b915050610e48565b5060008267ffffffffffffffff811115610f0c57610f0b612dae565b5b604051908082528060200260200182016040528015610f4557816020015b610f326128a6565b815260200190600190039081610f2a5790505b50905060005b84811015611121573373ffffffffffffffffffffffffffffffffffffffff16600b6000600184610f7b9190613222565b815260200190815260200160002060010160009054906101000a900473ffffffffffffffffffffffffffffffffffffffff1673ffffffffffffffffffffffffffffffffffffffff160361110e576000600182610fd79190613222565b90506000600b60008381526020019081526020016000209050806040518060a0016040529081600082015481526020016001820160009054906101000a900473ffffffffffffffffffffffffffffffffffffffff1673ffffffffffffffffffffffffffffffffffffffff1673ffffffffffffffffffffffffffffffffffffffff1681526020016002820160009054906101000a900473ffffffffffffffffffffffffffffffffffffffff1673ffffffffffffffffffffffffffffffffffffffff1673ffffffffffffffffffffffffffffffffffffffff168152602001600382015481526020016004820160009054906101000a900460ff1615151515815250508486815181106110ea576110e9613256565b5b602002602001018190525061110960018661174e90919063ffffffff16565b945050505b808061111990613285565b915050610f4b565b508094505050505090565b60006111378261177a565b9050919050565b60008073ffffffffffffffffffffffffffffffffffffffff168273ffffffffffffffffffffffffffffffffffffffff16036111b15760006040517f89c62b640000000000000000000000000000000000000000000000000000000081526004016111a89190612ca0565b60405180910390fd5b600360008373ffffffffffffffffffffffffffffffffffffffff1673ffffffffffffffffffffffffffffffffffffffff168152602001908152602001600020549050919050565b6060600180546112079061318e565b80601f01602080910402602001604051908101604052809291908181526020018280546112339061318e565b80156112805780601f1061125557610100808354040283529160200191611280565b820191906000526020600020905b81548152906001019060200180831161126357829003601f168201915b5050505050905090565b61129c61129561183f565b8383611bc8565b5050565b6000600b600083815260200190815260200160002060010160009054906101000a900473ffffffffffffffffffffffffffffffffffffffff16905033600b600084815260200190815260200160002060020160006101000a81548173ffffffffffffffffffffffffffffffffffffffff021916908373ffffffffffffffffffffffffffffffffffffffff1602179055506001600b600084815260200190815260200160002060040160006101000a81548160ff0219169083151502179055506000600b600084815260200190815260200160002060010160006101000a81548173ffffffffffffffffffffffffffffffffffffffff021916908373ffffffffffffffffffffffffffffffffffffffff1602179055506113cb600160085461174e90919063ffffffff16565b6008819055506113dc303384611d37565b600a60009054906101000a900473ffffffffffffffffffffffffffffffffffffffff1673ffffffffffffffffffffffffffffffffffffffff166108fc6009549081150290604051600060405180830381858888f19350505050158015611446573d6000803e3d6000fd5b508073ffffffffffffffffffffffffffffffffffffffff166108fc349081150290604051600060405180830381858888f1935050505015801561148d573d6000803e3d6000fd5b505050565b61149d848484610b7b565b6114b16114a861183f565b85858585611ea4565b50505050565b60606114c28261177a565b5060006006600084815260200190815260200160002080546114e39061318e565b80601f016020809104026020016040519081016040528092919081815260200182805461150f9061318e565b801561155c5780601f106115315761010080835404028352916020019161155c565b820191906000526020600020905b81548152906001019060200180831161153f57829003601f168201915b50505050509050600061156d612055565b905060008151036115825781925050506115c5565b6000825111156115b757808260405160200161159f929190613340565b604051602081830303815290604052925050506115c5565b6115c08461206c565b925050505b919050565b6000600560008473ffffffffffffffffffffffffffffffffffffffff1673ffffffffffffffffffffffffffffffffffffffff16815260200190815260200160002060008373ffffffffffffffffffffffffffffffffffffffff1673ffffffffffffffffffffffffffffffffffffffff16815260200190815260200160002060009054906101000a900460ff16905092915050565b61166882826120d5565b5050565b60007f80ac58cd000000000000000000000000000000000000000000000000000000007bffffffffffffffffffffffffffffffffffffffffffffffffffffffff1916827bffffffffffffffffffffffffffffffffffffffffffffffffffffffff1916148061173757507f5b5e139f000000000000000000000000000000000000000000000000000000007bffffffffffffffffffffffffffffffffffffffffffffffffffffffff1916827bffffffffffffffffffffffffffffffffffffffffffffffffffffffff1916145b80611747575061174682612294565b5b9050919050565b600080828461175d9190613222565b9050838110156117705761176f613364565b5b8091505092915050565b600080611786836122fe565b9050600073ffffffffffffffffffffffffffffffffffffffff168173ffffffffffffffffffffffffffffffffffffffff16036117f957826040517f7e2732890000000000000000000000000000000000000000000000000000000081526004016117f09190612d36565b60405180910390fd5b80915050919050565b60006004600083815260200190815260200160002060009054906101000a900473ffffffffffffffffffffffffffffffffffffffff169050919050565b600033905090565b611854838383600161233b565b505050565b600080611865846122fe565b9050600073ffffffffffffffffffffffffffffffffffffffff168373ffffffffffffffffffffffffffffffffffffffff16146118a7576118a6818486612500565b5b600073ffffffffffffffffffffffffffffffffffffffff168173ffffffffffffffffffffffffffffffffffffffff1614611938576118e960008560008061233b565b6001600360008373ffffffffffffffffffffffffffffffffffffffff1673ffffffffffffffffffffffffffffffffffffffff168152602001908152602001600020600082825403925050819055505b600073ffffffffffffffffffffffffffffffffffffffff168573ffffffffffffffffffffffffffffffffffffffff16146119bb576001600360008773ffffffffffffffffffffffffffffffffffffffff1673ffffffffffffffffffffffffffffffffffffffff168152602001908152602001600020600082825401925050819055505b846002600086815260200190815260200160002060006101000a81548173ffffffffffffffffffffffffffffffffffffffff021916908373ffffffffffffffffffffffffffffffffffffffff160217905550838573ffffffffffffffffffffffffffffffffffffffff168273ffffffffffffffffffffffffffffffffffffffff167fddf252ad1be2c89b69c2b068fc378daa952ba7f163c4a11628f55a4df523b3ef60405160405180910390a4809150509392505050565b600073ffffffffffffffffffffffffffffffffffffffff168273ffffffffffffffffffffffffffffffffffffffff1603611ae55760006040517f64a0ae92000000000000000000000000000000000000000000000000000000008152600401611adc9190612ca0565b60405180910390fd5b6000611af383836000611859565b9050600073ffffffffffffffffffffffffffffffffffffffff168173ffffffffffffffffffffffffffffffffffffffff1614611b675760006040517f73c6ac6e000000000000000000000000000000000000000000000000000000008152600401611b5e9190612ca0565b60405180910390fd5b505050565b80600660008481526020019081526020016000209081611b8c919061353f565b507ff8e1a15aba9398e019f0b49df1a4fde98ee17ae345cb5f6b5e2c27f5033e8ce782604051611bbc9190612d36565b60405180910390a15050565b600073ffffffffffffffffffffffffffffffffffffffff168273ffffffffffffffffffffffffffffffffffffffff1603611c3957816040517f5b08ba18000000000000000000000000000000000000000000000000000000008152600401611c309190612ca0565b60405180910390fd5b80600560008573ffffffffffffffffffffffffffffffffffffffff1673ffffffffffffffffffffffffffffffffffffffff16815260200190815260200160002060008473ffffffffffffffffffffffffffffffffffffffff1673ffffffffffffffffffffffffffffffffffffffff16815260200190815260200160002060006101000a81548160ff0219169083151502179055508173ffffffffffffffffffffffffffffffffffffffff168373ffffffffffffffffffffffffffffffffffffffff167f17307eab39ab6107e8899845ad3d59bd9653f200f220920489ca2b5937696c3183604051611d2a91906129b7565b60405180910390a3505050565b600073ffffffffffffffffffffffffffffffffffffffff168273ffffffffffffffffffffffffffffffffffffffff1603611da95760006040517f64a0ae92000000000000000000000000000000000000000000000000000000008152600401611da09190612ca0565b60405180910390fd5b6000611db783836000611859565b9050600073ffffffffffffffffffffffffffffffffffffffff168173ffffffffffffffffffffffffffffffffffffffff1603611e2a57816040517f7e273289000000000000000000000000000000000000000000000000000000008152600401611e219190612d36565b60405180910390fd5b8373ffffffffffffffffffffffffffffffffffffffff168173ffffffffffffffffffffffffffffffffffffffff1614611e9e578382826040517f64283d7b000000000000000000000000000000000000000000000000000000008152600401611e95939291906132cd565b60405180910390fd5b50505050565b60008373ffffffffffffffffffffffffffffffffffffffff163b111561204e578273ffffffffffffffffffffffffffffffffffffffff1663150b7a02868685856040518563ffffffff1660e01b8152600401611f039493929190613666565b6020604051808303816000875af1925050508015611f3f57506040513d601f19601f82011682018060405250810190611f3c91906136c7565b60015b611fc3573d8060008114611f6f576040519150601f19603f3d011682016040523d82523d6000602084013e611f74565b606091505b506000815103611fbb57836040517f64a0ae92000000000000000000000000000000000000000000000000000000008152600401611fb29190612ca0565b60405180910390fd5b805181602001fd5b63150b7a0260e01b7bffffffffffffffffffffffffffffffffffffffffffffffffffffffff1916817bffffffffffffffffffffffffffffffffffffffffffffffffffffffff19161461204c57836040517f64a0ae920000000000000000000000000000000000000000000000000000000081526004016120439190612ca0565b60405180910390fd5b505b5050505050565b606060405180602001604052806000815250905090565b60606120778261177a565b506000612082612055565b905060008151116120a257604051806020016040528060008152506120cd565b806120ac846125c4565b6040516020016120bd929190613340565b6040516020818303038152906040525b915050919050565b60008111612118576040517f08c379a000000000000000000000000000000000000000000000000000000000815260040161210f90613740565b60405180910390fd5b6040518060a001604052808381526020013373ffffffffffffffffffffffffffffffffffffffff1681526020013073ffffffffffffffffffffffffffffffffffffffff16815260200182815260200160001515815250600b60008481526020019081526020016000206000820151816000015560208201518160010160006101000a81548173ffffffffffffffffffffffffffffffffffffffff021916908373ffffffffffffffffffffffffffffffffffffffff16021790555060408201518160020160006101000a81548173ffffffffffffffffffffffffffffffffffffffff021916908373ffffffffffffffffffffffffffffffffffffffff1602179055506060820151816003015560808201518160040160006101000a81548160ff021916908315150217905550905050612251333084611d37565b817f3cf8eaa46d9accaa9c8e76a1b58ee317d0eac0885fb7635711309f21e5a25fb933308460006040516122889493929190613760565b60405180910390a25050565b60007f01ffc9a7000000000000000000000000000000000000000000000000000000007bffffffffffffffffffffffffffffffffffffffffffffffffffffffff1916827bffffffffffffffffffffffffffffffffffffffffffffffffffffffff1916149050919050565b60006002600083815260200190815260200160002060009054906101000a900473ffffffffffffffffffffffffffffffffffffffff169050919050565b80806123745750600073ffffffffffffffffffffffffffffffffffffffff168273ffffffffffffffffffffffffffffffffffffffff1614155b156124a85760006123848461177a565b9050600073ffffffffffffffffffffffffffffffffffffffff168373ffffffffffffffffffffffffffffffffffffffff16141580156123ef57508273ffffffffffffffffffffffffffffffffffffffff168173ffffffffffffffffffffffffffffffffffffffff1614155b8015612402575061240081846115ca565b155b1561244457826040517fa9fbf51f00000000000000000000000000000000000000000000000000000000815260040161243b9190612ca0565b60405180910390fd5b81156124a657838573ffffffffffffffffffffffffffffffffffffffff168273ffffffffffffffffffffffffffffffffffffffff167f8c5be1e5ebec7d5bd14f71427d1e84f3dd0314c0f7b2291e5b200ac8c7c3b92560405160405180910390a45b505b836004600085815260200190815260200160002060006101000a81548173ffffffffffffffffffffffffffffffffffffffff021916908373ffffffffffffffffffffffffffffffffffffffff16021790555050505050565b61250b838383612692565b6125bf57600073ffffffffffffffffffffffffffffffffffffffff168373ffffffffffffffffffffffffffffffffffffffff160361258057806040517f7e2732890000000000000000000000000000000000000000000000000000000081526004016125779190612d36565b60405180910390fd5b81816040517f177e802f0000000000000000000000000000000000000000000000000000000081526004016125b69291906137a5565b60405180910390fd5b505050565b6060600060016125d384612753565b01905060008167ffffffffffffffff8111156125f2576125f1612dae565b5b6040519080825280601f01601f1916602001820160405280156126245781602001600182028036833780820191505090505b509050600082602001820190505b600115612687578080600190039150507f3031323334353637383961626364656600000000000000000000000000000000600a86061a8153600a858161267b5761267a6137ce565b5b04945060008503612632575b819350505050919050565b60008073ffffffffffffffffffffffffffffffffffffffff168373ffffffffffffffffffffffffffffffffffffffff161415801561274a57508273ffffffffffffffffffffffffffffffffffffffff168473ffffffffffffffffffffffffffffffffffffffff16148061270b575061270a84846115ca565b5b8061274957508273ffffffffffffffffffffffffffffffffffffffff1661273183611802565b73ffffffffffffffffffffffffffffffffffffffff16145b5b90509392505050565b600080600090507a184f03e93ff9f4daa797ed6e38ed64bf6a1f01000000000000000083106127b1577a184f03e93ff9f4daa797ed6e38ed64bf6a1f01000000000000000083816127a7576127a66137ce565b5b0492506040810190505b6d04ee2d6d415b85acef810000000083106127ee576d04ee2d6d415b85acef810000000083816127e4576127e36137ce565b5b0492506020810190505b662386f26fc10000831061281d57662386f26fc100008381612813576128126137ce565b5b0492506010810190505b6305f5e1008310612846576305f5e100838161283c5761283b6137ce565b5b0492506008810190505b612710831061286b576127108381612861576128606137ce565b5b0492506004810190505b6064831061288e5760648381612884576128836137ce565b5b0492506002810190505b600a831061289d576001810190505b80915050919050565b6040518060a0016040528060008152602001600073ffffffffffffffffffffffffffffffffffffffff168152602001600073ffffffffffffffffffffffffffffffffffffffff168152602001600081526020016000151581525090565b6000604051905090565b600080fd5b600080fd5b60007fffffffff0000000000000000000000000000000000000000000000000000000082169050919050565b61294c81612917565b811461295757600080fd5b50565b60008135905061296981612943565b92915050565b6000602082840312156129855761298461290d565b5b60006129938482850161295a565b91505092915050565b60008115159050919050565b6129b18161299c565b82525050565b60006020820190506129cc60008301846129a8565b92915050565b600081519050919050565b600082825260208201905092915050565b60005b83811015612a0c5780820151818401526020810190506129f1565b60008484015250505050565b6000601f19601f8301169050919050565b6000612a34826129d2565b612a3e81856129dd565b9350612a4e8185602086016129ee565b612a5781612a18565b840191505092915050565b60006020820190508181036000830152612a7c8184612a29565b905092915050565b600081519050919050565b600082825260208201905092915050565b6000819050602082019050919050565b6000819050919050565b612ac381612ab0565b82525050565b600073ffffffffffffffffffffffffffffffffffffffff82169050919050565b6000612af482612ac9565b9050919050565b612b0481612ae9565b82525050565b612b138161299c565b82525050565b60a082016000820151612b2f6000850182612aba565b506020820151612b426020850182612afb565b506040820151612b556040850182612afb565b506060820151612b686060850182612aba565b506080820151612b7b6080850182612b0a565b50505050565b6000612b8d8383612b19565b60a08301905092915050565b6000602082019050919050565b6000612bb182612a84565b612bbb8185612a8f565b9350612bc683612aa0565b8060005b83811015612bf7578151612bde8882612b81565b9750612be983612b99565b925050600181019050612bca565b5085935050505092915050565b60006020820190508181036000830152612c1e8184612ba6565b905092915050565b612c2f81612ab0565b8114612c3a57600080fd5b50565b600081359050612c4c81612c26565b92915050565b600060208284031215612c6857612c6761290d565b5b6000612c7684828501612c3d565b91505092915050565b6000612c8a82612ac9565b9050919050565b612c9a81612c7f565b82525050565b6000602082019050612cb56000830184612c91565b92915050565b612cc481612c7f565b8114612ccf57600080fd5b50565b600081359050612ce181612cbb565b92915050565b60008060408385031215612cfe57612cfd61290d565b5b6000612d0c85828601612cd2565b9250506020612d1d85828601612c3d565b9150509250929050565b612d3081612ab0565b82525050565b6000602082019050612d4b6000830184612d27565b92915050565b600080600060608486031215612d6a57612d6961290d565b5b6000612d7886828701612cd2565b9350506020612d8986828701612cd2565b9250506040612d9a86828701612c3d565b9150509250925092565b600080fd5b600080fd5b7f4e487b7100000000000000000000000000000000000000000000000000000000600052604160045260246000fd5b612de682612a18565b810181811067ffffffffffffffff82111715612e0557612e04612dae565b5b80604052505050565b6000612e18612903565b9050612e248282612ddd565b919050565b600067ffffffffffffffff821115612e4457612e43612dae565b5b612e4d82612a18565b9050602081019050919050565b82818337600083830152505050565b6000612e7c612e7784612e29565b612e0e565b905082815260208101848484011115612e9857612e97612da9565b5b612ea3848285612e5a565b509392505050565b600082601f830112612ec057612ebf612da4565b5b8135612ed0848260208601612e69565b91505092915050565b600060208284031215612eef57612eee61290d565b5b600082013567ffffffffffffffff811115612f0d57612f0c612912565b5b612f1984828501612eab565b91505092915050565b600060208284031215612f3857612f3761290d565b5b6000612f4684828501612cd2565b91505092915050565b612f588161299c565b8114612f6357600080fd5b50565b600081359050612f7581612f4f565b92915050565b60008060408385031215612f9257612f9161290d565b5b6000612fa085828601612cd2565b9250506020612fb185828601612f66565b9150509250929050565b600067ffffffffffffffff821115612fd657612fd5612dae565b5b612fdf82612a18565b9050602081019050919050565b6000612fff612ffa84612fbb565b612e0e565b90508281526020810184848401111561301b5761301a612da9565b5b613026848285612e5a565b509392505050565b600082601f83011261304357613042612da4565b5b8135613053848260208601612fec565b91505092915050565b600080600080608085870312156130765761307561290d565b5b600061308487828801612cd2565b945050602061309587828801612cd2565b93505060406130a687828801612c3d565b925050606085013567ffffffffffffffff8111156130c7576130c6612912565b5b6130d38782880161302e565b91505092959194509250565b600080604083850312156130f6576130f561290d565b5b600061310485828601612cd2565b925050602061311585828601612cd2565b9150509250929050565b600080604083850312156131365761313561290d565b5b600061314485828601612c3d565b925050602061315585828601612c3d565b9150509250929050565b7f4e487b7100000000000000000000000000000000000000000000000000000000600052602260045260246000fd5b600060028204905060018216806131a657607f821691505b6020821081036131b9576131b861315f565b5b50919050565b7f4e487b7100000000000000000000000000000000000000000000000000000000600052601160045260246000fd5b60006131f982612ab0565b915061320483612ab0565b925082820390508181111561321c5761321b6131bf565b5b92915050565b600061322d82612ab0565b915061323883612ab0565b92508282019050808211156132505761324f6131bf565b5b92915050565b7f4e487b7100000000000000000000000000000000000000000000000000000000600052603260045260246000fd5b600061329082612ab0565b91507fffffffffffffffffffffffffffffffffffffffffffffffffffffffffffffffff82036132c2576132c16131bf565b5b600182019050919050565b60006060820190506132e26000830186612c91565b6132ef6020830185612d27565b6132fc6040830184612c91565b949350505050565b600081905092915050565b600061331a826129d2565b6133248185613304565b93506133348185602086016129ee565b80840191505092915050565b600061334c828561330f565b9150613358828461330f565b91508190509392505050565b7f4e487b7100000000000000000000000000000000000000000000000000000000600052600160045260246000fd5b60008190508160005260206000209050919050565b60006020601f8301049050919050565b600082821b905092915050565b6000600883026133f57fffffffffffffffffffffffffffffffffffffffffffffffffffffffffffffffff826133b8565b6133ff86836133b8565b95508019841693508086168417925050509392505050565b6000819050919050565b600061343c61343761343284612ab0565b613417565b612ab0565b9050919050565b6000819050919050565b61345683613421565b61346a61346282613443565b8484546133c5565b825550505050565b600090565b61347f613472565b61348a81848461344d565b505050565b5b818110156134ae576134a3600082613477565b600181019050613490565b5050565b601f8211156134f3576134c481613393565b6134cd846133a8565b810160208510156134dc578190505b6134f06134e8856133a8565b83018261348f565b50505b505050565b600082821c905092915050565b6000613516600019846008026134f8565b1980831691505092915050565b600061352f8383613505565b9150826002028217905092915050565b613548826129d2565b67ffffffffffffffff81111561356157613560612dae565b5b61356b825461318e565b6135768282856134b2565b600060209050601f8311600181146135a95760008415613597578287015190505b6135a18582613523565b865550613609565b601f1984166135b786613393565b60005b828110156135df578489015182556001820191506020850194506020810190506135ba565b868310156135fc57848901516135f8601f891682613505565b8355505b6001600288020188555050505b505050505050565b600081519050919050565b600082825260208201905092915050565b600061363882613611565b613642818561361c565b93506136528185602086016129ee565b61365b81612a18565b840191505092915050565b600060808201905061367b6000830187612c91565b6136886020830186612c91565b6136956040830185612d27565b81810360608301526136a7818461362d565b905095945050505050565b6000815190506136c181612943565b92915050565b6000602082840312156136dd576136dc61290d565b5b60006136eb848285016136b2565b91505092915050565b7f5072696365206d757374206265206174206c6561737420312077656900000000600082015250565b600061372a601c836129dd565b9150613735826136f4565b602082019050919050565b600060208201905081810360008301526137598161371d565b9050919050565b60006080820190506137756000830187612c91565b6137826020830186612c91565b61378f6040830185612d27565b61379c60608301846129a8565b95945050505050565b60006040820190506137ba6000830185612c91565b6137c76020830184612d27565b9392505050565b7f4e487b7100000000000000000000000000000000000000000000000000000000600052601260045260246000fdfea264697066735822122094b61147fc201d6bdb05974375878751c1530ba60a193ed3a3d599ad16c8ec8664736f6c63430008140033",
  "linkReferences": {},
  "deployedLinkReferences": {}
}