{
  "_format": "hh-sol-artifact-1",
  "contractName": "NFTplace",
  "sourceName": "contracts/test.sol",
  "abi": [
    {
      "inputs": [],
      "stateMutability": "nonpayable",
      "type": "constructor"
    },
    {
      "inputs": [
        {
          "internalType": "address",
          "name": "sender",
          "type": "address"
        },
        {
          "internalType": "uint256",
          "name": "tokenId",
          "type": "uint256"
        },
        {
          "internalType": "address",
          "name": "owner",
          "type": "address"
        }
      ],
      "name": "ERC721IncorrectOwner",
      "type": "error"
    },
    {
      "inputs": [
        {
          "internalType": "address",
          "name": "operator",
          "type": "address"
        },
        {
          "internalType": "uint256",
          "name": "tokenId",
          "type": "uint256"
        }
      ],
      "name": "ERC721InsufficientApproval",
      "type": "error"
    },
    {
      "inputs": [
        {
          "internalType": "address",
          "name": "approver",
          "type": "address"
        }
      ],
      "name": "ERC721InvalidApprover",
      "type": "error"
    },
    {
      "inputs": [
        {
          "internalType": "address",
          "name": "operator",
          "type": "address"
        }
      ],
      "name": "ERC721InvalidOperator",
      "type": "error"
    },
    {
      "inputs": [
        {
          "internalType": "address",
          "name": "owner",
          "type": "address"
        }
      ],
      "name": "ERC721InvalidOwner",
      "type": "error"
    },
    {
      "inputs": [
        {
          "internalType": "address",
          "name": "receiver",
          "type": "address"
        }
      ],
      "name": "ERC721InvalidReceiver",
      "type": "error"
    },
    {
      "inputs": [
        {
          "internalType": "address",
          "name": "sender",
          "type": "address"
        }
      ],
      "name": "ERC721InvalidSender",
      "type": "error"
    },
    {
      "inputs": [
        {
          "internalType": "uint256",
          "name": "tokenId",
          "type": "uint256"
        }
      ],
      "name": "ERC721NonexistentToken",
      "type": "error"
    },
    {
      "anonymous": false,
      "inputs": [
        {
          "indexed": true,
          "internalType": "address",
          "name": "owner",
          "type": "address"
        },
        {
          "indexed": true,
          "internalType": "address",
          "name": "approved",
          "type": "address"
        },
        {
          "indexed": true,
          "internalType": "uint256",
          "name": "tokenId",
          "type": "uint256"
        }
      ],
      "name": "Approval",
      "type": "event"
    },
    {
      "anonymous": false,
      "inputs": [
        {
          "indexed": true,
          "internalType": "address",
          "name": "owner",
          "type": "address"
        },
        {
          "indexed": true,
          "internalType": "address",
          "name": "operator",
          "type": "address"
        },
        {
          "indexed": false,
          "internalType": "bool",
          "name": "approved",
          "type": "bool"
        }
      ],
      "name": "ApprovalForAll",
      "type": "event"
    },
    {
      "anonymous": false,
      "inputs": [
        {
          "indexed": false,
          "internalType": "uint256",
          "name": "_fromTokenId",
          "type": "uint256"
        },
        {
          "indexed": false,
          "internalType": "uint256",
          "name": "_toTokenId",
          "type": "uint256"
        }
      ],
      "name": "BatchMetadataUpdate",
      "type": "event"
    },
    {
      "anonymous": false,
      "inputs": [
        {
          "indexed": true,
          "internalType": "uint256",
          "name": "tokenId",
          "type": "uint256"
        },
        {
          "indexed": false,
          "internalType": "address",
          "name": "seller",
          "type": "address"
        },
        {
          "indexed": false,
          "internalType": "address",
          "name": "owner",
          "type": "address"
        },
        {
          "indexed": false,
          "internalType": "uint256",
          "name": "price",
          "type": "uint256"
        },
        {
          "indexed": false,
          "internalType": "bool",
          "name": "sold",
          "type": "bool"
        }
      ],
      "name": "ListingCreated",
      "type": "event"
    },
    {
      "anonymous": false,
      "inputs": [
        {
          "indexed": true,
          "internalType": "uint256",
          "name": "tokenId",
          "type": "uint256"
        },
        {
          "indexed": false,
          "internalType": "address",
          "name": "seller",
          "type": "address"
        }
      ],
      "name": "ListingRemoved",
      "type": "event"
    },
    {
      "anonymous": false,
      "inputs": [
        {
          "indexed": false,
          "internalType": "uint256",
          "name": "_tokenId",
          "type": "uint256"
        }
      ],
      "name": "MetadataUpdate",
      "type": "event"
    },
    {
      "anonymous": false,
      "inputs": [
        {
          "indexed": true,
          "internalType": "address",
          "name": "from",
          "type": "address"
        },
        {
          "indexed": true,
          "internalType": "address",
          "name": "to",
          "type": "address"
        },
        {
          "indexed": true,
          "internalType": "uint256",
          "name": "tokenId",
          "type": "uint256"
        }
      ],
      "name": "Transfer",
      "type": "event"
    },
    {
      "inputs": [
        {
          "internalType": "address",
          "name": "to",
          "type": "address"
        },
        {
          "internalType": "uint256",
          "name": "tokenId",
          "type": "uint256"
        }
      ],
      "name": "approve",
      "outputs": [],
      "stateMutability": "nonpayable",
      "type": "function"
    },
    {
      "inputs": [
        {
          "internalType": "address",
          "name": "owner",
          "type": "address"
        }
      ],
      "name": "balanceOf",
      "outputs": [
        {
          "internalType": "uint256",
          "name": "",
          "type": "uint256"
        }
      ],
      "stateMutability": "view",
      "type": "function"
    },
    {
      "inputs": [
        {
          "internalType": "string",
          "name": "tokenURI",
          "type": "string"
        },
        {
          "internalType": "address",
          "name": "recipient",
          "type": "address"
        },
        {
          "internalType": "uint256",
          "name": "cardIndex",
          "type": "uint256"
        }
      ],
      "name": "createToken",
      "outputs": [
        {
          "internalType": "uint256",
          "name": "",
          "type": "uint256"
        }
      ],
      "stateMutability": "payable",
      "type": "function"
    },
    {
      "inputs": [],
      "name": "fetchItemsListed",
      "outputs": [
        {
          "components": [
            {
              "internalType": "uint256",
              "name": "tokenId",
              "type": "uint256"
            },
            {
              "internalType": "address payable",
              "name": "seller",
              "type": "address"
            },
            {
              "internalType": "address payable",
              "name": "owner",
              "type": "address"
            },
            {
              "internalType": "uint256",
              "name": "price",
              "type": "uint256"
            },
            {
              "internalType": "bool",
              "name": "sold",
              "type": "bool"
            },
            {
              "internalType": "uint256",
              "name": "cardIndex",
              "type": "uint256"
            }
          ],
          "internalType": "struct NFTplace.Listing[]",
          "name": "",
          "type": "tuple[]"
        }
      ],
      "stateMutability": "view",
      "type": "function"
    },
    {
      "inputs": [],
      "name": "fetchListingMarketplace",
      "outputs": [
        {
          "components": [
            {
              "internalType": "uint256",
              "name": "tokenId",
              "type": "uint256"
            },
            {
              "internalType": "address payable",
              "name": "seller",
              "type": "address"
            },
            {
              "internalType": "address payable",
              "name": "owner",
              "type": "address"
            },
            {
              "internalType": "uint256",
              "name": "price",
              "type": "uint256"
            },
            {
              "internalType": "bool",
              "name": "sold",
              "type": "bool"
            },
            {
              "internalType": "uint256",
              "name": "cardIndex",
              "type": "uint256"
            }
          ],
          "internalType": "struct NFTplace.Listing[]",
          "name": "",
          "type": "tuple[]"
        }
      ],
      "stateMutability": "view",
      "type": "function"
    },
    {
      "inputs": [],
      "name": "fetchMyNFTs",
      "outputs": [
        {
          "components": [
            {
              "internalType": "uint256",
              "name": "tokenId",
              "type": "uint256"
            },
            {
              "internalType": "address payable",
              "name": "seller",
              "type": "address"
            },
            {
              "internalType": "address payable",
              "name": "owner",
              "type": "address"
            },
            {
              "internalType": "uint256",
              "name": "price",
              "type": "uint256"
            },
            {
              "internalType": "bool",
              "name": "sold",
              "type": "bool"
            },
            {
              "internalType": "uint256",
              "name": "cardIndex",
              "type": "uint256"
            }
          ],
          "internalType": "struct NFTplace.Listing[]",
          "name": "",
          "type": "tuple[]"
        }
      ],
      "stateMutability": "view",
      "type": "function"
    },
    {
      "inputs": [
        {
          "internalType": "uint256",
          "name": "tokenId",
          "type": "uint256"
        }
      ],
      "name": "getApproved",
      "outputs": [
        {
          "internalType": "address",
          "name": "",
          "type": "address"
        }
      ],
      "stateMutability": "view",
      "type": "function"
    },
    {
      "inputs": [],
      "name": "getContractOwner",
      "outputs": [
        {
          "internalType": "address",
          "name": "",
          "type": "address"
        }
      ],
      "stateMutability": "view",
      "type": "function"
    },
    {
      "inputs": [],
      "name": "getListingPrice",
      "outputs": [
        {
          "internalType": "uint256",
          "name": "",
          "type": "uint256"
        }
      ],
      "stateMutability": "view",
      "type": "function"
    },
    {
      "inputs": [
        {
          "internalType": "address",
          "name": "owner",
          "type": "address"
        },
        {
          "internalType": "address",
          "name": "operator",
          "type": "address"
        }
      ],
      "name": "isApprovedForAll",
      "outputs": [
        {
          "internalType": "bool",
          "name": "",
          "type": "bool"
        }
      ],
      "stateMutability": "view",
      "type": "function"
    },
    {
      "inputs": [
        {
          "internalType": "uint256",
          "name": "tokenId",
          "type": "uint256"
        },
        {
          "internalType": "uint256",
          "name": "price",
          "type": "uint256"
        }
      ],
      "name": "listCard",
      "outputs": [],
      "stateMutability": "payable",
      "type": "function"
    },
    {
      "inputs": [],
      "name": "name",
      "outputs": [
        {
          "internalType": "string",
          "name": "",
          "type": "string"
        }
      ],
      "stateMutability": "view",
      "type": "function"
    },
    {
      "inputs": [
        {
          "internalType": "uint256",
          "name": "tokenId",
          "type": "uint256"
        }
      ],
      "name": "ownerOf",
      "outputs": [
        {
          "internalType": "address",
          "name": "",
          "type": "address"
        }
      ],
      "stateMutability": "view",
      "type": "function"
    },
    {
      "inputs": [
        {
          "internalType": "uint256",
          "name": "tokenId",
          "type": "uint256"
        }
      ],
      "name": "purchaseCard",
      "outputs": [],
      "stateMutability": "payable",
      "type": "function"
    },
    {
      "inputs": [
        {
          "internalType": "address",
          "name": "from",
          "type": "address"
        },
        {
          "internalType": "address",
          "name": "to",
          "type": "address"
        },
        {
          "internalType": "uint256",
          "name": "tokenId",
          "type": "uint256"
        }
      ],
      "name": "safeTransferFrom",
      "outputs": [],
      "stateMutability": "nonpayable",
      "type": "function"
    },
    {
      "inputs": [
        {
          "internalType": "address",
          "name": "from",
          "type": "address"
        },
        {
          "internalType": "address",
          "name": "to",
          "type": "address"
        },
        {
          "internalType": "uint256",
          "name": "tokenId",
          "type": "uint256"
        },
        {
          "internalType": "bytes",
          "name": "data",
          "type": "bytes"
        }
      ],
      "name": "safeTransferFrom",
      "outputs": [],
      "stateMutability": "nonpayable",
      "type": "function"
    },
    {
      "inputs": [
        {
          "internalType": "address",
          "name": "operator",
          "type": "address"
        },
        {
          "internalType": "bool",
          "name": "approved",
          "type": "bool"
        }
      ],
      "name": "setApprovalForAll",
      "outputs": [],
      "stateMutability": "nonpayable",
      "type": "function"
    },
    {
      "inputs": [
        {
          "internalType": "bytes4",
          "name": "interfaceId",
          "type": "bytes4"
        }
      ],
      "name": "supportsInterface",
      "outputs": [
        {
          "internalType": "bool",
          "name": "",
          "type": "bool"
        }
      ],
      "stateMutability": "view",
      "type": "function"
    },
    {
      "inputs": [],
      "name": "symbol",
      "outputs": [
        {
          "internalType": "string",
          "name": "",
          "type": "string"
        }
      ],
      "stateMutability": "view",
      "type": "function"
    },
    {
      "inputs": [
        {
          "internalType": "uint256",
          "name": "tokenId",
          "type": "uint256"
        }
      ],
      "name": "tokenURI",
      "outputs": [
        {
          "internalType": "string",
          "name": "",
          "type": "string"
        }
      ],
      "stateMutability": "view",
      "type": "function"
    },
    {
      "inputs": [
        {
          "internalType": "address",
          "name": "from",
          "type": "address"
        },
        {
          "internalType": "address",
          "name": "to",
          "type": "address"
        },
        {
          "internalType": "uint256",
          "name": "tokenId",
          "type": "uint256"
        }
      ],
      "name": "transferFrom",
      "outputs": [],
      "stateMutability": "nonpayable",
      "type": "function"
    }
  ],
  "bytecode": "0x6080604052655af3107a40006009553480156200001b57600080fd5b506040518060400160405280600c81526020017f5a6f6465636b20436172647300000000000000000000000000000000000000008152506040518060400160405280600381526020017f5a444b000000000000000000000000000000000000000000000000000000000081525081600090816200009991906200036f565b508060019081620000ab91906200036f565b50505033600a60006101000a81548173ffffffffffffffffffffffffffffffffffffffff021916908373ffffffffffffffffffffffffffffffffffffffff16021790555062000456565b600081519050919050565b7f4e487b7100000000000000000000000000000000000000000000000000000000600052604160045260246000fd5b7f4e487b7100000000000000000000000000000000000000000000000000000000600052602260045260246000fd5b600060028204905060018216806200017757607f821691505b6020821081036200018d576200018c6200012f565b5b50919050565b60008190508160005260206000209050919050565b60006020601f8301049050919050565b600082821b905092915050565b600060088302620001f77fffffffffffffffffffffffffffffffffffffffffffffffffffffffffffffffff82620001b8565b620002038683620001b8565b95508019841693508086168417925050509392505050565b6000819050919050565b6000819050919050565b6000620002506200024a62000244846200021b565b62000225565b6200021b565b9050919050565b6000819050919050565b6200026c836200022f565b620002846200027b8262000257565b848454620001c5565b825550505050565b600090565b6200029b6200028c565b620002a881848462000261565b505050565b5b81811015620002d057620002c460008262000291565b600181019050620002ae565b5050565b601f8211156200031f57620002e98162000193565b620002f484620001a8565b8101602085101562000304578190505b6200031c6200031385620001a8565b830182620002ad565b50505b505050565b600082821c905092915050565b6000620003446000198460080262000324565b1980831691505092915050565b60006200035f838362000331565b9150826002028217905092915050565b6200037a82620000f5565b67ffffffffffffffff81111562000396576200039562000100565b5b620003a282546200015e565b620003af828285620002d4565b600060209050601f831160018114620003e75760008415620003d2578287015190505b620003de858262000351565b8655506200044e565b601f198416620003f78662000193565b60005b828110156200042157848901518255600182019150602085019450602081019050620003fa565b868310156200044157848901516200043d601f89168262000331565b8355505b6001600288020188555050505b505050505050565b6138ff80620004666000396000f3fe60806040526004361061012a5760003560e01c806345f8fa80116100ab578063a22cb4651161006f578063a22cb465146103fb578063a54447aa14610424578063b88d4fde14610440578063c87b56dd14610469578063e985e9c5146104a6578063ed36c52f146104e35761012a565b806345f8fa80146102fb5780636352211e1461032657806370a082311461036357806373b4df05146103a057806395d89b41146103d05761012a565b806312e85585116100f257806312e8558514610228578063202e37401461025357806323b872dd1461027e57806342842e0e146102a7578063442890d5146102d05761012a565b806301ffc9a71461012f57806306fdde031461016c57806307c11e0d14610197578063081812fc146101c2578063095ea7b3146101ff575b600080fd5b34801561013b57600080fd5b5061015660048036038101906101519190612a02565b6104ff565b6040516101639190612a4a565b60405180910390f35b34801561017857600080fd5b50610181610560565b60405161018e9190612af5565b60405180910390f35b3480156101a357600080fd5b506101ac6105f2565b6040516101b99190612caa565b60405180910390f35b3480156101ce57600080fd5b506101e960048036038101906101e49190612cf8565b610843565b6040516101f69190612d46565b60405180910390f35b34801561020b57600080fd5b5061022660048036038101906102219190612d8d565b61085f565b005b34801561023457600080fd5b5061023d610875565b60405161024a9190612ddc565b60405180910390f35b34801561025f57600080fd5b5061026861087f565b6040516102759190612caa565b60405180910390f35b34801561028a57600080fd5b506102a560048036038101906102a09190612df7565b610b7c565b005b3480156102b357600080fd5b506102ce60048036038101906102c99190612df7565b610c7e565b005b3480156102dc57600080fd5b506102e5610c9e565b6040516102f29190612d46565b60405180910390f35b34801561030757600080fd5b50610310610cc8565b60405161031d9190612caa565b60405180910390f35b34801561033257600080fd5b5061034d60048036038101906103489190612cf8565b610fc5565b60405161035a9190612d46565b60405180910390f35b34801561036f57600080fd5b5061038a60048036038101906103859190612e4a565b610fd7565b6040516103979190612ddc565b60405180910390f35b6103ba60048036038101906103b59190612fac565b611091565b6040516103c79190612ddc565b60405180910390f35b3480156103dc57600080fd5b506103e5611215565b6040516103f29190612af5565b60405180910390f35b34801561040757600080fd5b50610422600480360381019061041d9190613047565b6112a7565b005b61043e60048036038101906104399190612cf8565b6112bd565b005b34801561044c57600080fd5b5061046760048036038101906104629190613128565b6114af565b005b34801561047557600080fd5b50610490600480360381019061048b9190612cf8565b6114d4565b60405161049d9190612af5565b60405180910390f35b3480156104b257600080fd5b506104cd60048036038101906104c891906131ab565b6115e7565b6040516104da9190612a4a565b60405180910390f35b6104fd60048036038101906104f891906131eb565b61167b565b005b6000634906490660e01b7bffffffffffffffffffffffffffffffffffffffffffffffffffffffff1916827bffffffffffffffffffffffffffffffffffffffffffffffffffffffff19161480610559575061055882611689565b5b9050919050565b60606000805461056f9061325a565b80601f016020809104026020016040519081016040528092919081815260200182805461059b9061325a565b80156105e85780601f106105bd576101008083540402835291602001916105e8565b820191906000526020600020905b8154815290600101906020018083116105cb57829003601f168201915b5050505050905090565b60606000600754905060008060085467ffffffffffffffff81111561061a57610619612e81565b5b60405190808252806020026020018201604052801561065357816020015b610640612932565b8152602001906001900390816106385790505b50905060005b83811015610839573073ffffffffffffffffffffffffffffffffffffffff16600b600060018461068991906132ba565b815260200190815260200160002060020160009054906101000a900473ffffffffffffffffffffffffffffffffffffffff1673ffffffffffffffffffffffffffffffffffffffff16036108265760006001826106e591906132ba565b90506000600b60008381526020019081526020016000209050806040518060c0016040529081600082015481526020016001820160009054906101000a900473ffffffffffffffffffffffffffffffffffffffff1673ffffffffffffffffffffffffffffffffffffffff1673ffffffffffffffffffffffffffffffffffffffff1681526020016002820160009054906101000a900473ffffffffffffffffffffffffffffffffffffffff1673ffffffffffffffffffffffffffffffffffffffff1673ffffffffffffffffffffffffffffffffffffffff168152602001600382015481526020016004820160009054906101000a900460ff16151515158152602001600582015481525050848681518110610802576108016132ee565b5b602002602001018190525061082160018661176b90919063ffffffff16565b945050505b80806108319061331d565b915050610659565b5080935050505090565b600061084e82611797565b506108588261181f565b9050919050565b610871828261086c61185c565b611864565b5050565b6000600954905090565b60606000600754905060008060005b83811015610935573373ffffffffffffffffffffffffffffffffffffffff16600b60006001846108be91906132ba565b815260200190815260200160002060020160009054906101000a900473ffffffffffffffffffffffffffffffffffffffff1673ffffffffffffffffffffffffffffffffffffffff16036109225761091f60018461176b90919063ffffffff16565b92505b808061092d9061331d565b91505061088e565b5060008267ffffffffffffffff81111561095257610951612e81565b5b60405190808252806020026020018201604052801561098b57816020015b610978612932565b8152602001906001900390816109705790505b50905060005b84811015610b71573373ffffffffffffffffffffffffffffffffffffffff16600b60006001846109c191906132ba565b815260200190815260200160002060020160009054906101000a900473ffffffffffffffffffffffffffffffffffffffff1673ffffffffffffffffffffffffffffffffffffffff1603610b5e576000600182610a1d91906132ba565b90506000600b60008381526020019081526020016000209050806040518060c0016040529081600082015481526020016001820160009054906101000a900473ffffffffffffffffffffffffffffffffffffffff1673ffffffffffffffffffffffffffffffffffffffff1673ffffffffffffffffffffffffffffffffffffffff1681526020016002820160009054906101000a900473ffffffffffffffffffffffffffffffffffffffff1673ffffffffffffffffffffffffffffffffffffffff1673ffffffffffffffffffffffffffffffffffffffff168152602001600382015481526020016004820160009054906101000a900460ff16151515158152602001600582015481525050848681518110610b3a57610b396132ee565b5b6020026020010181905250610b5960018661176b90919063ffffffff16565b945050505b8080610b699061331d565b915050610991565b508094505050505090565b600073ffffffffffffffffffffffffffffffffffffffff168273ffffffffffffffffffffffffffffffffffffffff1603610bee5760006040517f64a0ae92000000000000000000000000000000000000000000000000000000008152600401610be59190612d46565b60405180910390fd5b6000610c028383610bfd61185c565b611876565b90508373ffffffffffffffffffffffffffffffffffffffff168173ffffffffffffffffffffffffffffffffffffffff1614610c78578382826040517f64283d7b000000000000000000000000000000000000000000000000000000008152600401610c6f93929190613365565b60405180910390fd5b50505050565b610c99838383604051806020016040528060008152506114af565b505050565b6000600a60009054906101000a900473ffffffffffffffffffffffffffffffffffffffff16905090565b60606000600754905060008060005b83811015610d7e573373ffffffffffffffffffffffffffffffffffffffff16600b6000600184610d0791906132ba565b815260200190815260200160002060010160009054906101000a900473ffffffffffffffffffffffffffffffffffffffff1673ffffffffffffffffffffffffffffffffffffffff1603610d6b57610d6860018461176b90919063ffffffff16565b92505b8080610d769061331d565b915050610cd7565b5060008267ffffffffffffffff811115610d9b57610d9a612e81565b5b604051908082528060200260200182016040528015610dd457816020015b610dc1612932565b815260200190600190039081610db95790505b50905060005b84811015610fba573373ffffffffffffffffffffffffffffffffffffffff16600b6000600184610e0a91906132ba565b815260200190815260200160002060010160009054906101000a900473ffffffffffffffffffffffffffffffffffffffff1673ffffffffffffffffffffffffffffffffffffffff1603610fa7576000600182610e6691906132ba565b90506000600b60008381526020019081526020016000209050806040518060c0016040529081600082015481526020016001820160009054906101000a900473ffffffffffffffffffffffffffffffffffffffff1673ffffffffffffffffffffffffffffffffffffffff1673ffffffffffffffffffffffffffffffffffffffff1681526020016002820160009054906101000a900473ffffffffffffffffffffffffffffffffffffffff1673ffffffffffffffffffffffffffffffffffffffff1673ffffffffffffffffffffffffffffffffffffffff168152602001600382015481526020016004820160009054906101000a900460ff16151515158152602001600582015481525050848681518110610f8357610f826132ee565b5b6020026020010181905250610fa260018661176b90919063ffffffff16565b945050505b8080610fb29061331d565b915050610dda565b508094505050505090565b6000610fd082611797565b9050919050565b60008073ffffffffffffffffffffffffffffffffffffffff168273ffffffffffffffffffffffffffffffffffffffff160361104a5760006040517f89c62b640000000000000000000000000000000000000000000000000000000081526004016110419190612d46565b60405180910390fd5b600360008373ffffffffffffffffffffffffffffffffffffffff1673ffffffffffffffffffffffffffffffffffffffff168152602001908152602001600020549050919050565b60006110a9600160075461176b90919063ffffffff16565b600781905550600060075490506110c08482611a90565b6110ca8186611b89565b6040518060c00160405280828152602001600073ffffffffffffffffffffffffffffffffffffffff1681526020018573ffffffffffffffffffffffffffffffffffffffff1681526020016000815260200160011515815260200184815250600b60008381526020019081526020016000206000820151816000015560208201518160010160006101000a81548173ffffffffffffffffffffffffffffffffffffffff021916908373ffffffffffffffffffffffffffffffffffffffff16021790555060408201518160020160006101000a81548173ffffffffffffffffffffffffffffffffffffffff021916908373ffffffffffffffffffffffffffffffffffffffff1602179055506060820151816003015560808201518160040160006101000a81548160ff02191690831515021790555060a08201518160050155905050809150509392505050565b6060600180546112249061325a565b80601f01602080910402602001604051908101604052809291908181526020018280546112509061325a565b801561129d5780601f106112725761010080835404028352916020019161129d565b820191906000526020600020905b81548152906001019060200180831161128057829003601f168201915b5050505050905090565b6112b96112b261185c565b8383611be5565b5050565b6000600b600083815260200190815260200160002060010160009054906101000a900473ffffffffffffffffffffffffffffffffffffffff16905033600b600084815260200190815260200160002060020160006101000a81548173ffffffffffffffffffffffffffffffffffffffff021916908373ffffffffffffffffffffffffffffffffffffffff1602179055506001600b600084815260200190815260200160002060040160006101000a81548160ff0219169083151502179055506000600b600084815260200190815260200160002060010160006101000a81548173ffffffffffffffffffffffffffffffffffffffff021916908373ffffffffffffffffffffffffffffffffffffffff1602179055506113e86001600854611d5490919063ffffffff16565b6008819055506113f9303384611d7b565b600a60009054906101000a900473ffffffffffffffffffffffffffffffffffffffff1673ffffffffffffffffffffffffffffffffffffffff166108fc6009549081150290604051600060405180830381858888f19350505050158015611463573d6000803e3d6000fd5b508073ffffffffffffffffffffffffffffffffffffffff166108fc349081150290604051600060405180830381858888f193505050501580156114aa573d6000803e3d6000fd5b505050565b6114ba848484610b7c565b6114ce6114c561185c565b85858585611ee8565b50505050565b60606114df82611797565b5060006006600084815260200190815260200160002080546115009061325a565b80601f016020809104026020016040519081016040528092919081815260200182805461152c9061325a565b80156115795780601f1061154e57610100808354040283529160200191611579565b820191906000526020600020905b81548152906001019060200180831161155c57829003601f168201915b50505050509050600061158a612099565b9050600081510361159f5781925050506115e2565b6000825111156115d45780826040516020016115bc9291906133d8565b604051602081830303815290604052925050506115e2565b6115dd846120b0565b925050505b919050565b6000600560008473ffffffffffffffffffffffffffffffffffffffff1673ffffffffffffffffffffffffffffffffffffffff16815260200190815260200160002060008373ffffffffffffffffffffffffffffffffffffffff1673ffffffffffffffffffffffffffffffffffffffff16815260200190815260200160002060009054906101000a900460ff16905092915050565b6116858282612119565b5050565b60007f80ac58cd000000000000000000000000000000000000000000000000000000007bffffffffffffffffffffffffffffffffffffffffffffffffffffffff1916827bffffffffffffffffffffffffffffffffffffffffffffffffffffffff1916148061175457507f5b5e139f000000000000000000000000000000000000000000000000000000007bffffffffffffffffffffffffffffffffffffffffffffffffffffffff1916827bffffffffffffffffffffffffffffffffffffffffffffffffffffffff1916145b80611764575061176382612320565b5b9050919050565b600080828461177a91906132ba565b90508381101561178d5761178c6133fc565b5b8091505092915050565b6000806117a38361238a565b9050600073ffffffffffffffffffffffffffffffffffffffff168173ffffffffffffffffffffffffffffffffffffffff160361181657826040517f7e27328900000000000000000000000000000000000000000000000000000000815260040161180d9190612ddc565b60405180910390fd5b80915050919050565b60006004600083815260200190815260200160002060009054906101000a900473ffffffffffffffffffffffffffffffffffffffff169050919050565b600033905090565b61187183838360016123c7565b505050565b6000806118828461238a565b9050600073ffffffffffffffffffffffffffffffffffffffff168373ffffffffffffffffffffffffffffffffffffffff16146118c4576118c381848661258c565b5b600073ffffffffffffffffffffffffffffffffffffffff168173ffffffffffffffffffffffffffffffffffffffff1614611955576119066000856000806123c7565b6001600360008373ffffffffffffffffffffffffffffffffffffffff1673ffffffffffffffffffffffffffffffffffffffff168152602001908152602001600020600082825403925050819055505b600073ffffffffffffffffffffffffffffffffffffffff168573ffffffffffffffffffffffffffffffffffffffff16146119d8576001600360008773ffffffffffffffffffffffffffffffffffffffff1673ffffffffffffffffffffffffffffffffffffffff168152602001908152602001600020600082825401925050819055505b846002600086815260200190815260200160002060006101000a81548173ffffffffffffffffffffffffffffffffffffffff021916908373ffffffffffffffffffffffffffffffffffffffff160217905550838573ffffffffffffffffffffffffffffffffffffffff168273ffffffffffffffffffffffffffffffffffffffff167fddf252ad1be2c89b69c2b068fc378daa952ba7f163c4a11628f55a4df523b3ef60405160405180910390a4809150509392505050565b600073ffffffffffffffffffffffffffffffffffffffff168273ffffffffffffffffffffffffffffffffffffffff1603611b025760006040517f64a0ae92000000000000000000000000000000000000000000000000000000008152600401611af99190612d46565b60405180910390fd5b6000611b1083836000611876565b9050600073ffffffffffffffffffffffffffffffffffffffff168173ffffffffffffffffffffffffffffffffffffffff1614611b845760006040517f73c6ac6e000000000000000000000000000000000000000000000000000000008152600401611b7b9190612d46565b60405180910390fd5b505050565b80600660008481526020019081526020016000209081611ba991906135d7565b507ff8e1a15aba9398e019f0b49df1a4fde98ee17ae345cb5f6b5e2c27f5033e8ce782604051611bd99190612ddc565b60405180910390a15050565b600073ffffffffffffffffffffffffffffffffffffffff168273ffffffffffffffffffffffffffffffffffffffff1603611c5657816040517f5b08ba18000000000000000000000000000000000000000000000000000000008152600401611c4d9190612d46565b60405180910390fd5b80600560008573ffffffffffffffffffffffffffffffffffffffff1673ffffffffffffffffffffffffffffffffffffffff16815260200190815260200160002060008473ffffffffffffffffffffffffffffffffffffffff1673ffffffffffffffffffffffffffffffffffffffff16815260200190815260200160002060006101000a81548160ff0219169083151502179055508173ffffffffffffffffffffffffffffffffffffffff168373ffffffffffffffffffffffffffffffffffffffff167f17307eab39ab6107e8899845ad3d59bd9653f200f220920489ca2b5937696c3183604051611d479190612a4a565b60405180910390a3505050565b600082821115611d6757611d666133fc565b5b8183611d7391906136a9565b905092915050565b600073ffffffffffffffffffffffffffffffffffffffff168273ffffffffffffffffffffffffffffffffffffffff1603611ded5760006040517f64a0ae92000000000000000000000000000000000000000000000000000000008152600401611de49190612d46565b60405180910390fd5b6000611dfb83836000611876565b9050600073ffffffffffffffffffffffffffffffffffffffff168173ffffffffffffffffffffffffffffffffffffffff1603611e6e57816040517f7e273289000000000000000000000000000000000000000000000000000000008152600401611e659190612ddc565b60405180910390fd5b8373ffffffffffffffffffffffffffffffffffffffff168173ffffffffffffffffffffffffffffffffffffffff1614611ee2578382826040517f64283d7b000000000000000000000000000000000000000000000000000000008152600401611ed993929190613365565b60405180910390fd5b50505050565b60008373ffffffffffffffffffffffffffffffffffffffff163b1115612092578273ffffffffffffffffffffffffffffffffffffffff1663150b7a02868685856040518563ffffffff1660e01b8152600401611f479493929190613732565b6020604051808303816000875af1925050508015611f8357506040513d601f19601f82011682018060405250810190611f809190613793565b60015b612007573d8060008114611fb3576040519150601f19603f3d011682016040523d82523d6000602084013e611fb8565b606091505b506000815103611fff57836040517f64a0ae92000000000000000000000000000000000000000000000000000000008152600401611ff69190612d46565b60405180910390fd5b805181602001fd5b63150b7a0260e01b7bffffffffffffffffffffffffffffffffffffffffffffffffffffffff1916817bffffffffffffffffffffffffffffffffffffffffffffffffffffffff19161461209057836040517f64a0ae920000000000000000000000000000000000000000000000000000000081526004016120879190612d46565b60405180910390fd5b505b5050505050565b606060405180602001604052806000815250905090565b60606120bb82611797565b5060006120c6612099565b905060008151116120e65760405180602001604052806000815250612111565b806120f084612650565b6040516020016121019291906133d8565b6040516020818303038152906040525b915050919050565b6000811161215c576040517f08c379a00000000000000000000000000000000000000000000000000000000081526004016121539061380c565b60405180910390fd5b612172600160085461176b90919063ffffffff16565b6008819055506000600b60008481526020019081526020016000206005015490506040518060c001604052808481526020013373ffffffffffffffffffffffffffffffffffffffff1681526020013073ffffffffffffffffffffffffffffffffffffffff16815260200183815260200160001515815260200182815250600b60008581526020019081526020016000206000820151816000015560208201518160010160006101000a81548173ffffffffffffffffffffffffffffffffffffffff021916908373ffffffffffffffffffffffffffffffffffffffff16021790555060408201518160020160006101000a81548173ffffffffffffffffffffffffffffffffffffffff021916908373ffffffffffffffffffffffffffffffffffffffff1602179055506060820151816003015560808201518160040160006101000a81548160ff02191690831515021790555060a082015181600501559050506122dc333085611d7b565b827f3cf8eaa46d9accaa9c8e76a1b58ee317d0eac0885fb7635711309f21e5a25fb93330856000604051612313949392919061382c565b60405180910390a2505050565b60007f01ffc9a7000000000000000000000000000000000000000000000000000000007bffffffffffffffffffffffffffffffffffffffffffffffffffffffff1916827bffffffffffffffffffffffffffffffffffffffffffffffffffffffff1916149050919050565b60006002600083815260200190815260200160002060009054906101000a900473ffffffffffffffffffffffffffffffffffffffff169050919050565b80806124005750600073ffffffffffffffffffffffffffffffffffffffff168273ffffffffffffffffffffffffffffffffffffffff1614155b1561253457600061241084611797565b9050600073ffffffffffffffffffffffffffffffffffffffff168373ffffffffffffffffffffffffffffffffffffffff161415801561247b57508273ffffffffffffffffffffffffffffffffffffffff168173ffffffffffffffffffffffffffffffffffffffff1614155b801561248e575061248c81846115e7565b155b156124d057826040517fa9fbf51f0000000000000000000000000000000000000000000000000000000081526004016124c79190612d46565b60405180910390fd5b811561253257838573ffffffffffffffffffffffffffffffffffffffff168273ffffffffffffffffffffffffffffffffffffffff167f8c5be1e5ebec7d5bd14f71427d1e84f3dd0314c0f7b2291e5b200ac8c7c3b92560405160405180910390a45b505b836004600085815260200190815260200160002060006101000a81548173ffffffffffffffffffffffffffffffffffffffff021916908373ffffffffffffffffffffffffffffffffffffffff16021790555050505050565b61259783838361271e565b61264b57600073ffffffffffffffffffffffffffffffffffffffff168373ffffffffffffffffffffffffffffffffffffffff160361260c57806040517f7e2732890000000000000000000000000000000000000000000000000000000081526004016126039190612ddc565b60405180910390fd5b81816040517f177e802f000000000000000000000000000000000000000000000000000000008152600401612642929190613871565b60405180910390fd5b505050565b60606000600161265f846127df565b01905060008167ffffffffffffffff81111561267e5761267d612e81565b5b6040519080825280601f01601f1916602001820160405280156126b05781602001600182028036833780820191505090505b509050600082602001820190505b600115612713578080600190039150507f3031323334353637383961626364656600000000000000000000000000000000600a86061a8153600a85816127075761270661389a565b5b049450600085036126be575b819350505050919050565b60008073ffffffffffffffffffffffffffffffffffffffff168373ffffffffffffffffffffffffffffffffffffffff16141580156127d657508273ffffffffffffffffffffffffffffffffffffffff168473ffffffffffffffffffffffffffffffffffffffff161480612797575061279684846115e7565b5b806127d557508273ffffffffffffffffffffffffffffffffffffffff166127bd8361181f565b73ffffffffffffffffffffffffffffffffffffffff16145b5b90509392505050565b600080600090507a184f03e93ff9f4daa797ed6e38ed64bf6a1f010000000000000000831061283d577a184f03e93ff9f4daa797ed6e38ed64bf6a1f01000000000000000083816128335761283261389a565b5b0492506040810190505b6d04ee2d6d415b85acef8100000000831061287a576d04ee2d6d415b85acef810000000083816128705761286f61389a565b5b0492506020810190505b662386f26fc1000083106128a957662386f26fc10000838161289f5761289e61389a565b5b0492506010810190505b6305f5e10083106128d2576305f5e10083816128c8576128c761389a565b5b0492506008810190505b61271083106128f75761271083816128ed576128ec61389a565b5b0492506004810190505b6064831061291a57606483816129105761290f61389a565b5b0492506002810190505b600a8310612929576001810190505b80915050919050565b6040518060c0016040528060008152602001600073ffffffffffffffffffffffffffffffffffffffff168152602001600073ffffffffffffffffffffffffffffffffffffffff16815260200160008152602001600015158152602001600081525090565b6000604051905090565b600080fd5b600080fd5b60007fffffffff0000000000000000000000000000000000000000000000000000000082169050919050565b6129df816129aa565b81146129ea57600080fd5b50565b6000813590506129fc816129d6565b92915050565b600060208284031215612a1857612a176129a0565b5b6000612a26848285016129ed565b91505092915050565b60008115159050919050565b612a4481612a2f565b82525050565b6000602082019050612a5f6000830184612a3b565b92915050565b600081519050919050565b600082825260208201905092915050565b60005b83811015612a9f578082015181840152602081019050612a84565b60008484015250505050565b6000601f19601f8301169050919050565b6000612ac782612a65565b612ad18185612a70565b9350612ae1818560208601612a81565b612aea81612aab565b840191505092915050565b60006020820190508181036000830152612b0f8184612abc565b905092915050565b600081519050919050565b600082825260208201905092915050565b6000819050602082019050919050565b6000819050919050565b612b5681612b43565b82525050565b600073ffffffffffffffffffffffffffffffffffffffff82169050919050565b6000612b8782612b5c565b9050919050565b612b9781612b7c565b82525050565b612ba681612a2f565b82525050565b60c082016000820151612bc26000850182612b4d565b506020820151612bd56020850182612b8e565b506040820151612be86040850182612b8e565b506060820151612bfb6060850182612b4d565b506080820151612c0e6080850182612b9d565b5060a0820151612c2160a0850182612b4d565b50505050565b6000612c338383612bac565b60c08301905092915050565b6000602082019050919050565b6000612c5782612b17565b612c618185612b22565b9350612c6c83612b33565b8060005b83811015612c9d578151612c848882612c27565b9750612c8f83612c3f565b925050600181019050612c70565b5085935050505092915050565b60006020820190508181036000830152612cc48184612c4c565b905092915050565b612cd581612b43565b8114612ce057600080fd5b50565b600081359050612cf281612ccc565b92915050565b600060208284031215612d0e57612d0d6129a0565b5b6000612d1c84828501612ce3565b91505092915050565b6000612d3082612b5c565b9050919050565b612d4081612d25565b82525050565b6000602082019050612d5b6000830184612d37565b92915050565b612d6a81612d25565b8114612d7557600080fd5b50565b600081359050612d8781612d61565b92915050565b60008060408385031215612da457612da36129a0565b5b6000612db285828601612d78565b9250506020612dc385828601612ce3565b9150509250929050565b612dd681612b43565b82525050565b6000602082019050612df16000830184612dcd565b92915050565b600080600060608486031215612e1057612e0f6129a0565b5b6000612e1e86828701612d78565b9350506020612e2f86828701612d78565b9250506040612e4086828701612ce3565b9150509250925092565b600060208284031215612e6057612e5f6129a0565b5b6000612e6e84828501612d78565b91505092915050565b600080fd5b600080fd5b7f4e487b7100000000000000000000000000000000000000000000000000000000600052604160045260246000fd5b612eb982612aab565b810181811067ffffffffffffffff82111715612ed857612ed7612e81565b5b80604052505050565b6000612eeb612996565b9050612ef78282612eb0565b919050565b600067ffffffffffffffff821115612f1757612f16612e81565b5b612f2082612aab565b9050602081019050919050565b82818337600083830152505050565b6000612f4f612f4a84612efc565b612ee1565b905082815260208101848484011115612f6b57612f6a612e7c565b5b612f76848285612f2d565b509392505050565b600082601f830112612f9357612f92612e77565b5b8135612fa3848260208601612f3c565b91505092915050565b600080600060608486031215612fc557612fc46129a0565b5b600084013567ffffffffffffffff811115612fe357612fe26129a5565b5b612fef86828701612f7e565b935050602061300086828701612d78565b925050604061301186828701612ce3565b9150509250925092565b61302481612a2f565b811461302f57600080fd5b50565b6000813590506130418161301b565b92915050565b6000806040838503121561305e5761305d6129a0565b5b600061306c85828601612d78565b925050602061307d85828601613032565b9150509250929050565b600067ffffffffffffffff8211156130a2576130a1612e81565b5b6130ab82612aab565b9050602081019050919050565b60006130cb6130c684613087565b612ee1565b9050828152602081018484840111156130e7576130e6612e7c565b5b6130f2848285612f2d565b509392505050565b600082601f83011261310f5761310e612e77565b5b813561311f8482602086016130b8565b91505092915050565b60008060008060808587031215613142576131416129a0565b5b600061315087828801612d78565b945050602061316187828801612d78565b935050604061317287828801612ce3565b925050606085013567ffffffffffffffff811115613193576131926129a5565b5b61319f878288016130fa565b91505092959194509250565b600080604083850312156131c2576131c16129a0565b5b60006131d085828601612d78565b92505060206131e185828601612d78565b9150509250929050565b60008060408385031215613202576132016129a0565b5b600061321085828601612ce3565b925050602061322185828601612ce3565b9150509250929050565b7f4e487b7100000000000000000000000000000000000000000000000000000000600052602260045260246000fd5b6000600282049050600182168061327257607f821691505b6020821081036132855761328461322b565b5b50919050565b7f4e487b7100000000000000000000000000000000000000000000000000000000600052601160045260246000fd5b60006132c582612b43565b91506132d083612b43565b92508282019050808211156132e8576132e761328b565b5b92915050565b7f4e487b7100000000000000000000000000000000000000000000000000000000600052603260045260246000fd5b600061332882612b43565b91507fffffffffffffffffffffffffffffffffffffffffffffffffffffffffffffffff820361335a5761335961328b565b5b600182019050919050565b600060608201905061337a6000830186612d37565b6133876020830185612dcd565b6133946040830184612d37565b949350505050565b600081905092915050565b60006133b282612a65565b6133bc818561339c565b93506133cc818560208601612a81565b80840191505092915050565b60006133e482856133a7565b91506133f082846133a7565b91508190509392505050565b7f4e487b7100000000000000000000000000000000000000000000000000000000600052600160045260246000fd5b60008190508160005260206000209050919050565b60006020601f8301049050919050565b600082821b905092915050565b60006008830261348d7fffffffffffffffffffffffffffffffffffffffffffffffffffffffffffffffff82613450565b6134978683613450565b95508019841693508086168417925050509392505050565b6000819050919050565b60006134d46134cf6134ca84612b43565b6134af565b612b43565b9050919050565b6000819050919050565b6134ee836134b9565b6135026134fa826134db565b84845461345d565b825550505050565b600090565b61351761350a565b6135228184846134e5565b505050565b5b818110156135465761353b60008261350f565b600181019050613528565b5050565b601f82111561358b5761355c8161342b565b61356584613440565b81016020851015613574578190505b61358861358085613440565b830182613527565b50505b505050565b600082821c905092915050565b60006135ae60001984600802613590565b1980831691505092915050565b60006135c7838361359d565b9150826002028217905092915050565b6135e082612a65565b67ffffffffffffffff8111156135f9576135f8612e81565b5b613603825461325a565b61360e82828561354a565b600060209050601f831160018114613641576000841561362f578287015190505b61363985826135bb565b8655506136a1565b601f19841661364f8661342b565b60005b8281101561367757848901518255600182019150602085019450602081019050613652565b868310156136945784890151613690601f89168261359d565b8355505b6001600288020188555050505b505050505050565b60006136b482612b43565b91506136bf83612b43565b92508282039050818111156136d7576136d661328b565b5b92915050565b600081519050919050565b600082825260208201905092915050565b6000613704826136dd565b61370e81856136e8565b935061371e818560208601612a81565b61372781612aab565b840191505092915050565b60006080820190506137476000830187612d37565b6137546020830186612d37565b6137616040830185612dcd565b818103606083015261377381846136f9565b905095945050505050565b60008151905061378d816129d6565b92915050565b6000602082840312156137a9576137a86129a0565b5b60006137b78482850161377e565b91505092915050565b7f5072696365206d757374206265206174206c6561737420312077656900000000600082015250565b60006137f6601c83612a70565b9150613801826137c0565b602082019050919050565b60006020820190508181036000830152613825816137e9565b9050919050565b60006080820190506138416000830187612d37565b61384e6020830186612d37565b61385b6040830185612dcd565b6138686060830184612a3b565b95945050505050565b60006040820190506138866000830185612d37565b6138936020830184612dcd565b9392505050565b7f4e487b7100000000000000000000000000000000000000000000000000000000600052601260045260246000fdfea26469706673582212205a4e33c03886dd8ca21bac5c5dd9995864fd32d4d99b52fcf17d927e1291cb6264736f6c63430008140033",
  "linkReferences": {},
  "deployedLinkReferences": {}
}