{
  "_format": "hh-sol-artifact-1",
  "contractName": "NFTplace",
  "sourceName": "contracts/test.sol",
  "abi": [
    {
      "inputs": [],
      "stateMutability": "nonpayable",
      "type": "constructor"
    },
    {
      "inputs": [
        {
          "internalType": "address",
          "name": "sender",
          "type": "address"
        },
        {
          "internalType": "uint256",
          "name": "tokenId",
          "type": "uint256"
        },
        {
          "internalType": "address",
          "name": "owner",
          "type": "address"
        }
      ],
      "name": "ERC721IncorrectOwner",
      "type": "error"
    },
    {
      "inputs": [
        {
          "internalType": "address",
          "name": "operator",
          "type": "address"
        },
        {
          "internalType": "uint256",
          "name": "tokenId",
          "type": "uint256"
        }
      ],
      "name": "ERC721InsufficientApproval",
      "type": "error"
    },
    {
      "inputs": [
        {
          "internalType": "address",
          "name": "approver",
          "type": "address"
        }
      ],
      "name": "ERC721InvalidApprover",
      "type": "error"
    },
    {
      "inputs": [
        {
          "internalType": "address",
          "name": "operator",
          "type": "address"
        }
      ],
      "name": "ERC721InvalidOperator",
      "type": "error"
    },
    {
      "inputs": [
        {
          "internalType": "address",
          "name": "owner",
          "type": "address"
        }
      ],
      "name": "ERC721InvalidOwner",
      "type": "error"
    },
    {
      "inputs": [
        {
          "internalType": "address",
          "name": "receiver",
          "type": "address"
        }
      ],
      "name": "ERC721InvalidReceiver",
      "type": "error"
    },
    {
      "inputs": [
        {
          "internalType": "address",
          "name": "sender",
          "type": "address"
        }
      ],
      "name": "ERC721InvalidSender",
      "type": "error"
    },
    {
      "inputs": [
        {
          "internalType": "uint256",
          "name": "tokenId",
          "type": "uint256"
        }
      ],
      "name": "ERC721NonexistentToken",
      "type": "error"
    },
    {
      "anonymous": false,
      "inputs": [
        {
          "indexed": true,
          "internalType": "address",
          "name": "owner",
          "type": "address"
        },
        {
          "indexed": true,
          "internalType": "address",
          "name": "approved",
          "type": "address"
        },
        {
          "indexed": true,
          "internalType": "uint256",
          "name": "tokenId",
          "type": "uint256"
        }
      ],
      "name": "Approval",
      "type": "event"
    },
    {
      "anonymous": false,
      "inputs": [
        {
          "indexed": true,
          "internalType": "address",
          "name": "owner",
          "type": "address"
        },
        {
          "indexed": true,
          "internalType": "address",
          "name": "operator",
          "type": "address"
        },
        {
          "indexed": false,
          "internalType": "bool",
          "name": "approved",
          "type": "bool"
        }
      ],
      "name": "ApprovalForAll",
      "type": "event"
    },
    {
      "anonymous": false,
      "inputs": [
        {
          "indexed": false,
          "internalType": "uint256",
          "name": "_fromTokenId",
          "type": "uint256"
        },
        {
          "indexed": false,
          "internalType": "uint256",
          "name": "_toTokenId",
          "type": "uint256"
        }
      ],
      "name": "BatchMetadataUpdate",
      "type": "event"
    },
    {
      "anonymous": false,
      "inputs": [
        {
          "indexed": true,
          "internalType": "uint256",
          "name": "tokenId",
          "type": "uint256"
        },
        {
          "indexed": false,
          "internalType": "address",
          "name": "seller",
          "type": "address"
        },
        {
          "indexed": false,
          "internalType": "address",
          "name": "owner",
          "type": "address"
        },
        {
          "indexed": false,
          "internalType": "uint256",
          "name": "price",
          "type": "uint256"
        },
        {
          "indexed": false,
          "internalType": "bool",
          "name": "sold",
          "type": "bool"
        }
      ],
      "name": "ListingCreated",
      "type": "event"
    },
    {
      "anonymous": false,
      "inputs": [
        {
          "indexed": true,
          "internalType": "uint256",
          "name": "tokenId",
          "type": "uint256"
        },
        {
          "indexed": false,
          "internalType": "address",
          "name": "seller",
          "type": "address"
        }
      ],
      "name": "ListingRemoved",
      "type": "event"
    },
    {
      "anonymous": false,
      "inputs": [
        {
          "indexed": false,
          "internalType": "uint256",
          "name": "_tokenId",
          "type": "uint256"
        }
      ],
      "name": "MetadataUpdate",
      "type": "event"
    },
    {
      "anonymous": false,
      "inputs": [
        {
          "indexed": true,
          "internalType": "address",
          "name": "from",
          "type": "address"
        },
        {
          "indexed": true,
          "internalType": "address",
          "name": "to",
          "type": "address"
        },
        {
          "indexed": true,
          "internalType": "uint256",
          "name": "tokenId",
          "type": "uint256"
        }
      ],
      "name": "Transfer",
      "type": "event"
    },
    {
      "inputs": [
        {
          "internalType": "address",
          "name": "to",
          "type": "address"
        },
        {
          "internalType": "uint256",
          "name": "tokenId",
          "type": "uint256"
        }
      ],
      "name": "approve",
      "outputs": [],
      "stateMutability": "nonpayable",
      "type": "function"
    },
    {
      "inputs": [
        {
          "internalType": "address",
          "name": "owner",
          "type": "address"
        }
      ],
      "name": "balanceOf",
      "outputs": [
        {
          "internalType": "uint256",
          "name": "",
          "type": "uint256"
        }
      ],
      "stateMutability": "view",
      "type": "function"
    },
    {
      "inputs": [
        {
          "internalType": "string",
          "name": "tokenURI",
          "type": "string"
        }
      ],
      "name": "createToken",
      "outputs": [
        {
          "internalType": "uint256",
          "name": "",
          "type": "uint256"
        }
      ],
      "stateMutability": "payable",
      "type": "function"
    },
    {
      "inputs": [],
      "name": "fetchItemsListed",
      "outputs": [
        {
          "components": [
            {
              "internalType": "uint256",
              "name": "tokenId",
              "type": "uint256"
            },
            {
              "internalType": "address payable",
              "name": "seller",
              "type": "address"
            },
            {
              "internalType": "address payable",
              "name": "owner",
              "type": "address"
            },
            {
              "internalType": "uint256",
              "name": "price",
              "type": "uint256"
            },
            {
              "internalType": "bool",
              "name": "sold",
              "type": "bool"
            }
          ],
          "internalType": "struct NFTplace.Listing[]",
          "name": "",
          "type": "tuple[]"
        }
      ],
      "stateMutability": "view",
      "type": "function"
    },
    {
      "inputs": [],
      "name": "fetchListingMarketplace",
      "outputs": [
        {
          "components": [
            {
              "internalType": "uint256",
              "name": "tokenId",
              "type": "uint256"
            },
            {
              "internalType": "address payable",
              "name": "seller",
              "type": "address"
            },
            {
              "internalType": "address payable",
              "name": "owner",
              "type": "address"
            },
            {
              "internalType": "uint256",
              "name": "price",
              "type": "uint256"
            },
            {
              "internalType": "bool",
              "name": "sold",
              "type": "bool"
            }
          ],
          "internalType": "struct NFTplace.Listing[]",
          "name": "",
          "type": "tuple[]"
        }
      ],
      "stateMutability": "view",
      "type": "function"
    },
    {
      "inputs": [],
      "name": "fetchMyNFTs",
      "outputs": [
        {
          "components": [
            {
              "internalType": "uint256",
              "name": "tokenId",
              "type": "uint256"
            },
            {
              "internalType": "address payable",
              "name": "seller",
              "type": "address"
            },
            {
              "internalType": "address payable",
              "name": "owner",
              "type": "address"
            },
            {
              "internalType": "uint256",
              "name": "price",
              "type": "uint256"
            },
            {
              "internalType": "bool",
              "name": "sold",
              "type": "bool"
            }
          ],
          "internalType": "struct NFTplace.Listing[]",
          "name": "",
          "type": "tuple[]"
        }
      ],
      "stateMutability": "view",
      "type": "function"
    },
    {
      "inputs": [
        {
          "internalType": "uint256",
          "name": "tokenId",
          "type": "uint256"
        }
      ],
      "name": "getApproved",
      "outputs": [
        {
          "internalType": "address",
          "name": "",
          "type": "address"
        }
      ],
      "stateMutability": "view",
      "type": "function"
    },
    {
      "inputs": [],
      "name": "getContractOwner",
      "outputs": [
        {
          "internalType": "address",
          "name": "",
          "type": "address"
        }
      ],
      "stateMutability": "view",
      "type": "function"
    },
    {
      "inputs": [],
      "name": "getListingPrice",
      "outputs": [
        {
          "internalType": "uint256",
          "name": "",
          "type": "uint256"
        }
      ],
      "stateMutability": "view",
      "type": "function"
    },
    {
      "inputs": [
        {
          "internalType": "address",
          "name": "owner",
          "type": "address"
        },
        {
          "internalType": "address",
          "name": "operator",
          "type": "address"
        }
      ],
      "name": "isApprovedForAll",
      "outputs": [
        {
          "internalType": "bool",
          "name": "",
          "type": "bool"
        }
      ],
      "stateMutability": "view",
      "type": "function"
    },
    {
      "inputs": [
        {
          "internalType": "uint256",
          "name": "tokenId",
          "type": "uint256"
        },
        {
          "internalType": "uint256",
          "name": "price",
          "type": "uint256"
        }
      ],
      "name": "listCard",
      "outputs": [],
      "stateMutability": "payable",
      "type": "function"
    },
    {
      "inputs": [],
      "name": "name",
      "outputs": [
        {
          "internalType": "string",
          "name": "",
          "type": "string"
        }
      ],
      "stateMutability": "view",
      "type": "function"
    },
    {
      "inputs": [
        {
          "internalType": "uint256",
          "name": "tokenId",
          "type": "uint256"
        }
      ],
      "name": "ownerOf",
      "outputs": [
        {
          "internalType": "address",
          "name": "",
          "type": "address"
        }
      ],
      "stateMutability": "view",
      "type": "function"
    },
    {
      "inputs": [
        {
          "internalType": "uint256",
          "name": "tokenId",
          "type": "uint256"
        }
      ],
      "name": "purchaseCard",
      "outputs": [],
      "stateMutability": "payable",
      "type": "function"
    },
    {
      "inputs": [
        {
          "internalType": "address",
          "name": "from",
          "type": "address"
        },
        {
          "internalType": "address",
          "name": "to",
          "type": "address"
        },
        {
          "internalType": "uint256",
          "name": "tokenId",
          "type": "uint256"
        }
      ],
      "name": "safeTransferFrom",
      "outputs": [],
      "stateMutability": "nonpayable",
      "type": "function"
    },
    {
      "inputs": [
        {
          "internalType": "address",
          "name": "from",
          "type": "address"
        },
        {
          "internalType": "address",
          "name": "to",
          "type": "address"
        },
        {
          "internalType": "uint256",
          "name": "tokenId",
          "type": "uint256"
        },
        {
          "internalType": "bytes",
          "name": "data",
          "type": "bytes"
        }
      ],
      "name": "safeTransferFrom",
      "outputs": [],
      "stateMutability": "nonpayable",
      "type": "function"
    },
    {
      "inputs": [
        {
          "internalType": "address",
          "name": "operator",
          "type": "address"
        },
        {
          "internalType": "bool",
          "name": "approved",
          "type": "bool"
        }
      ],
      "name": "setApprovalForAll",
      "outputs": [],
      "stateMutability": "nonpayable",
      "type": "function"
    },
    {
      "inputs": [
        {
          "internalType": "bytes4",
          "name": "interfaceId",
          "type": "bytes4"
        }
      ],
      "name": "supportsInterface",
      "outputs": [
        {
          "internalType": "bool",
          "name": "",
          "type": "bool"
        }
      ],
      "stateMutability": "view",
      "type": "function"
    },
    {
      "inputs": [],
      "name": "symbol",
      "outputs": [
        {
          "internalType": "string",
          "name": "",
          "type": "string"
        }
      ],
      "stateMutability": "view",
      "type": "function"
    },
    {
      "inputs": [
        {
          "internalType": "uint256",
          "name": "tokenId",
          "type": "uint256"
        }
      ],
      "name": "tokenURI",
      "outputs": [
        {
          "internalType": "string",
          "name": "",
          "type": "string"
        }
      ],
      "stateMutability": "view",
      "type": "function"
    },
    {
      "inputs": [
        {
          "internalType": "address",
          "name": "from",
          "type": "address"
        },
        {
          "internalType": "address",
          "name": "to",
          "type": "address"
        },
        {
          "internalType": "uint256",
          "name": "tokenId",
          "type": "uint256"
        }
      ],
      "name": "transferFrom",
      "outputs": [],
      "stateMutability": "nonpayable",
      "type": "function"
    }
  ],
  "bytecode": "0x6080604052655af3107a40006009553480156200001b57600080fd5b506040518060400160405280600c81526020017f5a6f6465636b20436172647300000000000000000000000000000000000000008152506040518060400160405280600381526020017f5a444b000000000000000000000000000000000000000000000000000000000081525081600090816200009991906200036f565b508060019081620000ab91906200036f565b50505033600a60006101000a81548173ffffffffffffffffffffffffffffffffffffffff021916908373ffffffffffffffffffffffffffffffffffffffff16021790555062000456565b600081519050919050565b7f4e487b7100000000000000000000000000000000000000000000000000000000600052604160045260246000fd5b7f4e487b7100000000000000000000000000000000000000000000000000000000600052602260045260246000fd5b600060028204905060018216806200017757607f821691505b6020821081036200018d576200018c6200012f565b5b50919050565b60008190508160005260206000209050919050565b60006020601f8301049050919050565b600082821b905092915050565b600060088302620001f77fffffffffffffffffffffffffffffffffffffffffffffffffffffffffffffffff82620001b8565b620002038683620001b8565b95508019841693508086168417925050509392505050565b6000819050919050565b6000819050919050565b6000620002506200024a62000244846200021b565b62000225565b6200021b565b9050919050565b6000819050919050565b6200026c836200022f565b620002846200027b8262000257565b848454620001c5565b825550505050565b600090565b6200029b6200028c565b620002a881848462000261565b505050565b5b81811015620002d057620002c460008262000291565b600181019050620002ae565b5050565b601f8211156200031f57620002e98162000193565b620002f484620001a8565b8101602085101562000304578190505b6200031c6200031385620001a8565b830182620002ad565b50505b505050565b600082821c905092915050565b6000620003446000198460080262000324565b1980831691505092915050565b60006200035f838362000331565b9150826002028217905092915050565b6200037a82620000f5565b67ffffffffffffffff81111562000396576200039562000100565b5b620003a282546200015e565b620003af828285620002d4565b600060209050601f831160018114620003e75760008415620003d2578287015190505b620003de858262000351565b8655506200044e565b601f198416620003f78662000193565b60005b828110156200042157848901518255600182019150602085019450602081019050620003fa565b868310156200044157848901516200043d601f89168262000331565b8355505b6001600288020188555050505b505050505050565b61392380620004666000396000f3fe60806040526004361061012a5760003560e01c806345576f94116100ab578063a22cb4651161006f578063a22cb465146103fb578063a54447aa14610424578063b88d4fde14610440578063c87b56dd14610469578063e985e9c5146104a6578063ed36c52f146104e35761012a565b806345576f94146102fb57806345f8fa801461032b5780636352211e1461035657806370a082311461039357806395d89b41146103d05761012a565b806312e85585116100f257806312e8558514610228578063202e37401461025357806323b872dd1461027e57806342842e0e146102a7578063442890d5146102d05761012a565b806301ffc9a71461012f57806306fdde031461016c57806307c11e0d14610197578063081812fc146101c2578063095ea7b3146101ff575b600080fd5b34801561013b57600080fd5b50610156600480360381019061015191906129cd565b6104ff565b6040516101639190612a15565b60405180910390f35b34801561017857600080fd5b50610181610560565b60405161018e9190612ac0565b60405180910390f35b3480156101a357600080fd5b506101ac6105f2565b6040516101b99190612c62565b60405180910390f35b3480156101ce57600080fd5b506101e960048036038101906101e49190612cb0565b61084c565b6040516101f69190612cfe565b60405180910390f35b34801561020b57600080fd5b5061022660048036038101906102219190612d45565b610868565b005b34801561023457600080fd5b5061023d61087e565b60405161024a9190612d94565b60405180910390f35b34801561025f57600080fd5b50610268610888565b6040516102759190612c62565b60405180910390f35b34801561028a57600080fd5b506102a560048036038101906102a09190612daf565b610b7b565b005b3480156102b357600080fd5b506102ce60048036038101906102c99190612daf565b610c7d565b005b3480156102dc57600080fd5b506102e5610c9d565b6040516102f29190612cfe565b60405180910390f35b61031560048036038101906103109190612f37565b610cc7565b6040516103229190612d94565b60405180910390f35b34801561033757600080fd5b50610340610e39565b60405161034d9190612c62565b60405180910390f35b34801561036257600080fd5b5061037d60048036038101906103789190612cb0565b61112c565b60405161038a9190612cfe565b60405180910390f35b34801561039f57600080fd5b506103ba60048036038101906103b59190612f80565b61113e565b6040516103c79190612d94565b60405180910390f35b3480156103dc57600080fd5b506103e56111f8565b6040516103f29190612ac0565b60405180910390f35b34801561040757600080fd5b50610422600480360381019061041d9190612fd9565b61128a565b005b61043e60048036038101906104399190612cb0565b6112a0565b005b34801561044c57600080fd5b50610467600480360381019061046291906130ba565b6114f0565b005b34801561047557600080fd5b50610490600480360381019061048b9190612cb0565b611515565b60405161049d9190612ac0565b60405180910390f35b3480156104b257600080fd5b506104cd60048036038101906104c8919061313d565b611628565b6040516104da9190612a15565b60405180910390f35b6104fd60048036038101906104f8919061317d565b6116bc565b005b6000634906490660e01b7bffffffffffffffffffffffffffffffffffffffffffffffffffffffff1916827bffffffffffffffffffffffffffffffffffffffffffffffffffffffff191614806105595750610558826116ca565b5b9050919050565b60606000805461056f906131ec565b80601f016020809104026020016040519081016040528092919081815260200182805461059b906131ec565b80156105e85780601f106105bd576101008083540402835291602001916105e8565b820191906000526020600020905b8154815290600101906020018083116105cb57829003601f168201915b5050505050905090565b606060006007549050600060085460075461060d919061324c565b90506000808267ffffffffffffffff81111561062c5761062b612e0c565b5b60405190808252806020026020018201604052801561066557816020015b610652612904565b81526020019060019003908161064a5790505b50905060005b84811015610841573073ffffffffffffffffffffffffffffffffffffffff16600b600060018461069b9190613280565b815260200190815260200160002060020160009054906101000a900473ffffffffffffffffffffffffffffffffffffffff1673ffffffffffffffffffffffffffffffffffffffff160361082e5760006001826106f79190613280565b90506000600b60008381526020019081526020016000209050806040518060a0016040529081600082015481526020016001820160009054906101000a900473ffffffffffffffffffffffffffffffffffffffff1673ffffffffffffffffffffffffffffffffffffffff1673ffffffffffffffffffffffffffffffffffffffff1681526020016002820160009054906101000a900473ffffffffffffffffffffffffffffffffffffffff1673ffffffffffffffffffffffffffffffffffffffff1673ffffffffffffffffffffffffffffffffffffffff168152602001600382015481526020016004820160009054906101000a900460ff16151515158152505084868151811061080a576108096132b4565b5b60200260200101819052506108296001866117ac90919063ffffffff16565b945050505b8080610839906132e3565b91505061066b565b508094505050505090565b6000610857826117d8565b5061086182611860565b9050919050565b61087a828261087561189d565b6118a5565b5050565b6000600954905090565b60606000600754905060008060005b8381101561093e573373ffffffffffffffffffffffffffffffffffffffff16600b60006001846108c79190613280565b815260200190815260200160002060020160009054906101000a900473ffffffffffffffffffffffffffffffffffffffff1673ffffffffffffffffffffffffffffffffffffffff160361092b576109286001846117ac90919063ffffffff16565b92505b8080610936906132e3565b915050610897565b5060008267ffffffffffffffff81111561095b5761095a612e0c565b5b60405190808252806020026020018201604052801561099457816020015b610981612904565b8152602001906001900390816109795790505b50905060005b84811015610b70573373ffffffffffffffffffffffffffffffffffffffff16600b60006001846109ca9190613280565b815260200190815260200160002060020160009054906101000a900473ffffffffffffffffffffffffffffffffffffffff1673ffffffffffffffffffffffffffffffffffffffff1603610b5d576000600182610a269190613280565b90506000600b60008381526020019081526020016000209050806040518060a0016040529081600082015481526020016001820160009054906101000a900473ffffffffffffffffffffffffffffffffffffffff1673ffffffffffffffffffffffffffffffffffffffff1673ffffffffffffffffffffffffffffffffffffffff1681526020016002820160009054906101000a900473ffffffffffffffffffffffffffffffffffffffff1673ffffffffffffffffffffffffffffffffffffffff1673ffffffffffffffffffffffffffffffffffffffff168152602001600382015481526020016004820160009054906101000a900460ff161515151581525050848681518110610b3957610b386132b4565b5b6020026020010181905250610b586001866117ac90919063ffffffff16565b945050505b8080610b68906132e3565b91505061099a565b508094505050505090565b600073ffffffffffffffffffffffffffffffffffffffff168273ffffffffffffffffffffffffffffffffffffffff1603610bed5760006040517f64a0ae92000000000000000000000000000000000000000000000000000000008152600401610be49190612cfe565b60405180910390fd5b6000610c018383610bfc61189d565b6118b7565b90508373ffffffffffffffffffffffffffffffffffffffff168173ffffffffffffffffffffffffffffffffffffffff1614610c77578382826040517f64283d7b000000000000000000000000000000000000000000000000000000008152600401610c6e9392919061332b565b60405180910390fd5b50505050565b610c98838383604051806020016040528060008152506114f0565b505050565b6000600a60009054906101000a900473ffffffffffffffffffffffffffffffffffffffff16905090565b6000610cdf60016007546117ac90919063ffffffff16565b60078190555060006007549050610cf63382611ad1565b610d008184611bca565b6040518060a00160405280828152602001600073ffffffffffffffffffffffffffffffffffffffff1681526020013373ffffffffffffffffffffffffffffffffffffffff1681526020016000815260200160011515815250600b60008381526020019081526020016000206000820151816000015560208201518160010160006101000a81548173ffffffffffffffffffffffffffffffffffffffff021916908373ffffffffffffffffffffffffffffffffffffffff16021790555060408201518160020160006101000a81548173ffffffffffffffffffffffffffffffffffffffff021916908373ffffffffffffffffffffffffffffffffffffffff1602179055506060820151816003015560808201518160040160006101000a81548160ff02191690831515021790555090505080915050919050565b60606000600754905060008060005b83811015610eef573373ffffffffffffffffffffffffffffffffffffffff16600b6000600184610e789190613280565b815260200190815260200160002060010160009054906101000a900473ffffffffffffffffffffffffffffffffffffffff1673ffffffffffffffffffffffffffffffffffffffff1603610edc57610ed96001846117ac90919063ffffffff16565b92505b8080610ee7906132e3565b915050610e48565b5060008267ffffffffffffffff811115610f0c57610f0b612e0c565b5b604051908082528060200260200182016040528015610f4557816020015b610f32612904565b815260200190600190039081610f2a5790505b50905060005b84811015611121573373ffffffffffffffffffffffffffffffffffffffff16600b6000600184610f7b9190613280565b815260200190815260200160002060010160009054906101000a900473ffffffffffffffffffffffffffffffffffffffff1673ffffffffffffffffffffffffffffffffffffffff160361110e576000600182610fd79190613280565b90506000600b60008381526020019081526020016000209050806040518060a0016040529081600082015481526020016001820160009054906101000a900473ffffffffffffffffffffffffffffffffffffffff1673ffffffffffffffffffffffffffffffffffffffff1673ffffffffffffffffffffffffffffffffffffffff1681526020016002820160009054906101000a900473ffffffffffffffffffffffffffffffffffffffff1673ffffffffffffffffffffffffffffffffffffffff1673ffffffffffffffffffffffffffffffffffffffff168152602001600382015481526020016004820160009054906101000a900460ff1615151515815250508486815181106110ea576110e96132b4565b5b60200260200101819052506111096001866117ac90919063ffffffff16565b945050505b8080611119906132e3565b915050610f4b565b508094505050505090565b6000611137826117d8565b9050919050565b60008073ffffffffffffffffffffffffffffffffffffffff168273ffffffffffffffffffffffffffffffffffffffff16036111b15760006040517f89c62b640000000000000000000000000000000000000000000000000000000081526004016111a89190612cfe565b60405180910390fd5b600360008373ffffffffffffffffffffffffffffffffffffffff1673ffffffffffffffffffffffffffffffffffffffff168152602001908152602001600020549050919050565b606060018054611207906131ec565b80601f0160208091040260200160405190810160405280929190818152602001828054611233906131ec565b80156112805780601f1061125557610100808354040283529160200191611280565b820191906000526020600020905b81548152906001019060200180831161126357829003601f168201915b5050505050905090565b61129c61129561189d565b8383611c26565b5050565b6000600b60008381526020019081526020016000206003015490506000600b600084815260200190815260200160002060010160009054906101000a900473ffffffffffffffffffffffffffffffffffffffff169050813414611338576040517f08c379a000000000000000000000000000000000000000000000000000000000815260040161132f906133d4565b60405180910390fd5b33600b600085815260200190815260200160002060020160006101000a81548173ffffffffffffffffffffffffffffffffffffffff021916908373ffffffffffffffffffffffffffffffffffffffff1602179055506001600b600085815260200190815260200160002060040160006101000a81548160ff0219169083151502179055506000600b600085815260200190815260200160002060010160006101000a81548173ffffffffffffffffffffffffffffffffffffffff021916908373ffffffffffffffffffffffffffffffffffffffff16021790555061142860016008546117ac90919063ffffffff16565b600881905550611439303385611d95565b600a60009054906101000a900473ffffffffffffffffffffffffffffffffffffffff1673ffffffffffffffffffffffffffffffffffffffff166108fc6009549081150290604051600060405180830381858888f193505050501580156114a3573d6000803e3d6000fd5b508073ffffffffffffffffffffffffffffffffffffffff166108fc349081150290604051600060405180830381858888f193505050501580156114ea573d6000803e3d6000fd5b50505050565b6114fb848484610b7b565b61150f61150661189d565b85858585611f02565b50505050565b6060611520826117d8565b506000600660008481526020019081526020016000208054611541906131ec565b80601f016020809104026020016040519081016040528092919081815260200182805461156d906131ec565b80156115ba5780601f1061158f576101008083540402835291602001916115ba565b820191906000526020600020905b81548152906001019060200180831161159d57829003601f168201915b5050505050905060006115cb6120b3565b905060008151036115e0578192505050611623565b6000825111156116155780826040516020016115fd929190613430565b60405160208183030381529060405292505050611623565b61161e846120ca565b925050505b919050565b6000600560008473ffffffffffffffffffffffffffffffffffffffff1673ffffffffffffffffffffffffffffffffffffffff16815260200190815260200160002060008373ffffffffffffffffffffffffffffffffffffffff1673ffffffffffffffffffffffffffffffffffffffff16815260200190815260200160002060009054906101000a900460ff16905092915050565b6116c68282612133565b5050565b60007f80ac58cd000000000000000000000000000000000000000000000000000000007bffffffffffffffffffffffffffffffffffffffffffffffffffffffff1916827bffffffffffffffffffffffffffffffffffffffffffffffffffffffff1916148061179557507f5b5e139f000000000000000000000000000000000000000000000000000000007bffffffffffffffffffffffffffffffffffffffffffffffffffffffff1916827bffffffffffffffffffffffffffffffffffffffffffffffffffffffff1916145b806117a557506117a4826122f2565b5b9050919050565b60008082846117bb9190613280565b9050838110156117ce576117cd613454565b5b8091505092915050565b6000806117e48361235c565b9050600073ffffffffffffffffffffffffffffffffffffffff168173ffffffffffffffffffffffffffffffffffffffff160361185757826040517f7e27328900000000000000000000000000000000000000000000000000000000815260040161184e9190612d94565b60405180910390fd5b80915050919050565b60006004600083815260200190815260200160002060009054906101000a900473ffffffffffffffffffffffffffffffffffffffff169050919050565b600033905090565b6118b28383836001612399565b505050565b6000806118c38461235c565b9050600073ffffffffffffffffffffffffffffffffffffffff168373ffffffffffffffffffffffffffffffffffffffff16146119055761190481848661255e565b5b600073ffffffffffffffffffffffffffffffffffffffff168173ffffffffffffffffffffffffffffffffffffffff161461199657611947600085600080612399565b6001600360008373ffffffffffffffffffffffffffffffffffffffff1673ffffffffffffffffffffffffffffffffffffffff168152602001908152602001600020600082825403925050819055505b600073ffffffffffffffffffffffffffffffffffffffff168573ffffffffffffffffffffffffffffffffffffffff1614611a19576001600360008773ffffffffffffffffffffffffffffffffffffffff1673ffffffffffffffffffffffffffffffffffffffff168152602001908152602001600020600082825401925050819055505b846002600086815260200190815260200160002060006101000a81548173ffffffffffffffffffffffffffffffffffffffff021916908373ffffffffffffffffffffffffffffffffffffffff160217905550838573ffffffffffffffffffffffffffffffffffffffff168273ffffffffffffffffffffffffffffffffffffffff167fddf252ad1be2c89b69c2b068fc378daa952ba7f163c4a11628f55a4df523b3ef60405160405180910390a4809150509392505050565b600073ffffffffffffffffffffffffffffffffffffffff168273ffffffffffffffffffffffffffffffffffffffff1603611b435760006040517f64a0ae92000000000000000000000000000000000000000000000000000000008152600401611b3a9190612cfe565b60405180910390fd5b6000611b51838360006118b7565b9050600073ffffffffffffffffffffffffffffffffffffffff168173ffffffffffffffffffffffffffffffffffffffff1614611bc55760006040517f73c6ac6e000000000000000000000000000000000000000000000000000000008152600401611bbc9190612cfe565b60405180910390fd5b505050565b80600660008481526020019081526020016000209081611bea919061362f565b507ff8e1a15aba9398e019f0b49df1a4fde98ee17ae345cb5f6b5e2c27f5033e8ce782604051611c1a9190612d94565b60405180910390a15050565b600073ffffffffffffffffffffffffffffffffffffffff168273ffffffffffffffffffffffffffffffffffffffff1603611c9757816040517f5b08ba18000000000000000000000000000000000000000000000000000000008152600401611c8e9190612cfe565b60405180910390fd5b80600560008573ffffffffffffffffffffffffffffffffffffffff1673ffffffffffffffffffffffffffffffffffffffff16815260200190815260200160002060008473ffffffffffffffffffffffffffffffffffffffff1673ffffffffffffffffffffffffffffffffffffffff16815260200190815260200160002060006101000a81548160ff0219169083151502179055508173ffffffffffffffffffffffffffffffffffffffff168373ffffffffffffffffffffffffffffffffffffffff167f17307eab39ab6107e8899845ad3d59bd9653f200f220920489ca2b5937696c3183604051611d889190612a15565b60405180910390a3505050565b600073ffffffffffffffffffffffffffffffffffffffff168273ffffffffffffffffffffffffffffffffffffffff1603611e075760006040517f64a0ae92000000000000000000000000000000000000000000000000000000008152600401611dfe9190612cfe565b60405180910390fd5b6000611e15838360006118b7565b9050600073ffffffffffffffffffffffffffffffffffffffff168173ffffffffffffffffffffffffffffffffffffffff1603611e8857816040517f7e273289000000000000000000000000000000000000000000000000000000008152600401611e7f9190612d94565b60405180910390fd5b8373ffffffffffffffffffffffffffffffffffffffff168173ffffffffffffffffffffffffffffffffffffffff1614611efc578382826040517f64283d7b000000000000000000000000000000000000000000000000000000008152600401611ef39392919061332b565b60405180910390fd5b50505050565b60008373ffffffffffffffffffffffffffffffffffffffff163b11156120ac578273ffffffffffffffffffffffffffffffffffffffff1663150b7a02868685856040518563ffffffff1660e01b8152600401611f619493929190613756565b6020604051808303816000875af1925050508015611f9d57506040513d601f19601f82011682018060405250810190611f9a91906137b7565b60015b612021573d8060008114611fcd576040519150601f19603f3d011682016040523d82523d6000602084013e611fd2565b606091505b50600081510361201957836040517f64a0ae920000000000000000000000000000000000000000000000000000000081526004016120109190612cfe565b60405180910390fd5b805181602001fd5b63150b7a0260e01b7bffffffffffffffffffffffffffffffffffffffffffffffffffffffff1916817bffffffffffffffffffffffffffffffffffffffffffffffffffffffff1916146120aa57836040517f64a0ae920000000000000000000000000000000000000000000000000000000081526004016120a19190612cfe565b60405180910390fd5b505b5050505050565b606060405180602001604052806000815250905090565b60606120d5826117d8565b5060006120e06120b3565b90506000815111612100576040518060200160405280600081525061212b565b8061210a84612622565b60405160200161211b929190613430565b6040516020818303038152906040525b915050919050565b60008111612176576040517f08c379a000000000000000000000000000000000000000000000000000000000815260040161216d90613830565b60405180910390fd5b6040518060a001604052808381526020013373ffffffffffffffffffffffffffffffffffffffff1681526020013073ffffffffffffffffffffffffffffffffffffffff16815260200182815260200160001515815250600b60008481526020019081526020016000206000820151816000015560208201518160010160006101000a81548173ffffffffffffffffffffffffffffffffffffffff021916908373ffffffffffffffffffffffffffffffffffffffff16021790555060408201518160020160006101000a81548173ffffffffffffffffffffffffffffffffffffffff021916908373ffffffffffffffffffffffffffffffffffffffff1602179055506060820151816003015560808201518160040160006101000a81548160ff0219169083151502179055509050506122af333084611d95565b817f3cf8eaa46d9accaa9c8e76a1b58ee317d0eac0885fb7635711309f21e5a25fb933308460006040516122e69493929190613850565b60405180910390a25050565b60007f01ffc9a7000000000000000000000000000000000000000000000000000000007bffffffffffffffffffffffffffffffffffffffffffffffffffffffff1916827bffffffffffffffffffffffffffffffffffffffffffffffffffffffff1916149050919050565b60006002600083815260200190815260200160002060009054906101000a900473ffffffffffffffffffffffffffffffffffffffff169050919050565b80806123d25750600073ffffffffffffffffffffffffffffffffffffffff168273ffffffffffffffffffffffffffffffffffffffff1614155b156125065760006123e2846117d8565b9050600073ffffffffffffffffffffffffffffffffffffffff168373ffffffffffffffffffffffffffffffffffffffff161415801561244d57508273ffffffffffffffffffffffffffffffffffffffff168173ffffffffffffffffffffffffffffffffffffffff1614155b8015612460575061245e8184611628565b155b156124a257826040517fa9fbf51f0000000000000000000000000000000000000000000000000000000081526004016124999190612cfe565b60405180910390fd5b811561250457838573ffffffffffffffffffffffffffffffffffffffff168273ffffffffffffffffffffffffffffffffffffffff167f8c5be1e5ebec7d5bd14f71427d1e84f3dd0314c0f7b2291e5b200ac8c7c3b92560405160405180910390a45b505b836004600085815260200190815260200160002060006101000a81548173ffffffffffffffffffffffffffffffffffffffff021916908373ffffffffffffffffffffffffffffffffffffffff16021790555050505050565b6125698383836126f0565b61261d57600073ffffffffffffffffffffffffffffffffffffffff168373ffffffffffffffffffffffffffffffffffffffff16036125de57806040517f7e2732890000000000000000000000000000000000000000000000000000000081526004016125d59190612d94565b60405180910390fd5b81816040517f177e802f000000000000000000000000000000000000000000000000000000008152600401612614929190613895565b60405180910390fd5b505050565b606060006001612631846127b1565b01905060008167ffffffffffffffff8111156126505761264f612e0c565b5b6040519080825280601f01601f1916602001820160405280156126825781602001600182028036833780820191505090505b509050600082602001820190505b6001156126e5578080600190039150507f3031323334353637383961626364656600000000000000000000000000000000600a86061a8153600a85816126d9576126d86138be565b5b04945060008503612690575b819350505050919050565b60008073ffffffffffffffffffffffffffffffffffffffff168373ffffffffffffffffffffffffffffffffffffffff16141580156127a857508273ffffffffffffffffffffffffffffffffffffffff168473ffffffffffffffffffffffffffffffffffffffff16148061276957506127688484611628565b5b806127a757508273ffffffffffffffffffffffffffffffffffffffff1661278f83611860565b73ffffffffffffffffffffffffffffffffffffffff16145b5b90509392505050565b600080600090507a184f03e93ff9f4daa797ed6e38ed64bf6a1f010000000000000000831061280f577a184f03e93ff9f4daa797ed6e38ed64bf6a1f0100000000000000008381612805576128046138be565b5b0492506040810190505b6d04ee2d6d415b85acef8100000000831061284c576d04ee2d6d415b85acef81000000008381612842576128416138be565b5b0492506020810190505b662386f26fc10000831061287b57662386f26fc100008381612871576128706138be565b5b0492506010810190505b6305f5e10083106128a4576305f5e100838161289a576128996138be565b5b0492506008810190505b61271083106128c95761271083816128bf576128be6138be565b5b0492506004810190505b606483106128ec57606483816128e2576128e16138be565b5b0492506002810190505b600a83106128fb576001810190505b80915050919050565b6040518060a0016040528060008152602001600073ffffffffffffffffffffffffffffffffffffffff168152602001600073ffffffffffffffffffffffffffffffffffffffff168152602001600081526020016000151581525090565b6000604051905090565b600080fd5b600080fd5b60007fffffffff0000000000000000000000000000000000000000000000000000000082169050919050565b6129aa81612975565b81146129b557600080fd5b50565b6000813590506129c7816129a1565b92915050565b6000602082840312156129e3576129e261296b565b5b60006129f1848285016129b8565b91505092915050565b60008115159050919050565b612a0f816129fa565b82525050565b6000602082019050612a2a6000830184612a06565b92915050565b600081519050919050565b600082825260208201905092915050565b60005b83811015612a6a578082015181840152602081019050612a4f565b60008484015250505050565b6000601f19601f8301169050919050565b6000612a9282612a30565b612a9c8185612a3b565b9350612aac818560208601612a4c565b612ab581612a76565b840191505092915050565b60006020820190508181036000830152612ada8184612a87565b905092915050565b600081519050919050565b600082825260208201905092915050565b6000819050602082019050919050565b6000819050919050565b612b2181612b0e565b82525050565b600073ffffffffffffffffffffffffffffffffffffffff82169050919050565b6000612b5282612b27565b9050919050565b612b6281612b47565b82525050565b612b71816129fa565b82525050565b60a082016000820151612b8d6000850182612b18565b506020820151612ba06020850182612b59565b506040820151612bb36040850182612b59565b506060820151612bc66060850182612b18565b506080820151612bd96080850182612b68565b50505050565b6000612beb8383612b77565b60a08301905092915050565b6000602082019050919050565b6000612c0f82612ae2565b612c198185612aed565b9350612c2483612afe565b8060005b83811015612c55578151612c3c8882612bdf565b9750612c4783612bf7565b925050600181019050612c28565b5085935050505092915050565b60006020820190508181036000830152612c7c8184612c04565b905092915050565b612c8d81612b0e565b8114612c9857600080fd5b50565b600081359050612caa81612c84565b92915050565b600060208284031215612cc657612cc561296b565b5b6000612cd484828501612c9b565b91505092915050565b6000612ce882612b27565b9050919050565b612cf881612cdd565b82525050565b6000602082019050612d136000830184612cef565b92915050565b612d2281612cdd565b8114612d2d57600080fd5b50565b600081359050612d3f81612d19565b92915050565b60008060408385031215612d5c57612d5b61296b565b5b6000612d6a85828601612d30565b9250506020612d7b85828601612c9b565b9150509250929050565b612d8e81612b0e565b82525050565b6000602082019050612da96000830184612d85565b92915050565b600080600060608486031215612dc857612dc761296b565b5b6000612dd686828701612d30565b9350506020612de786828701612d30565b9250506040612df886828701612c9b565b9150509250925092565b600080fd5b600080fd5b7f4e487b7100000000000000000000000000000000000000000000000000000000600052604160045260246000fd5b612e4482612a76565b810181811067ffffffffffffffff82111715612e6357612e62612e0c565b5b80604052505050565b6000612e76612961565b9050612e828282612e3b565b919050565b600067ffffffffffffffff821115612ea257612ea1612e0c565b5b612eab82612a76565b9050602081019050919050565b82818337600083830152505050565b6000612eda612ed584612e87565b612e6c565b905082815260208101848484011115612ef657612ef5612e07565b5b612f01848285612eb8565b509392505050565b600082601f830112612f1e57612f1d612e02565b5b8135612f2e848260208601612ec7565b91505092915050565b600060208284031215612f4d57612f4c61296b565b5b600082013567ffffffffffffffff811115612f6b57612f6a612970565b5b612f7784828501612f09565b91505092915050565b600060208284031215612f9657612f9561296b565b5b6000612fa484828501612d30565b91505092915050565b612fb6816129fa565b8114612fc157600080fd5b50565b600081359050612fd381612fad565b92915050565b60008060408385031215612ff057612fef61296b565b5b6000612ffe85828601612d30565b925050602061300f85828601612fc4565b9150509250929050565b600067ffffffffffffffff82111561303457613033612e0c565b5b61303d82612a76565b9050602081019050919050565b600061305d61305884613019565b612e6c565b90508281526020810184848401111561307957613078612e07565b5b613084848285612eb8565b509392505050565b600082601f8301126130a1576130a0612e02565b5b81356130b184826020860161304a565b91505092915050565b600080600080608085870312156130d4576130d361296b565b5b60006130e287828801612d30565b94505060206130f387828801612d30565b935050604061310487828801612c9b565b925050606085013567ffffffffffffffff81111561312557613124612970565b5b6131318782880161308c565b91505092959194509250565b600080604083850312156131545761315361296b565b5b600061316285828601612d30565b925050602061317385828601612d30565b9150509250929050565b600080604083850312156131945761319361296b565b5b60006131a285828601612c9b565b92505060206131b385828601612c9b565b9150509250929050565b7f4e487b7100000000000000000000000000000000000000000000000000000000600052602260045260246000fd5b6000600282049050600182168061320457607f821691505b602082108103613217576132166131bd565b5b50919050565b7f4e487b7100000000000000000000000000000000000000000000000000000000600052601160045260246000fd5b600061325782612b0e565b915061326283612b0e565b925082820390508181111561327a5761327961321d565b5b92915050565b600061328b82612b0e565b915061329683612b0e565b92508282019050808211156132ae576132ad61321d565b5b92915050565b7f4e487b7100000000000000000000000000000000000000000000000000000000600052603260045260246000fd5b60006132ee82612b0e565b91507fffffffffffffffffffffffffffffffffffffffffffffffffffffffffffffffff82036133205761331f61321d565b5b600182019050919050565b60006060820190506133406000830186612cef565b61334d6020830185612d85565b61335a6040830184612cef565b949350505050565b7f506c65617365207375626d6974207468652061736b696e67207072696365206960008201527f6e206f7264657220746f20636f6d706c65746520746865207075726368617365602082015250565b60006133be604083612a3b565b91506133c982613362565b604082019050919050565b600060208201905081810360008301526133ed816133b1565b9050919050565b600081905092915050565b600061340a82612a30565b61341481856133f4565b9350613424818560208601612a4c565b80840191505092915050565b600061343c82856133ff565b915061344882846133ff565b91508190509392505050565b7f4e487b7100000000000000000000000000000000000000000000000000000000600052600160045260246000fd5b60008190508160005260206000209050919050565b60006020601f8301049050919050565b600082821b905092915050565b6000600883026134e57fffffffffffffffffffffffffffffffffffffffffffffffffffffffffffffffff826134a8565b6134ef86836134a8565b95508019841693508086168417925050509392505050565b6000819050919050565b600061352c61352761352284612b0e565b613507565b612b0e565b9050919050565b6000819050919050565b61354683613511565b61355a61355282613533565b8484546134b5565b825550505050565b600090565b61356f613562565b61357a81848461353d565b505050565b5b8181101561359e57613593600082613567565b600181019050613580565b5050565b601f8211156135e3576135b481613483565b6135bd84613498565b810160208510156135cc578190505b6135e06135d885613498565b83018261357f565b50505b505050565b600082821c905092915050565b6000613606600019846008026135e8565b1980831691505092915050565b600061361f83836135f5565b9150826002028217905092915050565b61363882612a30565b67ffffffffffffffff81111561365157613650612e0c565b5b61365b82546131ec565b6136668282856135a2565b600060209050601f8311600181146136995760008415613687578287015190505b6136918582613613565b8655506136f9565b601f1984166136a786613483565b60005b828110156136cf578489015182556001820191506020850194506020810190506136aa565b868310156136ec57848901516136e8601f8916826135f5565b8355505b6001600288020188555050505b505050505050565b600081519050919050565b600082825260208201905092915050565b600061372882613701565b613732818561370c565b9350613742818560208601612a4c565b61374b81612a76565b840191505092915050565b600060808201905061376b6000830187612cef565b6137786020830186612cef565b6137856040830185612d85565b8181036060830152613797818461371d565b905095945050505050565b6000815190506137b1816129a1565b92915050565b6000602082840312156137cd576137cc61296b565b5b60006137db848285016137a2565b91505092915050565b7f5072696365206d757374206265206174206c6561737420312077656900000000600082015250565b600061381a601c83612a3b565b9150613825826137e4565b602082019050919050565b600060208201905081810360008301526138498161380d565b9050919050565b60006080820190506138656000830187612cef565b6138726020830186612cef565b61387f6040830185612d85565b61388c6060830184612a06565b95945050505050565b60006040820190506138aa6000830185612cef565b6138b76020830184612d85565b9392505050565b7f4e487b7100000000000000000000000000000000000000000000000000000000600052601260045260246000fdfea264697066735822122022876336065b1fa8ce77d3f3c09a17689541c511b2bb69f7020bc09fc18e5ee364736f6c63430008140033",
  "linkReferences": {},
  "deployedLinkReferences": {}
}