{
    "_format": "hh-sol-artifact-1",
    "contractName": "NFTplace",
    "sourceName": "contracts/test.sol",
    "abi": [
        {
            "inputs": [],
            "stateMutability": "nonpayable",
            "type": "constructor"
        },
        {
            "inputs": [
                {
                    "internalType": "address",
                    "name": "sender",
                    "type": "address"
                },
                {
                    "internalType": "uint256",
                    "name": "tokenId",
                    "type": "uint256"
                },
                {
                    "internalType": "address",
                    "name": "owner",
                    "type": "address"
                }
            ],
            "name": "ERC721IncorrectOwner",
            "type": "error"
        },
        {
            "inputs": [
                {
                    "internalType": "address",
                    "name": "operator",
                    "type": "address"
                },
                {
                    "internalType": "uint256",
                    "name": "tokenId",
                    "type": "uint256"
                }
            ],
            "name": "ERC721InsufficientApproval",
            "type": "error"
        },
        {
            "inputs": [
                {
                    "internalType": "address",
                    "name": "approver",
                    "type": "address"
                }
            ],
            "name": "ERC721InvalidApprover",
            "type": "error"
        },
        {
            "inputs": [
                {
                    "internalType": "address",
                    "name": "operator",
                    "type": "address"
                }
            ],
            "name": "ERC721InvalidOperator",
            "type": "error"
        },
        {
            "inputs": [
                {
                    "internalType": "address",
                    "name": "owner",
                    "type": "address"
                }
            ],
            "name": "ERC721InvalidOwner",
            "type": "error"
        },
        {
            "inputs": [
                {
                    "internalType": "address",
                    "name": "receiver",
                    "type": "address"
                }
            ],
            "name": "ERC721InvalidReceiver",
            "type": "error"
        },
        {
            "inputs": [
                {
                    "internalType": "address",
                    "name": "sender",
                    "type": "address"
                }
            ],
            "name": "ERC721InvalidSender",
            "type": "error"
        },
        {
            "inputs": [
                {
                    "internalType": "uint256",
                    "name": "tokenId",
                    "type": "uint256"
                }
            ],
            "name": "ERC721NonexistentToken",
            "type": "error"
        },
        {
            "anonymous": false,
            "inputs": [
                {
                    "indexed": true,
                    "internalType": "address",
                    "name": "owner",
                    "type": "address"
                },
                {
                    "indexed": true,
                    "internalType": "address",
                    "name": "approved",
                    "type": "address"
                },
                {
                    "indexed": true,
                    "internalType": "uint256",
                    "name": "tokenId",
                    "type": "uint256"
                }
            ],
            "name": "Approval",
            "type": "event"
        },
        {
            "anonymous": false,
            "inputs": [
                {
                    "indexed": true,
                    "internalType": "address",
                    "name": "owner",
                    "type": "address"
                },
                {
                    "indexed": true,
                    "internalType": "address",
                    "name": "operator",
                    "type": "address"
                },
                {
                    "indexed": false,
                    "internalType": "bool",
                    "name": "approved",
                    "type": "bool"
                }
            ],
            "name": "ApprovalForAll",
            "type": "event"
        },
        {
            "anonymous": false,
            "inputs": [
                {
                    "indexed": false,
                    "internalType": "uint256",
                    "name": "_fromTokenId",
                    "type": "uint256"
                },
                {
                    "indexed": false,
                    "internalType": "uint256",
                    "name": "_toTokenId",
                    "type": "uint256"
                }
            ],
            "name": "BatchMetadataUpdate",
            "type": "event"
        },
        {
            "anonymous": false,
            "inputs": [
                {
                    "indexed": true,
                    "internalType": "uint256",
                    "name": "tokenId",
                    "type": "uint256"
                },
                {
                    "indexed": false,
                    "internalType": "address",
                    "name": "seller",
                    "type": "address"
                },
                {
                    "indexed": false,
                    "internalType": "address",
                    "name": "owner",
                    "type": "address"
                },
                {
                    "indexed": false,
                    "internalType": "uint256",
                    "name": "price",
                    "type": "uint256"
                },
                {
                    "indexed": false,
                    "internalType": "bool",
                    "name": "sold",
                    "type": "bool"
                }
            ],
            "name": "ListingCreated",
            "type": "event"
        },
        {
            "anonymous": false,
            "inputs": [
                {
                    "indexed": true,
                    "internalType": "uint256",
                    "name": "tokenId",
                    "type": "uint256"
                },
                {
                    "indexed": false,
                    "internalType": "address",
                    "name": "seller",
                    "type": "address"
                }
            ],
            "name": "ListingRemoved",
            "type": "event"
        },
        {
            "anonymous": false,
            "inputs": [
                {
                    "indexed": false,
                    "internalType": "uint256",
                    "name": "_tokenId",
                    "type": "uint256"
                }
            ],
            "name": "MetadataUpdate",
            "type": "event"
        },
        {
            "anonymous": false,
            "inputs": [
                {
                    "indexed": true,
                    "internalType": "address",
                    "name": "from",
                    "type": "address"
                },
                {
                    "indexed": true,
                    "internalType": "address",
                    "name": "to",
                    "type": "address"
                },
                {
                    "indexed": true,
                    "internalType": "uint256",
                    "name": "tokenId",
                    "type": "uint256"
                }
            ],
            "name": "Transfer",
            "type": "event"
        },
        {
            "inputs": [
                {
                    "internalType": "address",
                    "name": "to",
                    "type": "address"
                },
                {
                    "internalType": "uint256",
                    "name": "tokenId",
                    "type": "uint256"
                }
            ],
            "name": "approve",
            "outputs": [],
            "stateMutability": "nonpayable",
            "type": "function"
        },
        {
            "inputs": [
                {
                    "internalType": "address",
                    "name": "owner",
                    "type": "address"
                }
            ],
            "name": "balanceOf",
            "outputs": [
                {
                    "internalType": "uint256",
                    "name": "",
                    "type": "uint256"
                }
            ],
            "stateMutability": "view",
            "type": "function"
        },
        {
            "inputs": [
                {
                    "internalType": "string",
                    "name": "tokenURI",
                    "type": "string"
                },
                {
                    "internalType": "uint256",
                    "name": "price",
                    "type": "uint256"
                }
            ],
            "name": "createToken",
            "outputs": [
                {
                    "internalType": "uint256",
                    "name": "",
                    "type": "uint256"
                }
            ],
            "stateMutability": "payable",
            "type": "function"
        },
        {
            "inputs": [],
            "name": "fetchItemsListed",
            "outputs": [
                {
                    "components": [
                        {
                            "internalType": "uint256",
                            "name": "tokenId",
                            "type": "uint256"
                        },
                        {
                            "internalType": "address payable",
                            "name": "seller",
                            "type": "address"
                        },
                        {
                            "internalType": "address payable",
                            "name": "owner",
                            "type": "address"
                        },
                        {
                            "internalType": "uint256",
                            "name": "price",
                            "type": "uint256"
                        },
                        {
                            "internalType": "bool",
                            "name": "sold",
                            "type": "bool"
                        }
                    ],
                    "internalType": "struct NFTplace.Listing[]",
                    "name": "",
                    "type": "tuple[]"
                }
            ],
            "stateMutability": "view",
            "type": "function"
        },
        {
            "inputs": [],
            "name": "fetchListingMarketplace",
            "outputs": [
                {
                    "components": [
                        {
                            "internalType": "uint256",
                            "name": "tokenId",
                            "type": "uint256"
                        },
                        {
                            "internalType": "address payable",
                            "name": "seller",
                            "type": "address"
                        },
                        {
                            "internalType": "address payable",
                            "name": "owner",
                            "type": "address"
                        },
                        {
                            "internalType": "uint256",
                            "name": "price",
                            "type": "uint256"
                        },
                        {
                            "internalType": "bool",
                            "name": "sold",
                            "type": "bool"
                        }
                    ],
                    "internalType": "struct NFTplace.Listing[]",
                    "name": "",
                    "type": "tuple[]"
                }
            ],
            "stateMutability": "view",
            "type": "function"
        },
        {
            "inputs": [],
            "name": "fetchMyNFTs",
            "outputs": [
                {
                    "components": [
                        {
                            "internalType": "uint256",
                            "name": "tokenId",
                            "type": "uint256"
                        },
                        {
                            "internalType": "address payable",
                            "name": "seller",
                            "type": "address"
                        },
                        {
                            "internalType": "address payable",
                            "name": "owner",
                            "type": "address"
                        },
                        {
                            "internalType": "uint256",
                            "name": "price",
                            "type": "uint256"
                        },
                        {
                            "internalType": "bool",
                            "name": "sold",
                            "type": "bool"
                        }
                    ],
                    "internalType": "struct NFTplace.Listing[]",
                    "name": "",
                    "type": "tuple[]"
                }
            ],
            "stateMutability": "view",
            "type": "function"
        },
        {
            "inputs": [
                {
                    "internalType": "uint256",
                    "name": "tokenId",
                    "type": "uint256"
                }
            ],
            "name": "getApproved",
            "outputs": [
                {
                    "internalType": "address",
                    "name": "",
                    "type": "address"
                }
            ],
            "stateMutability": "view",
            "type": "function"
        },
        {
            "inputs": [],
            "name": "getListingPrice",
            "outputs": [
                {
                    "internalType": "uint256",
                    "name": "",
                    "type": "uint256"
                }
            ],
            "stateMutability": "view",
            "type": "function"
        },
        {
            "inputs": [],
            "name": "getOwner",
            "outputs": [
                {
                    "internalType": "address",
                    "name": "",
                    "type": "address"
                }
            ],
            "stateMutability": "view",
            "type": "function"
        },
        {
            "inputs": [
                {
                    "internalType": "address",
                    "name": "owner",
                    "type": "address"
                },
                {
                    "internalType": "address",
                    "name": "operator",
                    "type": "address"
                }
            ],
            "name": "isApprovedForAll",
            "outputs": [
                {
                    "internalType": "bool",
                    "name": "",
                    "type": "bool"
                }
            ],
            "stateMutability": "view",
            "type": "function"
        },
        {
            "inputs": [],
            "name": "name",
            "outputs": [
                {
                    "internalType": "string",
                    "name": "",
                    "type": "string"
                }
            ],
            "stateMutability": "view",
            "type": "function"
        },
        {
            "inputs": [
                {
                    "internalType": "uint256",
                    "name": "tokenId",
                    "type": "uint256"
                }
            ],
            "name": "ownerOf",
            "outputs": [
                {
                    "internalType": "address",
                    "name": "",
                    "type": "address"
                }
            ],
            "stateMutability": "view",
            "type": "function"
        },
        {
            "inputs": [
                {
                    "internalType": "uint256",
                    "name": "tokenId",
                    "type": "uint256"
                }
            ],
            "name": "purchaseCard",
            "outputs": [],
            "stateMutability": "payable",
            "type": "function"
        },
        {
            "inputs": [
                {
                    "internalType": "address",
                    "name": "from",
                    "type": "address"
                },
                {
                    "internalType": "address",
                    "name": "to",
                    "type": "address"
                },
                {
                    "internalType": "uint256",
                    "name": "tokenId",
                    "type": "uint256"
                }
            ],
            "name": "safeTransferFrom",
            "outputs": [],
            "stateMutability": "nonpayable",
            "type": "function"
        },
        {
            "inputs": [
                {
                    "internalType": "address",
                    "name": "from",
                    "type": "address"
                },
                {
                    "internalType": "address",
                    "name": "to",
                    "type": "address"
                },
                {
                    "internalType": "uint256",
                    "name": "tokenId",
                    "type": "uint256"
                },
                {
                    "internalType": "bytes",
                    "name": "data",
                    "type": "bytes"
                }
            ],
            "name": "safeTransferFrom",
            "outputs": [],
            "stateMutability": "nonpayable",
            "type": "function"
        },
        {
            "inputs": [
                {
                    "internalType": "address",
                    "name": "operator",
                    "type": "address"
                },
                {
                    "internalType": "bool",
                    "name": "approved",
                    "type": "bool"
                }
            ],
            "name": "setApprovalForAll",
            "outputs": [],
            "stateMutability": "nonpayable",
            "type": "function"
        },
        {
            "inputs": [
                {
                    "internalType": "bytes4",
                    "name": "interfaceId",
                    "type": "bytes4"
                }
            ],
            "name": "supportsInterface",
            "outputs": [
                {
                    "internalType": "bool",
                    "name": "",
                    "type": "bool"
                }
            ],
            "stateMutability": "view",
            "type": "function"
        },
        {
            "inputs": [],
            "name": "symbol",
            "outputs": [
                {
                    "internalType": "string",
                    "name": "",
                    "type": "string"
                }
            ],
            "stateMutability": "view",
            "type": "function"
        },
        {
            "inputs": [
                {
                    "internalType": "uint256",
                    "name": "tokenId",
                    "type": "uint256"
                }
            ],
            "name": "tokenURI",
            "outputs": [
                {
                    "internalType": "string",
                    "name": "",
                    "type": "string"
                }
            ],
            "stateMutability": "view",
            "type": "function"
        },
        {
            "inputs": [
                {
                    "internalType": "address",
                    "name": "from",
                    "type": "address"
                },
                {
                    "internalType": "address",
                    "name": "to",
                    "type": "address"
                },
                {
                    "internalType": "uint256",
                    "name": "tokenId",
                    "type": "uint256"
                }
            ],
            "name": "transferFrom",
            "outputs": [],
            "stateMutability": "nonpayable",
            "type": "function"
        }
    ],
    "bytecode": "0x6080604052655af3107a40006009553480156200001b57600080fd5b506040518060400160405280601081526020017f4d657461766572736520546f6b656e73000000000000000000000000000000008152506040518060400160405280600481526020017f4d4554540000000000000000000000000000000000000000000000000000000081525081600090816200009991906200036f565b508060019081620000ab91906200036f565b50505033600a60006101000a81548173ffffffffffffffffffffffffffffffffffffffff021916908373ffffffffffffffffffffffffffffffffffffffff16021790555062000456565b600081519050919050565b7f4e487b7100000000000000000000000000000000000000000000000000000000600052604160045260246000fd5b7f4e487b7100000000000000000000000000000000000000000000000000000000600052602260045260246000fd5b600060028204905060018216806200017757607f821691505b6020821081036200018d576200018c6200012f565b5b50919050565b60008190508160005260206000209050919050565b60006020601f8301049050919050565b600082821b905092915050565b600060088302620001f77fffffffffffffffffffffffffffffffffffffffffffffffffffffffffffffffff82620001b8565b620002038683620001b8565b95508019841693508086168417925050509392505050565b6000819050919050565b6000819050919050565b6000620002506200024a62000244846200021b565b62000225565b6200021b565b9050919050565b6000819050919050565b6200026c836200022f565b620002846200027b8262000257565b848454620001c5565b825550505050565b600090565b6200029b6200028c565b620002a881848462000261565b505050565b5b81811015620002d057620002c460008262000291565b600181019050620002ae565b5050565b601f8211156200031f57620002e98162000193565b620002f484620001a8565b8101602085101562000304578190505b6200031c6200031385620001a8565b830182620002ad565b50505b505050565b600082821c905092915050565b6000620003446000198460080262000324565b1980831691505092915050565b60006200035f838362000331565b9150826002028217905092915050565b6200037a82620000f5565b67ffffffffffffffff81111562000396576200039562000100565b5b620003a282546200015e565b620003af828285620002d4565b600060209050601f831160018114620003e75760008415620003d2578287015190505b620003de858262000351565b8655506200044e565b601f198416620003f78662000193565b60005b828110156200042157848901518255600182019150602085019450602081019050620003fa565b868310156200044157848901516200043d601f89168262000331565b8355505b6001600288020188555050505b505050505050565b61385580620004666000396000f3fe60806040526004361061011f5760003560e01c80636352211e116100a0578063a22cb46511610064578063a22cb465146103f0578063a54447aa14610419578063b88d4fde14610435578063c87b56dd1461045e578063e985e9c51461049b5761011f565b80636352211e146102f057806370a082311461032d57806372b3b6201461036a578063893d20e81461039a57806395d89b41146103c55761011f565b806312e85585116100e757806312e855851461021d578063202e37401461024857806323b872dd1461027357806342842e0e1461029c57806345f8fa80146102c55761011f565b806301ffc9a71461012457806306fdde031461016157806307c11e0d1461018c578063081812fc146101b7578063095ea7b3146101f4575b600080fd5b34801561013057600080fd5b5061014b6004803603810190610146919061289a565b6104d8565b60405161015891906128e2565b60405180910390f35b34801561016d57600080fd5b50610176610539565b604051610183919061298d565b60405180910390f35b34801561019857600080fd5b506101a16105cb565b6040516101ae9190612b2f565b60405180910390f35b3480156101c357600080fd5b506101de60048036038101906101d99190612b7d565b610824565b6040516101eb9190612bcb565b60405180910390f35b34801561020057600080fd5b5061021b60048036038101906102169190612c12565b610840565b005b34801561022957600080fd5b50610232610856565b60405161023f9190612c61565b60405180910390f35b34801561025457600080fd5b5061025d610860565b60405161026a9190612b2f565b60405180910390f35b34801561027f57600080fd5b5061029a60048036038101906102959190612c7c565b610b45565b005b3480156102a857600080fd5b506102c360048036038101906102be9190612c7c565b610c47565b005b3480156102d157600080fd5b506102da610c67565b6040516102e79190612b2f565b60405180910390f35b3480156102fc57600080fd5b5061031760048036038101906103129190612b7d565b610f4c565b6040516103249190612bcb565b60405180910390f35b34801561033957600080fd5b50610354600480360381019061034f9190612ccf565b610f5e565b6040516103619190612c61565b60405180910390f35b610384600480360381019061037f9190612e31565b611018565b6040516103919190612c61565b60405180910390f35b3480156103a657600080fd5b506103af611065565b6040516103bc9190612bcb565b60405180910390f35b3480156103d157600080fd5b506103da61108f565b6040516103e7919061298d565b60405180910390f35b3480156103fc57600080fd5b5061041760048036038101906104129190612eb9565b611121565b005b610433600480360381019061042e9190612b7d565b611137565b005b34801561044157600080fd5b5061045c60048036038101906104579190612f9a565b611387565b005b34801561046a57600080fd5b5061048560048036038101906104809190612b7d565b6113ac565b604051610492919061298d565b60405180910390f35b3480156104a757600080fd5b506104c260048036038101906104bd919061301d565b6114bf565b6040516104cf91906128e2565b60405180910390f35b6000634906490660e01b7bffffffffffffffffffffffffffffffffffffffffffffffffffffffff1916827bffffffffffffffffffffffffffffffffffffffffffffffffffffffff19161480610532575061053182611553565b5b9050919050565b6060600080546105489061308c565b80601f01602080910402602001604051908101604052809291908181526020018280546105749061308c565b80156105c15780601f10610596576101008083540402835291602001916105c1565b820191906000526020600020905b8154815290600101906020018083116105a457829003601f168201915b5050505050905090565b60606000600754905060006008546007546105e691906130ec565b90506000808267ffffffffffffffff81111561060557610604612d06565b5b60405190808252806020026020018201604052801561063e57816020015b61062b6127d1565b8152602001906001900390816106235790505b50905060005b84811015610819573073ffffffffffffffffffffffffffffffffffffffff16600b60006001846106749190613120565b815260200190815260200160002060020160009054906101000a900473ffffffffffffffffffffffffffffffffffffffff1673ffffffffffffffffffffffffffffffffffffffff16036108065760006001826106d09190613120565b90506000600b60008381526020019081526020016000209050806040518060a0016040529081600082015481526020016001820160009054906101000a900473ffffffffffffffffffffffffffffffffffffffff1673ffffffffffffffffffffffffffffffffffffffff1673ffffffffffffffffffffffffffffffffffffffff1681526020016002820160009054906101000a900473ffffffffffffffffffffffffffffffffffffffff1673ffffffffffffffffffffffffffffffffffffffff1673ffffffffffffffffffffffffffffffffffffffff168152602001600382015481526020016004820160009054906101000a900460ff1615151515815250508486815181106107e3576107e2613154565b5b602002602001018190525061080260018661163590919063ffffffff16565b5050505b808061081190613183565b915050610644565b508094505050505090565b600061082f82611661565b50610839826116e9565b9050919050565b610852828261084d611726565b61172e565b5050565b6000600954905090565b60606000600754905060008060005b8381101561090f573373ffffffffffffffffffffffffffffffffffffffff16600b600060018461089f9190613120565b815260200190815260200160002060020160009054906101000a900473ffffffffffffffffffffffffffffffffffffffff1673ffffffffffffffffffffffffffffffffffffffff16036108fc576001836108f99190613120565b92505b808061090790613183565b91505061086f565b5060008267ffffffffffffffff81111561092c5761092b612d06565b5b60405190808252806020026020018201604052801561096557816020015b6109526127d1565b81526020019060019003908161094a5790505b50905060005b84811015610b3a573373ffffffffffffffffffffffffffffffffffffffff16600b600060018461099b9190613120565b815260200190815260200160002060020160009054906101000a900473ffffffffffffffffffffffffffffffffffffffff1673ffffffffffffffffffffffffffffffffffffffff1603610b275760006001826109f79190613120565b90506000600b60008381526020019081526020016000209050806040518060a0016040529081600082015481526020016001820160009054906101000a900473ffffffffffffffffffffffffffffffffffffffff1673ffffffffffffffffffffffffffffffffffffffff1673ffffffffffffffffffffffffffffffffffffffff1681526020016002820160009054906101000a900473ffffffffffffffffffffffffffffffffffffffff1673ffffffffffffffffffffffffffffffffffffffff1673ffffffffffffffffffffffffffffffffffffffff168152602001600382015481526020016004820160009054906101000a900460ff161515151581525050848681518110610b0a57610b09613154565b5b6020026020010181905250600185610b229190613120565b945050505b8080610b3290613183565b91505061096b565b508094505050505090565b600073ffffffffffffffffffffffffffffffffffffffff168273ffffffffffffffffffffffffffffffffffffffff1603610bb75760006040517f64a0ae92000000000000000000000000000000000000000000000000000000008152600401610bae9190612bcb565b60405180910390fd5b6000610bcb8383610bc6611726565b611740565b90508373ffffffffffffffffffffffffffffffffffffffff168173ffffffffffffffffffffffffffffffffffffffff1614610c41578382826040517f64283d7b000000000000000000000000000000000000000000000000000000008152600401610c38939291906131cb565b60405180910390fd5b50505050565b610c6283838360405180602001604052806000815250611387565b505050565b60606000600754905060008060005b83811015610d16573373ffffffffffffffffffffffffffffffffffffffff16600b6000600184610ca69190613120565b815260200190815260200160002060010160009054906101000a900473ffffffffffffffffffffffffffffffffffffffff1673ffffffffffffffffffffffffffffffffffffffff1603610d0357600183610d009190613120565b92505b8080610d0e90613183565b915050610c76565b5060008267ffffffffffffffff811115610d3357610d32612d06565b5b604051908082528060200260200182016040528015610d6c57816020015b610d596127d1565b815260200190600190039081610d515790505b50905060005b84811015610f41573373ffffffffffffffffffffffffffffffffffffffff16600b6000600184610da29190613120565b815260200190815260200160002060010160009054906101000a900473ffffffffffffffffffffffffffffffffffffffff1673ffffffffffffffffffffffffffffffffffffffff1603610f2e576000600182610dfe9190613120565b90506000600b60008381526020019081526020016000209050806040518060a0016040529081600082015481526020016001820160009054906101000a900473ffffffffffffffffffffffffffffffffffffffff1673ffffffffffffffffffffffffffffffffffffffff1673ffffffffffffffffffffffffffffffffffffffff1681526020016002820160009054906101000a900473ffffffffffffffffffffffffffffffffffffffff1673ffffffffffffffffffffffffffffffffffffffff1673ffffffffffffffffffffffffffffffffffffffff168152602001600382015481526020016004820160009054906101000a900460ff161515151581525050848681518110610f1157610f10613154565b5b6020026020010181905250600185610f299190613120565b945050505b8080610f3990613183565b915050610d72565b508094505050505090565b6000610f5782611661565b9050919050565b60008073ffffffffffffffffffffffffffffffffffffffff168273ffffffffffffffffffffffffffffffffffffffff1603610fd15760006040517f89c62b64000000000000000000000000000000000000000000000000000000008152600401610fc89190612bcb565b60405180910390fd5b600360008373ffffffffffffffffffffffffffffffffffffffff1673ffffffffffffffffffffffffffffffffffffffff168152602001908152602001600020549050919050565b6000611030600160075461163590919063ffffffff16565b60078190555060006007549050611047338261195a565b6110518185611a53565b61105b8184611aaf565b8091505092915050565b6000600a60009054906101000a900473ffffffffffffffffffffffffffffffffffffffff16905090565b60606001805461109e9061308c565b80601f01602080910402602001604051908101604052809291908181526020018280546110ca9061308c565b80156111175780601f106110ec57610100808354040283529160200191611117565b820191906000526020600020905b8154815290600101906020018083116110fa57829003601f168201915b5050505050905090565b61113361112c611726565b8383611cb2565b5050565b6000600b60008381526020019081526020016000206003015490506000600b600084815260200190815260200160002060010160009054906101000a900473ffffffffffffffffffffffffffffffffffffffff1690508134146111cf576040517f08c379a00000000000000000000000000000000000000000000000000000000081526004016111c690613274565b60405180910390fd5b33600b600085815260200190815260200160002060020160006101000a81548173ffffffffffffffffffffffffffffffffffffffff021916908373ffffffffffffffffffffffffffffffffffffffff1602179055506001600b600085815260200190815260200160002060040160006101000a81548160ff0219169083151502179055506000600b600085815260200190815260200160002060010160006101000a81548173ffffffffffffffffffffffffffffffffffffffff021916908373ffffffffffffffffffffffffffffffffffffffff1602179055506112bf600160085461163590919063ffffffff16565b6008819055506112d0303385611e21565b600a60009054906101000a900473ffffffffffffffffffffffffffffffffffffffff1673ffffffffffffffffffffffffffffffffffffffff166108fc6009549081150290604051600060405180830381858888f1935050505015801561133a573d6000803e3d6000fd5b508073ffffffffffffffffffffffffffffffffffffffff166108fc349081150290604051600060405180830381858888f19350505050158015611381573d6000803e3d6000fd5b50505050565b611392848484610b45565b6113a661139d611726565b85858585611f8e565b50505050565b60606113b782611661565b5060006006600084815260200190815260200160002080546113d89061308c565b80601f01602080910402602001604051908101604052809291908181526020018280546114049061308c565b80156114515780601f1061142657610100808354040283529160200191611451565b820191906000526020600020905b81548152906001019060200180831161143457829003601f168201915b50505050509050600061146261213f565b905060008151036114775781925050506114ba565b6000825111156114ac5780826040516020016114949291906132d0565b604051602081830303815290604052925050506114ba565b6114b584612156565b925050505b919050565b6000600560008473ffffffffffffffffffffffffffffffffffffffff1673ffffffffffffffffffffffffffffffffffffffff16815260200190815260200160002060008373ffffffffffffffffffffffffffffffffffffffff1673ffffffffffffffffffffffffffffffffffffffff16815260200190815260200160002060009054906101000a900460ff16905092915050565b60007f80ac58cd000000000000000000000000000000000000000000000000000000007bffffffffffffffffffffffffffffffffffffffffffffffffffffffff1916827bffffffffffffffffffffffffffffffffffffffffffffffffffffffff1916148061161e57507f5b5e139f000000000000000000000000000000000000000000000000000000007bffffffffffffffffffffffffffffffffffffffffffffffffffffffff1916827bffffffffffffffffffffffffffffffffffffffffffffffffffffffff1916145b8061162e575061162d826121bf565b5b9050919050565b60008082846116449190613120565b905083811015611657576116566132f4565b5b8091505092915050565b60008061166d83612229565b9050600073ffffffffffffffffffffffffffffffffffffffff168173ffffffffffffffffffffffffffffffffffffffff16036116e057826040517f7e2732890000000000000000000000000000000000000000000000000000000081526004016116d79190612c61565b60405180910390fd5b80915050919050565b60006004600083815260200190815260200160002060009054906101000a900473ffffffffffffffffffffffffffffffffffffffff169050919050565b600033905090565b61173b8383836001612266565b505050565b60008061174c84612229565b9050600073ffffffffffffffffffffffffffffffffffffffff168373ffffffffffffffffffffffffffffffffffffffff161461178e5761178d81848661242b565b5b600073ffffffffffffffffffffffffffffffffffffffff168173ffffffffffffffffffffffffffffffffffffffff161461181f576117d0600085600080612266565b6001600360008373ffffffffffffffffffffffffffffffffffffffff1673ffffffffffffffffffffffffffffffffffffffff168152602001908152602001600020600082825403925050819055505b600073ffffffffffffffffffffffffffffffffffffffff168573ffffffffffffffffffffffffffffffffffffffff16146118a2576001600360008773ffffffffffffffffffffffffffffffffffffffff1673ffffffffffffffffffffffffffffffffffffffff168152602001908152602001600020600082825401925050819055505b846002600086815260200190815260200160002060006101000a81548173ffffffffffffffffffffffffffffffffffffffff021916908373ffffffffffffffffffffffffffffffffffffffff160217905550838573ffffffffffffffffffffffffffffffffffffffff168273ffffffffffffffffffffffffffffffffffffffff167fddf252ad1be2c89b69c2b068fc378daa952ba7f163c4a11628f55a4df523b3ef60405160405180910390a4809150509392505050565b600073ffffffffffffffffffffffffffffffffffffffff168273ffffffffffffffffffffffffffffffffffffffff16036119cc5760006040517f64a0ae920000000000000000000000000000000000000000000000000000000081526004016119c39190612bcb565b60405180910390fd5b60006119da83836000611740565b9050600073ffffffffffffffffffffffffffffffffffffffff168173ffffffffffffffffffffffffffffffffffffffff1614611a4e5760006040517f73c6ac6e000000000000000000000000000000000000000000000000000000008152600401611a459190612bcb565b60405180910390fd5b505050565b80600660008481526020019081526020016000209081611a7391906134cf565b507ff8e1a15aba9398e019f0b49df1a4fde98ee17ae345cb5f6b5e2c27f5033e8ce782604051611aa39190612c61565b60405180910390a15050565b60008111611af2576040517f08c379a0000000000000000000000000000000000000000000000000000000008152600401611ae9906135ed565b60405180910390fd5b6009543414611b36576040517f08c379a0000000000000000000000000000000000000000000000000000000008152600401611b2d9061367f565b60405180910390fd5b6040518060a001604052808381526020013373ffffffffffffffffffffffffffffffffffffffff1681526020013073ffffffffffffffffffffffffffffffffffffffff16815260200182815260200160001515815250600b60008481526020019081526020016000206000820151816000015560208201518160010160006101000a81548173ffffffffffffffffffffffffffffffffffffffff021916908373ffffffffffffffffffffffffffffffffffffffff16021790555060408201518160020160006101000a81548173ffffffffffffffffffffffffffffffffffffffff021916908373ffffffffffffffffffffffffffffffffffffffff1602179055506060820151816003015560808201518160040160006101000a81548160ff021916908315150217905550905050611c6f333084611e21565b817f3cf8eaa46d9accaa9c8e76a1b58ee317d0eac0885fb7635711309f21e5a25fb93330846000604051611ca6949392919061369f565b60405180910390a25050565b600073ffffffffffffffffffffffffffffffffffffffff168273ffffffffffffffffffffffffffffffffffffffff1603611d2357816040517f5b08ba18000000000000000000000000000000000000000000000000000000008152600401611d1a9190612bcb565b60405180910390fd5b80600560008573ffffffffffffffffffffffffffffffffffffffff1673ffffffffffffffffffffffffffffffffffffffff16815260200190815260200160002060008473ffffffffffffffffffffffffffffffffffffffff1673ffffffffffffffffffffffffffffffffffffffff16815260200190815260200160002060006101000a81548160ff0219169083151502179055508173ffffffffffffffffffffffffffffffffffffffff168373ffffffffffffffffffffffffffffffffffffffff167f17307eab39ab6107e8899845ad3d59bd9653f200f220920489ca2b5937696c3183604051611e1491906128e2565b60405180910390a3505050565b600073ffffffffffffffffffffffffffffffffffffffff168273ffffffffffffffffffffffffffffffffffffffff1603611e935760006040517f64a0ae92000000000000000000000000000000000000000000000000000000008152600401611e8a9190612bcb565b60405180910390fd5b6000611ea183836000611740565b9050600073ffffffffffffffffffffffffffffffffffffffff168173ffffffffffffffffffffffffffffffffffffffff1603611f1457816040517f7e273289000000000000000000000000000000000000000000000000000000008152600401611f0b9190612c61565b60405180910390fd5b8373ffffffffffffffffffffffffffffffffffffffff168173ffffffffffffffffffffffffffffffffffffffff1614611f88578382826040517f64283d7b000000000000000000000000000000000000000000000000000000008152600401611f7f939291906131cb565b60405180910390fd5b50505050565b60008373ffffffffffffffffffffffffffffffffffffffff163b1115612138578273ffffffffffffffffffffffffffffffffffffffff1663150b7a02868685856040518563ffffffff1660e01b8152600401611fed9493929190613739565b6020604051808303816000875af192505050801561202957506040513d601f19601f82011682018060405250810190612026919061379a565b60015b6120ad573d8060008114612059576040519150601f19603f3d011682016040523d82523d6000602084013e61205e565b606091505b5060008151036120a557836040517f64a0ae9200000000000000000000000000000000000000000000000000000000815260040161209c9190612bcb565b60405180910390fd5b805181602001fd5b63150b7a0260e01b7bffffffffffffffffffffffffffffffffffffffffffffffffffffffff1916817bffffffffffffffffffffffffffffffffffffffffffffffffffffffff19161461213657836040517f64a0ae9200000000000000000000000000000000000000000000000000000000815260040161212d9190612bcb565b60405180910390fd5b505b5050505050565b606060405180602001604052806000815250905090565b606061216182611661565b50600061216c61213f565b9050600081511161218c57604051806020016040528060008152506121b7565b80612196846124ef565b6040516020016121a79291906132d0565b6040516020818303038152906040525b915050919050565b60007f01ffc9a7000000000000000000000000000000000000000000000000000000007bffffffffffffffffffffffffffffffffffffffffffffffffffffffff1916827bffffffffffffffffffffffffffffffffffffffffffffffffffffffff1916149050919050565b60006002600083815260200190815260200160002060009054906101000a900473ffffffffffffffffffffffffffffffffffffffff169050919050565b808061229f5750600073ffffffffffffffffffffffffffffffffffffffff168273ffffffffffffffffffffffffffffffffffffffff1614155b156123d35760006122af84611661565b9050600073ffffffffffffffffffffffffffffffffffffffff168373ffffffffffffffffffffffffffffffffffffffff161415801561231a57508273ffffffffffffffffffffffffffffffffffffffff168173ffffffffffffffffffffffffffffffffffffffff1614155b801561232d575061232b81846114bf565b155b1561236f57826040517fa9fbf51f0000000000000000000000000000000000000000000000000000000081526004016123669190612bcb565b60405180910390fd5b81156123d157838573ffffffffffffffffffffffffffffffffffffffff168273ffffffffffffffffffffffffffffffffffffffff167f8c5be1e5ebec7d5bd14f71427d1e84f3dd0314c0f7b2291e5b200ac8c7c3b92560405160405180910390a45b505b836004600085815260200190815260200160002060006101000a81548173ffffffffffffffffffffffffffffffffffffffff021916908373ffffffffffffffffffffffffffffffffffffffff16021790555050505050565b6124368383836125bd565b6124ea57600073ffffffffffffffffffffffffffffffffffffffff168373ffffffffffffffffffffffffffffffffffffffff16036124ab57806040517f7e2732890000000000000000000000000000000000000000000000000000000081526004016124a29190612c61565b60405180910390fd5b81816040517f177e802f0000000000000000000000000000000000000000000000000000000081526004016124e19291906137c7565b60405180910390fd5b505050565b6060600060016124fe8461267e565b01905060008167ffffffffffffffff81111561251d5761251c612d06565b5b6040519080825280601f01601f19166020018201604052801561254f5781602001600182028036833780820191505090505b509050600082602001820190505b6001156125b2578080600190039150507f3031323334353637383961626364656600000000000000000000000000000000600a86061a8153600a85816125a6576125a56137f0565b5b0494506000850361255d575b819350505050919050565b60008073ffffffffffffffffffffffffffffffffffffffff168373ffffffffffffffffffffffffffffffffffffffff161415801561267557508273ffffffffffffffffffffffffffffffffffffffff168473ffffffffffffffffffffffffffffffffffffffff161480612636575061263584846114bf565b5b8061267457508273ffffffffffffffffffffffffffffffffffffffff1661265c836116e9565b73ffffffffffffffffffffffffffffffffffffffff16145b5b90509392505050565b600080600090507a184f03e93ff9f4daa797ed6e38ed64bf6a1f01000000000000000083106126dc577a184f03e93ff9f4daa797ed6e38ed64bf6a1f01000000000000000083816126d2576126d16137f0565b5b0492506040810190505b6d04ee2d6d415b85acef81000000008310612719576d04ee2d6d415b85acef8100000000838161270f5761270e6137f0565b5b0492506020810190505b662386f26fc10000831061274857662386f26fc10000838161273e5761273d6137f0565b5b0492506010810190505b6305f5e1008310612771576305f5e1008381612767576127666137f0565b5b0492506008810190505b612710831061279657612710838161278c5761278b6137f0565b5b0492506004810190505b606483106127b957606483816127af576127ae6137f0565b5b0492506002810190505b600a83106127c8576001810190505b80915050919050565b6040518060a0016040528060008152602001600073ffffffffffffffffffffffffffffffffffffffff168152602001600073ffffffffffffffffffffffffffffffffffffffff168152602001600081526020016000151581525090565b6000604051905090565b600080fd5b600080fd5b60007fffffffff0000000000000000000000000000000000000000000000000000000082169050919050565b61287781612842565b811461288257600080fd5b50565b6000813590506128948161286e565b92915050565b6000602082840312156128b0576128af612838565b5b60006128be84828501612885565b91505092915050565b60008115159050919050565b6128dc816128c7565b82525050565b60006020820190506128f760008301846128d3565b92915050565b600081519050919050565b600082825260208201905092915050565b60005b8381101561293757808201518184015260208101905061291c565b60008484015250505050565b6000601f19601f8301169050919050565b600061295f826128fd565b6129698185612908565b9350612979818560208601612919565b61298281612943565b840191505092915050565b600060208201905081810360008301526129a78184612954565b905092915050565b600081519050919050565b600082825260208201905092915050565b6000819050602082019050919050565b6000819050919050565b6129ee816129db565b82525050565b600073ffffffffffffffffffffffffffffffffffffffff82169050919050565b6000612a1f826129f4565b9050919050565b612a2f81612a14565b82525050565b612a3e816128c7565b82525050565b60a082016000820151612a5a60008501826129e5565b506020820151612a6d6020850182612a26565b506040820151612a806040850182612a26565b506060820151612a9360608501826129e5565b506080820151612aa66080850182612a35565b50505050565b6000612ab88383612a44565b60a08301905092915050565b6000602082019050919050565b6000612adc826129af565b612ae681856129ba565b9350612af1836129cb565b8060005b83811015612b22578151612b098882612aac565b9750612b1483612ac4565b925050600181019050612af5565b5085935050505092915050565b60006020820190508181036000830152612b498184612ad1565b905092915050565b612b5a816129db565b8114612b6557600080fd5b50565b600081359050612b7781612b51565b92915050565b600060208284031215612b9357612b92612838565b5b6000612ba184828501612b68565b91505092915050565b6000612bb5826129f4565b9050919050565b612bc581612baa565b82525050565b6000602082019050612be06000830184612bbc565b92915050565b612bef81612baa565b8114612bfa57600080fd5b50565b600081359050612c0c81612be6565b92915050565b60008060408385031215612c2957612c28612838565b5b6000612c3785828601612bfd565b9250506020612c4885828601612b68565b9150509250929050565b612c5b816129db565b82525050565b6000602082019050612c766000830184612c52565b92915050565b600080600060608486031215612c9557612c94612838565b5b6000612ca386828701612bfd565b9350506020612cb486828701612bfd565b9250506040612cc586828701612b68565b9150509250925092565b600060208284031215612ce557612ce4612838565b5b6000612cf384828501612bfd565b91505092915050565b600080fd5b600080fd5b7f4e487b7100000000000000000000000000000000000000000000000000000000600052604160045260246000fd5b612d3e82612943565b810181811067ffffffffffffffff82111715612d5d57612d5c612d06565b5b80604052505050565b6000612d7061282e565b9050612d7c8282612d35565b919050565b600067ffffffffffffffff821115612d9c57612d9b612d06565b5b612da582612943565b9050602081019050919050565b82818337600083830152505050565b6000612dd4612dcf84612d81565b612d66565b905082815260208101848484011115612df057612def612d01565b5b612dfb848285612db2565b509392505050565b600082601f830112612e1857612e17612cfc565b5b8135612e28848260208601612dc1565b91505092915050565b60008060408385031215612e4857612e47612838565b5b600083013567ffffffffffffffff811115612e6657612e6561283d565b5b612e7285828601612e03565b9250506020612e8385828601612b68565b9150509250929050565b612e96816128c7565b8114612ea157600080fd5b50565b600081359050612eb381612e8d565b92915050565b60008060408385031215612ed057612ecf612838565b5b6000612ede85828601612bfd565b9250506020612eef85828601612ea4565b9150509250929050565b600067ffffffffffffffff821115612f1457612f13612d06565b5b612f1d82612943565b9050602081019050919050565b6000612f3d612f3884612ef9565b612d66565b905082815260208101848484011115612f5957612f58612d01565b5b612f64848285612db2565b509392505050565b600082601f830112612f8157612f80612cfc565b5b8135612f91848260208601612f2a565b91505092915050565b60008060008060808587031215612fb457612fb3612838565b5b6000612fc287828801612bfd565b9450506020612fd387828801612bfd565b9350506040612fe487828801612b68565b925050606085013567ffffffffffffffff8111156130055761300461283d565b5b61301187828801612f6c565b91505092959194509250565b6000806040838503121561303457613033612838565b5b600061304285828601612bfd565b925050602061305385828601612bfd565b9150509250929050565b7f4e487b7100000000000000000000000000000000000000000000000000000000600052602260045260246000fd5b600060028204905060018216806130a457607f821691505b6020821081036130b7576130b661305d565b5b50919050565b7f4e487b7100000000000000000000000000000000000000000000000000000000600052601160045260246000fd5b60006130f7826129db565b9150613102836129db565b925082820390508181111561311a576131196130bd565b5b92915050565b600061312b826129db565b9150613136836129db565b925082820190508082111561314e5761314d6130bd565b5b92915050565b7f4e487b7100000000000000000000000000000000000000000000000000000000600052603260045260246000fd5b600061318e826129db565b91507fffffffffffffffffffffffffffffffffffffffffffffffffffffffffffffffff82036131c0576131bf6130bd565b5b600182019050919050565b60006060820190506131e06000830186612bbc565b6131ed6020830185612c52565b6131fa6040830184612bbc565b949350505050565b7f506c65617365207375626d6974207468652061736b696e67207072696365206960008201527f6e206f7264657220746f20636f6d706c65746520746865207075726368617365602082015250565b600061325e604083612908565b915061326982613202565b604082019050919050565b6000602082019050818103600083015261328d81613251565b9050919050565b600081905092915050565b60006132aa826128fd565b6132b48185613294565b93506132c4818560208601612919565b80840191505092915050565b60006132dc828561329f565b91506132e8828461329f565b91508190509392505050565b7f4e487b7100000000000000000000000000000000000000000000000000000000600052600160045260246000fd5b60008190508160005260206000209050919050565b60006020601f8301049050919050565b600082821b905092915050565b6000600883026133857fffffffffffffffffffffffffffffffffffffffffffffffffffffffffffffffff82613348565b61338f8683613348565b95508019841693508086168417925050509392505050565b6000819050919050565b60006133cc6133c76133c2846129db565b6133a7565b6129db565b9050919050565b6000819050919050565b6133e6836133b1565b6133fa6133f2826133d3565b848454613355565b825550505050565b600090565b61340f613402565b61341a8184846133dd565b505050565b5b8181101561343e57613433600082613407565b600181019050613420565b5050565b601f8211156134835761345481613323565b61345d84613338565b8101602085101561346c578190505b61348061347885613338565b83018261341f565b50505b505050565b600082821c905092915050565b60006134a660001984600802613488565b1980831691505092915050565b60006134bf8383613495565b9150826002028217905092915050565b6134d8826128fd565b67ffffffffffffffff8111156134f1576134f0612d06565b5b6134fb825461308c565b613506828285613442565b600060209050601f8311600181146135395760008415613527578287015190505b61353185826134b3565b865550613599565b601f19841661354786613323565b60005b8281101561356f5784890151825560018201915060208501945060208101905061354a565b8683101561358c5784890151613588601f891682613495565b8355505b6001600288020188555050505b505050505050565b7f5072696365206d757374206265206174206c6561737420312077656900000000600082015250565b60006135d7601c83612908565b91506135e2826135a1565b602082019050919050565b60006020820190508181036000830152613606816135ca565b9050919050565b7f45746865722073656e74206d75737420626520657175616c20746f206c69737460008201527f696e672070726963650000000000000000000000000000000000000000000000602082015250565b6000613669602983612908565b91506136748261360d565b604082019050919050565b600060208201905081810360008301526136988161365c565b9050919050565b60006080820190506136b46000830187612bbc565b6136c16020830186612bbc565b6136ce6040830185612c52565b6136db60608301846128d3565b95945050505050565b600081519050919050565b600082825260208201905092915050565b600061370b826136e4565b61371581856136ef565b9350613725818560208601612919565b61372e81612943565b840191505092915050565b600060808201905061374e6000830187612bbc565b61375b6020830186612bbc565b6137686040830185612c52565b818103606083015261377a8184613700565b905095945050505050565b6000815190506137948161286e565b92915050565b6000602082840312156137b0576137af612838565b5b60006137be84828501613785565b91505092915050565b60006040820190506137dc6000830185612bbc565b6137e96020830184612c52565b9392505050565b7f4e487b7100000000000000000000000000000000000000000000000000000000600052601260045260246000fdfea26469706673582212207a1947ebedcdb8a214ec4a684af9d930eeb29a91a065132b14fca6856a57dbf064736f6c63430008140033",
    "linkReferences": {},
    "deployedLinkReferences": {}
}