{
  "_format": "hh-sol-artifact-1",
  "contractName": "NFTplace",
  "sourceName": "contracts/test.sol",
  "abi": [
    {
      "inputs": [],
      "stateMutability": "nonpayable",
      "type": "constructor"
    },
    {
      "inputs": [
        {
          "internalType": "address",
          "name": "sender",
          "type": "address"
        },
        {
          "internalType": "uint256",
          "name": "tokenId",
          "type": "uint256"
        },
        {
          "internalType": "address",
          "name": "owner",
          "type": "address"
        }
      ],
      "name": "ERC721IncorrectOwner",
      "type": "error"
    },
    {
      "inputs": [
        {
          "internalType": "address",
          "name": "operator",
          "type": "address"
        },
        {
          "internalType": "uint256",
          "name": "tokenId",
          "type": "uint256"
        }
      ],
      "name": "ERC721InsufficientApproval",
      "type": "error"
    },
    {
      "inputs": [
        {
          "internalType": "address",
          "name": "approver",
          "type": "address"
        }
      ],
      "name": "ERC721InvalidApprover",
      "type": "error"
    },
    {
      "inputs": [
        {
          "internalType": "address",
          "name": "operator",
          "type": "address"
        }
      ],
      "name": "ERC721InvalidOperator",
      "type": "error"
    },
    {
      "inputs": [
        {
          "internalType": "address",
          "name": "owner",
          "type": "address"
        }
      ],
      "name": "ERC721InvalidOwner",
      "type": "error"
    },
    {
      "inputs": [
        {
          "internalType": "address",
          "name": "receiver",
          "type": "address"
        }
      ],
      "name": "ERC721InvalidReceiver",
      "type": "error"
    },
    {
      "inputs": [
        {
          "internalType": "address",
          "name": "sender",
          "type": "address"
        }
      ],
      "name": "ERC721InvalidSender",
      "type": "error"
    },
    {
      "inputs": [
        {
          "internalType": "uint256",
          "name": "tokenId",
          "type": "uint256"
        }
      ],
      "name": "ERC721NonexistentToken",
      "type": "error"
    },
    {
      "anonymous": false,
      "inputs": [
        {
          "indexed": true,
          "internalType": "address",
          "name": "owner",
          "type": "address"
        },
        {
          "indexed": true,
          "internalType": "address",
          "name": "approved",
          "type": "address"
        },
        {
          "indexed": true,
          "internalType": "uint256",
          "name": "tokenId",
          "type": "uint256"
        }
      ],
      "name": "Approval",
      "type": "event"
    },
    {
      "anonymous": false,
      "inputs": [
        {
          "indexed": true,
          "internalType": "address",
          "name": "owner",
          "type": "address"
        },
        {
          "indexed": true,
          "internalType": "address",
          "name": "operator",
          "type": "address"
        },
        {
          "indexed": false,
          "internalType": "bool",
          "name": "approved",
          "type": "bool"
        }
      ],
      "name": "ApprovalForAll",
      "type": "event"
    },
    {
      "anonymous": false,
      "inputs": [
        {
          "indexed": false,
          "internalType": "uint256",
          "name": "_fromTokenId",
          "type": "uint256"
        },
        {
          "indexed": false,
          "internalType": "uint256",
          "name": "_toTokenId",
          "type": "uint256"
        }
      ],
      "name": "BatchMetadataUpdate",
      "type": "event"
    },
    {
      "anonymous": false,
      "inputs": [
        {
          "indexed": true,
          "internalType": "uint256",
          "name": "tokenId",
          "type": "uint256"
        },
        {
          "indexed": false,
          "internalType": "address",
          "name": "seller",
          "type": "address"
        },
        {
          "indexed": false,
          "internalType": "address",
          "name": "owner",
          "type": "address"
        },
        {
          "indexed": false,
          "internalType": "uint256",
          "name": "price",
          "type": "uint256"
        },
        {
          "indexed": false,
          "internalType": "bool",
          "name": "sold",
          "type": "bool"
        }
      ],
      "name": "ListingCreated",
      "type": "event"
    },
    {
      "anonymous": false,
      "inputs": [
        {
          "indexed": true,
          "internalType": "uint256",
          "name": "tokenId",
          "type": "uint256"
        },
        {
          "indexed": false,
          "internalType": "address",
          "name": "seller",
          "type": "address"
        }
      ],
      "name": "ListingRemoved",
      "type": "event"
    },
    {
      "anonymous": false,
      "inputs": [
        {
          "indexed": false,
          "internalType": "uint256",
          "name": "_tokenId",
          "type": "uint256"
        }
      ],
      "name": "MetadataUpdate",
      "type": "event"
    },
    {
      "anonymous": false,
      "inputs": [
        {
          "indexed": true,
          "internalType": "address",
          "name": "from",
          "type": "address"
        },
        {
          "indexed": true,
          "internalType": "address",
          "name": "to",
          "type": "address"
        },
        {
          "indexed": true,
          "internalType": "uint256",
          "name": "tokenId",
          "type": "uint256"
        }
      ],
      "name": "Transfer",
      "type": "event"
    },
    {
      "inputs": [
        {
          "internalType": "address",
          "name": "to",
          "type": "address"
        },
        {
          "internalType": "uint256",
          "name": "tokenId",
          "type": "uint256"
        }
      ],
      "name": "approve",
      "outputs": [],
      "stateMutability": "nonpayable",
      "type": "function"
    },
    {
      "inputs": [
        {
          "internalType": "address",
          "name": "owner",
          "type": "address"
        }
      ],
      "name": "balanceOf",
      "outputs": [
        {
          "internalType": "uint256",
          "name": "",
          "type": "uint256"
        }
      ],
      "stateMutability": "view",
      "type": "function"
    },
    {
      "inputs": [
        {
          "internalType": "string",
          "name": "tokenURI",
          "type": "string"
        },
        {
          "internalType": "address",
          "name": "recipient",
          "type": "address"
        }
      ],
      "name": "createToken",
      "outputs": [
        {
          "internalType": "uint256",
          "name": "",
          "type": "uint256"
        }
      ],
      "stateMutability": "payable",
      "type": "function"
    },
    {
      "inputs": [],
      "name": "fetchItemsListed",
      "outputs": [
        {
          "components": [
            {
              "internalType": "uint256",
              "name": "tokenId",
              "type": "uint256"
            },
            {
              "internalType": "address payable",
              "name": "seller",
              "type": "address"
            },
            {
              "internalType": "address payable",
              "name": "owner",
              "type": "address"
            },
            {
              "internalType": "uint256",
              "name": "price",
              "type": "uint256"
            },
            {
              "internalType": "bool",
              "name": "sold",
              "type": "bool"
            }
          ],
          "internalType": "struct NFTplace.Listing[]",
          "name": "",
          "type": "tuple[]"
        }
      ],
      "stateMutability": "view",
      "type": "function"
    },
    {
      "inputs": [],
      "name": "fetchListingMarketplace",
      "outputs": [
        {
          "components": [
            {
              "internalType": "uint256",
              "name": "tokenId",
              "type": "uint256"
            },
            {
              "internalType": "address payable",
              "name": "seller",
              "type": "address"
            },
            {
              "internalType": "address payable",
              "name": "owner",
              "type": "address"
            },
            {
              "internalType": "uint256",
              "name": "price",
              "type": "uint256"
            },
            {
              "internalType": "bool",
              "name": "sold",
              "type": "bool"
            }
          ],
          "internalType": "struct NFTplace.Listing[]",
          "name": "",
          "type": "tuple[]"
        }
      ],
      "stateMutability": "view",
      "type": "function"
    },
    {
      "inputs": [],
      "name": "fetchMyNFTs",
      "outputs": [
        {
          "components": [
            {
              "internalType": "uint256",
              "name": "tokenId",
              "type": "uint256"
            },
            {
              "internalType": "address payable",
              "name": "seller",
              "type": "address"
            },
            {
              "internalType": "address payable",
              "name": "owner",
              "type": "address"
            },
            {
              "internalType": "uint256",
              "name": "price",
              "type": "uint256"
            },
            {
              "internalType": "bool",
              "name": "sold",
              "type": "bool"
            }
          ],
          "internalType": "struct NFTplace.Listing[]",
          "name": "",
          "type": "tuple[]"
        }
      ],
      "stateMutability": "view",
      "type": "function"
    },
    {
      "inputs": [
        {
          "internalType": "uint256",
          "name": "tokenId",
          "type": "uint256"
        }
      ],
      "name": "getApproved",
      "outputs": [
        {
          "internalType": "address",
          "name": "",
          "type": "address"
        }
      ],
      "stateMutability": "view",
      "type": "function"
    },
    {
      "inputs": [],
      "name": "getContractOwner",
      "outputs": [
        {
          "internalType": "address",
          "name": "",
          "type": "address"
        }
      ],
      "stateMutability": "view",
      "type": "function"
    },
    {
      "inputs": [],
      "name": "getListingPrice",
      "outputs": [
        {
          "internalType": "uint256",
          "name": "",
          "type": "uint256"
        }
      ],
      "stateMutability": "view",
      "type": "function"
    },
    {
      "inputs": [
        {
          "internalType": "address",
          "name": "owner",
          "type": "address"
        },
        {
          "internalType": "address",
          "name": "operator",
          "type": "address"
        }
      ],
      "name": "isApprovedForAll",
      "outputs": [
        {
          "internalType": "bool",
          "name": "",
          "type": "bool"
        }
      ],
      "stateMutability": "view",
      "type": "function"
    },
    {
      "inputs": [
        {
          "internalType": "uint256",
          "name": "tokenId",
          "type": "uint256"
        },
        {
          "internalType": "uint256",
          "name": "price",
          "type": "uint256"
        }
      ],
      "name": "listCard",
      "outputs": [],
      "stateMutability": "payable",
      "type": "function"
    },
    {
      "inputs": [],
      "name": "name",
      "outputs": [
        {
          "internalType": "string",
          "name": "",
          "type": "string"
        }
      ],
      "stateMutability": "view",
      "type": "function"
    },
    {
      "inputs": [
        {
          "internalType": "uint256",
          "name": "tokenId",
          "type": "uint256"
        }
      ],
      "name": "ownerOf",
      "outputs": [
        {
          "internalType": "address",
          "name": "",
          "type": "address"
        }
      ],
      "stateMutability": "view",
      "type": "function"
    },
    {
      "inputs": [
        {
          "internalType": "uint256",
          "name": "tokenId",
          "type": "uint256"
        }
      ],
      "name": "purchaseCard",
      "outputs": [],
      "stateMutability": "payable",
      "type": "function"
    },
    {
      "inputs": [
        {
          "internalType": "address",
          "name": "from",
          "type": "address"
        },
        {
          "internalType": "address",
          "name": "to",
          "type": "address"
        },
        {
          "internalType": "uint256",
          "name": "tokenId",
          "type": "uint256"
        }
      ],
      "name": "safeTransferFrom",
      "outputs": [],
      "stateMutability": "nonpayable",
      "type": "function"
    },
    {
      "inputs": [
        {
          "internalType": "address",
          "name": "from",
          "type": "address"
        },
        {
          "internalType": "address",
          "name": "to",
          "type": "address"
        },
        {
          "internalType": "uint256",
          "name": "tokenId",
          "type": "uint256"
        },
        {
          "internalType": "bytes",
          "name": "data",
          "type": "bytes"
        }
      ],
      "name": "safeTransferFrom",
      "outputs": [],
      "stateMutability": "nonpayable",
      "type": "function"
    },
    {
      "inputs": [
        {
          "internalType": "address",
          "name": "operator",
          "type": "address"
        },
        {
          "internalType": "bool",
          "name": "approved",
          "type": "bool"
        }
      ],
      "name": "setApprovalForAll",
      "outputs": [],
      "stateMutability": "nonpayable",
      "type": "function"
    },
    {
      "inputs": [
        {
          "internalType": "bytes4",
          "name": "interfaceId",
          "type": "bytes4"
        }
      ],
      "name": "supportsInterface",
      "outputs": [
        {
          "internalType": "bool",
          "name": "",
          "type": "bool"
        }
      ],
      "stateMutability": "view",
      "type": "function"
    },
    {
      "inputs": [],
      "name": "symbol",
      "outputs": [
        {
          "internalType": "string",
          "name": "",
          "type": "string"
        }
      ],
      "stateMutability": "view",
      "type": "function"
    },
    {
      "inputs": [
        {
          "internalType": "uint256",
          "name": "tokenId",
          "type": "uint256"
        }
      ],
      "name": "tokenURI",
      "outputs": [
        {
          "internalType": "string",
          "name": "",
          "type": "string"
        }
      ],
      "stateMutability": "view",
      "type": "function"
    },
    {
      "inputs": [
        {
          "internalType": "address",
          "name": "from",
          "type": "address"
        },
        {
          "internalType": "address",
          "name": "to",
          "type": "address"
        },
        {
          "internalType": "uint256",
          "name": "tokenId",
          "type": "uint256"
        }
      ],
      "name": "transferFrom",
      "outputs": [],
      "stateMutability": "nonpayable",
      "type": "function"
    }
  ],
  "bytecode": "0x6080604052655af3107a40006009553480156200001b57600080fd5b506040518060400160405280600c81526020017f5a6f6465636b20436172647300000000000000000000000000000000000000008152506040518060400160405280600381526020017f5a444b000000000000000000000000000000000000000000000000000000000081525081600090816200009991906200036f565b508060019081620000ab91906200036f565b50505033600a60006101000a81548173ffffffffffffffffffffffffffffffffffffffff021916908373ffffffffffffffffffffffffffffffffffffffff16021790555062000456565b600081519050919050565b7f4e487b7100000000000000000000000000000000000000000000000000000000600052604160045260246000fd5b7f4e487b7100000000000000000000000000000000000000000000000000000000600052602260045260246000fd5b600060028204905060018216806200017757607f821691505b6020821081036200018d576200018c6200012f565b5b50919050565b60008190508160005260206000209050919050565b60006020601f8301049050919050565b600082821b905092915050565b600060088302620001f77fffffffffffffffffffffffffffffffffffffffffffffffffffffffffffffffff82620001b8565b620002038683620001b8565b95508019841693508086168417925050509392505050565b6000819050919050565b6000819050919050565b6000620002506200024a62000244846200021b565b62000225565b6200021b565b9050919050565b6000819050919050565b6200026c836200022f565b620002846200027b8262000257565b848454620001c5565b825550505050565b600090565b6200029b6200028c565b620002a881848462000261565b505050565b5b81811015620002d057620002c460008262000291565b600181019050620002ae565b5050565b601f8211156200031f57620002e98162000193565b620002f484620001a8565b8101602085101562000304578190505b6200031c6200031385620001a8565b830182620002ad565b50505b505050565b600082821c905092915050565b6000620003446000198460080262000324565b1980831691505092915050565b60006200035f838362000331565b9150826002028217905092915050565b6200037a82620000f5565b67ffffffffffffffff81111562000396576200039562000100565b5b620003a282546200015e565b620003af828285620002d4565b600060209050601f831160018114620003e75760008415620003d2578287015190505b620003de858262000351565b8655506200044e565b601f198416620003f78662000193565b60005b828110156200042157848901518255600182019150602085019450602081019050620003fa565b868310156200044157848901516200043d601f89168262000331565b8355505b6001600288020188555050505b505050505050565b61387780620004666000396000f3fe60806040526004361061012a5760003560e01c806345f8fa80116100ab578063a22cb4651161006f578063a22cb465146103fb578063a54447aa14610424578063b88d4fde14610440578063c87b56dd14610469578063e985e9c5146104a6578063ed36c52f146104e35761012a565b806345f8fa80146102fb5780636352211e1461032657806370a082311461036357806395d89b41146103a0578063a2119377146103cb5761012a565b806312e85585116100f257806312e8558514610228578063202e37401461025357806323b872dd1461027e57806342842e0e146102a7578063442890d5146102d05761012a565b806301ffc9a71461012f57806306fdde031461016c57806307c11e0d14610197578063081812fc146101c2578063095ea7b3146101ff575b600080fd5b34801561013b57600080fd5b50610156600480360381019061015191906129a0565b6104ff565b60405161016391906129e8565b60405180910390f35b34801561017857600080fd5b50610181610560565b60405161018e9190612a93565b60405180910390f35b3480156101a357600080fd5b506101ac6105f2565b6040516101b99190612c35565b60405180910390f35b3480156101ce57600080fd5b506101e960048036038101906101e49190612c83565b610839565b6040516101f69190612cd1565b60405180910390f35b34801561020b57600080fd5b5061022660048036038101906102219190612d18565b610855565b005b34801561023457600080fd5b5061023d61086b565b60405161024a9190612d67565b60405180910390f35b34801561025f57600080fd5b50610268610875565b6040516102759190612c35565b60405180910390f35b34801561028a57600080fd5b506102a560048036038101906102a09190612d82565b610b68565b005b3480156102b357600080fd5b506102ce60048036038101906102c99190612d82565b610c6a565b005b3480156102dc57600080fd5b506102e5610c8a565b6040516102f29190612cd1565b60405180910390f35b34801561030757600080fd5b50610310610cb4565b60405161031d9190612c35565b60405180910390f35b34801561033257600080fd5b5061034d60048036038101906103489190612c83565b610fa7565b60405161035a9190612cd1565b60405180910390f35b34801561036f57600080fd5b5061038a60048036038101906103859190612dd5565b610fb9565b6040516103979190612d67565b60405180910390f35b3480156103ac57600080fd5b506103b5611073565b6040516103c29190612a93565b60405180910390f35b6103e560048036038101906103e09190612f37565b611105565b6040516103f29190612d67565b60405180910390f35b34801561040757600080fd5b50610422600480360381019061041d9190612fbf565b611278565b005b61043e60048036038101906104399190612c83565b61128e565b005b34801561044c57600080fd5b50610467600480360381019061046291906130a0565b611480565b005b34801561047557600080fd5b50610490600480360381019061048b9190612c83565b6114a5565b60405161049d9190612a93565b60405180910390f35b3480156104b257600080fd5b506104cd60048036038101906104c89190613123565b6115b8565b6040516104da91906129e8565b60405180910390f35b6104fd60048036038101906104f89190613163565b61164c565b005b6000634906490660e01b7bffffffffffffffffffffffffffffffffffffffffffffffffffffffff1916827bffffffffffffffffffffffffffffffffffffffffffffffffffffffff1916148061055957506105588261165a565b5b9050919050565b60606000805461056f906131d2565b80601f016020809104026020016040519081016040528092919081815260200182805461059b906131d2565b80156105e85780601f106105bd576101008083540402835291602001916105e8565b820191906000526020600020905b8154815290600101906020018083116105cb57829003601f168201915b5050505050905090565b60606000600754905060008060085467ffffffffffffffff81111561061a57610619612e0c565b5b60405190808252806020026020018201604052801561065357816020015b6106406128d7565b8152602001906001900390816106385790505b50905060005b8381101561082f573073ffffffffffffffffffffffffffffffffffffffff16600b60006001846106899190613232565b815260200190815260200160002060020160009054906101000a900473ffffffffffffffffffffffffffffffffffffffff1673ffffffffffffffffffffffffffffffffffffffff160361081c5760006001826106e59190613232565b90506000600b60008381526020019081526020016000209050806040518060a0016040529081600082015481526020016001820160009054906101000a900473ffffffffffffffffffffffffffffffffffffffff1673ffffffffffffffffffffffffffffffffffffffff1673ffffffffffffffffffffffffffffffffffffffff1681526020016002820160009054906101000a900473ffffffffffffffffffffffffffffffffffffffff1673ffffffffffffffffffffffffffffffffffffffff1673ffffffffffffffffffffffffffffffffffffffff168152602001600382015481526020016004820160009054906101000a900460ff1615151515815250508486815181106107f8576107f7613266565b5b602002602001018190525061081760018661173c90919063ffffffff16565b945050505b808061082790613295565b915050610659565b5080935050505090565b600061084482611768565b5061084e826117f0565b9050919050565b610867828261086261182d565b611835565b5050565b6000600954905090565b60606000600754905060008060005b8381101561092b573373ffffffffffffffffffffffffffffffffffffffff16600b60006001846108b49190613232565b815260200190815260200160002060020160009054906101000a900473ffffffffffffffffffffffffffffffffffffffff1673ffffffffffffffffffffffffffffffffffffffff16036109185761091560018461173c90919063ffffffff16565b92505b808061092390613295565b915050610884565b5060008267ffffffffffffffff81111561094857610947612e0c565b5b60405190808252806020026020018201604052801561098157816020015b61096e6128d7565b8152602001906001900390816109665790505b50905060005b84811015610b5d573373ffffffffffffffffffffffffffffffffffffffff16600b60006001846109b79190613232565b815260200190815260200160002060020160009054906101000a900473ffffffffffffffffffffffffffffffffffffffff1673ffffffffffffffffffffffffffffffffffffffff1603610b4a576000600182610a139190613232565b90506000600b60008381526020019081526020016000209050806040518060a0016040529081600082015481526020016001820160009054906101000a900473ffffffffffffffffffffffffffffffffffffffff1673ffffffffffffffffffffffffffffffffffffffff1673ffffffffffffffffffffffffffffffffffffffff1681526020016002820160009054906101000a900473ffffffffffffffffffffffffffffffffffffffff1673ffffffffffffffffffffffffffffffffffffffff1673ffffffffffffffffffffffffffffffffffffffff168152602001600382015481526020016004820160009054906101000a900460ff161515151581525050848681518110610b2657610b25613266565b5b6020026020010181905250610b4560018661173c90919063ffffffff16565b945050505b8080610b5590613295565b915050610987565b508094505050505090565b600073ffffffffffffffffffffffffffffffffffffffff168273ffffffffffffffffffffffffffffffffffffffff1603610bda5760006040517f64a0ae92000000000000000000000000000000000000000000000000000000008152600401610bd19190612cd1565b60405180910390fd5b6000610bee8383610be961182d565b611847565b90508373ffffffffffffffffffffffffffffffffffffffff168173ffffffffffffffffffffffffffffffffffffffff1614610c64578382826040517f64283d7b000000000000000000000000000000000000000000000000000000008152600401610c5b939291906132dd565b60405180910390fd5b50505050565b610c8583838360405180602001604052806000815250611480565b505050565b6000600a60009054906101000a900473ffffffffffffffffffffffffffffffffffffffff16905090565b60606000600754905060008060005b83811015610d6a573373ffffffffffffffffffffffffffffffffffffffff16600b6000600184610cf39190613232565b815260200190815260200160002060010160009054906101000a900473ffffffffffffffffffffffffffffffffffffffff1673ffffffffffffffffffffffffffffffffffffffff1603610d5757610d5460018461173c90919063ffffffff16565b92505b8080610d6290613295565b915050610cc3565b5060008267ffffffffffffffff811115610d8757610d86612e0c565b5b604051908082528060200260200182016040528015610dc057816020015b610dad6128d7565b815260200190600190039081610da55790505b50905060005b84811015610f9c573373ffffffffffffffffffffffffffffffffffffffff16600b6000600184610df69190613232565b815260200190815260200160002060010160009054906101000a900473ffffffffffffffffffffffffffffffffffffffff1673ffffffffffffffffffffffffffffffffffffffff1603610f89576000600182610e529190613232565b90506000600b60008381526020019081526020016000209050806040518060a0016040529081600082015481526020016001820160009054906101000a900473ffffffffffffffffffffffffffffffffffffffff1673ffffffffffffffffffffffffffffffffffffffff1673ffffffffffffffffffffffffffffffffffffffff1681526020016002820160009054906101000a900473ffffffffffffffffffffffffffffffffffffffff1673ffffffffffffffffffffffffffffffffffffffff1673ffffffffffffffffffffffffffffffffffffffff168152602001600382015481526020016004820160009054906101000a900460ff161515151581525050848681518110610f6557610f64613266565b5b6020026020010181905250610f8460018661173c90919063ffffffff16565b945050505b8080610f9490613295565b915050610dc6565b508094505050505090565b6000610fb282611768565b9050919050565b60008073ffffffffffffffffffffffffffffffffffffffff168273ffffffffffffffffffffffffffffffffffffffff160361102c5760006040517f89c62b640000000000000000000000000000000000000000000000000000000081526004016110239190612cd1565b60405180910390fd5b600360008373ffffffffffffffffffffffffffffffffffffffff1673ffffffffffffffffffffffffffffffffffffffff168152602001908152602001600020549050919050565b606060018054611082906131d2565b80601f01602080910402602001604051908101604052809291908181526020018280546110ae906131d2565b80156110fb5780601f106110d0576101008083540402835291602001916110fb565b820191906000526020600020905b8154815290600101906020018083116110de57829003601f168201915b5050505050905090565b600061111d600160075461173c90919063ffffffff16565b600781905550600060075490506111348382611a61565b61113e8185611b5a565b6040518060a00160405280828152602001600073ffffffffffffffffffffffffffffffffffffffff1681526020018473ffffffffffffffffffffffffffffffffffffffff1681526020016000815260200160011515815250600b60008381526020019081526020016000206000820151816000015560208201518160010160006101000a81548173ffffffffffffffffffffffffffffffffffffffff021916908373ffffffffffffffffffffffffffffffffffffffff16021790555060408201518160020160006101000a81548173ffffffffffffffffffffffffffffffffffffffff021916908373ffffffffffffffffffffffffffffffffffffffff1602179055506060820151816003015560808201518160040160006101000a81548160ff0219169083151502179055509050508091505092915050565b61128a61128361182d565b8383611bb6565b5050565b6000600b600083815260200190815260200160002060010160009054906101000a900473ffffffffffffffffffffffffffffffffffffffff16905033600b600084815260200190815260200160002060020160006101000a81548173ffffffffffffffffffffffffffffffffffffffff021916908373ffffffffffffffffffffffffffffffffffffffff1602179055506001600b600084815260200190815260200160002060040160006101000a81548160ff0219169083151502179055506000600b600084815260200190815260200160002060010160006101000a81548173ffffffffffffffffffffffffffffffffffffffff021916908373ffffffffffffffffffffffffffffffffffffffff1602179055506113b96001600854611d2590919063ffffffff16565b6008819055506113ca303384611d4c565b600a60009054906101000a900473ffffffffffffffffffffffffffffffffffffffff1673ffffffffffffffffffffffffffffffffffffffff166108fc6009549081150290604051600060405180830381858888f19350505050158015611434573d6000803e3d6000fd5b508073ffffffffffffffffffffffffffffffffffffffff166108fc349081150290604051600060405180830381858888f1935050505015801561147b573d6000803e3d6000fd5b505050565b61148b848484610b68565b61149f61149661182d565b85858585611eb9565b50505050565b60606114b082611768565b5060006006600084815260200190815260200160002080546114d1906131d2565b80601f01602080910402602001604051908101604052809291908181526020018280546114fd906131d2565b801561154a5780601f1061151f5761010080835404028352916020019161154a565b820191906000526020600020905b81548152906001019060200180831161152d57829003601f168201915b50505050509050600061155b61206a565b905060008151036115705781925050506115b3565b6000825111156115a557808260405160200161158d929190613350565b604051602081830303815290604052925050506115b3565b6115ae84612081565b925050505b919050565b6000600560008473ffffffffffffffffffffffffffffffffffffffff1673ffffffffffffffffffffffffffffffffffffffff16815260200190815260200160002060008373ffffffffffffffffffffffffffffffffffffffff1673ffffffffffffffffffffffffffffffffffffffff16815260200190815260200160002060009054906101000a900460ff16905092915050565b61165682826120ea565b5050565b60007f80ac58cd000000000000000000000000000000000000000000000000000000007bffffffffffffffffffffffffffffffffffffffffffffffffffffffff1916827bffffffffffffffffffffffffffffffffffffffffffffffffffffffff1916148061172557507f5b5e139f000000000000000000000000000000000000000000000000000000007bffffffffffffffffffffffffffffffffffffffffffffffffffffffff1916827bffffffffffffffffffffffffffffffffffffffffffffffffffffffff1916145b806117355750611734826122c5565b5b9050919050565b600080828461174b9190613232565b90508381101561175e5761175d613374565b5b8091505092915050565b6000806117748361232f565b9050600073ffffffffffffffffffffffffffffffffffffffff168173ffffffffffffffffffffffffffffffffffffffff16036117e757826040517f7e2732890000000000000000000000000000000000000000000000000000000081526004016117de9190612d67565b60405180910390fd5b80915050919050565b60006004600083815260200190815260200160002060009054906101000a900473ffffffffffffffffffffffffffffffffffffffff169050919050565b600033905090565b611842838383600161236c565b505050565b6000806118538461232f565b9050600073ffffffffffffffffffffffffffffffffffffffff168373ffffffffffffffffffffffffffffffffffffffff161461189557611894818486612531565b5b600073ffffffffffffffffffffffffffffffffffffffff168173ffffffffffffffffffffffffffffffffffffffff1614611926576118d760008560008061236c565b6001600360008373ffffffffffffffffffffffffffffffffffffffff1673ffffffffffffffffffffffffffffffffffffffff168152602001908152602001600020600082825403925050819055505b600073ffffffffffffffffffffffffffffffffffffffff168573ffffffffffffffffffffffffffffffffffffffff16146119a9576001600360008773ffffffffffffffffffffffffffffffffffffffff1673ffffffffffffffffffffffffffffffffffffffff168152602001908152602001600020600082825401925050819055505b846002600086815260200190815260200160002060006101000a81548173ffffffffffffffffffffffffffffffffffffffff021916908373ffffffffffffffffffffffffffffffffffffffff160217905550838573ffffffffffffffffffffffffffffffffffffffff168273ffffffffffffffffffffffffffffffffffffffff167fddf252ad1be2c89b69c2b068fc378daa952ba7f163c4a11628f55a4df523b3ef60405160405180910390a4809150509392505050565b600073ffffffffffffffffffffffffffffffffffffffff168273ffffffffffffffffffffffffffffffffffffffff1603611ad35760006040517f64a0ae92000000000000000000000000000000000000000000000000000000008152600401611aca9190612cd1565b60405180910390fd5b6000611ae183836000611847565b9050600073ffffffffffffffffffffffffffffffffffffffff168173ffffffffffffffffffffffffffffffffffffffff1614611b555760006040517f73c6ac6e000000000000000000000000000000000000000000000000000000008152600401611b4c9190612cd1565b60405180910390fd5b505050565b80600660008481526020019081526020016000209081611b7a919061354f565b507ff8e1a15aba9398e019f0b49df1a4fde98ee17ae345cb5f6b5e2c27f5033e8ce782604051611baa9190612d67565b60405180910390a15050565b600073ffffffffffffffffffffffffffffffffffffffff168273ffffffffffffffffffffffffffffffffffffffff1603611c2757816040517f5b08ba18000000000000000000000000000000000000000000000000000000008152600401611c1e9190612cd1565b60405180910390fd5b80600560008573ffffffffffffffffffffffffffffffffffffffff1673ffffffffffffffffffffffffffffffffffffffff16815260200190815260200160002060008473ffffffffffffffffffffffffffffffffffffffff1673ffffffffffffffffffffffffffffffffffffffff16815260200190815260200160002060006101000a81548160ff0219169083151502179055508173ffffffffffffffffffffffffffffffffffffffff168373ffffffffffffffffffffffffffffffffffffffff167f17307eab39ab6107e8899845ad3d59bd9653f200f220920489ca2b5937696c3183604051611d1891906129e8565b60405180910390a3505050565b600082821115611d3857611d37613374565b5b8183611d449190613621565b905092915050565b600073ffffffffffffffffffffffffffffffffffffffff168273ffffffffffffffffffffffffffffffffffffffff1603611dbe5760006040517f64a0ae92000000000000000000000000000000000000000000000000000000008152600401611db59190612cd1565b60405180910390fd5b6000611dcc83836000611847565b9050600073ffffffffffffffffffffffffffffffffffffffff168173ffffffffffffffffffffffffffffffffffffffff1603611e3f57816040517f7e273289000000000000000000000000000000000000000000000000000000008152600401611e369190612d67565b60405180910390fd5b8373ffffffffffffffffffffffffffffffffffffffff168173ffffffffffffffffffffffffffffffffffffffff1614611eb3578382826040517f64283d7b000000000000000000000000000000000000000000000000000000008152600401611eaa939291906132dd565b60405180910390fd5b50505050565b60008373ffffffffffffffffffffffffffffffffffffffff163b1115612063578273ffffffffffffffffffffffffffffffffffffffff1663150b7a02868685856040518563ffffffff1660e01b8152600401611f1894939291906136aa565b6020604051808303816000875af1925050508015611f5457506040513d601f19601f82011682018060405250810190611f51919061370b565b60015b611fd8573d8060008114611f84576040519150601f19603f3d011682016040523d82523d6000602084013e611f89565b606091505b506000815103611fd057836040517f64a0ae92000000000000000000000000000000000000000000000000000000008152600401611fc79190612cd1565b60405180910390fd5b805181602001fd5b63150b7a0260e01b7bffffffffffffffffffffffffffffffffffffffffffffffffffffffff1916817bffffffffffffffffffffffffffffffffffffffffffffffffffffffff19161461206157836040517f64a0ae920000000000000000000000000000000000000000000000000000000081526004016120589190612cd1565b60405180910390fd5b505b5050505050565b606060405180602001604052806000815250905090565b606061208c82611768565b50600061209761206a565b905060008151116120b757604051806020016040528060008152506120e2565b806120c1846125f5565b6040516020016120d2929190613350565b6040516020818303038152906040525b915050919050565b6000811161212d576040517f08c379a000000000000000000000000000000000000000000000000000000000815260040161212490613784565b60405180910390fd5b612143600160085461173c90919063ffffffff16565b6008819055506040518060a001604052808381526020013373ffffffffffffffffffffffffffffffffffffffff1681526020013073ffffffffffffffffffffffffffffffffffffffff16815260200182815260200160001515815250600b60008481526020019081526020016000206000820151816000015560208201518160010160006101000a81548173ffffffffffffffffffffffffffffffffffffffff021916908373ffffffffffffffffffffffffffffffffffffffff16021790555060408201518160020160006101000a81548173ffffffffffffffffffffffffffffffffffffffff021916908373ffffffffffffffffffffffffffffffffffffffff1602179055506060820151816003015560808201518160040160006101000a81548160ff021916908315150217905550905050612282333084611d4c565b817f3cf8eaa46d9accaa9c8e76a1b58ee317d0eac0885fb7635711309f21e5a25fb933308460006040516122b994939291906137a4565b60405180910390a25050565b60007f01ffc9a7000000000000000000000000000000000000000000000000000000007bffffffffffffffffffffffffffffffffffffffffffffffffffffffff1916827bffffffffffffffffffffffffffffffffffffffffffffffffffffffff1916149050919050565b60006002600083815260200190815260200160002060009054906101000a900473ffffffffffffffffffffffffffffffffffffffff169050919050565b80806123a55750600073ffffffffffffffffffffffffffffffffffffffff168273ffffffffffffffffffffffffffffffffffffffff1614155b156124d95760006123b584611768565b9050600073ffffffffffffffffffffffffffffffffffffffff168373ffffffffffffffffffffffffffffffffffffffff161415801561242057508273ffffffffffffffffffffffffffffffffffffffff168173ffffffffffffffffffffffffffffffffffffffff1614155b8015612433575061243181846115b8565b155b1561247557826040517fa9fbf51f00000000000000000000000000000000000000000000000000000000815260040161246c9190612cd1565b60405180910390fd5b81156124d757838573ffffffffffffffffffffffffffffffffffffffff168273ffffffffffffffffffffffffffffffffffffffff167f8c5be1e5ebec7d5bd14f71427d1e84f3dd0314c0f7b2291e5b200ac8c7c3b92560405160405180910390a45b505b836004600085815260200190815260200160002060006101000a81548173ffffffffffffffffffffffffffffffffffffffff021916908373ffffffffffffffffffffffffffffffffffffffff16021790555050505050565b61253c8383836126c3565b6125f057600073ffffffffffffffffffffffffffffffffffffffff168373ffffffffffffffffffffffffffffffffffffffff16036125b157806040517f7e2732890000000000000000000000000000000000000000000000000000000081526004016125a89190612d67565b60405180910390fd5b81816040517f177e802f0000000000000000000000000000000000000000000000000000000081526004016125e79291906137e9565b60405180910390fd5b505050565b60606000600161260484612784565b01905060008167ffffffffffffffff81111561262357612622612e0c565b5b6040519080825280601f01601f1916602001820160405280156126555781602001600182028036833780820191505090505b509050600082602001820190505b6001156126b8578080600190039150507f3031323334353637383961626364656600000000000000000000000000000000600a86061a8153600a85816126ac576126ab613812565b5b04945060008503612663575b819350505050919050565b60008073ffffffffffffffffffffffffffffffffffffffff168373ffffffffffffffffffffffffffffffffffffffff161415801561277b57508273ffffffffffffffffffffffffffffffffffffffff168473ffffffffffffffffffffffffffffffffffffffff16148061273c575061273b84846115b8565b5b8061277a57508273ffffffffffffffffffffffffffffffffffffffff16612762836117f0565b73ffffffffffffffffffffffffffffffffffffffff16145b5b90509392505050565b600080600090507a184f03e93ff9f4daa797ed6e38ed64bf6a1f01000000000000000083106127e2577a184f03e93ff9f4daa797ed6e38ed64bf6a1f01000000000000000083816127d8576127d7613812565b5b0492506040810190505b6d04ee2d6d415b85acef8100000000831061281f576d04ee2d6d415b85acef8100000000838161281557612814613812565b5b0492506020810190505b662386f26fc10000831061284e57662386f26fc10000838161284457612843613812565b5b0492506010810190505b6305f5e1008310612877576305f5e100838161286d5761286c613812565b5b0492506008810190505b612710831061289c57612710838161289257612891613812565b5b0492506004810190505b606483106128bf57606483816128b5576128b4613812565b5b0492506002810190505b600a83106128ce576001810190505b80915050919050565b6040518060a0016040528060008152602001600073ffffffffffffffffffffffffffffffffffffffff168152602001600073ffffffffffffffffffffffffffffffffffffffff168152602001600081526020016000151581525090565b6000604051905090565b600080fd5b600080fd5b60007fffffffff0000000000000000000000000000000000000000000000000000000082169050919050565b61297d81612948565b811461298857600080fd5b50565b60008135905061299a81612974565b92915050565b6000602082840312156129b6576129b561293e565b5b60006129c48482850161298b565b91505092915050565b60008115159050919050565b6129e2816129cd565b82525050565b60006020820190506129fd60008301846129d9565b92915050565b600081519050919050565b600082825260208201905092915050565b60005b83811015612a3d578082015181840152602081019050612a22565b60008484015250505050565b6000601f19601f8301169050919050565b6000612a6582612a03565b612a6f8185612a0e565b9350612a7f818560208601612a1f565b612a8881612a49565b840191505092915050565b60006020820190508181036000830152612aad8184612a5a565b905092915050565b600081519050919050565b600082825260208201905092915050565b6000819050602082019050919050565b6000819050919050565b612af481612ae1565b82525050565b600073ffffffffffffffffffffffffffffffffffffffff82169050919050565b6000612b2582612afa565b9050919050565b612b3581612b1a565b82525050565b612b44816129cd565b82525050565b60a082016000820151612b606000850182612aeb565b506020820151612b736020850182612b2c565b506040820151612b866040850182612b2c565b506060820151612b996060850182612aeb565b506080820151612bac6080850182612b3b565b50505050565b6000612bbe8383612b4a565b60a08301905092915050565b6000602082019050919050565b6000612be282612ab5565b612bec8185612ac0565b9350612bf783612ad1565b8060005b83811015612c28578151612c0f8882612bb2565b9750612c1a83612bca565b925050600181019050612bfb565b5085935050505092915050565b60006020820190508181036000830152612c4f8184612bd7565b905092915050565b612c6081612ae1565b8114612c6b57600080fd5b50565b600081359050612c7d81612c57565b92915050565b600060208284031215612c9957612c9861293e565b5b6000612ca784828501612c6e565b91505092915050565b6000612cbb82612afa565b9050919050565b612ccb81612cb0565b82525050565b6000602082019050612ce66000830184612cc2565b92915050565b612cf581612cb0565b8114612d0057600080fd5b50565b600081359050612d1281612cec565b92915050565b60008060408385031215612d2f57612d2e61293e565b5b6000612d3d85828601612d03565b9250506020612d4e85828601612c6e565b9150509250929050565b612d6181612ae1565b82525050565b6000602082019050612d7c6000830184612d58565b92915050565b600080600060608486031215612d9b57612d9a61293e565b5b6000612da986828701612d03565b9350506020612dba86828701612d03565b9250506040612dcb86828701612c6e565b9150509250925092565b600060208284031215612deb57612dea61293e565b5b6000612df984828501612d03565b91505092915050565b600080fd5b600080fd5b7f4e487b7100000000000000000000000000000000000000000000000000000000600052604160045260246000fd5b612e4482612a49565b810181811067ffffffffffffffff82111715612e6357612e62612e0c565b5b80604052505050565b6000612e76612934565b9050612e828282612e3b565b919050565b600067ffffffffffffffff821115612ea257612ea1612e0c565b5b612eab82612a49565b9050602081019050919050565b82818337600083830152505050565b6000612eda612ed584612e87565b612e6c565b905082815260208101848484011115612ef657612ef5612e07565b5b612f01848285612eb8565b509392505050565b600082601f830112612f1e57612f1d612e02565b5b8135612f2e848260208601612ec7565b91505092915050565b60008060408385031215612f4e57612f4d61293e565b5b600083013567ffffffffffffffff811115612f6c57612f6b612943565b5b612f7885828601612f09565b9250506020612f8985828601612d03565b9150509250929050565b612f9c816129cd565b8114612fa757600080fd5b50565b600081359050612fb981612f93565b92915050565b60008060408385031215612fd657612fd561293e565b5b6000612fe485828601612d03565b9250506020612ff585828601612faa565b9150509250929050565b600067ffffffffffffffff82111561301a57613019612e0c565b5b61302382612a49565b9050602081019050919050565b600061304361303e84612fff565b612e6c565b90508281526020810184848401111561305f5761305e612e07565b5b61306a848285612eb8565b509392505050565b600082601f83011261308757613086612e02565b5b8135613097848260208601613030565b91505092915050565b600080600080608085870312156130ba576130b961293e565b5b60006130c887828801612d03565b94505060206130d987828801612d03565b93505060406130ea87828801612c6e565b925050606085013567ffffffffffffffff81111561310b5761310a612943565b5b61311787828801613072565b91505092959194509250565b6000806040838503121561313a5761313961293e565b5b600061314885828601612d03565b925050602061315985828601612d03565b9150509250929050565b6000806040838503121561317a5761317961293e565b5b600061318885828601612c6e565b925050602061319985828601612c6e565b9150509250929050565b7f4e487b7100000000000000000000000000000000000000000000000000000000600052602260045260246000fd5b600060028204905060018216806131ea57607f821691505b6020821081036131fd576131fc6131a3565b5b50919050565b7f4e487b7100000000000000000000000000000000000000000000000000000000600052601160045260246000fd5b600061323d82612ae1565b915061324883612ae1565b92508282019050808211156132605761325f613203565b5b92915050565b7f4e487b7100000000000000000000000000000000000000000000000000000000600052603260045260246000fd5b60006132a082612ae1565b91507fffffffffffffffffffffffffffffffffffffffffffffffffffffffffffffffff82036132d2576132d1613203565b5b600182019050919050565b60006060820190506132f26000830186612cc2565b6132ff6020830185612d58565b61330c6040830184612cc2565b949350505050565b600081905092915050565b600061332a82612a03565b6133348185613314565b9350613344818560208601612a1f565b80840191505092915050565b600061335c828561331f565b9150613368828461331f565b91508190509392505050565b7f4e487b7100000000000000000000000000000000000000000000000000000000600052600160045260246000fd5b60008190508160005260206000209050919050565b60006020601f8301049050919050565b600082821b905092915050565b6000600883026134057fffffffffffffffffffffffffffffffffffffffffffffffffffffffffffffffff826133c8565b61340f86836133c8565b95508019841693508086168417925050509392505050565b6000819050919050565b600061344c61344761344284612ae1565b613427565b612ae1565b9050919050565b6000819050919050565b61346683613431565b61347a61347282613453565b8484546133d5565b825550505050565b600090565b61348f613482565b61349a81848461345d565b505050565b5b818110156134be576134b3600082613487565b6001810190506134a0565b5050565b601f821115613503576134d4816133a3565b6134dd846133b8565b810160208510156134ec578190505b6135006134f8856133b8565b83018261349f565b50505b505050565b600082821c905092915050565b600061352660001984600802613508565b1980831691505092915050565b600061353f8383613515565b9150826002028217905092915050565b61355882612a03565b67ffffffffffffffff81111561357157613570612e0c565b5b61357b82546131d2565b6135868282856134c2565b600060209050601f8311600181146135b957600084156135a7578287015190505b6135b18582613533565b865550613619565b601f1984166135c7866133a3565b60005b828110156135ef578489015182556001820191506020850194506020810190506135ca565b8683101561360c5784890151613608601f891682613515565b8355505b6001600288020188555050505b505050505050565b600061362c82612ae1565b915061363783612ae1565b925082820390508181111561364f5761364e613203565b5b92915050565b600081519050919050565b600082825260208201905092915050565b600061367c82613655565b6136868185613660565b9350613696818560208601612a1f565b61369f81612a49565b840191505092915050565b60006080820190506136bf6000830187612cc2565b6136cc6020830186612cc2565b6136d96040830185612d58565b81810360608301526136eb8184613671565b905095945050505050565b60008151905061370581612974565b92915050565b6000602082840312156137215761372061293e565b5b600061372f848285016136f6565b91505092915050565b7f5072696365206d757374206265206174206c6561737420312077656900000000600082015250565b600061376e601c83612a0e565b915061377982613738565b602082019050919050565b6000602082019050818103600083015261379d81613761565b9050919050565b60006080820190506137b96000830187612cc2565b6137c66020830186612cc2565b6137d36040830185612d58565b6137e060608301846129d9565b95945050505050565b60006040820190506137fe6000830185612cc2565b61380b6020830184612d58565b9392505050565b7f4e487b7100000000000000000000000000000000000000000000000000000000600052601260045260246000fdfea2646970667358221220a08477229ef8ec27e01a10f02cdbf4337e0c4466f2c1c6362836eb1f79885ac764736f6c63430008140033",
  "linkReferences": {},
  "deployedLinkReferences": {}
}