{
  "_format": "hh-sol-artifact-1",
  "contractName": "PackMarket",
  "sourceName": "contracts/PackMarket.sol",
  "abi": [
    {
      "anonymous": false,
      "inputs": [
        {
          "indexed": true,
          "internalType": "address",
          "name": "previousOwner",
          "type": "address"
        },
        {
          "indexed": true,
          "internalType": "address",
          "name": "newOwner",
          "type": "address"
        }
      ],
      "name": "OwnershipTransferred",
      "type": "event"
    },
    {
      "anonymous": false,
      "inputs": [
        {
          "indexed": true,
          "internalType": "address",
          "name": "buyer",
          "type": "address"
        },
        {
          "indexed": false,
          "internalType": "uint256",
          "name": "packId",
          "type": "uint256"
        }
      ],
      "name": "PackPurchased",
      "type": "event"
    },
    {
      "inputs": [],
      "name": "getPacksAvailable",
      "outputs": [
        {
          "internalType": "uint256",
          "name": "",
          "type": "uint256"
        }
      ],
      "stateMutability": "view",
      "type": "function"
    },
    {
      "inputs": [],
      "name": "getTotalPacksSold",
      "outputs": [
        {
          "internalType": "uint256",
          "name": "",
          "type": "uint256"
        }
      ],
      "stateMutability": "view",
      "type": "function"
    },
    {
      "inputs": [],
      "name": "isOwner",
      "outputs": [
        {
          "internalType": "bool",
          "name": "",
          "type": "bool"
        }
      ],
      "stateMutability": "view",
      "type": "function"
    },
    {
      "inputs": [],
      "name": "owner",
      "outputs": [
        {
          "internalType": "address",
          "name": "",
          "type": "address"
        }
      ],
      "stateMutability": "view",
      "type": "function"
    },
    {
      "inputs": [],
      "name": "packPrice",
      "outputs": [
        {
          "internalType": "uint256",
          "name": "",
          "type": "uint256"
        }
      ],
      "stateMutability": "view",
      "type": "function"
    },
    {
      "inputs": [],
      "name": "packsAvailable",
      "outputs": [
        {
          "internalType": "uint256",
          "name": "",
          "type": "uint256"
        }
      ],
      "stateMutability": "view",
      "type": "function"
    },
    {
      "inputs": [],
      "name": "purchasePack",
      "outputs": [],
      "stateMutability": "payable",
      "type": "function"
    },
    {
      "inputs": [],
      "name": "renounceOwnership",
      "outputs": [],
      "stateMutability": "nonpayable",
      "type": "function"
    },
    {
      "inputs": [],
      "name": "totalPacksSold",
      "outputs": [
        {
          "internalType": "uint256",
          "name": "",
          "type": "uint256"
        }
      ],
      "stateMutability": "view",
      "type": "function"
    },
    {
      "inputs": [
        {
          "internalType": "address",
          "name": "newOwner",
          "type": "address"
        }
      ],
      "name": "transferOwnership",
      "outputs": [],
      "stateMutability": "nonpayable",
      "type": "function"
    },
    {
      "inputs": [
        {
          "internalType": "uint256",
          "name": "newPrice",
          "type": "uint256"
        }
      ],
      "name": "updatePackPrice",
      "outputs": [],
      "stateMutability": "nonpayable",
      "type": "function"
    },
    {
      "inputs": [
        {
          "internalType": "uint256",
          "name": "newQty",
          "type": "uint256"
        }
      ],
      "name": "updatePacksAvailable",
      "outputs": [],
      "stateMutability": "nonpayable",
      "type": "function"
    },
    {
      "inputs": [],
      "name": "withdraw",
      "outputs": [],
      "stateMutability": "nonpayable",
      "type": "function"
    }
  ],
  "bytecode": "0x6080604052655af3107a40006001556064600255600060035534801561002457600080fd5b50336000806101000a81548173ffffffffffffffffffffffffffffffffffffffff021916908373ffffffffffffffffffffffffffffffffffffffff16021790555060008054906101000a900473ffffffffffffffffffffffffffffffffffffffff1673ffffffffffffffffffffffffffffffffffffffff16600073ffffffffffffffffffffffffffffffffffffffff167f8be0079c531659141344cd1fd0a4f28419497f9722a3daafe3b4186f6b6457e060405160405180910390a3610aba806100ef6000396000f3fe6080604052600436106100c25760003560e01c80637cc539b41161007f578063c0abba9e11610059578063c0abba9e146101fd578063d759000b14610228578063d917bf3e14610253578063f2fde38b1461027e576100c2565b80637cc539b41461017e5780638da5cb5b146101a75780638f32d59b146101d2576100c2565b80631a01d53a146100c7578063335c8b63146100f0578063356708f01461011b5780633ccfd60b1461012557806355901bb01461013c578063715018a614610167575b600080fd5b3480156100d357600080fd5b506100ee60048036038101906100e9919061076d565b6102a7565b005b3480156100fc57600080fd5b506101056102c2565b60405161011291906107a9565b60405180910390f35b6101236102c8565b005b34801561013157600080fd5b5061013a6103db565b005b34801561014857600080fd5b50610151610442565b60405161015e91906107a9565b60405180910390f35b34801561017357600080fd5b5061017c61044c565b005b34801561018a57600080fd5b506101a560048036038101906101a0919061076d565b61051b565b005b3480156101b357600080fd5b506101bc610536565b6040516101c99190610805565b60405180910390f35b3480156101de57600080fd5b506101e761055f565b6040516101f4919061083b565b60405180910390f35b34801561020957600080fd5b506102126105b6565b60405161021f91906107a9565b60405180910390f35b34801561023457600080fd5b5061023d6105bc565b60405161024a91906107a9565b60405180910390f35b34801561025f57600080fd5b506102686105c2565b60405161027591906107a9565b60405180910390f35b34801561028a57600080fd5b506102a560048036038101906102a09190610882565b6105cc565b005b6102af61055f565b6102b857600080fd5b8060028190555050565b60015481565b60006002541161030d576040517f08c379a000000000000000000000000000000000000000000000000000000000815260040161030490610932565b60405180910390fd5b6001543414610351576040517f08c379a00000000000000000000000000000000000000000000000000000000081526004016103489061099e565b60405180910390fd5b61036760016003546105e990919063ffffffff16565b600381905550610383600160025461061590919063ffffffff16565b6002819055503373ffffffffffffffffffffffffffffffffffffffff167fc79cad949a408373456da7a9e88e8114102aa00e03a69733c70e3a0d95944ca76003546040516103d191906107a9565b60405180910390a2565b6103e361055f565b6103ec57600080fd5b60006103f6610536565b90508073ffffffffffffffffffffffffffffffffffffffff166108fc479081150290604051600060405180830381858888f1935050505015801561043e573d6000803e3d6000fd5b5050565b6000600354905090565b61045461055f565b61045d57600080fd5b600073ffffffffffffffffffffffffffffffffffffffff1660008054906101000a900473ffffffffffffffffffffffffffffffffffffffff1673ffffffffffffffffffffffffffffffffffffffff167f8be0079c531659141344cd1fd0a4f28419497f9722a3daafe3b4186f6b6457e060405160405180910390a360008060006101000a81548173ffffffffffffffffffffffffffffffffffffffff021916908373ffffffffffffffffffffffffffffffffffffffff160217905550565b61052361055f565b61052c57600080fd5b8060018190555050565b60008060009054906101000a900473ffffffffffffffffffffffffffffffffffffffff16905090565b60008060009054906101000a900473ffffffffffffffffffffffffffffffffffffffff1673ffffffffffffffffffffffffffffffffffffffff163373ffffffffffffffffffffffffffffffffffffffff1614905090565b60035481565b60025481565b6000600254905090565b6105d461055f565b6105dd57600080fd5b6105e68161063c565b50565b60008082846105f891906109ed565b90508381101561060b5761060a610a21565b5b8091505092915050565b60008282111561062857610627610a21565b5b81836106349190610a50565b905092915050565b600073ffffffffffffffffffffffffffffffffffffffff168173ffffffffffffffffffffffffffffffffffffffff160361067557600080fd5b8073ffffffffffffffffffffffffffffffffffffffff1660008054906101000a900473ffffffffffffffffffffffffffffffffffffffff1673ffffffffffffffffffffffffffffffffffffffff167f8be0079c531659141344cd1fd0a4f28419497f9722a3daafe3b4186f6b6457e060405160405180910390a3806000806101000a81548173ffffffffffffffffffffffffffffffffffffffff021916908373ffffffffffffffffffffffffffffffffffffffff16021790555050565b600080fd5b6000819050919050565b61074a81610737565b811461075557600080fd5b50565b60008135905061076781610741565b92915050565b60006020828403121561078357610782610732565b5b600061079184828501610758565b91505092915050565b6107a381610737565b82525050565b60006020820190506107be600083018461079a565b92915050565b600073ffffffffffffffffffffffffffffffffffffffff82169050919050565b60006107ef826107c4565b9050919050565b6107ff816107e4565b82525050565b600060208201905061081a60008301846107f6565b92915050565b60008115159050919050565b61083581610820565b82525050565b6000602082019050610850600083018461082c565b92915050565b61085f816107e4565b811461086a57600080fd5b50565b60008135905061087c81610856565b92915050565b60006020828403121561089857610897610732565b5b60006108a68482850161086d565b91505092915050565b600082825260208201905092915050565b7f416c6c2063617264207061636b73206172652063757272656e746c7920736f6c60008201527f64206f7574000000000000000000000000000000000000000000000000000000602082015250565b600061091c6025836108af565b9150610927826108c0565b604082019050919050565b6000602082019050818103600083015261094b8161090f565b9050919050565b7f496e636f7272656374207061796d656e7420616d6f756e740000000000000000600082015250565b60006109886018836108af565b915061099382610952565b602082019050919050565b600060208201905081810360008301526109b78161097b565b9050919050565b7f4e487b7100000000000000000000000000000000000000000000000000000000600052601160045260246000fd5b60006109f882610737565b9150610a0383610737565b9250828201905080821115610a1b57610a1a6109be565b5b92915050565b7f4e487b7100000000000000000000000000000000000000000000000000000000600052600160045260246000fd5b6000610a5b82610737565b9150610a6683610737565b9250828203905081811115610a7e57610a7d6109be565b5b9291505056fea2646970667358221220c8b806b226553d25de44a8cd7c45c2ad48db6acfbb18179089119ce7b220858764736f6c63430008140033",
  "linkReferences": {},
  "deployedLinkReferences": {}
}